{
    "abi": [
        {
            "anonymous": false,
            "inputs": [
                {
                    "indexed": true,
                    "internalType": "address",
                    "name": "sender",
                    "type": "address"
                },
                {
                    "indexed": false,
                    "internalType": "address",
                    "name": "priceFeed",
                    "type": "address"
                }
            ],
            "name": "AddedPriceFeedRemoved",
            "type": "event"
        },
        {
            "anonymous": false,
            "inputs": [
                {
                    "indexed": true,
                    "internalType": "address",
                    "name": "sender",
                    "type": "address"
                },
                {
                    "indexed": false,
                    "internalType": "address",
                    "name": "applicant",
                    "type": "address"
                }
            ],
            "name": "ApplicantApproved",
            "type": "event"
        },
        {
            "anonymous": false,
            "inputs": [
                {
                    "indexed": true,
                    "internalType": "address",
                    "name": "sender",
                    "type": "address"
                },
                {
                    "indexed": false,
                    "internalType": "bytes32",
                    "name": "key",
                    "type": "bytes32"
                }
            ],
            "name": "CurrencyRegistered",
            "type": "event"
        },
        {
            "anonymous": false,
            "inputs": [
                {
                    "indexed": true,
                    "internalType": "address",
                    "name": "sender",
                    "type": "address"
                },
                {
                    "indexed": false,
                    "internalType": "bytes32",
                    "name": "key",
                    "type": "bytes32"
                }
            ],
            "name": "CurrencyRemoved",
            "type": "event"
        },
        {
            "anonymous": false,
            "inputs": [
                {
                    "indexed": true,
                    "internalType": "address",
                    "name": "sender",
                    "type": "address"
                },
                {
                    "indexed": false,
                    "internalType": "bytes32",
                    "name": "keyX",
                    "type": "bytes32"
                },
                {
                    "indexed": false,
                    "internalType": "bytes32",
                    "name": "keyY",
                    "type": "bytes32"
                }
            ],
            "name": "DerivedPriceFeedRemoved",
            "type": "event"
        },
        {
            "anonymous": false,
            "inputs": [
                {
                    "components": [
                        {
                            "internalType": "address",
                            "name": "facetAddress",
                            "type": "address"
                        },
                        {
                            "internalType": "enum Cut.FacetCutAction",
                            "name": "action",
                            "type": "uint8"
                        },
                        {
                            "internalType": "bytes4[]",
                            "name": "functionSelectors",
                            "type": "bytes4[]"
                        }
                    ],
                    "indexed": false,
                    "internalType": "struct Cut.FacetCut[]",
                    "name": "_cut",
                    "type": "tuple[]"
                },
                {
                    "indexed": false,
                    "internalType": "address",
                    "name": "_init",
                    "type": "address"
                },
                {
                    "indexed": false,
                    "internalType": "bytes",
                    "name": "_calldata",
                    "type": "bytes"
                }
            ],
            "name": "DiamondCut",
            "type": "event"
        },
        {
            "anonymous": false,
            "inputs": [
                {
                    "indexed": true,
                    "internalType": "address",
                    "name": "sender",
                    "type": "address"
                },
                {
                    "indexed": false,
                    "internalType": "uint256",
                    "name": "fee",
                    "type": "uint256"
                }
            ],
            "name": "FeeSetBase",
            "type": "event"
        },
        {
            "anonymous": false,
            "inputs": [
                {
                    "indexed": true,
                    "internalType": "address",
                    "name": "sender",
                    "type": "address"
                },
                {
                    "indexed": false,
                    "internalType": "uint256",
                    "name": "fee",
                    "type": "uint256"
                }
            ],
            "name": "FeeSetCancellation",
            "type": "event"
        },
        {
            "anonymous": false,
            "inputs": [
                {
                    "indexed": true,
                    "internalType": "address",
                    "name": "sender",
                    "type": "address"
                },
                {
                    "indexed": false,
                    "internalType": "uint256",
                    "name": "fee",
                    "type": "uint256"
                }
            ],
            "name": "FeeSetCostPerMetre",
            "type": "event"
        },
        {
            "anonymous": false,
            "inputs": [
                {
                    "indexed": true,
                    "internalType": "address",
                    "name": "sender",
                    "type": "address"
                },
                {
                    "indexed": false,
                    "internalType": "uint256",
                    "name": "fee",
                    "type": "uint256"
                }
            ],
            "name": "FeeSetCostPerMinute",
            "type": "event"
        },
        {
            "anonymous": false,
            "inputs": [
                {
                    "indexed": true,
                    "internalType": "address",
                    "name": "sender",
                    "type": "address"
                },
                {
                    "indexed": false,
                    "internalType": "bytes32",
                    "name": "key",
                    "type": "bytes32"
                },
                {
                    "indexed": false,
                    "internalType": "uint256",
                    "name": "amount",
                    "type": "uint256"
                }
            ],
            "name": "FundsLocked",
            "type": "event"
        },
        {
            "anonymous": false,
            "inputs": [
                {
                    "indexed": true,
                    "internalType": "address",
                    "name": "sender",
                    "type": "address"
                },
                {
                    "indexed": false,
                    "internalType": "address",
                    "name": "decrease",
                    "type": "address"
                },
                {
                    "indexed": false,
                    "internalType": "address",
                    "name": "increase",
                    "type": "address"
                },
                {
                    "indexed": false,
                    "internalType": "bytes32",
                    "name": "key",
                    "type": "bytes32"
                },
                {
                    "indexed": false,
                    "internalType": "uint256",
                    "name": "amount",
                    "type": "uint256"
                }
            ],
            "name": "FundsUnlocked",
            "type": "event"
        },
        {
            "anonymous": false,
            "inputs": [
                {
                    "indexed": true,
                    "internalType": "address",
                    "name": "sender",
                    "type": "address"
                },
                {
                    "indexed": false,
                    "internalType": "uint256",
                    "name": "count",
                    "type": "uint256"
                }
            ],
            "name": "HiveCreationCountSet",
            "type": "event"
        },
        {
            "anonymous": false,
            "inputs": [
                {
                    "indexed": true,
                    "internalType": "address",
                    "name": "sender",
                    "type": "address"
                },
                {
                    "indexed": false,
                    "internalType": "uint256",
                    "name": "duration",
                    "type": "uint256"
                }
            ],
            "name": "HiveDisputeDurationSet",
            "type": "event"
        },
        {
            "anonymous": false,
            "inputs": [
                {
                    "indexed": true,
                    "internalType": "address",
                    "name": "sender",
                    "type": "address"
                },
                {
                    "indexed": true,
                    "internalType": "bytes32",
                    "name": "jobId",
                    "type": "bytes32"
                }
            ],
            "name": "JobCleared",
            "type": "event"
        },
        {
            "anonymous": false,
            "inputs": [
                {
                    "indexed": true,
                    "internalType": "address",
                    "name": "sender",
                    "type": "address"
                },
                {
                    "indexed": false,
                    "internalType": "uint256",
                    "name": "duration",
                    "type": "uint256"
                }
            ],
            "name": "JobLifespanSet",
            "type": "event"
        },
        {
            "anonymous": false,
            "inputs": [
                {
                    "indexed": true,
                    "internalType": "address",
                    "name": "sender",
                    "type": "address"
                },
                {
                    "indexed": false,
                    "internalType": "uint256",
                    "name": "duration",
                    "type": "uint256"
                }
            ],
            "name": "MinDisputeDurationSet",
            "type": "event"
        },
        {
            "anonymous": false,
            "inputs": [
                {
                    "indexed": true,
                    "internalType": "address",
                    "name": "sender",
                    "type": "address"
                },
                {
                    "indexed": false,
                    "internalType": "address",
                    "name": "token",
                    "type": "address"
                }
            ],
            "name": "NativeTokenSet",
            "type": "event"
        },
        {
            "anonymous": false,
            "inputs": [
                {
                    "indexed": true,
                    "internalType": "address",
                    "name": "sender",
                    "type": "address"
                },
                {
                    "indexed": false,
                    "internalType": "bytes32",
                    "name": "keyX",
                    "type": "bytes32"
                },
                {
                    "indexed": false,
                    "internalType": "bytes32",
                    "name": "keyY",
                    "type": "bytes32"
                },
                {
                    "indexed": false,
                    "internalType": "address",
                    "name": "priceFeed",
                    "type": "address"
                }
            ],
            "name": "PriceFeedAdded",
            "type": "event"
        },
        {
            "anonymous": false,
            "inputs": [
                {
                    "indexed": true,
                    "internalType": "address",
                    "name": "sender",
                    "type": "address"
                },
                {
                    "indexed": false,
                    "internalType": "bytes32",
                    "name": "keyX",
                    "type": "bytes32"
                },
                {
                    "indexed": false,
                    "internalType": "bytes32",
                    "name": "keyY",
                    "type": "bytes32"
                },
                {
                    "indexed": false,
                    "internalType": "bytes32",
                    "name": "keyShared",
                    "type": "bytes32"
                }
            ],
            "name": "PriceFeedDerived",
            "type": "event"
        },
        {
            "anonymous": false,
            "inputs": [
                {
                    "indexed": true,
                    "internalType": "address",
                    "name": "sender",
                    "type": "address"
                },
                {
                    "indexed": false,
                    "internalType": "uint256",
                    "name": "rating",
                    "type": "uint256"
                }
            ],
            "name": "RatingGiven",
            "type": "event"
        },
        {
            "anonymous": false,
            "inputs": [
                {
                    "indexed": true,
                    "internalType": "bytes32",
                    "name": "role",
                    "type": "bytes32"
                },
                {
                    "indexed": true,
                    "internalType": "bytes32",
                    "name": "previousAdminRole",
                    "type": "bytes32"
                },
                {
                    "indexed": true,
                    "internalType": "bytes32",
                    "name": "newAdminRole",
                    "type": "bytes32"
                }
            ],
            "name": "RoleAdminChanged",
            "type": "event"
        },
        {
            "anonymous": false,
            "inputs": [
                {
                    "indexed": true,
                    "internalType": "bytes32",
                    "name": "role",
                    "type": "bytes32"
                },
                {
                    "indexed": true,
                    "internalType": "address",
                    "name": "account",
                    "type": "address"
                },
                {
                    "indexed": true,
                    "internalType": "address",
                    "name": "sender",
                    "type": "address"
                }
            ],
            "name": "RoleGranted",
            "type": "event"
        },
        {
            "anonymous": false,
            "inputs": [
                {
                    "indexed": true,
                    "internalType": "bytes32",
                    "name": "role",
                    "type": "bytes32"
                },
                {
                    "indexed": true,
                    "internalType": "address",
                    "name": "account",
                    "type": "address"
                },
                {
                    "indexed": true,
                    "internalType": "address",
                    "name": "sender",
                    "type": "address"
                }
            ],
            "name": "RoleRevoked",
            "type": "event"
        },
        {
            "anonymous": false,
            "inputs": [
                {
                    "indexed": true,
                    "internalType": "address",
                    "name": "sender",
                    "type": "address"
                },
                {
                    "indexed": false,
                    "internalType": "uint256",
                    "name": "min",
                    "type": "uint256"
                },
                {
                    "indexed": false,
                    "internalType": "uint256",
                    "name": "max",
                    "type": "uint256"
                }
            ],
            "name": "SetRatingBounds",
            "type": "event"
        },
        {
            "anonymous": false,
            "inputs": [
                {
                    "indexed": true,
                    "internalType": "address",
                    "name": "sender",
                    "type": "address"
                },
                {
                    "indexed": false,
                    "internalType": "address",
                    "name": "user",
                    "type": "address"
                },
                {
                    "indexed": false,
                    "internalType": "uint256",
                    "name": "banDuration",
                    "type": "uint256"
                }
            ],
            "name": "UserBanned",
            "type": "event"
        },
        {
            "inputs": [
                {
                    "internalType": "address",
                    "name": "_token",
                    "type": "address"
                }
            ],
            "name": "getKeyCrypto",
            "outputs": [
                {
                    "internalType": "bytes32",
                    "name": "",
                    "type": "bytes32"
                }
            ],
            "stateMutability": "view",
            "type": "function"
        },
        {
            "inputs": [
                {
                    "internalType": "string",
                    "name": "_code",
                    "type": "string"
                }
            ],
            "name": "getKeyFiat",
            "outputs": [
                {
                    "internalType": "bytes32",
                    "name": "",
                    "type": "bytes32"
                }
            ],
            "stateMutability": "view",
            "type": "function"
        },
        {
            "inputs": [],
            "name": "getNativeToken",
            "outputs": [
                {
                    "internalType": "address",
                    "name": "",
                    "type": "address"
                }
            ],
            "stateMutability": "view",
            "type": "function"
        },
        {
            "inputs": [
                {
                    "internalType": "address",
                    "name": "_token",
                    "type": "address"
                }
            ],
            "name": "registerCrypto",
            "outputs": [
                {
                    "internalType": "bytes32",
                    "name": "",
                    "type": "bytes32"
                }
            ],
            "stateMutability": "nonpayable",
            "type": "function"
        },
        {
            "inputs": [
                {
                    "internalType": "string",
                    "name": "_code",
                    "type": "string"
                }
            ],
            "name": "registerFiat",
            "outputs": [
                {
                    "internalType": "bytes32",
                    "name": "",
                    "type": "bytes32"
                }
            ],
            "stateMutability": "nonpayable",
            "type": "function"
        },
        {
            "inputs": [
                {
                    "internalType": "bytes32",
                    "name": "_key",
                    "type": "bytes32"
                }
            ],
            "name": "removeCurrency",
            "outputs": [],
            "stateMutability": "nonpayable",
            "type": "function"
        },
        {
            "inputs": [
                {
                    "internalType": "address",
                    "name": "_token",
                    "type": "address"
                }
            ],
            "name": "setNativeToken",
            "outputs": [],
            "stateMutability": "nonpayable",
            "type": "function"
        }
    ],
    "bytecode": "608060405234801561001057600080fd5b50610aff806100206000396000f3fe608060405234801561001057600080fd5b506004361061007d5760003560e01c80636da1e1021161005b5780636da1e102146100f557806397d448481461010a578063b59f26721461011d578063efd4ad5a1461013057600080fd5b8063068514c01461008257806315b9ba5d146100a857806323a6c38b146100e2575b600080fd5b6100956100903660046108cd565b610143565b6040519081526020015b60405180910390f35b7f61c2c7cf5017a0ead7aef00d9e35505290722fe92da9eca2feee8f02980bf564546040516001600160a01b03909116815260200161009f565b6100956100f036600461088e565b610160565b61010861010336600461088e565b61016b565b005b6100956101183660046108cd565b610177565b61009561012b36600461088e565b610182565b61010861013e3660046108b5565b61019e565b60008061014f836101a7565b905061015a816101d7565b92915050565b600061015a8261026d565b61017481610330565b50565b600061015a826103b1565b600080606083901b6bffffffffffffffffffffffff191661014f565b6101748161042a565b6000816040516020016101ba91906109ec565b604051602081830303815290604052805190602001209050919050565b60008181527f61c2c7cf5017a0ead7aef00d9e35505290722fe92da9eca2feee8f02980bf565602052604090205460ff166101745760405162461bcd60e51b815260206004820152602b60248201527f4c696243757272656e637952656769737472793a2043757272656e6379206e6f60448201526a1d081cdd5c1c1bdc9d195960aa1b60648201526084015b60405180910390fd5b60006001600160a01b0382166102d55760405162461bcd60e51b815260206004820152602760248201527f4c696243757272656e637952656769737472793a205a65726f20746f6b656e206044820152666164647265737360c81b6064820152608401610264565b6bffffffffffffffffffffffff19606083901b166102f28161055f565b60008181527f61c2c7cf5017a0ead7aef00d9e35505290722fe92da9eca2feee8f02980bf56660205260409020805460ff1916600117905592915050565b61033a6000610600565b807f61c2c7cf5017a0ead7aef00d9e35505290722fe92da9eca2feee8f02980bf56480546001600160a01b0319166001600160a01b03928316179055604051908216815233907f3ebb56a9312c658f4972a9780a452f94407562a5f33f8130fb30c39196897d79906020015b60405180910390a250565b60008151600014156104145760405162461bcd60e51b815260206004820152602660248201527f4c696243757272656e637952656769737472793a20456d70747920636f646520604482015265737472696e6760d01b6064820152608401610264565b600061041f836101a7565b905061015a8161055f565b61047b604051602001610460906020808252600f908201526e535452415445474953545f524f4c4560881b604082015260600190565b60405160208183030381529060405280519060200120610600565b610484816101d7565b60008181527f61c2c7cf5017a0ead7aef00d9e35505290722fe92da9eca2feee8f02980bf56560209081526040808320805460ff191690557f61c2c7cf5017a0ead7aef00d9e35505290722fe92da9eca2feee8f02980bf5669091529020547f61c2c7cf5017a0ead7aef00d9e35505290722fe92da9eca2feee8f02980bf5649060ff16156105265760008281526002820160205260409020805460ff191690555b60405182815233907f8c1c3c0bbb5819b4b50445eaca5f7d8510364ab11275c95fc9277b4fdcce32039060200160405180910390a25050565b610595604051602001610460906020808252600f908201526e535452415445474953545f524f4c4560881b604082015260600190565b60008181527f61c2c7cf5017a0ead7aef00d9e35505290722fe92da9eca2feee8f02980bf5656020908152604091829020805460ff19166001179055905182815233917f6df288c658a162629a93cff40b4625ea76e38e5cf12274b5164af9a933f9920191016103a6565b60008181527f4cd15452b25e815d3f9d1a3c7edd985a178edf5eb3461a1acbf855517423d69460209081526040808320338085529252909120546101749183918391839160ff166106a15761065f816001600160a01b031660146106a5565b61066a8360206106a5565b60405160200161067b929190610977565b60408051601f198184030181529082905262461bcd60e51b8252610264916004016109ec565b5050565b606060006106b4836002610a37565b6106bf906002610a1f565b67ffffffffffffffff8111156106e557634e487b7160e01b600052604160045260246000fd5b6040519080825280601f01601f19166020018201604052801561070f576020820181803683370190505b509050600360fc1b8160008151811061073857634e487b7160e01b600052603260045260246000fd5b60200101906001600160f81b031916908160001a905350600f60fb1b8160018151811061077557634e487b7160e01b600052603260045260246000fd5b60200101906001600160f81b031916908160001a9053506000610799846002610a37565b6107a4906001610a1f565b90505b6001811115610838576f181899199a1a9b1b9c1cb0b131b232b360811b85600f16601081106107e657634e487b7160e01b600052603260045260246000fd5b1a60f81b82828151811061080a57634e487b7160e01b600052603260045260246000fd5b60200101906001600160f81b031916908160001a90535060049490941c9361083181610a86565b90506107a7565b5083156108875760405162461bcd60e51b815260206004820181905260248201527f537472696e67733a20686578206c656e67746820696e73756666696369656e746044820152606401610264565b9392505050565b60006020828403121561089f578081fd5b81356001600160a01b0381168114610887578182fd5b6000602082840312156108c6578081fd5b5035919050565b6000602082840312156108de578081fd5b813567ffffffffffffffff808211156108f5578283fd5b818401915084601f830112610908578283fd5b81358181111561091a5761091a610ab3565b604051601f8201601f19908116603f0116810190838211818310171561094257610942610ab3565b8160405282815287602084870101111561095a578586fd5b826020860160208301379182016020019490945295945050505050565b7f416363657373436f6e74726f6c3a206163636f756e74200000000000000000008152600083516109af816017850160208801610a56565b7001034b99036b4b9b9b4b733903937b6329607d1b60179184019182015283516109e0816028840160208801610a56565b01602801949350505050565b6020815260008251806020840152610a0b816040850160208701610a56565b601f01601f19169190910160400192915050565b60008219821115610a3257610a32610a9d565b500190565b6000816000190483118215151615610a5157610a51610a9d565b500290565b60005b83811015610a71578181015183820152602001610a59565b83811115610a80576000848401525b50505050565b600081610a9557610a95610a9d565b506000190190565b634e487b7160e01b600052601160045260246000fd5b634e487b7160e01b600052604160045260246000fdfea264697066735822122078c7ffe6426bb046daba87f0308ffb387c0c644e0122d72815d055617f4f45f464736f6c63430008040033",
    "bytecodeSha1": "0718308d7722ea13226873ca88692374cb4fc621",
    "compiler": {
        "evm_version": "istanbul",
        "optimizer": {
            "enabled": true,
            "runs": 200
        },
        "version": "0.8.4+commit.c7e474f2"
    },
    "contractName": "CurrencyRegistry",
    "language": "Solidity",
    "natspec": {
        "kind": "dev",
        "methods": {},
        "version": 1
    },
    "opcodes": "PUSH1 0x80 PUSH1 0x40 MSTORE CALLVALUE DUP1 ISZERO PUSH2 0x10 JUMPI PUSH1 0x0 DUP1 REVERT JUMPDEST POP PUSH1 0x4 CALLDATASIZE LT PUSH2 0x7D JUMPI PUSH1 0x0 CALLDATALOAD PUSH1 0xE0 SHR DUP1 PUSH4 0x6DA1E102 GT PUSH2 0x5B JUMPI DUP1 PUSH4 0x6DA1E102 EQ PUSH2 0xF5 JUMPI DUP1 PUSH4 0x97D44848 EQ PUSH2 0x10A JUMPI DUP1 PUSH4 0xB59F2672 EQ PUSH2 0x11D JUMPI DUP1 PUSH4 0xEFD4AD5A EQ PUSH2 0x130 JUMPI PUSH1 0x0 DUP1 REVERT JUMPDEST DUP1 PUSH4 0x68514C0 EQ PUSH2 0x82 JUMPI DUP1 PUSH4 0x15B9BA5D EQ PUSH2 0xA8 JUMPI DUP1 PUSH4 0x23A6C38B EQ PUSH2 0xE2 JUMPI JUMPDEST PUSH1 0x0 DUP1 REVERT JUMPDEST PUSH2 0x95 PUSH2 0x90 CALLDATASIZE PUSH1 0x4 PUSH2 0x8CD JUMP JUMPDEST PUSH2 0x143 JUMP JUMPDEST PUSH1 0x40 MLOAD SWAP1 DUP2 MSTORE PUSH1 0x20 ADD JUMPDEST PUSH1 0x40 MLOAD DUP1 SWAP2 SUB SWAP1 RETURN JUMPDEST PUSH32 0x61C2C7CF5017A0EAD7AEF00D9E35505290722FE92DA9ECA2FEEE8F02980BF564 SLOAD PUSH1 0x40 MLOAD PUSH1 0x1 PUSH1 0x1 PUSH1 0xA0 SHL SUB SWAP1 SWAP2 AND DUP2 MSTORE PUSH1 0x20 ADD PUSH2 0x9F JUMP JUMPDEST PUSH2 0x95 PUSH2 0xF0 CALLDATASIZE PUSH1 0x4 PUSH2 0x88E JUMP JUMPDEST PUSH2 0x160 JUMP JUMPDEST PUSH2 0x108 PUSH2 0x103 CALLDATASIZE PUSH1 0x4 PUSH2 0x88E JUMP JUMPDEST PUSH2 0x16B JUMP JUMPDEST STOP JUMPDEST PUSH2 0x95 PUSH2 0x118 CALLDATASIZE PUSH1 0x4 PUSH2 0x8CD JUMP JUMPDEST PUSH2 0x177 JUMP JUMPDEST PUSH2 0x95 PUSH2 0x12B CALLDATASIZE PUSH1 0x4 PUSH2 0x88E JUMP JUMPDEST PUSH2 0x182 JUMP JUMPDEST PUSH2 0x108 PUSH2 0x13E CALLDATASIZE PUSH1 0x4 PUSH2 0x8B5 JUMP JUMPDEST PUSH2 0x19E JUMP JUMPDEST PUSH1 0x0 DUP1 PUSH2 0x14F DUP4 PUSH2 0x1A7 JUMP JUMPDEST SWAP1 POP PUSH2 0x15A DUP2 PUSH2 0x1D7 JUMP JUMPDEST SWAP3 SWAP2 POP POP JUMP JUMPDEST PUSH1 0x0 PUSH2 0x15A DUP3 PUSH2 0x26D JUMP JUMPDEST PUSH2 0x174 DUP2 PUSH2 0x330 JUMP JUMPDEST POP JUMP JUMPDEST PUSH1 0x0 PUSH2 0x15A DUP3 PUSH2 0x3B1 JUMP JUMPDEST PUSH1 0x0 DUP1 PUSH1 0x60 DUP4 SWAP1 SHL PUSH12 0xFFFFFFFFFFFFFFFFFFFFFFFF NOT AND PUSH2 0x14F JUMP JUMPDEST PUSH2 0x174 DUP2 PUSH2 0x42A JUMP JUMPDEST PUSH1 0x0 DUP2 PUSH1 0x40 MLOAD PUSH1 0x20 ADD PUSH2 0x1BA SWAP2 SWAP1 PUSH2 0x9EC JUMP JUMPDEST PUSH1 0x40 MLOAD PUSH1 0x20 DUP2 DUP4 SUB SUB DUP2 MSTORE SWAP1 PUSH1 0x40 MSTORE DUP1 MLOAD SWAP1 PUSH1 0x20 ADD KECCAK256 SWAP1 POP SWAP2 SWAP1 POP JUMP JUMPDEST PUSH1 0x0 DUP2 DUP2 MSTORE PUSH32 0x61C2C7CF5017A0EAD7AEF00D9E35505290722FE92DA9ECA2FEEE8F02980BF565 PUSH1 0x20 MSTORE PUSH1 0x40 SWAP1 KECCAK256 SLOAD PUSH1 0xFF AND PUSH2 0x174 JUMPI PUSH1 0x40 MLOAD PUSH3 0x461BCD PUSH1 0xE5 SHL DUP2 MSTORE PUSH1 0x20 PUSH1 0x4 DUP3 ADD MSTORE PUSH1 0x2B PUSH1 0x24 DUP3 ADD MSTORE PUSH32 0x4C696243757272656E637952656769737472793A2043757272656E6379206E6F PUSH1 0x44 DUP3 ADD MSTORE PUSH11 0x1D081CDD5C1C1BDC9D1959 PUSH1 0xAA SHL PUSH1 0x64 DUP3 ADD MSTORE PUSH1 0x84 ADD JUMPDEST PUSH1 0x40 MLOAD DUP1 SWAP2 SUB SWAP1 REVERT JUMPDEST PUSH1 0x0 PUSH1 0x1 PUSH1 0x1 PUSH1 0xA0 SHL SUB DUP3 AND PUSH2 0x2D5 JUMPI PUSH1 0x40 MLOAD PUSH3 0x461BCD PUSH1 0xE5 SHL DUP2 MSTORE PUSH1 0x20 PUSH1 0x4 DUP3 ADD MSTORE PUSH1 0x27 PUSH1 0x24 DUP3 ADD MSTORE PUSH32 0x4C696243757272656E637952656769737472793A205A65726F20746F6B656E20 PUSH1 0x44 DUP3 ADD MSTORE PUSH7 0x61646472657373 PUSH1 0xC8 SHL PUSH1 0x64 DUP3 ADD MSTORE PUSH1 0x84 ADD PUSH2 0x264 JUMP JUMPDEST PUSH12 0xFFFFFFFFFFFFFFFFFFFFFFFF NOT PUSH1 0x60 DUP4 SWAP1 SHL AND PUSH2 0x2F2 DUP2 PUSH2 0x55F JUMP JUMPDEST PUSH1 0x0 DUP2 DUP2 MSTORE PUSH32 0x61C2C7CF5017A0EAD7AEF00D9E35505290722FE92DA9ECA2FEEE8F02980BF566 PUSH1 0x20 MSTORE PUSH1 0x40 SWAP1 KECCAK256 DUP1 SLOAD PUSH1 0xFF NOT AND PUSH1 0x1 OR SWAP1 SSTORE SWAP3 SWAP2 POP POP JUMP JUMPDEST PUSH2 0x33A PUSH1 0x0 PUSH2 0x600 JUMP JUMPDEST DUP1 PUSH32 0x61C2C7CF5017A0EAD7AEF00D9E35505290722FE92DA9ECA2FEEE8F02980BF564 DUP1 SLOAD PUSH1 0x1 PUSH1 0x1 PUSH1 0xA0 SHL SUB NOT AND PUSH1 0x1 PUSH1 0x1 PUSH1 0xA0 SHL SUB SWAP3 DUP4 AND OR SWAP1 SSTORE PUSH1 0x40 MLOAD SWAP1 DUP3 AND DUP2 MSTORE CALLER SWAP1 PUSH32 0x3EBB56A9312C658F4972A9780A452F94407562A5F33F8130FB30C39196897D79 SWAP1 PUSH1 0x20 ADD JUMPDEST PUSH1 0x40 MLOAD DUP1 SWAP2 SUB SWAP1 LOG2 POP JUMP JUMPDEST PUSH1 0x0 DUP2 MLOAD PUSH1 0x0 EQ ISZERO PUSH2 0x414 JUMPI PUSH1 0x40 MLOAD PUSH3 0x461BCD PUSH1 0xE5 SHL DUP2 MSTORE PUSH1 0x20 PUSH1 0x4 DUP3 ADD MSTORE PUSH1 0x26 PUSH1 0x24 DUP3 ADD MSTORE PUSH32 0x4C696243757272656E637952656769737472793A20456D70747920636F646520 PUSH1 0x44 DUP3 ADD MSTORE PUSH6 0x737472696E67 PUSH1 0xD0 SHL PUSH1 0x64 DUP3 ADD MSTORE PUSH1 0x84 ADD PUSH2 0x264 JUMP JUMPDEST PUSH1 0x0 PUSH2 0x41F DUP4 PUSH2 0x1A7 JUMP JUMPDEST SWAP1 POP PUSH2 0x15A DUP2 PUSH2 0x55F JUMP JUMPDEST PUSH2 0x47B PUSH1 0x40 MLOAD PUSH1 0x20 ADD PUSH2 0x460 SWAP1 PUSH1 0x20 DUP1 DUP3 MSTORE PUSH1 0xF SWAP1 DUP3 ADD MSTORE PUSH15 0x535452415445474953545F524F4C45 PUSH1 0x88 SHL PUSH1 0x40 DUP3 ADD MSTORE PUSH1 0x60 ADD SWAP1 JUMP JUMPDEST PUSH1 0x40 MLOAD PUSH1 0x20 DUP2 DUP4 SUB SUB DUP2 MSTORE SWAP1 PUSH1 0x40 MSTORE DUP1 MLOAD SWAP1 PUSH1 0x20 ADD KECCAK256 PUSH2 0x600 JUMP JUMPDEST PUSH2 0x484 DUP2 PUSH2 0x1D7 JUMP JUMPDEST PUSH1 0x0 DUP2 DUP2 MSTORE PUSH32 0x61C2C7CF5017A0EAD7AEF00D9E35505290722FE92DA9ECA2FEEE8F02980BF565 PUSH1 0x20 SWAP1 DUP2 MSTORE PUSH1 0x40 DUP1 DUP4 KECCAK256 DUP1 SLOAD PUSH1 0xFF NOT AND SWAP1 SSTORE PUSH32 0x61C2C7CF5017A0EAD7AEF00D9E35505290722FE92DA9ECA2FEEE8F02980BF566 SWAP1 SWAP2 MSTORE SWAP1 KECCAK256 SLOAD PUSH32 0x61C2C7CF5017A0EAD7AEF00D9E35505290722FE92DA9ECA2FEEE8F02980BF564 SWAP1 PUSH1 0xFF AND ISZERO PUSH2 0x526 JUMPI PUSH1 0x0 DUP3 DUP2 MSTORE PUSH1 0x2 DUP3 ADD PUSH1 0x20 MSTORE PUSH1 0x40 SWAP1 KECCAK256 DUP1 SLOAD PUSH1 0xFF NOT AND SWAP1 SSTORE JUMPDEST PUSH1 0x40 MLOAD DUP3 DUP2 MSTORE CALLER SWAP1 PUSH32 0x8C1C3C0BBB5819B4B50445EACA5F7D8510364AB11275C95FC9277B4FDCCE3203 SWAP1 PUSH1 0x20 ADD PUSH1 0x40 MLOAD DUP1 SWAP2 SUB SWAP1 LOG2 POP POP JUMP JUMPDEST PUSH2 0x595 PUSH1 0x40 MLOAD PUSH1 0x20 ADD PUSH2 0x460 SWAP1 PUSH1 0x20 DUP1 DUP3 MSTORE PUSH1 0xF SWAP1 DUP3 ADD MSTORE PUSH15 0x535452415445474953545F524F4C45 PUSH1 0x88 SHL PUSH1 0x40 DUP3 ADD MSTORE PUSH1 0x60 ADD SWAP1 JUMP JUMPDEST PUSH1 0x0 DUP2 DUP2 MSTORE PUSH32 0x61C2C7CF5017A0EAD7AEF00D9E35505290722FE92DA9ECA2FEEE8F02980BF565 PUSH1 0x20 SWAP1 DUP2 MSTORE PUSH1 0x40 SWAP2 DUP3 SWAP1 KECCAK256 DUP1 SLOAD PUSH1 0xFF NOT AND PUSH1 0x1 OR SWAP1 SSTORE SWAP1 MLOAD DUP3 DUP2 MSTORE CALLER SWAP2 PUSH32 0x6DF288C658A162629A93CFF40B4625EA76E38E5CF12274B5164AF9A933F99201 SWAP2 ADD PUSH2 0x3A6 JUMP JUMPDEST PUSH1 0x0 DUP2 DUP2 MSTORE PUSH32 0x4CD15452B25E815D3F9D1A3C7EDD985A178EDF5EB3461A1ACBF855517423D694 PUSH1 0x20 SWAP1 DUP2 MSTORE PUSH1 0x40 DUP1 DUP4 KECCAK256 CALLER DUP1 DUP6 MSTORE SWAP3 MSTORE SWAP1 SWAP2 KECCAK256 SLOAD PUSH2 0x174 SWAP2 DUP4 SWAP2 DUP4 SWAP2 DUP4 SWAP2 PUSH1 0xFF AND PUSH2 0x6A1 JUMPI PUSH2 0x65F DUP2 PUSH1 0x1 PUSH1 0x1 PUSH1 0xA0 SHL SUB AND PUSH1 0x14 PUSH2 0x6A5 JUMP JUMPDEST PUSH2 0x66A DUP4 PUSH1 0x20 PUSH2 0x6A5 JUMP JUMPDEST PUSH1 0x40 MLOAD PUSH1 0x20 ADD PUSH2 0x67B SWAP3 SWAP2 SWAP1 PUSH2 0x977 JUMP JUMPDEST PUSH1 0x40 DUP1 MLOAD PUSH1 0x1F NOT DUP2 DUP5 SUB ADD DUP2 MSTORE SWAP1 DUP3 SWAP1 MSTORE PUSH3 0x461BCD PUSH1 0xE5 SHL DUP3 MSTORE PUSH2 0x264 SWAP2 PUSH1 0x4 ADD PUSH2 0x9EC JUMP JUMPDEST POP POP JUMP JUMPDEST PUSH1 0x60 PUSH1 0x0 PUSH2 0x6B4 DUP4 PUSH1 0x2 PUSH2 0xA37 JUMP JUMPDEST PUSH2 0x6BF SWAP1 PUSH1 0x2 PUSH2 0xA1F JUMP JUMPDEST PUSH8 0xFFFFFFFFFFFFFFFF DUP2 GT ISZERO PUSH2 0x6E5 JUMPI PUSH4 0x4E487B71 PUSH1 0xE0 SHL PUSH1 0x0 MSTORE PUSH1 0x41 PUSH1 0x4 MSTORE PUSH1 0x24 PUSH1 0x0 REVERT JUMPDEST PUSH1 0x40 MLOAD SWAP1 DUP1 DUP3 MSTORE DUP1 PUSH1 0x1F ADD PUSH1 0x1F NOT AND PUSH1 0x20 ADD DUP3 ADD PUSH1 0x40 MSTORE DUP1 ISZERO PUSH2 0x70F JUMPI PUSH1 0x20 DUP3 ADD DUP2 DUP1 CALLDATASIZE DUP4 CALLDATACOPY ADD SWAP1 POP JUMPDEST POP SWAP1 POP PUSH1 0x3 PUSH1 0xFC SHL DUP2 PUSH1 0x0 DUP2 MLOAD DUP2 LT PUSH2 0x738 JUMPI PUSH4 0x4E487B71 PUSH1 0xE0 SHL PUSH1 0x0 MSTORE PUSH1 0x32 PUSH1 0x4 MSTORE PUSH1 0x24 PUSH1 0x0 REVERT JUMPDEST PUSH1 0x20 ADD ADD SWAP1 PUSH1 0x1 PUSH1 0x1 PUSH1 0xF8 SHL SUB NOT AND SWAP1 DUP2 PUSH1 0x0 BYTE SWAP1 MSTORE8 POP PUSH1 0xF PUSH1 0xFB SHL DUP2 PUSH1 0x1 DUP2 MLOAD DUP2 LT PUSH2 0x775 JUMPI PUSH4 0x4E487B71 PUSH1 0xE0 SHL PUSH1 0x0 MSTORE PUSH1 0x32 PUSH1 0x4 MSTORE PUSH1 0x24 PUSH1 0x0 REVERT JUMPDEST PUSH1 0x20 ADD ADD SWAP1 PUSH1 0x1 PUSH1 0x1 PUSH1 0xF8 SHL SUB NOT AND SWAP1 DUP2 PUSH1 0x0 BYTE SWAP1 MSTORE8 POP PUSH1 0x0 PUSH2 0x799 DUP5 PUSH1 0x2 PUSH2 0xA37 JUMP JUMPDEST PUSH2 0x7A4 SWAP1 PUSH1 0x1 PUSH2 0xA1F JUMP JUMPDEST SWAP1 POP JUMPDEST PUSH1 0x1 DUP2 GT ISZERO PUSH2 0x838 JUMPI PUSH16 0x181899199A1A9B1B9C1CB0B131B232B3 PUSH1 0x81 SHL DUP6 PUSH1 0xF AND PUSH1 0x10 DUP2 LT PUSH2 0x7E6 JUMPI PUSH4 0x4E487B71 PUSH1 0xE0 SHL PUSH1 0x0 MSTORE PUSH1 0x32 PUSH1 0x4 MSTORE PUSH1 0x24 PUSH1 0x0 REVERT JUMPDEST BYTE PUSH1 0xF8 SHL DUP3 DUP3 DUP2 MLOAD DUP2 LT PUSH2 0x80A JUMPI PUSH4 0x4E487B71 PUSH1 0xE0 SHL PUSH1 0x0 MSTORE PUSH1 0x32 PUSH1 0x4 MSTORE PUSH1 0x24 PUSH1 0x0 REVERT JUMPDEST PUSH1 0x20 ADD ADD SWAP1 PUSH1 0x1 PUSH1 0x1 PUSH1 0xF8 SHL SUB NOT AND SWAP1 DUP2 PUSH1 0x0 BYTE SWAP1 MSTORE8 POP PUSH1 0x4 SWAP5 SWAP1 SWAP5 SHR SWAP4 PUSH2 0x831 DUP2 PUSH2 0xA86 JUMP JUMPDEST SWAP1 POP PUSH2 0x7A7 JUMP JUMPDEST POP DUP4 ISZERO PUSH2 0x887 JUMPI PUSH1 0x40 MLOAD PUSH3 0x461BCD PUSH1 0xE5 SHL DUP2 MSTORE PUSH1 0x20 PUSH1 0x4 DUP3 ADD DUP2 SWAP1 MSTORE PUSH1 0x24 DUP3 ADD MSTORE PUSH32 0x537472696E67733A20686578206C656E67746820696E73756666696369656E74 PUSH1 0x44 DUP3 ADD MSTORE PUSH1 0x64 ADD PUSH2 0x264 JUMP JUMPDEST SWAP4 SWAP3 POP POP POP JUMP JUMPDEST PUSH1 0x0 PUSH1 0x20 DUP3 DUP5 SUB SLT ISZERO PUSH2 0x89F JUMPI DUP1 DUP2 REVERT JUMPDEST DUP2 CALLDATALOAD PUSH1 0x1 PUSH1 0x1 PUSH1 0xA0 SHL SUB DUP2 AND DUP2 EQ PUSH2 0x887 JUMPI DUP2 DUP3 REVERT JUMPDEST PUSH1 0x0 PUSH1 0x20 DUP3 DUP5 SUB SLT ISZERO PUSH2 0x8C6 JUMPI DUP1 DUP2 REVERT JUMPDEST POP CALLDATALOAD SWAP2 SWAP1 POP JUMP JUMPDEST PUSH1 0x0 PUSH1 0x20 DUP3 DUP5 SUB SLT ISZERO PUSH2 0x8DE JUMPI DUP1 DUP2 REVERT JUMPDEST DUP2 CALLDATALOAD PUSH8 0xFFFFFFFFFFFFFFFF DUP1 DUP3 GT ISZERO PUSH2 0x8F5 JUMPI DUP3 DUP4 REVERT JUMPDEST DUP2 DUP5 ADD SWAP2 POP DUP5 PUSH1 0x1F DUP4 ADD SLT PUSH2 0x908 JUMPI DUP3 DUP4 REVERT JUMPDEST DUP2 CALLDATALOAD DUP2 DUP2 GT ISZERO PUSH2 0x91A JUMPI PUSH2 0x91A PUSH2 0xAB3 JUMP JUMPDEST PUSH1 0x40 MLOAD PUSH1 0x1F DUP3 ADD PUSH1 0x1F NOT SWAP1 DUP2 AND PUSH1 0x3F ADD AND DUP2 ADD SWAP1 DUP4 DUP3 GT DUP2 DUP4 LT OR ISZERO PUSH2 0x942 JUMPI PUSH2 0x942 PUSH2 0xAB3 JUMP JUMPDEST DUP2 PUSH1 0x40 MSTORE DUP3 DUP2 MSTORE DUP8 PUSH1 0x20 DUP5 DUP8 ADD ADD GT ISZERO PUSH2 0x95A JUMPI DUP6 DUP7 REVERT JUMPDEST DUP3 PUSH1 0x20 DUP7 ADD PUSH1 0x20 DUP4 ADD CALLDATACOPY SWAP2 DUP3 ADD PUSH1 0x20 ADD SWAP5 SWAP1 SWAP5 MSTORE SWAP6 SWAP5 POP POP POP POP POP JUMP JUMPDEST PUSH32 0x416363657373436F6E74726F6C3A206163636F756E7420000000000000000000 DUP2 MSTORE PUSH1 0x0 DUP4 MLOAD PUSH2 0x9AF DUP2 PUSH1 0x17 DUP6 ADD PUSH1 0x20 DUP9 ADD PUSH2 0xA56 JUMP JUMPDEST PUSH17 0x1034B99036B4B9B9B4B733903937B6329 PUSH1 0x7D SHL PUSH1 0x17 SWAP2 DUP5 ADD SWAP2 DUP3 ADD MSTORE DUP4 MLOAD PUSH2 0x9E0 DUP2 PUSH1 0x28 DUP5 ADD PUSH1 0x20 DUP9 ADD PUSH2 0xA56 JUMP JUMPDEST ADD PUSH1 0x28 ADD SWAP5 SWAP4 POP POP POP POP JUMP JUMPDEST PUSH1 0x20 DUP2 MSTORE PUSH1 0x0 DUP3 MLOAD DUP1 PUSH1 0x20 DUP5 ADD MSTORE PUSH2 0xA0B DUP2 PUSH1 0x40 DUP6 ADD PUSH1 0x20 DUP8 ADD PUSH2 0xA56 JUMP JUMPDEST PUSH1 0x1F ADD PUSH1 0x1F NOT AND SWAP2 SWAP1 SWAP2 ADD PUSH1 0x40 ADD SWAP3 SWAP2 POP POP JUMP JUMPDEST PUSH1 0x0 DUP3 NOT DUP3 GT ISZERO PUSH2 0xA32 JUMPI PUSH2 0xA32 PUSH2 0xA9D JUMP JUMPDEST POP ADD SWAP1 JUMP JUMPDEST PUSH1 0x0 DUP2 PUSH1 0x0 NOT DIV DUP4 GT DUP3 ISZERO ISZERO AND ISZERO PUSH2 0xA51 JUMPI PUSH2 0xA51 PUSH2 0xA9D JUMP JUMPDEST POP MUL SWAP1 JUMP JUMPDEST PUSH1 0x0 JUMPDEST DUP4 DUP2 LT ISZERO PUSH2 0xA71 JUMPI DUP2 DUP2 ADD MLOAD DUP4 DUP3 ADD MSTORE PUSH1 0x20 ADD PUSH2 0xA59 JUMP JUMPDEST DUP4 DUP2 GT ISZERO PUSH2 0xA80 JUMPI PUSH1 0x0 DUP5 DUP5 ADD MSTORE JUMPDEST POP POP POP POP JUMP JUMPDEST PUSH1 0x0 DUP2 PUSH2 0xA95 JUMPI PUSH2 0xA95 PUSH2 0xA9D JUMP JUMPDEST POP PUSH1 0x0 NOT ADD SWAP1 JUMP JUMPDEST PUSH4 0x4E487B71 PUSH1 0xE0 SHL PUSH1 0x0 MSTORE PUSH1 0x11 PUSH1 0x4 MSTORE PUSH1 0x24 PUSH1 0x0 REVERT JUMPDEST PUSH4 0x4E487B71 PUSH1 0xE0 SHL PUSH1 0x0 MSTORE PUSH1 0x41 PUSH1 0x4 MSTORE PUSH1 0x24 PUSH1 0x0 REVERT INVALID LOG2 PUSH5 0x6970667358 0x22 SLT KECCAK256 PUSH25 0xC7FFE6426BB046DABA87F0308FFB387C0C644E0122D72815D0 SSTORE PUSH2 0x7F4F GASLIMIT DELEGATECALL PUSH5 0x736F6C6343 STOP ADDMOD DIV STOP CALLER ",
    "sha1": "aad6ee8633ddecf6d908d1b61ff494dbe9525fc1",
    "source": "//SPDX-License-Identifier: BUSL-1.1\npragma solidity ^0.8.2;\n\nimport \"../../libraries/core/LibCurrencyRegistry.sol\";\nimport \"../../libraries/core/LibFee.sol\";\n\nimport \"../../interfaces/IHubLibraryEvents.sol\";\n\ncontract CurrencyRegistry is IHubLibraryEvents {\n    function setNativeToken(address _token) external {\n        LibCurrencyRegistry._setNativeToken(_token);\n    }\n\n    function getNativeToken() external view returns (address) {\n        return LibCurrencyRegistry._storageCurrencyRegistry().nativeToken;\n    }\n\n    function registerFiat(string memory _code) external returns (bytes32) {\n        return LibCurrencyRegistry._registerFiat(_code);\n    }\n\n    function registerCrypto(address _token) external returns (bytes32) {\n        return LibCurrencyRegistry._registerCrypto(_token);\n    }\n\n    //\n    // note:\n    // these getter functions needs _requireCurrencySupported check\n    // as without it, these getters would return a key but it won't\n    // be clear if this key is supported or not\n    //\n\n    function getKeyFiat(string memory _code) external view returns (bytes32) {\n        bytes32 key = LibCurrencyRegistry._encode_code(_code);\n        LibCurrencyRegistry._requireCurrencySupported(key);\n        return key;\n    }\n\n    function getKeyCrypto(address _token) external view returns (bytes32) {\n        bytes32 key = LibCurrencyRegistry._encode_token(_token);\n        LibCurrencyRegistry._requireCurrencySupported(key);\n        return key;\n    }\n\n    function removeCurrency(bytes32 _key) external {\n        LibCurrencyRegistry._removeCurrency(_key);\n    }\n}\n",
    "sourcePath": "contracts/hub/facets/core/CurrencyRegistry.sol",
    "type": "contract",
    "deployment": {
        "address": "0x0C73B97df0b1ea2Ee76Ba56bB1310984efCb91cA",
        "chainid": "80001",
        "blockHeight": 26007119
    }
}