{"abi":[{"anonymous":false,"inputs":[{"indexed":true,"internalType":"address","name":"sender","type":"address"},{"indexed":false,"internalType":"address","name":"priceFeed","type":"address"}],"name":"AddedPriceFeedRemoved","type":"event"},{"anonymous":false,"inputs":[{"indexed":true,"internalType":"address","name":"sender","type":"address"},{"indexed":false,"internalType":"address","name":"applicant","type":"address"}],"name":"ApplicantApproved","type":"event"},{"anonymous":false,"inputs":[{"indexed":true,"internalType":"address","name":"sender","type":"address"},{"indexed":false,"internalType":"bytes32","name":"key","type":"bytes32"}],"name":"CurrencyRegistered","type":"event"},{"anonymous":false,"inputs":[{"indexed":true,"internalType":"address","name":"sender","type":"address"},{"indexed":false,"internalType":"bytes32","name":"key","type":"bytes32"}],"name":"CurrencyRemoved","type":"event"},{"anonymous":false,"inputs":[{"indexed":true,"internalType":"address","name":"sender","type":"address"},{"indexed":false,"internalType":"bytes32","name":"keyX","type":"bytes32"},{"indexed":false,"internalType":"bytes32","name":"keyY","type":"bytes32"}],"name":"DerivedPriceFeedRemoved","type":"event"},{"anonymous":false,"inputs":[{"components":[{"internalType":"address","name":"facetAddress","type":"address"},{"internalType":"enum Cut.FacetCutAction","name":"action","type":"uint8"},{"internalType":"bytes4[]","name":"functionSelectors","type":"bytes4[]"}],"indexed":false,"internalType":"struct Cut.FacetCut[]","name":"_cut","type":"tuple[]"},{"indexed":false,"internalType":"address","name":"_init","type":"address"},{"indexed":false,"internalType":"bytes","name":"_calldata","type":"bytes"}],"name":"DiamondCut","type":"event"},{"anonymous":false,"inputs":[{"indexed":true,"internalType":"address","name":"sender","type":"address"},{"indexed":false,"internalType":"uint256","name":"fee","type":"uint256"}],"name":"FeeSetBase","type":"event"},{"anonymous":false,"inputs":[{"indexed":true,"internalType":"address","name":"sender","type":"address"},{"indexed":false,"internalType":"uint256","name":"fee","type":"uint256"}],"name":"FeeSetCancellation","type":"event"},{"anonymous":false,"inputs":[{"indexed":true,"internalType":"address","name":"sender","type":"address"},{"indexed":false,"internalType":"uint256","name":"fee","type":"uint256"}],"name":"FeeSetCostPerMetre","type":"event"},{"anonymous":false,"inputs":[{"indexed":true,"internalType":"address","name":"sender","type":"address"},{"indexed":false,"internalType":"uint256","name":"fee","type":"uint256"}],"name":"FeeSetCostPerMinute","type":"event"},{"anonymous":false,"inputs":[{"indexed":true,"internalType":"address","name":"sender","type":"address"},{"indexed":false,"internalType":"bytes32","name":"key","type":"bytes32"},{"indexed":false,"internalType":"uint256","name":"amount","type":"uint256"}],"name":"FundsLocked","type":"event"},{"anonymous":false,"inputs":[{"indexed":true,"internalType":"address","name":"sender","type":"address"},{"indexed":false,"internalType":"address","name":"decrease","type":"address"},{"indexed":false,"internalType":"address","name":"increase","type":"address"},{"indexed":false,"internalType":"bytes32","name":"key","type":"bytes32"},{"indexed":false,"internalType":"uint256","name":"amount","type":"uint256"}],"name":"FundsUnlocked","type":"event"},{"anonymous":false,"inputs":[{"indexed":true,"internalType":"address","name":"sender","type":"address"},{"indexed":false,"internalType":"uint256","name":"count","type":"uint256"}],"name":"HiveCreationCountSet","type":"event"},{"anonymous":false,"inputs":[{"indexed":true,"internalType":"address","name":"sender","type":"address"},{"indexed":false,"internalType":"uint256","name":"duration","type":"uint256"}],"name":"HiveDisputeDurationSet","type":"event"},{"anonymous":false,"inputs":[{"indexed":true,"internalType":"address","name":"sender","type":"address"},{"indexed":true,"internalType":"bytes32","name":"jobId","type":"bytes32"}],"name":"JobCleared","type":"event"},{"anonymous":false,"inputs":[{"indexed":true,"internalType":"address","name":"sender","type":"address"},{"indexed":false,"internalType":"uint256","name":"duration","type":"uint256"}],"name":"JobLifespanSet","type":"event"},{"anonymous":false,"inputs":[{"indexed":true,"internalType":"address","name":"sender","type":"address"},{"indexed":false,"internalType":"uint256","name":"duration","type":"uint256"}],"name":"MinDisputeDurationSet","type":"event"},{"anonymous":false,"inputs":[{"indexed":true,"internalType":"address","name":"sender","type":"address"},{"indexed":false,"internalType":"address","name":"token","type":"address"}],"name":"NativeTokenSet","type":"event"},{"anonymous":false,"inputs":[{"indexed":true,"internalType":"address","name":"sender","type":"address"},{"indexed":false,"internalType":"bytes32","name":"keyX","type":"bytes32"},{"indexed":false,"internalType":"bytes32","name":"keyY","type":"bytes32"},{"indexed":false,"internalType":"address","name":"priceFeed","type":"address"}],"name":"PriceFeedAdded","type":"event"},{"anonymous":false,"inputs":[{"indexed":true,"internalType":"address","name":"sender","type":"address"},{"indexed":false,"internalType":"bytes32","name":"keyX","type":"bytes32"},{"indexed":false,"internalType":"bytes32","name":"keyY","type":"bytes32"},{"indexed":false,"internalType":"bytes32","name":"keyShared","type":"bytes32"}],"name":"PriceFeedDerived","type":"event"},{"anonymous":false,"inputs":[{"indexed":true,"internalType":"address","name":"sender","type":"address"},{"indexed":false,"internalType":"uint256","name":"rating","type":"uint256"}],"name":"RatingGiven","type":"event"},{"anonymous":false,"inputs":[{"indexed":true,"internalType":"bytes32","name":"role","type":"bytes32"},{"indexed":true,"internalType":"bytes32","name":"previousAdminRole","type":"bytes32"},{"indexed":true,"internalType":"bytes32","name":"newAdminRole","type":"bytes32"}],"name":"RoleAdminChanged","type":"event"},{"anonymous":false,"inputs":[{"indexed":true,"internalType":"bytes32","name":"role","type":"bytes32"},{"indexed":true,"internalType":"address","name":"account","type":"address"},{"indexed":true,"internalType":"address","name":"sender","type":"address"}],"name":"RoleGranted","type":"event"},{"anonymous":false,"inputs":[{"indexed":true,"internalType":"bytes32","name":"role","type":"bytes32"},{"indexed":true,"internalType":"address","name":"account","type":"address"},{"indexed":true,"internalType":"address","name":"sender","type":"address"}],"name":"RoleRevoked","type":"event"},{"anonymous":false,"inputs":[{"indexed":true,"internalType":"address","name":"sender","type":"address"},{"indexed":false,"internalType":"uint256","name":"min","type":"uint256"},{"indexed":false,"internalType":"uint256","name":"max","type":"uint256"}],"name":"SetRatingBounds","type":"event"},{"anonymous":false,"inputs":[{"indexed":true,"internalType":"address","name":"sender","type":"address"},{"indexed":false,"internalType":"address","name":"user","type":"address"},{"indexed":false,"internalType":"uint256","name":"banDuration","type":"uint256"}],"name":"UserBanned","type":"event"},{"inputs":[],"name":"getRatingMax","outputs":[{"internalType":"uint256","name":"","type":"uint256"}],"stateMutability":"view","type":"function"},{"inputs":[],"name":"getRatingMin","outputs":[{"internalType":"uint256","name":"","type":"uint256"}],"stateMutability":"view","type":"function"},{"inputs":[{"internalType":"bytes32","name":"_jobId","type":"bytes32"},{"internalType":"uint256","name":"_rating","type":"uint256"}],"name":"giveRating","outputs":[],"stateMutability":"nonpayable","type":"function"},{"inputs":[{"internalType":"uint256","name":"_min","type":"uint256"},{"internalType":"uint256","name":"_max","type":"uint256"}],"name":"setRatingBounds","outputs":[],"stateMutability":"nonpayable","type":"function"}],"bytecode":"608060405234801561001057600080fd5b50610a6a806100206000396000f3fe608060405234801561001057600080fd5b506004361061004c5760003560e01c80633e8bc7ec14610051578063d56f509f14610066578063da4db64f1461009b578063f592cff0146100ae575b600080fd5b61006461005f3660046108d7565b6100d5565b005b7f46c0914bf24666fe25f9613bee4d3fa84329f5e46e3bdbe0372d1a4fe2fbd2f7545b60405190815260200160405180910390f35b6100646100a93660046108d7565b6100e3565b7f46c0914bf24666fe25f9613bee4d3fa84329f5e46e3bdbe0372d1a4fe2fbd2f854610089565b6100df82826100ed565b5050565b6100df82826103f6565b6100f733836105a3565b60008281527fe79924097ccc2e2b47e332de4c30d72abc5a8153cca3b67cc7a0f5258cd81de860208190526040909120600b015462010000900460ff16156101865760405162461bcd60e51b815260206004820152601b60248201527f4c696252617465723a206a6f6220616c7265616479207261746564000000000060448201526064015b60405180910390fd5b600560008481526020839052604090205460ff1660058111156101b957634e487b7160e01b600052602160045260246000fd5b14806101f55750600260008481526020839052604090205460ff1660058111156101f357634e487b7160e01b600052602160045260246000fd5b145b6102585760405162461bcd60e51b815260206004820152602e60248201527f4c696252617465723a206a6f62207374617465206e6f7420636f6d706c65746560448201526d19081bdc8818d85b98d95b1b195960921b606482015260840161017d565b7f46c0914bf24666fe25f9613bee4d3fa84329f5e46e3bdbe0372d1a4fe2fbd2f780547fc7ddcdc008a4787bc0ebc7e57c6de87615ae1cb780f671ab25bfdfbd9cc9ce62919084108015906102b1575080600101548411155b6103235760405162461bcd60e51b815260206004820152603f60248201527f4c696252617465723a20726174696e67206d7573742062652077697468696e2060448201527f6d696e20616e64206d617820726174696e67732028696e636c75736976652900606482015260840161017d565b600085815260208481526040808320600101546001600160a01b031680845291859052822060070180549192879261035c9084906109a0565b90915550506001600160a01b038116600090815260208490526040812060080180546001929061038d9084906109a0565b909155505060008681526020859052604090819020600b01805462ff00001916620100001790555133907f8675af36ac948980cb63b6f8e1fd260a654d9bd8cd0a2d96d4cfc61b3913537a906103e69088815260200190565b60405180910390a2505050505050565b61044760405160200161042c906020808252600f908201526e535452415445474953545f524f4c4560881b604082015260600190565b60405160208183030381529060405280519060200120610645565b600082116104a75760405162461bcd60e51b815260206004820152602760248201527f4c696252617465723a2063616e6e6f742068617665207a65726f20726174696e60448201526619c8189bdd5b9960ca1b606482015260840161017d565b81811161051c5760405162461bcd60e51b815260206004820152603960248201527f4c696252617465723a206d6178696d756d20726174696e67206d75737420626560448201527f206d6f7265207468616e206d696e696d756d20726174696e6700000000000000606482015260840161017d565b7f46c0914bf24666fe25f9613bee4d3fa84329f5e46e3bdbe0372d1a4fe2fbd2f78281557f46c0914bf24666fe25f9613bee4d3fa84329f5e46e3bdbe0372d1a4fe2fbd2f88290556040805184815260208101849052815133927f9cdcb3d527bbfa3646e8cfa2c42a9af323bf0950353eb82a8917acf60eca6be6928290030190a2505050565b60008181527fe79924097ccc2e2b47e332de4c30d72abc5a8153cca3b67cc7a0f5258cd81de860205260409020546001600160a01b0383811661010090920416146100df5760405162461bcd60e51b815260206004820152602c60248201527f4c69625265717565737465723a2063616c6c6572206e6f74206d61746368206a60448201526b37b1103932b8bab2b9ba32b960a11b606482015260840161017d565b61064e81610651565b50565b60008181527f4cd15452b25e815d3f9d1a3c7edd985a178edf5eb3461a1acbf855517423d694602090815260408083203380855292529091205461064e91839160ff166100df576106ac816001600160a01b031660146106ee565b6106b78360206106ee565b6040516020016106c89291906108f8565b60408051601f198184030181529082905262461bcd60e51b825261017d9160040161096d565b606060006106fd8360026109b8565b6107089060026109a0565b67ffffffffffffffff81111561072e57634e487b7160e01b600052604160045260246000fd5b6040519080825280601f01601f191660200182016040528015610758576020820181803683370190505b509050600360fc1b8160008151811061078157634e487b7160e01b600052603260045260246000fd5b60200101906001600160f81b031916908160001a905350600f60fb1b816001815181106107be57634e487b7160e01b600052603260045260246000fd5b60200101906001600160f81b031916908160001a90535060006107e28460026109b8565b6107ed9060016109a0565b90505b6001811115610881576f181899199a1a9b1b9c1cb0b131b232b360811b85600f166010811061082f57634e487b7160e01b600052603260045260246000fd5b1a60f81b82828151811061085357634e487b7160e01b600052603260045260246000fd5b60200101906001600160f81b031916908160001a90535060049490941c9361087a81610a07565b90506107f0565b5083156108d05760405162461bcd60e51b815260206004820181905260248201527f537472696e67733a20686578206c656e67746820696e73756666696369656e74604482015260640161017d565b9392505050565b600080604083850312156108e9578182fd5b50508035926020909101359150565b7f416363657373436f6e74726f6c3a206163636f756e74200000000000000000008152600083516109308160178501602088016109d7565b7001034b99036b4b9b9b4b733903937b6329607d1b60179184019182015283516109618160288401602088016109d7565b01602801949350505050565b602081526000825180602084015261098c8160408501602087016109d7565b601f01601f19169190910160400192915050565b600082198211156109b3576109b3610a1e565b500190565b60008160001904831182151516156109d2576109d2610a1e565b500290565b60005b838110156109f25781810151838201526020016109da565b83811115610a01576000848401525b50505050565b600081610a1657610a16610a1e565b506000190190565b634e487b7160e01b600052601160045260246000fdfea2646970667358221220b8bbe8deeddd470dd28f03986be9f4ec451c4840153ed912dfcd02ef335045e264736f6c63430008040033","bytecodeSha1":"3671082db839934768727a586c6cfa0103d94314","compiler":{"evm_version":"istanbul","optimizer":{"enabled":true,"runs":200},"version":"0.8.4+commit.c7e474f2"},"contractName":"Rater","language":"Solidity","natspec":{"kind":"dev","methods":{"setRatingBounds(uint256,uint256)":{"notice":"setRatingBounds sets bounds for rating","params":{"_max":"| unitless integer","_min":"| unitless integer"}}},"version":1},"opcodes":"PUSH1 0x80 PUSH1 0x40 MSTORE CALLVALUE DUP1 ISZERO PUSH2 0x10 JUMPI PUSH1 0x0 DUP1 REVERT JUMPDEST POP PUSH1 0x4 CALLDATASIZE LT PUSH2 0x4C JUMPI PUSH1 0x0 CALLDATALOAD PUSH1 0xE0 SHR DUP1 PUSH4 0x3E8BC7EC EQ PUSH2 0x51 JUMPI DUP1 PUSH4 0xD56F509F EQ PUSH2 0x66 JUMPI DUP1 PUSH4 0xDA4DB64F EQ PUSH2 0x9B JUMPI DUP1 PUSH4 0xF592CFF0 EQ PUSH2 0xAE JUMPI JUMPDEST PUSH1 0x0 DUP1 REVERT JUMPDEST PUSH2 0x64 PUSH2 0x5F CALLDATASIZE PUSH1 0x4 PUSH2 0x8D7 JUMP JUMPDEST PUSH2 0xD5 JUMP JUMPDEST STOP JUMPDEST PUSH32 0x46C0914BF24666FE25F9613BEE4D3FA84329F5E46E3BDBE0372D1A4FE2FBD2F7 SLOAD JUMPDEST PUSH1 0x40 MLOAD SWAP1 DUP2 MSTORE PUSH1 0x20 ADD PUSH1 0x40 MLOAD DUP1 SWAP2 SUB SWAP1 RETURN JUMPDEST PUSH2 0x64 PUSH2 0xA9 CALLDATASIZE PUSH1 0x4 PUSH2 0x8D7 JUMP JUMPDEST PUSH2 0xE3 JUMP JUMPDEST PUSH32 0x46C0914BF24666FE25F9613BEE4D3FA84329F5E46E3BDBE0372D1A4FE2FBD2F8 SLOAD PUSH2 0x89 JUMP JUMPDEST PUSH2 0xDF DUP3 DUP3 PUSH2 0xED JUMP JUMPDEST POP POP JUMP JUMPDEST PUSH2 0xDF DUP3 DUP3 PUSH2 0x3F6 JUMP JUMPDEST PUSH2 0xF7 CALLER DUP4 PUSH2 0x5A3 JUMP JUMPDEST PUSH1 0x0 DUP3 DUP2 MSTORE PUSH32 0xE79924097CCC2E2B47E332DE4C30D72ABC5A8153CCA3B67CC7A0F5258CD81DE8 PUSH1 0x20 DUP2 SWAP1 MSTORE PUSH1 0x40 SWAP1 SWAP2 KECCAK256 PUSH1 0xB ADD SLOAD PUSH3 0x10000 SWAP1 DIV PUSH1 0xFF AND ISZERO PUSH2 0x186 JUMPI PUSH1 0x40 MLOAD PUSH3 0x461BCD PUSH1 0xE5 SHL DUP2 MSTORE PUSH1 0x20 PUSH1 0x4 DUP3 ADD MSTORE PUSH1 0x1B PUSH1 0x24 DUP3 ADD MSTORE PUSH32 0x4C696252617465723A206A6F6220616C72656164792072617465640000000000 PUSH1 0x44 DUP3 ADD MSTORE PUSH1 0x64 ADD JUMPDEST PUSH1 0x40 MLOAD DUP1 SWAP2 SUB SWAP1 REVERT JUMPDEST PUSH1 0x5 PUSH1 0x0 DUP5 DUP2 MSTORE PUSH1 0x20 DUP4 SWAP1 MSTORE PUSH1 0x40 SWAP1 KECCAK256 SLOAD PUSH1 0xFF AND PUSH1 0x5 DUP2 GT ISZERO PUSH2 0x1B9 JUMPI PUSH4 0x4E487B71 PUSH1 0xE0 SHL PUSH1 0x0 MSTORE PUSH1 0x21 PUSH1 0x4 MSTORE PUSH1 0x24 PUSH1 0x0 REVERT JUMPDEST EQ DUP1 PUSH2 0x1F5 JUMPI POP PUSH1 0x2 PUSH1 0x0 DUP5 DUP2 MSTORE PUSH1 0x20 DUP4 SWAP1 MSTORE PUSH1 0x40 SWAP1 KECCAK256 SLOAD PUSH1 0xFF AND PUSH1 0x5 DUP2 GT ISZERO PUSH2 0x1F3 JUMPI PUSH4 0x4E487B71 PUSH1 0xE0 SHL PUSH1 0x0 MSTORE PUSH1 0x21 PUSH1 0x4 MSTORE PUSH1 0x24 PUSH1 0x0 REVERT JUMPDEST EQ JUMPDEST PUSH2 0x258 JUMPI PUSH1 0x40 MLOAD PUSH3 0x461BCD PUSH1 0xE5 SHL DUP2 MSTORE PUSH1 0x20 PUSH1 0x4 DUP3 ADD MSTORE PUSH1 0x2E PUSH1 0x24 DUP3 ADD MSTORE PUSH32 0x4C696252617465723A206A6F62207374617465206E6F7420636F6D706C657465 PUSH1 0x44 DUP3 ADD MSTORE PUSH14 0x19081BDC8818D85B98D95B1B1959 PUSH1 0x92 SHL PUSH1 0x64 DUP3 ADD MSTORE PUSH1 0x84 ADD PUSH2 0x17D JUMP JUMPDEST PUSH32 0x46C0914BF24666FE25F9613BEE4D3FA84329F5E46E3BDBE0372D1A4FE2FBD2F7 DUP1 SLOAD PUSH32 0xC7DDCDC008A4787BC0EBC7E57C6DE87615AE1CB780F671AB25BFDFBD9CC9CE62 SWAP2 SWAP1 DUP5 LT DUP1 ISZERO SWAP1 PUSH2 0x2B1 JUMPI POP DUP1 PUSH1 0x1 ADD SLOAD DUP5 GT ISZERO JUMPDEST PUSH2 0x323 JUMPI PUSH1 0x40 MLOAD PUSH3 0x461BCD PUSH1 0xE5 SHL DUP2 MSTORE PUSH1 0x20 PUSH1 0x4 DUP3 ADD MSTORE PUSH1 0x3F PUSH1 0x24 DUP3 ADD MSTORE PUSH32 0x4C696252617465723A20726174696E67206D7573742062652077697468696E20 PUSH1 0x44 DUP3 ADD MSTORE PUSH32 0x6D696E20616E64206D617820726174696E67732028696E636C75736976652900 PUSH1 0x64 DUP3 ADD MSTORE PUSH1 0x84 ADD PUSH2 0x17D JUMP JUMPDEST PUSH1 0x0 DUP6 DUP2 MSTORE PUSH1 0x20 DUP5 DUP2 MSTORE PUSH1 0x40 DUP1 DUP4 KECCAK256 PUSH1 0x1 ADD SLOAD PUSH1 0x1 PUSH1 0x1 PUSH1 0xA0 SHL SUB AND DUP1 DUP5 MSTORE SWAP2 DUP6 SWAP1 MSTORE DUP3 KECCAK256 PUSH1 0x7 ADD DUP1 SLOAD SWAP2 SWAP3 DUP8 SWAP3 PUSH2 0x35C SWAP1 DUP5 SWAP1 PUSH2 0x9A0 JUMP JUMPDEST SWAP1 SWAP2 SSTORE POP POP PUSH1 0x1 PUSH1 0x1 PUSH1 0xA0 SHL SUB DUP2 AND PUSH1 0x0 SWAP1 DUP2 MSTORE PUSH1 0x20 DUP5 SWAP1 MSTORE PUSH1 0x40 DUP2 KECCAK256 PUSH1 0x8 ADD DUP1 SLOAD PUSH1 0x1 SWAP3 SWAP1 PUSH2 0x38D SWAP1 DUP5 SWAP1 PUSH2 0x9A0 JUMP JUMPDEST SWAP1 SWAP2 SSTORE POP POP PUSH1 0x0 DUP7 DUP2 MSTORE PUSH1 0x20 DUP6 SWAP1 MSTORE PUSH1 0x40 SWAP1 DUP2 SWAP1 KECCAK256 PUSH1 0xB ADD DUP1 SLOAD PUSH3 0xFF0000 NOT AND PUSH3 0x10000 OR SWAP1 SSTORE MLOAD CALLER SWAP1 PUSH32 0x8675AF36AC948980CB63B6F8E1FD260A654D9BD8CD0A2D96D4CFC61B3913537A SWAP1 PUSH2 0x3E6 SWAP1 DUP9 DUP2 MSTORE PUSH1 0x20 ADD SWAP1 JUMP JUMPDEST PUSH1 0x40 MLOAD DUP1 SWAP2 SUB SWAP1 LOG2 POP POP POP POP POP POP JUMP JUMPDEST PUSH2 0x447 PUSH1 0x40 MLOAD PUSH1 0x20 ADD PUSH2 0x42C SWAP1 PUSH1 0x20 DUP1 DUP3 MSTORE PUSH1 0xF SWAP1 DUP3 ADD MSTORE PUSH15 0x535452415445474953545F524F4C45 PUSH1 0x88 SHL PUSH1 0x40 DUP3 ADD MSTORE PUSH1 0x60 ADD SWAP1 JUMP JUMPDEST PUSH1 0x40 MLOAD PUSH1 0x20 DUP2 DUP4 SUB SUB DUP2 MSTORE SWAP1 PUSH1 0x40 MSTORE DUP1 MLOAD SWAP1 PUSH1 0x20 ADD KECCAK256 PUSH2 0x645 JUMP JUMPDEST PUSH1 0x0 DUP3 GT PUSH2 0x4A7 JUMPI PUSH1 0x40 MLOAD PUSH3 0x461BCD PUSH1 0xE5 SHL DUP2 MSTORE PUSH1 0x20 PUSH1 0x4 DUP3 ADD MSTORE PUSH1 0x27 PUSH1 0x24 DUP3 ADD MSTORE PUSH32 0x4C696252617465723A2063616E6E6F742068617665207A65726F20726174696E PUSH1 0x44 DUP3 ADD MSTORE PUSH7 0x19C8189BDD5B99 PUSH1 0xCA SHL PUSH1 0x64 DUP3 ADD MSTORE PUSH1 0x84 ADD PUSH2 0x17D JUMP JUMPDEST DUP2 DUP2 GT PUSH2 0x51C JUMPI PUSH1 0x40 MLOAD PUSH3 0x461BCD PUSH1 0xE5 SHL DUP2 MSTORE PUSH1 0x20 PUSH1 0x4 DUP3 ADD MSTORE PUSH1 0x39 PUSH1 0x24 DUP3 ADD MSTORE PUSH32 0x4C696252617465723A206D6178696D756D20726174696E67206D757374206265 PUSH1 0x44 DUP3 ADD MSTORE PUSH32 0x206D6F7265207468616E206D696E696D756D20726174696E6700000000000000 PUSH1 0x64 DUP3 ADD MSTORE PUSH1 0x84 ADD PUSH2 0x17D JUMP JUMPDEST PUSH32 0x46C0914BF24666FE25F9613BEE4D3FA84329F5E46E3BDBE0372D1A4FE2FBD2F7 DUP3 DUP2 SSTORE PUSH32 0x46C0914BF24666FE25F9613BEE4D3FA84329F5E46E3BDBE0372D1A4FE2FBD2F8 DUP3 SWAP1 SSTORE PUSH1 0x40 DUP1 MLOAD DUP5 DUP2 MSTORE PUSH1 0x20 DUP2 ADD DUP5 SWAP1 MSTORE DUP2 MLOAD CALLER SWAP3 PUSH32 0x9CDCB3D527BBFA3646E8CFA2C42A9AF323BF0950353EB82A8917ACF60ECA6BE6 SWAP3 DUP3 SWAP1 SUB ADD SWAP1 LOG2 POP POP POP JUMP JUMPDEST PUSH1 0x0 DUP2 DUP2 MSTORE PUSH32 0xE79924097CCC2E2B47E332DE4C30D72ABC5A8153CCA3B67CC7A0F5258CD81DE8 PUSH1 0x20 MSTORE PUSH1 0x40 SWAP1 KECCAK256 SLOAD PUSH1 0x1 PUSH1 0x1 PUSH1 0xA0 SHL SUB DUP4 DUP2 AND PUSH2 0x100 SWAP1 SWAP3 DIV AND EQ PUSH2 0xDF JUMPI PUSH1 0x40 MLOAD PUSH3 0x461BCD PUSH1 0xE5 SHL DUP2 MSTORE PUSH1 0x20 PUSH1 0x4 DUP3 ADD MSTORE PUSH1 0x2C PUSH1 0x24 DUP3 ADD MSTORE PUSH32 0x4C69625265717565737465723A2063616C6C6572206E6F74206D61746368206A PUSH1 0x44 DUP3 ADD MSTORE PUSH12 0x37B1103932B8BAB2B9BA32B9 PUSH1 0xA1 SHL PUSH1 0x64 DUP3 ADD MSTORE PUSH1 0x84 ADD PUSH2 0x17D JUMP JUMPDEST PUSH2 0x64E DUP2 PUSH2 0x651 JUMP JUMPDEST POP JUMP JUMPDEST PUSH1 0x0 DUP2 DUP2 MSTORE PUSH32 0x4CD15452B25E815D3F9D1A3C7EDD985A178EDF5EB3461A1ACBF855517423D694 PUSH1 0x20 SWAP1 DUP2 MSTORE PUSH1 0x40 DUP1 DUP4 KECCAK256 CALLER DUP1 DUP6 MSTORE SWAP3 MSTORE SWAP1 SWAP2 KECCAK256 SLOAD PUSH2 0x64E SWAP2 DUP4 SWAP2 PUSH1 0xFF AND PUSH2 0xDF JUMPI PUSH2 0x6AC DUP2 PUSH1 0x1 PUSH1 0x1 PUSH1 0xA0 SHL SUB AND PUSH1 0x14 PUSH2 0x6EE JUMP JUMPDEST PUSH2 0x6B7 DUP4 PUSH1 0x20 PUSH2 0x6EE JUMP JUMPDEST PUSH1 0x40 MLOAD PUSH1 0x20 ADD PUSH2 0x6C8 SWAP3 SWAP2 SWAP1 PUSH2 0x8F8 JUMP JUMPDEST PUSH1 0x40 DUP1 MLOAD PUSH1 0x1F NOT DUP2 DUP5 SUB ADD DUP2 MSTORE SWAP1 DUP3 SWAP1 MSTORE PUSH3 0x461BCD PUSH1 0xE5 SHL DUP3 MSTORE PUSH2 0x17D SWAP2 PUSH1 0x4 ADD PUSH2 0x96D JUMP JUMPDEST PUSH1 0x60 PUSH1 0x0 PUSH2 0x6FD DUP4 PUSH1 0x2 PUSH2 0x9B8 JUMP JUMPDEST PUSH2 0x708 SWAP1 PUSH1 0x2 PUSH2 0x9A0 JUMP JUMPDEST PUSH8 0xFFFFFFFFFFFFFFFF DUP2 GT ISZERO PUSH2 0x72E JUMPI PUSH4 0x4E487B71 PUSH1 0xE0 SHL PUSH1 0x0 MSTORE PUSH1 0x41 PUSH1 0x4 MSTORE PUSH1 0x24 PUSH1 0x0 REVERT JUMPDEST PUSH1 0x40 MLOAD SWAP1 DUP1 DUP3 MSTORE DUP1 PUSH1 0x1F ADD PUSH1 0x1F NOT AND PUSH1 0x20 ADD DUP3 ADD PUSH1 0x40 MSTORE DUP1 ISZERO PUSH2 0x758 JUMPI PUSH1 0x20 DUP3 ADD DUP2 DUP1 CALLDATASIZE DUP4 CALLDATACOPY ADD SWAP1 POP JUMPDEST POP SWAP1 POP PUSH1 0x3 PUSH1 0xFC SHL DUP2 PUSH1 0x0 DUP2 MLOAD DUP2 LT PUSH2 0x781 JUMPI PUSH4 0x4E487B71 PUSH1 0xE0 SHL PUSH1 0x0 MSTORE PUSH1 0x32 PUSH1 0x4 MSTORE PUSH1 0x24 PUSH1 0x0 REVERT JUMPDEST PUSH1 0x20 ADD ADD SWAP1 PUSH1 0x1 PUSH1 0x1 PUSH1 0xF8 SHL SUB NOT AND SWAP1 DUP2 PUSH1 0x0 BYTE SWAP1 MSTORE8 POP PUSH1 0xF PUSH1 0xFB SHL DUP2 PUSH1 0x1 DUP2 MLOAD DUP2 LT PUSH2 0x7BE JUMPI PUSH4 0x4E487B71 PUSH1 0xE0 SHL PUSH1 0x0 MSTORE PUSH1 0x32 PUSH1 0x4 MSTORE PUSH1 0x24 PUSH1 0x0 REVERT JUMPDEST PUSH1 0x20 ADD ADD SWAP1 PUSH1 0x1 PUSH1 0x1 PUSH1 0xF8 SHL SUB NOT AND SWAP1 DUP2 PUSH1 0x0 BYTE SWAP1 MSTORE8 POP PUSH1 0x0 PUSH2 0x7E2 DUP5 PUSH1 0x2 PUSH2 0x9B8 JUMP JUMPDEST PUSH2 0x7ED SWAP1 PUSH1 0x1 PUSH2 0x9A0 JUMP JUMPDEST SWAP1 POP JUMPDEST PUSH1 0x1 DUP2 GT ISZERO PUSH2 0x881 JUMPI PUSH16 0x181899199A1A9B1B9C1CB0B131B232B3 PUSH1 0x81 SHL DUP6 PUSH1 0xF AND PUSH1 0x10 DUP2 LT PUSH2 0x82F JUMPI PUSH4 0x4E487B71 PUSH1 0xE0 SHL PUSH1 0x0 MSTORE PUSH1 0x32 PUSH1 0x4 MSTORE PUSH1 0x24 PUSH1 0x0 REVERT JUMPDEST BYTE PUSH1 0xF8 SHL DUP3 DUP3 DUP2 MLOAD DUP2 LT PUSH2 0x853 JUMPI PUSH4 0x4E487B71 PUSH1 0xE0 SHL PUSH1 0x0 MSTORE PUSH1 0x32 PUSH1 0x4 MSTORE PUSH1 0x24 PUSH1 0x0 REVERT JUMPDEST PUSH1 0x20 ADD ADD SWAP1 PUSH1 0x1 PUSH1 0x1 PUSH1 0xF8 SHL SUB NOT AND SWAP1 DUP2 PUSH1 0x0 BYTE SWAP1 MSTORE8 POP PUSH1 0x4 SWAP5 SWAP1 SWAP5 SHR SWAP4 PUSH2 0x87A DUP2 PUSH2 0xA07 JUMP JUMPDEST SWAP1 POP PUSH2 0x7F0 JUMP JUMPDEST POP DUP4 ISZERO PUSH2 0x8D0 JUMPI PUSH1 0x40 MLOAD PUSH3 0x461BCD PUSH1 0xE5 SHL DUP2 MSTORE PUSH1 0x20 PUSH1 0x4 DUP3 ADD DUP2 SWAP1 MSTORE PUSH1 0x24 DUP3 ADD MSTORE PUSH32 0x537472696E67733A20686578206C656E67746820696E73756666696369656E74 PUSH1 0x44 DUP3 ADD MSTORE PUSH1 0x64 ADD PUSH2 0x17D JUMP JUMPDEST SWAP4 SWAP3 POP POP POP JUMP JUMPDEST PUSH1 0x0 DUP1 PUSH1 0x40 DUP4 DUP6 SUB SLT ISZERO PUSH2 0x8E9 JUMPI DUP2 DUP3 REVERT JUMPDEST POP POP DUP1 CALLDATALOAD SWAP3 PUSH1 0x20 SWAP1 SWAP2 ADD CALLDATALOAD SWAP2 POP JUMP JUMPDEST PUSH32 0x416363657373436F6E74726F6C3A206163636F756E7420000000000000000000 DUP2 MSTORE PUSH1 0x0 DUP4 MLOAD PUSH2 0x930 DUP2 PUSH1 0x17 DUP6 ADD PUSH1 0x20 DUP9 ADD PUSH2 0x9D7 JUMP JUMPDEST PUSH17 0x1034B99036B4B9B9B4B733903937B6329 PUSH1 0x7D SHL PUSH1 0x17 SWAP2 DUP5 ADD SWAP2 DUP3 ADD MSTORE DUP4 MLOAD PUSH2 0x961 DUP2 PUSH1 0x28 DUP5 ADD PUSH1 0x20 DUP9 ADD PUSH2 0x9D7 JUMP JUMPDEST ADD PUSH1 0x28 ADD SWAP5 SWAP4 POP POP POP POP JUMP JUMPDEST PUSH1 0x20 DUP2 MSTORE PUSH1 0x0 DUP3 MLOAD DUP1 PUSH1 0x20 DUP5 ADD MSTORE PUSH2 0x98C DUP2 PUSH1 0x40 DUP6 ADD PUSH1 0x20 DUP8 ADD PUSH2 0x9D7 JUMP JUMPDEST PUSH1 0x1F ADD PUSH1 0x1F NOT AND SWAP2 SWAP1 SWAP2 ADD PUSH1 0x40 ADD SWAP3 SWAP2 POP POP JUMP JUMPDEST PUSH1 0x0 DUP3 NOT DUP3 GT ISZERO PUSH2 0x9B3 JUMPI PUSH2 0x9B3 PUSH2 0xA1E JUMP JUMPDEST POP ADD SWAP1 JUMP JUMPDEST PUSH1 0x0 DUP2 PUSH1 0x0 NOT DIV DUP4 GT DUP3 ISZERO ISZERO AND ISZERO PUSH2 0x9D2 JUMPI PUSH2 0x9D2 PUSH2 0xA1E JUMP JUMPDEST POP MUL SWAP1 JUMP JUMPDEST PUSH1 0x0 JUMPDEST DUP4 DUP2 LT ISZERO PUSH2 0x9F2 JUMPI DUP2 DUP2 ADD MLOAD DUP4 DUP3 ADD MSTORE PUSH1 0x20 ADD PUSH2 0x9DA JUMP JUMPDEST DUP4 DUP2 GT ISZERO PUSH2 0xA01 JUMPI PUSH1 0x0 DUP5 DUP5 ADD MSTORE JUMPDEST POP POP POP POP JUMP JUMPDEST PUSH1 0x0 DUP2 PUSH2 0xA16 JUMPI PUSH2 0xA16 PUSH2 0xA1E JUMP JUMPDEST POP PUSH1 0x0 NOT ADD SWAP1 JUMP JUMPDEST PUSH4 0x4E487B71 PUSH1 0xE0 SHL PUSH1 0x0 MSTORE PUSH1 0x11 PUSH1 0x4 MSTORE PUSH1 0x24 PUSH1 0x0 REVERT INVALID LOG2 PUSH5 0x6970667358 0x22 SLT KECCAK256 0xB8 0xBB 0xE8 0xDE 0xED 0xDD SELFBALANCE 0xD 0xD2 DUP16 SUB SWAP9 PUSH12 0xE9F4EC451C4840153ED912DF 0xCD MUL 0xEF CALLER POP GASLIMIT 0xE2 PUSH5 0x736F6C6343 STOP ADDMOD DIV STOP CALLER ","sha1":"8b476f99d2a9d2760fb4f7813a70ff7f33228337","source":"//SPDX-License-Identifier: BUSL-1.1\npragma solidity ^0.8.2;\n\nimport \"../../libraries/core/LibRater.sol\";\n\nimport \"../../interfaces/IHubLibraryEvents.sol\";\n\ncontract Rater is IHubLibraryEvents {\n    /**\n     * setRatingBounds sets bounds for rating\n     *\n     * @param _min | unitless integer\n     * @param _max | unitless integer\n     */\n    function setRatingBounds(uint256 _min, uint256 _max) external {\n        LibRater._setRatingBounds(_min, _max);\n    }\n\n    function giveRating(bytes32 _jobId, uint256 _rating) external {\n        LibRater._giveRating(_jobId, _rating);\n    }\n\n    function getRatingMin() external view returns (uint256) {\n        return LibRater._storageRater().ratingMin;\n    }\n\n    function getRatingMax() external view returns (uint256) {\n        return LibRater._storageRater().ratingMax;\n    }\n}\n","sourcePath":"contracts/hub/facets/core/Rater.sol","type":"contract","deployment":{"address":"0x1D29B3F80253922a1B7cdBFCb5E66a668F185EAe","chainid":"80001","blockHeight":26007155}}