{"abi":[{"anonymous":false,"inputs":[{"indexed":true,"internalType":"address","name":"sender","type":"address"},{"indexed":false,"internalType":"address","name":"priceFeed","type":"address"}],"name":"AddedPriceFeedRemoved","type":"event"},{"anonymous":false,"inputs":[{"indexed":true,"internalType":"address","name":"sender","type":"address"},{"indexed":false,"internalType":"address","name":"applicant","type":"address"}],"name":"ApplicantApproved","type":"event"},{"anonymous":false,"inputs":[{"indexed":true,"internalType":"address","name":"sender","type":"address"},{"indexed":false,"internalType":"bytes32","name":"key","type":"bytes32"}],"name":"CurrencyRegistered","type":"event"},{"anonymous":false,"inputs":[{"indexed":true,"internalType":"address","name":"sender","type":"address"},{"indexed":false,"internalType":"bytes32","name":"key","type":"bytes32"}],"name":"CurrencyRemoved","type":"event"},{"anonymous":false,"inputs":[{"indexed":true,"internalType":"address","name":"sender","type":"address"},{"indexed":false,"internalType":"bytes32","name":"keyX","type":"bytes32"},{"indexed":false,"internalType":"bytes32","name":"keyY","type":"bytes32"}],"name":"DerivedPriceFeedRemoved","type":"event"},{"anonymous":false,"inputs":[{"components":[{"internalType":"address","name":"facetAddress","type":"address"},{"internalType":"enum Cut.FacetCutAction","name":"action","type":"uint8"},{"internalType":"bytes4[]","name":"functionSelectors","type":"bytes4[]"}],"indexed":false,"internalType":"struct Cut.FacetCut[]","name":"_cut","type":"tuple[]"},{"indexed":false,"internalType":"address","name":"_init","type":"address"},{"indexed":false,"internalType":"bytes","name":"_calldata","type":"bytes"}],"name":"DiamondCut","type":"event"},{"anonymous":false,"inputs":[{"indexed":true,"internalType":"address","name":"sender","type":"address"},{"indexed":false,"internalType":"uint256","name":"fee","type":"uint256"}],"name":"FeeSetBase","type":"event"},{"anonymous":false,"inputs":[{"indexed":true,"internalType":"address","name":"sender","type":"address"},{"indexed":false,"internalType":"uint256","name":"fee","type":"uint256"}],"name":"FeeSetCancellation","type":"event"},{"anonymous":false,"inputs":[{"indexed":true,"internalType":"address","name":"sender","type":"address"},{"indexed":false,"internalType":"uint256","name":"fee","type":"uint256"}],"name":"FeeSetCostPerMetre","type":"event"},{"anonymous":false,"inputs":[{"indexed":true,"internalType":"address","name":"sender","type":"address"},{"indexed":false,"internalType":"uint256","name":"fee","type":"uint256"}],"name":"FeeSetCostPerMinute","type":"event"},{"anonymous":false,"inputs":[{"indexed":true,"internalType":"address","name":"sender","type":"address"},{"indexed":false,"internalType":"bytes32","name":"key","type":"bytes32"},{"indexed":false,"internalType":"uint256","name":"amount","type":"uint256"}],"name":"FundsLocked","type":"event"},{"anonymous":false,"inputs":[{"indexed":true,"internalType":"address","name":"sender","type":"address"},{"indexed":false,"internalType":"address","name":"decrease","type":"address"},{"indexed":false,"internalType":"address","name":"increase","type":"address"},{"indexed":false,"internalType":"bytes32","name":"key","type":"bytes32"},{"indexed":false,"internalType":"uint256","name":"amount","type":"uint256"}],"name":"FundsUnlocked","type":"event"},{"anonymous":false,"inputs":[{"indexed":true,"internalType":"address","name":"sender","type":"address"},{"indexed":false,"internalType":"uint256","name":"count","type":"uint256"}],"name":"HiveCreationCountSet","type":"event"},{"anonymous":false,"inputs":[{"indexed":true,"internalType":"address","name":"sender","type":"address"},{"indexed":false,"internalType":"uint256","name":"duration","type":"uint256"}],"name":"HiveDisputeDurationSet","type":"event"},{"anonymous":false,"inputs":[{"indexed":true,"internalType":"address","name":"sender","type":"address"},{"indexed":true,"internalType":"bytes32","name":"jobId","type":"bytes32"}],"name":"JobCleared","type":"event"},{"anonymous":false,"inputs":[{"indexed":true,"internalType":"address","name":"sender","type":"address"},{"indexed":false,"internalType":"uint256","name":"duration","type":"uint256"}],"name":"JobLifespanSet","type":"event"},{"anonymous":false,"inputs":[{"indexed":true,"internalType":"address","name":"sender","type":"address"},{"indexed":false,"internalType":"uint256","name":"duration","type":"uint256"}],"name":"MinDisputeDurationSet","type":"event"},{"anonymous":false,"inputs":[{"indexed":true,"internalType":"address","name":"sender","type":"address"},{"indexed":false,"internalType":"address","name":"token","type":"address"}],"name":"NativeTokenSet","type":"event"},{"anonymous":false,"inputs":[{"indexed":true,"internalType":"address","name":"sender","type":"address"},{"indexed":false,"internalType":"bytes32","name":"keyX","type":"bytes32"},{"indexed":false,"internalType":"bytes32","name":"keyY","type":"bytes32"},{"indexed":false,"internalType":"address","name":"priceFeed","type":"address"}],"name":"PriceFeedAdded","type":"event"},{"anonymous":false,"inputs":[{"indexed":true,"internalType":"address","name":"sender","type":"address"},{"indexed":false,"internalType":"bytes32","name":"keyX","type":"bytes32"},{"indexed":false,"internalType":"bytes32","name":"keyY","type":"bytes32"},{"indexed":false,"internalType":"bytes32","name":"keyShared","type":"bytes32"}],"name":"PriceFeedDerived","type":"event"},{"anonymous":false,"inputs":[{"indexed":true,"internalType":"address","name":"sender","type":"address"},{"indexed":false,"internalType":"uint256","name":"rating","type":"uint256"}],"name":"RatingGiven","type":"event"},{"anonymous":false,"inputs":[{"indexed":true,"internalType":"bytes32","name":"role","type":"bytes32"},{"indexed":true,"internalType":"bytes32","name":"previousAdminRole","type":"bytes32"},{"indexed":true,"internalType":"bytes32","name":"newAdminRole","type":"bytes32"}],"name":"RoleAdminChanged","type":"event"},{"anonymous":false,"inputs":[{"indexed":true,"internalType":"bytes32","name":"role","type":"bytes32"},{"indexed":true,"internalType":"address","name":"account","type":"address"},{"indexed":true,"internalType":"address","name":"sender","type":"address"}],"name":"RoleGranted","type":"event"},{"anonymous":false,"inputs":[{"indexed":true,"internalType":"bytes32","name":"role","type":"bytes32"},{"indexed":true,"internalType":"address","name":"account","type":"address"},{"indexed":true,"internalType":"address","name":"sender","type":"address"}],"name":"RoleRevoked","type":"event"},{"anonymous":false,"inputs":[{"indexed":true,"internalType":"address","name":"sender","type":"address"},{"indexed":false,"internalType":"uint256","name":"min","type":"uint256"},{"indexed":false,"internalType":"uint256","name":"max","type":"uint256"}],"name":"SetRatingBounds","type":"event"},{"anonymous":false,"inputs":[{"indexed":true,"internalType":"address","name":"sender","type":"address"},{"indexed":false,"internalType":"address","name":"user","type":"address"},{"indexed":false,"internalType":"uint256","name":"banDuration","type":"uint256"}],"name":"UserBanned","type":"event"},{"inputs":[{"internalType":"address","name":"_runner","type":"address"}],"name":"calculateRunnerScore","outputs":[{"internalType":"uint256","name":"","type":"uint256"}],"stateMutability":"view","type":"function"},{"inputs":[{"internalType":"address","name":"_runner","type":"address"}],"name":"getRunnerToRunnerDetail","outputs":[{"components":[{"internalType":"uint256","name":"id","type":"uint256"},{"internalType":"string","name":"uri","type":"string"},{"internalType":"address","name":"hive","type":"address"},{"internalType":"uint256","name":"maxMetresPerTrip","type":"uint256"},{"internalType":"uint256","name":"metresTravelled","type":"uint256"},{"internalType":"uint256","name":"countStart","type":"uint256"},{"internalType":"uint256","name":"countEnd","type":"uint256"},{"internalType":"uint256","name":"totalRating","type":"uint256"},{"internalType":"uint256","name":"countRating","type":"uint256"}],"internalType":"struct LibRunnerDetail.RunnerDetail","name":"","type":"tuple"}],"stateMutability":"view","type":"function"}],"bytecode":"608060405234801561001057600080fd5b506104f5806100206000396000f3fe608060405234801561001057600080fd5b50600436106100365760003560e01c80632f78e0fd1461003b578063c1ea51ba14610061575b600080fd5b61004e610049366004610330565b610081565b6040519081526020015b60405180910390f35b61007461006f366004610330565b610092565b60405161005891906103a9565b600061008c8261021f565b92915050565b6100ea604051806101200160405280600081526020016060815260200160006001600160a01b031681526020016000815260200160008152602001600081526020016000815260200160008152602001600081525090565b6001600160a01b03821660009081527fc7ddcdc008a4787bc0ebc7e57c6de87615ae1cb780f671ab25bfdfbd9cc9ce6260209081526040918290208251610120810190935280548352600181018054919284019161014790610484565b80601f016020809104026020016040519081016040528092919081815260200182805461017390610484565b80156101c05780601f10610195576101008083540402835291602001916101c0565b820191906000526020600020905b8154815290600101906020018083116101a357829003601f168201915b505050918352505060028201546001600160a01b03166020820152600382015460408201526004820154606082015260058201546080820152600682015460a0820152600782015460c082015260089091015460e09091015292915050565b60007fc7ddcdc008a4787bc0ebc7e57c6de87615ae1cb780f671ab25bfdfbd9cc9ce628180808080806102cb896001600160a01b031660009081527fc7ddcdc008a4787bc0ebc7e57c6de87615ae1cb780f671ab25bfdfbd9cc9ce626020526040902060048101546005820154600683015460078401546008909401547f46c0914bf24666fe25f9613bee4d3fa84329f5e46e3bdbe0372d1a4fe2fbd2f8549395929491939192909190565b95509550955095509550955084600014156102ef5750600098975050505050505050565b806102fa8387610459565b6103049190610459565b8361030f8689610459565b6103199190610459565b6103239190610439565b9998505050505050505050565b600060208284031215610341578081fd5b81356001600160a01b0381168114610357578182fd5b9392505050565b60008151808452815b8181101561038357602081850181015186830182015201610367565b818111156103945782602083870101525b50601f01601f19169290920160200192915050565b6020815281516020820152600060208301516101208060408501526103d261014085018361035e565b915060408501516103ee60608601826001600160a01b03169052565b5060608501516080850152608085015160a085015260a085015160c085015260c085015160e085015260e0850151610100818187015280870151838701525050508091505092915050565b60008261045457634e487b7160e01b81526012600452602481fd5b500490565b600081600019048311821515161561047f57634e487b7160e01b81526011600452602481fd5b500290565b600181811c9082168061049857607f821691505b602082108114156104b957634e487b7160e01b600052602260045260246000fd5b5091905056fea2646970667358221220bbb6b9267987c3f8a4bb94f6b76bc5bff4ceef62b74677d7380925e40cba4d7d64736f6c63430008040033","bytecodeSha1":"d5bf771cbbb623168f51a483905a3c73ae90eff8","compiler":{"evm_version":"istanbul","optimizer":{"enabled":true,"runs":200},"version":"0.8.4+commit.c7e474f2"},"contractName":"RunnerDetail","language":"Solidity","natspec":{"kind":"dev","methods":{},"version":1},"opcodes":"PUSH1 0x80 PUSH1 0x40 MSTORE CALLVALUE DUP1 ISZERO PUSH2 0x10 JUMPI PUSH1 0x0 DUP1 REVERT JUMPDEST POP PUSH1 0x4 CALLDATASIZE LT PUSH2 0x36 JUMPI PUSH1 0x0 CALLDATALOAD PUSH1 0xE0 SHR DUP1 PUSH4 0x2F78E0FD EQ PUSH2 0x3B JUMPI DUP1 PUSH4 0xC1EA51BA EQ PUSH2 0x61 JUMPI JUMPDEST PUSH1 0x0 DUP1 REVERT JUMPDEST PUSH2 0x4E PUSH2 0x49 CALLDATASIZE PUSH1 0x4 PUSH2 0x330 JUMP JUMPDEST PUSH2 0x81 JUMP JUMPDEST PUSH1 0x40 MLOAD SWAP1 DUP2 MSTORE PUSH1 0x20 ADD JUMPDEST PUSH1 0x40 MLOAD DUP1 SWAP2 SUB SWAP1 RETURN JUMPDEST PUSH2 0x74 PUSH2 0x6F CALLDATASIZE PUSH1 0x4 PUSH2 0x330 JUMP JUMPDEST PUSH2 0x92 JUMP JUMPDEST PUSH1 0x40 MLOAD PUSH2 0x58 SWAP2 SWAP1 PUSH2 0x3A9 JUMP JUMPDEST PUSH1 0x0 PUSH2 0x8C DUP3 PUSH2 0x21F JUMP JUMPDEST SWAP3 SWAP2 POP POP JUMP JUMPDEST PUSH2 0xEA PUSH1 0x40 MLOAD DUP1 PUSH2 0x120 ADD PUSH1 0x40 MSTORE DUP1 PUSH1 0x0 DUP2 MSTORE PUSH1 0x20 ADD PUSH1 0x60 DUP2 MSTORE PUSH1 0x20 ADD PUSH1 0x0 PUSH1 0x1 PUSH1 0x1 PUSH1 0xA0 SHL SUB AND DUP2 MSTORE PUSH1 0x20 ADD PUSH1 0x0 DUP2 MSTORE PUSH1 0x20 ADD PUSH1 0x0 DUP2 MSTORE PUSH1 0x20 ADD PUSH1 0x0 DUP2 MSTORE PUSH1 0x20 ADD PUSH1 0x0 DUP2 MSTORE PUSH1 0x20 ADD PUSH1 0x0 DUP2 MSTORE PUSH1 0x20 ADD PUSH1 0x0 DUP2 MSTORE POP SWAP1 JUMP JUMPDEST PUSH1 0x1 PUSH1 0x1 PUSH1 0xA0 SHL SUB DUP3 AND PUSH1 0x0 SWAP1 DUP2 MSTORE PUSH32 0xC7DDCDC008A4787BC0EBC7E57C6DE87615AE1CB780F671AB25BFDFBD9CC9CE62 PUSH1 0x20 SWAP1 DUP2 MSTORE PUSH1 0x40 SWAP2 DUP3 SWAP1 KECCAK256 DUP3 MLOAD PUSH2 0x120 DUP2 ADD SWAP1 SWAP4 MSTORE DUP1 SLOAD DUP4 MSTORE PUSH1 0x1 DUP2 ADD DUP1 SLOAD SWAP2 SWAP3 DUP5 ADD SWAP2 PUSH2 0x147 SWAP1 PUSH2 0x484 JUMP JUMPDEST DUP1 PUSH1 0x1F ADD PUSH1 0x20 DUP1 SWAP2 DIV MUL PUSH1 0x20 ADD PUSH1 0x40 MLOAD SWAP1 DUP2 ADD PUSH1 0x40 MSTORE DUP1 SWAP3 SWAP2 SWAP1 DUP2 DUP2 MSTORE PUSH1 0x20 ADD DUP3 DUP1 SLOAD PUSH2 0x173 SWAP1 PUSH2 0x484 JUMP JUMPDEST DUP1 ISZERO PUSH2 0x1C0 JUMPI DUP1 PUSH1 0x1F LT PUSH2 0x195 JUMPI PUSH2 0x100 DUP1 DUP4 SLOAD DIV MUL DUP4 MSTORE SWAP2 PUSH1 0x20 ADD SWAP2 PUSH2 0x1C0 JUMP JUMPDEST DUP3 ADD SWAP2 SWAP1 PUSH1 0x0 MSTORE PUSH1 0x20 PUSH1 0x0 KECCAK256 SWAP1 JUMPDEST DUP2 SLOAD DUP2 MSTORE SWAP1 PUSH1 0x1 ADD SWAP1 PUSH1 0x20 ADD DUP1 DUP4 GT PUSH2 0x1A3 JUMPI DUP3 SWAP1 SUB PUSH1 0x1F AND DUP3 ADD SWAP2 JUMPDEST POP POP POP SWAP2 DUP4 MSTORE POP POP PUSH1 0x2 DUP3 ADD SLOAD PUSH1 0x1 PUSH1 0x1 PUSH1 0xA0 SHL SUB AND PUSH1 0x20 DUP3 ADD MSTORE PUSH1 0x3 DUP3 ADD SLOAD PUSH1 0x40 DUP3 ADD MSTORE PUSH1 0x4 DUP3 ADD SLOAD PUSH1 0x60 DUP3 ADD MSTORE PUSH1 0x5 DUP3 ADD SLOAD PUSH1 0x80 DUP3 ADD MSTORE PUSH1 0x6 DUP3 ADD SLOAD PUSH1 0xA0 DUP3 ADD MSTORE PUSH1 0x7 DUP3 ADD SLOAD PUSH1 0xC0 DUP3 ADD MSTORE PUSH1 0x8 SWAP1 SWAP2 ADD SLOAD PUSH1 0xE0 SWAP1 SWAP2 ADD MSTORE SWAP3 SWAP2 POP POP JUMP JUMPDEST PUSH1 0x0 PUSH32 0xC7DDCDC008A4787BC0EBC7E57C6DE87615AE1CB780F671AB25BFDFBD9CC9CE62 DUP2 DUP1 DUP1 DUP1 DUP1 DUP1 PUSH2 0x2CB DUP10 PUSH1 0x1 PUSH1 0x1 PUSH1 0xA0 SHL SUB AND PUSH1 0x0 SWAP1 DUP2 MSTORE PUSH32 0xC7DDCDC008A4787BC0EBC7E57C6DE87615AE1CB780F671AB25BFDFBD9CC9CE62 PUSH1 0x20 MSTORE PUSH1 0x40 SWAP1 KECCAK256 PUSH1 0x4 DUP2 ADD SLOAD PUSH1 0x5 DUP3 ADD SLOAD PUSH1 0x6 DUP4 ADD SLOAD PUSH1 0x7 DUP5 ADD SLOAD PUSH1 0x8 SWAP1 SWAP5 ADD SLOAD PUSH32 0x46C0914BF24666FE25F9613BEE4D3FA84329F5E46E3BDBE0372D1A4FE2FBD2F8 SLOAD SWAP4 SWAP6 SWAP3 SWAP5 SWAP2 SWAP4 SWAP2 SWAP3 SWAP1 SWAP2 SWAP1 JUMP JUMPDEST SWAP6 POP SWAP6 POP SWAP6 POP SWAP6 POP SWAP6 POP SWAP6 POP DUP5 PUSH1 0x0 EQ ISZERO PUSH2 0x2EF JUMPI POP PUSH1 0x0 SWAP9 SWAP8 POP POP POP POP POP POP POP POP JUMP JUMPDEST DUP1 PUSH2 0x2FA DUP4 DUP8 PUSH2 0x459 JUMP JUMPDEST PUSH2 0x304 SWAP2 SWAP1 PUSH2 0x459 JUMP JUMPDEST DUP4 PUSH2 0x30F DUP7 DUP10 PUSH2 0x459 JUMP JUMPDEST PUSH2 0x319 SWAP2 SWAP1 PUSH2 0x459 JUMP JUMPDEST PUSH2 0x323 SWAP2 SWAP1 PUSH2 0x439 JUMP JUMPDEST SWAP10 SWAP9 POP POP POP POP POP POP POP POP POP JUMP JUMPDEST PUSH1 0x0 PUSH1 0x20 DUP3 DUP5 SUB SLT ISZERO PUSH2 0x341 JUMPI DUP1 DUP2 REVERT JUMPDEST DUP2 CALLDATALOAD PUSH1 0x1 PUSH1 0x1 PUSH1 0xA0 SHL SUB DUP2 AND DUP2 EQ PUSH2 0x357 JUMPI DUP2 DUP3 REVERT JUMPDEST SWAP4 SWAP3 POP POP POP JUMP JUMPDEST PUSH1 0x0 DUP2 MLOAD DUP1 DUP5 MSTORE DUP2 JUMPDEST DUP2 DUP2 LT ISZERO PUSH2 0x383 JUMPI PUSH1 0x20 DUP2 DUP6 ADD DUP2 ADD MLOAD DUP7 DUP4 ADD DUP3 ADD MSTORE ADD PUSH2 0x367 JUMP JUMPDEST DUP2 DUP2 GT ISZERO PUSH2 0x394 JUMPI DUP3 PUSH1 0x20 DUP4 DUP8 ADD ADD MSTORE JUMPDEST POP PUSH1 0x1F ADD PUSH1 0x1F NOT AND SWAP3 SWAP1 SWAP3 ADD PUSH1 0x20 ADD SWAP3 SWAP2 POP POP JUMP JUMPDEST PUSH1 0x20 DUP2 MSTORE DUP2 MLOAD PUSH1 0x20 DUP3 ADD MSTORE PUSH1 0x0 PUSH1 0x20 DUP4 ADD MLOAD PUSH2 0x120 DUP1 PUSH1 0x40 DUP6 ADD MSTORE PUSH2 0x3D2 PUSH2 0x140 DUP6 ADD DUP4 PUSH2 0x35E JUMP JUMPDEST SWAP2 POP PUSH1 0x40 DUP6 ADD MLOAD PUSH2 0x3EE PUSH1 0x60 DUP7 ADD DUP3 PUSH1 0x1 PUSH1 0x1 PUSH1 0xA0 SHL SUB AND SWAP1 MSTORE JUMP JUMPDEST POP PUSH1 0x60 DUP6 ADD MLOAD PUSH1 0x80 DUP6 ADD MSTORE PUSH1 0x80 DUP6 ADD MLOAD PUSH1 0xA0 DUP6 ADD MSTORE PUSH1 0xA0 DUP6 ADD MLOAD PUSH1 0xC0 DUP6 ADD MSTORE PUSH1 0xC0 DUP6 ADD MLOAD PUSH1 0xE0 DUP6 ADD MSTORE PUSH1 0xE0 DUP6 ADD MLOAD PUSH2 0x100 DUP2 DUP2 DUP8 ADD MSTORE DUP1 DUP8 ADD MLOAD DUP4 DUP8 ADD MSTORE POP POP POP DUP1 SWAP2 POP POP SWAP3 SWAP2 POP POP JUMP JUMPDEST PUSH1 0x0 DUP3 PUSH2 0x454 JUMPI PUSH4 0x4E487B71 PUSH1 0xE0 SHL DUP2 MSTORE PUSH1 0x12 PUSH1 0x4 MSTORE PUSH1 0x24 DUP2 REVERT JUMPDEST POP DIV SWAP1 JUMP JUMPDEST PUSH1 0x0 DUP2 PUSH1 0x0 NOT DIV DUP4 GT DUP3 ISZERO ISZERO AND ISZERO PUSH2 0x47F JUMPI PUSH4 0x4E487B71 PUSH1 0xE0 SHL DUP2 MSTORE PUSH1 0x11 PUSH1 0x4 MSTORE PUSH1 0x24 DUP2 REVERT JUMPDEST POP MUL SWAP1 JUMP JUMPDEST PUSH1 0x1 DUP2 DUP2 SHR SWAP1 DUP3 AND DUP1 PUSH2 0x498 JUMPI PUSH1 0x7F DUP3 AND SWAP2 POP JUMPDEST PUSH1 0x20 DUP3 LT DUP2 EQ ISZERO PUSH2 0x4B9 JUMPI PUSH4 0x4E487B71 PUSH1 0xE0 SHL PUSH1 0x0 MSTORE PUSH1 0x22 PUSH1 0x4 MSTORE PUSH1 0x24 PUSH1 0x0 REVERT JUMPDEST POP SWAP2 SWAP1 POP JUMP INVALID LOG2 PUSH5 0x6970667358 0x22 SLT KECCAK256 0xBB 0xB6 0xB9 0x26 PUSH26 0x87C3F8A4BB94F6B76BC5BFF4CEEF62B74677D7380925E40CBA4D PUSH30 0x64736F6C6343000804003300000000000000000000000000000000000000 ","sha1":"c42dc073fc62e89a037dcb348b0abb3ee78d2823","source":"//SPDX-License-Identifier: BUSL-1.1\npragma solidity ^0.8.2;\n\nimport \"../../libraries/core/LibRunnerDetail.sol\";\n\nimport \"../../interfaces/IHubLibraryEvents.sol\";\n\ncontract RunnerDetail is IHubLibraryEvents {\n    function getRunnerToRunnerDetail(address _runner)\n        external\n        view\n        returns (LibRunnerDetail.RunnerDetail memory)\n    {\n        return\n            LibRunnerDetail._storageRunnerDetail().runnerToRunnerDetail[\n                _runner\n            ];\n    }\n\n    function calculateRunnerScore(address _runner)\n        external\n        view\n        returns (uint256)\n    {\n        return LibRunnerDetail._calculateRunnerScore(_runner);\n    }\n\n    // note: calculate externally\n    // function calculateCollectiveScore(address _hive)\n    //     external\n    //     view\n    //     returns (uint256)\n    // {\n    //     address[] memory runners = LibRunnerDetail\n    //         ._storageRunnerDetail()\n    //         .hiveToRunners[_hive];\n    //     uint256 metresTravelled;\n    //     uint256 countStart;\n    //     uint256 countEnd;\n    //     uint256 totalRating;\n    //     uint256 countRating;\n    //     uint256 maxRating;\n    //     for (uint256 i = 0; i < runners.length; i++) {\n    //         (\n    //             uint256 _metresTravelled,\n    //             uint256 _countStart,\n    //             uint256 _countEnd,\n    //             uint256 _totalRating,\n    //             uint256 _countRating,\n    //             uint256 _maxRating\n    //         ) = LibRunnerDetail._getRunnerScoreDetail(runners[i]);\n    //         metresTravelled += _metresTravelled;\n    //         countStart += _countStart;\n    //         countEnd += _countEnd;\n    //         totalRating += _totalRating;\n    //         countRating += _countRating;\n    //         maxRating += _maxRating;\n    //     }\n    //     if (countStart == 0) {\n    //         return 0;\n    //     } else {\n    //         return\n    //             (metresTravelled * countEnd * totalRating) /\n    //             (countStart * countRating * maxRating);\n    //     }\n    // }\n}\n","sourcePath":"contracts/hub/facets/core/RunnerDetail.sol","type":"contract","deployment":{"address":"0x204dDC0f1203b5056f87fa5B17705894B2ac3Cd4","chainid":"80001","blockHeight":26007181}}