{"abi":[{"anonymous":false,"inputs":[{"indexed":true,"internalType":"address","name":"sender","type":"address"},{"indexed":false,"internalType":"address","name":"priceFeed","type":"address"}],"name":"AddedPriceFeedRemoved","type":"event"},{"anonymous":false,"inputs":[{"indexed":true,"internalType":"address","name":"sender","type":"address"},{"indexed":false,"internalType":"address","name":"applicant","type":"address"}],"name":"ApplicantApproved","type":"event"},{"anonymous":false,"inputs":[{"indexed":true,"internalType":"address","name":"sender","type":"address"},{"indexed":false,"internalType":"bytes32","name":"key","type":"bytes32"}],"name":"CurrencyRegistered","type":"event"},{"anonymous":false,"inputs":[{"indexed":true,"internalType":"address","name":"sender","type":"address"},{"indexed":false,"internalType":"bytes32","name":"key","type":"bytes32"}],"name":"CurrencyRemoved","type":"event"},{"anonymous":false,"inputs":[{"indexed":true,"internalType":"address","name":"sender","type":"address"},{"indexed":false,"internalType":"bytes32","name":"keyX","type":"bytes32"},{"indexed":false,"internalType":"bytes32","name":"keyY","type":"bytes32"}],"name":"DerivedPriceFeedRemoved","type":"event"},{"anonymous":false,"inputs":[{"components":[{"internalType":"address","name":"facetAddress","type":"address"},{"internalType":"enum Cut.FacetCutAction","name":"action","type":"uint8"},{"internalType":"bytes4[]","name":"functionSelectors","type":"bytes4[]"}],"indexed":false,"internalType":"struct Cut.FacetCut[]","name":"_cut","type":"tuple[]"},{"indexed":false,"internalType":"address","name":"_init","type":"address"},{"indexed":false,"internalType":"bytes","name":"_calldata","type":"bytes"}],"name":"DiamondCut","type":"event"},{"anonymous":false,"inputs":[{"indexed":true,"internalType":"address","name":"sender","type":"address"},{"indexed":false,"internalType":"uint256","name":"fee","type":"uint256"}],"name":"FeeSetBase","type":"event"},{"anonymous":false,"inputs":[{"indexed":true,"internalType":"address","name":"sender","type":"address"},{"indexed":false,"internalType":"uint256","name":"fee","type":"uint256"}],"name":"FeeSetCancellation","type":"event"},{"anonymous":false,"inputs":[{"indexed":true,"internalType":"address","name":"sender","type":"address"},{"indexed":false,"internalType":"uint256","name":"fee","type":"uint256"}],"name":"FeeSetCostPerMetre","type":"event"},{"anonymous":false,"inputs":[{"indexed":true,"internalType":"address","name":"sender","type":"address"},{"indexed":false,"internalType":"uint256","name":"fee","type":"uint256"}],"name":"FeeSetCostPerMinute","type":"event"},{"anonymous":false,"inputs":[{"indexed":true,"internalType":"address","name":"sender","type":"address"},{"indexed":false,"internalType":"bytes32","name":"key","type":"bytes32"},{"indexed":false,"internalType":"uint256","name":"amount","type":"uint256"}],"name":"FundsLocked","type":"event"},{"anonymous":false,"inputs":[{"indexed":true,"internalType":"address","name":"sender","type":"address"},{"indexed":false,"internalType":"address","name":"decrease","type":"address"},{"indexed":false,"internalType":"address","name":"increase","type":"address"},{"indexed":false,"internalType":"bytes32","name":"key","type":"bytes32"},{"indexed":false,"internalType":"uint256","name":"amount","type":"uint256"}],"name":"FundsUnlocked","type":"event"},{"anonymous":false,"inputs":[{"indexed":true,"internalType":"address","name":"sender","type":"address"},{"indexed":false,"internalType":"uint256","name":"count","type":"uint256"}],"name":"HiveCreationCountSet","type":"event"},{"anonymous":false,"inputs":[{"indexed":true,"internalType":"address","name":"sender","type":"address"},{"indexed":false,"internalType":"uint256","name":"duration","type":"uint256"}],"name":"HiveDisputeDurationSet","type":"event"},{"anonymous":false,"inputs":[{"indexed":true,"internalType":"address","name":"sender","type":"address"},{"indexed":true,"internalType":"bytes32","name":"jobId","type":"bytes32"}],"name":"JobCleared","type":"event"},{"anonymous":false,"inputs":[{"indexed":true,"internalType":"address","name":"sender","type":"address"},{"indexed":false,"internalType":"uint256","name":"duration","type":"uint256"}],"name":"JobLifespanSet","type":"event"},{"anonymous":false,"inputs":[{"indexed":true,"internalType":"address","name":"sender","type":"address"},{"indexed":false,"internalType":"uint256","name":"duration","type":"uint256"}],"name":"MinDisputeDurationSet","type":"event"},{"anonymous":false,"inputs":[{"indexed":true,"internalType":"address","name":"sender","type":"address"},{"indexed":false,"internalType":"address","name":"token","type":"address"}],"name":"NativeTokenSet","type":"event"},{"anonymous":false,"inputs":[{"indexed":true,"internalType":"address","name":"sender","type":"address"},{"indexed":false,"internalType":"bytes32","name":"keyX","type":"bytes32"},{"indexed":false,"internalType":"bytes32","name":"keyY","type":"bytes32"},{"indexed":false,"internalType":"address","name":"priceFeed","type":"address"}],"name":"PriceFeedAdded","type":"event"},{"anonymous":false,"inputs":[{"indexed":true,"internalType":"address","name":"sender","type":"address"},{"indexed":false,"internalType":"bytes32","name":"keyX","type":"bytes32"},{"indexed":false,"internalType":"bytes32","name":"keyY","type":"bytes32"},{"indexed":false,"internalType":"bytes32","name":"keyShared","type":"bytes32"}],"name":"PriceFeedDerived","type":"event"},{"anonymous":false,"inputs":[{"indexed":true,"internalType":"address","name":"sender","type":"address"},{"indexed":false,"internalType":"uint256","name":"rating","type":"uint256"}],"name":"RatingGiven","type":"event"},{"anonymous":false,"inputs":[{"indexed":true,"internalType":"bytes32","name":"role","type":"bytes32"},{"indexed":true,"internalType":"bytes32","name":"previousAdminRole","type":"bytes32"},{"indexed":true,"internalType":"bytes32","name":"newAdminRole","type":"bytes32"}],"name":"RoleAdminChanged","type":"event"},{"anonymous":false,"inputs":[{"indexed":true,"internalType":"bytes32","name":"role","type":"bytes32"},{"indexed":true,"internalType":"address","name":"account","type":"address"},{"indexed":true,"internalType":"address","name":"sender","type":"address"}],"name":"RoleGranted","type":"event"},{"anonymous":false,"inputs":[{"indexed":true,"internalType":"bytes32","name":"role","type":"bytes32"},{"indexed":true,"internalType":"address","name":"account","type":"address"},{"indexed":true,"internalType":"address","name":"sender","type":"address"}],"name":"RoleRevoked","type":"event"},{"anonymous":false,"inputs":[{"indexed":true,"internalType":"address","name":"sender","type":"address"},{"indexed":false,"internalType":"uint256","name":"min","type":"uint256"},{"indexed":false,"internalType":"uint256","name":"max","type":"uint256"}],"name":"SetRatingBounds","type":"event"},{"anonymous":false,"inputs":[{"indexed":true,"internalType":"address","name":"sender","type":"address"},{"indexed":false,"internalType":"address","name":"user","type":"address"},{"indexed":false,"internalType":"uint256","name":"banDuration","type":"uint256"}],"name":"UserBanned","type":"event"},{"inputs":[{"internalType":"bytes32","name":"_keyX","type":"bytes32"},{"internalType":"bytes32","name":"_keyY","type":"bytes32"},{"internalType":"address","name":"_priceFeed","type":"address"}],"name":"addXPerYPriceFeed","outputs":[],"stateMutability":"nonpayable","type":"function"},{"inputs":[{"internalType":"bytes32","name":"_keyX","type":"bytes32"},{"internalType":"bytes32","name":"_keyY","type":"bytes32"},{"internalType":"uint256","name":"_amountX","type":"uint256"}],"name":"convertCurrency","outputs":[{"internalType":"uint256","name":"","type":"uint256"}],"stateMutability":"view","type":"function"},{"inputs":[{"internalType":"bytes32","name":"_keyX","type":"bytes32"},{"internalType":"bytes32","name":"_keyY","type":"bytes32"},{"internalType":"bytes32","name":"_keyShared","type":"bytes32"}],"name":"deriveXPerYPriceFeed","outputs":[],"stateMutability":"nonpayable","type":"function"},{"inputs":[{"internalType":"bytes32","name":"_keyX","type":"bytes32"},{"internalType":"bytes32","name":"_keyY","type":"bytes32"}],"name":"getAddedXPerYPriceFeed","outputs":[{"internalType":"address","name":"","type":"address"}],"stateMutability":"view","type":"function"},{"inputs":[{"internalType":"bytes32","name":"_keyX","type":"bytes32"},{"internalType":"bytes32","name":"_keyY","type":"bytes32"}],"name":"getAddedXPerYPriceFeedValue","outputs":[{"internalType":"uint256","name":"","type":"uint256"}],"stateMutability":"view","type":"function"},{"inputs":[{"internalType":"bytes32","name":"_keyX","type":"bytes32"},{"internalType":"bytes32","name":"_keyY","type":"bytes32"}],"name":"getDerivedXPerYPriceFeedDetails","outputs":[{"components":[{"internalType":"bytes32","name":"keyShared","type":"bytes32"},{"internalType":"address","name":"numerator","type":"address"},{"internalType":"address","name":"denominator","type":"address"},{"internalType":"bool","name":"numeratorInverse","type":"bool"},{"internalType":"bool","name":"denominatorInverse","type":"bool"}],"internalType":"struct LibExchange.DerivedPriceFeedDetails","name":"","type":"tuple"}],"stateMutability":"view","type":"function"},{"inputs":[{"internalType":"bytes32","name":"_keyX","type":"bytes32"},{"internalType":"bytes32","name":"_keyY","type":"bytes32"}],"name":"getDerivedXPerYPriceFeedValue","outputs":[{"internalType":"uint256","name":"","type":"uint256"}],"stateMutability":"view","type":"function"},{"inputs":[{"internalType":"bytes32","name":"_keyX","type":"bytes32"},{"internalType":"bytes32","name":"_keyY","type":"bytes32"}],"name":"removeAddedXPerYPriceFeed","outputs":[],"stateMutability":"nonpayable","type":"function"},{"inputs":[{"internalType":"bytes32","name":"_keyX","type":"bytes32"},{"internalType":"bytes32","name":"_keyY","type":"bytes32"}],"name":"removeDerivedXPerYPriceFeed","outputs":[],"stateMutability":"nonpayable","type":"function"}],"bytecode":"608060405234801561001057600080fd5b50611ac7806100206000396000f3fe608060405234801561001057600080fd5b50600436106100935760003560e01c80638db6dbcc116100665780638db6dbcc146101525780639300ebaa146101735780639e54145014610186578063b1535ff814610199578063c34a9368146101ac57600080fd5b80632b7ca5b4146100985780632c62cc9a146100ad5780638057182a146100c057806388b6a11414610127575b600080fd5b6100ab6100a636600461172f565b6101bf565b005b6100ab6100bb3660046116ec565b6101cf565b6100d36100ce3660046116cb565b6101da565b60408051825181526020808401516001600160a01b039081169183019190915283830151169181019190915260608083015115159082015260809182015115159181019190915260a0015b60405180910390f35b61013a6101353660046116cb565b610293565b6040516001600160a01b03909116815260200161011e565b61016561016036600461172f565b6102d3565b60405190815260200161011e565b6101656101813660046116cb565b6102ea565b6100ab6101943660046116cb565b610300565b6101656101a73660046116cb565b61030e565b6100ab6101ba3660046116cb565b610324565b6101ca83838361032e565b505050565b6101ca8383836106ec565b6040805160a08101825260008082526020820181905291810182905260608101829052608081019190915261020f83836108ac565b506000828152600080516020611a7283398151915260209081526040808320848452825291829020825160a0810184528154815260018201546001600160a01b03908116938201939093526002909101549182169281019290925260ff600160a01b8204811615156060840152600160a81b90910416151560808201525b92915050565b600061029f8383610941565b600080516020611a52833981519152600093845260209081526040808520938552929052509020546001600160a01b031690565b60006102e08484846109ce565b90505b9392505050565b60006102f68383610941565b6102e38383610a8a565b61030a8282610be1565b5050565b600061031a83836108ac565b6102e38383610d3f565b61030a82826111b8565b61035b60405160200161034090611872565b6040516020818303038152906040528051906020012061135c565b818314156103d65760405162461bcd60e51b815260206004820152603860248201527f4c696245786368616e67653a20556e6465726c79696e672063757272656e637960448201527f206b65792063616e6e6f74206265206964656e746963616c000000000000000060648201526084015b60405180910390fd5b6103e08382610941565b6103ea8282610941565b6000838152600080516020611a7283398151915260209081526040808320858452909152902060010154600080516020611a52833981519152906001600160a01b0316156104945760405162461bcd60e51b815260206004820152603160248201527f4c696245786368616e67653a2044657269766564207072696365206665656420604482015270185b1c9958591e481cdd5c1c1bdc9d1959607a1b60648201526084016103cd565b6000848152602082815260408083208584528252808320805488855260028087018086528487208a88528652848720600181810180546001600160a01b03199081166001600160a01b03978816179091558a8952878a208c8b528952878a20805484870180548416918916919091179055928c905595548c8a529288528689208d8a5288528689208082018054881694871694909417909355905492820180549095169290931691909117909255908690558684526003850183528184208885528352818420805460ff1916821790558401825280832085845290915290205460ff16156105cc576000848152600282810160208181526040808520888652825280852084018054600160a01b60ff60a01b1991821681179092559383528186208a8752909252909320909101805490911690911790555b6000838152600182016020908152604080832085845290915290205460ff1615610640576000848152600282810160208181526040808520888652825280852084018054600160a81b60ff60a81b1991821681179092559383528186208a8752909252909320909101805490911690911790555b60008481526004820160209081526040808320858452909152812080546001929061066c90849061189b565b909155505060008381526004820160209081526040808320858452909152812080546001929061069d90849061189b565b9091555050604080518581526020810185905290810183905233907fc3711bc73e9bcb7feba645edd4c2c07874d3df0149e3d9a2f1ab0f761f60a65b906060015b60405180910390a250505050565b6106fe60405160200161034090611872565b61070783611368565b61071082611368565b6001600160a01b0381166107725760405162461bcd60e51b8152602060048201526024808201527f4c696245786368616e67653a205a65726f2070726963652066656564206164646044820152637265737360e01b60648201526084016103cd565b6000838152600080516020611a5283398151915260208181526040808420868552909152909120546001600160a01b0316156108025760405162461bcd60e51b815260206004820152602960248201527f4c696245786368616e67653a205072696365206665656420616c7265616479206044820152681cdd5c1c1bdc9d195960ba1b60648201526084016103cd565b600084815260208281526040808320868452825280832080546001600160a01b0387166001600160a01b03199182168117909255858452828520898652845282852080549091168217905586845260018086018452828520898652845293829020805460ff1916909417909355805187815291820186905281019190915233907f8c109466b6f9c2ca069d6b70cbc749cf8d994c2a138bcb6353c8d57f0ed583d7906060016106de565b6000828152600080516020611a72833981519152602090815260408083208484529091529020600101546001600160a01b031661030a5760405162461bcd60e51b815260206004820152602d60248201527f4c696245786368616e67653a204465726976656420707269636520666565642060448201526c1b9bdd081cdd5c1c1bdc9d1959609a1b60648201526084016103cd565b6000600080516020611a5283398151915260008481526020918252604080822085835290925220546001600160a01b0316141561030a5760405162461bcd60e51b815260206004820152602560248201527f4c696245786368616e67653a2050726963652066656564206e6f7420737570706044820152641bdc9d195960da1b60648201526084016103cd565b6000838152600080516020611a528339815191526020818152604080842086855290915282205482906001600160a01b031615610a1657610a0f8686610a8a565b9050610a23565b610a208686610d3f565b90505b6000868152600183016020908152604080832088845290915290205460ff1680610a6857506000868152600383016020908152604080832088845290915290205460ff165b15610a8057610a7781856113f9565b925050506102e3565b610a778185611418565b6000610a968383610941565b6000838152600080516020611a5283398151915260209081526040808320858452909152808220548151633fabe5a360e21b815291516001600160a01b039091169291839163feaf968c9160048082019260a092909190829003018186803b158015610b0157600080fd5b505afa158015610b15573d6000803e3d6000fd5b505050506040513d601f19601f82011682018060405250810190610b39919061175a565b5050509150506000826001600160a01b031663313ce5676040518163ffffffff1660e01b815260040160206040518083038186803b158015610b7a57600080fd5b505afa158015610b8e573d6000803e3d6000fd5b505050506040513d601f19601f82011682018060405250810190610bb291906117a9565b60ff169050610bc28160126119dd565b610bcd90600a611916565b610bd790836119be565b9695505050505050565b610bf360405160200161034090611872565b610bfd8282610941565b60008281527f53e81b6394f0808163be38c3d2fc2c762dd7686d10fe6296ed6cbf8c0f3e8b1760209081526040808320848452909152902054600080516020611a528339815191529015610c935760405162461bcd60e51b815260206004820181905260248201527f4c696245786368616e67653a2042617365206b6579206265696e67207573656460448201526064016103cd565b600083815260208281526040808320858452825280832080546001600160a01b031980821690925585845282852088865284528285208054909216909155600185018084528285208786528452828520805460ff199081169091559084528285208886528452938290208054909416909355516001600160a01b039092168083529133917f926da0a17ea98678d05278376193259a0d9d6c7aaba792bde404ada56581c89d91016106de565b6000610d4b83836108ac565b6000838152600080516020611a7283398151915260209081526040808320858452909152808220600101548151633fabe5a360e21b81529151600080516020611a52833981519152936001600160a01b0390921692839163feaf968c9160048082019260a092909190829003018186803b158015610dc857600080fd5b505afa158015610ddc573d6000803e3d6000fd5b505050506040513d601f19601f82011682018060405250810190610e00919061175a565b5050509150506000826001600160a01b031663313ce5676040518163ffffffff1660e01b815260040160206040518083038186803b158015610e4157600080fd5b505afa158015610e55573d6000803e3d6000fd5b505050506040513d601f19601f82011682018060405250810190610e7991906117a9565b60ff1690506000610e8b8260126119dd565b610e9690600a611916565b610ea090846119be565b60008981526002878101602090815260408084208c8552909152808320909101548151633fabe5a360e21b81529151939450600160a01b810460ff16936001600160a01b039091169291839163feaf968c9160048082019260a092909190829003018186803b158015610f1257600080fd5b505afa158015610f26573d6000803e3d6000fd5b505050506040513d601f19601f82011682018060405250810190610f4a919061175a565b5050509150506000826001600160a01b031663313ce5676040518163ffffffff1660e01b815260040160206040518083038186803b158015610f8b57600080fd5b505afa158015610f9f573d6000803e3d6000fd5b505050506040513d601f19601f82011682018060405250810190610fc391906117a9565b60ff1690506000610fd58260126119dd565b610fe090600a611916565b610fea90846119be565b905060008a60020160008f815260200190815260200160002060008e815260200190815260200160002060020160159054906101000a900460ff169050600086158015611035575081155b1561105e578261104d89670de0b6b3a76400006119be565b61105791906118b3565b90506111a6565b861580156110695750815b1561109957611087836ec097ce7bc90715b34b9f10000000006118b3565b61104d89670de0b6b3a76400006119be565b8680156110a4575081155b156110d557826110c3896ec097ce7bc90715b34b9f10000000006118b3565b61104d90670de0b6b3a76400006119be565b8680156110df5750815b1561111a57826110f789670de0b6b3a76400006119be565b61110191906118b3565b611057906ec097ce7bc90715b34b9f10000000006118b3565b60405162461bcd60e51b815260206004820152605560248201527f4c696245786368616e67653a2054686973207265766572742073686f756c642060448201527f6e6f7420657665722062652072756e202d20736f6d657468696e6720736572696064820152746f75736c792077726f6e67207769746820636f646560581b608482015260a4016103cd565b9e9d5050505050505050505050505050565b6111ca60405160200161034090611872565b6111d482826108ac565b6000828152600080516020611a72833981519152602090815260408083208484528252808320548584527f53e81b6394f0808163be38c3d2fc2c762dd7686d10fe6296ed6cbf8c0f3e8b17835281842081855290925282208054600080516020611a52833981519152936001929161124d9084906119dd565b909155505060008381526004830160209081526040808320848452909152812080546001929061127e9084906119dd565b909155505060008481526002838101602081815260408085208886528252808520858155600180820180546001600160a01b031990811690915591860180546001600160b01b03199081169091559484528287208b8852845282872087815590810180549092169091559093018054909216909155600385018082528284208785528252828420805460ff199081169091559082528284208885528252928290208054909316909255805186815291820185905233917f45e6412a620951fe4b6b3fa278bb34236463d22224bb736712b78cdbbe9c3de191016106de565b6113658161142d565b50565b60008181527f61c2c7cf5017a0ead7aef00d9e35505290722fe92da9eca2feee8f02980bf565602052604090205460ff166113655760405162461bcd60e51b815260206004820152602b60248201527f4c696243757272656e637952656769737472793a2043757272656e6379206e6f60448201526a1d081cdd5c1c1bdc9d195960aa1b60648201526084016103cd565b6000670de0b6b3a764000061140e84846119be565b6102e391906118b3565b60008261140e83670de0b6b3a76400006119be565b60008181527f4cd15452b25e815d3f9d1a3c7edd985a178edf5eb3461a1acbf855517423d694602090815260408083203380855292529091205461136591839160ff1661030a57611488816001600160a01b031660146114ca565b6114938360206114ca565b6040516020016114a49291906117ca565b60408051601f198184030181529082905262461bcd60e51b82526103cd9160040161183f565b606060006114d98360026119be565b6114e490600261189b565b67ffffffffffffffff81111561150a57634e487b7160e01b600052604160045260246000fd5b6040519080825280601f01601f191660200182016040528015611534576020820181803683370190505b509050600360fc1b8160008151811061155d57634e487b7160e01b600052603260045260246000fd5b60200101906001600160f81b031916908160001a905350600f60fb1b8160018151811061159a57634e487b7160e01b600052603260045260246000fd5b60200101906001600160f81b031916908160001a90535060006115be8460026119be565b6115c990600161189b565b90505b600181111561165d576f181899199a1a9b1b9c1cb0b131b232b360811b85600f166010811061160b57634e487b7160e01b600052603260045260246000fd5b1a60f81b82828151811061162f57634e487b7160e01b600052603260045260246000fd5b60200101906001600160f81b031916908160001a90535060049490941c9361165681611a24565b90506115cc565b5083156102e35760405162461bcd60e51b815260206004820181905260248201527f537472696e67733a20686578206c656e67746820696e73756666696369656e7460448201526064016103cd565b805169ffffffffffffffffffff811681146116c657600080fd5b919050565b600080604083850312156116dd578182fd5b50508035926020909101359150565b600080600060608486031215611700578081fd5b833592506020840135915060408401356001600160a01b0381168114611724578182fd5b809150509250925092565b600080600060608486031215611743578283fd5b505081359360208301359350604090920135919050565b600080600080600060a08688031215611771578081fd5b61177a866116ac565b945060208601519350604086015192506060860151915061179d608087016116ac565b90509295509295909350565b6000602082840312156117ba578081fd5b815160ff811681146102e3578182fd5b7f416363657373436f6e74726f6c3a206163636f756e74200000000000000000008152600083516118028160178501602088016119f4565b7001034b99036b4b9b9b4b733903937b6329607d1b60179184019182015283516118338160288401602088016119f4565b01602801949350505050565b602081526000825180602084015261185e8160408501602087016119f4565b601f01601f19169190910160400192915050565b6020808252600f908201526e535452415445474953545f524f4c4560881b604082015260600190565b600082198211156118ae576118ae611a3b565b500190565b6000826118ce57634e487b7160e01b81526012600452602481fd5b500490565b600181815b8085111561190e5781600019048211156118f4576118f4611a3b565b8085161561190157918102915b93841c93908002906118d8565b509250929050565b60006102e3838360008261192c5750600161028d565b816119395750600061028d565b816001811461194f576002811461195957611975565b600191505061028d565b60ff84111561196a5761196a611a3b565b50506001821b61028d565b5060208310610133831016604e8410600b8410161715611998575081810a61028d565b6119a283836118d3565b80600019048211156119b6576119b6611a3b565b029392505050565b60008160001904831182151516156119d8576119d8611a3b565b500290565b6000828210156119ef576119ef611a3b565b500390565b60005b83811015611a0f5781810151838201526020016119f7565b83811115611a1e576000848401525b50505050565b600081611a3357611a33611a3b565b506000190190565b634e487b7160e01b600052601160045260246000fdfe53e81b6394f0808163be38c3d2fc2c762dd7686d10fe6296ed6cbf8c0f3e8b1353e81b6394f0808163be38c3d2fc2c762dd7686d10fe6296ed6cbf8c0f3e8b15a2646970667358221220679bcd5f94827e6985f8975f361504945184a3df72a4db5f7a0dc8fb9ba7323f64736f6c63430008040033","bytecodeSha1":"e7bf4a2c173167cbf82416373b24adfdec57d4b7","compiler":{"evm_version":"istanbul","optimizer":{"enabled":true,"runs":200},"version":"0.8.4+commit.c7e474f2"},"contractName":"Exchange","language":"Solidity","natspec":{"kind":"dev","methods":{},"version":1},"opcodes":"PUSH1 0x80 PUSH1 0x40 MSTORE CALLVALUE DUP1 ISZERO PUSH2 0x10 JUMPI PUSH1 0x0 DUP1 REVERT JUMPDEST POP PUSH1 0x4 CALLDATASIZE LT PUSH2 0x93 JUMPI PUSH1 0x0 CALLDATALOAD PUSH1 0xE0 SHR DUP1 PUSH4 0x8DB6DBCC GT PUSH2 0x66 JUMPI DUP1 PUSH4 0x8DB6DBCC EQ PUSH2 0x152 JUMPI DUP1 PUSH4 0x9300EBAA EQ PUSH2 0x173 JUMPI DUP1 PUSH4 0x9E541450 EQ PUSH2 0x186 JUMPI DUP1 PUSH4 0xB1535FF8 EQ PUSH2 0x199 JUMPI DUP1 PUSH4 0xC34A9368 EQ PUSH2 0x1AC JUMPI PUSH1 0x0 DUP1 REVERT JUMPDEST DUP1 PUSH4 0x2B7CA5B4 EQ PUSH2 0x98 JUMPI DUP1 PUSH4 0x2C62CC9A EQ PUSH2 0xAD JUMPI DUP1 PUSH4 0x8057182A EQ PUSH2 0xC0 JUMPI DUP1 PUSH4 0x88B6A114 EQ PUSH2 0x127 JUMPI JUMPDEST PUSH1 0x0 DUP1 REVERT JUMPDEST PUSH2 0xAB PUSH2 0xA6 CALLDATASIZE PUSH1 0x4 PUSH2 0x172F JUMP JUMPDEST PUSH2 0x1BF JUMP JUMPDEST STOP JUMPDEST PUSH2 0xAB PUSH2 0xBB CALLDATASIZE PUSH1 0x4 PUSH2 0x16EC JUMP JUMPDEST PUSH2 0x1CF JUMP JUMPDEST PUSH2 0xD3 PUSH2 0xCE CALLDATASIZE PUSH1 0x4 PUSH2 0x16CB JUMP JUMPDEST PUSH2 0x1DA JUMP JUMPDEST PUSH1 0x40 DUP1 MLOAD DUP3 MLOAD DUP2 MSTORE PUSH1 0x20 DUP1 DUP5 ADD MLOAD PUSH1 0x1 PUSH1 0x1 PUSH1 0xA0 SHL SUB SWAP1 DUP2 AND SWAP2 DUP4 ADD SWAP2 SWAP1 SWAP2 MSTORE DUP4 DUP4 ADD MLOAD AND SWAP2 DUP2 ADD SWAP2 SWAP1 SWAP2 MSTORE PUSH1 0x60 DUP1 DUP4 ADD MLOAD ISZERO ISZERO SWAP1 DUP3 ADD MSTORE PUSH1 0x80 SWAP2 DUP3 ADD MLOAD ISZERO ISZERO SWAP2 DUP2 ADD SWAP2 SWAP1 SWAP2 MSTORE PUSH1 0xA0 ADD JUMPDEST PUSH1 0x40 MLOAD DUP1 SWAP2 SUB SWAP1 RETURN JUMPDEST PUSH2 0x13A PUSH2 0x135 CALLDATASIZE PUSH1 0x4 PUSH2 0x16CB JUMP JUMPDEST PUSH2 0x293 JUMP JUMPDEST PUSH1 0x40 MLOAD PUSH1 0x1 PUSH1 0x1 PUSH1 0xA0 SHL SUB SWAP1 SWAP2 AND DUP2 MSTORE PUSH1 0x20 ADD PUSH2 0x11E JUMP JUMPDEST PUSH2 0x165 PUSH2 0x160 CALLDATASIZE PUSH1 0x4 PUSH2 0x172F JUMP JUMPDEST PUSH2 0x2D3 JUMP JUMPDEST PUSH1 0x40 MLOAD SWAP1 DUP2 MSTORE PUSH1 0x20 ADD PUSH2 0x11E JUMP JUMPDEST PUSH2 0x165 PUSH2 0x181 CALLDATASIZE PUSH1 0x4 PUSH2 0x16CB JUMP JUMPDEST PUSH2 0x2EA JUMP JUMPDEST PUSH2 0xAB PUSH2 0x194 CALLDATASIZE PUSH1 0x4 PUSH2 0x16CB JUMP JUMPDEST PUSH2 0x300 JUMP JUMPDEST PUSH2 0x165 PUSH2 0x1A7 CALLDATASIZE PUSH1 0x4 PUSH2 0x16CB JUMP JUMPDEST PUSH2 0x30E JUMP JUMPDEST PUSH2 0xAB PUSH2 0x1BA CALLDATASIZE PUSH1 0x4 PUSH2 0x16CB JUMP JUMPDEST PUSH2 0x324 JUMP JUMPDEST PUSH2 0x1CA DUP4 DUP4 DUP4 PUSH2 0x32E JUMP JUMPDEST POP POP POP JUMP JUMPDEST PUSH2 0x1CA DUP4 DUP4 DUP4 PUSH2 0x6EC JUMP JUMPDEST PUSH1 0x40 DUP1 MLOAD PUSH1 0xA0 DUP2 ADD DUP3 MSTORE PUSH1 0x0 DUP1 DUP3 MSTORE PUSH1 0x20 DUP3 ADD DUP2 SWAP1 MSTORE SWAP2 DUP2 ADD DUP3 SWAP1 MSTORE PUSH1 0x60 DUP2 ADD DUP3 SWAP1 MSTORE PUSH1 0x80 DUP2 ADD SWAP2 SWAP1 SWAP2 MSTORE PUSH2 0x20F DUP4 DUP4 PUSH2 0x8AC JUMP JUMPDEST POP PUSH1 0x0 DUP3 DUP2 MSTORE PUSH1 0x0 DUP1 MLOAD PUSH1 0x20 PUSH2 0x1A72 DUP4 CODECOPY DUP2 MLOAD SWAP2 MSTORE PUSH1 0x20 SWAP1 DUP2 MSTORE PUSH1 0x40 DUP1 DUP4 KECCAK256 DUP5 DUP5 MSTORE DUP3 MSTORE SWAP2 DUP3 SWAP1 KECCAK256 DUP3 MLOAD PUSH1 0xA0 DUP2 ADD DUP5 MSTORE DUP2 SLOAD DUP2 MSTORE PUSH1 0x1 DUP3 ADD SLOAD PUSH1 0x1 PUSH1 0x1 PUSH1 0xA0 SHL SUB SWAP1 DUP2 AND SWAP4 DUP3 ADD SWAP4 SWAP1 SWAP4 MSTORE PUSH1 0x2 SWAP1 SWAP2 ADD SLOAD SWAP2 DUP3 AND SWAP3 DUP2 ADD SWAP3 SWAP1 SWAP3 MSTORE PUSH1 0xFF PUSH1 0x1 PUSH1 0xA0 SHL DUP3 DIV DUP2 AND ISZERO ISZERO PUSH1 0x60 DUP5 ADD MSTORE PUSH1 0x1 PUSH1 0xA8 SHL SWAP1 SWAP2 DIV AND ISZERO ISZERO PUSH1 0x80 DUP3 ADD MSTORE JUMPDEST SWAP3 SWAP2 POP POP JUMP JUMPDEST PUSH1 0x0 PUSH2 0x29F DUP4 DUP4 PUSH2 0x941 JUMP JUMPDEST PUSH1 0x0 DUP1 MLOAD PUSH1 0x20 PUSH2 0x1A52 DUP4 CODECOPY DUP2 MLOAD SWAP2 MSTORE PUSH1 0x0 SWAP4 DUP5 MSTORE PUSH1 0x20 SWAP1 DUP2 MSTORE PUSH1 0x40 DUP1 DUP6 KECCAK256 SWAP4 DUP6 MSTORE SWAP3 SWAP1 MSTORE POP SWAP1 KECCAK256 SLOAD PUSH1 0x1 PUSH1 0x1 PUSH1 0xA0 SHL SUB AND SWAP1 JUMP JUMPDEST PUSH1 0x0 PUSH2 0x2E0 DUP5 DUP5 DUP5 PUSH2 0x9CE JUMP JUMPDEST SWAP1 POP JUMPDEST SWAP4 SWAP3 POP POP POP JUMP JUMPDEST PUSH1 0x0 PUSH2 0x2F6 DUP4 DUP4 PUSH2 0x941 JUMP JUMPDEST PUSH2 0x2E3 DUP4 DUP4 PUSH2 0xA8A JUMP JUMPDEST PUSH2 0x30A DUP3 DUP3 PUSH2 0xBE1 JUMP JUMPDEST POP POP JUMP JUMPDEST PUSH1 0x0 PUSH2 0x31A DUP4 DUP4 PUSH2 0x8AC JUMP JUMPDEST PUSH2 0x2E3 DUP4 DUP4 PUSH2 0xD3F JUMP JUMPDEST PUSH2 0x30A DUP3 DUP3 PUSH2 0x11B8 JUMP JUMPDEST PUSH2 0x35B PUSH1 0x40 MLOAD PUSH1 0x20 ADD PUSH2 0x340 SWAP1 PUSH2 0x1872 JUMP JUMPDEST PUSH1 0x40 MLOAD PUSH1 0x20 DUP2 DUP4 SUB SUB DUP2 MSTORE SWAP1 PUSH1 0x40 MSTORE DUP1 MLOAD SWAP1 PUSH1 0x20 ADD KECCAK256 PUSH2 0x135C JUMP JUMPDEST DUP2 DUP4 EQ ISZERO PUSH2 0x3D6 JUMPI PUSH1 0x40 MLOAD PUSH3 0x461BCD PUSH1 0xE5 SHL DUP2 MSTORE PUSH1 0x20 PUSH1 0x4 DUP3 ADD MSTORE PUSH1 0x38 PUSH1 0x24 DUP3 ADD MSTORE PUSH32 0x4C696245786368616E67653A20556E6465726C79696E672063757272656E6379 PUSH1 0x44 DUP3 ADD MSTORE PUSH32 0x206B65792063616E6E6F74206265206964656E746963616C0000000000000000 PUSH1 0x64 DUP3 ADD MSTORE PUSH1 0x84 ADD JUMPDEST PUSH1 0x40 MLOAD DUP1 SWAP2 SUB SWAP1 REVERT JUMPDEST PUSH2 0x3E0 DUP4 DUP3 PUSH2 0x941 JUMP JUMPDEST PUSH2 0x3EA DUP3 DUP3 PUSH2 0x941 JUMP JUMPDEST PUSH1 0x0 DUP4 DUP2 MSTORE PUSH1 0x0 DUP1 MLOAD PUSH1 0x20 PUSH2 0x1A72 DUP4 CODECOPY DUP2 MLOAD SWAP2 MSTORE PUSH1 0x20 SWAP1 DUP2 MSTORE PUSH1 0x40 DUP1 DUP4 KECCAK256 DUP6 DUP5 MSTORE SWAP1 SWAP2 MSTORE SWAP1 KECCAK256 PUSH1 0x1 ADD SLOAD PUSH1 0x0 DUP1 MLOAD PUSH1 0x20 PUSH2 0x1A52 DUP4 CODECOPY DUP2 MLOAD SWAP2 MSTORE SWAP1 PUSH1 0x1 PUSH1 0x1 PUSH1 0xA0 SHL SUB AND ISZERO PUSH2 0x494 JUMPI PUSH1 0x40 MLOAD PUSH3 0x461BCD PUSH1 0xE5 SHL DUP2 MSTORE PUSH1 0x20 PUSH1 0x4 DUP3 ADD MSTORE PUSH1 0x31 PUSH1 0x24 DUP3 ADD MSTORE PUSH32 0x4C696245786368616E67653A2044657269766564207072696365206665656420 PUSH1 0x44 DUP3 ADD MSTORE PUSH17 0x185B1C9958591E481CDD5C1C1BDC9D1959 PUSH1 0x7A SHL PUSH1 0x64 DUP3 ADD MSTORE PUSH1 0x84 ADD PUSH2 0x3CD JUMP JUMPDEST PUSH1 0x0 DUP5 DUP2 MSTORE PUSH1 0x20 DUP3 DUP2 MSTORE PUSH1 0x40 DUP1 DUP4 KECCAK256 DUP6 DUP5 MSTORE DUP3 MSTORE DUP1 DUP4 KECCAK256 DUP1 SLOAD DUP9 DUP6 MSTORE PUSH1 0x2 DUP1 DUP8 ADD DUP1 DUP7 MSTORE DUP5 DUP8 KECCAK256 DUP11 DUP9 MSTORE DUP7 MSTORE DUP5 DUP8 KECCAK256 PUSH1 0x1 DUP2 DUP2 ADD DUP1 SLOAD PUSH1 0x1 PUSH1 0x1 PUSH1 0xA0 SHL SUB NOT SWAP1 DUP2 AND PUSH1 0x1 PUSH1 0x1 PUSH1 0xA0 SHL SUB SWAP8 DUP9 AND OR SWAP1 SWAP2 SSTORE DUP11 DUP10 MSTORE DUP8 DUP11 KECCAK256 DUP13 DUP12 MSTORE DUP10 MSTORE DUP8 DUP11 KECCAK256 DUP1 SLOAD DUP5 DUP8 ADD DUP1 SLOAD DUP5 AND SWAP2 DUP10 AND SWAP2 SWAP1 SWAP2 OR SWAP1 SSTORE SWAP3 DUP13 SWAP1 SSTORE SWAP6 SLOAD DUP13 DUP11 MSTORE SWAP3 DUP9 MSTORE DUP7 DUP10 KECCAK256 DUP14 DUP11 MSTORE DUP9 MSTORE DUP7 DUP10 KECCAK256 DUP1 DUP3 ADD DUP1 SLOAD DUP9 AND SWAP5 DUP8 AND SWAP5 SWAP1 SWAP5 OR SWAP1 SWAP4 SSTORE SWAP1 SLOAD SWAP3 DUP3 ADD DUP1 SLOAD SWAP1 SWAP6 AND SWAP3 SWAP1 SWAP4 AND SWAP2 SWAP1 SWAP2 OR SWAP1 SWAP3 SSTORE SWAP1 DUP7 SWAP1 SSTORE DUP7 DUP5 MSTORE PUSH1 0x3 DUP6 ADD DUP4 MSTORE DUP2 DUP5 KECCAK256 DUP9 DUP6 MSTORE DUP4 MSTORE DUP2 DUP5 KECCAK256 DUP1 SLOAD PUSH1 0xFF NOT AND DUP3 OR SWAP1 SSTORE DUP5 ADD DUP3 MSTORE DUP1 DUP4 KECCAK256 DUP6 DUP5 MSTORE SWAP1 SWAP2 MSTORE SWAP1 KECCAK256 SLOAD PUSH1 0xFF AND ISZERO PUSH2 0x5CC JUMPI PUSH1 0x0 DUP5 DUP2 MSTORE PUSH1 0x2 DUP3 DUP2 ADD PUSH1 0x20 DUP2 DUP2 MSTORE PUSH1 0x40 DUP1 DUP6 KECCAK256 DUP9 DUP7 MSTORE DUP3 MSTORE DUP1 DUP6 KECCAK256 DUP5 ADD DUP1 SLOAD PUSH1 0x1 PUSH1 0xA0 SHL PUSH1 0xFF PUSH1 0xA0 SHL NOT SWAP2 DUP3 AND DUP2 OR SWAP1 SWAP3 SSTORE SWAP4 DUP4 MSTORE DUP2 DUP7 KECCAK256 DUP11 DUP8 MSTORE SWAP1 SWAP3 MSTORE SWAP1 SWAP4 KECCAK256 SWAP1 SWAP2 ADD DUP1 SLOAD SWAP1 SWAP2 AND SWAP1 SWAP2 OR SWAP1 SSTORE JUMPDEST PUSH1 0x0 DUP4 DUP2 MSTORE PUSH1 0x1 DUP3 ADD PUSH1 0x20 SWAP1 DUP2 MSTORE PUSH1 0x40 DUP1 DUP4 KECCAK256 DUP6 DUP5 MSTORE SWAP1 SWAP2 MSTORE SWAP1 KECCAK256 SLOAD PUSH1 0xFF AND ISZERO PUSH2 0x640 JUMPI PUSH1 0x0 DUP5 DUP2 MSTORE PUSH1 0x2 DUP3 DUP2 ADD PUSH1 0x20 DUP2 DUP2 MSTORE PUSH1 0x40 DUP1 DUP6 KECCAK256 DUP9 DUP7 MSTORE DUP3 MSTORE DUP1 DUP6 KECCAK256 DUP5 ADD DUP1 SLOAD PUSH1 0x1 PUSH1 0xA8 SHL PUSH1 0xFF PUSH1 0xA8 SHL NOT SWAP2 DUP3 AND DUP2 OR SWAP1 SWAP3 SSTORE SWAP4 DUP4 MSTORE DUP2 DUP7 KECCAK256 DUP11 DUP8 MSTORE SWAP1 SWAP3 MSTORE SWAP1 SWAP4 KECCAK256 SWAP1 SWAP2 ADD DUP1 SLOAD SWAP1 SWAP2 AND SWAP1 SWAP2 OR SWAP1 SSTORE JUMPDEST PUSH1 0x0 DUP5 DUP2 MSTORE PUSH1 0x4 DUP3 ADD PUSH1 0x20 SWAP1 DUP2 MSTORE PUSH1 0x40 DUP1 DUP4 KECCAK256 DUP6 DUP5 MSTORE SWAP1 SWAP2 MSTORE DUP2 KECCAK256 DUP1 SLOAD PUSH1 0x1 SWAP3 SWAP1 PUSH2 0x66C SWAP1 DUP5 SWAP1 PUSH2 0x189B JUMP JUMPDEST SWAP1 SWAP2 SSTORE POP POP PUSH1 0x0 DUP4 DUP2 MSTORE PUSH1 0x4 DUP3 ADD PUSH1 0x20 SWAP1 DUP2 MSTORE PUSH1 0x40 DUP1 DUP4 KECCAK256 DUP6 DUP5 MSTORE SWAP1 SWAP2 MSTORE DUP2 KECCAK256 DUP1 SLOAD PUSH1 0x1 SWAP3 SWAP1 PUSH2 0x69D SWAP1 DUP5 SWAP1 PUSH2 0x189B JUMP JUMPDEST SWAP1 SWAP2 SSTORE POP POP PUSH1 0x40 DUP1 MLOAD DUP6 DUP2 MSTORE PUSH1 0x20 DUP2 ADD DUP6 SWAP1 MSTORE SWAP1 DUP2 ADD DUP4 SWAP1 MSTORE CALLER SWAP1 PUSH32 0xC3711BC73E9BCB7FEBA645EDD4C2C07874D3DF0149E3D9A2F1AB0F761F60A65B SWAP1 PUSH1 0x60 ADD JUMPDEST PUSH1 0x40 MLOAD DUP1 SWAP2 SUB SWAP1 LOG2 POP POP POP POP JUMP JUMPDEST PUSH2 0x6FE PUSH1 0x40 MLOAD PUSH1 0x20 ADD PUSH2 0x340 SWAP1 PUSH2 0x1872 JUMP JUMPDEST PUSH2 0x707 DUP4 PUSH2 0x1368 JUMP JUMPDEST PUSH2 0x710 DUP3 PUSH2 0x1368 JUMP JUMPDEST PUSH1 0x1 PUSH1 0x1 PUSH1 0xA0 SHL SUB DUP2 AND PUSH2 0x772 JUMPI PUSH1 0x40 MLOAD PUSH3 0x461BCD PUSH1 0xE5 SHL DUP2 MSTORE PUSH1 0x20 PUSH1 0x4 DUP3 ADD MSTORE PUSH1 0x24 DUP1 DUP3 ADD MSTORE PUSH32 0x4C696245786368616E67653A205A65726F207072696365206665656420616464 PUSH1 0x44 DUP3 ADD MSTORE PUSH4 0x72657373 PUSH1 0xE0 SHL PUSH1 0x64 DUP3 ADD MSTORE PUSH1 0x84 ADD PUSH2 0x3CD JUMP JUMPDEST PUSH1 0x0 DUP4 DUP2 MSTORE PUSH1 0x0 DUP1 MLOAD PUSH1 0x20 PUSH2 0x1A52 DUP4 CODECOPY DUP2 MLOAD SWAP2 MSTORE PUSH1 0x20 DUP2 DUP2 MSTORE PUSH1 0x40 DUP1 DUP5 KECCAK256 DUP7 DUP6 MSTORE SWAP1 SWAP2 MSTORE SWAP1 SWAP2 KECCAK256 SLOAD PUSH1 0x1 PUSH1 0x1 PUSH1 0xA0 SHL SUB AND ISZERO PUSH2 0x802 JUMPI PUSH1 0x40 MLOAD PUSH3 0x461BCD PUSH1 0xE5 SHL DUP2 MSTORE PUSH1 0x20 PUSH1 0x4 DUP3 ADD MSTORE PUSH1 0x29 PUSH1 0x24 DUP3 ADD MSTORE PUSH32 0x4C696245786368616E67653A205072696365206665656420616C726561647920 PUSH1 0x44 DUP3 ADD MSTORE PUSH9 0x1CDD5C1C1BDC9D1959 PUSH1 0xBA SHL PUSH1 0x64 DUP3 ADD MSTORE PUSH1 0x84 ADD PUSH2 0x3CD JUMP JUMPDEST PUSH1 0x0 DUP5 DUP2 MSTORE PUSH1 0x20 DUP3 DUP2 MSTORE PUSH1 0x40 DUP1 DUP4 KECCAK256 DUP7 DUP5 MSTORE DUP3 MSTORE DUP1 DUP4 KECCAK256 DUP1 SLOAD PUSH1 0x1 PUSH1 0x1 PUSH1 0xA0 SHL SUB DUP8 AND PUSH1 0x1 PUSH1 0x1 PUSH1 0xA0 SHL SUB NOT SWAP2 DUP3 AND DUP2 OR SWAP1 SWAP3 SSTORE DUP6 DUP5 MSTORE DUP3 DUP6 KECCAK256 DUP10 DUP7 MSTORE DUP5 MSTORE DUP3 DUP6 KECCAK256 DUP1 SLOAD SWAP1 SWAP2 AND DUP3 OR SWAP1 SSTORE DUP7 DUP5 MSTORE PUSH1 0x1 DUP1 DUP7 ADD DUP5 MSTORE DUP3 DUP6 KECCAK256 DUP10 DUP7 MSTORE DUP5 MSTORE SWAP4 DUP3 SWAP1 KECCAK256 DUP1 SLOAD PUSH1 0xFF NOT AND SWAP1 SWAP5 OR SWAP1 SWAP4 SSTORE DUP1 MLOAD DUP8 DUP2 MSTORE SWAP2 DUP3 ADD DUP7 SWAP1 MSTORE DUP2 ADD SWAP2 SWAP1 SWAP2 MSTORE CALLER SWAP1 PUSH32 0x8C109466B6F9C2CA069D6B70CBC749CF8D994C2A138BCB6353C8D57F0ED583D7 SWAP1 PUSH1 0x60 ADD PUSH2 0x6DE JUMP JUMPDEST PUSH1 0x0 DUP3 DUP2 MSTORE PUSH1 0x0 DUP1 MLOAD PUSH1 0x20 PUSH2 0x1A72 DUP4 CODECOPY DUP2 MLOAD SWAP2 MSTORE PUSH1 0x20 SWAP1 DUP2 MSTORE PUSH1 0x40 DUP1 DUP4 KECCAK256 DUP5 DUP5 MSTORE SWAP1 SWAP2 MSTORE SWAP1 KECCAK256 PUSH1 0x1 ADD SLOAD PUSH1 0x1 PUSH1 0x1 PUSH1 0xA0 SHL SUB AND PUSH2 0x30A JUMPI PUSH1 0x40 MLOAD PUSH3 0x461BCD PUSH1 0xE5 SHL DUP2 MSTORE PUSH1 0x20 PUSH1 0x4 DUP3 ADD MSTORE PUSH1 0x2D PUSH1 0x24 DUP3 ADD MSTORE PUSH32 0x4C696245786368616E67653A2044657269766564207072696365206665656420 PUSH1 0x44 DUP3 ADD MSTORE PUSH13 0x1B9BDD081CDD5C1C1BDC9D1959 PUSH1 0x9A SHL PUSH1 0x64 DUP3 ADD MSTORE PUSH1 0x84 ADD PUSH2 0x3CD JUMP JUMPDEST PUSH1 0x0 PUSH1 0x0 DUP1 MLOAD PUSH1 0x20 PUSH2 0x1A52 DUP4 CODECOPY DUP2 MLOAD SWAP2 MSTORE PUSH1 0x0 DUP5 DUP2 MSTORE PUSH1 0x20 SWAP2 DUP3 MSTORE PUSH1 0x40 DUP1 DUP3 KECCAK256 DUP6 DUP4 MSTORE SWAP1 SWAP3 MSTORE KECCAK256 SLOAD PUSH1 0x1 PUSH1 0x1 PUSH1 0xA0 SHL SUB AND EQ ISZERO PUSH2 0x30A JUMPI PUSH1 0x40 MLOAD PUSH3 0x461BCD PUSH1 0xE5 SHL DUP2 MSTORE PUSH1 0x20 PUSH1 0x4 DUP3 ADD MSTORE PUSH1 0x25 PUSH1 0x24 DUP3 ADD MSTORE PUSH32 0x4C696245786368616E67653A2050726963652066656564206E6F742073757070 PUSH1 0x44 DUP3 ADD MSTORE PUSH5 0x1BDC9D1959 PUSH1 0xDA SHL PUSH1 0x64 DUP3 ADD MSTORE PUSH1 0x84 ADD PUSH2 0x3CD JUMP JUMPDEST PUSH1 0x0 DUP4 DUP2 MSTORE PUSH1 0x0 DUP1 MLOAD PUSH1 0x20 PUSH2 0x1A52 DUP4 CODECOPY DUP2 MLOAD SWAP2 MSTORE PUSH1 0x20 DUP2 DUP2 MSTORE PUSH1 0x40 DUP1 DUP5 KECCAK256 DUP7 DUP6 MSTORE SWAP1 SWAP2 MSTORE DUP3 KECCAK256 SLOAD DUP3 SWAP1 PUSH1 0x1 PUSH1 0x1 PUSH1 0xA0 SHL SUB AND ISZERO PUSH2 0xA16 JUMPI PUSH2 0xA0F DUP7 DUP7 PUSH2 0xA8A JUMP JUMPDEST SWAP1 POP PUSH2 0xA23 JUMP JUMPDEST PUSH2 0xA20 DUP7 DUP7 PUSH2 0xD3F JUMP JUMPDEST SWAP1 POP JUMPDEST PUSH1 0x0 DUP7 DUP2 MSTORE PUSH1 0x1 DUP4 ADD PUSH1 0x20 SWAP1 DUP2 MSTORE PUSH1 0x40 DUP1 DUP4 KECCAK256 DUP9 DUP5 MSTORE SWAP1 SWAP2 MSTORE SWAP1 KECCAK256 SLOAD PUSH1 0xFF AND DUP1 PUSH2 0xA68 JUMPI POP PUSH1 0x0 DUP7 DUP2 MSTORE PUSH1 0x3 DUP4 ADD PUSH1 0x20 SWAP1 DUP2 MSTORE PUSH1 0x40 DUP1 DUP4 KECCAK256 DUP9 DUP5 MSTORE SWAP1 SWAP2 MSTORE SWAP1 KECCAK256 SLOAD PUSH1 0xFF AND JUMPDEST ISZERO PUSH2 0xA80 JUMPI PUSH2 0xA77 DUP2 DUP6 PUSH2 0x13F9 JUMP JUMPDEST SWAP3 POP POP POP PUSH2 0x2E3 JUMP JUMPDEST PUSH2 0xA77 DUP2 DUP6 PUSH2 0x1418 JUMP JUMPDEST PUSH1 0x0 PUSH2 0xA96 DUP4 DUP4 PUSH2 0x941 JUMP JUMPDEST PUSH1 0x0 DUP4 DUP2 MSTORE PUSH1 0x0 DUP1 MLOAD PUSH1 0x20 PUSH2 0x1A52 DUP4 CODECOPY DUP2 MLOAD SWAP2 MSTORE PUSH1 0x20 SWAP1 DUP2 MSTORE PUSH1 0x40 DUP1 DUP4 KECCAK256 DUP6 DUP5 MSTORE SWAP1 SWAP2 MSTORE DUP1 DUP3 KECCAK256 SLOAD DUP2 MLOAD PUSH4 0x3FABE5A3 PUSH1 0xE2 SHL DUP2 MSTORE SWAP2 MLOAD PUSH1 0x1 PUSH1 0x1 PUSH1 0xA0 SHL SUB SWAP1 SWAP2 AND SWAP3 SWAP2 DUP4 SWAP2 PUSH4 0xFEAF968C SWAP2 PUSH1 0x4 DUP1 DUP3 ADD SWAP3 PUSH1 0xA0 SWAP3 SWAP1 SWAP2 SWAP1 DUP3 SWAP1 SUB ADD DUP2 DUP7 DUP1 EXTCODESIZE ISZERO DUP1 ISZERO PUSH2 0xB01 JUMPI PUSH1 0x0 DUP1 REVERT JUMPDEST POP GAS STATICCALL ISZERO DUP1 ISZERO PUSH2 0xB15 JUMPI RETURNDATASIZE PUSH1 0x0 DUP1 RETURNDATACOPY RETURNDATASIZE PUSH1 0x0 REVERT JUMPDEST POP POP POP POP PUSH1 0x40 MLOAD RETURNDATASIZE PUSH1 0x1F NOT PUSH1 0x1F DUP3 ADD AND DUP3 ADD DUP1 PUSH1 0x40 MSTORE POP DUP2 ADD SWAP1 PUSH2 0xB39 SWAP2 SWAP1 PUSH2 0x175A JUMP JUMPDEST POP POP POP SWAP2 POP POP PUSH1 0x0 DUP3 PUSH1 0x1 PUSH1 0x1 PUSH1 0xA0 SHL SUB AND PUSH4 0x313CE567 PUSH1 0x40 MLOAD DUP2 PUSH4 0xFFFFFFFF AND PUSH1 0xE0 SHL DUP2 MSTORE PUSH1 0x4 ADD PUSH1 0x20 PUSH1 0x40 MLOAD DUP1 DUP4 SUB DUP2 DUP7 DUP1 EXTCODESIZE ISZERO DUP1 ISZERO PUSH2 0xB7A JUMPI PUSH1 0x0 DUP1 REVERT JUMPDEST POP GAS STATICCALL ISZERO DUP1 ISZERO PUSH2 0xB8E JUMPI RETURNDATASIZE PUSH1 0x0 DUP1 RETURNDATACOPY RETURNDATASIZE PUSH1 0x0 REVERT JUMPDEST POP POP POP POP PUSH1 0x40 MLOAD RETURNDATASIZE PUSH1 0x1F NOT PUSH1 0x1F DUP3 ADD AND DUP3 ADD DUP1 PUSH1 0x40 MSTORE POP DUP2 ADD SWAP1 PUSH2 0xBB2 SWAP2 SWAP1 PUSH2 0x17A9 JUMP JUMPDEST PUSH1 0xFF AND SWAP1 POP PUSH2 0xBC2 DUP2 PUSH1 0x12 PUSH2 0x19DD JUMP JUMPDEST PUSH2 0xBCD SWAP1 PUSH1 0xA PUSH2 0x1916 JUMP JUMPDEST PUSH2 0xBD7 SWAP1 DUP4 PUSH2 0x19BE JUMP JUMPDEST SWAP7 SWAP6 POP POP POP POP POP POP JUMP JUMPDEST PUSH2 0xBF3 PUSH1 0x40 MLOAD PUSH1 0x20 ADD PUSH2 0x340 SWAP1 PUSH2 0x1872 JUMP JUMPDEST PUSH2 0xBFD DUP3 DUP3 PUSH2 0x941 JUMP JUMPDEST PUSH1 0x0 DUP3 DUP2 MSTORE PUSH32 0x53E81B6394F0808163BE38C3D2FC2C762DD7686D10FE6296ED6CBF8C0F3E8B17 PUSH1 0x20 SWAP1 DUP2 MSTORE PUSH1 0x40 DUP1 DUP4 KECCAK256 DUP5 DUP5 MSTORE SWAP1 SWAP2 MSTORE SWAP1 KECCAK256 SLOAD PUSH1 0x0 DUP1 MLOAD PUSH1 0x20 PUSH2 0x1A52 DUP4 CODECOPY DUP2 MLOAD SWAP2 MSTORE SWAP1 ISZERO PUSH2 0xC93 JUMPI PUSH1 0x40 MLOAD PUSH3 0x461BCD PUSH1 0xE5 SHL DUP2 MSTORE PUSH1 0x20 PUSH1 0x4 DUP3 ADD DUP2 SWAP1 MSTORE PUSH1 0x24 DUP3 ADD MSTORE PUSH32 0x4C696245786368616E67653A2042617365206B6579206265696E672075736564 PUSH1 0x44 DUP3 ADD MSTORE PUSH1 0x64 ADD PUSH2 0x3CD JUMP JUMPDEST PUSH1 0x0 DUP4 DUP2 MSTORE PUSH1 0x20 DUP3 DUP2 MSTORE PUSH1 0x40 DUP1 DUP4 KECCAK256 DUP6 DUP5 MSTORE DUP3 MSTORE DUP1 DUP4 KECCAK256 DUP1 SLOAD PUSH1 0x1 PUSH1 0x1 PUSH1 0xA0 SHL SUB NOT DUP1 DUP3 AND SWAP1 SWAP3 SSTORE DUP6 DUP5 MSTORE DUP3 DUP6 KECCAK256 DUP9 DUP7 MSTORE DUP5 MSTORE DUP3 DUP6 KECCAK256 DUP1 SLOAD SWAP1 SWAP3 AND SWAP1 SWAP2 SSTORE PUSH1 0x1 DUP6 ADD DUP1 DUP5 MSTORE DUP3 DUP6 KECCAK256 DUP8 DUP7 MSTORE DUP5 MSTORE DUP3 DUP6 KECCAK256 DUP1 SLOAD PUSH1 0xFF NOT SWAP1 DUP2 AND SWAP1 SWAP2 SSTORE SWAP1 DUP5 MSTORE DUP3 DUP6 KECCAK256 DUP9 DUP7 MSTORE DUP5 MSTORE SWAP4 DUP3 SWAP1 KECCAK256 DUP1 SLOAD SWAP1 SWAP5 AND SWAP1 SWAP4 SSTORE MLOAD PUSH1 0x1 PUSH1 0x1 PUSH1 0xA0 SHL SUB SWAP1 SWAP3 AND DUP1 DUP4 MSTORE SWAP2 CALLER SWAP2 PUSH32 0x926DA0A17EA98678D05278376193259A0D9D6C7AABA792BDE404ADA56581C89D SWAP2 ADD PUSH2 0x6DE JUMP JUMPDEST PUSH1 0x0 PUSH2 0xD4B DUP4 DUP4 PUSH2 0x8AC JUMP JUMPDEST PUSH1 0x0 DUP4 DUP2 MSTORE PUSH1 0x0 DUP1 MLOAD PUSH1 0x20 PUSH2 0x1A72 DUP4 CODECOPY DUP2 MLOAD SWAP2 MSTORE PUSH1 0x20 SWAP1 DUP2 MSTORE PUSH1 0x40 DUP1 DUP4 KECCAK256 DUP6 DUP5 MSTORE SWAP1 SWAP2 MSTORE DUP1 DUP3 KECCAK256 PUSH1 0x1 ADD SLOAD DUP2 MLOAD PUSH4 0x3FABE5A3 PUSH1 0xE2 SHL DUP2 MSTORE SWAP2 MLOAD PUSH1 0x0 DUP1 MLOAD PUSH1 0x20 PUSH2 0x1A52 DUP4 CODECOPY DUP2 MLOAD SWAP2 MSTORE SWAP4 PUSH1 0x1 PUSH1 0x1 PUSH1 0xA0 SHL SUB SWAP1 SWAP3 AND SWAP3 DUP4 SWAP2 PUSH4 0xFEAF968C SWAP2 PUSH1 0x4 DUP1 DUP3 ADD SWAP3 PUSH1 0xA0 SWAP3 SWAP1 SWAP2 SWAP1 DUP3 SWAP1 SUB ADD DUP2 DUP7 DUP1 EXTCODESIZE ISZERO DUP1 ISZERO PUSH2 0xDC8 JUMPI PUSH1 0x0 DUP1 REVERT JUMPDEST POP GAS STATICCALL ISZERO DUP1 ISZERO PUSH2 0xDDC JUMPI RETURNDATASIZE PUSH1 0x0 DUP1 RETURNDATACOPY RETURNDATASIZE PUSH1 0x0 REVERT JUMPDEST POP POP POP POP PUSH1 0x40 MLOAD RETURNDATASIZE PUSH1 0x1F NOT PUSH1 0x1F DUP3 ADD AND DUP3 ADD DUP1 PUSH1 0x40 MSTORE POP DUP2 ADD SWAP1 PUSH2 0xE00 SWAP2 SWAP1 PUSH2 0x175A JUMP JUMPDEST POP POP POP SWAP2 POP POP PUSH1 0x0 DUP3 PUSH1 0x1 PUSH1 0x1 PUSH1 0xA0 SHL SUB AND PUSH4 0x313CE567 PUSH1 0x40 MLOAD DUP2 PUSH4 0xFFFFFFFF AND PUSH1 0xE0 SHL DUP2 MSTORE PUSH1 0x4 ADD PUSH1 0x20 PUSH1 0x40 MLOAD DUP1 DUP4 SUB DUP2 DUP7 DUP1 EXTCODESIZE ISZERO DUP1 ISZERO PUSH2 0xE41 JUMPI PUSH1 0x0 DUP1 REVERT JUMPDEST POP GAS STATICCALL ISZERO DUP1 ISZERO PUSH2 0xE55 JUMPI RETURNDATASIZE PUSH1 0x0 DUP1 RETURNDATACOPY RETURNDATASIZE PUSH1 0x0 REVERT JUMPDEST POP POP POP POP PUSH1 0x40 MLOAD RETURNDATASIZE PUSH1 0x1F NOT PUSH1 0x1F DUP3 ADD AND DUP3 ADD DUP1 PUSH1 0x40 MSTORE POP DUP2 ADD SWAP1 PUSH2 0xE79 SWAP2 SWAP1 PUSH2 0x17A9 JUMP JUMPDEST PUSH1 0xFF AND SWAP1 POP PUSH1 0x0 PUSH2 0xE8B DUP3 PUSH1 0x12 PUSH2 0x19DD JUMP JUMPDEST PUSH2 0xE96 SWAP1 PUSH1 0xA PUSH2 0x1916 JUMP JUMPDEST PUSH2 0xEA0 SWAP1 DUP5 PUSH2 0x19BE JUMP JUMPDEST PUSH1 0x0 DUP10 DUP2 MSTORE PUSH1 0x2 DUP8 DUP2 ADD PUSH1 0x20 SWAP1 DUP2 MSTORE PUSH1 0x40 DUP1 DUP5 KECCAK256 DUP13 DUP6 MSTORE SWAP1 SWAP2 MSTORE DUP1 DUP4 KECCAK256 SWAP1 SWAP2 ADD SLOAD DUP2 MLOAD PUSH4 0x3FABE5A3 PUSH1 0xE2 SHL DUP2 MSTORE SWAP2 MLOAD SWAP4 SWAP5 POP PUSH1 0x1 PUSH1 0xA0 SHL DUP2 DIV PUSH1 0xFF AND SWAP4 PUSH1 0x1 PUSH1 0x1 PUSH1 0xA0 SHL SUB SWAP1 SWAP2 AND SWAP3 SWAP2 DUP4 SWAP2 PUSH4 0xFEAF968C SWAP2 PUSH1 0x4 DUP1 DUP3 ADD SWAP3 PUSH1 0xA0 SWAP3 SWAP1 SWAP2 SWAP1 DUP3 SWAP1 SUB ADD DUP2 DUP7 DUP1 EXTCODESIZE ISZERO DUP1 ISZERO PUSH2 0xF12 JUMPI PUSH1 0x0 DUP1 REVERT JUMPDEST POP GAS STATICCALL ISZERO DUP1 ISZERO PUSH2 0xF26 JUMPI RETURNDATASIZE PUSH1 0x0 DUP1 RETURNDATACOPY RETURNDATASIZE PUSH1 0x0 REVERT JUMPDEST POP POP POP POP PUSH1 0x40 MLOAD RETURNDATASIZE PUSH1 0x1F NOT PUSH1 0x1F DUP3 ADD AND DUP3 ADD DUP1 PUSH1 0x40 MSTORE POP DUP2 ADD SWAP1 PUSH2 0xF4A SWAP2 SWAP1 PUSH2 0x175A JUMP JUMPDEST POP POP POP SWAP2 POP POP PUSH1 0x0 DUP3 PUSH1 0x1 PUSH1 0x1 PUSH1 0xA0 SHL SUB AND PUSH4 0x313CE567 PUSH1 0x40 MLOAD DUP2 PUSH4 0xFFFFFFFF AND PUSH1 0xE0 SHL DUP2 MSTORE PUSH1 0x4 ADD PUSH1 0x20 PUSH1 0x40 MLOAD DUP1 DUP4 SUB DUP2 DUP7 DUP1 EXTCODESIZE ISZERO DUP1 ISZERO PUSH2 0xF8B JUMPI PUSH1 0x0 DUP1 REVERT JUMPDEST POP GAS STATICCALL ISZERO DUP1 ISZERO PUSH2 0xF9F JUMPI RETURNDATASIZE PUSH1 0x0 DUP1 RETURNDATACOPY RETURNDATASIZE PUSH1 0x0 REVERT JUMPDEST POP POP POP POP PUSH1 0x40 MLOAD RETURNDATASIZE PUSH1 0x1F NOT PUSH1 0x1F DUP3 ADD AND DUP3 ADD DUP1 PUSH1 0x40 MSTORE POP DUP2 ADD SWAP1 PUSH2 0xFC3 SWAP2 SWAP1 PUSH2 0x17A9 JUMP JUMPDEST PUSH1 0xFF AND SWAP1 POP PUSH1 0x0 PUSH2 0xFD5 DUP3 PUSH1 0x12 PUSH2 0x19DD JUMP JUMPDEST PUSH2 0xFE0 SWAP1 PUSH1 0xA PUSH2 0x1916 JUMP JUMPDEST PUSH2 0xFEA SWAP1 DUP5 PUSH2 0x19BE JUMP JUMPDEST SWAP1 POP PUSH1 0x0 DUP11 PUSH1 0x2 ADD PUSH1 0x0 DUP16 DUP2 MSTORE PUSH1 0x20 ADD SWAP1 DUP2 MSTORE PUSH1 0x20 ADD PUSH1 0x0 KECCAK256 PUSH1 0x0 DUP15 DUP2 MSTORE PUSH1 0x20 ADD SWAP1 DUP2 MSTORE PUSH1 0x20 ADD PUSH1 0x0 KECCAK256 PUSH1 0x2 ADD PUSH1 0x15 SWAP1 SLOAD SWAP1 PUSH2 0x100 EXP SWAP1 DIV PUSH1 0xFF AND SWAP1 POP PUSH1 0x0 DUP7 ISZERO DUP1 ISZERO PUSH2 0x1035 JUMPI POP DUP2 ISZERO JUMPDEST ISZERO PUSH2 0x105E JUMPI DUP3 PUSH2 0x104D DUP10 PUSH8 0xDE0B6B3A7640000 PUSH2 0x19BE JUMP JUMPDEST PUSH2 0x1057 SWAP2 SWAP1 PUSH2 0x18B3 JUMP JUMPDEST SWAP1 POP PUSH2 0x11A6 JUMP JUMPDEST DUP7 ISZERO DUP1 ISZERO PUSH2 0x1069 JUMPI POP DUP2 JUMPDEST ISZERO PUSH2 0x1099 JUMPI PUSH2 0x1087 DUP4 PUSH15 0xC097CE7BC90715B34B9F1000000000 PUSH2 0x18B3 JUMP JUMPDEST PUSH2 0x104D DUP10 PUSH8 0xDE0B6B3A7640000 PUSH2 0x19BE JUMP JUMPDEST DUP7 DUP1 ISZERO PUSH2 0x10A4 JUMPI POP DUP2 ISZERO JUMPDEST ISZERO PUSH2 0x10D5 JUMPI DUP3 PUSH2 0x10C3 DUP10 PUSH15 0xC097CE7BC90715B34B9F1000000000 PUSH2 0x18B3 JUMP JUMPDEST PUSH2 0x104D SWAP1 PUSH8 0xDE0B6B3A7640000 PUSH2 0x19BE JUMP JUMPDEST DUP7 DUP1 ISZERO PUSH2 0x10DF JUMPI POP DUP2 JUMPDEST ISZERO PUSH2 0x111A JUMPI DUP3 PUSH2 0x10F7 DUP10 PUSH8 0xDE0B6B3A7640000 PUSH2 0x19BE JUMP JUMPDEST PUSH2 0x1101 SWAP2 SWAP1 PUSH2 0x18B3 JUMP JUMPDEST PUSH2 0x1057 SWAP1 PUSH15 0xC097CE7BC90715B34B9F1000000000 PUSH2 0x18B3 JUMP JUMPDEST PUSH1 0x40 MLOAD PUSH3 0x461BCD PUSH1 0xE5 SHL DUP2 MSTORE PUSH1 0x20 PUSH1 0x4 DUP3 ADD MSTORE PUSH1 0x55 PUSH1 0x24 DUP3 ADD MSTORE PUSH32 0x4C696245786368616E67653A2054686973207265766572742073686F756C6420 PUSH1 0x44 DUP3 ADD MSTORE PUSH32 0x6E6F7420657665722062652072756E202D20736F6D657468696E672073657269 PUSH1 0x64 DUP3 ADD MSTORE PUSH21 0x6F75736C792077726F6E67207769746820636F6465 PUSH1 0x58 SHL PUSH1 0x84 DUP3 ADD MSTORE PUSH1 0xA4 ADD PUSH2 0x3CD JUMP JUMPDEST SWAP15 SWAP14 POP POP POP POP POP POP POP POP POP POP POP POP POP POP JUMP JUMPDEST PUSH2 0x11CA PUSH1 0x40 MLOAD PUSH1 0x20 ADD PUSH2 0x340 SWAP1 PUSH2 0x1872 JUMP JUMPDEST PUSH2 0x11D4 DUP3 DUP3 PUSH2 0x8AC JUMP JUMPDEST PUSH1 0x0 DUP3 DUP2 MSTORE PUSH1 0x0 DUP1 MLOAD PUSH1 0x20 PUSH2 0x1A72 DUP4 CODECOPY DUP2 MLOAD SWAP2 MSTORE PUSH1 0x20 SWAP1 DUP2 MSTORE PUSH1 0x40 DUP1 DUP4 KECCAK256 DUP5 DUP5 MSTORE DUP3 MSTORE DUP1 DUP4 KECCAK256 SLOAD DUP6 DUP5 MSTORE PUSH32 0x53E81B6394F0808163BE38C3D2FC2C762DD7686D10FE6296ED6CBF8C0F3E8B17 DUP4 MSTORE DUP2 DUP5 KECCAK256 DUP2 DUP6 MSTORE SWAP1 SWAP3 MSTORE DUP3 KECCAK256 DUP1 SLOAD PUSH1 0x0 DUP1 MLOAD PUSH1 0x20 PUSH2 0x1A52 DUP4 CODECOPY DUP2 MLOAD SWAP2 MSTORE SWAP4 PUSH1 0x1 SWAP3 SWAP2 PUSH2 0x124D SWAP1 DUP5 SWAP1 PUSH2 0x19DD JUMP JUMPDEST SWAP1 SWAP2 SSTORE POP POP PUSH1 0x0 DUP4 DUP2 MSTORE PUSH1 0x4 DUP4 ADD PUSH1 0x20 SWAP1 DUP2 MSTORE PUSH1 0x40 DUP1 DUP4 KECCAK256 DUP5 DUP5 MSTORE SWAP1 SWAP2 MSTORE DUP2 KECCAK256 DUP1 SLOAD PUSH1 0x1 SWAP3 SWAP1 PUSH2 0x127E SWAP1 DUP5 SWAP1 PUSH2 0x19DD JUMP JUMPDEST SWAP1 SWAP2 SSTORE POP POP PUSH1 0x0 DUP5 DUP2 MSTORE PUSH1 0x2 DUP4 DUP2 ADD PUSH1 0x20 DUP2 DUP2 MSTORE PUSH1 0x40 DUP1 DUP6 KECCAK256 DUP9 DUP7 MSTORE DUP3 MSTORE DUP1 DUP6 KECCAK256 DUP6 DUP2 SSTORE PUSH1 0x1 DUP1 DUP3 ADD DUP1 SLOAD PUSH1 0x1 PUSH1 0x1 PUSH1 0xA0 SHL SUB NOT SWAP1 DUP2 AND SWAP1 SWAP2 SSTORE SWAP2 DUP7 ADD DUP1 SLOAD PUSH1 0x1 PUSH1 0x1 PUSH1 0xB0 SHL SUB NOT SWAP1 DUP2 AND SWAP1 SWAP2 SSTORE SWAP5 DUP5 MSTORE DUP3 DUP8 KECCAK256 DUP12 DUP9 MSTORE DUP5 MSTORE DUP3 DUP8 KECCAK256 DUP8 DUP2 SSTORE SWAP1 DUP2 ADD DUP1 SLOAD SWAP1 SWAP3 AND SWAP1 SWAP2 SSTORE SWAP1 SWAP4 ADD DUP1 SLOAD SWAP1 SWAP3 AND SWAP1 SWAP2 SSTORE PUSH1 0x3 DUP6 ADD DUP1 DUP3 MSTORE DUP3 DUP5 KECCAK256 DUP8 DUP6 MSTORE DUP3 MSTORE DUP3 DUP5 KECCAK256 DUP1 SLOAD PUSH1 0xFF NOT SWAP1 DUP2 AND SWAP1 SWAP2 SSTORE SWAP1 DUP3 MSTORE DUP3 DUP5 KECCAK256 DUP9 DUP6 MSTORE DUP3 MSTORE SWAP3 DUP3 SWAP1 KECCAK256 DUP1 SLOAD SWAP1 SWAP4 AND SWAP1 SWAP3 SSTORE DUP1 MLOAD DUP7 DUP2 MSTORE SWAP2 DUP3 ADD DUP6 SWAP1 MSTORE CALLER SWAP2 PUSH32 0x45E6412A620951FE4B6B3FA278BB34236463D22224BB736712B78CDBBE9C3DE1 SWAP2 ADD PUSH2 0x6DE JUMP JUMPDEST PUSH2 0x1365 DUP2 PUSH2 0x142D JUMP JUMPDEST POP JUMP JUMPDEST PUSH1 0x0 DUP2 DUP2 MSTORE PUSH32 0x61C2C7CF5017A0EAD7AEF00D9E35505290722FE92DA9ECA2FEEE8F02980BF565 PUSH1 0x20 MSTORE PUSH1 0x40 SWAP1 KECCAK256 SLOAD PUSH1 0xFF AND PUSH2 0x1365 JUMPI PUSH1 0x40 MLOAD PUSH3 0x461BCD PUSH1 0xE5 SHL DUP2 MSTORE PUSH1 0x20 PUSH1 0x4 DUP3 ADD MSTORE PUSH1 0x2B PUSH1 0x24 DUP3 ADD MSTORE PUSH32 0x4C696243757272656E637952656769737472793A2043757272656E6379206E6F PUSH1 0x44 DUP3 ADD MSTORE PUSH11 0x1D081CDD5C1C1BDC9D1959 PUSH1 0xAA SHL PUSH1 0x64 DUP3 ADD MSTORE PUSH1 0x84 ADD PUSH2 0x3CD JUMP JUMPDEST PUSH1 0x0 PUSH8 0xDE0B6B3A7640000 PUSH2 0x140E DUP5 DUP5 PUSH2 0x19BE JUMP JUMPDEST PUSH2 0x2E3 SWAP2 SWAP1 PUSH2 0x18B3 JUMP JUMPDEST PUSH1 0x0 DUP3 PUSH2 0x140E DUP4 PUSH8 0xDE0B6B3A7640000 PUSH2 0x19BE JUMP JUMPDEST PUSH1 0x0 DUP2 DUP2 MSTORE PUSH32 0x4CD15452B25E815D3F9D1A3C7EDD985A178EDF5EB3461A1ACBF855517423D694 PUSH1 0x20 SWAP1 DUP2 MSTORE PUSH1 0x40 DUP1 DUP4 KECCAK256 CALLER DUP1 DUP6 MSTORE SWAP3 MSTORE SWAP1 SWAP2 KECCAK256 SLOAD PUSH2 0x1365 SWAP2 DUP4 SWAP2 PUSH1 0xFF AND PUSH2 0x30A JUMPI PUSH2 0x1488 DUP2 PUSH1 0x1 PUSH1 0x1 PUSH1 0xA0 SHL SUB AND PUSH1 0x14 PUSH2 0x14CA JUMP JUMPDEST PUSH2 0x1493 DUP4 PUSH1 0x20 PUSH2 0x14CA JUMP JUMPDEST PUSH1 0x40 MLOAD PUSH1 0x20 ADD PUSH2 0x14A4 SWAP3 SWAP2 SWAP1 PUSH2 0x17CA JUMP JUMPDEST PUSH1 0x40 DUP1 MLOAD PUSH1 0x1F NOT DUP2 DUP5 SUB ADD DUP2 MSTORE SWAP1 DUP3 SWAP1 MSTORE PUSH3 0x461BCD PUSH1 0xE5 SHL DUP3 MSTORE PUSH2 0x3CD SWAP2 PUSH1 0x4 ADD PUSH2 0x183F JUMP JUMPDEST PUSH1 0x60 PUSH1 0x0 PUSH2 0x14D9 DUP4 PUSH1 0x2 PUSH2 0x19BE JUMP JUMPDEST PUSH2 0x14E4 SWAP1 PUSH1 0x2 PUSH2 0x189B JUMP JUMPDEST PUSH8 0xFFFFFFFFFFFFFFFF DUP2 GT ISZERO PUSH2 0x150A JUMPI PUSH4 0x4E487B71 PUSH1 0xE0 SHL PUSH1 0x0 MSTORE PUSH1 0x41 PUSH1 0x4 MSTORE PUSH1 0x24 PUSH1 0x0 REVERT JUMPDEST PUSH1 0x40 MLOAD SWAP1 DUP1 DUP3 MSTORE DUP1 PUSH1 0x1F ADD PUSH1 0x1F NOT AND PUSH1 0x20 ADD DUP3 ADD PUSH1 0x40 MSTORE DUP1 ISZERO PUSH2 0x1534 JUMPI PUSH1 0x20 DUP3 ADD DUP2 DUP1 CALLDATASIZE DUP4 CALLDATACOPY ADD SWAP1 POP JUMPDEST POP SWAP1 POP PUSH1 0x3 PUSH1 0xFC SHL DUP2 PUSH1 0x0 DUP2 MLOAD DUP2 LT PUSH2 0x155D JUMPI PUSH4 0x4E487B71 PUSH1 0xE0 SHL PUSH1 0x0 MSTORE PUSH1 0x32 PUSH1 0x4 MSTORE PUSH1 0x24 PUSH1 0x0 REVERT JUMPDEST PUSH1 0x20 ADD ADD SWAP1 PUSH1 0x1 PUSH1 0x1 PUSH1 0xF8 SHL SUB NOT AND SWAP1 DUP2 PUSH1 0x0 BYTE SWAP1 MSTORE8 POP PUSH1 0xF PUSH1 0xFB SHL DUP2 PUSH1 0x1 DUP2 MLOAD DUP2 LT PUSH2 0x159A JUMPI PUSH4 0x4E487B71 PUSH1 0xE0 SHL PUSH1 0x0 MSTORE PUSH1 0x32 PUSH1 0x4 MSTORE PUSH1 0x24 PUSH1 0x0 REVERT JUMPDEST PUSH1 0x20 ADD ADD SWAP1 PUSH1 0x1 PUSH1 0x1 PUSH1 0xF8 SHL SUB NOT AND SWAP1 DUP2 PUSH1 0x0 BYTE SWAP1 MSTORE8 POP PUSH1 0x0 PUSH2 0x15BE DUP5 PUSH1 0x2 PUSH2 0x19BE JUMP JUMPDEST PUSH2 0x15C9 SWAP1 PUSH1 0x1 PUSH2 0x189B JUMP JUMPDEST SWAP1 POP JUMPDEST PUSH1 0x1 DUP2 GT ISZERO PUSH2 0x165D JUMPI PUSH16 0x181899199A1A9B1B9C1CB0B131B232B3 PUSH1 0x81 SHL DUP6 PUSH1 0xF AND PUSH1 0x10 DUP2 LT PUSH2 0x160B JUMPI PUSH4 0x4E487B71 PUSH1 0xE0 SHL PUSH1 0x0 MSTORE PUSH1 0x32 PUSH1 0x4 MSTORE PUSH1 0x24 PUSH1 0x0 REVERT JUMPDEST BYTE PUSH1 0xF8 SHL DUP3 DUP3 DUP2 MLOAD DUP2 LT PUSH2 0x162F JUMPI PUSH4 0x4E487B71 PUSH1 0xE0 SHL PUSH1 0x0 MSTORE PUSH1 0x32 PUSH1 0x4 MSTORE PUSH1 0x24 PUSH1 0x0 REVERT JUMPDEST PUSH1 0x20 ADD ADD SWAP1 PUSH1 0x1 PUSH1 0x1 PUSH1 0xF8 SHL SUB NOT AND SWAP1 DUP2 PUSH1 0x0 BYTE SWAP1 MSTORE8 POP PUSH1 0x4 SWAP5 SWAP1 SWAP5 SHR SWAP4 PUSH2 0x1656 DUP2 PUSH2 0x1A24 JUMP JUMPDEST SWAP1 POP PUSH2 0x15CC JUMP JUMPDEST POP DUP4 ISZERO PUSH2 0x2E3 JUMPI PUSH1 0x40 MLOAD PUSH3 0x461BCD PUSH1 0xE5 SHL DUP2 MSTORE PUSH1 0x20 PUSH1 0x4 DUP3 ADD DUP2 SWAP1 MSTORE PUSH1 0x24 DUP3 ADD MSTORE PUSH32 0x537472696E67733A20686578206C656E67746820696E73756666696369656E74 PUSH1 0x44 DUP3 ADD MSTORE PUSH1 0x64 ADD PUSH2 0x3CD JUMP JUMPDEST DUP1 MLOAD PUSH10 0xFFFFFFFFFFFFFFFFFFFF DUP2 AND DUP2 EQ PUSH2 0x16C6 JUMPI PUSH1 0x0 DUP1 REVERT JUMPDEST SWAP2 SWAP1 POP JUMP JUMPDEST PUSH1 0x0 DUP1 PUSH1 0x40 DUP4 DUP6 SUB SLT ISZERO PUSH2 0x16DD JUMPI DUP2 DUP3 REVERT JUMPDEST POP POP DUP1 CALLDATALOAD SWAP3 PUSH1 0x20 SWAP1 SWAP2 ADD CALLDATALOAD SWAP2 POP JUMP JUMPDEST PUSH1 0x0 DUP1 PUSH1 0x0 PUSH1 0x60 DUP5 DUP7 SUB SLT ISZERO PUSH2 0x1700 JUMPI DUP1 DUP2 REVERT JUMPDEST DUP4 CALLDATALOAD SWAP3 POP PUSH1 0x20 DUP5 ADD CALLDATALOAD SWAP2 POP PUSH1 0x40 DUP5 ADD CALLDATALOAD PUSH1 0x1 PUSH1 0x1 PUSH1 0xA0 SHL SUB DUP2 AND DUP2 EQ PUSH2 0x1724 JUMPI DUP2 DUP3 REVERT JUMPDEST DUP1 SWAP2 POP POP SWAP3 POP SWAP3 POP SWAP3 JUMP JUMPDEST PUSH1 0x0 DUP1 PUSH1 0x0 PUSH1 0x60 DUP5 DUP7 SUB SLT ISZERO PUSH2 0x1743 JUMPI DUP3 DUP4 REVERT JUMPDEST POP POP DUP2 CALLDATALOAD SWAP4 PUSH1 0x20 DUP4 ADD CALLDATALOAD SWAP4 POP PUSH1 0x40 SWAP1 SWAP3 ADD CALLDATALOAD SWAP2 SWAP1 POP JUMP JUMPDEST PUSH1 0x0 DUP1 PUSH1 0x0 DUP1 PUSH1 0x0 PUSH1 0xA0 DUP7 DUP9 SUB SLT ISZERO PUSH2 0x1771 JUMPI DUP1 DUP2 REVERT JUMPDEST PUSH2 0x177A DUP7 PUSH2 0x16AC JUMP JUMPDEST SWAP5 POP PUSH1 0x20 DUP7 ADD MLOAD SWAP4 POP PUSH1 0x40 DUP7 ADD MLOAD SWAP3 POP PUSH1 0x60 DUP7 ADD MLOAD SWAP2 POP PUSH2 0x179D PUSH1 0x80 DUP8 ADD PUSH2 0x16AC JUMP JUMPDEST SWAP1 POP SWAP3 SWAP6 POP SWAP3 SWAP6 SWAP1 SWAP4 POP JUMP JUMPDEST PUSH1 0x0 PUSH1 0x20 DUP3 DUP5 SUB SLT ISZERO PUSH2 0x17BA JUMPI DUP1 DUP2 REVERT JUMPDEST DUP2 MLOAD PUSH1 0xFF DUP2 AND DUP2 EQ PUSH2 0x2E3 JUMPI DUP2 DUP3 REVERT JUMPDEST PUSH32 0x416363657373436F6E74726F6C3A206163636F756E7420000000000000000000 DUP2 MSTORE PUSH1 0x0 DUP4 MLOAD PUSH2 0x1802 DUP2 PUSH1 0x17 DUP6 ADD PUSH1 0x20 DUP9 ADD PUSH2 0x19F4 JUMP JUMPDEST PUSH17 0x1034B99036B4B9B9B4B733903937B6329 PUSH1 0x7D SHL PUSH1 0x17 SWAP2 DUP5 ADD SWAP2 DUP3 ADD MSTORE DUP4 MLOAD PUSH2 0x1833 DUP2 PUSH1 0x28 DUP5 ADD PUSH1 0x20 DUP9 ADD PUSH2 0x19F4 JUMP JUMPDEST ADD PUSH1 0x28 ADD SWAP5 SWAP4 POP POP POP POP JUMP JUMPDEST PUSH1 0x20 DUP2 MSTORE PUSH1 0x0 DUP3 MLOAD DUP1 PUSH1 0x20 DUP5 ADD MSTORE PUSH2 0x185E DUP2 PUSH1 0x40 DUP6 ADD PUSH1 0x20 DUP8 ADD PUSH2 0x19F4 JUMP JUMPDEST PUSH1 0x1F ADD PUSH1 0x1F NOT AND SWAP2 SWAP1 SWAP2 ADD PUSH1 0x40 ADD SWAP3 SWAP2 POP POP JUMP JUMPDEST PUSH1 0x20 DUP1 DUP3 MSTORE PUSH1 0xF SWAP1 DUP3 ADD MSTORE PUSH15 0x535452415445474953545F524F4C45 PUSH1 0x88 SHL PUSH1 0x40 DUP3 ADD MSTORE PUSH1 0x60 ADD SWAP1 JUMP JUMPDEST PUSH1 0x0 DUP3 NOT DUP3 GT ISZERO PUSH2 0x18AE JUMPI PUSH2 0x18AE PUSH2 0x1A3B JUMP JUMPDEST POP ADD SWAP1 JUMP JUMPDEST PUSH1 0x0 DUP3 PUSH2 0x18CE JUMPI PUSH4 0x4E487B71 PUSH1 0xE0 SHL DUP2 MSTORE PUSH1 0x12 PUSH1 0x4 MSTORE PUSH1 0x24 DUP2 REVERT JUMPDEST POP DIV SWAP1 JUMP JUMPDEST PUSH1 0x1 DUP2 DUP2 JUMPDEST DUP1 DUP6 GT ISZERO PUSH2 0x190E JUMPI DUP2 PUSH1 0x0 NOT DIV DUP3 GT ISZERO PUSH2 0x18F4 JUMPI PUSH2 0x18F4 PUSH2 0x1A3B JUMP JUMPDEST DUP1 DUP6 AND ISZERO PUSH2 0x1901 JUMPI SWAP2 DUP2 MUL SWAP2 JUMPDEST SWAP4 DUP5 SHR SWAP4 SWAP1 DUP1 MUL SWAP1 PUSH2 0x18D8 JUMP JUMPDEST POP SWAP3 POP SWAP3 SWAP1 POP JUMP JUMPDEST PUSH1 0x0 PUSH2 0x2E3 DUP4 DUP4 PUSH1 0x0 DUP3 PUSH2 0x192C JUMPI POP PUSH1 0x1 PUSH2 0x28D JUMP JUMPDEST DUP2 PUSH2 0x1939 JUMPI POP PUSH1 0x0 PUSH2 0x28D JUMP JUMPDEST DUP2 PUSH1 0x1 DUP2 EQ PUSH2 0x194F JUMPI PUSH1 0x2 DUP2 EQ PUSH2 0x1959 JUMPI PUSH2 0x1975 JUMP JUMPDEST PUSH1 0x1 SWAP2 POP POP PUSH2 0x28D JUMP JUMPDEST PUSH1 0xFF DUP5 GT ISZERO PUSH2 0x196A JUMPI PUSH2 0x196A PUSH2 0x1A3B JUMP JUMPDEST POP POP PUSH1 0x1 DUP3 SHL PUSH2 0x28D JUMP JUMPDEST POP PUSH1 0x20 DUP4 LT PUSH2 0x133 DUP4 LT AND PUSH1 0x4E DUP5 LT PUSH1 0xB DUP5 LT AND OR ISZERO PUSH2 0x1998 JUMPI POP DUP2 DUP2 EXP PUSH2 0x28D JUMP JUMPDEST PUSH2 0x19A2 DUP4 DUP4 PUSH2 0x18D3 JUMP JUMPDEST DUP1 PUSH1 0x0 NOT DIV DUP3 GT ISZERO PUSH2 0x19B6 JUMPI PUSH2 0x19B6 PUSH2 0x1A3B JUMP JUMPDEST MUL SWAP4 SWAP3 POP POP POP JUMP JUMPDEST PUSH1 0x0 DUP2 PUSH1 0x0 NOT DIV DUP4 GT DUP3 ISZERO ISZERO AND ISZERO PUSH2 0x19D8 JUMPI PUSH2 0x19D8 PUSH2 0x1A3B JUMP JUMPDEST POP MUL SWAP1 JUMP JUMPDEST PUSH1 0x0 DUP3 DUP3 LT ISZERO PUSH2 0x19EF JUMPI PUSH2 0x19EF PUSH2 0x1A3B JUMP JUMPDEST POP SUB SWAP1 JUMP JUMPDEST PUSH1 0x0 JUMPDEST DUP4 DUP2 LT ISZERO PUSH2 0x1A0F JUMPI DUP2 DUP2 ADD MLOAD DUP4 DUP3 ADD MSTORE PUSH1 0x20 ADD PUSH2 0x19F7 JUMP JUMPDEST DUP4 DUP2 GT ISZERO PUSH2 0x1A1E JUMPI PUSH1 0x0 DUP5 DUP5 ADD MSTORE JUMPDEST POP POP POP POP JUMP JUMPDEST PUSH1 0x0 DUP2 PUSH2 0x1A33 JUMPI PUSH2 0x1A33 PUSH2 0x1A3B JUMP JUMPDEST POP PUSH1 0x0 NOT ADD SWAP1 JUMP JUMPDEST PUSH4 0x4E487B71 PUSH1 0xE0 SHL PUSH1 0x0 MSTORE PUSH1 0x11 PUSH1 0x4 MSTORE PUSH1 0x24 PUSH1 0x0 REVERT INVALID MSTORE8 0xE8 SHL PUSH4 0x94F08081 PUSH4 0xBE38C3D2 0xFC 0x2C PUSH23 0x2DD7686D10FE6296ED6CBF8C0F3E8B1353E81B6394F080 DUP2 PUSH4 0xBE38C3D2 0xFC 0x2C PUSH23 0x2DD7686D10FE6296ED6CBF8C0F3E8B15A2646970667358 0x22 SLT KECCAK256 PUSH8 0x9BCD5F94827E6985 0xF8 SWAP8 0x5F CALLDATASIZE ISZERO DIV SWAP5 MLOAD DUP5 LOG3 0xDF PUSH19 0xA4DB5F7A0DC8FB9BA7323F64736F6C63430008 DIV STOP CALLER ","sha1":"32cf7b8da8ecdf5b61a67642d27b3673be6ad7e5","source":"//SPDX-License-Identifier: BUSL-1.1\npragma solidity ^0.8.2;\n\nimport \"../../libraries/core/LibExchange.sol\";\n\nimport \"../../interfaces/IHubLibraryEvents.sol\";\n\ncontract Exchange is IHubLibraryEvents {\n    function addXPerYPriceFeed(\n        bytes32 _keyX,\n        bytes32 _keyY,\n        address _priceFeed\n    ) external {\n        LibExchange._addXPerYPriceFeed(_keyX, _keyY, _priceFeed);\n    }\n\n    function deriveXPerYPriceFeed(\n        bytes32 _keyX,\n        bytes32 _keyY,\n        bytes32 _keyShared\n    ) external {\n        LibExchange._deriveXPerYPriceFeed(_keyX, _keyY, _keyShared);\n    }\n\n    function removeAddedXPerYPriceFeed(bytes32 _keyX, bytes32 _keyY) external {\n        LibExchange._removeAddedXPerYPriceFeed(_keyX, _keyY);\n    }\n\n    function removeDerivedXPerYPriceFeed(bytes32 _keyX, bytes32 _keyY)\n        external\n    {\n        LibExchange._removeDerivedXPerYPriceFeed(_keyX, _keyY);\n    }\n\n    function getAddedXPerYPriceFeed(bytes32 _keyX, bytes32 _keyY)\n        external\n        view\n        returns (address)\n    {\n        LibExchange._requireAddedXPerYPriceFeedSupported(_keyX, _keyY);\n        return\n            LibExchange._storageExchange().xToYToXAddedPerYPriceFeed[_keyX][\n                _keyY\n            ];\n    }\n\n    function getAddedXPerYPriceFeedValue(bytes32 _keyX, bytes32 _keyY)\n        external\n        view\n        returns (uint256)\n    {\n        LibExchange._requireAddedXPerYPriceFeedSupported(_keyX, _keyY);\n        return LibExchange._getAddedXPerYInWei(_keyX, _keyY);\n    }\n\n    function getDerivedXPerYPriceFeedDetails(bytes32 _keyX, bytes32 _keyY)\n        external\n        view\n        returns (LibExchange.DerivedPriceFeedDetails memory)\n    {\n        LibExchange._requireDerivedXPerYPriceFeedSupported(_keyX, _keyY);\n        return\n            LibExchange._storageExchange().xToYToXPerYDerivedPriceFeedDetails[\n                _keyX\n            ][_keyY];\n    }\n\n    function getDerivedXPerYPriceFeedValue(bytes32 _keyX, bytes32 _keyY)\n        external\n        view\n        returns (uint256)\n    {\n        LibExchange._requireDerivedXPerYPriceFeedSupported(_keyX, _keyY);\n        return LibExchange._getDerivedXPerYInWei(_keyX, _keyY);\n    }\n\n    function convertCurrency(\n        bytes32 _keyX,\n        bytes32 _keyY,\n        uint256 _amountX\n    ) external view returns (uint256) {\n        return LibExchange._convertCurrency(_keyX, _keyY, _amountX);\n    }\n}\n","sourcePath":"contracts/hub/facets/core/Exchange.sol","type":"contract","deployment":{"address":"0x2186Cfadcb0A91954d63F960551ab1D40279ABb0","chainid":"80001","blockHeight":26007127}}