{"abi":[{"anonymous":false,"inputs":[{"indexed":true,"internalType":"address","name":"sender","type":"address"},{"indexed":false,"internalType":"address","name":"priceFeed","type":"address"}],"name":"AddedPriceFeedRemoved","type":"event"},{"anonymous":false,"inputs":[{"indexed":true,"internalType":"address","name":"sender","type":"address"},{"indexed":false,"internalType":"address","name":"applicant","type":"address"}],"name":"ApplicantApproved","type":"event"},{"anonymous":false,"inputs":[{"indexed":true,"internalType":"address","name":"sender","type":"address"},{"indexed":false,"internalType":"bytes32","name":"key","type":"bytes32"}],"name":"CurrencyRegistered","type":"event"},{"anonymous":false,"inputs":[{"indexed":true,"internalType":"address","name":"sender","type":"address"},{"indexed":false,"internalType":"bytes32","name":"key","type":"bytes32"}],"name":"CurrencyRemoved","type":"event"},{"anonymous":false,"inputs":[{"indexed":true,"internalType":"address","name":"sender","type":"address"},{"indexed":false,"internalType":"bytes32","name":"keyX","type":"bytes32"},{"indexed":false,"internalType":"bytes32","name":"keyY","type":"bytes32"}],"name":"DerivedPriceFeedRemoved","type":"event"},{"anonymous":false,"inputs":[{"components":[{"internalType":"address","name":"facetAddress","type":"address"},{"internalType":"enum Cut.FacetCutAction","name":"action","type":"uint8"},{"internalType":"bytes4[]","name":"functionSelectors","type":"bytes4[]"}],"indexed":false,"internalType":"struct Cut.FacetCut[]","name":"_cut","type":"tuple[]"},{"indexed":false,"internalType":"address","name":"_init","type":"address"},{"indexed":false,"internalType":"bytes","name":"_calldata","type":"bytes"}],"name":"DiamondCut","type":"event"},{"anonymous":false,"inputs":[{"indexed":true,"internalType":"address","name":"sender","type":"address"},{"indexed":false,"internalType":"uint256","name":"fee","type":"uint256"}],"name":"FeeSetBase","type":"event"},{"anonymous":false,"inputs":[{"indexed":true,"internalType":"address","name":"sender","type":"address"},{"indexed":false,"internalType":"uint256","name":"fee","type":"uint256"}],"name":"FeeSetCancellation","type":"event"},{"anonymous":false,"inputs":[{"indexed":true,"internalType":"address","name":"sender","type":"address"},{"indexed":false,"internalType":"uint256","name":"fee","type":"uint256"}],"name":"FeeSetCostPerMetre","type":"event"},{"anonymous":false,"inputs":[{"indexed":true,"internalType":"address","name":"sender","type":"address"},{"indexed":false,"internalType":"uint256","name":"fee","type":"uint256"}],"name":"FeeSetCostPerMinute","type":"event"},{"anonymous":false,"inputs":[{"indexed":true,"internalType":"address","name":"sender","type":"address"},{"indexed":false,"internalType":"bytes32","name":"key","type":"bytes32"},{"indexed":false,"internalType":"uint256","name":"amount","type":"uint256"}],"name":"FundsLocked","type":"event"},{"anonymous":false,"inputs":[{"indexed":true,"internalType":"address","name":"sender","type":"address"},{"indexed":false,"internalType":"address","name":"decrease","type":"address"},{"indexed":false,"internalType":"address","name":"increase","type":"address"},{"indexed":false,"internalType":"bytes32","name":"key","type":"bytes32"},{"indexed":false,"internalType":"uint256","name":"amount","type":"uint256"}],"name":"FundsUnlocked","type":"event"},{"anonymous":false,"inputs":[{"indexed":true,"internalType":"address","name":"sender","type":"address"},{"indexed":false,"internalType":"uint256","name":"count","type":"uint256"}],"name":"HiveCreationCountSet","type":"event"},{"anonymous":false,"inputs":[{"indexed":true,"internalType":"address","name":"sender","type":"address"},{"indexed":false,"internalType":"uint256","name":"duration","type":"uint256"}],"name":"HiveDisputeDurationSet","type":"event"},{"anonymous":false,"inputs":[{"indexed":true,"internalType":"address","name":"sender","type":"address"},{"indexed":true,"internalType":"bytes32","name":"jobId","type":"bytes32"}],"name":"JobCleared","type":"event"},{"anonymous":false,"inputs":[{"indexed":true,"internalType":"address","name":"sender","type":"address"},{"indexed":false,"internalType":"uint256","name":"duration","type":"uint256"}],"name":"JobLifespanSet","type":"event"},{"anonymous":false,"inputs":[{"indexed":true,"internalType":"address","name":"sender","type":"address"},{"indexed":false,"internalType":"uint256","name":"duration","type":"uint256"}],"name":"MinDisputeDurationSet","type":"event"},{"anonymous":false,"inputs":[{"indexed":true,"internalType":"address","name":"sender","type":"address"},{"indexed":false,"internalType":"address","name":"token","type":"address"}],"name":"NativeTokenSet","type":"event"},{"anonymous":false,"inputs":[{"indexed":true,"internalType":"address","name":"sender","type":"address"},{"indexed":false,"internalType":"bytes32","name":"keyX","type":"bytes32"},{"indexed":false,"internalType":"bytes32","name":"keyY","type":"bytes32"},{"indexed":false,"internalType":"address","name":"priceFeed","type":"address"}],"name":"PriceFeedAdded","type":"event"},{"anonymous":false,"inputs":[{"indexed":true,"internalType":"address","name":"sender","type":"address"},{"indexed":false,"internalType":"bytes32","name":"keyX","type":"bytes32"},{"indexed":false,"internalType":"bytes32","name":"keyY","type":"bytes32"},{"indexed":false,"internalType":"bytes32","name":"keyShared","type":"bytes32"}],"name":"PriceFeedDerived","type":"event"},{"anonymous":false,"inputs":[{"indexed":true,"internalType":"address","name":"sender","type":"address"},{"indexed":false,"internalType":"uint256","name":"rating","type":"uint256"}],"name":"RatingGiven","type":"event"},{"anonymous":false,"inputs":[{"indexed":true,"internalType":"bytes32","name":"role","type":"bytes32"},{"indexed":true,"internalType":"bytes32","name":"previousAdminRole","type":"bytes32"},{"indexed":true,"internalType":"bytes32","name":"newAdminRole","type":"bytes32"}],"name":"RoleAdminChanged","type":"event"},{"anonymous":false,"inputs":[{"indexed":true,"internalType":"bytes32","name":"role","type":"bytes32"},{"indexed":true,"internalType":"address","name":"account","type":"address"},{"indexed":true,"internalType":"address","name":"sender","type":"address"}],"name":"RoleGranted","type":"event"},{"anonymous":false,"inputs":[{"indexed":true,"internalType":"bytes32","name":"role","type":"bytes32"},{"indexed":true,"internalType":"address","name":"account","type":"address"},{"indexed":true,"internalType":"address","name":"sender","type":"address"}],"name":"RoleRevoked","type":"event"},{"anonymous":false,"inputs":[{"indexed":true,"internalType":"address","name":"sender","type":"address"},{"indexed":false,"internalType":"uint256","name":"min","type":"uint256"},{"indexed":false,"internalType":"uint256","name":"max","type":"uint256"}],"name":"SetRatingBounds","type":"event"},{"anonymous":false,"inputs":[{"indexed":true,"internalType":"address","name":"sender","type":"address"},{"indexed":false,"internalType":"address","name":"user","type":"address"},{"indexed":false,"internalType":"uint256","name":"banDuration","type":"uint256"}],"name":"UserBanned","type":"event"},{"inputs":[{"internalType":"address","name":"_hive","type":"address"},{"internalType":"bytes32","name":"_key","type":"bytes32"}],"name":"getBaseFee","outputs":[{"internalType":"uint256","name":"","type":"uint256"}],"stateMutability":"view","type":"function"},{"inputs":[{"internalType":"address","name":"_hive","type":"address"},{"internalType":"bytes32","name":"_key","type":"bytes32"}],"name":"getCancellationFee","outputs":[{"internalType":"uint256","name":"","type":"uint256"}],"stateMutability":"view","type":"function"},{"inputs":[{"internalType":"address","name":"_hive","type":"address"},{"internalType":"bytes32","name":"_key","type":"bytes32"}],"name":"getCostPerMetre","outputs":[{"internalType":"uint256","name":"","type":"uint256"}],"stateMutability":"view","type":"function"},{"inputs":[{"internalType":"address","name":"_hive","type":"address"},{"internalType":"bytes32","name":"_key","type":"bytes32"}],"name":"getCostPerMinute","outputs":[{"internalType":"uint256","name":"","type":"uint256"}],"stateMutability":"view","type":"function"},{"inputs":[{"internalType":"address","name":"_hive","type":"address"},{"internalType":"bytes32","name":"_key","type":"bytes32"},{"internalType":"uint256","name":"_minutesTaken","type":"uint256"},{"internalType":"uint256","name":"_metresTravelled","type":"uint256"}],"name":"getValue","outputs":[{"internalType":"uint256","name":"","type":"uint256"}],"stateMutability":"view","type":"function"},{"inputs":[{"internalType":"bytes32","name":"_key","type":"bytes32"},{"internalType":"uint256","name":"_baseFee","type":"uint256"}],"name":"setBaseFee","outputs":[],"stateMutability":"nonpayable","type":"function"},{"inputs":[{"internalType":"bytes32","name":"_key","type":"bytes32"},{"internalType":"uint256","name":"_cancellationFee","type":"uint256"}],"name":"setCancellationFee","outputs":[],"stateMutability":"nonpayable","type":"function"},{"inputs":[{"internalType":"bytes32","name":"_key","type":"bytes32"},{"internalType":"uint256","name":"_costPerMetre","type":"uint256"}],"name":"setCostPerMetre","outputs":[],"stateMutability":"nonpayable","type":"function"},{"inputs":[{"internalType":"bytes32","name":"_key","type":"bytes32"},{"internalType":"uint256","name":"_costPerMinute","type":"uint256"}],"name":"setCostPerMinute","outputs":[],"stateMutability":"nonpayable","type":"function"}],"bytecode":"608060405234801561001057600080fd5b50610b8a806100206000396000f3fe608060405234801561001057600080fd5b50600436106100935760003560e01c8063d2cf2fc011610066578063d2cf2fc0146100f8578063d87225bc1461010b578063da11e23a1461011e578063f7baf14614610131578063fb58f06f1461014457600080fd5b806327111e32146100985780638866778f146100ad578063b1e51a68146100c0578063ce9ed5a7146100d3575b600080fd5b6100ab6100a63660046109d4565b610157565b005b6100ab6100bb3660046109d4565b610165565b6100ab6100ce3660046109d4565b61016f565b6100e66100e1366004610973565b610179565b60405190815260200160405180910390f35b6100e6610106366004610973565b61018c565b6100e661011936600461099c565b6101df565b6100e661012c366004610973565b6101f6565b6100e661013f366004610973565b610249565b6100ab6101523660046109d4565b61029c565b61016182826102a6565b5050565b610161828261034e565b61016182826103d3565b60006101858383610458565b9392505050565b6000610197826104ab565b506001600160a01b039190911660009081527fbdcf11f75b7e8769a7ce2ae001dce0286f180944b0ee519b011a074601f6acca60209081526040808320938352929052205490565b60006101ed85858585610544565b95945050505050565b6000610201826104ab565b506001600160a01b039190911660009081527fbdcf11f75b7e8769a7ce2ae001dce0286f180944b0ee519b011a074601f6accb60209081526040808320938352929052205490565b6000610254826104ab565b506001600160a01b039190911660009081527fbdcf11f75b7e8769a7ce2ae001dce0286f180944b0ee519b011a074601f6acc960209081526040808320938352929052205490565b610161828261064f565b6102d36040516020016102b890610a9d565b604051602081830303815290604052805190602001206106d4565b6102dc826104ab565b3360008181527fbdcf11f75b7e8769a7ce2ae001dce0286f180944b0ee519b011a074601f6accb6020908152604080832086845282529182902084905590518381527fd523c3c0c6cb551348f2d1133e5b4f2ccb681caad00271f4c0f9108363b5b70191015b60405180910390a25050565b6103606040516020016102b890610a9d565b610369826104ab565b3360008181527fbdcf11f75b7e8769a7ce2ae001dce0286f180944b0ee519b011a074601f6acc96020908152604080832086845282529182902084905590518381527fbd99da2012d87a9ef6d76953ea9d2091bf067afbfef97b2570fbd2c9d9e518489101610342565b6103e56040516020016102b890610a9d565b6103ee826104ab565b3360008181527fbdcf11f75b7e8769a7ce2ae001dce0286f180944b0ee519b011a074601f6acca6020908152604080832086845282529182902084905590518381527fc33fa1058545648f81f653349dcccfcd09c271e2ab31e47d00121b5c3cf256bc9101610342565b6000610463826104ab565b506001600160a01b039190911660009081527fbdcf11f75b7e8769a7ce2ae001dce0286f180944b0ee519b011a074601f6acc860209081526040808320938352929052205490565b60008181527f61c2c7cf5017a0ead7aef00d9e35505290722fe92da9eca2feee8f02980bf565602052604090205460ff166105415760405162461bcd60e51b815260206004820152602b60248201527f4c696243757272656e637952656769737472793a2043757272656e6379206e6f60448201526a1d081cdd5c1c1bdc9d195960aa1b60648201526084015b60405180910390fd5b50565b600061054f846104ab565b6001600160a01b03851660008181527fbdcf11f75b7e8769a7ce2ae001dce0286f180944b0ee519b011a074601f6acc9602090815260408083208884528252808320548484527fbdcf11f75b7e8769a7ce2ae001dce0286f180944b0ee519b011a074601f6acca83528184208985528352818420549484527fbdcf11f75b7e8769a7ce2ae001dce0286f180944b0ee519b011a074601f6accb8352818420898552909252909120547fbdcf11f75b7e8769a7ce2ae001dce0286f180944b0ee519b011a074601f6acc892906106248682610ad8565b61062e8884610ad8565b6106389085610ac0565b6106429190610ac0565b9998505050505050505050565b6106616040516020016102b890610a9d565b61066a826104ab565b3360008181527fbdcf11f75b7e8769a7ce2ae001dce0286f180944b0ee519b011a074601f6acc86020908152604080832086845282529182902084905590518381527f2304af05fdb1d8797947646c4ec17747131452cd19ac5517dd37eae756a23e759101610342565b60008181527f4cd15452b25e815d3f9d1a3c7edd985a178edf5eb3461a1acbf855517423d69460209081526040808320338085529252909120546105419183918391839160ff1661016157610733816001600160a01b03166014610775565b61073e836020610775565b60405160200161074f9291906109f5565b60408051601f198184030181529082905262461bcd60e51b825261053891600401610a6a565b60606000610784836002610ad8565b61078f906002610ac0565b67ffffffffffffffff8111156107b557634e487b7160e01b600052604160045260246000fd5b6040519080825280601f01601f1916602001820160405280156107df576020820181803683370190505b509050600360fc1b8160008151811061080857634e487b7160e01b600052603260045260246000fd5b60200101906001600160f81b031916908160001a905350600f60fb1b8160018151811061084557634e487b7160e01b600052603260045260246000fd5b60200101906001600160f81b031916908160001a9053506000610869846002610ad8565b610874906001610ac0565b90505b6001811115610908576f181899199a1a9b1b9c1cb0b131b232b360811b85600f16601081106108b657634e487b7160e01b600052603260045260246000fd5b1a60f81b8282815181106108da57634e487b7160e01b600052603260045260246000fd5b60200101906001600160f81b031916908160001a90535060049490941c9361090181610b27565b9050610877565b5083156101855760405162461bcd60e51b815260206004820181905260248201527f537472696e67733a20686578206c656e67746820696e73756666696369656e746044820152606401610538565b80356001600160a01b038116811461096e57600080fd5b919050565b60008060408385031215610985578182fd5b61098e83610957565b946020939093013593505050565b600080600080608085870312156109b1578182fd5b6109ba85610957565b966020860135965060408601359560600135945092505050565b600080604083850312156109e6578182fd5b50508035926020909101359150565b7f416363657373436f6e74726f6c3a206163636f756e7420000000000000000000815260008351610a2d816017850160208801610af7565b7001034b99036b4b9b9b4b733903937b6329607d1b6017918401918201528351610a5e816028840160208801610af7565b01602801949350505050565b6020815260008251806020840152610a89816040850160208701610af7565b601f01601f19169190910160400192915050565b602080825260099082015268484956455f524f4c4560b81b604082015260600190565b60008219821115610ad357610ad3610b3e565b500190565b6000816000190483118215151615610af257610af2610b3e565b500290565b60005b83811015610b12578181015183820152602001610afa565b83811115610b21576000848401525b50505050565b600081610b3657610b36610b3e565b506000190190565b634e487b7160e01b600052601160045260246000fdfea26469706673582212207c4391d75d5237f583d7659c6f8fb4a48a2864f1b024cdc242539e74fc2d8f3364736f6c63430008040033","bytecodeSha1":"9b126fe68d6f7336193991844a51707c615c7f01","compiler":{"evm_version":"istanbul","optimizer":{"enabled":true,"runs":200},"version":"0.8.4+commit.c7e474f2"},"contractName":"Fee","language":"Solidity","natspec":{"kind":"dev","methods":{"setBaseFee(bytes32,uint256)":{"notice":"setBaseFee sets base fee","params":{"_baseFee":"| unit in token","_key":"| currency key"}},"setCancellationFee(bytes32,uint256)":{"notice":"setCancellationFee sets cancellation fee","params":{"_cancellationFee":"| unit in token","_key":"| currency key"}},"setCostPerMetre(bytes32,uint256)":{"notice":"setCostPerMetre sets cost per metre","params":{"_costPerMetre":"| unit in token","_key":"| currency key"}},"setCostPerMinute(bytes32,uint256)":{"notice":"setCostPerMinute sets cost per minute","params":{"_costPerMinute":"| unit in token","_key":"| currency key"}}},"version":1},"opcodes":"PUSH1 0x80 PUSH1 0x40 MSTORE CALLVALUE DUP1 ISZERO PUSH2 0x10 JUMPI PUSH1 0x0 DUP1 REVERT JUMPDEST POP PUSH1 0x4 CALLDATASIZE LT PUSH2 0x93 JUMPI PUSH1 0x0 CALLDATALOAD PUSH1 0xE0 SHR DUP1 PUSH4 0xD2CF2FC0 GT PUSH2 0x66 JUMPI DUP1 PUSH4 0xD2CF2FC0 EQ PUSH2 0xF8 JUMPI DUP1 PUSH4 0xD87225BC EQ PUSH2 0x10B JUMPI DUP1 PUSH4 0xDA11E23A EQ PUSH2 0x11E JUMPI DUP1 PUSH4 0xF7BAF146 EQ PUSH2 0x131 JUMPI DUP1 PUSH4 0xFB58F06F EQ PUSH2 0x144 JUMPI PUSH1 0x0 DUP1 REVERT JUMPDEST DUP1 PUSH4 0x27111E32 EQ PUSH2 0x98 JUMPI DUP1 PUSH4 0x8866778F EQ PUSH2 0xAD JUMPI DUP1 PUSH4 0xB1E51A68 EQ PUSH2 0xC0 JUMPI DUP1 PUSH4 0xCE9ED5A7 EQ PUSH2 0xD3 JUMPI JUMPDEST PUSH1 0x0 DUP1 REVERT JUMPDEST PUSH2 0xAB PUSH2 0xA6 CALLDATASIZE PUSH1 0x4 PUSH2 0x9D4 JUMP JUMPDEST PUSH2 0x157 JUMP JUMPDEST STOP JUMPDEST PUSH2 0xAB PUSH2 0xBB CALLDATASIZE PUSH1 0x4 PUSH2 0x9D4 JUMP JUMPDEST PUSH2 0x165 JUMP JUMPDEST PUSH2 0xAB PUSH2 0xCE CALLDATASIZE PUSH1 0x4 PUSH2 0x9D4 JUMP JUMPDEST PUSH2 0x16F JUMP JUMPDEST PUSH2 0xE6 PUSH2 0xE1 CALLDATASIZE PUSH1 0x4 PUSH2 0x973 JUMP JUMPDEST PUSH2 0x179 JUMP JUMPDEST PUSH1 0x40 MLOAD SWAP1 DUP2 MSTORE PUSH1 0x20 ADD PUSH1 0x40 MLOAD DUP1 SWAP2 SUB SWAP1 RETURN JUMPDEST PUSH2 0xE6 PUSH2 0x106 CALLDATASIZE PUSH1 0x4 PUSH2 0x973 JUMP JUMPDEST PUSH2 0x18C JUMP JUMPDEST PUSH2 0xE6 PUSH2 0x119 CALLDATASIZE PUSH1 0x4 PUSH2 0x99C JUMP JUMPDEST PUSH2 0x1DF JUMP JUMPDEST PUSH2 0xE6 PUSH2 0x12C CALLDATASIZE PUSH1 0x4 PUSH2 0x973 JUMP JUMPDEST PUSH2 0x1F6 JUMP JUMPDEST PUSH2 0xE6 PUSH2 0x13F CALLDATASIZE PUSH1 0x4 PUSH2 0x973 JUMP JUMPDEST PUSH2 0x249 JUMP JUMPDEST PUSH2 0xAB PUSH2 0x152 CALLDATASIZE PUSH1 0x4 PUSH2 0x9D4 JUMP JUMPDEST PUSH2 0x29C JUMP JUMPDEST PUSH2 0x161 DUP3 DUP3 PUSH2 0x2A6 JUMP JUMPDEST POP POP JUMP JUMPDEST PUSH2 0x161 DUP3 DUP3 PUSH2 0x34E JUMP JUMPDEST PUSH2 0x161 DUP3 DUP3 PUSH2 0x3D3 JUMP JUMPDEST PUSH1 0x0 PUSH2 0x185 DUP4 DUP4 PUSH2 0x458 JUMP JUMPDEST SWAP4 SWAP3 POP POP POP JUMP JUMPDEST PUSH1 0x0 PUSH2 0x197 DUP3 PUSH2 0x4AB JUMP JUMPDEST POP PUSH1 0x1 PUSH1 0x1 PUSH1 0xA0 SHL SUB SWAP2 SWAP1 SWAP2 AND PUSH1 0x0 SWAP1 DUP2 MSTORE PUSH32 0xBDCF11F75B7E8769A7CE2AE001DCE0286F180944B0EE519B011A074601F6ACCA PUSH1 0x20 SWAP1 DUP2 MSTORE PUSH1 0x40 DUP1 DUP4 KECCAK256 SWAP4 DUP4 MSTORE SWAP3 SWAP1 MSTORE KECCAK256 SLOAD SWAP1 JUMP JUMPDEST PUSH1 0x0 PUSH2 0x1ED DUP6 DUP6 DUP6 DUP6 PUSH2 0x544 JUMP JUMPDEST SWAP6 SWAP5 POP POP POP POP POP JUMP JUMPDEST PUSH1 0x0 PUSH2 0x201 DUP3 PUSH2 0x4AB JUMP JUMPDEST POP PUSH1 0x1 PUSH1 0x1 PUSH1 0xA0 SHL SUB SWAP2 SWAP1 SWAP2 AND PUSH1 0x0 SWAP1 DUP2 MSTORE PUSH32 0xBDCF11F75B7E8769A7CE2AE001DCE0286F180944B0EE519B011A074601F6ACCB PUSH1 0x20 SWAP1 DUP2 MSTORE PUSH1 0x40 DUP1 DUP4 KECCAK256 SWAP4 DUP4 MSTORE SWAP3 SWAP1 MSTORE KECCAK256 SLOAD SWAP1 JUMP JUMPDEST PUSH1 0x0 PUSH2 0x254 DUP3 PUSH2 0x4AB JUMP JUMPDEST POP PUSH1 0x1 PUSH1 0x1 PUSH1 0xA0 SHL SUB SWAP2 SWAP1 SWAP2 AND PUSH1 0x0 SWAP1 DUP2 MSTORE PUSH32 0xBDCF11F75B7E8769A7CE2AE001DCE0286F180944B0EE519B011A074601F6ACC9 PUSH1 0x20 SWAP1 DUP2 MSTORE PUSH1 0x40 DUP1 DUP4 KECCAK256 SWAP4 DUP4 MSTORE SWAP3 SWAP1 MSTORE KECCAK256 SLOAD SWAP1 JUMP JUMPDEST PUSH2 0x161 DUP3 DUP3 PUSH2 0x64F JUMP JUMPDEST PUSH2 0x2D3 PUSH1 0x40 MLOAD PUSH1 0x20 ADD PUSH2 0x2B8 SWAP1 PUSH2 0xA9D JUMP JUMPDEST PUSH1 0x40 MLOAD PUSH1 0x20 DUP2 DUP4 SUB SUB DUP2 MSTORE SWAP1 PUSH1 0x40 MSTORE DUP1 MLOAD SWAP1 PUSH1 0x20 ADD KECCAK256 PUSH2 0x6D4 JUMP JUMPDEST PUSH2 0x2DC DUP3 PUSH2 0x4AB JUMP JUMPDEST CALLER PUSH1 0x0 DUP2 DUP2 MSTORE PUSH32 0xBDCF11F75B7E8769A7CE2AE001DCE0286F180944B0EE519B011A074601F6ACCB PUSH1 0x20 SWAP1 DUP2 MSTORE PUSH1 0x40 DUP1 DUP4 KECCAK256 DUP7 DUP5 MSTORE DUP3 MSTORE SWAP2 DUP3 SWAP1 KECCAK256 DUP5 SWAP1 SSTORE SWAP1 MLOAD DUP4 DUP2 MSTORE PUSH32 0xD523C3C0C6CB551348F2D1133E5B4F2CCB681CAAD00271F4C0F9108363B5B701 SWAP2 ADD JUMPDEST PUSH1 0x40 MLOAD DUP1 SWAP2 SUB SWAP1 LOG2 POP POP JUMP JUMPDEST PUSH2 0x360 PUSH1 0x40 MLOAD PUSH1 0x20 ADD PUSH2 0x2B8 SWAP1 PUSH2 0xA9D JUMP JUMPDEST PUSH2 0x369 DUP3 PUSH2 0x4AB JUMP JUMPDEST CALLER PUSH1 0x0 DUP2 DUP2 MSTORE PUSH32 0xBDCF11F75B7E8769A7CE2AE001DCE0286F180944B0EE519B011A074601F6ACC9 PUSH1 0x20 SWAP1 DUP2 MSTORE PUSH1 0x40 DUP1 DUP4 KECCAK256 DUP7 DUP5 MSTORE DUP3 MSTORE SWAP2 DUP3 SWAP1 KECCAK256 DUP5 SWAP1 SSTORE SWAP1 MLOAD DUP4 DUP2 MSTORE PUSH32 0xBD99DA2012D87A9EF6D76953EA9D2091BF067AFBFEF97B2570FBD2C9D9E51848 SWAP2 ADD PUSH2 0x342 JUMP JUMPDEST PUSH2 0x3E5 PUSH1 0x40 MLOAD PUSH1 0x20 ADD PUSH2 0x2B8 SWAP1 PUSH2 0xA9D JUMP JUMPDEST PUSH2 0x3EE DUP3 PUSH2 0x4AB JUMP JUMPDEST CALLER PUSH1 0x0 DUP2 DUP2 MSTORE PUSH32 0xBDCF11F75B7E8769A7CE2AE001DCE0286F180944B0EE519B011A074601F6ACCA PUSH1 0x20 SWAP1 DUP2 MSTORE PUSH1 0x40 DUP1 DUP4 KECCAK256 DUP7 DUP5 MSTORE DUP3 MSTORE SWAP2 DUP3 SWAP1 KECCAK256 DUP5 SWAP1 SSTORE SWAP1 MLOAD DUP4 DUP2 MSTORE PUSH32 0xC33FA1058545648F81F653349DCCCFCD09C271E2AB31E47D00121B5C3CF256BC SWAP2 ADD PUSH2 0x342 JUMP JUMPDEST PUSH1 0x0 PUSH2 0x463 DUP3 PUSH2 0x4AB JUMP JUMPDEST POP PUSH1 0x1 PUSH1 0x1 PUSH1 0xA0 SHL SUB SWAP2 SWAP1 SWAP2 AND PUSH1 0x0 SWAP1 DUP2 MSTORE PUSH32 0xBDCF11F75B7E8769A7CE2AE001DCE0286F180944B0EE519B011A074601F6ACC8 PUSH1 0x20 SWAP1 DUP2 MSTORE PUSH1 0x40 DUP1 DUP4 KECCAK256 SWAP4 DUP4 MSTORE SWAP3 SWAP1 MSTORE KECCAK256 SLOAD SWAP1 JUMP JUMPDEST PUSH1 0x0 DUP2 DUP2 MSTORE PUSH32 0x61C2C7CF5017A0EAD7AEF00D9E35505290722FE92DA9ECA2FEEE8F02980BF565 PUSH1 0x20 MSTORE PUSH1 0x40 SWAP1 KECCAK256 SLOAD PUSH1 0xFF AND PUSH2 0x541 JUMPI PUSH1 0x40 MLOAD PUSH3 0x461BCD PUSH1 0xE5 SHL DUP2 MSTORE PUSH1 0x20 PUSH1 0x4 DUP3 ADD MSTORE PUSH1 0x2B PUSH1 0x24 DUP3 ADD MSTORE PUSH32 0x4C696243757272656E637952656769737472793A2043757272656E6379206E6F PUSH1 0x44 DUP3 ADD MSTORE PUSH11 0x1D081CDD5C1C1BDC9D1959 PUSH1 0xAA SHL PUSH1 0x64 DUP3 ADD MSTORE PUSH1 0x84 ADD JUMPDEST PUSH1 0x40 MLOAD DUP1 SWAP2 SUB SWAP1 REVERT JUMPDEST POP JUMP JUMPDEST PUSH1 0x0 PUSH2 0x54F DUP5 PUSH2 0x4AB JUMP JUMPDEST PUSH1 0x1 PUSH1 0x1 PUSH1 0xA0 SHL SUB DUP6 AND PUSH1 0x0 DUP2 DUP2 MSTORE PUSH32 0xBDCF11F75B7E8769A7CE2AE001DCE0286F180944B0EE519B011A074601F6ACC9 PUSH1 0x20 SWAP1 DUP2 MSTORE PUSH1 0x40 DUP1 DUP4 KECCAK256 DUP9 DUP5 MSTORE DUP3 MSTORE DUP1 DUP4 KECCAK256 SLOAD DUP5 DUP5 MSTORE PUSH32 0xBDCF11F75B7E8769A7CE2AE001DCE0286F180944B0EE519B011A074601F6ACCA DUP4 MSTORE DUP2 DUP5 KECCAK256 DUP10 DUP6 MSTORE DUP4 MSTORE DUP2 DUP5 KECCAK256 SLOAD SWAP5 DUP5 MSTORE PUSH32 0xBDCF11F75B7E8769A7CE2AE001DCE0286F180944B0EE519B011A074601F6ACCB DUP4 MSTORE DUP2 DUP5 KECCAK256 DUP10 DUP6 MSTORE SWAP1 SWAP3 MSTORE SWAP1 SWAP2 KECCAK256 SLOAD PUSH32 0xBDCF11F75B7E8769A7CE2AE001DCE0286F180944B0EE519B011A074601F6ACC8 SWAP3 SWAP1 PUSH2 0x624 DUP7 DUP3 PUSH2 0xAD8 JUMP JUMPDEST PUSH2 0x62E DUP9 DUP5 PUSH2 0xAD8 JUMP JUMPDEST PUSH2 0x638 SWAP1 DUP6 PUSH2 0xAC0 JUMP JUMPDEST PUSH2 0x642 SWAP2 SWAP1 PUSH2 0xAC0 JUMP JUMPDEST SWAP10 SWAP9 POP POP POP POP POP POP POP POP POP JUMP JUMPDEST PUSH2 0x661 PUSH1 0x40 MLOAD PUSH1 0x20 ADD PUSH2 0x2B8 SWAP1 PUSH2 0xA9D JUMP JUMPDEST PUSH2 0x66A DUP3 PUSH2 0x4AB JUMP JUMPDEST CALLER PUSH1 0x0 DUP2 DUP2 MSTORE PUSH32 0xBDCF11F75B7E8769A7CE2AE001DCE0286F180944B0EE519B011A074601F6ACC8 PUSH1 0x20 SWAP1 DUP2 MSTORE PUSH1 0x40 DUP1 DUP4 KECCAK256 DUP7 DUP5 MSTORE DUP3 MSTORE SWAP2 DUP3 SWAP1 KECCAK256 DUP5 SWAP1 SSTORE SWAP1 MLOAD DUP4 DUP2 MSTORE PUSH32 0x2304AF05FDB1D8797947646C4EC17747131452CD19AC5517DD37EAE756A23E75 SWAP2 ADD PUSH2 0x342 JUMP JUMPDEST PUSH1 0x0 DUP2 DUP2 MSTORE PUSH32 0x4CD15452B25E815D3F9D1A3C7EDD985A178EDF5EB3461A1ACBF855517423D694 PUSH1 0x20 SWAP1 DUP2 MSTORE PUSH1 0x40 DUP1 DUP4 KECCAK256 CALLER DUP1 DUP6 MSTORE SWAP3 MSTORE SWAP1 SWAP2 KECCAK256 SLOAD PUSH2 0x541 SWAP2 DUP4 SWAP2 DUP4 SWAP2 DUP4 SWAP2 PUSH1 0xFF AND PUSH2 0x161 JUMPI PUSH2 0x733 DUP2 PUSH1 0x1 PUSH1 0x1 PUSH1 0xA0 SHL SUB AND PUSH1 0x14 PUSH2 0x775 JUMP JUMPDEST PUSH2 0x73E DUP4 PUSH1 0x20 PUSH2 0x775 JUMP JUMPDEST PUSH1 0x40 MLOAD PUSH1 0x20 ADD PUSH2 0x74F SWAP3 SWAP2 SWAP1 PUSH2 0x9F5 JUMP JUMPDEST PUSH1 0x40 DUP1 MLOAD PUSH1 0x1F NOT DUP2 DUP5 SUB ADD DUP2 MSTORE SWAP1 DUP3 SWAP1 MSTORE PUSH3 0x461BCD PUSH1 0xE5 SHL DUP3 MSTORE PUSH2 0x538 SWAP2 PUSH1 0x4 ADD PUSH2 0xA6A JUMP JUMPDEST PUSH1 0x60 PUSH1 0x0 PUSH2 0x784 DUP4 PUSH1 0x2 PUSH2 0xAD8 JUMP JUMPDEST PUSH2 0x78F SWAP1 PUSH1 0x2 PUSH2 0xAC0 JUMP JUMPDEST PUSH8 0xFFFFFFFFFFFFFFFF DUP2 GT ISZERO PUSH2 0x7B5 JUMPI PUSH4 0x4E487B71 PUSH1 0xE0 SHL PUSH1 0x0 MSTORE PUSH1 0x41 PUSH1 0x4 MSTORE PUSH1 0x24 PUSH1 0x0 REVERT JUMPDEST PUSH1 0x40 MLOAD SWAP1 DUP1 DUP3 MSTORE DUP1 PUSH1 0x1F ADD PUSH1 0x1F NOT AND PUSH1 0x20 ADD DUP3 ADD PUSH1 0x40 MSTORE DUP1 ISZERO PUSH2 0x7DF JUMPI PUSH1 0x20 DUP3 ADD DUP2 DUP1 CALLDATASIZE DUP4 CALLDATACOPY ADD SWAP1 POP JUMPDEST POP SWAP1 POP PUSH1 0x3 PUSH1 0xFC SHL DUP2 PUSH1 0x0 DUP2 MLOAD DUP2 LT PUSH2 0x808 JUMPI PUSH4 0x4E487B71 PUSH1 0xE0 SHL PUSH1 0x0 MSTORE PUSH1 0x32 PUSH1 0x4 MSTORE PUSH1 0x24 PUSH1 0x0 REVERT JUMPDEST PUSH1 0x20 ADD ADD SWAP1 PUSH1 0x1 PUSH1 0x1 PUSH1 0xF8 SHL SUB NOT AND SWAP1 DUP2 PUSH1 0x0 BYTE SWAP1 MSTORE8 POP PUSH1 0xF PUSH1 0xFB SHL DUP2 PUSH1 0x1 DUP2 MLOAD DUP2 LT PUSH2 0x845 JUMPI PUSH4 0x4E487B71 PUSH1 0xE0 SHL PUSH1 0x0 MSTORE PUSH1 0x32 PUSH1 0x4 MSTORE PUSH1 0x24 PUSH1 0x0 REVERT JUMPDEST PUSH1 0x20 ADD ADD SWAP1 PUSH1 0x1 PUSH1 0x1 PUSH1 0xF8 SHL SUB NOT AND SWAP1 DUP2 PUSH1 0x0 BYTE SWAP1 MSTORE8 POP PUSH1 0x0 PUSH2 0x869 DUP5 PUSH1 0x2 PUSH2 0xAD8 JUMP JUMPDEST PUSH2 0x874 SWAP1 PUSH1 0x1 PUSH2 0xAC0 JUMP JUMPDEST SWAP1 POP JUMPDEST PUSH1 0x1 DUP2 GT ISZERO PUSH2 0x908 JUMPI PUSH16 0x181899199A1A9B1B9C1CB0B131B232B3 PUSH1 0x81 SHL DUP6 PUSH1 0xF AND PUSH1 0x10 DUP2 LT PUSH2 0x8B6 JUMPI PUSH4 0x4E487B71 PUSH1 0xE0 SHL PUSH1 0x0 MSTORE PUSH1 0x32 PUSH1 0x4 MSTORE PUSH1 0x24 PUSH1 0x0 REVERT JUMPDEST BYTE PUSH1 0xF8 SHL DUP3 DUP3 DUP2 MLOAD DUP2 LT PUSH2 0x8DA JUMPI PUSH4 0x4E487B71 PUSH1 0xE0 SHL PUSH1 0x0 MSTORE PUSH1 0x32 PUSH1 0x4 MSTORE PUSH1 0x24 PUSH1 0x0 REVERT JUMPDEST PUSH1 0x20 ADD ADD SWAP1 PUSH1 0x1 PUSH1 0x1 PUSH1 0xF8 SHL SUB NOT AND SWAP1 DUP2 PUSH1 0x0 BYTE SWAP1 MSTORE8 POP PUSH1 0x4 SWAP5 SWAP1 SWAP5 SHR SWAP4 PUSH2 0x901 DUP2 PUSH2 0xB27 JUMP JUMPDEST SWAP1 POP PUSH2 0x877 JUMP JUMPDEST POP DUP4 ISZERO PUSH2 0x185 JUMPI PUSH1 0x40 MLOAD PUSH3 0x461BCD PUSH1 0xE5 SHL DUP2 MSTORE PUSH1 0x20 PUSH1 0x4 DUP3 ADD DUP2 SWAP1 MSTORE PUSH1 0x24 DUP3 ADD MSTORE PUSH32 0x537472696E67733A20686578206C656E67746820696E73756666696369656E74 PUSH1 0x44 DUP3 ADD MSTORE PUSH1 0x64 ADD PUSH2 0x538 JUMP JUMPDEST DUP1 CALLDATALOAD PUSH1 0x1 PUSH1 0x1 PUSH1 0xA0 SHL SUB DUP2 AND DUP2 EQ PUSH2 0x96E JUMPI PUSH1 0x0 DUP1 REVERT JUMPDEST SWAP2 SWAP1 POP JUMP JUMPDEST PUSH1 0x0 DUP1 PUSH1 0x40 DUP4 DUP6 SUB SLT ISZERO PUSH2 0x985 JUMPI DUP2 DUP3 REVERT JUMPDEST PUSH2 0x98E DUP4 PUSH2 0x957 JUMP JUMPDEST SWAP5 PUSH1 0x20 SWAP4 SWAP1 SWAP4 ADD CALLDATALOAD SWAP4 POP POP POP JUMP JUMPDEST PUSH1 0x0 DUP1 PUSH1 0x0 DUP1 PUSH1 0x80 DUP6 DUP8 SUB SLT ISZERO PUSH2 0x9B1 JUMPI DUP2 DUP3 REVERT JUMPDEST PUSH2 0x9BA DUP6 PUSH2 0x957 JUMP JUMPDEST SWAP7 PUSH1 0x20 DUP7 ADD CALLDATALOAD SWAP7 POP PUSH1 0x40 DUP7 ADD CALLDATALOAD SWAP6 PUSH1 0x60 ADD CALLDATALOAD SWAP5 POP SWAP3 POP POP POP JUMP JUMPDEST PUSH1 0x0 DUP1 PUSH1 0x40 DUP4 DUP6 SUB SLT ISZERO PUSH2 0x9E6 JUMPI DUP2 DUP3 REVERT JUMPDEST POP POP DUP1 CALLDATALOAD SWAP3 PUSH1 0x20 SWAP1 SWAP2 ADD CALLDATALOAD SWAP2 POP JUMP JUMPDEST PUSH32 0x416363657373436F6E74726F6C3A206163636F756E7420000000000000000000 DUP2 MSTORE PUSH1 0x0 DUP4 MLOAD PUSH2 0xA2D DUP2 PUSH1 0x17 DUP6 ADD PUSH1 0x20 DUP9 ADD PUSH2 0xAF7 JUMP JUMPDEST PUSH17 0x1034B99036B4B9B9B4B733903937B6329 PUSH1 0x7D SHL PUSH1 0x17 SWAP2 DUP5 ADD SWAP2 DUP3 ADD MSTORE DUP4 MLOAD PUSH2 0xA5E DUP2 PUSH1 0x28 DUP5 ADD PUSH1 0x20 DUP9 ADD PUSH2 0xAF7 JUMP JUMPDEST ADD PUSH1 0x28 ADD SWAP5 SWAP4 POP POP POP POP JUMP JUMPDEST PUSH1 0x20 DUP2 MSTORE PUSH1 0x0 DUP3 MLOAD DUP1 PUSH1 0x20 DUP5 ADD MSTORE PUSH2 0xA89 DUP2 PUSH1 0x40 DUP6 ADD PUSH1 0x20 DUP8 ADD PUSH2 0xAF7 JUMP JUMPDEST PUSH1 0x1F ADD PUSH1 0x1F NOT AND SWAP2 SWAP1 SWAP2 ADD PUSH1 0x40 ADD SWAP3 SWAP2 POP POP JUMP JUMPDEST PUSH1 0x20 DUP1 DUP3 MSTORE PUSH1 0x9 SWAP1 DUP3 ADD MSTORE PUSH9 0x484956455F524F4C45 PUSH1 0xB8 SHL PUSH1 0x40 DUP3 ADD MSTORE PUSH1 0x60 ADD SWAP1 JUMP JUMPDEST PUSH1 0x0 DUP3 NOT DUP3 GT ISZERO PUSH2 0xAD3 JUMPI PUSH2 0xAD3 PUSH2 0xB3E JUMP JUMPDEST POP ADD SWAP1 JUMP JUMPDEST PUSH1 0x0 DUP2 PUSH1 0x0 NOT DIV DUP4 GT DUP3 ISZERO ISZERO AND ISZERO PUSH2 0xAF2 JUMPI PUSH2 0xAF2 PUSH2 0xB3E JUMP JUMPDEST POP MUL SWAP1 JUMP JUMPDEST PUSH1 0x0 JUMPDEST DUP4 DUP2 LT ISZERO PUSH2 0xB12 JUMPI DUP2 DUP2 ADD MLOAD DUP4 DUP3 ADD MSTORE PUSH1 0x20 ADD PUSH2 0xAFA JUMP JUMPDEST DUP4 DUP2 GT ISZERO PUSH2 0xB21 JUMPI PUSH1 0x0 DUP5 DUP5 ADD MSTORE JUMPDEST POP POP POP POP JUMP JUMPDEST PUSH1 0x0 DUP2 PUSH2 0xB36 JUMPI PUSH2 0xB36 PUSH2 0xB3E JUMP JUMPDEST POP PUSH1 0x0 NOT ADD SWAP1 JUMP JUMPDEST PUSH4 0x4E487B71 PUSH1 0xE0 SHL PUSH1 0x0 MSTORE PUSH1 0x11 PUSH1 0x4 MSTORE PUSH1 0x24 PUSH1 0x0 REVERT INVALID LOG2 PUSH5 0x6970667358 0x22 SLT KECCAK256 PUSH29 0x4391D75D5237F583D7659C6F8FB4A48A2864F1B024CDC242539E74FC2D DUP16 CALLER PUSH5 0x736F6C6343 STOP ADDMOD DIV STOP CALLER ","sha1":"8390517cbda709eff7b7c5ea58af8d8a78a7ba48","source":"//SPDX-License-Identifier: BUSL-1.1\npragma solidity ^0.8.2;\n\nimport \"../../libraries/core/LibFee.sol\";\nimport \"../../libraries/core/LibCurrencyRegistry.sol\";\n\nimport \"../../interfaces/IHubLibraryEvents.sol\";\n\ncontract Fee is IHubLibraryEvents {\n    /**\n     * setCancellationFee sets cancellation fee\n     *\n     * @param _key        | currency key\n     * @param _cancellationFee | unit in token\n     */\n    function setCancellationFee(bytes32 _key, uint256 _cancellationFee)\n        external\n    {\n        LibFee._setCancellationFee(_key, _cancellationFee);\n    }\n\n    /**\n     * setBaseFee sets base fee\n     *\n     * @param _key     | currency key\n     * @param _baseFee | unit in token\n     */\n    function setBaseFee(bytes32 _key, uint256 _baseFee) external {\n        LibFee._setBaseFee(_key, _baseFee);\n    }\n\n    /**\n     * setCostPerMinute sets cost per minute\n     *\n     * @param _key           | currency key\n     * @param _costPerMinute | unit in token\n     */\n    function setCostPerMinute(bytes32 _key, uint256 _costPerMinute) external {\n        LibFee._setCostPerMinute(_key, _costPerMinute);\n    }\n\n    /**\n     * setCostPerMetre sets cost per metre\n     *\n     * @param _key          | currency key\n     * @param _costPerMetre | unit in token\n     */\n    function setCostPerMetre(bytes32 _key, uint256 _costPerMetre) external {\n        LibFee._setCostPerMetre(_key, _costPerMetre);\n    }\n\n    //////////////////////////////////////////////////////////////////////////////////\n    ///// ---------------------------------------------------------------------- /////\n    ///// -------------------------- getter functions -------------------------- /////\n    ///// ---------------------------------------------------------------------- /////\n    //////////////////////////////////////////////////////////////////////////////////\n\n    function getValue(\n        address _hive,\n        bytes32 _key,\n        uint256 _minutesTaken,\n        uint256 _metresTravelled\n    ) external view returns (uint256) {\n        return LibFee._getValue(_hive, _key, _minutesTaken, _metresTravelled);\n    }\n\n    //\n    // note:\n    // the getter functions here needs _requireCurrencySupported\n    // because a return of 0 value could be for a supported currency as well\n    // without _requireCurrencySupported, if a key returns 0 value,\n    // it won't be clear that if this key is supported or not\n    //\n\n    function getCancellationFee(address _hive, bytes32 _key)\n        external\n        view\n        returns (uint256)\n    {\n        // note: currency supported check in internal fn (_getCancellationFee) called\n        return LibFee._getCancellationFee(_hive, _key);\n    }\n\n    function getBaseFee(address _hive, bytes32 _key)\n        external\n        view\n        returns (uint256)\n    {\n        LibCurrencyRegistry._requireCurrencySupported(_key);\n        return LibFee._storageFee().hiveToCurrencyKeyToBaseFee[_hive][_key];\n    }\n\n    function getCostPerMinute(address _hive, bytes32 _key)\n        external\n        view\n        returns (uint256)\n    {\n        LibCurrencyRegistry._requireCurrencySupported(_key);\n        return\n            LibFee._storageFee().hiveToCurrencyKeyToCostPerMinute[_hive][_key];\n    }\n\n    function getCostPerMetre(address _hive, bytes32 _key)\n        external\n        view\n        returns (uint256)\n    {\n        LibCurrencyRegistry._requireCurrencySupported(_key);\n        return\n            LibFee._storageFee().hiveToCurrencyKeyToCostPerMetre[_hive][_key];\n    }\n}\n","sourcePath":"contracts/hub/facets/core/Fee.sol","type":"contract","deployment":{"address":"0x23a539B7fcb5db9c7F6C2cE5095811f86b158f73","chainid":"80001","blockHeight":26007134}}