{"abi":[{"inputs":[{"internalType":"bytes32","name":"_salt","type":"bytes32"},{"internalType":"string","name":"_nameGovernor","type":"string"},{"internalType":"contract ERC20Votes","name":"_hiveGovernanceToken","type":"address"},{"internalType":"contract TimelockController","name":"_hiveTimelock","type":"address"},{"internalType":"address","name":"_underlyingContract","type":"address"},{"internalType":"uint256","name":"_votingDelay","type":"uint256"},{"internalType":"uint256","name":"_votingPeriod","type":"uint256"},{"internalType":"uint256","name":"_proposalThreshold","type":"uint256"},{"internalType":"uint256","name":"_quorumPercentage","type":"uint256"}],"name":"createHiveGovernor","outputs":[{"internalType":"contract HiveGovernor","name":"","type":"address"}],"stateMutability":"nonpayable","type":"function"}],"bytecode":"608060405234801561001057600080fd5b50613ff6806100206000396000f3fe608060405234801561001057600080fd5b506004361061002b5760003560e01c80632fac741c14610030575b600080fd5b61004361003e366004610150565b61005f565b6040516001600160a01b03909116815260200160405180910390f35b60003330146100ce5760405162461bcd60e51b815260206004820152603160248201527f48697665476f7665726e6f724d616368696e652e736f6c3a2063616c6c6572206044820152701b9bdd081d1a1a5cc818dbdb9d1c9858dd607a1b606482015260840160405180910390fd5b60008a8a8a8a8a8a8a8a8a6040516100e590610126565b6100f698979695949392919061025c565b8190604051809103906000f5905080158015610116573d6000803e3d6000fd5b509b9a5050505050505050505050565b613c9e806200032383390190565b80356001600160a01b038116811461014b57600080fd5b919050565b60008060008060008060008060006101208a8c03121561016e578485fd5b8935985060208a013567ffffffffffffffff8082111561018c578687fd5b818c0191508c601f83011261019f578687fd5b8135818111156101b1576101b161030c565b604051601f8201601f19908116603f011681019083821181831017156101d9576101d961030c565b816040528281528f60208487010111156101f157898afd5b8260208601602083013791820160200189905250995061021691505060408b01610134565b965061022460608b01610134565b955061023260808b01610134565b989b979a50959894979660a0860135965060c08601359560e0810135955061010001359350915050565b60006101008083528a5180828501528291505b80821015610291576020828d010151610120838601015260208201915061026f565b808211156102a3578261012082860101525b601f01601f191683016101200191506102c99050602083018a6001600160a01b03169052565b6001600160a01b03881660408301526001600160a01b03871660608301528560808301528460a08301528360c08301528260e08301529998505050505050505050565b634e487b7160e01b600052604160045260246000fdfe6101606040523480156200001257600080fd5b5060405162003c9e38038062003c9e83398101604081905262000035916200050e565b8581888686868d806200005c6040805180820190915260018152603160f81b602082015290565b815160208084019190912082518383012060e08290526101008190524660a0818152604080517f8b73c3c69bb8fe3d512ecc4cf759cc79239f7b179b0ffacaa9a75d522b39400f81880181905281830187905260608201869052608082019490945230818401528151808203909301835260c00190528051940193909320919290916080523060601b60c05261012052505082516200010592506000915060208401906200044b565b50620001139050836200019d565b6200011e82620001de565b620001298162000285565b50505060601b6001600160601b031916610140526200014881620002c6565b50620001548162000390565b506200016033620003f9565b5050600a80546001600160a01b039586166001600160a01b031991821617909155600b805494909516931692909217909255506200069892505050565b60025460408051918252602082018390527fc565b045403dc03c2eea82b81a0465edad9e2e7fc4d97e11421c209da93d7a93910160405180910390a1600255565b60008111620002445760405162461bcd60e51b815260206004820152602760248201527f476f7665726e6f7253657474696e67733a20766f74696e6720706572696f6420604482015266746f6f206c6f7760c81b60648201526084015b60405180910390fd5b60035460408051918252602082018390527f7e3f7f0708a84de9203036abaa450dccc85ad5ff52f78c170f3edb55cf5e8828910160405180910390a1600355565b60045460408051918252602082018390527fccb45da8d5717e6c4544694297c4ba5cf151d455c9bb0ed4fc7a38411bc05461910160405180910390a1600455565b60648111156200034b5760405162461bcd60e51b815260206004820152604360248201527f476f7665726e6f72566f74657351756f72756d4672616374696f6e3a2071756f60448201527f72756d4e756d657261746f72206f7665722071756f72756d44656e6f6d696e616064820152623a37b960e91b608482015260a4016200023b565b600680549082905560408051828152602081018490527f0553476bf02ef2726e8ce5ced78d63e26e602e4a2257b1f559418e24b4633997910160405180910390a15050565b600754604080516001600160a01b03928316815291831660208301527f08f74ea46ef7894f65eabfb5e6e695de773a000b47c529ab559178069b226401910160405180910390a1600780546001600160a01b0319166001600160a01b0392909216919091179055565b600980546001600160a01b038381166001600160a01b0319831681179093556040519116919082907f8be0079c531659141344cd1fd0a4f28419497f9722a3daafe3b4186f6b6457e090600090a35050565b828054620004599062000645565b90600052602060002090601f0160209004810192826200047d5760008555620004c8565b82601f106200049857805160ff1916838001178555620004c8565b82800160010185558215620004c8579182015b82811115620004c8578251825591602001919060010190620004ab565b50620004d6929150620004da565b5090565b5b80821115620004d65760008155600101620004db565b80516001600160a01b03811681146200050957600080fd5b919050565b600080600080600080600080610100898b0312156200052b578384fd5b88516001600160401b038082111562000542578586fd5b818b0191508b601f83011262000556578586fd5b8151818111156200056b576200056b62000682565b604051601f8201601f19908116603f0116810190838211818310171562000596576200059662000682565b81604052828152602093508e84848701011115620005b2578889fd5b8891505b82821015620005d55784820184015181830185015290830190620005b6565b82821115620005e657888484830101525b9b50620005f89150508b8201620004f1565b985050506200060a60408a01620004f1565b95506200061a60608a01620004f1565b94506080890151935060a0890151925060c0890151915060e089015190509295985092959890939650565b600181811c908216806200065a57607f821691505b602082108114156200067c57634e487b7160e01b600052602260045260246000fd5b50919050565b634e487b7160e01b600052604160045260246000fd5b60805160a05160c05160601c60e05161010051610120516101405160601c61359762000707600039600081816107f501528181611c750152611d4f0152600061233b0152600061238a01526000612365015260006122be015260006122e80152600061231201526135976000f3fe60806040526004361061023f5760003560e01c80637d5e81e21161012e578063d33219b4116100ab578063eb9019d41161006f578063eb9019d414610763578063ece40cc114610783578063f2fde38b146107a3578063f8ce560a146107c3578063fc0c546a146107e357600080fd5b8063d33219b41461067b578063dd4e2ba514610699578063deaaa7cc146106df578063e799a1a314610713578063ea0217cf1461074357600080fd5b8063ab58fb8e116100f2578063ab58fb8e146105e6578063b58131b014610606578063c01f9e371461061b578063c28bc2fa1461063b578063c59057e41461065b57600080fd5b80637d5e81e21461055f5780638da5cb5b1461057f57806397c3d3341461059d578063a7713a70146105b1578063a890c910146105c657600080fd5b80633e4f49e6116101bc578063567813881161018057806356781388146104d75780635ff399ce146104f757806370b0f6601461050a578063715018a61461052a5780637b3c71d31461053f57600080fd5b80633e4f49e6146103c157806343859632146103ee5780634bc66f3214610438578063544ffc9c1461045857806354fd4d50146104ad57600080fd5b8063160cbed711610203578063160cbed7146103395780632656227d146103595780632d63f6931461036c5780633932abb11461038c5780633bccf4fd146103a157600080fd5b806301ffc9a71461026757806302a251a31461029c57806306f3f9e6146102bf57806306fdde03146102df57806310cfe9061461030157600080fd5b36610262573061024d610817565b6001600160a01b03161461026057600080fd5b005b600080fd5b34801561027357600080fd5b50610287610282366004612ce5565b610830565b60405190151581526020015b60405180910390f35b3480156102a857600080fd5b506102b1610841565b604051908152602001610293565b3480156102cb57600080fd5b506102606102da366004612dd3565b61084c565b3480156102eb57600080fd5b506102f4610899565b60405161029391906130f8565b34801561030d57600080fd5b50600b54610321906001600160a01b031681565b6040516001600160a01b039091168152602001610293565b34801561034557600080fd5b506102b1610354366004612b68565b61092b565b6102b1610367366004612b68565b610b57565b34801561037857600080fd5b506102b1610387366004612dd3565b610c47565b34801561039857600080fd5b506102b1610c7e565b3480156103ad57600080fd5b506102b16103bc366004612e84565b610c89565b3480156103cd57600080fd5b506103e16103dc366004612dd3565b610d51565b60405161029391906130d0565b3480156103fa57600080fd5b50610287610409366004612deb565b60008281526005602090815260408083206001600160a01b038516845260030190915290205460ff1692915050565b34801561044457600080fd5b50600a54610321906001600160a01b031681565b34801561046457600080fd5b50610492610473366004612dd3565b6000908152600560205260409020805460018201546002909201549092565b60408051938452602084019290925290820152606001610293565b3480156104b957600080fd5b506040805180820190915260018152603160f81b60208201526102f4565b3480156104e357600080fd5b506102b16104f2366004612e1a565b610dc8565b6102b1610505366004612b68565b610e8a565b34801561051657600080fd5b50610260610525366004612dd3565b610f99565b34801561053657600080fd5b50610260610fda565b34801561054b57600080fd5b506102b161055a366004612e45565b611010565b34801561056b57600080fd5b506102b161057a366004612bf3565b6110d6565b34801561058b57600080fd5b506009546001600160a01b0316610321565b3480156105a957600080fd5b5060646102b1565b3480156105bd57600080fd5b506006546102b1565b3480156105d257600080fd5b506102606105e1366004612ac8565b6110e4565b3480156105f257600080fd5b506102b1610601366004612dd3565b611125565b34801561061257600080fd5b506102b16111ce565b34801561062757600080fd5b506102b1610636366004612dd3565b6111d9565b34801561064757600080fd5b50610260610656366004612b0f565b611208565b34801561066757600080fd5b506102b1610676366004612b68565b611289565b34801561068757600080fd5b506007546001600160a01b0316610321565b3480156106a557600080fd5b506040805180820190915260208082527f737570706f72743d627261766f2671756f72756d3d666f722c6162737461696e908201526102f4565b3480156106eb57600080fd5b506102b17f150214d74d59b7d1e90c73fc22ef3d991dd0a76b046543d4d80ab92d2a50328f81565b34801561071f57600080fd5b5061028761072e366004612dd3565b600c6020526000908152604090205460ff1681565b34801561074f57600080fd5b5061026061075e366004612dd3565b6112c3565b34801561076f57600080fd5b506102b161077e366004612ae4565b611304565b34801561078f57600080fd5b5061026061079e366004612dd3565b611310565b3480156107af57600080fd5b506102606107be366004612ac8565b611351565b3480156107cf57600080fd5b506102b16107de366004612dd3565b6113e9565b3480156107ef57600080fd5b506103217f000000000000000000000000000000000000000000000000000000000000000081565b600061082b6007546001600160a01b031690565b905090565b600061083b826113f4565b92915050565b600061082b60035490565b610854610817565b6001600160a01b0316336001600160a01b03161461088d5760405162461bcd60e51b81526004016108849061310b565b60405180910390fd5b61089681611419565b50565b6060600080546108a8906134c2565b80601f01602080910402602001604051908101604052809291908181526020018280546108d4906134c2565b80156109215780601f106108f657610100808354040283529160200191610921565b820191906000526020600020905b81548152906001019060200180831161090457829003601f168201915b5050505050905090565b60008061093a86868686611289565b9050600461094782610d51565b600781111561096657634e487b7160e01b600052602160045260246000fd5b146109835760405162461bcd60e51b8152600401610884906131b8565b6007546040805163793d064960e11b815290516000926001600160a01b03169163f27a0c92916004808301926020929190829003018186803b1580156109c857600080fd5b505afa1580156109dc573d6000803e3d6000fd5b505050506040513d601f19601f82011682018060405250810190610a009190612ccd565b60075460405163b1c5f42760e01b81529192506001600160a01b03169063b1c5f42790610a3a908a908a908a906000908b9060040161302a565b60206040518083038186803b158015610a5257600080fd5b505afa158015610a66573d6000803e3d6000fd5b505050506040513d601f19601f82011682018060405250810190610a8a9190612ccd565b6000838152600860205260408082209290925560075491516308f2a0bb60e41b81526001600160a01b0390921691638f2a0bb091610ad5918b918b918b91908b908990600401613078565b600060405180830381600087803b158015610aef57600080fd5b505af1158015610b03573d6000803e3d6000fd5b505050507f9a2e42fd6722813d69113e7d0079d3d940171428df7373df9c7f7617cfda2892828242610b3591906133f9565b6040805192835260208301919091520160405180910390a15095945050505050565b600080610b6686868686611289565b90506000610b7382610d51565b90506004816007811115610b9757634e487b7160e01b600052602160045260246000fd5b1480610bc257506005816007811115610bc057634e487b7160e01b600052602160045260246000fd5b145b610bde5760405162461bcd60e51b8152600401610884906131b8565b600082815260016020818152604092839020600201805460ff191690921790915590518381527f712ae1383f79ac853f8d882153778e0260ef8f03b504e2866e0593e04d2b291f91015b60405180910390a1610c3d82888888886114e1565b5095945050505050565b60008181526001602090815260408083208151928301909152546001600160401b0316908190525b6001600160401b031692915050565b600061082b60025490565b600a54600b546040516360f528dd60e11b81523360048201526000926001600160a01b0390811692169063c1ea51ba9060240160006040518083038186803b158015610cd457600080fd5b505afa158015610ce8573d6000803e3d6000fd5b505050506040513d6000823e601f3d908101601f19168201604052610d109190810190612d0d565b604001516001600160a01b031614610d3a5760405162461bcd60e51b8152600401610884906131f9565b610d4786868686866114ee565b9695505050505050565b600080610d5d83611582565b90506003816007811115610d8157634e487b7160e01b600052602160045260246000fd5b148015610d945750610d92836116f8565b155b1561083b576000838152600c602052604090205460ff1615610db95750600792915050565b50600692915050565b50919050565b600a54600b546040516360f528dd60e11b81523360048201526000926001600160a01b0390811692169063c1ea51ba9060240160006040518083038186803b158015610e1357600080fd5b505afa158015610e27573d6000803e3d6000fd5b505050506040513d6000823e601f3d908101601f19168201604052610e4f9190810190612d0d565b604001516001600160a01b031614610e795760405162461bcd60e51b8152600401610884906131f9565b610e83838361172f565b9392505050565b6009546000906001600160a01b03163314610eb75760405162461bcd60e51b815260040161088490613183565b6000610ec586868686611289565b90506000610ed282610d51565b90506006816007811115610ef657634e487b7160e01b600052602160045260246000fd5b14610f4e5760405162461bcd60e51b815260206004820152602260248201527f48697665476f7665726e6f723a2070726f706f73616c206e6f74206578706972604482015261195960f21b6064820152608401610884565b6000828152600c602052604090819020805460ff19166001179055517f712ae1383f79ac853f8d882153778e0260ef8f03b504e2866e0593e04d2b291f90610c289084815260200190565b610fa1610817565b6001600160a01b0316336001600160a01b031614610fd15760405162461bcd60e51b81526004016108849061310b565b61089681611758565b6009546001600160a01b031633146110045760405162461bcd60e51b815260040161088490613183565b61100e6000611799565b565b600a54600b546040516360f528dd60e11b81523360048201526000926001600160a01b0390811692169063c1ea51ba9060240160006040518083038186803b15801561105b57600080fd5b505afa15801561106f573d6000803e3d6000fd5b505050506040513d6000823e601f3d908101601f191682016040526110979190810190612d0d565b604001516001600160a01b0316146110c15760405162461bcd60e51b8152600401610884906131f9565b6110cd858585856117eb565b95945050505050565b60006110cd85858585611833565b6110ec610817565b6001600160a01b0316336001600160a01b03161461111c5760405162461bcd60e51b81526004016108849061310b565b61089681611b1c565b60075460008281526008602052604080822054905163d45c443560e01b81526004810191909152909182916001600160a01b039091169063d45c44359060240160206040518083038186803b15801561117d57600080fd5b505afa158015611191573d6000803e3d6000fd5b505050506040513d601f19601f820116820180604052508101906111b59190612ccd565b9050806001146111c55780610e83565b60009392505050565b600061082b60045490565b60008181526001602081815260408084208151928301909152909101546001600160401b031690819052610c6f565b611210610817565b6001600160a01b0316336001600160a01b0316146112405760405162461bcd60e51b81526004016108849061310b565b6112828483838080601f016020809104026020016040519081016040528093929190818152602001838380828437600092019190915250889250611b85915050565b5050505050565b6000848484846040516020016112a29493929190612fdf565b60408051601f19818403018152919052805160209091012095945050505050565b6112cb610817565b6001600160a01b0316336001600160a01b0316146112fb5760405162461bcd60e51b81526004016108849061310b565b61089681611bab565b6000610e838383611c4c565b611318610817565b6001600160a01b0316336001600160a01b0316146113485760405162461bcd60e51b81526004016108849061310b565b61089681611cf1565b6009546001600160a01b0316331461137b5760405162461bcd60e51b815260040161088490613183565b6001600160a01b0381166113e05760405162461bcd60e51b815260206004820152602660248201527f4f776e61626c653a206e6577206f776e657220697320746865207a65726f206160448201526564647265737360d01b6064820152608401610884565b61089681611799565b600061083b82611d32565b60006001600160e01b03198216636e665ced60e01b148061083b575061083b82611de5565b606481111561149c5760405162461bcd60e51b815260206004820152604360248201527f476f7665726e6f72566f74657351756f72756d4672616374696f6e3a2071756f60448201527f72756d4e756d657261746f72206f7665722071756f72756d44656e6f6d696e616064820152623a37b960e91b608482015260a401610884565b600680549082905560408051828152602081018490527f0553476bf02ef2726e8ce5ced78d63e26e602e4a2257b1f559418e24b4633997910160405180910390a15050565b6112828585858585611e1a565b604080517f150214d74d59b7d1e90c73fc22ef3d991dd0a76b046543d4d80ab92d2a50328f602082015290810186905260ff85166060820152600090819061155a906115529060800160405160208183030381529060405280519060200120611e8e565b868686611edc565b905061157787828860405180602001604052806000815250611efa565b979650505050505050565b60008061158e83612013565b905060048160078111156115b257634e487b7160e01b600052602160045260246000fd5b146115bd5792915050565b600083815260086020526040902054806115d8575092915050565b600754604051632ab0f52960e01b8152600481018390526001600160a01b0390911690632ab0f5299060240160206040518083038186803b15801561161c57600080fd5b505afa158015611630573d6000803e3d6000fd5b505050506040513d601f19601f820116820180604052508101906116549190612cad565b15611663575060079392505050565b600754604051632c258a9f60e11b8152600481018390526001600160a01b039091169063584b153e9060240160206040518083038186803b1580156116a757600080fd5b505afa1580156116bb573d6000803e3d6000fd5b505050506040513d601f19601f820116820180604052508101906116df9190612cad565b156116ee575060059392505050565b5060029392505050565b60008181526005602052604081206002810154600182015461171a91906133f9565b6117266107de85610c47565b11159392505050565b60008033905061175084828560405180602001604052806000815250611efa565b949350505050565b60025460408051918252602082018390527fc565b045403dc03c2eea82b81a0465edad9e2e7fc4d97e11421c209da93d7a93910160405180910390a1600255565b600980546001600160a01b038381166001600160a01b0319831681179093556040519116919082907f8be0079c531659141344cd1fd0a4f28419497f9722a3daafe3b4186f6b6457e090600090a35050565b600080339050610d4786828787878080601f016020809104026020016040519081016040528093929190818152602001838380828437600092019190915250611efa92505050565b600061183d6111ce565b61184c3361077e60014361347b565b10156118cc5760405162461bcd60e51b815260206004820152604360248201527f476f7665726e6f72436f6d7061746962696c697479427261766f3a2070726f7060448201527f6f73657220766f7465732062656c6f772070726f706f73616c207468726573686064820152621bdb1960ea1b608482015260a401610884565b60006118e18686868680519060200120611289565b905084518651146119045760405162461bcd60e51b815260040161088490613142565b83518651146119255760405162461bcd60e51b815260040161088490613142565b60008651116119765760405162461bcd60e51b815260206004820152601860248201527f476f7665726e6f723a20656d7074792070726f706f73616c00000000000000006044820152606401610884565b600081815260016020908152604091829020825191820190925281546001600160401b031690819052156119f65760405162461bcd60e51b815260206004820152602160248201527f476f7665726e6f723a2070726f706f73616c20616c72656164792065786973746044820152607360f81b6064820152608401610884565b6000611a08611a03610c7e565b61211f565b611a114361211f565b611a1b9190613411565b90506000611a2a611a03610841565b611a349083613411565b835467ffffffffffffffff19166001600160401b038416178455905060018301805467ffffffffffffffff19166001600160401b0383161790557f7d84a6263ae0d98d3329bd7b46bb4e8d6f98cd35a7adb45c274c8b7fd5ebd5e084338b8b8d516001600160401b03811115611aba57634e487b7160e01b600052604160045260246000fd5b604051908082528060200260200182016040528015611aed57816020015b6060815260200190600190039081611ad85790505b508c88888e604051611b0799989796959493929190613240565b60405180910390a15091979650505050505050565b600754604080516001600160a01b03928316815291831660208301527f08f74ea46ef7894f65eabfb5e6e695de773a000b47c529ab559178069b226401910160405180910390a1600780546001600160a01b0319166001600160a01b0392909216919091179055565b60606117508484846040518060600160405280602981526020016135396029913961218b565b60008111611c0b5760405162461bcd60e51b815260206004820152602760248201527f476f7665726e6f7253657474696e67733a20766f74696e6720706572696f6420604482015266746f6f206c6f7760c81b6064820152608401610884565b60035460408051918252602082018390527f7e3f7f0708a84de9203036abaa450dccc85ad5ff52f78c170f3edb55cf5e8828910160405180910390a1600355565b604051630748d63560e31b81526001600160a01b038381166004830152602482018390526000917f000000000000000000000000000000000000000000000000000000000000000090911690633a46b1a89060440160206040518083038186803b158015611cb957600080fd5b505afa158015611ccd573d6000803e3d6000fd5b505050506040513d601f19601f82011682018060405250810190610e839190612ccd565b60045460408051918252602082018390527fccb45da8d5717e6c4544694297c4ba5cf151d455c9bb0ed4fc7a38411bc05461910160405180910390a1600455565b60006064600654604051632394e7a360e21b8152600481018590527f00000000000000000000000000000000000000000000000000000000000000006001600160a01b031690638e539e8c9060240160206040518083038186803b158015611d9957600080fd5b505afa158015611dad573d6000803e3d6000fd5b505050506040513d601f19601f82011682018060405250810190611dd19190612ccd565b611ddb919061345c565b61083b919061343c565b60006001600160e01b0319821663bf26d89760e01b148061083b57506301ffc9a760e01b6001600160e01b031983161461083b565b60075460405163e38335e560e01b81526001600160a01b039091169063e38335e5903490611e5590889088908890600090899060040161302a565b6000604051808303818588803b158015611e6e57600080fd5b505af1158015611e82573d6000803e3d6000fd5b50505050505050505050565b600061083b611e9b6122b1565b8360405161190160f01b6020820152602281018390526042810182905260009060620160405160208183030381529060405280519060200120905092915050565b6000806000611eed878787876123d8565b91509150610c3d816124c5565b6000848152600160208190526040822090611f1487610d51565b6007811115611f3357634e487b7160e01b600052602160045260246000fd5b14611f8c5760405162461bcd60e51b815260206004820152602360248201527f476f7665726e6f723a20766f7465206e6f742063757272656e746c792061637460448201526269766560e81b6064820152608401610884565b604080516020810190915281546001600160401b031690819052600090611fb4908790611304565b9050611fc2878787846126c6565b856001600160a01b03167fb8e138887d0aa13bab447e82de9d5c1777041ecd21ca36ba824ff1e6c07ddda488878488604051612001949392919061332e565b60405180910390a29695505050505050565b6000818152600160205260408120600281015460ff16156120375750600792915050565b6002810154610100900460ff16156120525750600292915050565b600061205d84610c47565b9050806120ac5760405162461bcd60e51b815260206004820152601d60248201527f476f7665726e6f723a20756e6b6e6f776e2070726f706f73616c2069640000006044820152606401610884565b4381106120bd575060009392505050565b60006120c8856111d9565b90504381106120dc57506001949350505050565b6120e5856116f8565b8015612104575060008581526005602052604090208054600190910154115b1561211457506004949350505050565b506003949350505050565b60006001600160401b038211156121875760405162461bcd60e51b815260206004820152602660248201527f53616665436173743a2076616c756520646f65736e27742066697420696e203660448201526534206269747360d01b6064820152608401610884565b5090565b6060824710156121ec5760405162461bcd60e51b815260206004820152602660248201527f416464726573733a20696e73756666696369656e742062616c616e636520666f6044820152651c8818d85b1b60d21b6064820152608401610884565b6001600160a01b0385163b6122435760405162461bcd60e51b815260206004820152601d60248201527f416464726573733a2063616c6c20746f206e6f6e2d636f6e74726163740000006044820152606401610884565b600080866001600160a01b0316858760405161225f9190612fc3565b60006040518083038185875af1925050503d806000811461229c576040519150601f19603f3d011682016040523d82523d6000602084013e6122a1565b606091505b5091509150611577828286612845565b6000306001600160a01b037f00000000000000000000000000000000000000000000000000000000000000001614801561230a57507f000000000000000000000000000000000000000000000000000000000000000046145b1561233457507f000000000000000000000000000000000000000000000000000000000000000090565b50604080517f00000000000000000000000000000000000000000000000000000000000000006020808301919091527f0000000000000000000000000000000000000000000000000000000000000000828401527f000000000000000000000000000000000000000000000000000000000000000060608301524660808301523060a0808401919091528351808403909101815260c0909201909252805191012090565b6000807f7fffffffffffffffffffffffffffffff5d576e7357a4501ddfe92f46681b20a083111561240f57506000905060036124bc565b8460ff16601b1415801561242757508460ff16601c14155b1561243857506000905060046124bc565b6040805160008082526020820180845289905260ff881692820192909252606081018690526080810185905260019060a0016020604051602081039080840390855afa15801561248c573d6000803e3d6000fd5b5050604051601f1901519150506001600160a01b0381166124b5576000600192509250506124bc565b9150600090505b94509492505050565b60008160048111156124e757634e487b7160e01b600052602160045260246000fd5b14156124f05750565b600181600481111561251257634e487b7160e01b600052602160045260246000fd5b14156125605760405162461bcd60e51b815260206004820152601860248201527f45434453413a20696e76616c6964207369676e617475726500000000000000006044820152606401610884565b600281600481111561258257634e487b7160e01b600052602160045260246000fd5b14156125d05760405162461bcd60e51b815260206004820152601f60248201527f45434453413a20696e76616c6964207369676e6174757265206c656e677468006044820152606401610884565b60038160048111156125f257634e487b7160e01b600052602160045260246000fd5b141561264b5760405162461bcd60e51b815260206004820152602260248201527f45434453413a20696e76616c6964207369676e6174757265202773272076616c604482015261756560f01b6064820152608401610884565b600481600481111561266d57634e487b7160e01b600052602160045260246000fd5b14156108965760405162461bcd60e51b815260206004820152602260248201527f45434453413a20696e76616c6964207369676e6174757265202776272076616c604482015261756560f01b6064820152608401610884565b60008481526005602090815260408083206001600160a01b0387168452600381019092529091205460ff161561274e5760405162461bcd60e51b815260206004820152602760248201527f476f7665726e6f72566f74696e6753696d706c653a20766f746520616c726561604482015266191e4818d85cdd60ca1b6064820152608401610884565b6001600160a01b03841660009081526003820160205260408120805460ff1916600117905560ff168360ff16141561279f578181600001600082825461279491906133f9565b909155506112829050565b60ff8316600114156127bf578181600101600082825461279491906133f9565b60ff8316600214156127df578181600201600082825461279491906133f9565b60405162461bcd60e51b815260206004820152603560248201527f476f7665726e6f72566f74696e6753696d706c653a20696e76616c69642076616044820152746c756520666f7220656e756d20566f74655479706560581b6064820152608401610884565b60608315612854575081610e83565b8251156128645782518084602001fd5b8160405162461bcd60e51b815260040161088491906130f8565b600061289161288c846133d2565b61337f565b90508281528383830111156128a557600080fd5b828260208301376000602084830101529392505050565b80516128c781613523565b919050565b600082601f8301126128dc578081fd5b813560206128ec61288c836133af565b80838252828201915082860187848660051b890101111561290b578586fd5b855b8581101561293257813561292081613523565b8452928401929084019060010161290d565b5090979650505050505050565b600082601f83011261294f578081fd5b8135602061295f61288c836133af565b80838252828201915082860187848660051b890101111561297e578586fd5b855b858110156129325781356001600160401b0381111561299d578788fd5b8801603f81018a136129ad578788fd5b6129be8a878301356040840161287e565b8552509284019290840190600101612980565b600082601f8301126129e1578081fd5b813560206129f161288c836133af565b80838252828201915082860187848660051b8901011115612a10578586fd5b855b8581101561293257813584529284019290840190600101612a12565b60008083601f840112612a3f578182fd5b5081356001600160401b03811115612a55578182fd5b602083019150836020828501011115612a6d57600080fd5b9250929050565b600082601f830112612a84578081fd5b8151612a9261288c826133d2565b818152846020838601011115612aa6578283fd5b611750826020830160208701613492565b803560ff811681146128c757600080fd5b600060208284031215612ad9578081fd5b8135610e8381613523565b60008060408385031215612af6578081fd5b8235612b0181613523565b946020939093013593505050565b60008060008060608587031215612b24578182fd5b8435612b2f81613523565b93506020850135925060408501356001600160401b03811115612b50578283fd5b612b5c87828801612a2e565b95989497509550505050565b60008060008060808587031215612b7d578182fd5b84356001600160401b0380821115612b93578384fd5b612b9f888389016128cc565b95506020870135915080821115612bb4578384fd5b612bc0888389016129d1565b94506040870135915080821115612bd5578384fd5b50612be28782880161293f565b949793965093946060013593505050565b60008060008060808587031215612c08578182fd5b84356001600160401b0380821115612c1e578384fd5b612c2a888389016128cc565b95506020870135915080821115612c3f578384fd5b612c4b888389016129d1565b94506040870135915080821115612c60578384fd5b612c6c8883890161293f565b93506060870135915080821115612c81578283fd5b508501601f81018713612c92578182fd5b612ca18782356020840161287e565b91505092959194509250565b600060208284031215612cbe578081fd5b81518015158114610e83578182fd5b600060208284031215612cde578081fd5b5051919050565b600060208284031215612cf6578081fd5b81356001600160e01b031981168114610e83578182fd5b600060208284031215612d1e578081fd5b81516001600160401b0380821115612d34578283fd5b908301906101208286031215612d48578283fd5b612d50613356565b82518152602083015182811115612d65578485fd5b612d7187828601612a74565b602083015250612d83604084016128bc565b6040820152606083015160608201526080830151608082015260a083015160a082015260c083015160c082015260e083015160e08201526101009150818301518282015280935050505092915050565b600060208284031215612de4578081fd5b5035919050565b60008060408385031215612dfd578182fd5b823591506020830135612e0f81613523565b809150509250929050565b60008060408385031215612e2c578182fd5b82359150612e3c60208401612ab7565b90509250929050565b60008060008060608587031215612e5a578182fd5b84359350612e6a60208601612ab7565b925060408501356001600160401b03811115612b50578283fd5b600080600080600060a08688031215612e9b578283fd5b85359450612eab60208701612ab7565b9350612eb960408701612ab7565b94979396509394606081013594506080013592915050565b6000815180845260208085019450808401835b83811015612f095781516001600160a01b031687529582019590820190600101612ee4565b509495945050505050565b600081518084526020808501808196508360051b81019150828601855b85811015612f5b578284038952612f49848351612f97565b98850198935090840190600101612f31565b5091979650505050505050565b6000815180845260208085019450808401835b83811015612f0957815187529582019590820190600101612f7b565b60008151808452612faf816020860160208601613492565b601f01601f19169290920160200192915050565b60008251612fd5818460208701613492565b9190910192915050565b608081526000612ff26080830187612ed1565b82810360208401526130048187612f68565b905082810360408401526130188186612f14565b91505082606083015295945050505050565b60a08152600061303d60a0830188612ed1565b828103602084015261304f8188612f68565b905082810360408401526130638187612f14565b60608401959095525050608001529392505050565b60c08152600061308b60c0830189612ed1565b828103602084015261309d8189612f68565b905082810360408401526130b18188612f14565b60608401969096525050608081019290925260a0909101529392505050565b60208101600883106130f257634e487b7160e01b600052602160045260246000fd5b91905290565b602081526000610e836020830184612f97565b60208082526018908201527f476f7665726e6f723a206f6e6c79476f7665726e616e63650000000000000000604082015260600190565b60208082526021908201527f476f7665726e6f723a20696e76616c69642070726f706f73616c206c656e67746040820152600d60fb1b606082015260800190565b6020808252818101527f4f776e61626c653a2063616c6c6572206973206e6f7420746865206f776e6572604082015260600190565b60208082526021908201527f476f7665726e6f723a2070726f706f73616c206e6f74207375636365737366756040820152601b60fa1b606082015260800190565b60208082526027908201527f48697665476f7665726e6f723a2063616c6c6572206e6f742072756e6e6572206040820152666f66206869766560c81b606082015260800190565b60006101208b8352602060018060a01b038c16818501528160408501526132698285018c612ed1565b9150838203606085015261327d828b612f68565b915083820360808501528189518084528284019150828160051b850101838c01865b838110156132cd57601f198784030185526132bb838351612f97565b9486019492509085019060010161329f565b505086810360a08801526132e1818c612f14565b9450505050506132fc60c08401876001600160401b03169052565b6001600160401b03851660e084015282810361010084015261331e8185612f97565b9c9b505050505050505050505050565b84815260ff84166020820152826040820152608060608201526000610d476080830184612f97565b60405161012081016001600160401b03811182821017156133795761337961350d565b60405290565b604051601f8201601f191681016001600160401b03811182821017156133a7576133a761350d565b604052919050565b60006001600160401b038211156133c8576133c861350d565b5060051b60200190565b60006001600160401b038211156133eb576133eb61350d565b50601f01601f191660200190565b6000821982111561340c5761340c6134f7565b500190565b60006001600160401b03808316818516808303821115613433576134336134f7565b01949350505050565b60008261345757634e487b7160e01b81526012600452602481fd5b500490565b6000816000190483118215151615613476576134766134f7565b500290565b60008282101561348d5761348d6134f7565b500390565b60005b838110156134ad578181015183820152602001613495565b838111156134bc576000848401525b50505050565b600181811c908216806134d657607f821691505b60208210811415610dc257634e487b7160e01b600052602260045260246000fd5b634e487b7160e01b600052601160045260246000fd5b634e487b7160e01b600052604160045260246000fd5b6001600160a01b038116811461089657600080fdfe416464726573733a206c6f772d6c6576656c2063616c6c20776974682076616c7565206661696c6564a2646970667358221220d2f2240a84a9c9e8eda8c51853484fd67546bf3039aa4130db470b8628778fa764736f6c63430008040033a26469706673582212207713ab7e723d4a278eb2aed2c80c0e5a9d79ea4aad3ecd8949d01659f170488164736f6c63430008040033","bytecodeSha1":"8136a2ab106c3ae457de9531888e06af6fc5f734","compiler":{"evm_version":"istanbul","optimizer":{"enabled":true,"runs":200},"version":"0.8.4+commit.c7e474f2"},"contractName":"HiveGovernorMachine","language":"Solidity","natspec":{"kind":"dev","methods":{},"version":1},"opcodes":"PUSH1 0x80 PUSH1 0x40 MSTORE CALLVALUE DUP1 ISZERO PUSH2 0x10 JUMPI PUSH1 0x0 DUP1 REVERT JUMPDEST POP PUSH1 0x4 CALLDATASIZE LT PUSH2 0x2B JUMPI PUSH1 0x0 CALLDATALOAD PUSH1 0xE0 SHR DUP1 PUSH4 0x2FAC741C EQ PUSH2 0x30 JUMPI JUMPDEST PUSH1 0x0 DUP1 REVERT JUMPDEST PUSH2 0x43 PUSH2 0x3E CALLDATASIZE PUSH1 0x4 PUSH2 0x150 JUMP JUMPDEST PUSH2 0x5F JUMP JUMPDEST PUSH1 0x40 MLOAD PUSH1 0x1 PUSH1 0x1 PUSH1 0xA0 SHL SUB SWAP1 SWAP2 AND DUP2 MSTORE PUSH1 0x20 ADD PUSH1 0x40 MLOAD DUP1 SWAP2 SUB SWAP1 RETURN JUMPDEST PUSH1 0x0 CALLER ADDRESS EQ PUSH2 0xCE JUMPI PUSH1 0x40 MLOAD PUSH3 0x461BCD PUSH1 0xE5 SHL DUP2 MSTORE PUSH1 0x20 PUSH1 0x4 DUP3 ADD MSTORE PUSH1 0x31 PUSH1 0x24 DUP3 ADD MSTORE PUSH32 0x48697665476F7665726E6F724D616368696E652E736F6C3A2063616C6C657220 PUSH1 0x44 DUP3 ADD MSTORE PUSH17 0x1B9BDD081D1A1A5CC818DBDB9D1C9858DD PUSH1 0x7A SHL PUSH1 0x64 DUP3 ADD MSTORE PUSH1 0x84 ADD PUSH1 0x40 MLOAD DUP1 SWAP2 SUB SWAP1 REVERT JUMPDEST PUSH1 0x0 DUP11 DUP11 DUP11 DUP11 DUP11 DUP11 DUP11 DUP11 DUP11 PUSH1 0x40 MLOAD PUSH2 0xE5 SWAP1 PUSH2 0x126 JUMP JUMPDEST PUSH2 0xF6 SWAP9 SWAP8 SWAP7 SWAP6 SWAP5 SWAP4 SWAP3 SWAP2 SWAP1 PUSH2 0x25C JUMP JUMPDEST DUP2 SWAP1 PUSH1 0x40 MLOAD DUP1 SWAP2 SUB SWAP1 PUSH1 0x0 CREATE2 SWAP1 POP DUP1 ISZERO DUP1 ISZERO PUSH2 0x116 JUMPI RETURNDATASIZE PUSH1 0x0 DUP1 RETURNDATACOPY RETURNDATASIZE PUSH1 0x0 REVERT JUMPDEST POP SWAP12 SWAP11 POP POP POP POP POP POP POP POP POP POP POP JUMP JUMPDEST PUSH2 0x3C9E DUP1 PUSH3 0x323 DUP4 CODECOPY ADD SWAP1 JUMP JUMPDEST DUP1 CALLDATALOAD PUSH1 0x1 PUSH1 0x1 PUSH1 0xA0 SHL SUB DUP2 AND DUP2 EQ PUSH2 0x14B JUMPI PUSH1 0x0 DUP1 REVERT JUMPDEST SWAP2 SWAP1 POP JUMP JUMPDEST PUSH1 0x0 DUP1 PUSH1 0x0 DUP1 PUSH1 0x0 DUP1 PUSH1 0x0 DUP1 PUSH1 0x0 PUSH2 0x120 DUP11 DUP13 SUB SLT ISZERO PUSH2 0x16E JUMPI DUP5 DUP6 REVERT JUMPDEST DUP10 CALLDATALOAD SWAP9 POP PUSH1 0x20 DUP11 ADD CALLDATALOAD PUSH8 0xFFFFFFFFFFFFFFFF DUP1 DUP3 GT ISZERO PUSH2 0x18C JUMPI DUP7 DUP8 REVERT JUMPDEST DUP2 DUP13 ADD SWAP2 POP DUP13 PUSH1 0x1F DUP4 ADD SLT PUSH2 0x19F JUMPI DUP7 DUP8 REVERT JUMPDEST DUP2 CALLDATALOAD DUP2 DUP2 GT ISZERO PUSH2 0x1B1 JUMPI PUSH2 0x1B1 PUSH2 0x30C JUMP JUMPDEST PUSH1 0x40 MLOAD PUSH1 0x1F DUP3 ADD PUSH1 0x1F NOT SWAP1 DUP2 AND PUSH1 0x3F ADD AND DUP2 ADD SWAP1 DUP4 DUP3 GT DUP2 DUP4 LT OR ISZERO PUSH2 0x1D9 JUMPI PUSH2 0x1D9 PUSH2 0x30C JUMP JUMPDEST DUP2 PUSH1 0x40 MSTORE DUP3 DUP2 MSTORE DUP16 PUSH1 0x20 DUP5 DUP8 ADD ADD GT ISZERO PUSH2 0x1F1 JUMPI DUP10 DUP11 REVERT JUMPDEST DUP3 PUSH1 0x20 DUP7 ADD PUSH1 0x20 DUP4 ADD CALLDATACOPY SWAP2 DUP3 ADD PUSH1 0x20 ADD DUP10 SWAP1 MSTORE POP SWAP10 POP PUSH2 0x216 SWAP2 POP POP PUSH1 0x40 DUP12 ADD PUSH2 0x134 JUMP JUMPDEST SWAP7 POP PUSH2 0x224 PUSH1 0x60 DUP12 ADD PUSH2 0x134 JUMP JUMPDEST SWAP6 POP PUSH2 0x232 PUSH1 0x80 DUP12 ADD PUSH2 0x134 JUMP JUMPDEST SWAP9 SWAP12 SWAP8 SWAP11 POP SWAP6 SWAP9 SWAP5 SWAP8 SWAP7 PUSH1 0xA0 DUP7 ADD CALLDATALOAD SWAP7 POP PUSH1 0xC0 DUP7 ADD CALLDATALOAD SWAP6 PUSH1 0xE0 DUP2 ADD CALLDATALOAD SWAP6 POP PUSH2 0x100 ADD CALLDATALOAD SWAP4 POP SWAP2 POP POP JUMP JUMPDEST PUSH1 0x0 PUSH2 0x100 DUP1 DUP4 MSTORE DUP11 MLOAD DUP1 DUP3 DUP6 ADD MSTORE DUP3 SWAP2 POP JUMPDEST DUP1 DUP3 LT ISZERO PUSH2 0x291 JUMPI PUSH1 0x20 DUP3 DUP14 ADD ADD MLOAD PUSH2 0x120 DUP4 DUP7 ADD ADD MSTORE PUSH1 0x20 DUP3 ADD SWAP2 POP PUSH2 0x26F JUMP JUMPDEST DUP1 DUP3 GT ISZERO PUSH2 0x2A3 JUMPI DUP3 PUSH2 0x120 DUP3 DUP7 ADD ADD MSTORE JUMPDEST PUSH1 0x1F ADD PUSH1 0x1F NOT AND DUP4 ADD PUSH2 0x120 ADD SWAP2 POP PUSH2 0x2C9 SWAP1 POP PUSH1 0x20 DUP4 ADD DUP11 PUSH1 0x1 PUSH1 0x1 PUSH1 0xA0 SHL SUB AND SWAP1 MSTORE JUMP JUMPDEST PUSH1 0x1 PUSH1 0x1 PUSH1 0xA0 SHL SUB DUP9 AND PUSH1 0x40 DUP4 ADD MSTORE PUSH1 0x1 PUSH1 0x1 PUSH1 0xA0 SHL SUB DUP8 AND PUSH1 0x60 DUP4 ADD MSTORE DUP6 PUSH1 0x80 DUP4 ADD MSTORE DUP5 PUSH1 0xA0 DUP4 ADD MSTORE DUP4 PUSH1 0xC0 DUP4 ADD MSTORE DUP3 PUSH1 0xE0 DUP4 ADD MSTORE SWAP10 SWAP9 POP POP POP POP POP POP POP POP POP JUMP JUMPDEST PUSH4 0x4E487B71 PUSH1 0xE0 SHL PUSH1 0x0 MSTORE PUSH1 0x41 PUSH1 0x4 MSTORE PUSH1 0x24 PUSH1 0x0 REVERT INVALID PUSH2 0x160 PUSH1 0x40 MSTORE CALLVALUE DUP1 ISZERO PUSH3 0x12 JUMPI PUSH1 0x0 DUP1 REVERT JUMPDEST POP PUSH1 0x40 MLOAD PUSH3 0x3C9E CODESIZE SUB DUP1 PUSH3 0x3C9E DUP4 CODECOPY DUP2 ADD PUSH1 0x40 DUP2 SWAP1 MSTORE PUSH3 0x35 SWAP2 PUSH3 0x50E JUMP JUMPDEST DUP6 DUP2 DUP9 DUP7 DUP7 DUP7 DUP14 DUP1 PUSH3 0x5C PUSH1 0x40 DUP1 MLOAD DUP1 DUP3 ADD SWAP1 SWAP2 MSTORE PUSH1 0x1 DUP2 MSTORE PUSH1 0x31 PUSH1 0xF8 SHL PUSH1 0x20 DUP3 ADD MSTORE SWAP1 JUMP JUMPDEST DUP2 MLOAD PUSH1 0x20 DUP1 DUP5 ADD SWAP2 SWAP1 SWAP2 KECCAK256 DUP3 MLOAD DUP4 DUP4 ADD KECCAK256 PUSH1 0xE0 DUP3 SWAP1 MSTORE PUSH2 0x100 DUP2 SWAP1 MSTORE CHAINID PUSH1 0xA0 DUP2 DUP2 MSTORE PUSH1 0x40 DUP1 MLOAD PUSH32 0x8B73C3C69BB8FE3D512ECC4CF759CC79239F7B179B0FFACAA9A75D522B39400F DUP2 DUP9 ADD DUP2 SWAP1 MSTORE DUP2 DUP4 ADD DUP8 SWAP1 MSTORE PUSH1 0x60 DUP3 ADD DUP7 SWAP1 MSTORE PUSH1 0x80 DUP3 ADD SWAP5 SWAP1 SWAP5 MSTORE ADDRESS DUP2 DUP5 ADD MSTORE DUP2 MLOAD DUP1 DUP3 SUB SWAP1 SWAP4 ADD DUP4 MSTORE PUSH1 0xC0 ADD SWAP1 MSTORE DUP1 MLOAD SWAP5 ADD SWAP4 SWAP1 SWAP4 KECCAK256 SWAP2 SWAP3 SWAP1 SWAP2 PUSH1 0x80 MSTORE ADDRESS PUSH1 0x60 SHL PUSH1 0xC0 MSTORE PUSH2 0x120 MSTORE POP POP DUP3 MLOAD PUSH3 0x105 SWAP3 POP PUSH1 0x0 SWAP2 POP PUSH1 0x20 DUP5 ADD SWAP1 PUSH3 0x44B JUMP JUMPDEST POP PUSH3 0x113 SWAP1 POP DUP4 PUSH3 0x19D JUMP JUMPDEST PUSH3 0x11E DUP3 PUSH3 0x1DE JUMP JUMPDEST PUSH3 0x129 DUP2 PUSH3 0x285 JUMP JUMPDEST POP POP POP PUSH1 0x60 SHL PUSH1 0x1 PUSH1 0x1 PUSH1 0x60 SHL SUB NOT AND PUSH2 0x140 MSTORE PUSH3 0x148 DUP2 PUSH3 0x2C6 JUMP JUMPDEST POP PUSH3 0x154 DUP2 PUSH3 0x390 JUMP JUMPDEST POP PUSH3 0x160 CALLER PUSH3 0x3F9 JUMP JUMPDEST POP POP PUSH1 0xA DUP1 SLOAD PUSH1 0x1 PUSH1 0x1 PUSH1 0xA0 SHL SUB SWAP6 DUP7 AND PUSH1 0x1 PUSH1 0x1 PUSH1 0xA0 SHL SUB NOT SWAP2 DUP3 AND OR SWAP1 SWAP2 SSTORE PUSH1 0xB DUP1 SLOAD SWAP5 SWAP1 SWAP6 AND SWAP4 AND SWAP3 SWAP1 SWAP3 OR SWAP1 SWAP3 SSTORE POP PUSH3 0x698 SWAP3 POP POP POP JUMP JUMPDEST PUSH1 0x2 SLOAD PUSH1 0x40 DUP1 MLOAD SWAP2 DUP3 MSTORE PUSH1 0x20 DUP3 ADD DUP4 SWAP1 MSTORE PUSH32 0xC565B045403DC03C2EEA82B81A0465EDAD9E2E7FC4D97E11421C209DA93D7A93 SWAP2 ADD PUSH1 0x40 MLOAD DUP1 SWAP2 SUB SWAP1 LOG1 PUSH1 0x2 SSTORE JUMP JUMPDEST PUSH1 0x0 DUP2 GT PUSH3 0x244 JUMPI PUSH1 0x40 MLOAD PUSH3 0x461BCD PUSH1 0xE5 SHL DUP2 MSTORE PUSH1 0x20 PUSH1 0x4 DUP3 ADD MSTORE PUSH1 0x27 PUSH1 0x24 DUP3 ADD MSTORE PUSH32 0x476F7665726E6F7253657474696E67733A20766F74696E6720706572696F6420 PUSH1 0x44 DUP3 ADD MSTORE PUSH7 0x746F6F206C6F77 PUSH1 0xC8 SHL PUSH1 0x64 DUP3 ADD MSTORE PUSH1 0x84 ADD JUMPDEST PUSH1 0x40 MLOAD DUP1 SWAP2 SUB SWAP1 REVERT JUMPDEST PUSH1 0x3 SLOAD PUSH1 0x40 DUP1 MLOAD SWAP2 DUP3 MSTORE PUSH1 0x20 DUP3 ADD DUP4 SWAP1 MSTORE PUSH32 0x7E3F7F0708A84DE9203036ABAA450DCCC85AD5FF52F78C170F3EDB55CF5E8828 SWAP2 ADD PUSH1 0x40 MLOAD DUP1 SWAP2 SUB SWAP1 LOG1 PUSH1 0x3 SSTORE JUMP JUMPDEST PUSH1 0x4 SLOAD PUSH1 0x40 DUP1 MLOAD SWAP2 DUP3 MSTORE PUSH1 0x20 DUP3 ADD DUP4 SWAP1 MSTORE PUSH32 0xCCB45DA8D5717E6C4544694297C4BA5CF151D455C9BB0ED4FC7A38411BC05461 SWAP2 ADD PUSH1 0x40 MLOAD DUP1 SWAP2 SUB SWAP1 LOG1 PUSH1 0x4 SSTORE JUMP JUMPDEST PUSH1 0x64 DUP2 GT ISZERO PUSH3 0x34B JUMPI PUSH1 0x40 MLOAD PUSH3 0x461BCD PUSH1 0xE5 SHL DUP2 MSTORE PUSH1 0x20 PUSH1 0x4 DUP3 ADD MSTORE PUSH1 0x43 PUSH1 0x24 DUP3 ADD MSTORE PUSH32 0x476F7665726E6F72566F74657351756F72756D4672616374696F6E3A2071756F PUSH1 0x44 DUP3 ADD MSTORE PUSH32 0x72756D4E756D657261746F72206F7665722071756F72756D44656E6F6D696E61 PUSH1 0x64 DUP3 ADD MSTORE PUSH3 0x3A37B9 PUSH1 0xE9 SHL PUSH1 0x84 DUP3 ADD MSTORE PUSH1 0xA4 ADD PUSH3 0x23B JUMP JUMPDEST PUSH1 0x6 DUP1 SLOAD SWAP1 DUP3 SWAP1 SSTORE PUSH1 0x40 DUP1 MLOAD DUP3 DUP2 MSTORE PUSH1 0x20 DUP2 ADD DUP5 SWAP1 MSTORE PUSH32 0x553476BF02EF2726E8CE5CED78D63E26E602E4A2257B1F559418E24B4633997 SWAP2 ADD PUSH1 0x40 MLOAD DUP1 SWAP2 SUB SWAP1 LOG1 POP POP JUMP JUMPDEST PUSH1 0x7 SLOAD PUSH1 0x40 DUP1 MLOAD PUSH1 0x1 PUSH1 0x1 PUSH1 0xA0 SHL SUB SWAP3 DUP4 AND DUP2 MSTORE SWAP2 DUP4 AND PUSH1 0x20 DUP4 ADD MSTORE PUSH32 0x8F74EA46EF7894F65EABFB5E6E695DE773A000B47C529AB559178069B226401 SWAP2 ADD PUSH1 0x40 MLOAD DUP1 SWAP2 SUB SWAP1 LOG1 PUSH1 0x7 DUP1 SLOAD PUSH1 0x1 PUSH1 0x1 PUSH1 0xA0 SHL SUB NOT AND PUSH1 0x1 PUSH1 0x1 PUSH1 0xA0 SHL SUB SWAP3 SWAP1 SWAP3 AND SWAP2 SWAP1 SWAP2 OR SWAP1 SSTORE JUMP JUMPDEST PUSH1 0x9 DUP1 SLOAD PUSH1 0x1 PUSH1 0x1 PUSH1 0xA0 SHL SUB DUP4 DUP2 AND PUSH1 0x1 PUSH1 0x1 PUSH1 0xA0 SHL SUB NOT DUP4 AND DUP2 OR SWAP1 SWAP4 SSTORE PUSH1 0x40 MLOAD SWAP2 AND SWAP2 SWAP1 DUP3 SWAP1 PUSH32 0x8BE0079C531659141344CD1FD0A4F28419497F9722A3DAAFE3B4186F6B6457E0 SWAP1 PUSH1 0x0 SWAP1 LOG3 POP POP JUMP JUMPDEST DUP3 DUP1 SLOAD PUSH3 0x459 SWAP1 PUSH3 0x645 JUMP JUMPDEST SWAP1 PUSH1 0x0 MSTORE PUSH1 0x20 PUSH1 0x0 KECCAK256 SWAP1 PUSH1 0x1F ADD PUSH1 0x20 SWAP1 DIV DUP2 ADD SWAP3 DUP3 PUSH3 0x47D JUMPI PUSH1 0x0 DUP6 SSTORE PUSH3 0x4C8 JUMP JUMPDEST DUP3 PUSH1 0x1F LT PUSH3 0x498 JUMPI DUP1 MLOAD PUSH1 0xFF NOT AND DUP4 DUP1 ADD OR DUP6 SSTORE PUSH3 0x4C8 JUMP JUMPDEST DUP3 DUP1 ADD PUSH1 0x1 ADD DUP6 SSTORE DUP3 ISZERO PUSH3 0x4C8 JUMPI SWAP2 DUP3 ADD JUMPDEST DUP3 DUP2 GT ISZERO PUSH3 0x4C8 JUMPI DUP3 MLOAD DUP3 SSTORE SWAP2 PUSH1 0x20 ADD SWAP2 SWAP1 PUSH1 0x1 ADD SWAP1 PUSH3 0x4AB JUMP JUMPDEST POP PUSH3 0x4D6 SWAP3 SWAP2 POP PUSH3 0x4DA JUMP JUMPDEST POP SWAP1 JUMP JUMPDEST JUMPDEST DUP1 DUP3 GT ISZERO PUSH3 0x4D6 JUMPI PUSH1 0x0 DUP2 SSTORE PUSH1 0x1 ADD PUSH3 0x4DB JUMP JUMPDEST DUP1 MLOAD PUSH1 0x1 PUSH1 0x1 PUSH1 0xA0 SHL SUB DUP2 AND DUP2 EQ PUSH3 0x509 JUMPI PUSH1 0x0 DUP1 REVERT JUMPDEST SWAP2 SWAP1 POP JUMP JUMPDEST PUSH1 0x0 DUP1 PUSH1 0x0 DUP1 PUSH1 0x0 DUP1 PUSH1 0x0 DUP1 PUSH2 0x100 DUP10 DUP12 SUB SLT ISZERO PUSH3 0x52B JUMPI DUP4 DUP5 REVERT JUMPDEST DUP9 MLOAD PUSH1 0x1 PUSH1 0x1 PUSH1 0x40 SHL SUB DUP1 DUP3 GT ISZERO PUSH3 0x542 JUMPI DUP6 DUP7 REVERT JUMPDEST DUP2 DUP12 ADD SWAP2 POP DUP12 PUSH1 0x1F DUP4 ADD SLT PUSH3 0x556 JUMPI DUP6 DUP7 REVERT JUMPDEST DUP2 MLOAD DUP2 DUP2 GT ISZERO PUSH3 0x56B JUMPI PUSH3 0x56B PUSH3 0x682 JUMP JUMPDEST PUSH1 0x40 MLOAD PUSH1 0x1F DUP3 ADD PUSH1 0x1F NOT SWAP1 DUP2 AND PUSH1 0x3F ADD AND DUP2 ADD SWAP1 DUP4 DUP3 GT DUP2 DUP4 LT OR ISZERO PUSH3 0x596 JUMPI PUSH3 0x596 PUSH3 0x682 JUMP JUMPDEST DUP2 PUSH1 0x40 MSTORE DUP3 DUP2 MSTORE PUSH1 0x20 SWAP4 POP DUP15 DUP5 DUP5 DUP8 ADD ADD GT ISZERO PUSH3 0x5B2 JUMPI DUP9 DUP10 REVERT JUMPDEST DUP9 SWAP2 POP JUMPDEST DUP3 DUP3 LT ISZERO PUSH3 0x5D5 JUMPI DUP5 DUP3 ADD DUP5 ADD MLOAD DUP2 DUP4 ADD DUP6 ADD MSTORE SWAP1 DUP4 ADD SWAP1 PUSH3 0x5B6 JUMP JUMPDEST DUP3 DUP3 GT ISZERO PUSH3 0x5E6 JUMPI DUP9 DUP5 DUP5 DUP4 ADD ADD MSTORE JUMPDEST SWAP12 POP PUSH3 0x5F8 SWAP2 POP POP DUP12 DUP3 ADD PUSH3 0x4F1 JUMP JUMPDEST SWAP9 POP POP POP PUSH3 0x60A PUSH1 0x40 DUP11 ADD PUSH3 0x4F1 JUMP JUMPDEST SWAP6 POP PUSH3 0x61A PUSH1 0x60 DUP11 ADD PUSH3 0x4F1 JUMP JUMPDEST SWAP5 POP PUSH1 0x80 DUP10 ADD MLOAD SWAP4 POP PUSH1 0xA0 DUP10 ADD MLOAD SWAP3 POP PUSH1 0xC0 DUP10 ADD MLOAD SWAP2 POP PUSH1 0xE0 DUP10 ADD MLOAD SWAP1 POP SWAP3 SWAP6 SWAP9 POP SWAP3 SWAP6 SWAP9 SWAP1 SWAP4 SWAP7 POP JUMP JUMPDEST PUSH1 0x1 DUP2 DUP2 SHR SWAP1 DUP3 AND DUP1 PUSH3 0x65A JUMPI PUSH1 0x7F DUP3 AND SWAP2 POP JUMPDEST PUSH1 0x20 DUP3 LT DUP2 EQ ISZERO PUSH3 0x67C JUMPI PUSH4 0x4E487B71 PUSH1 0xE0 SHL PUSH1 0x0 MSTORE PUSH1 0x22 PUSH1 0x4 MSTORE PUSH1 0x24 PUSH1 0x0 REVERT JUMPDEST POP SWAP2 SWAP1 POP JUMP JUMPDEST PUSH4 0x4E487B71 PUSH1 0xE0 SHL PUSH1 0x0 MSTORE PUSH1 0x41 PUSH1 0x4 MSTORE PUSH1 0x24 PUSH1 0x0 REVERT JUMPDEST PUSH1 0x80 MLOAD PUSH1 0xA0 MLOAD PUSH1 0xC0 MLOAD PUSH1 0x60 SHR PUSH1 0xE0 MLOAD PUSH2 0x100 MLOAD PUSH2 0x120 MLOAD PUSH2 0x140 MLOAD PUSH1 0x60 SHR PUSH2 0x3597 PUSH3 0x707 PUSH1 0x0 CODECOPY PUSH1 0x0 DUP2 DUP2 PUSH2 0x7F5 ADD MSTORE DUP2 DUP2 PUSH2 0x1C75 ADD MSTORE PUSH2 0x1D4F ADD MSTORE PUSH1 0x0 PUSH2 0x233B ADD MSTORE PUSH1 0x0 PUSH2 0x238A ADD MSTORE PUSH1 0x0 PUSH2 0x2365 ADD MSTORE PUSH1 0x0 PUSH2 0x22BE ADD MSTORE PUSH1 0x0 PUSH2 0x22E8 ADD MSTORE PUSH1 0x0 PUSH2 0x2312 ADD MSTORE PUSH2 0x3597 PUSH1 0x0 RETURN INVALID PUSH1 0x80 PUSH1 0x40 MSTORE PUSH1 0x4 CALLDATASIZE LT PUSH2 0x23F JUMPI PUSH1 0x0 CALLDATALOAD PUSH1 0xE0 SHR DUP1 PUSH4 0x7D5E81E2 GT PUSH2 0x12E JUMPI DUP1 PUSH4 0xD33219B4 GT PUSH2 0xAB JUMPI DUP1 PUSH4 0xEB9019D4 GT PUSH2 0x6F JUMPI DUP1 PUSH4 0xEB9019D4 EQ PUSH2 0x763 JUMPI DUP1 PUSH4 0xECE40CC1 EQ PUSH2 0x783 JUMPI DUP1 PUSH4 0xF2FDE38B EQ PUSH2 0x7A3 JUMPI DUP1 PUSH4 0xF8CE560A EQ PUSH2 0x7C3 JUMPI DUP1 PUSH4 0xFC0C546A EQ PUSH2 0x7E3 JUMPI PUSH1 0x0 DUP1 REVERT JUMPDEST DUP1 PUSH4 0xD33219B4 EQ PUSH2 0x67B JUMPI DUP1 PUSH4 0xDD4E2BA5 EQ PUSH2 0x699 JUMPI DUP1 PUSH4 0xDEAAA7CC EQ PUSH2 0x6DF JUMPI DUP1 PUSH4 0xE799A1A3 EQ PUSH2 0x713 JUMPI DUP1 PUSH4 0xEA0217CF EQ PUSH2 0x743 JUMPI PUSH1 0x0 DUP1 REVERT JUMPDEST DUP1 PUSH4 0xAB58FB8E GT PUSH2 0xF2 JUMPI DUP1 PUSH4 0xAB58FB8E EQ PUSH2 0x5E6 JUMPI DUP1 PUSH4 0xB58131B0 EQ PUSH2 0x606 JUMPI DUP1 PUSH4 0xC01F9E37 EQ PUSH2 0x61B JUMPI DUP1 PUSH4 0xC28BC2FA EQ PUSH2 0x63B JUMPI DUP1 PUSH4 0xC59057E4 EQ PUSH2 0x65B JUMPI PUSH1 0x0 DUP1 REVERT JUMPDEST DUP1 PUSH4 0x7D5E81E2 EQ PUSH2 0x55F JUMPI DUP1 PUSH4 0x8DA5CB5B EQ PUSH2 0x57F JUMPI DUP1 PUSH4 0x97C3D334 EQ PUSH2 0x59D JUMPI DUP1 PUSH4 0xA7713A70 EQ PUSH2 0x5B1 JUMPI DUP1 PUSH4 0xA890C910 EQ PUSH2 0x5C6 JUMPI PUSH1 0x0 DUP1 REVERT JUMPDEST DUP1 PUSH4 0x3E4F49E6 GT PUSH2 0x1BC JUMPI DUP1 PUSH4 0x56781388 GT PUSH2 0x180 JUMPI DUP1 PUSH4 0x56781388 EQ PUSH2 0x4D7 JUMPI DUP1 PUSH4 0x5FF399CE EQ PUSH2 0x4F7 JUMPI DUP1 PUSH4 0x70B0F660 EQ PUSH2 0x50A JUMPI DUP1 PUSH4 0x715018A6 EQ PUSH2 0x52A JUMPI DUP1 PUSH4 0x7B3C71D3 EQ PUSH2 0x53F JUMPI PUSH1 0x0 DUP1 REVERT JUMPDEST DUP1 PUSH4 0x3E4F49E6 EQ PUSH2 0x3C1 JUMPI DUP1 PUSH4 0x43859632 EQ PUSH2 0x3EE JUMPI DUP1 PUSH4 0x4BC66F32 EQ PUSH2 0x438 JUMPI DUP1 PUSH4 0x544FFC9C EQ PUSH2 0x458 JUMPI DUP1 PUSH4 0x54FD4D50 EQ PUSH2 0x4AD JUMPI PUSH1 0x0 DUP1 REVERT JUMPDEST DUP1 PUSH4 0x160CBED7 GT PUSH2 0x203 JUMPI DUP1 PUSH4 0x160CBED7 EQ PUSH2 0x339 JUMPI DUP1 PUSH4 0x2656227D EQ PUSH2 0x359 JUMPI DUP1 PUSH4 0x2D63F693 EQ PUSH2 0x36C JUMPI DUP1 PUSH4 0x3932ABB1 EQ PUSH2 0x38C JUMPI DUP1 PUSH4 0x3BCCF4FD EQ PUSH2 0x3A1 JUMPI PUSH1 0x0 DUP1 REVERT JUMPDEST DUP1 PUSH4 0x1FFC9A7 EQ PUSH2 0x267 JUMPI DUP1 PUSH4 0x2A251A3 EQ PUSH2 0x29C JUMPI DUP1 PUSH4 0x6F3F9E6 EQ PUSH2 0x2BF JUMPI DUP1 PUSH4 0x6FDDE03 EQ PUSH2 0x2DF JUMPI DUP1 PUSH4 0x10CFE906 EQ PUSH2 0x301 JUMPI PUSH1 0x0 DUP1 REVERT JUMPDEST CALLDATASIZE PUSH2 0x262 JUMPI ADDRESS PUSH2 0x24D PUSH2 0x817 JUMP JUMPDEST PUSH1 0x1 PUSH1 0x1 PUSH1 0xA0 SHL SUB AND EQ PUSH2 0x260 JUMPI PUSH1 0x0 DUP1 REVERT JUMPDEST STOP JUMPDEST PUSH1 0x0 DUP1 REVERT JUMPDEST CALLVALUE DUP1 ISZERO PUSH2 0x273 JUMPI PUSH1 0x0 DUP1 REVERT JUMPDEST POP PUSH2 0x287 PUSH2 0x282 CALLDATASIZE PUSH1 0x4 PUSH2 0x2CE5 JUMP JUMPDEST PUSH2 0x830 JUMP JUMPDEST PUSH1 0x40 MLOAD SWAP1 ISZERO ISZERO DUP2 MSTORE PUSH1 0x20 ADD JUMPDEST PUSH1 0x40 MLOAD DUP1 SWAP2 SUB SWAP1 RETURN JUMPDEST CALLVALUE DUP1 ISZERO PUSH2 0x2A8 JUMPI PUSH1 0x0 DUP1 REVERT JUMPDEST POP PUSH2 0x2B1 PUSH2 0x841 JUMP JUMPDEST PUSH1 0x40 MLOAD SWAP1 DUP2 MSTORE PUSH1 0x20 ADD PUSH2 0x293 JUMP JUMPDEST CALLVALUE DUP1 ISZERO PUSH2 0x2CB JUMPI PUSH1 0x0 DUP1 REVERT JUMPDEST POP PUSH2 0x260 PUSH2 0x2DA CALLDATASIZE PUSH1 0x4 PUSH2 0x2DD3 JUMP JUMPDEST PUSH2 0x84C JUMP JUMPDEST CALLVALUE DUP1 ISZERO PUSH2 0x2EB JUMPI PUSH1 0x0 DUP1 REVERT JUMPDEST POP PUSH2 0x2F4 PUSH2 0x899 JUMP JUMPDEST PUSH1 0x40 MLOAD PUSH2 0x293 SWAP2 SWAP1 PUSH2 0x30F8 JUMP JUMPDEST CALLVALUE DUP1 ISZERO PUSH2 0x30D JUMPI PUSH1 0x0 DUP1 REVERT JUMPDEST POP PUSH1 0xB SLOAD PUSH2 0x321 SWAP1 PUSH1 0x1 PUSH1 0x1 PUSH1 0xA0 SHL SUB AND DUP2 JUMP JUMPDEST PUSH1 0x40 MLOAD PUSH1 0x1 PUSH1 0x1 PUSH1 0xA0 SHL SUB SWAP1 SWAP2 AND DUP2 MSTORE PUSH1 0x20 ADD PUSH2 0x293 JUMP JUMPDEST CALLVALUE DUP1 ISZERO PUSH2 0x345 JUMPI PUSH1 0x0 DUP1 REVERT JUMPDEST POP PUSH2 0x2B1 PUSH2 0x354 CALLDATASIZE PUSH1 0x4 PUSH2 0x2B68 JUMP JUMPDEST PUSH2 0x92B JUMP JUMPDEST PUSH2 0x2B1 PUSH2 0x367 CALLDATASIZE PUSH1 0x4 PUSH2 0x2B68 JUMP JUMPDEST PUSH2 0xB57 JUMP JUMPDEST CALLVALUE DUP1 ISZERO PUSH2 0x378 JUMPI PUSH1 0x0 DUP1 REVERT JUMPDEST POP PUSH2 0x2B1 PUSH2 0x387 CALLDATASIZE PUSH1 0x4 PUSH2 0x2DD3 JUMP JUMPDEST PUSH2 0xC47 JUMP JUMPDEST CALLVALUE DUP1 ISZERO PUSH2 0x398 JUMPI PUSH1 0x0 DUP1 REVERT JUMPDEST POP PUSH2 0x2B1 PUSH2 0xC7E JUMP JUMPDEST CALLVALUE DUP1 ISZERO PUSH2 0x3AD JUMPI PUSH1 0x0 DUP1 REVERT JUMPDEST POP PUSH2 0x2B1 PUSH2 0x3BC CALLDATASIZE PUSH1 0x4 PUSH2 0x2E84 JUMP JUMPDEST PUSH2 0xC89 JUMP JUMPDEST CALLVALUE DUP1 ISZERO PUSH2 0x3CD JUMPI PUSH1 0x0 DUP1 REVERT JUMPDEST POP PUSH2 0x3E1 PUSH2 0x3DC CALLDATASIZE PUSH1 0x4 PUSH2 0x2DD3 JUMP JUMPDEST PUSH2 0xD51 JUMP JUMPDEST PUSH1 0x40 MLOAD PUSH2 0x293 SWAP2 SWAP1 PUSH2 0x30D0 JUMP JUMPDEST CALLVALUE DUP1 ISZERO PUSH2 0x3FA JUMPI PUSH1 0x0 DUP1 REVERT JUMPDEST POP PUSH2 0x287 PUSH2 0x409 CALLDATASIZE PUSH1 0x4 PUSH2 0x2DEB JUMP JUMPDEST PUSH1 0x0 DUP3 DUP2 MSTORE PUSH1 0x5 PUSH1 0x20 SWAP1 DUP2 MSTORE PUSH1 0x40 DUP1 DUP4 KECCAK256 PUSH1 0x1 PUSH1 0x1 PUSH1 0xA0 SHL SUB DUP6 AND DUP5 MSTORE PUSH1 0x3 ADD SWAP1 SWAP2 MSTORE SWAP1 KECCAK256 SLOAD PUSH1 0xFF AND SWAP3 SWAP2 POP POP JUMP JUMPDEST CALLVALUE DUP1 ISZERO PUSH2 0x444 JUMPI PUSH1 0x0 DUP1 REVERT JUMPDEST POP PUSH1 0xA SLOAD PUSH2 0x321 SWAP1 PUSH1 0x1 PUSH1 0x1 PUSH1 0xA0 SHL SUB AND DUP2 JUMP JUMPDEST CALLVALUE DUP1 ISZERO PUSH2 0x464 JUMPI PUSH1 0x0 DUP1 REVERT JUMPDEST POP PUSH2 0x492 PUSH2 0x473 CALLDATASIZE PUSH1 0x4 PUSH2 0x2DD3 JUMP JUMPDEST PUSH1 0x0 SWAP1 DUP2 MSTORE PUSH1 0x5 PUSH1 0x20 MSTORE PUSH1 0x40 SWAP1 KECCAK256 DUP1 SLOAD PUSH1 0x1 DUP3 ADD SLOAD PUSH1 0x2 SWAP1 SWAP3 ADD SLOAD SWAP1 SWAP3 JUMP JUMPDEST PUSH1 0x40 DUP1 MLOAD SWAP4 DUP5 MSTORE PUSH1 0x20 DUP5 ADD SWAP3 SWAP1 SWAP3 MSTORE SWAP1 DUP3 ADD MSTORE PUSH1 0x60 ADD PUSH2 0x293 JUMP JUMPDEST CALLVALUE DUP1 ISZERO PUSH2 0x4B9 JUMPI PUSH1 0x0 DUP1 REVERT JUMPDEST POP PUSH1 0x40 DUP1 MLOAD DUP1 DUP3 ADD SWAP1 SWAP2 MSTORE PUSH1 0x1 DUP2 MSTORE PUSH1 0x31 PUSH1 0xF8 SHL PUSH1 0x20 DUP3 ADD MSTORE PUSH2 0x2F4 JUMP JUMPDEST CALLVALUE DUP1 ISZERO PUSH2 0x4E3 JUMPI PUSH1 0x0 DUP1 REVERT JUMPDEST POP PUSH2 0x2B1 PUSH2 0x4F2 CALLDATASIZE PUSH1 0x4 PUSH2 0x2E1A JUMP JUMPDEST PUSH2 0xDC8 JUMP JUMPDEST PUSH2 0x2B1 PUSH2 0x505 CALLDATASIZE PUSH1 0x4 PUSH2 0x2B68 JUMP JUMPDEST PUSH2 0xE8A JUMP JUMPDEST CALLVALUE DUP1 ISZERO PUSH2 0x516 JUMPI PUSH1 0x0 DUP1 REVERT JUMPDEST POP PUSH2 0x260 PUSH2 0x525 CALLDATASIZE PUSH1 0x4 PUSH2 0x2DD3 JUMP JUMPDEST PUSH2 0xF99 JUMP JUMPDEST CALLVALUE DUP1 ISZERO PUSH2 0x536 JUMPI PUSH1 0x0 DUP1 REVERT JUMPDEST POP PUSH2 0x260 PUSH2 0xFDA JUMP JUMPDEST CALLVALUE DUP1 ISZERO PUSH2 0x54B JUMPI PUSH1 0x0 DUP1 REVERT JUMPDEST POP PUSH2 0x2B1 PUSH2 0x55A CALLDATASIZE PUSH1 0x4 PUSH2 0x2E45 JUMP JUMPDEST PUSH2 0x1010 JUMP JUMPDEST CALLVALUE DUP1 ISZERO PUSH2 0x56B JUMPI PUSH1 0x0 DUP1 REVERT JUMPDEST POP PUSH2 0x2B1 PUSH2 0x57A CALLDATASIZE PUSH1 0x4 PUSH2 0x2BF3 JUMP JUMPDEST PUSH2 0x10D6 JUMP JUMPDEST CALLVALUE DUP1 ISZERO PUSH2 0x58B JUMPI PUSH1 0x0 DUP1 REVERT JUMPDEST POP PUSH1 0x9 SLOAD PUSH1 0x1 PUSH1 0x1 PUSH1 0xA0 SHL SUB AND PUSH2 0x321 JUMP JUMPDEST CALLVALUE DUP1 ISZERO PUSH2 0x5A9 JUMPI PUSH1 0x0 DUP1 REVERT JUMPDEST POP PUSH1 0x64 PUSH2 0x2B1 JUMP JUMPDEST CALLVALUE DUP1 ISZERO PUSH2 0x5BD JUMPI PUSH1 0x0 DUP1 REVERT JUMPDEST POP PUSH1 0x6 SLOAD PUSH2 0x2B1 JUMP JUMPDEST CALLVALUE DUP1 ISZERO PUSH2 0x5D2 JUMPI PUSH1 0x0 DUP1 REVERT JUMPDEST POP PUSH2 0x260 PUSH2 0x5E1 CALLDATASIZE PUSH1 0x4 PUSH2 0x2AC8 JUMP JUMPDEST PUSH2 0x10E4 JUMP JUMPDEST CALLVALUE DUP1 ISZERO PUSH2 0x5F2 JUMPI PUSH1 0x0 DUP1 REVERT JUMPDEST POP PUSH2 0x2B1 PUSH2 0x601 CALLDATASIZE PUSH1 0x4 PUSH2 0x2DD3 JUMP JUMPDEST PUSH2 0x1125 JUMP JUMPDEST CALLVALUE DUP1 ISZERO PUSH2 0x612 JUMPI PUSH1 0x0 DUP1 REVERT JUMPDEST POP PUSH2 0x2B1 PUSH2 0x11CE JUMP JUMPDEST CALLVALUE DUP1 ISZERO PUSH2 0x627 JUMPI PUSH1 0x0 DUP1 REVERT JUMPDEST POP PUSH2 0x2B1 PUSH2 0x636 CALLDATASIZE PUSH1 0x4 PUSH2 0x2DD3 JUMP JUMPDEST PUSH2 0x11D9 JUMP JUMPDEST CALLVALUE DUP1 ISZERO PUSH2 0x647 JUMPI PUSH1 0x0 DUP1 REVERT JUMPDEST POP PUSH2 0x260 PUSH2 0x656 CALLDATASIZE PUSH1 0x4 PUSH2 0x2B0F JUMP JUMPDEST PUSH2 0x1208 JUMP JUMPDEST CALLVALUE DUP1 ISZERO PUSH2 0x667 JUMPI PUSH1 0x0 DUP1 REVERT JUMPDEST POP PUSH2 0x2B1 PUSH2 0x676 CALLDATASIZE PUSH1 0x4 PUSH2 0x2B68 JUMP JUMPDEST PUSH2 0x1289 JUMP JUMPDEST CALLVALUE DUP1 ISZERO PUSH2 0x687 JUMPI PUSH1 0x0 DUP1 REVERT JUMPDEST POP PUSH1 0x7 SLOAD PUSH1 0x1 PUSH1 0x1 PUSH1 0xA0 SHL SUB AND PUSH2 0x321 JUMP JUMPDEST CALLVALUE DUP1 ISZERO PUSH2 0x6A5 JUMPI PUSH1 0x0 DUP1 REVERT JUMPDEST POP PUSH1 0x40 DUP1 MLOAD DUP1 DUP3 ADD SWAP1 SWAP2 MSTORE PUSH1 0x20 DUP1 DUP3 MSTORE PUSH32 0x737570706F72743D627261766F2671756F72756D3D666F722C6162737461696E SWAP1 DUP3 ADD MSTORE PUSH2 0x2F4 JUMP JUMPDEST CALLVALUE DUP1 ISZERO PUSH2 0x6EB JUMPI PUSH1 0x0 DUP1 REVERT JUMPDEST POP PUSH2 0x2B1 PUSH32 0x150214D74D59B7D1E90C73FC22EF3D991DD0A76B046543D4D80AB92D2A50328F DUP2 JUMP JUMPDEST CALLVALUE DUP1 ISZERO PUSH2 0x71F JUMPI PUSH1 0x0 DUP1 REVERT JUMPDEST POP PUSH2 0x287 PUSH2 0x72E CALLDATASIZE PUSH1 0x4 PUSH2 0x2DD3 JUMP JUMPDEST PUSH1 0xC PUSH1 0x20 MSTORE PUSH1 0x0 SWAP1 DUP2 MSTORE PUSH1 0x40 SWAP1 KECCAK256 SLOAD PUSH1 0xFF AND DUP2 JUMP JUMPDEST CALLVALUE DUP1 ISZERO PUSH2 0x74F JUMPI PUSH1 0x0 DUP1 REVERT JUMPDEST POP PUSH2 0x260 PUSH2 0x75E CALLDATASIZE PUSH1 0x4 PUSH2 0x2DD3 JUMP JUMPDEST PUSH2 0x12C3 JUMP JUMPDEST CALLVALUE DUP1 ISZERO PUSH2 0x76F JUMPI PUSH1 0x0 DUP1 REVERT JUMPDEST POP PUSH2 0x2B1 PUSH2 0x77E CALLDATASIZE PUSH1 0x4 PUSH2 0x2AE4 JUMP JUMPDEST PUSH2 0x1304 JUMP JUMPDEST CALLVALUE DUP1 ISZERO PUSH2 0x78F JUMPI PUSH1 0x0 DUP1 REVERT JUMPDEST POP PUSH2 0x260 PUSH2 0x79E CALLDATASIZE PUSH1 0x4 PUSH2 0x2DD3 JUMP JUMPDEST PUSH2 0x1310 JUMP JUMPDEST CALLVALUE DUP1 ISZERO PUSH2 0x7AF JUMPI PUSH1 0x0 DUP1 REVERT JUMPDEST POP PUSH2 0x260 PUSH2 0x7BE CALLDATASIZE PUSH1 0x4 PUSH2 0x2AC8 JUMP JUMPDEST PUSH2 0x1351 JUMP JUMPDEST CALLVALUE DUP1 ISZERO PUSH2 0x7CF JUMPI PUSH1 0x0 DUP1 REVERT JUMPDEST POP PUSH2 0x2B1 PUSH2 0x7DE CALLDATASIZE PUSH1 0x4 PUSH2 0x2DD3 JUMP JUMPDEST PUSH2 0x13E9 JUMP JUMPDEST CALLVALUE DUP1 ISZERO PUSH2 0x7EF JUMPI PUSH1 0x0 DUP1 REVERT JUMPDEST POP PUSH2 0x321 PUSH32 0x0 DUP2 JUMP JUMPDEST PUSH1 0x0 PUSH2 0x82B PUSH1 0x7 SLOAD PUSH1 0x1 PUSH1 0x1 PUSH1 0xA0 SHL SUB AND SWAP1 JUMP JUMPDEST SWAP1 POP SWAP1 JUMP JUMPDEST PUSH1 0x0 PUSH2 0x83B DUP3 PUSH2 0x13F4 JUMP JUMPDEST SWAP3 SWAP2 POP POP JUMP JUMPDEST PUSH1 0x0 PUSH2 0x82B PUSH1 0x3 SLOAD SWAP1 JUMP JUMPDEST PUSH2 0x854 PUSH2 0x817 JUMP JUMPDEST PUSH1 0x1 PUSH1 0x1 PUSH1 0xA0 SHL SUB AND CALLER PUSH1 0x1 PUSH1 0x1 PUSH1 0xA0 SHL SUB AND EQ PUSH2 0x88D JUMPI PUSH1 0x40 MLOAD PUSH3 0x461BCD PUSH1 0xE5 SHL DUP2 MSTORE PUSH1 0x4 ADD PUSH2 0x884 SWAP1 PUSH2 0x310B JUMP JUMPDEST PUSH1 0x40 MLOAD DUP1 SWAP2 SUB SWAP1 REVERT JUMPDEST PUSH2 0x896 DUP2 PUSH2 0x1419 JUMP JUMPDEST POP JUMP JUMPDEST PUSH1 0x60 PUSH1 0x0 DUP1 SLOAD PUSH2 0x8A8 SWAP1 PUSH2 0x34C2 JUMP JUMPDEST DUP1 PUSH1 0x1F ADD PUSH1 0x20 DUP1 SWAP2 DIV MUL PUSH1 0x20 ADD PUSH1 0x40 MLOAD SWAP1 DUP2 ADD PUSH1 0x40 MSTORE DUP1 SWAP3 SWAP2 SWAP1 DUP2 DUP2 MSTORE PUSH1 0x20 ADD DUP3 DUP1 SLOAD PUSH2 0x8D4 SWAP1 PUSH2 0x34C2 JUMP JUMPDEST DUP1 ISZERO PUSH2 0x921 JUMPI DUP1 PUSH1 0x1F LT PUSH2 0x8F6 JUMPI PUSH2 0x100 DUP1 DUP4 SLOAD DIV MUL DUP4 MSTORE SWAP2 PUSH1 0x20 ADD SWAP2 PUSH2 0x921 JUMP JUMPDEST DUP3 ADD SWAP2 SWAP1 PUSH1 0x0 MSTORE PUSH1 0x20 PUSH1 0x0 KECCAK256 SWAP1 JUMPDEST DUP2 SLOAD DUP2 MSTORE SWAP1 PUSH1 0x1 ADD SWAP1 PUSH1 0x20 ADD DUP1 DUP4 GT PUSH2 0x904 JUMPI DUP3 SWAP1 SUB PUSH1 0x1F AND DUP3 ADD SWAP2 JUMPDEST POP POP POP POP POP SWAP1 POP SWAP1 JUMP JUMPDEST PUSH1 0x0 DUP1 PUSH2 0x93A DUP7 DUP7 DUP7 DUP7 PUSH2 0x1289 JUMP JUMPDEST SWAP1 POP PUSH1 0x4 PUSH2 0x947 DUP3 PUSH2 0xD51 JUMP JUMPDEST PUSH1 0x7 DUP2 GT ISZERO PUSH2 0x966 JUMPI PUSH4 0x4E487B71 PUSH1 0xE0 SHL PUSH1 0x0 MSTORE PUSH1 0x21 PUSH1 0x4 MSTORE PUSH1 0x24 PUSH1 0x0 REVERT JUMPDEST EQ PUSH2 0x983 JUMPI PUSH1 0x40 MLOAD PUSH3 0x461BCD PUSH1 0xE5 SHL DUP2 MSTORE PUSH1 0x4 ADD PUSH2 0x884 SWAP1 PUSH2 0x31B8 JUMP JUMPDEST PUSH1 0x7 SLOAD PUSH1 0x40 DUP1 MLOAD PUSH4 0x793D0649 PUSH1 0xE1 SHL DUP2 MSTORE SWAP1 MLOAD PUSH1 0x0 SWAP3 PUSH1 0x1 PUSH1 0x1 PUSH1 0xA0 SHL SUB AND SWAP2 PUSH4 0xF27A0C92 SWAP2 PUSH1 0x4 DUP1 DUP4 ADD SWAP3 PUSH1 0x20 SWAP3 SWAP2 SWAP1 DUP3 SWAP1 SUB ADD DUP2 DUP7 DUP1 EXTCODESIZE ISZERO DUP1 ISZERO PUSH2 0x9C8 JUMPI PUSH1 0x0 DUP1 REVERT JUMPDEST POP GAS STATICCALL ISZERO DUP1 ISZERO PUSH2 0x9DC JUMPI RETURNDATASIZE PUSH1 0x0 DUP1 RETURNDATACOPY RETURNDATASIZE PUSH1 0x0 REVERT JUMPDEST POP POP POP POP PUSH1 0x40 MLOAD RETURNDATASIZE PUSH1 0x1F NOT PUSH1 0x1F DUP3 ADD AND DUP3 ADD DUP1 PUSH1 0x40 MSTORE POP DUP2 ADD SWAP1 PUSH2 0xA00 SWAP2 SWAP1 PUSH2 0x2CCD JUMP JUMPDEST PUSH1 0x7 SLOAD PUSH1 0x40 MLOAD PUSH4 0xB1C5F427 PUSH1 0xE0 SHL DUP2 MSTORE SWAP2 SWAP3 POP PUSH1 0x1 PUSH1 0x1 PUSH1 0xA0 SHL SUB AND SWAP1 PUSH4 0xB1C5F427 SWAP1 PUSH2 0xA3A SWAP1 DUP11 SWAP1 DUP11 SWAP1 DUP11 SWAP1 PUSH1 0x0 SWAP1 DUP12 SWAP1 PUSH1 0x4 ADD PUSH2 0x302A JUMP JUMPDEST PUSH1 0x20 PUSH1 0x40 MLOAD DUP1 DUP4 SUB DUP2 DUP7 DUP1 EXTCODESIZE ISZERO DUP1 ISZERO PUSH2 0xA52 JUMPI PUSH1 0x0 DUP1 REVERT JUMPDEST POP GAS STATICCALL ISZERO DUP1 ISZERO PUSH2 0xA66 JUMPI RETURNDATASIZE PUSH1 0x0 DUP1 RETURNDATACOPY RETURNDATASIZE PUSH1 0x0 REVERT JUMPDEST POP POP POP POP PUSH1 0x40 MLOAD RETURNDATASIZE PUSH1 0x1F NOT PUSH1 0x1F DUP3 ADD AND DUP3 ADD DUP1 PUSH1 0x40 MSTORE POP DUP2 ADD SWAP1 PUSH2 0xA8A SWAP2 SWAP1 PUSH2 0x2CCD JUMP JUMPDEST PUSH1 0x0 DUP4 DUP2 MSTORE PUSH1 0x8 PUSH1 0x20 MSTORE PUSH1 0x40 DUP1 DUP3 KECCAK256 SWAP3 SWAP1 SWAP3 SSTORE PUSH1 0x7 SLOAD SWAP2 MLOAD PUSH4 0x8F2A0BB PUSH1 0xE4 SHL DUP2 MSTORE PUSH1 0x1 PUSH1 0x1 PUSH1 0xA0 SHL SUB SWAP1 SWAP3 AND SWAP2 PUSH4 0x8F2A0BB0 SWAP2 PUSH2 0xAD5 SWAP2 DUP12 SWAP2 DUP12 SWAP2 DUP12 SWAP2 SWAP1 DUP12 SWAP1 DUP10 SWAP1 PUSH1 0x4 ADD PUSH2 0x3078 JUMP JUMPDEST PUSH1 0x0 PUSH1 0x40 MLOAD DUP1 DUP4 SUB DUP2 PUSH1 0x0 DUP8 DUP1 EXTCODESIZE ISZERO DUP1 ISZERO PUSH2 0xAEF JUMPI PUSH1 0x0 DUP1 REVERT JUMPDEST POP GAS CALL ISZERO DUP1 ISZERO PUSH2 0xB03 JUMPI RETURNDATASIZE PUSH1 0x0 DUP1 RETURNDATACOPY RETURNDATASIZE PUSH1 0x0 REVERT JUMPDEST POP POP POP POP PUSH32 0x9A2E42FD6722813D69113E7D0079D3D940171428DF7373DF9C7F7617CFDA2892 DUP3 DUP3 TIMESTAMP PUSH2 0xB35 SWAP2 SWAP1 PUSH2 0x33F9 JUMP JUMPDEST PUSH1 0x40 DUP1 MLOAD SWAP3 DUP4 MSTORE PUSH1 0x20 DUP4 ADD SWAP2 SWAP1 SWAP2 MSTORE ADD PUSH1 0x40 MLOAD DUP1 SWAP2 SUB SWAP1 LOG1 POP SWAP6 SWAP5 POP POP POP POP POP JUMP JUMPDEST PUSH1 0x0 DUP1 PUSH2 0xB66 DUP7 DUP7 DUP7 DUP7 PUSH2 0x1289 JUMP JUMPDEST SWAP1 POP PUSH1 0x0 PUSH2 0xB73 DUP3 PUSH2 0xD51 JUMP JUMPDEST SWAP1 POP PUSH1 0x4 DUP2 PUSH1 0x7 DUP2 GT ISZERO PUSH2 0xB97 JUMPI PUSH4 0x4E487B71 PUSH1 0xE0 SHL PUSH1 0x0 MSTORE PUSH1 0x21 PUSH1 0x4 MSTORE PUSH1 0x24 PUSH1 0x0 REVERT JUMPDEST EQ DUP1 PUSH2 0xBC2 JUMPI POP PUSH1 0x5 DUP2 PUSH1 0x7 DUP2 GT ISZERO PUSH2 0xBC0 JUMPI PUSH4 0x4E487B71 PUSH1 0xE0 SHL PUSH1 0x0 MSTORE PUSH1 0x21 PUSH1 0x4 MSTORE PUSH1 0x24 PUSH1 0x0 REVERT JUMPDEST EQ JUMPDEST PUSH2 0xBDE JUMPI PUSH1 0x40 MLOAD PUSH3 0x461BCD PUSH1 0xE5 SHL DUP2 MSTORE PUSH1 0x4 ADD PUSH2 0x884 SWAP1 PUSH2 0x31B8 JUMP JUMPDEST PUSH1 0x0 DUP3 DUP2 MSTORE PUSH1 0x1 PUSH1 0x20 DUP2 DUP2 MSTORE PUSH1 0x40 SWAP3 DUP4 SWAP1 KECCAK256 PUSH1 0x2 ADD DUP1 SLOAD PUSH1 0xFF NOT AND SWAP1 SWAP3 OR SWAP1 SWAP2 SSTORE SWAP1 MLOAD DUP4 DUP2 MSTORE PUSH32 0x712AE1383F79AC853F8D882153778E0260EF8F03B504E2866E0593E04D2B291F SWAP2 ADD JUMPDEST PUSH1 0x40 MLOAD DUP1 SWAP2 SUB SWAP1 LOG1 PUSH2 0xC3D DUP3 DUP9 DUP9 DUP9 DUP9 PUSH2 0x14E1 JUMP JUMPDEST POP SWAP6 SWAP5 POP POP POP POP POP JUMP JUMPDEST PUSH1 0x0 DUP2 DUP2 MSTORE PUSH1 0x1 PUSH1 0x20 SWAP1 DUP2 MSTORE PUSH1 0x40 DUP1 DUP4 KECCAK256 DUP2 MLOAD SWAP3 DUP4 ADD SWAP1 SWAP2 MSTORE SLOAD PUSH1 0x1 PUSH1 0x1 PUSH1 0x40 SHL SUB AND SWAP1 DUP2 SWAP1 MSTORE JUMPDEST PUSH1 0x1 PUSH1 0x1 PUSH1 0x40 SHL SUB AND SWAP3 SWAP2 POP POP JUMP JUMPDEST PUSH1 0x0 PUSH2 0x82B PUSH1 0x2 SLOAD SWAP1 JUMP JUMPDEST PUSH1 0xA SLOAD PUSH1 0xB SLOAD PUSH1 0x40 MLOAD PUSH4 0x60F528DD PUSH1 0xE1 SHL DUP2 MSTORE CALLER PUSH1 0x4 DUP3 ADD MSTORE PUSH1 0x0 SWAP3 PUSH1 0x1 PUSH1 0x1 PUSH1 0xA0 SHL SUB SWAP1 DUP2 AND SWAP3 AND SWAP1 PUSH4 0xC1EA51BA SWAP1 PUSH1 0x24 ADD PUSH1 0x0 PUSH1 0x40 MLOAD DUP1 DUP4 SUB DUP2 DUP7 DUP1 EXTCODESIZE ISZERO DUP1 ISZERO PUSH2 0xCD4 JUMPI PUSH1 0x0 DUP1 REVERT JUMPDEST POP GAS STATICCALL ISZERO DUP1 ISZERO PUSH2 0xCE8 JUMPI RETURNDATASIZE PUSH1 0x0 DUP1 RETURNDATACOPY RETURNDATASIZE PUSH1 0x0 REVERT JUMPDEST POP POP POP POP PUSH1 0x40 MLOAD RETURNDATASIZE PUSH1 0x0 DUP3 RETURNDATACOPY PUSH1 0x1F RETURNDATASIZE SWAP1 DUP2 ADD PUSH1 0x1F NOT AND DUP3 ADD PUSH1 0x40 MSTORE PUSH2 0xD10 SWAP2 SWAP1 DUP2 ADD SWAP1 PUSH2 0x2D0D JUMP JUMPDEST PUSH1 0x40 ADD MLOAD PUSH1 0x1 PUSH1 0x1 PUSH1 0xA0 SHL SUB AND EQ PUSH2 0xD3A JUMPI PUSH1 0x40 MLOAD PUSH3 0x461BCD PUSH1 0xE5 SHL DUP2 MSTORE PUSH1 0x4 ADD PUSH2 0x884 SWAP1 PUSH2 0x31F9 JUMP JUMPDEST PUSH2 0xD47 DUP7 DUP7 DUP7 DUP7 DUP7 PUSH2 0x14EE JUMP JUMPDEST SWAP7 SWAP6 POP POP POP POP POP POP JUMP JUMPDEST PUSH1 0x0 DUP1 PUSH2 0xD5D DUP4 PUSH2 0x1582 JUMP JUMPDEST SWAP1 POP PUSH1 0x3 DUP2 PUSH1 0x7 DUP2 GT ISZERO PUSH2 0xD81 JUMPI PUSH4 0x4E487B71 PUSH1 0xE0 SHL PUSH1 0x0 MSTORE PUSH1 0x21 PUSH1 0x4 MSTORE PUSH1 0x24 PUSH1 0x0 REVERT JUMPDEST EQ DUP1 ISZERO PUSH2 0xD94 JUMPI POP PUSH2 0xD92 DUP4 PUSH2 0x16F8 JUMP JUMPDEST ISZERO JUMPDEST ISZERO PUSH2 0x83B JUMPI PUSH1 0x0 DUP4 DUP2 MSTORE PUSH1 0xC PUSH1 0x20 MSTORE PUSH1 0x40 SWAP1 KECCAK256 SLOAD PUSH1 0xFF AND ISZERO PUSH2 0xDB9 JUMPI POP PUSH1 0x7 SWAP3 SWAP2 POP POP JUMP JUMPDEST POP PUSH1 0x6 SWAP3 SWAP2 POP POP JUMP JUMPDEST POP SWAP2 SWAP1 POP JUMP JUMPDEST PUSH1 0xA SLOAD PUSH1 0xB SLOAD PUSH1 0x40 MLOAD PUSH4 0x60F528DD PUSH1 0xE1 SHL DUP2 MSTORE CALLER PUSH1 0x4 DUP3 ADD MSTORE PUSH1 0x0 SWAP3 PUSH1 0x1 PUSH1 0x1 PUSH1 0xA0 SHL SUB SWAP1 DUP2 AND SWAP3 AND SWAP1 PUSH4 0xC1EA51BA SWAP1 PUSH1 0x24 ADD PUSH1 0x0 PUSH1 0x40 MLOAD DUP1 DUP4 SUB DUP2 DUP7 DUP1 EXTCODESIZE ISZERO DUP1 ISZERO PUSH2 0xE13 JUMPI PUSH1 0x0 DUP1 REVERT JUMPDEST POP GAS STATICCALL ISZERO DUP1 ISZERO PUSH2 0xE27 JUMPI RETURNDATASIZE PUSH1 0x0 DUP1 RETURNDATACOPY RETURNDATASIZE PUSH1 0x0 REVERT JUMPDEST POP POP POP POP PUSH1 0x40 MLOAD RETURNDATASIZE PUSH1 0x0 DUP3 RETURNDATACOPY PUSH1 0x1F RETURNDATASIZE SWAP1 DUP2 ADD PUSH1 0x1F NOT AND DUP3 ADD PUSH1 0x40 MSTORE PUSH2 0xE4F SWAP2 SWAP1 DUP2 ADD SWAP1 PUSH2 0x2D0D JUMP JUMPDEST PUSH1 0x40 ADD MLOAD PUSH1 0x1 PUSH1 0x1 PUSH1 0xA0 SHL SUB AND EQ PUSH2 0xE79 JUMPI PUSH1 0x40 MLOAD PUSH3 0x461BCD PUSH1 0xE5 SHL DUP2 MSTORE PUSH1 0x4 ADD PUSH2 0x884 SWAP1 PUSH2 0x31F9 JUMP JUMPDEST PUSH2 0xE83 DUP4 DUP4 PUSH2 0x172F JUMP JUMPDEST SWAP4 SWAP3 POP POP POP JUMP JUMPDEST PUSH1 0x9 SLOAD PUSH1 0x0 SWAP1 PUSH1 0x1 PUSH1 0x1 PUSH1 0xA0 SHL SUB AND CALLER EQ PUSH2 0xEB7 JUMPI PUSH1 0x40 MLOAD PUSH3 0x461BCD PUSH1 0xE5 SHL DUP2 MSTORE PUSH1 0x4 ADD PUSH2 0x884 SWAP1 PUSH2 0x3183 JUMP JUMPDEST PUSH1 0x0 PUSH2 0xEC5 DUP7 DUP7 DUP7 DUP7 PUSH2 0x1289 JUMP JUMPDEST SWAP1 POP PUSH1 0x0 PUSH2 0xED2 DUP3 PUSH2 0xD51 JUMP JUMPDEST SWAP1 POP PUSH1 0x6 DUP2 PUSH1 0x7 DUP2 GT ISZERO PUSH2 0xEF6 JUMPI PUSH4 0x4E487B71 PUSH1 0xE0 SHL PUSH1 0x0 MSTORE PUSH1 0x21 PUSH1 0x4 MSTORE PUSH1 0x24 PUSH1 0x0 REVERT JUMPDEST EQ PUSH2 0xF4E JUMPI PUSH1 0x40 MLOAD PUSH3 0x461BCD PUSH1 0xE5 SHL DUP2 MSTORE PUSH1 0x20 PUSH1 0x4 DUP3 ADD MSTORE PUSH1 0x22 PUSH1 0x24 DUP3 ADD MSTORE PUSH32 0x48697665476F7665726E6F723A2070726F706F73616C206E6F74206578706972 PUSH1 0x44 DUP3 ADD MSTORE PUSH2 0x1959 PUSH1 0xF2 SHL PUSH1 0x64 DUP3 ADD MSTORE PUSH1 0x84 ADD PUSH2 0x884 JUMP JUMPDEST PUSH1 0x0 DUP3 DUP2 MSTORE PUSH1 0xC PUSH1 0x20 MSTORE PUSH1 0x40 SWAP1 DUP2 SWAP1 KECCAK256 DUP1 SLOAD PUSH1 0xFF NOT AND PUSH1 0x1 OR SWAP1 SSTORE MLOAD PUSH32 0x712AE1383F79AC853F8D882153778E0260EF8F03B504E2866E0593E04D2B291F SWAP1 PUSH2 0xC28 SWAP1 DUP5 DUP2 MSTORE PUSH1 0x20 ADD SWAP1 JUMP JUMPDEST PUSH2 0xFA1 PUSH2 0x817 JUMP JUMPDEST PUSH1 0x1 PUSH1 0x1 PUSH1 0xA0 SHL SUB AND CALLER PUSH1 0x1 PUSH1 0x1 PUSH1 0xA0 SHL SUB AND EQ PUSH2 0xFD1 JUMPI PUSH1 0x40 MLOAD PUSH3 0x461BCD PUSH1 0xE5 SHL DUP2 MSTORE PUSH1 0x4 ADD PUSH2 0x884 SWAP1 PUSH2 0x310B JUMP JUMPDEST PUSH2 0x896 DUP2 PUSH2 0x1758 JUMP JUMPDEST PUSH1 0x9 SLOAD PUSH1 0x1 PUSH1 0x1 PUSH1 0xA0 SHL SUB AND CALLER EQ PUSH2 0x1004 JUMPI PUSH1 0x40 MLOAD PUSH3 0x461BCD PUSH1 0xE5 SHL DUP2 MSTORE PUSH1 0x4 ADD PUSH2 0x884 SWAP1 PUSH2 0x3183 JUMP JUMPDEST PUSH2 0x100E PUSH1 0x0 PUSH2 0x1799 JUMP JUMPDEST JUMP JUMPDEST PUSH1 0xA SLOAD PUSH1 0xB SLOAD PUSH1 0x40 MLOAD PUSH4 0x60F528DD PUSH1 0xE1 SHL DUP2 MSTORE CALLER PUSH1 0x4 DUP3 ADD MSTORE PUSH1 0x0 SWAP3 PUSH1 0x1 PUSH1 0x1 PUSH1 0xA0 SHL SUB SWAP1 DUP2 AND SWAP3 AND SWAP1 PUSH4 0xC1EA51BA SWAP1 PUSH1 0x24 ADD PUSH1 0x0 PUSH1 0x40 MLOAD DUP1 DUP4 SUB DUP2 DUP7 DUP1 EXTCODESIZE ISZERO DUP1 ISZERO PUSH2 0x105B JUMPI PUSH1 0x0 DUP1 REVERT JUMPDEST POP GAS STATICCALL ISZERO DUP1 ISZERO PUSH2 0x106F JUMPI RETURNDATASIZE PUSH1 0x0 DUP1 RETURNDATACOPY RETURNDATASIZE PUSH1 0x0 REVERT JUMPDEST POP POP POP POP PUSH1 0x40 MLOAD RETURNDATASIZE PUSH1 0x0 DUP3 RETURNDATACOPY PUSH1 0x1F RETURNDATASIZE SWAP1 DUP2 ADD PUSH1 0x1F NOT AND DUP3 ADD PUSH1 0x40 MSTORE PUSH2 0x1097 SWAP2 SWAP1 DUP2 ADD SWAP1 PUSH2 0x2D0D JUMP JUMPDEST PUSH1 0x40 ADD MLOAD PUSH1 0x1 PUSH1 0x1 PUSH1 0xA0 SHL SUB AND EQ PUSH2 0x10C1 JUMPI PUSH1 0x40 MLOAD PUSH3 0x461BCD PUSH1 0xE5 SHL DUP2 MSTORE PUSH1 0x4 ADD PUSH2 0x884 SWAP1 PUSH2 0x31F9 JUMP JUMPDEST PUSH2 0x10CD DUP6 DUP6 DUP6 DUP6 PUSH2 0x17EB JUMP JUMPDEST SWAP6 SWAP5 POP POP POP POP POP JUMP JUMPDEST PUSH1 0x0 PUSH2 0x10CD DUP6 DUP6 DUP6 DUP6 PUSH2 0x1833 JUMP JUMPDEST PUSH2 0x10EC PUSH2 0x817 JUMP JUMPDEST PUSH1 0x1 PUSH1 0x1 PUSH1 0xA0 SHL SUB AND CALLER PUSH1 0x1 PUSH1 0x1 PUSH1 0xA0 SHL SUB AND EQ PUSH2 0x111C JUMPI PUSH1 0x40 MLOAD PUSH3 0x461BCD PUSH1 0xE5 SHL DUP2 MSTORE PUSH1 0x4 ADD PUSH2 0x884 SWAP1 PUSH2 0x310B JUMP JUMPDEST PUSH2 0x896 DUP2 PUSH2 0x1B1C JUMP JUMPDEST PUSH1 0x7 SLOAD PUSH1 0x0 DUP3 DUP2 MSTORE PUSH1 0x8 PUSH1 0x20 MSTORE PUSH1 0x40 DUP1 DUP3 KECCAK256 SLOAD SWAP1 MLOAD PUSH4 0xD45C4435 PUSH1 0xE0 SHL DUP2 MSTORE PUSH1 0x4 DUP2 ADD SWAP2 SWAP1 SWAP2 MSTORE SWAP1 SWAP2 DUP3 SWAP2 PUSH1 0x1 PUSH1 0x1 PUSH1 0xA0 SHL SUB SWAP1 SWAP2 AND SWAP1 PUSH4 0xD45C4435 SWAP1 PUSH1 0x24 ADD PUSH1 0x20 PUSH1 0x40 MLOAD DUP1 DUP4 SUB DUP2 DUP7 DUP1 EXTCODESIZE ISZERO DUP1 ISZERO PUSH2 0x117D JUMPI PUSH1 0x0 DUP1 REVERT JUMPDEST POP GAS STATICCALL ISZERO DUP1 ISZERO PUSH2 0x1191 JUMPI RETURNDATASIZE PUSH1 0x0 DUP1 RETURNDATACOPY RETURNDATASIZE PUSH1 0x0 REVERT JUMPDEST POP POP POP POP PUSH1 0x40 MLOAD RETURNDATASIZE PUSH1 0x1F NOT PUSH1 0x1F DUP3 ADD AND DUP3 ADD DUP1 PUSH1 0x40 MSTORE POP DUP2 ADD SWAP1 PUSH2 0x11B5 SWAP2 SWAP1 PUSH2 0x2CCD JUMP JUMPDEST SWAP1 POP DUP1 PUSH1 0x1 EQ PUSH2 0x11C5 JUMPI DUP1 PUSH2 0xE83 JUMP JUMPDEST PUSH1 0x0 SWAP4 SWAP3 POP POP POP JUMP JUMPDEST PUSH1 0x0 PUSH2 0x82B PUSH1 0x4 SLOAD SWAP1 JUMP JUMPDEST PUSH1 0x0 DUP2 DUP2 MSTORE PUSH1 0x1 PUSH1 0x20 DUP2 DUP2 MSTORE PUSH1 0x40 DUP1 DUP5 KECCAK256 DUP2 MLOAD SWAP3 DUP4 ADD SWAP1 SWAP2 MSTORE SWAP1 SWAP2 ADD SLOAD PUSH1 0x1 PUSH1 0x1 PUSH1 0x40 SHL SUB AND SWAP1 DUP2 SWAP1 MSTORE PUSH2 0xC6F JUMP JUMPDEST PUSH2 0x1210 PUSH2 0x817 JUMP JUMPDEST PUSH1 0x1 PUSH1 0x1 PUSH1 0xA0 SHL SUB AND CALLER PUSH1 0x1 PUSH1 0x1 PUSH1 0xA0 SHL SUB AND EQ PUSH2 0x1240 JUMPI PUSH1 0x40 MLOAD PUSH3 0x461BCD PUSH1 0xE5 SHL DUP2 MSTORE PUSH1 0x4 ADD PUSH2 0x884 SWAP1 PUSH2 0x310B JUMP JUMPDEST PUSH2 0x1282 DUP5 DUP4 DUP4 DUP1 DUP1 PUSH1 0x1F ADD PUSH1 0x20 DUP1 SWAP2 DIV MUL PUSH1 0x20 ADD PUSH1 0x40 MLOAD SWAP1 DUP2 ADD PUSH1 0x40 MSTORE DUP1 SWAP4 SWAP3 SWAP2 SWAP1 DUP2 DUP2 MSTORE PUSH1 0x20 ADD DUP4 DUP4 DUP1 DUP3 DUP5 CALLDATACOPY PUSH1 0x0 SWAP3 ADD SWAP2 SWAP1 SWAP2 MSTORE POP DUP9 SWAP3 POP PUSH2 0x1B85 SWAP2 POP POP JUMP JUMPDEST POP POP POP POP POP JUMP JUMPDEST PUSH1 0x0 DUP5 DUP5 DUP5 DUP5 PUSH1 0x40 MLOAD PUSH1 0x20 ADD PUSH2 0x12A2 SWAP5 SWAP4 SWAP3 SWAP2 SWAP1 PUSH2 0x2FDF JUMP JUMPDEST PUSH1 0x40 DUP1 MLOAD PUSH1 0x1F NOT DUP2 DUP5 SUB ADD DUP2 MSTORE SWAP2 SWAP1 MSTORE DUP1 MLOAD PUSH1 0x20 SWAP1 SWAP2 ADD KECCAK256 SWAP6 SWAP5 POP POP POP POP POP JUMP JUMPDEST PUSH2 0x12CB PUSH2 0x817 JUMP JUMPDEST PUSH1 0x1 PUSH1 0x1 PUSH1 0xA0 SHL SUB AND CALLER PUSH1 0x1 PUSH1 0x1 PUSH1 0xA0 SHL SUB AND EQ PUSH2 0x12FB JUMPI PUSH1 0x40 MLOAD PUSH3 0x461BCD PUSH1 0xE5 SHL DUP2 MSTORE PUSH1 0x4 ADD PUSH2 0x884 SWAP1 PUSH2 0x310B JUMP JUMPDEST PUSH2 0x896 DUP2 PUSH2 0x1BAB JUMP JUMPDEST PUSH1 0x0 PUSH2 0xE83 DUP4 DUP4 PUSH2 0x1C4C JUMP JUMPDEST PUSH2 0x1318 PUSH2 0x817 JUMP JUMPDEST PUSH1 0x1 PUSH1 0x1 PUSH1 0xA0 SHL SUB AND CALLER PUSH1 0x1 PUSH1 0x1 PUSH1 0xA0 SHL SUB AND EQ PUSH2 0x1348 JUMPI PUSH1 0x40 MLOAD PUSH3 0x461BCD PUSH1 0xE5 SHL DUP2 MSTORE PUSH1 0x4 ADD PUSH2 0x884 SWAP1 PUSH2 0x310B JUMP JUMPDEST PUSH2 0x896 DUP2 PUSH2 0x1CF1 JUMP JUMPDEST PUSH1 0x9 SLOAD PUSH1 0x1 PUSH1 0x1 PUSH1 0xA0 SHL SUB AND CALLER EQ PUSH2 0x137B JUMPI PUSH1 0x40 MLOAD PUSH3 0x461BCD PUSH1 0xE5 SHL DUP2 MSTORE PUSH1 0x4 ADD PUSH2 0x884 SWAP1 PUSH2 0x3183 JUMP JUMPDEST PUSH1 0x1 PUSH1 0x1 PUSH1 0xA0 SHL SUB DUP2 AND PUSH2 0x13E0 JUMPI PUSH1 0x40 MLOAD PUSH3 0x461BCD PUSH1 0xE5 SHL DUP2 MSTORE PUSH1 0x20 PUSH1 0x4 DUP3 ADD MSTORE PUSH1 0x26 PUSH1 0x24 DUP3 ADD MSTORE PUSH32 0x4F776E61626C653A206E6577206F776E657220697320746865207A65726F2061 PUSH1 0x44 DUP3 ADD MSTORE PUSH6 0x646472657373 PUSH1 0xD0 SHL PUSH1 0x64 DUP3 ADD MSTORE PUSH1 0x84 ADD PUSH2 0x884 JUMP JUMPDEST PUSH2 0x896 DUP2 PUSH2 0x1799 JUMP JUMPDEST PUSH1 0x0 PUSH2 0x83B DUP3 PUSH2 0x1D32 JUMP JUMPDEST PUSH1 0x0 PUSH1 0x1 PUSH1 0x1 PUSH1 0xE0 SHL SUB NOT DUP3 AND PUSH4 0x6E665CED PUSH1 0xE0 SHL EQ DUP1 PUSH2 0x83B JUMPI POP PUSH2 0x83B DUP3 PUSH2 0x1DE5 JUMP JUMPDEST PUSH1 0x64 DUP2 GT ISZERO PUSH2 0x149C JUMPI PUSH1 0x40 MLOAD PUSH3 0x461BCD PUSH1 0xE5 SHL DUP2 MSTORE PUSH1 0x20 PUSH1 0x4 DUP3 ADD MSTORE PUSH1 0x43 PUSH1 0x24 DUP3 ADD MSTORE PUSH32 0x476F7665726E6F72566F74657351756F72756D4672616374696F6E3A2071756F PUSH1 0x44 DUP3 ADD MSTORE PUSH32 0x72756D4E756D657261746F72206F7665722071756F72756D44656E6F6D696E61 PUSH1 0x64 DUP3 ADD MSTORE PUSH3 0x3A37B9 PUSH1 0xE9 SHL PUSH1 0x84 DUP3 ADD MSTORE PUSH1 0xA4 ADD PUSH2 0x884 JUMP JUMPDEST PUSH1 0x6 DUP1 SLOAD SWAP1 DUP3 SWAP1 SSTORE PUSH1 0x40 DUP1 MLOAD DUP3 DUP2 MSTORE PUSH1 0x20 DUP2 ADD DUP5 SWAP1 MSTORE PUSH32 0x553476BF02EF2726E8CE5CED78D63E26E602E4A2257B1F559418E24B4633997 SWAP2 ADD PUSH1 0x40 MLOAD DUP1 SWAP2 SUB SWAP1 LOG1 POP POP JUMP JUMPDEST PUSH2 0x1282 DUP6 DUP6 DUP6 DUP6 DUP6 PUSH2 0x1E1A JUMP JUMPDEST PUSH1 0x40 DUP1 MLOAD PUSH32 0x150214D74D59B7D1E90C73FC22EF3D991DD0A76B046543D4D80AB92D2A50328F PUSH1 0x20 DUP3 ADD MSTORE SWAP1 DUP2 ADD DUP7 SWAP1 MSTORE PUSH1 0xFF DUP6 AND PUSH1 0x60 DUP3 ADD MSTORE PUSH1 0x0 SWAP1 DUP2 SWAP1 PUSH2 0x155A SWAP1 PUSH2 0x1552 SWAP1 PUSH1 0x80 ADD PUSH1 0x40 MLOAD PUSH1 0x20 DUP2 DUP4 SUB SUB DUP2 MSTORE SWAP1 PUSH1 0x40 MSTORE DUP1 MLOAD SWAP1 PUSH1 0x20 ADD KECCAK256 PUSH2 0x1E8E JUMP JUMPDEST DUP7 DUP7 DUP7 PUSH2 0x1EDC JUMP JUMPDEST SWAP1 POP PUSH2 0x1577 DUP8 DUP3 DUP9 PUSH1 0x40 MLOAD DUP1 PUSH1 0x20 ADD PUSH1 0x40 MSTORE DUP1 PUSH1 0x0 DUP2 MSTORE POP PUSH2 0x1EFA JUMP JUMPDEST SWAP8 SWAP7 POP POP POP POP POP POP POP JUMP JUMPDEST PUSH1 0x0 DUP1 PUSH2 0x158E DUP4 PUSH2 0x2013 JUMP JUMPDEST SWAP1 POP PUSH1 0x4 DUP2 PUSH1 0x7 DUP2 GT ISZERO PUSH2 0x15B2 JUMPI PUSH4 0x4E487B71 PUSH1 0xE0 SHL PUSH1 0x0 MSTORE PUSH1 0x21 PUSH1 0x4 MSTORE PUSH1 0x24 PUSH1 0x0 REVERT JUMPDEST EQ PUSH2 0x15BD JUMPI SWAP3 SWAP2 POP POP JUMP JUMPDEST PUSH1 0x0 DUP4 DUP2 MSTORE PUSH1 0x8 PUSH1 0x20 MSTORE PUSH1 0x40 SWAP1 KECCAK256 SLOAD DUP1 PUSH2 0x15D8 JUMPI POP SWAP3 SWAP2 POP POP JUMP JUMPDEST PUSH1 0x7 SLOAD PUSH1 0x40 MLOAD PUSH4 0x2AB0F529 PUSH1 0xE0 SHL DUP2 MSTORE PUSH1 0x4 DUP2 ADD DUP4 SWAP1 MSTORE PUSH1 0x1 PUSH1 0x1 PUSH1 0xA0 SHL SUB SWAP1 SWAP2 AND SWAP1 PUSH4 0x2AB0F529 SWAP1 PUSH1 0x24 ADD PUSH1 0x20 PUSH1 0x40 MLOAD DUP1 DUP4 SUB DUP2 DUP7 DUP1 EXTCODESIZE ISZERO DUP1 ISZERO PUSH2 0x161C JUMPI PUSH1 0x0 DUP1 REVERT JUMPDEST POP GAS STATICCALL ISZERO DUP1 ISZERO PUSH2 0x1630 JUMPI RETURNDATASIZE PUSH1 0x0 DUP1 RETURNDATACOPY RETURNDATASIZE PUSH1 0x0 REVERT JUMPDEST POP POP POP POP PUSH1 0x40 MLOAD RETURNDATASIZE PUSH1 0x1F NOT PUSH1 0x1F DUP3 ADD AND DUP3 ADD DUP1 PUSH1 0x40 MSTORE POP DUP2 ADD SWAP1 PUSH2 0x1654 SWAP2 SWAP1 PUSH2 0x2CAD JUMP JUMPDEST ISZERO PUSH2 0x1663 JUMPI POP PUSH1 0x7 SWAP4 SWAP3 POP POP POP JUMP JUMPDEST PUSH1 0x7 SLOAD PUSH1 0x40 MLOAD PUSH4 0x2C258A9F PUSH1 0xE1 SHL DUP2 MSTORE PUSH1 0x4 DUP2 ADD DUP4 SWAP1 MSTORE PUSH1 0x1 PUSH1 0x1 PUSH1 0xA0 SHL SUB SWAP1 SWAP2 AND SWAP1 PUSH4 0x584B153E SWAP1 PUSH1 0x24 ADD PUSH1 0x20 PUSH1 0x40 MLOAD DUP1 DUP4 SUB DUP2 DUP7 DUP1 EXTCODESIZE ISZERO DUP1 ISZERO PUSH2 0x16A7 JUMPI PUSH1 0x0 DUP1 REVERT JUMPDEST POP GAS STATICCALL ISZERO DUP1 ISZERO PUSH2 0x16BB JUMPI RETURNDATASIZE PUSH1 0x0 DUP1 RETURNDATACOPY RETURNDATASIZE PUSH1 0x0 REVERT JUMPDEST POP POP POP POP PUSH1 0x40 MLOAD RETURNDATASIZE PUSH1 0x1F NOT PUSH1 0x1F DUP3 ADD AND DUP3 ADD DUP1 PUSH1 0x40 MSTORE POP DUP2 ADD SWAP1 PUSH2 0x16DF SWAP2 SWAP1 PUSH2 0x2CAD JUMP JUMPDEST ISZERO PUSH2 0x16EE JUMPI POP PUSH1 0x5 SWAP4 SWAP3 POP POP POP JUMP JUMPDEST POP PUSH1 0x2 SWAP4 SWAP3 POP POP POP JUMP JUMPDEST PUSH1 0x0 DUP2 DUP2 MSTORE PUSH1 0x5 PUSH1 0x20 MSTORE PUSH1 0x40 DUP2 KECCAK256 PUSH1 0x2 DUP2 ADD SLOAD PUSH1 0x1 DUP3 ADD SLOAD PUSH2 0x171A SWAP2 SWAP1 PUSH2 0x33F9 JUMP JUMPDEST PUSH2 0x1726 PUSH2 0x7DE DUP6 PUSH2 0xC47 JUMP JUMPDEST GT ISZERO SWAP4 SWAP3 POP POP POP JUMP JUMPDEST PUSH1 0x0 DUP1 CALLER SWAP1 POP PUSH2 0x1750 DUP5 DUP3 DUP6 PUSH1 0x40 MLOAD DUP1 PUSH1 0x20 ADD PUSH1 0x40 MSTORE DUP1 PUSH1 0x0 DUP2 MSTORE POP PUSH2 0x1EFA JUMP JUMPDEST SWAP5 SWAP4 POP POP POP POP JUMP JUMPDEST PUSH1 0x2 SLOAD PUSH1 0x40 DUP1 MLOAD SWAP2 DUP3 MSTORE PUSH1 0x20 DUP3 ADD DUP4 SWAP1 MSTORE PUSH32 0xC565B045403DC03C2EEA82B81A0465EDAD9E2E7FC4D97E11421C209DA93D7A93 SWAP2 ADD PUSH1 0x40 MLOAD DUP1 SWAP2 SUB SWAP1 LOG1 PUSH1 0x2 SSTORE JUMP JUMPDEST PUSH1 0x9 DUP1 SLOAD PUSH1 0x1 PUSH1 0x1 PUSH1 0xA0 SHL SUB DUP4 DUP2 AND PUSH1 0x1 PUSH1 0x1 PUSH1 0xA0 SHL SUB NOT DUP4 AND DUP2 OR SWAP1 SWAP4 SSTORE PUSH1 0x40 MLOAD SWAP2 AND SWAP2 SWAP1 DUP3 SWAP1 PUSH32 0x8BE0079C531659141344CD1FD0A4F28419497F9722A3DAAFE3B4186F6B6457E0 SWAP1 PUSH1 0x0 SWAP1 LOG3 POP POP JUMP JUMPDEST PUSH1 0x0 DUP1 CALLER SWAP1 POP PUSH2 0xD47 DUP7 DUP3 DUP8 DUP8 DUP8 DUP1 DUP1 PUSH1 0x1F ADD PUSH1 0x20 DUP1 SWAP2 DIV MUL PUSH1 0x20 ADD PUSH1 0x40 MLOAD SWAP1 DUP2 ADD PUSH1 0x40 MSTORE DUP1 SWAP4 SWAP3 SWAP2 SWAP1 DUP2 DUP2 MSTORE PUSH1 0x20 ADD DUP4 DUP4 DUP1 DUP3 DUP5 CALLDATACOPY PUSH1 0x0 SWAP3 ADD SWAP2 SWAP1 SWAP2 MSTORE POP PUSH2 0x1EFA SWAP3 POP POP POP JUMP JUMPDEST PUSH1 0x0 PUSH2 0x183D PUSH2 0x11CE JUMP JUMPDEST PUSH2 0x184C CALLER PUSH2 0x77E PUSH1 0x1 NUMBER PUSH2 0x347B JUMP JUMPDEST LT ISZERO PUSH2 0x18CC JUMPI PUSH1 0x40 MLOAD PUSH3 0x461BCD PUSH1 0xE5 SHL DUP2 MSTORE PUSH1 0x20 PUSH1 0x4 DUP3 ADD MSTORE PUSH1 0x43 PUSH1 0x24 DUP3 ADD MSTORE PUSH32 0x476F7665726E6F72436F6D7061746962696C697479427261766F3A2070726F70 PUSH1 0x44 DUP3 ADD MSTORE PUSH32 0x6F73657220766F7465732062656C6F772070726F706F73616C20746872657368 PUSH1 0x64 DUP3 ADD MSTORE PUSH3 0x1BDB19 PUSH1 0xEA SHL PUSH1 0x84 DUP3 ADD MSTORE PUSH1 0xA4 ADD PUSH2 0x884 JUMP JUMPDEST PUSH1 0x0 PUSH2 0x18E1 DUP7 DUP7 DUP7 DUP7 DUP1 MLOAD SWAP1 PUSH1 0x20 ADD KECCAK256 PUSH2 0x1289 JUMP JUMPDEST SWAP1 POP DUP5 MLOAD DUP7 MLOAD EQ PUSH2 0x1904 JUMPI PUSH1 0x40 MLOAD PUSH3 0x461BCD PUSH1 0xE5 SHL DUP2 MSTORE PUSH1 0x4 ADD PUSH2 0x884 SWAP1 PUSH2 0x3142 JUMP JUMPDEST DUP4 MLOAD DUP7 MLOAD EQ PUSH2 0x1925 JUMPI PUSH1 0x40 MLOAD PUSH3 0x461BCD PUSH1 0xE5 SHL DUP2 MSTORE PUSH1 0x4 ADD PUSH2 0x884 SWAP1 PUSH2 0x3142 JUMP JUMPDEST PUSH1 0x0 DUP7 MLOAD GT PUSH2 0x1976 JUMPI PUSH1 0x40 MLOAD PUSH3 0x461BCD PUSH1 0xE5 SHL DUP2 MSTORE PUSH1 0x20 PUSH1 0x4 DUP3 ADD MSTORE PUSH1 0x18 PUSH1 0x24 DUP3 ADD MSTORE PUSH32 0x476F7665726E6F723A20656D7074792070726F706F73616C0000000000000000 PUSH1 0x44 DUP3 ADD MSTORE PUSH1 0x64 ADD PUSH2 0x884 JUMP JUMPDEST PUSH1 0x0 DUP2 DUP2 MSTORE PUSH1 0x1 PUSH1 0x20 SWAP1 DUP2 MSTORE PUSH1 0x40 SWAP2 DUP3 SWAP1 KECCAK256 DUP3 MLOAD SWAP2 DUP3 ADD SWAP1 SWAP3 MSTORE DUP2 SLOAD PUSH1 0x1 PUSH1 0x1 PUSH1 0x40 SHL SUB AND SWAP1 DUP2 SWAP1 MSTORE ISZERO PUSH2 0x19F6 JUMPI PUSH1 0x40 MLOAD PUSH3 0x461BCD PUSH1 0xE5 SHL DUP2 MSTORE PUSH1 0x20 PUSH1 0x4 DUP3 ADD MSTORE PUSH1 0x21 PUSH1 0x24 DUP3 ADD MSTORE PUSH32 0x476F7665726E6F723A2070726F706F73616C20616C7265616479206578697374 PUSH1 0x44 DUP3 ADD MSTORE PUSH1 0x73 PUSH1 0xF8 SHL PUSH1 0x64 DUP3 ADD MSTORE PUSH1 0x84 ADD PUSH2 0x884 JUMP JUMPDEST PUSH1 0x0 PUSH2 0x1A08 PUSH2 0x1A03 PUSH2 0xC7E JUMP JUMPDEST PUSH2 0x211F JUMP JUMPDEST PUSH2 0x1A11 NUMBER PUSH2 0x211F JUMP JUMPDEST PUSH2 0x1A1B SWAP2 SWAP1 PUSH2 0x3411 JUMP JUMPDEST SWAP1 POP PUSH1 0x0 PUSH2 0x1A2A PUSH2 0x1A03 PUSH2 0x841 JUMP JUMPDEST PUSH2 0x1A34 SWAP1 DUP4 PUSH2 0x3411 JUMP JUMPDEST DUP4 SLOAD PUSH8 0xFFFFFFFFFFFFFFFF NOT AND PUSH1 0x1 PUSH1 0x1 PUSH1 0x40 SHL SUB DUP5 AND OR DUP5 SSTORE SWAP1 POP PUSH1 0x1 DUP4 ADD DUP1 SLOAD PUSH8 0xFFFFFFFFFFFFFFFF NOT AND PUSH1 0x1 PUSH1 0x1 PUSH1 0x40 SHL SUB DUP4 AND OR SWAP1 SSTORE PUSH32 0x7D84A6263AE0D98D3329BD7B46BB4E8D6F98CD35A7ADB45C274C8B7FD5EBD5E0 DUP5 CALLER DUP12 DUP12 DUP14 MLOAD PUSH1 0x1 PUSH1 0x1 PUSH1 0x40 SHL SUB DUP2 GT ISZERO PUSH2 0x1ABA JUMPI PUSH4 0x4E487B71 PUSH1 0xE0 SHL PUSH1 0x0 MSTORE PUSH1 0x41 PUSH1 0x4 MSTORE PUSH1 0x24 PUSH1 0x0 REVERT JUMPDEST PUSH1 0x40 MLOAD SWAP1 DUP1 DUP3 MSTORE DUP1 PUSH1 0x20 MUL PUSH1 0x20 ADD DUP3 ADD PUSH1 0x40 MSTORE DUP1 ISZERO PUSH2 0x1AED JUMPI DUP2 PUSH1 0x20 ADD JUMPDEST PUSH1 0x60 DUP2 MSTORE PUSH1 0x20 ADD SWAP1 PUSH1 0x1 SWAP1 SUB SWAP1 DUP2 PUSH2 0x1AD8 JUMPI SWAP1 POP JUMPDEST POP DUP13 DUP9 DUP9 DUP15 PUSH1 0x40 MLOAD PUSH2 0x1B07 SWAP10 SWAP9 SWAP8 SWAP7 SWAP6 SWAP5 SWAP4 SWAP3 SWAP2 SWAP1 PUSH2 0x3240 JUMP JUMPDEST PUSH1 0x40 MLOAD DUP1 SWAP2 SUB SWAP1 LOG1 POP SWAP2 SWAP8 SWAP7 POP POP POP POP POP POP POP JUMP JUMPDEST PUSH1 0x7 SLOAD PUSH1 0x40 DUP1 MLOAD PUSH1 0x1 PUSH1 0x1 PUSH1 0xA0 SHL SUB SWAP3 DUP4 AND DUP2 MSTORE SWAP2 DUP4 AND PUSH1 0x20 DUP4 ADD MSTORE PUSH32 0x8F74EA46EF7894F65EABFB5E6E695DE773A000B47C529AB559178069B226401 SWAP2 ADD PUSH1 0x40 MLOAD DUP1 SWAP2 SUB SWAP1 LOG1 PUSH1 0x7 DUP1 SLOAD PUSH1 0x1 PUSH1 0x1 PUSH1 0xA0 SHL SUB NOT AND PUSH1 0x1 PUSH1 0x1 PUSH1 0xA0 SHL SUB SWAP3 SWAP1 SWAP3 AND SWAP2 SWAP1 SWAP2 OR SWAP1 SSTORE JUMP JUMPDEST PUSH1 0x60 PUSH2 0x1750 DUP5 DUP5 DUP5 PUSH1 0x40 MLOAD DUP1 PUSH1 0x60 ADD PUSH1 0x40 MSTORE DUP1 PUSH1 0x29 DUP2 MSTORE PUSH1 0x20 ADD PUSH2 0x3539 PUSH1 0x29 SWAP2 CODECOPY PUSH2 0x218B JUMP JUMPDEST PUSH1 0x0 DUP2 GT PUSH2 0x1C0B JUMPI PUSH1 0x40 MLOAD PUSH3 0x461BCD PUSH1 0xE5 SHL DUP2 MSTORE PUSH1 0x20 PUSH1 0x4 DUP3 ADD MSTORE PUSH1 0x27 PUSH1 0x24 DUP3 ADD MSTORE PUSH32 0x476F7665726E6F7253657474696E67733A20766F74696E6720706572696F6420 PUSH1 0x44 DUP3 ADD MSTORE PUSH7 0x746F6F206C6F77 PUSH1 0xC8 SHL PUSH1 0x64 DUP3 ADD MSTORE PUSH1 0x84 ADD PUSH2 0x884 JUMP JUMPDEST PUSH1 0x3 SLOAD PUSH1 0x40 DUP1 MLOAD SWAP2 DUP3 MSTORE PUSH1 0x20 DUP3 ADD DUP4 SWAP1 MSTORE PUSH32 0x7E3F7F0708A84DE9203036ABAA450DCCC85AD5FF52F78C170F3EDB55CF5E8828 SWAP2 ADD PUSH1 0x40 MLOAD DUP1 SWAP2 SUB SWAP1 LOG1 PUSH1 0x3 SSTORE JUMP JUMPDEST PUSH1 0x40 MLOAD PUSH4 0x748D635 PUSH1 0xE3 SHL DUP2 MSTORE PUSH1 0x1 PUSH1 0x1 PUSH1 0xA0 SHL SUB DUP4 DUP2 AND PUSH1 0x4 DUP4 ADD MSTORE PUSH1 0x24 DUP3 ADD DUP4 SWAP1 MSTORE PUSH1 0x0 SWAP2 PUSH32 0x0 SWAP1 SWAP2 AND SWAP1 PUSH4 0x3A46B1A8 SWAP1 PUSH1 0x44 ADD PUSH1 0x20 PUSH1 0x40 MLOAD DUP1 DUP4 SUB DUP2 DUP7 DUP1 EXTCODESIZE ISZERO DUP1 ISZERO PUSH2 0x1CB9 JUMPI PUSH1 0x0 DUP1 REVERT JUMPDEST POP GAS STATICCALL ISZERO DUP1 ISZERO PUSH2 0x1CCD JUMPI RETURNDATASIZE PUSH1 0x0 DUP1 RETURNDATACOPY RETURNDATASIZE PUSH1 0x0 REVERT JUMPDEST POP POP POP POP PUSH1 0x40 MLOAD RETURNDATASIZE PUSH1 0x1F NOT PUSH1 0x1F DUP3 ADD AND DUP3 ADD DUP1 PUSH1 0x40 MSTORE POP DUP2 ADD SWAP1 PUSH2 0xE83 SWAP2 SWAP1 PUSH2 0x2CCD JUMP JUMPDEST PUSH1 0x4 SLOAD PUSH1 0x40 DUP1 MLOAD SWAP2 DUP3 MSTORE PUSH1 0x20 DUP3 ADD DUP4 SWAP1 MSTORE PUSH32 0xCCB45DA8D5717E6C4544694297C4BA5CF151D455C9BB0ED4FC7A38411BC05461 SWAP2 ADD PUSH1 0x40 MLOAD DUP1 SWAP2 SUB SWAP1 LOG1 PUSH1 0x4 SSTORE JUMP JUMPDEST PUSH1 0x0 PUSH1 0x64 PUSH1 0x6 SLOAD PUSH1 0x40 MLOAD PUSH4 0x2394E7A3 PUSH1 0xE2 SHL DUP2 MSTORE PUSH1 0x4 DUP2 ADD DUP6 SWAP1 MSTORE PUSH32 0x0 PUSH1 0x1 PUSH1 0x1 PUSH1 0xA0 SHL SUB AND SWAP1 PUSH4 0x8E539E8C SWAP1 PUSH1 0x24 ADD PUSH1 0x20 PUSH1 0x40 MLOAD DUP1 DUP4 SUB DUP2 DUP7 DUP1 EXTCODESIZE ISZERO DUP1 ISZERO PUSH2 0x1D99 JUMPI PUSH1 0x0 DUP1 REVERT JUMPDEST POP GAS STATICCALL ISZERO DUP1 ISZERO PUSH2 0x1DAD JUMPI RETURNDATASIZE PUSH1 0x0 DUP1 RETURNDATACOPY RETURNDATASIZE PUSH1 0x0 REVERT JUMPDEST POP POP POP POP PUSH1 0x40 MLOAD RETURNDATASIZE PUSH1 0x1F NOT PUSH1 0x1F DUP3 ADD AND DUP3 ADD DUP1 PUSH1 0x40 MSTORE POP DUP2 ADD SWAP1 PUSH2 0x1DD1 SWAP2 SWAP1 PUSH2 0x2CCD JUMP JUMPDEST PUSH2 0x1DDB SWAP2 SWAP1 PUSH2 0x345C JUMP JUMPDEST PUSH2 0x83B SWAP2 SWAP1 PUSH2 0x343C JUMP JUMPDEST PUSH1 0x0 PUSH1 0x1 PUSH1 0x1 PUSH1 0xE0 SHL SUB NOT DUP3 AND PUSH4 0xBF26D897 PUSH1 0xE0 SHL EQ DUP1 PUSH2 0x83B JUMPI POP PUSH4 0x1FFC9A7 PUSH1 0xE0 SHL PUSH1 0x1 PUSH1 0x1 PUSH1 0xE0 SHL SUB NOT DUP4 AND EQ PUSH2 0x83B JUMP JUMPDEST PUSH1 0x7 SLOAD PUSH1 0x40 MLOAD PUSH4 0xE38335E5 PUSH1 0xE0 SHL DUP2 MSTORE PUSH1 0x1 PUSH1 0x1 PUSH1 0xA0 SHL SUB SWAP1 SWAP2 AND SWAP1 PUSH4 0xE38335E5 SWAP1 CALLVALUE SWAP1 PUSH2 0x1E55 SWAP1 DUP9 SWAP1 DUP9 SWAP1 DUP9 SWAP1 PUSH1 0x0 SWAP1 DUP10 SWAP1 PUSH1 0x4 ADD PUSH2 0x302A JUMP JUMPDEST PUSH1 0x0 PUSH1 0x40 MLOAD DUP1 DUP4 SUB DUP2 DUP6 DUP9 DUP1 EXTCODESIZE ISZERO DUP1 ISZERO PUSH2 0x1E6E JUMPI PUSH1 0x0 DUP1 REVERT JUMPDEST POP GAS CALL ISZERO DUP1 ISZERO PUSH2 0x1E82 JUMPI RETURNDATASIZE PUSH1 0x0 DUP1 RETURNDATACOPY RETURNDATASIZE PUSH1 0x0 REVERT JUMPDEST POP POP POP POP POP POP POP POP POP POP JUMP JUMPDEST PUSH1 0x0 PUSH2 0x83B PUSH2 0x1E9B PUSH2 0x22B1 JUMP JUMPDEST DUP4 PUSH1 0x40 MLOAD PUSH2 0x1901 PUSH1 0xF0 SHL PUSH1 0x20 DUP3 ADD MSTORE PUSH1 0x22 DUP2 ADD DUP4 SWAP1 MSTORE PUSH1 0x42 DUP2 ADD DUP3 SWAP1 MSTORE PUSH1 0x0 SWAP1 PUSH1 0x62 ADD PUSH1 0x40 MLOAD PUSH1 0x20 DUP2 DUP4 SUB SUB DUP2 MSTORE SWAP1 PUSH1 0x40 MSTORE DUP1 MLOAD SWAP1 PUSH1 0x20 ADD KECCAK256 SWAP1 POP SWAP3 SWAP2 POP POP JUMP JUMPDEST PUSH1 0x0 DUP1 PUSH1 0x0 PUSH2 0x1EED DUP8 DUP8 DUP8 DUP8 PUSH2 0x23D8 JUMP JUMPDEST SWAP2 POP SWAP2 POP PUSH2 0xC3D DUP2 PUSH2 0x24C5 JUMP JUMPDEST PUSH1 0x0 DUP5 DUP2 MSTORE PUSH1 0x1 PUSH1 0x20 DUP2 SWAP1 MSTORE PUSH1 0x40 DUP3 KECCAK256 SWAP1 PUSH2 0x1F14 DUP8 PUSH2 0xD51 JUMP JUMPDEST PUSH1 0x7 DUP2 GT ISZERO PUSH2 0x1F33 JUMPI PUSH4 0x4E487B71 PUSH1 0xE0 SHL PUSH1 0x0 MSTORE PUSH1 0x21 PUSH1 0x4 MSTORE PUSH1 0x24 PUSH1 0x0 REVERT JUMPDEST EQ PUSH2 0x1F8C JUMPI PUSH1 0x40 MLOAD PUSH3 0x461BCD PUSH1 0xE5 SHL DUP2 MSTORE PUSH1 0x20 PUSH1 0x4 DUP3 ADD MSTORE PUSH1 0x23 PUSH1 0x24 DUP3 ADD MSTORE PUSH32 0x476F7665726E6F723A20766F7465206E6F742063757272656E746C7920616374 PUSH1 0x44 DUP3 ADD MSTORE PUSH3 0x697665 PUSH1 0xE8 SHL PUSH1 0x64 DUP3 ADD MSTORE PUSH1 0x84 ADD PUSH2 0x884 JUMP JUMPDEST PUSH1 0x40 DUP1 MLOAD PUSH1 0x20 DUP2 ADD SWAP1 SWAP2 MSTORE DUP2 SLOAD PUSH1 0x1 PUSH1 0x1 PUSH1 0x40 SHL SUB AND SWAP1 DUP2 SWAP1 MSTORE PUSH1 0x0 SWAP1 PUSH2 0x1FB4 SWAP1 DUP8 SWAP1 PUSH2 0x1304 JUMP JUMPDEST SWAP1 POP PUSH2 0x1FC2 DUP8 DUP8 DUP8 DUP5 PUSH2 0x26C6 JUMP JUMPDEST DUP6 PUSH1 0x1 PUSH1 0x1 PUSH1 0xA0 SHL SUB AND PUSH32 0xB8E138887D0AA13BAB447E82DE9D5C1777041ECD21CA36BA824FF1E6C07DDDA4 DUP9 DUP8 DUP5 DUP9 PUSH1 0x40 MLOAD PUSH2 0x2001 SWAP5 SWAP4 SWAP3 SWAP2 SWAP1 PUSH2 0x332E JUMP JUMPDEST PUSH1 0x40 MLOAD DUP1 SWAP2 SUB SWAP1 LOG2 SWAP7 SWAP6 POP POP POP POP POP POP JUMP JUMPDEST PUSH1 0x0 DUP2 DUP2 MSTORE PUSH1 0x1 PUSH1 0x20 MSTORE PUSH1 0x40 DUP2 KECCAK256 PUSH1 0x2 DUP2 ADD SLOAD PUSH1 0xFF AND ISZERO PUSH2 0x2037 JUMPI POP PUSH1 0x7 SWAP3 SWAP2 POP POP JUMP JUMPDEST PUSH1 0x2 DUP2 ADD SLOAD PUSH2 0x100 SWAP1 DIV PUSH1 0xFF AND ISZERO PUSH2 0x2052 JUMPI POP PUSH1 0x2 SWAP3 SWAP2 POP POP JUMP JUMPDEST PUSH1 0x0 PUSH2 0x205D DUP5 PUSH2 0xC47 JUMP JUMPDEST SWAP1 POP DUP1 PUSH2 0x20AC JUMPI PUSH1 0x40 MLOAD PUSH3 0x461BCD PUSH1 0xE5 SHL DUP2 MSTORE PUSH1 0x20 PUSH1 0x4 DUP3 ADD MSTORE PUSH1 0x1D PUSH1 0x24 DUP3 ADD MSTORE PUSH32 0x476F7665726E6F723A20756E6B6E6F776E2070726F706F73616C206964000000 PUSH1 0x44 DUP3 ADD MSTORE PUSH1 0x64 ADD PUSH2 0x884 JUMP JUMPDEST NUMBER DUP2 LT PUSH2 0x20BD JUMPI POP PUSH1 0x0 SWAP4 SWAP3 POP POP POP JUMP JUMPDEST PUSH1 0x0 PUSH2 0x20C8 DUP6 PUSH2 0x11D9 JUMP JUMPDEST SWAP1 POP NUMBER DUP2 LT PUSH2 0x20DC JUMPI POP PUSH1 0x1 SWAP5 SWAP4 POP POP POP POP JUMP JUMPDEST PUSH2 0x20E5 DUP6 PUSH2 0x16F8 JUMP JUMPDEST DUP1 ISZERO PUSH2 0x2104 JUMPI POP PUSH1 0x0 DUP6 DUP2 MSTORE PUSH1 0x5 PUSH1 0x20 MSTORE PUSH1 0x40 SWAP1 KECCAK256 DUP1 SLOAD PUSH1 0x1 SWAP1 SWAP2 ADD SLOAD GT JUMPDEST ISZERO PUSH2 0x2114 JUMPI POP PUSH1 0x4 SWAP5 SWAP4 POP POP POP POP JUMP JUMPDEST POP PUSH1 0x3 SWAP5 SWAP4 POP POP POP POP JUMP JUMPDEST PUSH1 0x0 PUSH1 0x1 PUSH1 0x1 PUSH1 0x40 SHL SUB DUP3 GT ISZERO PUSH2 0x2187 JUMPI PUSH1 0x40 MLOAD PUSH3 0x461BCD PUSH1 0xE5 SHL DUP2 MSTORE PUSH1 0x20 PUSH1 0x4 DUP3 ADD MSTORE PUSH1 0x26 PUSH1 0x24 DUP3 ADD MSTORE PUSH32 0x53616665436173743A2076616C756520646F65736E27742066697420696E2036 PUSH1 0x44 DUP3 ADD MSTORE PUSH6 0x342062697473 PUSH1 0xD0 SHL PUSH1 0x64 DUP3 ADD MSTORE PUSH1 0x84 ADD PUSH2 0x884 JUMP JUMPDEST POP SWAP1 JUMP JUMPDEST PUSH1 0x60 DUP3 SELFBALANCE LT ISZERO PUSH2 0x21EC JUMPI PUSH1 0x40 MLOAD PUSH3 0x461BCD PUSH1 0xE5 SHL DUP2 MSTORE PUSH1 0x20 PUSH1 0x4 DUP3 ADD MSTORE PUSH1 0x26 PUSH1 0x24 DUP3 ADD MSTORE PUSH32 0x416464726573733A20696E73756666696369656E742062616C616E636520666F PUSH1 0x44 DUP3 ADD MSTORE PUSH6 0x1C8818D85B1B PUSH1 0xD2 SHL PUSH1 0x64 DUP3 ADD MSTORE PUSH1 0x84 ADD PUSH2 0x884 JUMP JUMPDEST PUSH1 0x1 PUSH1 0x1 PUSH1 0xA0 SHL SUB DUP6 AND EXTCODESIZE PUSH2 0x2243 JUMPI PUSH1 0x40 MLOAD PUSH3 0x461BCD PUSH1 0xE5 SHL DUP2 MSTORE PUSH1 0x20 PUSH1 0x4 DUP3 ADD MSTORE PUSH1 0x1D PUSH1 0x24 DUP3 ADD MSTORE PUSH32 0x416464726573733A2063616C6C20746F206E6F6E2D636F6E7472616374000000 PUSH1 0x44 DUP3 ADD MSTORE PUSH1 0x64 ADD PUSH2 0x884 JUMP JUMPDEST PUSH1 0x0 DUP1 DUP7 PUSH1 0x1 PUSH1 0x1 PUSH1 0xA0 SHL SUB AND DUP6 DUP8 PUSH1 0x40 MLOAD PUSH2 0x225F SWAP2 SWAP1 PUSH2 0x2FC3 JUMP JUMPDEST PUSH1 0x0 PUSH1 0x40 MLOAD DUP1 DUP4 SUB DUP2 DUP6 DUP8 GAS CALL SWAP3 POP POP POP RETURNDATASIZE DUP1 PUSH1 0x0 DUP2 EQ PUSH2 0x229C JUMPI PUSH1 0x40 MLOAD SWAP2 POP PUSH1 0x1F NOT PUSH1 0x3F RETURNDATASIZE ADD AND DUP3 ADD PUSH1 0x40 MSTORE RETURNDATASIZE DUP3 MSTORE RETURNDATASIZE PUSH1 0x0 PUSH1 0x20 DUP5 ADD RETURNDATACOPY PUSH2 0x22A1 JUMP JUMPDEST PUSH1 0x60 SWAP2 POP JUMPDEST POP SWAP2 POP SWAP2 POP PUSH2 0x1577 DUP3 DUP3 DUP7 PUSH2 0x2845 JUMP JUMPDEST PUSH1 0x0 ADDRESS PUSH1 0x1 PUSH1 0x1 PUSH1 0xA0 SHL SUB PUSH32 0x0 AND EQ DUP1 ISZERO PUSH2 0x230A JUMPI POP PUSH32 0x0 CHAINID EQ JUMPDEST ISZERO PUSH2 0x2334 JUMPI POP PUSH32 0x0 SWAP1 JUMP JUMPDEST POP PUSH1 0x40 DUP1 MLOAD PUSH32 0x0 PUSH1 0x20 DUP1 DUP4 ADD SWAP2 SWAP1 SWAP2 MSTORE PUSH32 0x0 DUP3 DUP5 ADD MSTORE PUSH32 0x0 PUSH1 0x60 DUP4 ADD MSTORE CHAINID PUSH1 0x80 DUP4 ADD MSTORE ADDRESS PUSH1 0xA0 DUP1 DUP5 ADD SWAP2 SWAP1 SWAP2 MSTORE DUP4 MLOAD DUP1 DUP5 SUB SWAP1 SWAP2 ADD DUP2 MSTORE PUSH1 0xC0 SWAP1 SWAP3 ADD SWAP1 SWAP3 MSTORE DUP1 MLOAD SWAP2 ADD KECCAK256 SWAP1 JUMP JUMPDEST PUSH1 0x0 DUP1 PUSH32 0x7FFFFFFFFFFFFFFFFFFFFFFFFFFFFFFF5D576E7357A4501DDFE92F46681B20A0 DUP4 GT ISZERO PUSH2 0x240F JUMPI POP PUSH1 0x0 SWAP1 POP PUSH1 0x3 PUSH2 0x24BC JUMP JUMPDEST DUP5 PUSH1 0xFF AND PUSH1 0x1B EQ ISZERO DUP1 ISZERO PUSH2 0x2427 JUMPI POP DUP5 PUSH1 0xFF AND PUSH1 0x1C EQ ISZERO JUMPDEST ISZERO PUSH2 0x2438 JUMPI POP PUSH1 0x0 SWAP1 POP PUSH1 0x4 PUSH2 0x24BC JUMP JUMPDEST PUSH1 0x40 DUP1 MLOAD PUSH1 0x0 DUP1 DUP3 MSTORE PUSH1 0x20 DUP3 ADD DUP1 DUP5 MSTORE DUP10 SWAP1 MSTORE PUSH1 0xFF DUP9 AND SWAP3 DUP3 ADD SWAP3 SWAP1 SWAP3 MSTORE PUSH1 0x60 DUP2 ADD DUP7 SWAP1 MSTORE PUSH1 0x80 DUP2 ADD DUP6 SWAP1 MSTORE PUSH1 0x1 SWAP1 PUSH1 0xA0 ADD PUSH1 0x20 PUSH1 0x40 MLOAD PUSH1 0x20 DUP2 SUB SWAP1 DUP1 DUP5 SUB SWAP1 DUP6 GAS STATICCALL ISZERO DUP1 ISZERO PUSH2 0x248C JUMPI RETURNDATASIZE PUSH1 0x0 DUP1 RETURNDATACOPY RETURNDATASIZE PUSH1 0x0 REVERT JUMPDEST POP POP PUSH1 0x40 MLOAD PUSH1 0x1F NOT ADD MLOAD SWAP2 POP POP PUSH1 0x1 PUSH1 0x1 PUSH1 0xA0 SHL SUB DUP2 AND PUSH2 0x24B5 JUMPI PUSH1 0x0 PUSH1 0x1 SWAP3 POP SWAP3 POP POP PUSH2 0x24BC JUMP JUMPDEST SWAP2 POP PUSH1 0x0 SWAP1 POP JUMPDEST SWAP5 POP SWAP5 SWAP3 POP POP POP JUMP JUMPDEST PUSH1 0x0 DUP2 PUSH1 0x4 DUP2 GT ISZERO PUSH2 0x24E7 JUMPI PUSH4 0x4E487B71 PUSH1 0xE0 SHL PUSH1 0x0 MSTORE PUSH1 0x21 PUSH1 0x4 MSTORE PUSH1 0x24 PUSH1 0x0 REVERT JUMPDEST EQ ISZERO PUSH2 0x24F0 JUMPI POP JUMP JUMPDEST PUSH1 0x1 DUP2 PUSH1 0x4 DUP2 GT ISZERO PUSH2 0x2512 JUMPI PUSH4 0x4E487B71 PUSH1 0xE0 SHL PUSH1 0x0 MSTORE PUSH1 0x21 PUSH1 0x4 MSTORE PUSH1 0x24 PUSH1 0x0 REVERT JUMPDEST EQ ISZERO PUSH2 0x2560 JUMPI PUSH1 0x40 MLOAD PUSH3 0x461BCD PUSH1 0xE5 SHL DUP2 MSTORE PUSH1 0x20 PUSH1 0x4 DUP3 ADD MSTORE PUSH1 0x18 PUSH1 0x24 DUP3 ADD MSTORE PUSH32 0x45434453413A20696E76616C6964207369676E61747572650000000000000000 PUSH1 0x44 DUP3 ADD MSTORE PUSH1 0x64 ADD PUSH2 0x884 JUMP JUMPDEST PUSH1 0x2 DUP2 PUSH1 0x4 DUP2 GT ISZERO PUSH2 0x2582 JUMPI PUSH4 0x4E487B71 PUSH1 0xE0 SHL PUSH1 0x0 MSTORE PUSH1 0x21 PUSH1 0x4 MSTORE PUSH1 0x24 PUSH1 0x0 REVERT JUMPDEST EQ ISZERO PUSH2 0x25D0 JUMPI PUSH1 0x40 MLOAD PUSH3 0x461BCD PUSH1 0xE5 SHL DUP2 MSTORE PUSH1 0x20 PUSH1 0x4 DUP3 ADD MSTORE PUSH1 0x1F PUSH1 0x24 DUP3 ADD MSTORE PUSH32 0x45434453413A20696E76616C6964207369676E6174757265206C656E67746800 PUSH1 0x44 DUP3 ADD MSTORE PUSH1 0x64 ADD PUSH2 0x884 JUMP JUMPDEST PUSH1 0x3 DUP2 PUSH1 0x4 DUP2 GT ISZERO PUSH2 0x25F2 JUMPI PUSH4 0x4E487B71 PUSH1 0xE0 SHL PUSH1 0x0 MSTORE PUSH1 0x21 PUSH1 0x4 MSTORE PUSH1 0x24 PUSH1 0x0 REVERT JUMPDEST EQ ISZERO PUSH2 0x264B JUMPI PUSH1 0x40 MLOAD PUSH3 0x461BCD PUSH1 0xE5 SHL DUP2 MSTORE PUSH1 0x20 PUSH1 0x4 DUP3 ADD MSTORE PUSH1 0x22 PUSH1 0x24 DUP3 ADD MSTORE PUSH32 0x45434453413A20696E76616C6964207369676E6174757265202773272076616C PUSH1 0x44 DUP3 ADD MSTORE PUSH2 0x7565 PUSH1 0xF0 SHL PUSH1 0x64 DUP3 ADD MSTORE PUSH1 0x84 ADD PUSH2 0x884 JUMP JUMPDEST PUSH1 0x4 DUP2 PUSH1 0x4 DUP2 GT ISZERO PUSH2 0x266D JUMPI PUSH4 0x4E487B71 PUSH1 0xE0 SHL PUSH1 0x0 MSTORE PUSH1 0x21 PUSH1 0x4 MSTORE PUSH1 0x24 PUSH1 0x0 REVERT JUMPDEST EQ ISZERO PUSH2 0x896 JUMPI PUSH1 0x40 MLOAD PUSH3 0x461BCD PUSH1 0xE5 SHL DUP2 MSTORE PUSH1 0x20 PUSH1 0x4 DUP3 ADD MSTORE PUSH1 0x22 PUSH1 0x24 DUP3 ADD MSTORE PUSH32 0x45434453413A20696E76616C6964207369676E6174757265202776272076616C PUSH1 0x44 DUP3 ADD MSTORE PUSH2 0x7565 PUSH1 0xF0 SHL PUSH1 0x64 DUP3 ADD MSTORE PUSH1 0x84 ADD PUSH2 0x884 JUMP JUMPDEST PUSH1 0x0 DUP5 DUP2 MSTORE PUSH1 0x5 PUSH1 0x20 SWAP1 DUP2 MSTORE PUSH1 0x40 DUP1 DUP4 KECCAK256 PUSH1 0x1 PUSH1 0x1 PUSH1 0xA0 SHL SUB DUP8 AND DUP5 MSTORE PUSH1 0x3 DUP2 ADD SWAP1 SWAP3 MSTORE SWAP1 SWAP2 KECCAK256 SLOAD PUSH1 0xFF AND ISZERO PUSH2 0x274E JUMPI PUSH1 0x40 MLOAD PUSH3 0x461BCD PUSH1 0xE5 SHL DUP2 MSTORE PUSH1 0x20 PUSH1 0x4 DUP3 ADD MSTORE PUSH1 0x27 PUSH1 0x24 DUP3 ADD MSTORE PUSH32 0x476F7665726E6F72566F74696E6753696D706C653A20766F746520616C726561 PUSH1 0x44 DUP3 ADD MSTORE PUSH7 0x191E4818D85CDD PUSH1 0xCA SHL PUSH1 0x64 DUP3 ADD MSTORE PUSH1 0x84 ADD PUSH2 0x884 JUMP JUMPDEST PUSH1 0x1 PUSH1 0x1 PUSH1 0xA0 SHL SUB DUP5 AND PUSH1 0x0 SWAP1 DUP2 MSTORE PUSH1 0x3 DUP3 ADD PUSH1 0x20 MSTORE PUSH1 0x40 DUP2 KECCAK256 DUP1 SLOAD PUSH1 0xFF NOT AND PUSH1 0x1 OR SWAP1 SSTORE PUSH1 0xFF AND DUP4 PUSH1 0xFF AND EQ ISZERO PUSH2 0x279F JUMPI DUP2 DUP2 PUSH1 0x0 ADD PUSH1 0x0 DUP3 DUP3 SLOAD PUSH2 0x2794 SWAP2 SWAP1 PUSH2 0x33F9 JUMP JUMPDEST SWAP1 SWAP2 SSTORE POP PUSH2 0x1282 SWAP1 POP JUMP JUMPDEST PUSH1 0xFF DUP4 AND PUSH1 0x1 EQ ISZERO PUSH2 0x27BF JUMPI DUP2 DUP2 PUSH1 0x1 ADD PUSH1 0x0 DUP3 DUP3 SLOAD PUSH2 0x2794 SWAP2 SWAP1 PUSH2 0x33F9 JUMP JUMPDEST PUSH1 0xFF DUP4 AND PUSH1 0x2 EQ ISZERO PUSH2 0x27DF JUMPI DUP2 DUP2 PUSH1 0x2 ADD PUSH1 0x0 DUP3 DUP3 SLOAD PUSH2 0x2794 SWAP2 SWAP1 PUSH2 0x33F9 JUMP JUMPDEST PUSH1 0x40 MLOAD PUSH3 0x461BCD PUSH1 0xE5 SHL DUP2 MSTORE PUSH1 0x20 PUSH1 0x4 DUP3 ADD MSTORE PUSH1 0x35 PUSH1 0x24 DUP3 ADD MSTORE PUSH32 0x476F7665726E6F72566F74696E6753696D706C653A20696E76616C6964207661 PUSH1 0x44 DUP3 ADD MSTORE PUSH21 0x6C756520666F7220656E756D20566F746554797065 PUSH1 0x58 SHL PUSH1 0x64 DUP3 ADD MSTORE PUSH1 0x84 ADD PUSH2 0x884 JUMP JUMPDEST PUSH1 0x60 DUP4 ISZERO PUSH2 0x2854 JUMPI POP DUP2 PUSH2 0xE83 JUMP JUMPDEST DUP3 MLOAD ISZERO PUSH2 0x2864 JUMPI DUP3 MLOAD DUP1 DUP5 PUSH1 0x20 ADD REVERT JUMPDEST DUP2 PUSH1 0x40 MLOAD PUSH3 0x461BCD PUSH1 0xE5 SHL DUP2 MSTORE PUSH1 0x4 ADD PUSH2 0x884 SWAP2 SWAP1 PUSH2 0x30F8 JUMP JUMPDEST PUSH1 0x0 PUSH2 0x2891 PUSH2 0x288C DUP5 PUSH2 0x33D2 JUMP JUMPDEST PUSH2 0x337F JUMP JUMPDEST SWAP1 POP DUP3 DUP2 MSTORE DUP4 DUP4 DUP4 ADD GT ISZERO PUSH2 0x28A5 JUMPI PUSH1 0x0 DUP1 REVERT JUMPDEST DUP3 DUP3 PUSH1 0x20 DUP4 ADD CALLDATACOPY PUSH1 0x0 PUSH1 0x20 DUP5 DUP4 ADD ADD MSTORE SWAP4 SWAP3 POP POP POP JUMP JUMPDEST DUP1 MLOAD PUSH2 0x28C7 DUP2 PUSH2 0x3523 JUMP JUMPDEST SWAP2 SWAP1 POP JUMP JUMPDEST PUSH1 0x0 DUP3 PUSH1 0x1F DUP4 ADD SLT PUSH2 0x28DC JUMPI DUP1 DUP2 REVERT JUMPDEST DUP2 CALLDATALOAD PUSH1 0x20 PUSH2 0x28EC PUSH2 0x288C DUP4 PUSH2 0x33AF JUMP JUMPDEST DUP1 DUP4 DUP3 MSTORE DUP3 DUP3 ADD SWAP2 POP DUP3 DUP7 ADD DUP8 DUP5 DUP7 PUSH1 0x5 SHL DUP10 ADD ADD GT ISZERO PUSH2 0x290B JUMPI DUP6 DUP7 REVERT JUMPDEST DUP6 JUMPDEST DUP6 DUP2 LT ISZERO PUSH2 0x2932 JUMPI DUP2 CALLDATALOAD PUSH2 0x2920 DUP2 PUSH2 0x3523 JUMP JUMPDEST DUP5 MSTORE SWAP3 DUP5 ADD SWAP3 SWAP1 DUP5 ADD SWAP1 PUSH1 0x1 ADD PUSH2 0x290D JUMP JUMPDEST POP SWAP1 SWAP8 SWAP7 POP POP POP POP POP POP POP JUMP JUMPDEST PUSH1 0x0 DUP3 PUSH1 0x1F DUP4 ADD SLT PUSH2 0x294F JUMPI DUP1 DUP2 REVERT JUMPDEST DUP2 CALLDATALOAD PUSH1 0x20 PUSH2 0x295F PUSH2 0x288C DUP4 PUSH2 0x33AF JUMP JUMPDEST DUP1 DUP4 DUP3 MSTORE DUP3 DUP3 ADD SWAP2 POP DUP3 DUP7 ADD DUP8 DUP5 DUP7 PUSH1 0x5 SHL DUP10 ADD ADD GT ISZERO PUSH2 0x297E JUMPI DUP6 DUP7 REVERT JUMPDEST DUP6 JUMPDEST DUP6 DUP2 LT ISZERO PUSH2 0x2932 JUMPI DUP2 CALLDATALOAD PUSH1 0x1 PUSH1 0x1 PUSH1 0x40 SHL SUB DUP2 GT ISZERO PUSH2 0x299D JUMPI DUP8 DUP9 REVERT JUMPDEST DUP9 ADD PUSH1 0x3F DUP2 ADD DUP11 SGT PUSH2 0x29AD JUMPI DUP8 DUP9 REVERT JUMPDEST PUSH2 0x29BE DUP11 DUP8 DUP4 ADD CALLDATALOAD PUSH1 0x40 DUP5 ADD PUSH2 0x287E JUMP JUMPDEST DUP6 MSTORE POP SWAP3 DUP5 ADD SWAP3 SWAP1 DUP5 ADD SWAP1 PUSH1 0x1 ADD PUSH2 0x2980 JUMP JUMPDEST PUSH1 0x0 DUP3 PUSH1 0x1F DUP4 ADD SLT PUSH2 0x29E1 JUMPI DUP1 DUP2 REVERT JUMPDEST DUP2 CALLDATALOAD PUSH1 0x20 PUSH2 0x29F1 PUSH2 0x288C DUP4 PUSH2 0x33AF JUMP JUMPDEST DUP1 DUP4 DUP3 MSTORE DUP3 DUP3 ADD SWAP2 POP DUP3 DUP7 ADD DUP8 DUP5 DUP7 PUSH1 0x5 SHL DUP10 ADD ADD GT ISZERO PUSH2 0x2A10 JUMPI DUP6 DUP7 REVERT JUMPDEST DUP6 JUMPDEST DUP6 DUP2 LT ISZERO PUSH2 0x2932 JUMPI DUP2 CALLDATALOAD DUP5 MSTORE SWAP3 DUP5 ADD SWAP3 SWAP1 DUP5 ADD SWAP1 PUSH1 0x1 ADD PUSH2 0x2A12 JUMP JUMPDEST PUSH1 0x0 DUP1 DUP4 PUSH1 0x1F DUP5 ADD SLT PUSH2 0x2A3F JUMPI DUP2 DUP3 REVERT JUMPDEST POP DUP2 CALLDATALOAD PUSH1 0x1 PUSH1 0x1 PUSH1 0x40 SHL SUB DUP2 GT ISZERO PUSH2 0x2A55 JUMPI DUP2 DUP3 REVERT JUMPDEST PUSH1 0x20 DUP4 ADD SWAP2 POP DUP4 PUSH1 0x20 DUP3 DUP6 ADD ADD GT ISZERO PUSH2 0x2A6D JUMPI PUSH1 0x0 DUP1 REVERT JUMPDEST SWAP3 POP SWAP3 SWAP1 POP JUMP JUMPDEST PUSH1 0x0 DUP3 PUSH1 0x1F DUP4 ADD SLT PUSH2 0x2A84 JUMPI DUP1 DUP2 REVERT JUMPDEST DUP2 MLOAD PUSH2 0x2A92 PUSH2 0x288C DUP3 PUSH2 0x33D2 JUMP JUMPDEST DUP2 DUP2 MSTORE DUP5 PUSH1 0x20 DUP4 DUP7 ADD ADD GT ISZERO PUSH2 0x2AA6 JUMPI DUP3 DUP4 REVERT JUMPDEST PUSH2 0x1750 DUP3 PUSH1 0x20 DUP4 ADD PUSH1 0x20 DUP8 ADD PUSH2 0x3492 JUMP JUMPDEST DUP1 CALLDATALOAD PUSH1 0xFF DUP2 AND DUP2 EQ PUSH2 0x28C7 JUMPI PUSH1 0x0 DUP1 REVERT JUMPDEST PUSH1 0x0 PUSH1 0x20 DUP3 DUP5 SUB SLT ISZERO PUSH2 0x2AD9 JUMPI DUP1 DUP2 REVERT JUMPDEST DUP2 CALLDATALOAD PUSH2 0xE83 DUP2 PUSH2 0x3523 JUMP JUMPDEST PUSH1 0x0 DUP1 PUSH1 0x40 DUP4 DUP6 SUB SLT ISZERO PUSH2 0x2AF6 JUMPI DUP1 DUP2 REVERT JUMPDEST DUP3 CALLDATALOAD PUSH2 0x2B01 DUP2 PUSH2 0x3523 JUMP JUMPDEST SWAP5 PUSH1 0x20 SWAP4 SWAP1 SWAP4 ADD CALLDATALOAD SWAP4 POP POP POP JUMP JUMPDEST PUSH1 0x0 DUP1 PUSH1 0x0 DUP1 PUSH1 0x60 DUP6 DUP8 SUB SLT ISZERO PUSH2 0x2B24 JUMPI DUP2 DUP3 REVERT JUMPDEST DUP5 CALLDATALOAD PUSH2 0x2B2F DUP2 PUSH2 0x3523 JUMP JUMPDEST SWAP4 POP PUSH1 0x20 DUP6 ADD CALLDATALOAD SWAP3 POP PUSH1 0x40 DUP6 ADD CALLDATALOAD PUSH1 0x1 PUSH1 0x1 PUSH1 0x40 SHL SUB DUP2 GT ISZERO PUSH2 0x2B50 JUMPI DUP3 DUP4 REVERT JUMPDEST PUSH2 0x2B5C DUP8 DUP3 DUP9 ADD PUSH2 0x2A2E JUMP JUMPDEST SWAP6 SWAP9 SWAP5 SWAP8 POP SWAP6 POP POP POP POP JUMP JUMPDEST PUSH1 0x0 DUP1 PUSH1 0x0 DUP1 PUSH1 0x80 DUP6 DUP8 SUB SLT ISZERO PUSH2 0x2B7D JUMPI DUP2 DUP3 REVERT JUMPDEST DUP5 CALLDATALOAD PUSH1 0x1 PUSH1 0x1 PUSH1 0x40 SHL SUB DUP1 DUP3 GT ISZERO PUSH2 0x2B93 JUMPI DUP4 DUP5 REVERT JUMPDEST PUSH2 0x2B9F DUP9 DUP4 DUP10 ADD PUSH2 0x28CC JUMP JUMPDEST SWAP6 POP PUSH1 0x20 DUP8 ADD CALLDATALOAD SWAP2 POP DUP1 DUP3 GT ISZERO PUSH2 0x2BB4 JUMPI DUP4 DUP5 REVERT JUMPDEST PUSH2 0x2BC0 DUP9 DUP4 DUP10 ADD PUSH2 0x29D1 JUMP JUMPDEST SWAP5 POP PUSH1 0x40 DUP8 ADD CALLDATALOAD SWAP2 POP DUP1 DUP3 GT ISZERO PUSH2 0x2BD5 JUMPI DUP4 DUP5 REVERT JUMPDEST POP PUSH2 0x2BE2 DUP8 DUP3 DUP9 ADD PUSH2 0x293F JUMP JUMPDEST SWAP5 SWAP8 SWAP4 SWAP7 POP SWAP4 SWAP5 PUSH1 0x60 ADD CALLDATALOAD SWAP4 POP POP POP JUMP JUMPDEST PUSH1 0x0 DUP1 PUSH1 0x0 DUP1 PUSH1 0x80 DUP6 DUP8 SUB SLT ISZERO PUSH2 0x2C08 JUMPI DUP2 DUP3 REVERT JUMPDEST DUP5 CALLDATALOAD PUSH1 0x1 PUSH1 0x1 PUSH1 0x40 SHL SUB DUP1 DUP3 GT ISZERO PUSH2 0x2C1E JUMPI DUP4 DUP5 REVERT JUMPDEST PUSH2 0x2C2A DUP9 DUP4 DUP10 ADD PUSH2 0x28CC JUMP JUMPDEST SWAP6 POP PUSH1 0x20 DUP8 ADD CALLDATALOAD SWAP2 POP DUP1 DUP3 GT ISZERO PUSH2 0x2C3F JUMPI DUP4 DUP5 REVERT JUMPDEST PUSH2 0x2C4B DUP9 DUP4 DUP10 ADD PUSH2 0x29D1 JUMP JUMPDEST SWAP5 POP PUSH1 0x40 DUP8 ADD CALLDATALOAD SWAP2 POP DUP1 DUP3 GT ISZERO PUSH2 0x2C60 JUMPI DUP4 DUP5 REVERT JUMPDEST PUSH2 0x2C6C DUP9 DUP4 DUP10 ADD PUSH2 0x293F JUMP JUMPDEST SWAP4 POP PUSH1 0x60 DUP8 ADD CALLDATALOAD SWAP2 POP DUP1 DUP3 GT ISZERO PUSH2 0x2C81 JUMPI DUP3 DUP4 REVERT JUMPDEST POP DUP6 ADD PUSH1 0x1F DUP2 ADD DUP8 SGT PUSH2 0x2C92 JUMPI DUP2 DUP3 REVERT JUMPDEST PUSH2 0x2CA1 DUP8 DUP3 CALLDATALOAD PUSH1 0x20 DUP5 ADD PUSH2 0x287E JUMP JUMPDEST SWAP2 POP POP SWAP3 SWAP6 SWAP2 SWAP5 POP SWAP3 POP JUMP JUMPDEST PUSH1 0x0 PUSH1 0x20 DUP3 DUP5 SUB SLT ISZERO PUSH2 0x2CBE JUMPI DUP1 DUP2 REVERT JUMPDEST DUP2 MLOAD DUP1 ISZERO ISZERO DUP2 EQ PUSH2 0xE83 JUMPI DUP2 DUP3 REVERT JUMPDEST PUSH1 0x0 PUSH1 0x20 DUP3 DUP5 SUB SLT ISZERO PUSH2 0x2CDE JUMPI DUP1 DUP2 REVERT JUMPDEST POP MLOAD SWAP2 SWAP1 POP JUMP JUMPDEST PUSH1 0x0 PUSH1 0x20 DUP3 DUP5 SUB SLT ISZERO PUSH2 0x2CF6 JUMPI DUP1 DUP2 REVERT JUMPDEST DUP2 CALLDATALOAD PUSH1 0x1 PUSH1 0x1 PUSH1 0xE0 SHL SUB NOT DUP2 AND DUP2 EQ PUSH2 0xE83 JUMPI DUP2 DUP3 REVERT JUMPDEST PUSH1 0x0 PUSH1 0x20 DUP3 DUP5 SUB SLT ISZERO PUSH2 0x2D1E JUMPI DUP1 DUP2 REVERT JUMPDEST DUP2 MLOAD PUSH1 0x1 PUSH1 0x1 PUSH1 0x40 SHL SUB DUP1 DUP3 GT ISZERO PUSH2 0x2D34 JUMPI DUP3 DUP4 REVERT JUMPDEST SWAP1 DUP4 ADD SWAP1 PUSH2 0x120 DUP3 DUP7 SUB SLT ISZERO PUSH2 0x2D48 JUMPI DUP3 DUP4 REVERT JUMPDEST PUSH2 0x2D50 PUSH2 0x3356 JUMP JUMPDEST DUP3 MLOAD DUP2 MSTORE PUSH1 0x20 DUP4 ADD MLOAD DUP3 DUP2 GT ISZERO PUSH2 0x2D65 JUMPI DUP5 DUP6 REVERT JUMPDEST PUSH2 0x2D71 DUP8 DUP3 DUP7 ADD PUSH2 0x2A74 JUMP JUMPDEST PUSH1 0x20 DUP4 ADD MSTORE POP PUSH2 0x2D83 PUSH1 0x40 DUP5 ADD PUSH2 0x28BC JUMP JUMPDEST PUSH1 0x40 DUP3 ADD MSTORE PUSH1 0x60 DUP4 ADD MLOAD PUSH1 0x60 DUP3 ADD MSTORE PUSH1 0x80 DUP4 ADD MLOAD PUSH1 0x80 DUP3 ADD MSTORE PUSH1 0xA0 DUP4 ADD MLOAD PUSH1 0xA0 DUP3 ADD MSTORE PUSH1 0xC0 DUP4 ADD MLOAD PUSH1 0xC0 DUP3 ADD MSTORE PUSH1 0xE0 DUP4 ADD MLOAD PUSH1 0xE0 DUP3 ADD MSTORE PUSH2 0x100 SWAP2 POP DUP2 DUP4 ADD MLOAD DUP3 DUP3 ADD MSTORE DUP1 SWAP4 POP POP POP POP SWAP3 SWAP2 POP POP JUMP JUMPDEST PUSH1 0x0 PUSH1 0x20 DUP3 DUP5 SUB SLT ISZERO PUSH2 0x2DE4 JUMPI DUP1 DUP2 REVERT JUMPDEST POP CALLDATALOAD SWAP2 SWAP1 POP JUMP JUMPDEST PUSH1 0x0 DUP1 PUSH1 0x40 DUP4 DUP6 SUB SLT ISZERO PUSH2 0x2DFD JUMPI DUP2 DUP3 REVERT JUMPDEST DUP3 CALLDATALOAD SWAP2 POP PUSH1 0x20 DUP4 ADD CALLDATALOAD PUSH2 0x2E0F DUP2 PUSH2 0x3523 JUMP JUMPDEST DUP1 SWAP2 POP POP SWAP3 POP SWAP3 SWAP1 POP JUMP JUMPDEST PUSH1 0x0 DUP1 PUSH1 0x40 DUP4 DUP6 SUB SLT ISZERO PUSH2 0x2E2C JUMPI DUP2 DUP3 REVERT JUMPDEST DUP3 CALLDATALOAD SWAP2 POP PUSH2 0x2E3C PUSH1 0x20 DUP5 ADD PUSH2 0x2AB7 JUMP JUMPDEST SWAP1 POP SWAP3 POP SWAP3 SWAP1 POP JUMP JUMPDEST PUSH1 0x0 DUP1 PUSH1 0x0 DUP1 PUSH1 0x60 DUP6 DUP8 SUB SLT ISZERO PUSH2 0x2E5A JUMPI DUP2 DUP3 REVERT JUMPDEST DUP5 CALLDATALOAD SWAP4 POP PUSH2 0x2E6A PUSH1 0x20 DUP7 ADD PUSH2 0x2AB7 JUMP JUMPDEST SWAP3 POP PUSH1 0x40 DUP6 ADD CALLDATALOAD PUSH1 0x1 PUSH1 0x1 PUSH1 0x40 SHL SUB DUP2 GT ISZERO PUSH2 0x2B50 JUMPI DUP3 DUP4 REVERT JUMPDEST PUSH1 0x0 DUP1 PUSH1 0x0 DUP1 PUSH1 0x0 PUSH1 0xA0 DUP7 DUP9 SUB SLT ISZERO PUSH2 0x2E9B JUMPI DUP3 DUP4 REVERT JUMPDEST DUP6 CALLDATALOAD SWAP5 POP PUSH2 0x2EAB PUSH1 0x20 DUP8 ADD PUSH2 0x2AB7 JUMP JUMPDEST SWAP4 POP PUSH2 0x2EB9 PUSH1 0x40 DUP8 ADD PUSH2 0x2AB7 JUMP JUMPDEST SWAP5 SWAP8 SWAP4 SWAP7 POP SWAP4 SWAP5 PUSH1 0x60 DUP2 ADD CALLDATALOAD SWAP5 POP PUSH1 0x80 ADD CALLDATALOAD SWAP3 SWAP2 POP POP JUMP JUMPDEST PUSH1 0x0 DUP2 MLOAD DUP1 DUP5 MSTORE PUSH1 0x20 DUP1 DUP6 ADD SWAP5 POP DUP1 DUP5 ADD DUP4 JUMPDEST DUP4 DUP2 LT ISZERO PUSH2 0x2F09 JUMPI DUP2 MLOAD PUSH1 0x1 PUSH1 0x1 PUSH1 0xA0 SHL SUB AND DUP8 MSTORE SWAP6 DUP3 ADD SWAP6 SWAP1 DUP3 ADD SWAP1 PUSH1 0x1 ADD PUSH2 0x2EE4 JUMP JUMPDEST POP SWAP5 SWAP6 SWAP5 POP POP POP POP POP JUMP JUMPDEST PUSH1 0x0 DUP2 MLOAD DUP1 DUP5 MSTORE PUSH1 0x20 DUP1 DUP6 ADD DUP1 DUP2 SWAP7 POP DUP4 PUSH1 0x5 SHL DUP2 ADD SWAP2 POP DUP3 DUP7 ADD DUP6 JUMPDEST DUP6 DUP2 LT ISZERO PUSH2 0x2F5B JUMPI DUP3 DUP5 SUB DUP10 MSTORE PUSH2 0x2F49 DUP5 DUP4 MLOAD PUSH2 0x2F97 JUMP JUMPDEST SWAP9 DUP6 ADD SWAP9 SWAP4 POP SWAP1 DUP5 ADD SWAP1 PUSH1 0x1 ADD PUSH2 0x2F31 JUMP JUMPDEST POP SWAP2 SWAP8 SWAP7 POP POP POP POP POP POP POP JUMP JUMPDEST PUSH1 0x0 DUP2 MLOAD DUP1 DUP5 MSTORE PUSH1 0x20 DUP1 DUP6 ADD SWAP5 POP DUP1 DUP5 ADD DUP4 JUMPDEST DUP4 DUP2 LT ISZERO PUSH2 0x2F09 JUMPI DUP2 MLOAD DUP8 MSTORE SWAP6 DUP3 ADD SWAP6 SWAP1 DUP3 ADD SWAP1 PUSH1 0x1 ADD PUSH2 0x2F7B JUMP JUMPDEST PUSH1 0x0 DUP2 MLOAD DUP1 DUP5 MSTORE PUSH2 0x2FAF DUP2 PUSH1 0x20 DUP7 ADD PUSH1 0x20 DUP7 ADD PUSH2 0x3492 JUMP JUMPDEST PUSH1 0x1F ADD PUSH1 0x1F NOT AND SWAP3 SWAP1 SWAP3 ADD PUSH1 0x20 ADD SWAP3 SWAP2 POP POP JUMP JUMPDEST PUSH1 0x0 DUP3 MLOAD PUSH2 0x2FD5 DUP2 DUP5 PUSH1 0x20 DUP8 ADD PUSH2 0x3492 JUMP JUMPDEST SWAP2 SWAP1 SWAP2 ADD SWAP3 SWAP2 POP POP JUMP JUMPDEST PUSH1 0x80 DUP2 MSTORE PUSH1 0x0 PUSH2 0x2FF2 PUSH1 0x80 DUP4 ADD DUP8 PUSH2 0x2ED1 JUMP JUMPDEST DUP3 DUP2 SUB PUSH1 0x20 DUP5 ADD MSTORE PUSH2 0x3004 DUP2 DUP8 PUSH2 0x2F68 JUMP JUMPDEST SWAP1 POP DUP3 DUP2 SUB PUSH1 0x40 DUP5 ADD MSTORE PUSH2 0x3018 DUP2 DUP7 PUSH2 0x2F14 JUMP JUMPDEST SWAP2 POP POP DUP3 PUSH1 0x60 DUP4 ADD MSTORE SWAP6 SWAP5 POP POP POP POP POP JUMP JUMPDEST PUSH1 0xA0 DUP2 MSTORE PUSH1 0x0 PUSH2 0x303D PUSH1 0xA0 DUP4 ADD DUP9 PUSH2 0x2ED1 JUMP JUMPDEST DUP3 DUP2 SUB PUSH1 0x20 DUP5 ADD MSTORE PUSH2 0x304F DUP2 DUP9 PUSH2 0x2F68 JUMP JUMPDEST SWAP1 POP DUP3 DUP2 SUB PUSH1 0x40 DUP5 ADD MSTORE PUSH2 0x3063 DUP2 DUP8 PUSH2 0x2F14 JUMP JUMPDEST PUSH1 0x60 DUP5 ADD SWAP6 SWAP1 SWAP6 MSTORE POP POP PUSH1 0x80 ADD MSTORE SWAP4 SWAP3 POP POP POP JUMP JUMPDEST PUSH1 0xC0 DUP2 MSTORE PUSH1 0x0 PUSH2 0x308B PUSH1 0xC0 DUP4 ADD DUP10 PUSH2 0x2ED1 JUMP JUMPDEST DUP3 DUP2 SUB PUSH1 0x20 DUP5 ADD MSTORE PUSH2 0x309D DUP2 DUP10 PUSH2 0x2F68 JUMP JUMPDEST SWAP1 POP DUP3 DUP2 SUB PUSH1 0x40 DUP5 ADD MSTORE PUSH2 0x30B1 DUP2 DUP9 PUSH2 0x2F14 JUMP JUMPDEST PUSH1 0x60 DUP5 ADD SWAP7 SWAP1 SWAP7 MSTORE POP POP PUSH1 0x80 DUP2 ADD SWAP3 SWAP1 SWAP3 MSTORE PUSH1 0xA0 SWAP1 SWAP2 ADD MSTORE SWAP4 SWAP3 POP POP POP JUMP JUMPDEST PUSH1 0x20 DUP2 ADD PUSH1 0x8 DUP4 LT PUSH2 0x30F2 JUMPI PUSH4 0x4E487B71 PUSH1 0xE0 SHL PUSH1 0x0 MSTORE PUSH1 0x21 PUSH1 0x4 MSTORE PUSH1 0x24 PUSH1 0x0 REVERT JUMPDEST SWAP2 SWAP1 MSTORE SWAP1 JUMP JUMPDEST PUSH1 0x20 DUP2 MSTORE PUSH1 0x0 PUSH2 0xE83 PUSH1 0x20 DUP4 ADD DUP5 PUSH2 0x2F97 JUMP JUMPDEST PUSH1 0x20 DUP1 DUP3 MSTORE PUSH1 0x18 SWAP1 DUP3 ADD MSTORE PUSH32 0x476F7665726E6F723A206F6E6C79476F7665726E616E63650000000000000000 PUSH1 0x40 DUP3 ADD MSTORE PUSH1 0x60 ADD SWAP1 JUMP JUMPDEST PUSH1 0x20 DUP1 DUP3 MSTORE PUSH1 0x21 SWAP1 DUP3 ADD MSTORE PUSH32 0x476F7665726E6F723A20696E76616C69642070726F706F73616C206C656E6774 PUSH1 0x40 DUP3 ADD MSTORE PUSH1 0xD PUSH1 0xFB SHL PUSH1 0x60 DUP3 ADD MSTORE PUSH1 0x80 ADD SWAP1 JUMP JUMPDEST PUSH1 0x20 DUP1 DUP3 MSTORE DUP2 DUP2 ADD MSTORE PUSH32 0x4F776E61626C653A2063616C6C6572206973206E6F7420746865206F776E6572 PUSH1 0x40 DUP3 ADD MSTORE PUSH1 0x60 ADD SWAP1 JUMP JUMPDEST PUSH1 0x20 DUP1 DUP3 MSTORE PUSH1 0x21 SWAP1 DUP3 ADD MSTORE PUSH32 0x476F7665726E6F723A2070726F706F73616C206E6F7420737563636573736675 PUSH1 0x40 DUP3 ADD MSTORE PUSH1 0x1B PUSH1 0xFA SHL PUSH1 0x60 DUP3 ADD MSTORE PUSH1 0x80 ADD SWAP1 JUMP JUMPDEST PUSH1 0x20 DUP1 DUP3 MSTORE PUSH1 0x27 SWAP1 DUP3 ADD MSTORE PUSH32 0x48697665476F7665726E6F723A2063616C6C6572206E6F742072756E6E657220 PUSH1 0x40 DUP3 ADD MSTORE PUSH7 0x6F662068697665 PUSH1 0xC8 SHL PUSH1 0x60 DUP3 ADD MSTORE PUSH1 0x80 ADD SWAP1 JUMP JUMPDEST PUSH1 0x0 PUSH2 0x120 DUP12 DUP4 MSTORE PUSH1 0x20 PUSH1 0x1 DUP1 PUSH1 0xA0 SHL SUB DUP13 AND DUP2 DUP6 ADD MSTORE DUP2 PUSH1 0x40 DUP6 ADD MSTORE PUSH2 0x3269 DUP3 DUP6 ADD DUP13 PUSH2 0x2ED1 JUMP JUMPDEST SWAP2 POP DUP4 DUP3 SUB PUSH1 0x60 DUP6 ADD MSTORE PUSH2 0x327D DUP3 DUP12 PUSH2 0x2F68 JUMP JUMPDEST SWAP2 POP DUP4 DUP3 SUB PUSH1 0x80 DUP6 ADD MSTORE DUP2 DUP10 MLOAD DUP1 DUP5 MSTORE DUP3 DUP5 ADD SWAP2 POP DUP3 DUP2 PUSH1 0x5 SHL DUP6 ADD ADD DUP4 DUP13 ADD DUP7 JUMPDEST DUP4 DUP2 LT ISZERO PUSH2 0x32CD JUMPI PUSH1 0x1F NOT DUP8 DUP5 SUB ADD DUP6 MSTORE PUSH2 0x32BB DUP4 DUP4 MLOAD PUSH2 0x2F97 JUMP JUMPDEST SWAP5 DUP7 ADD SWAP5 SWAP3 POP SWAP1 DUP6 ADD SWAP1 PUSH1 0x1 ADD PUSH2 0x329F JUMP JUMPDEST POP POP DUP7 DUP2 SUB PUSH1 0xA0 DUP9 ADD MSTORE PUSH2 0x32E1 DUP2 DUP13 PUSH2 0x2F14 JUMP JUMPDEST SWAP5 POP POP POP POP POP PUSH2 0x32FC PUSH1 0xC0 DUP5 ADD DUP8 PUSH1 0x1 PUSH1 0x1 PUSH1 0x40 SHL SUB AND SWAP1 MSTORE JUMP JUMPDEST PUSH1 0x1 PUSH1 0x1 PUSH1 0x40 SHL SUB DUP6 AND PUSH1 0xE0 DUP5 ADD MSTORE DUP3 DUP2 SUB PUSH2 0x100 DUP5 ADD MSTORE PUSH2 0x331E DUP2 DUP6 PUSH2 0x2F97 JUMP JUMPDEST SWAP13 SWAP12 POP POP POP POP POP POP POP POP POP POP POP POP JUMP JUMPDEST DUP5 DUP2 MSTORE PUSH1 0xFF DUP5 AND PUSH1 0x20 DUP3 ADD MSTORE DUP3 PUSH1 0x40 DUP3 ADD MSTORE PUSH1 0x80 PUSH1 0x60 DUP3 ADD MSTORE PUSH1 0x0 PUSH2 0xD47 PUSH1 0x80 DUP4 ADD DUP5 PUSH2 0x2F97 JUMP JUMPDEST PUSH1 0x40 MLOAD PUSH2 0x120 DUP2 ADD PUSH1 0x1 PUSH1 0x1 PUSH1 0x40 SHL SUB DUP2 GT DUP3 DUP3 LT OR ISZERO PUSH2 0x3379 JUMPI PUSH2 0x3379 PUSH2 0x350D JUMP JUMPDEST PUSH1 0x40 MSTORE SWAP1 JUMP JUMPDEST PUSH1 0x40 MLOAD PUSH1 0x1F DUP3 ADD PUSH1 0x1F NOT AND DUP2 ADD PUSH1 0x1 PUSH1 0x1 PUSH1 0x40 SHL SUB DUP2 GT DUP3 DUP3 LT OR ISZERO PUSH2 0x33A7 JUMPI PUSH2 0x33A7 PUSH2 0x350D JUMP JUMPDEST PUSH1 0x40 MSTORE SWAP2 SWAP1 POP JUMP JUMPDEST PUSH1 0x0 PUSH1 0x1 PUSH1 0x1 PUSH1 0x40 SHL SUB DUP3 GT ISZERO PUSH2 0x33C8 JUMPI PUSH2 0x33C8 PUSH2 0x350D JUMP JUMPDEST POP PUSH1 0x5 SHL PUSH1 0x20 ADD SWAP1 JUMP JUMPDEST PUSH1 0x0 PUSH1 0x1 PUSH1 0x1 PUSH1 0x40 SHL SUB DUP3 GT ISZERO PUSH2 0x33EB JUMPI PUSH2 0x33EB PUSH2 0x350D JUMP JUMPDEST POP PUSH1 0x1F ADD PUSH1 0x1F NOT AND PUSH1 0x20 ADD SWAP1 JUMP JUMPDEST PUSH1 0x0 DUP3 NOT DUP3 GT ISZERO PUSH2 0x340C JUMPI PUSH2 0x340C PUSH2 0x34F7 JUMP JUMPDEST POP ADD SWAP1 JUMP JUMPDEST PUSH1 0x0 PUSH1 0x1 PUSH1 0x1 PUSH1 0x40 SHL SUB DUP1 DUP4 AND DUP2 DUP6 AND DUP1 DUP4 SUB DUP3 GT ISZERO PUSH2 0x3433 JUMPI PUSH2 0x3433 PUSH2 0x34F7 JUMP JUMPDEST ADD SWAP5 SWAP4 POP POP POP POP JUMP JUMPDEST PUSH1 0x0 DUP3 PUSH2 0x3457 JUMPI PUSH4 0x4E487B71 PUSH1 0xE0 SHL DUP2 MSTORE PUSH1 0x12 PUSH1 0x4 MSTORE PUSH1 0x24 DUP2 REVERT JUMPDEST POP DIV SWAP1 JUMP JUMPDEST PUSH1 0x0 DUP2 PUSH1 0x0 NOT DIV DUP4 GT DUP3 ISZERO ISZERO AND ISZERO PUSH2 0x3476 JUMPI PUSH2 0x3476 PUSH2 0x34F7 JUMP JUMPDEST POP MUL SWAP1 JUMP JUMPDEST PUSH1 0x0 DUP3 DUP3 LT ISZERO PUSH2 0x348D JUMPI PUSH2 0x348D PUSH2 0x34F7 JUMP JUMPDEST POP SUB SWAP1 JUMP JUMPDEST PUSH1 0x0 JUMPDEST DUP4 DUP2 LT ISZERO PUSH2 0x34AD JUMPI DUP2 DUP2 ADD MLOAD DUP4 DUP3 ADD MSTORE PUSH1 0x20 ADD PUSH2 0x3495 JUMP JUMPDEST DUP4 DUP2 GT ISZERO PUSH2 0x34BC JUMPI PUSH1 0x0 DUP5 DUP5 ADD MSTORE JUMPDEST POP POP POP POP JUMP JUMPDEST PUSH1 0x1 DUP2 DUP2 SHR SWAP1 DUP3 AND DUP1 PUSH2 0x34D6 JUMPI PUSH1 0x7F DUP3 AND SWAP2 POP JUMPDEST PUSH1 0x20 DUP3 LT DUP2 EQ ISZERO PUSH2 0xDC2 JUMPI PUSH4 0x4E487B71 PUSH1 0xE0 SHL PUSH1 0x0 MSTORE PUSH1 0x22 PUSH1 0x4 MSTORE PUSH1 0x24 PUSH1 0x0 REVERT JUMPDEST PUSH4 0x4E487B71 PUSH1 0xE0 SHL PUSH1 0x0 MSTORE PUSH1 0x11 PUSH1 0x4 MSTORE PUSH1 0x24 PUSH1 0x0 REVERT JUMPDEST PUSH4 0x4E487B71 PUSH1 0xE0 SHL PUSH1 0x0 MSTORE PUSH1 0x41 PUSH1 0x4 MSTORE PUSH1 0x24 PUSH1 0x0 REVERT JUMPDEST PUSH1 0x1 PUSH1 0x1 PUSH1 0xA0 SHL SUB DUP2 AND DUP2 EQ PUSH2 0x896 JUMPI PUSH1 0x0 DUP1 REVERT INVALID COINBASE PUSH5 0x6472657373 GASPRICE KECCAK256 PUSH13 0x6F772D6C6576656C2063616C6C KECCAK256 PUSH24 0x6974682076616C7565206661696C6564A264697066735822 SLT KECCAK256 0xD2 CALLCODE 0x24 EXP DUP5 0xA9 0xC9 0xE8 0xED 0xA8 0xC5 XOR MSTORE8 0x48 0x4F 0xD6 PUSH22 0x46BF3039AA4130DB470B8628778FA764736F6C634300 ADDMOD DIV STOP CALLER LOG2 PUSH5 0x6970667358 0x22 SLT KECCAK256 PUSH24 0x13AB7E723D4A278EB2AED2C80C0E5A9D79EA4AAD3ECD8949 0xD0 AND MSIZE CALL PUSH17 0x488164736F6C6343000804003300000000 ","sha1":"592e69c615bb12311995dfabfcc5d3c76663cab8","source":"//SPDX-License-Identifier: BUSL-1.1\npragma solidity ^0.8.2;\n\nimport \"../../templates/HiveGovernor.sol\";\n\ncontract HiveGovernorMachine {\n    // note: required to be external, otherwise cannot get selector\n    function createHiveGovernor(\n        bytes32 _salt,\n        string memory _nameGovernor,\n        ERC20Votes _hiveGovernanceToken,\n        TimelockController _hiveTimelock,\n        address _underlyingContract,\n        uint256 _votingDelay,\n        uint256 _votingPeriod,\n        uint256 _proposalThreshold,\n        uint256 _quorumPercentage\n    ) external returns (HiveGovernor) {\n        require(\n            msg.sender == address(this),\n            \"HiveGovernorMachine.sol: caller not this contract\"\n        );\n\n        // TODO: test (check) the resulting name generated correctly or not\n        HiveGovernor hiveGovernor = new HiveGovernor{salt: _salt}(\n            _nameGovernor,\n            _hiveGovernanceToken,\n            _hiveTimelock,\n            _underlyingContract,\n            _votingDelay,\n            _votingPeriod,\n            _proposalThreshold,\n            _quorumPercentage\n        );\n\n        return hiveGovernor;\n    }\n\n    // function generateHiveGovernorAddress(\n    //     bytes32 _salt,\n    //     string memory _nameGovernor,\n    //     ERC20Votes _hiveGovernanceToken,\n    //     TimelockController _hiveTimelock,\n    //     address _underlyingContract,\n    //     uint256 _votingDelay,\n    //     uint256 _votingPeriod,\n    //     uint256 _proposalThreshold,\n    //     uint256 _quorumPercentage\n    // ) public returns (address) {\n    //     bytes memory bytecode = LibHiveGovernorMachine._getHiveGovernorBytecode(\n    //         _nameGovernor,\n    //         _hiveGovernanceToken,\n    //         _hiveTimelock,\n    //         _underlyingContract,\n    //         _votingDelay,\n    //         _votingPeriod,\n    //         _proposalThreshold,\n    //         _quorumPercentage\n    //     );\n    //     return LibHiveFactory._getAddress(bytecode, _salt);\n    // }\n}\n","sourcePath":"contracts/hub/facets/core/HiveGovernorMachine.sol","type":"contract","deployment":{"address":"0x2EF35971bd4c78009fdfeC2664C637F0145C54D9","chainid":"80001","blockHeight":26007106}}