{"abi":[{"anonymous":false,"inputs":[{"indexed":true,"internalType":"address","name":"sender","type":"address"},{"indexed":false,"internalType":"address","name":"priceFeed","type":"address"}],"name":"AddedPriceFeedRemoved","type":"event"},{"anonymous":false,"inputs":[{"indexed":true,"internalType":"address","name":"sender","type":"address"},{"indexed":false,"internalType":"address","name":"applicant","type":"address"}],"name":"ApplicantApproved","type":"event"},{"anonymous":false,"inputs":[{"indexed":true,"internalType":"address","name":"sender","type":"address"},{"indexed":false,"internalType":"bytes32","name":"key","type":"bytes32"}],"name":"CurrencyRegistered","type":"event"},{"anonymous":false,"inputs":[{"indexed":true,"internalType":"address","name":"sender","type":"address"},{"indexed":false,"internalType":"bytes32","name":"key","type":"bytes32"}],"name":"CurrencyRemoved","type":"event"},{"anonymous":false,"inputs":[{"indexed":true,"internalType":"address","name":"sender","type":"address"},{"indexed":false,"internalType":"bytes32","name":"keyX","type":"bytes32"},{"indexed":false,"internalType":"bytes32","name":"keyY","type":"bytes32"}],"name":"DerivedPriceFeedRemoved","type":"event"},{"anonymous":false,"inputs":[{"components":[{"internalType":"address","name":"facetAddress","type":"address"},{"internalType":"enum Cut.FacetCutAction","name":"action","type":"uint8"},{"internalType":"bytes4[]","name":"functionSelectors","type":"bytes4[]"}],"indexed":false,"internalType":"struct Cut.FacetCut[]","name":"_cut","type":"tuple[]"},{"indexed":false,"internalType":"address","name":"_init","type":"address"},{"indexed":false,"internalType":"bytes","name":"_calldata","type":"bytes"}],"name":"DiamondCut","type":"event"},{"anonymous":false,"inputs":[{"indexed":true,"internalType":"address","name":"sender","type":"address"},{"indexed":false,"internalType":"uint256","name":"fee","type":"uint256"}],"name":"FeeSetBase","type":"event"},{"anonymous":false,"inputs":[{"indexed":true,"internalType":"address","name":"sender","type":"address"},{"indexed":false,"internalType":"uint256","name":"fee","type":"uint256"}],"name":"FeeSetCancellation","type":"event"},{"anonymous":false,"inputs":[{"indexed":true,"internalType":"address","name":"sender","type":"address"},{"indexed":false,"internalType":"uint256","name":"fee","type":"uint256"}],"name":"FeeSetCostPerMetre","type":"event"},{"anonymous":false,"inputs":[{"indexed":true,"internalType":"address","name":"sender","type":"address"},{"indexed":false,"internalType":"uint256","name":"fee","type":"uint256"}],"name":"FeeSetCostPerMinute","type":"event"},{"anonymous":false,"inputs":[{"indexed":true,"internalType":"address","name":"sender","type":"address"},{"indexed":false,"internalType":"bytes32","name":"key","type":"bytes32"},{"indexed":false,"internalType":"uint256","name":"amount","type":"uint256"}],"name":"FundsLocked","type":"event"},{"anonymous":false,"inputs":[{"indexed":true,"internalType":"address","name":"sender","type":"address"},{"indexed":false,"internalType":"address","name":"decrease","type":"address"},{"indexed":false,"internalType":"address","name":"increase","type":"address"},{"indexed":false,"internalType":"bytes32","name":"key","type":"bytes32"},{"indexed":false,"internalType":"uint256","name":"amount","type":"uint256"}],"name":"FundsUnlocked","type":"event"},{"anonymous":false,"inputs":[{"indexed":true,"internalType":"address","name":"sender","type":"address"},{"indexed":false,"internalType":"uint256","name":"count","type":"uint256"}],"name":"HiveCreationCountSet","type":"event"},{"anonymous":false,"inputs":[{"indexed":true,"internalType":"address","name":"sender","type":"address"},{"indexed":false,"internalType":"uint256","name":"duration","type":"uint256"}],"name":"HiveDisputeDurationSet","type":"event"},{"anonymous":false,"inputs":[{"indexed":true,"internalType":"address","name":"sender","type":"address"},{"indexed":true,"internalType":"bytes32","name":"jobId","type":"bytes32"}],"name":"JobCleared","type":"event"},{"anonymous":false,"inputs":[{"indexed":true,"internalType":"address","name":"sender","type":"address"},{"indexed":false,"internalType":"uint256","name":"duration","type":"uint256"}],"name":"JobLifespanSet","type":"event"},{"anonymous":false,"inputs":[{"indexed":true,"internalType":"address","name":"sender","type":"address"},{"indexed":false,"internalType":"uint256","name":"duration","type":"uint256"}],"name":"MinDisputeDurationSet","type":"event"},{"anonymous":false,"inputs":[{"indexed":true,"internalType":"address","name":"sender","type":"address"},{"indexed":false,"internalType":"address","name":"token","type":"address"}],"name":"NativeTokenSet","type":"event"},{"anonymous":false,"inputs":[{"indexed":true,"internalType":"address","name":"sender","type":"address"},{"indexed":false,"internalType":"bytes32","name":"keyX","type":"bytes32"},{"indexed":false,"internalType":"bytes32","name":"keyY","type":"bytes32"},{"indexed":false,"internalType":"address","name":"priceFeed","type":"address"}],"name":"PriceFeedAdded","type":"event"},{"anonymous":false,"inputs":[{"indexed":true,"internalType":"address","name":"sender","type":"address"},{"indexed":false,"internalType":"bytes32","name":"keyX","type":"bytes32"},{"indexed":false,"internalType":"bytes32","name":"keyY","type":"bytes32"},{"indexed":false,"internalType":"bytes32","name":"keyShared","type":"bytes32"}],"name":"PriceFeedDerived","type":"event"},{"anonymous":false,"inputs":[{"indexed":true,"internalType":"address","name":"sender","type":"address"},{"indexed":false,"internalType":"uint256","name":"rating","type":"uint256"}],"name":"RatingGiven","type":"event"},{"anonymous":false,"inputs":[{"indexed":true,"internalType":"bytes32","name":"role","type":"bytes32"},{"indexed":true,"internalType":"bytes32","name":"previousAdminRole","type":"bytes32"},{"indexed":true,"internalType":"bytes32","name":"newAdminRole","type":"bytes32"}],"name":"RoleAdminChanged","type":"event"},{"anonymous":false,"inputs":[{"indexed":true,"internalType":"bytes32","name":"role","type":"bytes32"},{"indexed":true,"internalType":"address","name":"account","type":"address"},{"indexed":true,"internalType":"address","name":"sender","type":"address"}],"name":"RoleGranted","type":"event"},{"anonymous":false,"inputs":[{"indexed":true,"internalType":"bytes32","name":"role","type":"bytes32"},{"indexed":true,"internalType":"address","name":"account","type":"address"},{"indexed":true,"internalType":"address","name":"sender","type":"address"}],"name":"RoleRevoked","type":"event"},{"anonymous":false,"inputs":[{"indexed":true,"internalType":"address","name":"sender","type":"address"},{"indexed":false,"internalType":"uint256","name":"min","type":"uint256"},{"indexed":false,"internalType":"uint256","name":"max","type":"uint256"}],"name":"SetRatingBounds","type":"event"},{"anonymous":false,"inputs":[{"indexed":true,"internalType":"address","name":"sender","type":"address"},{"indexed":false,"internalType":"uint256","name":"amount","type":"uint256"}],"name":"TokensDeposited","type":"event"},{"anonymous":false,"inputs":[{"indexed":true,"internalType":"address","name":"sender","type":"address"},{"indexed":false,"internalType":"uint256","name":"amount","type":"uint256"}],"name":"TokensRemoved","type":"event"},{"anonymous":false,"inputs":[{"indexed":true,"internalType":"address","name":"sender","type":"address"},{"indexed":false,"internalType":"address","name":"user","type":"address"},{"indexed":false,"internalType":"uint256","name":"banDuration","type":"uint256"}],"name":"UserBanned","type":"event"},{"inputs":[{"internalType":"bytes32","name":"_key","type":"bytes32"},{"internalType":"uint256","name":"_amount","type":"uint256"}],"name":"depositTokens","outputs":[],"stateMutability":"nonpayable","type":"function"},{"inputs":[{"internalType":"bytes32","name":"_key","type":"bytes32"},{"internalType":"uint256","name":"_amount","type":"uint256"},{"internalType":"uint256","name":"_deadline","type":"uint256"},{"internalType":"uint8","name":"_v","type":"uint8"},{"internalType":"bytes32","name":"_r","type":"bytes32"},{"internalType":"bytes32","name":"_s","type":"bytes32"}],"name":"depositTokensPermit","outputs":[],"stateMutability":"nonpayable","type":"function"},{"inputs":[{"internalType":"address","name":"_user","type":"address"},{"internalType":"bytes32","name":"_key","type":"bytes32"}],"name":"getHolding","outputs":[{"internalType":"uint256","name":"","type":"uint256"}],"stateMutability":"view","type":"function"},{"inputs":[{"internalType":"address","name":"_user","type":"address"},{"internalType":"bytes32","name":"_key","type":"bytes32"}],"name":"getVault","outputs":[{"internalType":"uint256","name":"","type":"uint256"}],"stateMutability":"view","type":"function"},{"inputs":[{"internalType":"bytes32","name":"_key","type":"bytes32"},{"internalType":"uint256","name":"_amount","type":"uint256"}],"name":"withdrawTokens","outputs":[],"stateMutability":"nonpayable","type":"function"}],"bytecode":"608060405234801561001057600080fd5b506001600055610b92806100256000396000f3fe608060405234801561001057600080fd5b50600436106100575760003560e01c8063222b89471461005c5780638136de8014610071578063b9b0939214610096578063c755af52146100a9578063c9ad5f84146100bc575b600080fd5b61006f61006a3660046109d6565b6100cf565b005b61008461007f366004610980565b610191565b60405190815260200160405180910390f35b6100846100a4366004610980565b6101e4565b61006f6100b73660046109f7565b610225565b61006f6100ca3660046109d6565b610368565b6100d8826104fa565b6100e18261058e565b6000811161010a5760405162461bcd60e51b815260040161010190610a9d565b60405180910390fd5b606082901c61011b8133308561060b565b336000908152600080516020610b3d8339815191526020908152604080832086845290915281208054849290610152908490610acb565b909155505060405182815233907f59062170a285eb80e8c6b8ced60428442a51910635005233fc4ce084a475845e9060200160405180910390a2505050565b600061019c826104fa565b506001600160a01b039190911660009081527fc15856d6786c9849fce88accf879bc2b002dc555d3ff91b5869e3b7b51c529bc60209081526040808320938352929052205490565b60006101ef826104fa565b506001600160a01b03919091166000908152600080516020610b3d83398151915260209081526040808320938352929052205490565b61022e866104fa565b6102378661058e565b600085116102575760405162461bcd60e51b815260040161010190610a9d565b60405163d505accf60e01b8152336004820152306024820152604481018690526064810185905260ff8416608482015260a4810183905260c48101829052606087901c90819063d505accf9060e401600060405180830381600087803b1580156102c057600080fd5b505af11580156102d4573d6000803e3d6000fd5b506102ee925050506001600160a01b03821633308961060b565b336000908152600080516020610b3d833981519152602090815260408083208a845290915281208054889290610325908490610acb565b909155505060405186815233907f59062170a285eb80e8c6b8ced60428442a51910635005233fc4ce084a475845e9060200160405180910390a250505050505050565b600260005414156103bb5760405162461bcd60e51b815260206004820152601f60248201527f5265656e7472616e637947756172643a207265656e7472616e742063616c6c006044820152606401610101565b6002600055806103dd5760405162461bcd60e51b815260040161010190610a9d565b6103e7828261067c565b6103f0826104fa565b6103f98261058e565b336000908152600080516020610b3d8339815191526020818152604080842086855290915290912054606084901c91908311156104785760405162461bcd60e51b815260206004820152601e60248201527f486f6c64696e673a20696e73756666696369656e7420686f6c64696e677300006044820152606401610101565b33600090815260208281526040808320878452909152812080548592906104a0908490610ae3565b909155506104ba90506001600160a01b03831633856106f6565b60405183815233907f079bee7f865179f632bcb69702978d375656a5decc8ca5fc5c3acc636412e35d9060200160405180910390a2505060016000555050565b60008181527f61c2c7cf5017a0ead7aef00d9e35505290722fe92da9eca2feee8f02980bf565602052604090205460ff1661058b5760405162461bcd60e51b815260206004820152602b60248201527f4c696243757272656e637952656769737472793a2043757272656e6379206e6f60448201526a1d081cdd5c1c1bdc9d195960aa1b6064820152608401610101565b50565b60008181527f61c2c7cf5017a0ead7aef00d9e35505290722fe92da9eca2feee8f02980bf566602052604090205460ff1661058b5760405162461bcd60e51b815260206004820152601f60248201527f4c696243757272656e637952656769737472793a204e6f742063727970746f006044820152606401610101565b6040516001600160a01b03808516602483015283166044820152606481018290526106769085906323b872dd60e01b906084015b60408051601f198184030181529190526020810180516001600160e01b03166001600160e01b03199093169290921790915261072b565b50505050565b600080516020610b3d8339815191523360009081526020918252604080822085835290925220548111156106f25760405162461bcd60e51b815260206004820181905260248201527f4c6962486f6c64696e673a20696e73756666696369656e7420686f6c64696e676044820152606401610101565b5050565b6040516001600160a01b03831660248201526044810182905261072690849063a9059cbb60e01b9060640161063f565b505050565b6000610780826040518060400160405280602081526020017f5361666545524332303a206c6f772d6c6576656c2063616c6c206661696c6564815250856001600160a01b03166107fd9092919063ffffffff16565b805190915015610726578080602001905181019061079e91906109b6565b6107265760405162461bcd60e51b815260206004820152602a60248201527f5361666545524332303a204552433230206f7065726174696f6e20646964206e6044820152691bdd081cdd58d8d9595960b21b6064820152608401610101565b606061080c8484600085610816565b90505b9392505050565b6060824710156108775760405162461bcd60e51b815260206004820152602660248201527f416464726573733a20696e73756666696369656e742062616c616e636520666f6044820152651c8818d85b1b60d21b6064820152608401610101565b6001600160a01b0385163b6108ce5760405162461bcd60e51b815260206004820152601d60248201527f416464726573733a2063616c6c20746f206e6f6e2d636f6e74726163740000006044820152606401610101565b600080866001600160a01b031685876040516108ea9190610a4e565b60006040518083038185875af1925050503d8060008114610927576040519150601f19603f3d011682016040523d82523d6000602084013e61092c565b606091505b509150915061093c828286610947565b979650505050505050565b6060831561095657508161080f565b8251156109665782518084602001fd5b8160405162461bcd60e51b81526004016101019190610a6a565b60008060408385031215610992578182fd5b82356001600160a01b03811681146109a8578283fd5b946020939093013593505050565b6000602082840312156109c7578081fd5b8151801515811461080f578182fd5b600080604083850312156109e8578182fd5b50508035926020909101359150565b60008060008060008060c08789031215610a0f578182fd5b863595506020870135945060408701359350606087013560ff81168114610a34578283fd5b9598949750929560808101359460a0909101359350915050565b60008251610a60818460208701610afa565b9190910192915050565b6020815260008251806020840152610a89816040850160208701610afa565b601f01601f19169190910160400192915050565b602080825260149082015273121bdb191a5b99ce881e995c9bc8185b5bdd5b9d60621b604082015260600190565b60008219821115610ade57610ade610b26565b500190565b600082821015610af557610af5610b26565b500390565b60005b83811015610b15578181015183820152602001610afd565b838111156106765750506000910152565b634e487b7160e01b600052601160045260246000fdfec15856d6786c9849fce88accf879bc2b002dc555d3ff91b5869e3b7b51c529bba2646970667358221220b77e9fce2f2b35b18e83bf4638a79e2270be896c200d74b9190725ebcbb7631e64736f6c63430008040033","bytecodeSha1":"783761e87f09dc5a2d328f5b82ce81f2ff920d1d","compiler":{"evm_version":"istanbul","optimizer":{"enabled":true,"runs":200},"version":"0.8.4+commit.c7e474f2"},"contractName":"Holding","language":"Solidity","natspec":{"kind":"dev","methods":{"depositTokens(bytes32,uint256)":{"custom:event":"TokensDeposited","details":"call token contract's \"approve\" first","notice":"placeDeposit allows users to deposit token into Hub contract","params":{"_amount":"| unit in token"}},"withdrawTokens(bytes32,uint256)":{"custom:event":"TokensRemoved","notice":"removeDeposit allows users to remove token from Hub contract"}},"version":1},"opcodes":"PUSH1 0x80 PUSH1 0x40 MSTORE CALLVALUE DUP1 ISZERO PUSH2 0x10 JUMPI PUSH1 0x0 DUP1 REVERT JUMPDEST POP PUSH1 0x4 CALLDATASIZE LT PUSH2 0x57 JUMPI PUSH1 0x0 CALLDATALOAD PUSH1 0xE0 SHR DUP1 PUSH4 0x222B8947 EQ PUSH2 0x5C JUMPI DUP1 PUSH4 0x8136DE80 EQ PUSH2 0x71 JUMPI DUP1 PUSH4 0xB9B09392 EQ PUSH2 0x96 JUMPI DUP1 PUSH4 0xC755AF52 EQ PUSH2 0xA9 JUMPI DUP1 PUSH4 0xC9AD5F84 EQ PUSH2 0xBC JUMPI JUMPDEST PUSH1 0x0 DUP1 REVERT JUMPDEST PUSH2 0x6F PUSH2 0x6A CALLDATASIZE PUSH1 0x4 PUSH2 0x9D6 JUMP JUMPDEST PUSH2 0xCF JUMP JUMPDEST STOP JUMPDEST PUSH2 0x84 PUSH2 0x7F CALLDATASIZE PUSH1 0x4 PUSH2 0x980 JUMP JUMPDEST PUSH2 0x191 JUMP JUMPDEST PUSH1 0x40 MLOAD SWAP1 DUP2 MSTORE PUSH1 0x20 ADD PUSH1 0x40 MLOAD DUP1 SWAP2 SUB SWAP1 RETURN JUMPDEST PUSH2 0x84 PUSH2 0xA4 CALLDATASIZE PUSH1 0x4 PUSH2 0x980 JUMP JUMPDEST PUSH2 0x1E4 JUMP JUMPDEST PUSH2 0x6F PUSH2 0xB7 CALLDATASIZE PUSH1 0x4 PUSH2 0x9F7 JUMP JUMPDEST PUSH2 0x225 JUMP JUMPDEST PUSH2 0x6F PUSH2 0xCA CALLDATASIZE PUSH1 0x4 PUSH2 0x9D6 JUMP JUMPDEST PUSH2 0x368 JUMP JUMPDEST PUSH2 0xD8 DUP3 PUSH2 0x4FA JUMP JUMPDEST PUSH2 0xE1 DUP3 PUSH2 0x58E JUMP JUMPDEST PUSH1 0x0 DUP2 GT PUSH2 0x10A JUMPI PUSH1 0x40 MLOAD PUSH3 0x461BCD PUSH1 0xE5 SHL DUP2 MSTORE PUSH1 0x4 ADD PUSH2 0x101 SWAP1 PUSH2 0xA9D JUMP JUMPDEST PUSH1 0x40 MLOAD DUP1 SWAP2 SUB SWAP1 REVERT JUMPDEST PUSH1 0x60 DUP3 SWAP1 SHR PUSH2 0x11B DUP2 CALLER ADDRESS DUP6 PUSH2 0x60B JUMP JUMPDEST CALLER PUSH1 0x0 SWAP1 DUP2 MSTORE PUSH1 0x0 DUP1 MLOAD PUSH1 0x20 PUSH2 0xB3D DUP4 CODECOPY DUP2 MLOAD SWAP2 MSTORE PUSH1 0x20 SWAP1 DUP2 MSTORE PUSH1 0x40 DUP1 DUP4 KECCAK256 DUP7 DUP5 MSTORE SWAP1 SWAP2 MSTORE DUP2 KECCAK256 DUP1 SLOAD DUP5 SWAP3 SWAP1 PUSH2 0x152 SWAP1 DUP5 SWAP1 PUSH2 0xACB JUMP JUMPDEST SWAP1 SWAP2 SSTORE POP POP PUSH1 0x40 MLOAD DUP3 DUP2 MSTORE CALLER SWAP1 PUSH32 0x59062170A285EB80E8C6B8CED60428442A51910635005233FC4CE084A475845E SWAP1 PUSH1 0x20 ADD PUSH1 0x40 MLOAD DUP1 SWAP2 SUB SWAP1 LOG2 POP POP POP JUMP JUMPDEST PUSH1 0x0 PUSH2 0x19C DUP3 PUSH2 0x4FA JUMP JUMPDEST POP PUSH1 0x1 PUSH1 0x1 PUSH1 0xA0 SHL SUB SWAP2 SWAP1 SWAP2 AND PUSH1 0x0 SWAP1 DUP2 MSTORE PUSH32 0xC15856D6786C9849FCE88ACCF879BC2B002DC555D3FF91B5869E3B7B51C529BC PUSH1 0x20 SWAP1 DUP2 MSTORE PUSH1 0x40 DUP1 DUP4 KECCAK256 SWAP4 DUP4 MSTORE SWAP3 SWAP1 MSTORE KECCAK256 SLOAD SWAP1 JUMP JUMPDEST PUSH1 0x0 PUSH2 0x1EF DUP3 PUSH2 0x4FA JUMP JUMPDEST POP PUSH1 0x1 PUSH1 0x1 PUSH1 0xA0 SHL SUB SWAP2 SWAP1 SWAP2 AND PUSH1 0x0 SWAP1 DUP2 MSTORE PUSH1 0x0 DUP1 MLOAD PUSH1 0x20 PUSH2 0xB3D DUP4 CODECOPY DUP2 MLOAD SWAP2 MSTORE PUSH1 0x20 SWAP1 DUP2 MSTORE PUSH1 0x40 DUP1 DUP4 KECCAK256 SWAP4 DUP4 MSTORE SWAP3 SWAP1 MSTORE KECCAK256 SLOAD SWAP1 JUMP JUMPDEST PUSH2 0x22E DUP7 PUSH2 0x4FA JUMP JUMPDEST PUSH2 0x237 DUP7 PUSH2 0x58E JUMP JUMPDEST PUSH1 0x0 DUP6 GT PUSH2 0x257 JUMPI PUSH1 0x40 MLOAD PUSH3 0x461BCD PUSH1 0xE5 SHL DUP2 MSTORE PUSH1 0x4 ADD PUSH2 0x101 SWAP1 PUSH2 0xA9D JUMP JUMPDEST PUSH1 0x40 MLOAD PUSH4 0xD505ACCF PUSH1 0xE0 SHL DUP2 MSTORE CALLER PUSH1 0x4 DUP3 ADD MSTORE ADDRESS PUSH1 0x24 DUP3 ADD MSTORE PUSH1 0x44 DUP2 ADD DUP7 SWAP1 MSTORE PUSH1 0x64 DUP2 ADD DUP6 SWAP1 MSTORE PUSH1 0xFF DUP5 AND PUSH1 0x84 DUP3 ADD MSTORE PUSH1 0xA4 DUP2 ADD DUP4 SWAP1 MSTORE PUSH1 0xC4 DUP2 ADD DUP3 SWAP1 MSTORE PUSH1 0x60 DUP8 SWAP1 SHR SWAP1 DUP2 SWAP1 PUSH4 0xD505ACCF SWAP1 PUSH1 0xE4 ADD PUSH1 0x0 PUSH1 0x40 MLOAD DUP1 DUP4 SUB DUP2 PUSH1 0x0 DUP8 DUP1 EXTCODESIZE ISZERO DUP1 ISZERO PUSH2 0x2C0 JUMPI PUSH1 0x0 DUP1 REVERT JUMPDEST POP GAS CALL ISZERO DUP1 ISZERO PUSH2 0x2D4 JUMPI RETURNDATASIZE PUSH1 0x0 DUP1 RETURNDATACOPY RETURNDATASIZE PUSH1 0x0 REVERT JUMPDEST POP PUSH2 0x2EE SWAP3 POP POP POP PUSH1 0x1 PUSH1 0x1 PUSH1 0xA0 SHL SUB DUP3 AND CALLER ADDRESS DUP10 PUSH2 0x60B JUMP JUMPDEST CALLER PUSH1 0x0 SWAP1 DUP2 MSTORE PUSH1 0x0 DUP1 MLOAD PUSH1 0x20 PUSH2 0xB3D DUP4 CODECOPY DUP2 MLOAD SWAP2 MSTORE PUSH1 0x20 SWAP1 DUP2 MSTORE PUSH1 0x40 DUP1 DUP4 KECCAK256 DUP11 DUP5 MSTORE SWAP1 SWAP2 MSTORE DUP2 KECCAK256 DUP1 SLOAD DUP9 SWAP3 SWAP1 PUSH2 0x325 SWAP1 DUP5 SWAP1 PUSH2 0xACB JUMP JUMPDEST SWAP1 SWAP2 SSTORE POP POP PUSH1 0x40 MLOAD DUP7 DUP2 MSTORE CALLER SWAP1 PUSH32 0x59062170A285EB80E8C6B8CED60428442A51910635005233FC4CE084A475845E SWAP1 PUSH1 0x20 ADD PUSH1 0x40 MLOAD DUP1 SWAP2 SUB SWAP1 LOG2 POP POP POP POP POP POP POP JUMP JUMPDEST PUSH1 0x2 PUSH1 0x0 SLOAD EQ ISZERO PUSH2 0x3BB JUMPI PUSH1 0x40 MLOAD PUSH3 0x461BCD PUSH1 0xE5 SHL DUP2 MSTORE PUSH1 0x20 PUSH1 0x4 DUP3 ADD MSTORE PUSH1 0x1F PUSH1 0x24 DUP3 ADD MSTORE PUSH32 0x5265656E7472616E637947756172643A207265656E7472616E742063616C6C00 PUSH1 0x44 DUP3 ADD MSTORE PUSH1 0x64 ADD PUSH2 0x101 JUMP JUMPDEST PUSH1 0x2 PUSH1 0x0 SSTORE DUP1 PUSH2 0x3DD JUMPI PUSH1 0x40 MLOAD PUSH3 0x461BCD PUSH1 0xE5 SHL DUP2 MSTORE PUSH1 0x4 ADD PUSH2 0x101 SWAP1 PUSH2 0xA9D JUMP JUMPDEST PUSH2 0x3E7 DUP3 DUP3 PUSH2 0x67C JUMP JUMPDEST PUSH2 0x3F0 DUP3 PUSH2 0x4FA JUMP JUMPDEST PUSH2 0x3F9 DUP3 PUSH2 0x58E JUMP JUMPDEST CALLER PUSH1 0x0 SWAP1 DUP2 MSTORE PUSH1 0x0 DUP1 MLOAD PUSH1 0x20 PUSH2 0xB3D DUP4 CODECOPY DUP2 MLOAD SWAP2 MSTORE PUSH1 0x20 DUP2 DUP2 MSTORE PUSH1 0x40 DUP1 DUP5 KECCAK256 DUP7 DUP6 MSTORE SWAP1 SWAP2 MSTORE SWAP1 SWAP2 KECCAK256 SLOAD PUSH1 0x60 DUP5 SWAP1 SHR SWAP2 SWAP1 DUP4 GT ISZERO PUSH2 0x478 JUMPI PUSH1 0x40 MLOAD PUSH3 0x461BCD PUSH1 0xE5 SHL DUP2 MSTORE PUSH1 0x20 PUSH1 0x4 DUP3 ADD MSTORE PUSH1 0x1E PUSH1 0x24 DUP3 ADD MSTORE PUSH32 0x486F6C64696E673A20696E73756666696369656E7420686F6C64696E67730000 PUSH1 0x44 DUP3 ADD MSTORE PUSH1 0x64 ADD PUSH2 0x101 JUMP JUMPDEST CALLER PUSH1 0x0 SWAP1 DUP2 MSTORE PUSH1 0x20 DUP3 DUP2 MSTORE PUSH1 0x40 DUP1 DUP4 KECCAK256 DUP8 DUP5 MSTORE SWAP1 SWAP2 MSTORE DUP2 KECCAK256 DUP1 SLOAD DUP6 SWAP3 SWAP1 PUSH2 0x4A0 SWAP1 DUP5 SWAP1 PUSH2 0xAE3 JUMP JUMPDEST SWAP1 SWAP2 SSTORE POP PUSH2 0x4BA SWAP1 POP PUSH1 0x1 PUSH1 0x1 PUSH1 0xA0 SHL SUB DUP4 AND CALLER DUP6 PUSH2 0x6F6 JUMP JUMPDEST PUSH1 0x40 MLOAD DUP4 DUP2 MSTORE CALLER SWAP1 PUSH32 0x79BEE7F865179F632BCB69702978D375656A5DECC8CA5FC5C3ACC636412E35D SWAP1 PUSH1 0x20 ADD PUSH1 0x40 MLOAD DUP1 SWAP2 SUB SWAP1 LOG2 POP POP PUSH1 0x1 PUSH1 0x0 SSTORE POP POP JUMP JUMPDEST PUSH1 0x0 DUP2 DUP2 MSTORE PUSH32 0x61C2C7CF5017A0EAD7AEF00D9E35505290722FE92DA9ECA2FEEE8F02980BF565 PUSH1 0x20 MSTORE PUSH1 0x40 SWAP1 KECCAK256 SLOAD PUSH1 0xFF AND PUSH2 0x58B JUMPI PUSH1 0x40 MLOAD PUSH3 0x461BCD PUSH1 0xE5 SHL DUP2 MSTORE PUSH1 0x20 PUSH1 0x4 DUP3 ADD MSTORE PUSH1 0x2B PUSH1 0x24 DUP3 ADD MSTORE PUSH32 0x4C696243757272656E637952656769737472793A2043757272656E6379206E6F PUSH1 0x44 DUP3 ADD MSTORE PUSH11 0x1D081CDD5C1C1BDC9D1959 PUSH1 0xAA SHL PUSH1 0x64 DUP3 ADD MSTORE PUSH1 0x84 ADD PUSH2 0x101 JUMP JUMPDEST POP JUMP JUMPDEST PUSH1 0x0 DUP2 DUP2 MSTORE PUSH32 0x61C2C7CF5017A0EAD7AEF00D9E35505290722FE92DA9ECA2FEEE8F02980BF566 PUSH1 0x20 MSTORE PUSH1 0x40 SWAP1 KECCAK256 SLOAD PUSH1 0xFF AND PUSH2 0x58B JUMPI PUSH1 0x40 MLOAD PUSH3 0x461BCD PUSH1 0xE5 SHL DUP2 MSTORE PUSH1 0x20 PUSH1 0x4 DUP3 ADD MSTORE PUSH1 0x1F PUSH1 0x24 DUP3 ADD MSTORE PUSH32 0x4C696243757272656E637952656769737472793A204E6F742063727970746F00 PUSH1 0x44 DUP3 ADD MSTORE PUSH1 0x64 ADD PUSH2 0x101 JUMP JUMPDEST PUSH1 0x40 MLOAD PUSH1 0x1 PUSH1 0x1 PUSH1 0xA0 SHL SUB DUP1 DUP6 AND PUSH1 0x24 DUP4 ADD MSTORE DUP4 AND PUSH1 0x44 DUP3 ADD MSTORE PUSH1 0x64 DUP2 ADD DUP3 SWAP1 MSTORE PUSH2 0x676 SWAP1 DUP6 SWAP1 PUSH4 0x23B872DD PUSH1 0xE0 SHL SWAP1 PUSH1 0x84 ADD JUMPDEST PUSH1 0x40 DUP1 MLOAD PUSH1 0x1F NOT DUP2 DUP5 SUB ADD DUP2 MSTORE SWAP2 SWAP1 MSTORE PUSH1 0x20 DUP2 ADD DUP1 MLOAD PUSH1 0x1 PUSH1 0x1 PUSH1 0xE0 SHL SUB AND PUSH1 0x1 PUSH1 0x1 PUSH1 0xE0 SHL SUB NOT SWAP1 SWAP4 AND SWAP3 SWAP1 SWAP3 OR SWAP1 SWAP2 MSTORE PUSH2 0x72B JUMP JUMPDEST POP POP POP POP JUMP JUMPDEST PUSH1 0x0 DUP1 MLOAD PUSH1 0x20 PUSH2 0xB3D DUP4 CODECOPY DUP2 MLOAD SWAP2 MSTORE CALLER PUSH1 0x0 SWAP1 DUP2 MSTORE PUSH1 0x20 SWAP2 DUP3 MSTORE PUSH1 0x40 DUP1 DUP3 KECCAK256 DUP6 DUP4 MSTORE SWAP1 SWAP3 MSTORE KECCAK256 SLOAD DUP2 GT ISZERO PUSH2 0x6F2 JUMPI PUSH1 0x40 MLOAD PUSH3 0x461BCD PUSH1 0xE5 SHL DUP2 MSTORE PUSH1 0x20 PUSH1 0x4 DUP3 ADD DUP2 SWAP1 MSTORE PUSH1 0x24 DUP3 ADD MSTORE PUSH32 0x4C6962486F6C64696E673A20696E73756666696369656E7420686F6C64696E67 PUSH1 0x44 DUP3 ADD MSTORE PUSH1 0x64 ADD PUSH2 0x101 JUMP JUMPDEST POP POP JUMP JUMPDEST PUSH1 0x40 MLOAD PUSH1 0x1 PUSH1 0x1 PUSH1 0xA0 SHL SUB DUP4 AND PUSH1 0x24 DUP3 ADD MSTORE PUSH1 0x44 DUP2 ADD DUP3 SWAP1 MSTORE PUSH2 0x726 SWAP1 DUP5 SWAP1 PUSH4 0xA9059CBB PUSH1 0xE0 SHL SWAP1 PUSH1 0x64 ADD PUSH2 0x63F JUMP JUMPDEST POP POP POP JUMP JUMPDEST PUSH1 0x0 PUSH2 0x780 DUP3 PUSH1 0x40 MLOAD DUP1 PUSH1 0x40 ADD PUSH1 0x40 MSTORE DUP1 PUSH1 0x20 DUP2 MSTORE PUSH1 0x20 ADD PUSH32 0x5361666545524332303A206C6F772D6C6576656C2063616C6C206661696C6564 DUP2 MSTORE POP DUP6 PUSH1 0x1 PUSH1 0x1 PUSH1 0xA0 SHL SUB AND PUSH2 0x7FD SWAP1 SWAP3 SWAP2 SWAP1 PUSH4 0xFFFFFFFF AND JUMP JUMPDEST DUP1 MLOAD SWAP1 SWAP2 POP ISZERO PUSH2 0x726 JUMPI DUP1 DUP1 PUSH1 0x20 ADD SWAP1 MLOAD DUP2 ADD SWAP1 PUSH2 0x79E SWAP2 SWAP1 PUSH2 0x9B6 JUMP JUMPDEST PUSH2 0x726 JUMPI PUSH1 0x40 MLOAD PUSH3 0x461BCD PUSH1 0xE5 SHL DUP2 MSTORE PUSH1 0x20 PUSH1 0x4 DUP3 ADD MSTORE PUSH1 0x2A PUSH1 0x24 DUP3 ADD MSTORE PUSH32 0x5361666545524332303A204552433230206F7065726174696F6E20646964206E PUSH1 0x44 DUP3 ADD MSTORE PUSH10 0x1BDD081CDD58D8D95959 PUSH1 0xB2 SHL PUSH1 0x64 DUP3 ADD MSTORE PUSH1 0x84 ADD PUSH2 0x101 JUMP JUMPDEST PUSH1 0x60 PUSH2 0x80C DUP5 DUP5 PUSH1 0x0 DUP6 PUSH2 0x816 JUMP JUMPDEST SWAP1 POP JUMPDEST SWAP4 SWAP3 POP POP POP JUMP JUMPDEST PUSH1 0x60 DUP3 SELFBALANCE LT ISZERO PUSH2 0x877 JUMPI PUSH1 0x40 MLOAD PUSH3 0x461BCD PUSH1 0xE5 SHL DUP2 MSTORE PUSH1 0x20 PUSH1 0x4 DUP3 ADD MSTORE PUSH1 0x26 PUSH1 0x24 DUP3 ADD MSTORE PUSH32 0x416464726573733A20696E73756666696369656E742062616C616E636520666F PUSH1 0x44 DUP3 ADD MSTORE PUSH6 0x1C8818D85B1B PUSH1 0xD2 SHL PUSH1 0x64 DUP3 ADD MSTORE PUSH1 0x84 ADD PUSH2 0x101 JUMP JUMPDEST PUSH1 0x1 PUSH1 0x1 PUSH1 0xA0 SHL SUB DUP6 AND EXTCODESIZE PUSH2 0x8CE JUMPI PUSH1 0x40 MLOAD PUSH3 0x461BCD PUSH1 0xE5 SHL DUP2 MSTORE PUSH1 0x20 PUSH1 0x4 DUP3 ADD MSTORE PUSH1 0x1D PUSH1 0x24 DUP3 ADD MSTORE PUSH32 0x416464726573733A2063616C6C20746F206E6F6E2D636F6E7472616374000000 PUSH1 0x44 DUP3 ADD MSTORE PUSH1 0x64 ADD PUSH2 0x101 JUMP JUMPDEST PUSH1 0x0 DUP1 DUP7 PUSH1 0x1 PUSH1 0x1 PUSH1 0xA0 SHL SUB AND DUP6 DUP8 PUSH1 0x40 MLOAD PUSH2 0x8EA SWAP2 SWAP1 PUSH2 0xA4E JUMP JUMPDEST PUSH1 0x0 PUSH1 0x40 MLOAD DUP1 DUP4 SUB DUP2 DUP6 DUP8 GAS CALL SWAP3 POP POP POP RETURNDATASIZE DUP1 PUSH1 0x0 DUP2 EQ PUSH2 0x927 JUMPI PUSH1 0x40 MLOAD SWAP2 POP PUSH1 0x1F NOT PUSH1 0x3F RETURNDATASIZE ADD AND DUP3 ADD PUSH1 0x40 MSTORE RETURNDATASIZE DUP3 MSTORE RETURNDATASIZE PUSH1 0x0 PUSH1 0x20 DUP5 ADD RETURNDATACOPY PUSH2 0x92C JUMP JUMPDEST PUSH1 0x60 SWAP2 POP JUMPDEST POP SWAP2 POP SWAP2 POP PUSH2 0x93C DUP3 DUP3 DUP7 PUSH2 0x947 JUMP JUMPDEST SWAP8 SWAP7 POP POP POP POP POP POP POP JUMP JUMPDEST PUSH1 0x60 DUP4 ISZERO PUSH2 0x956 JUMPI POP DUP2 PUSH2 0x80F JUMP JUMPDEST DUP3 MLOAD ISZERO PUSH2 0x966 JUMPI DUP3 MLOAD DUP1 DUP5 PUSH1 0x20 ADD REVERT JUMPDEST DUP2 PUSH1 0x40 MLOAD PUSH3 0x461BCD PUSH1 0xE5 SHL DUP2 MSTORE PUSH1 0x4 ADD PUSH2 0x101 SWAP2 SWAP1 PUSH2 0xA6A JUMP JUMPDEST PUSH1 0x0 DUP1 PUSH1 0x40 DUP4 DUP6 SUB SLT ISZERO PUSH2 0x992 JUMPI DUP2 DUP3 REVERT JUMPDEST DUP3 CALLDATALOAD PUSH1 0x1 PUSH1 0x1 PUSH1 0xA0 SHL SUB DUP2 AND DUP2 EQ PUSH2 0x9A8 JUMPI DUP3 DUP4 REVERT JUMPDEST SWAP5 PUSH1 0x20 SWAP4 SWAP1 SWAP4 ADD CALLDATALOAD SWAP4 POP POP POP JUMP JUMPDEST PUSH1 0x0 PUSH1 0x20 DUP3 DUP5 SUB SLT ISZERO PUSH2 0x9C7 JUMPI DUP1 DUP2 REVERT JUMPDEST DUP2 MLOAD DUP1 ISZERO ISZERO DUP2 EQ PUSH2 0x80F JUMPI DUP2 DUP3 REVERT JUMPDEST PUSH1 0x0 DUP1 PUSH1 0x40 DUP4 DUP6 SUB SLT ISZERO PUSH2 0x9E8 JUMPI DUP2 DUP3 REVERT JUMPDEST POP POP DUP1 CALLDATALOAD SWAP3 PUSH1 0x20 SWAP1 SWAP2 ADD CALLDATALOAD SWAP2 POP JUMP JUMPDEST PUSH1 0x0 DUP1 PUSH1 0x0 DUP1 PUSH1 0x0 DUP1 PUSH1 0xC0 DUP8 DUP10 SUB SLT ISZERO PUSH2 0xA0F JUMPI DUP2 DUP3 REVERT JUMPDEST DUP7 CALLDATALOAD SWAP6 POP PUSH1 0x20 DUP8 ADD CALLDATALOAD SWAP5 POP PUSH1 0x40 DUP8 ADD CALLDATALOAD SWAP4 POP PUSH1 0x60 DUP8 ADD CALLDATALOAD PUSH1 0xFF DUP2 AND DUP2 EQ PUSH2 0xA34 JUMPI DUP3 DUP4 REVERT JUMPDEST SWAP6 SWAP9 SWAP5 SWAP8 POP SWAP3 SWAP6 PUSH1 0x80 DUP2 ADD CALLDATALOAD SWAP5 PUSH1 0xA0 SWAP1 SWAP2 ADD CALLDATALOAD SWAP4 POP SWAP2 POP POP JUMP JUMPDEST PUSH1 0x0 DUP3 MLOAD PUSH2 0xA60 DUP2 DUP5 PUSH1 0x20 DUP8 ADD PUSH2 0xAFA JUMP JUMPDEST SWAP2 SWAP1 SWAP2 ADD SWAP3 SWAP2 POP POP JUMP JUMPDEST PUSH1 0x20 DUP2 MSTORE PUSH1 0x0 DUP3 MLOAD DUP1 PUSH1 0x20 DUP5 ADD MSTORE PUSH2 0xA89 DUP2 PUSH1 0x40 DUP6 ADD PUSH1 0x20 DUP8 ADD PUSH2 0xAFA JUMP JUMPDEST PUSH1 0x1F ADD PUSH1 0x1F NOT AND SWAP2 SWAP1 SWAP2 ADD PUSH1 0x40 ADD SWAP3 SWAP2 POP POP JUMP JUMPDEST PUSH1 0x20 DUP1 DUP3 MSTORE PUSH1 0x14 SWAP1 DUP3 ADD MSTORE PUSH20 0x121BDB191A5B99CE881E995C9BC8185B5BDD5B9D PUSH1 0x62 SHL PUSH1 0x40 DUP3 ADD MSTORE PUSH1 0x60 ADD SWAP1 JUMP JUMPDEST PUSH1 0x0 DUP3 NOT DUP3 GT ISZERO PUSH2 0xADE JUMPI PUSH2 0xADE PUSH2 0xB26 JUMP JUMPDEST POP ADD SWAP1 JUMP JUMPDEST PUSH1 0x0 DUP3 DUP3 LT ISZERO PUSH2 0xAF5 JUMPI PUSH2 0xAF5 PUSH2 0xB26 JUMP JUMPDEST POP SUB SWAP1 JUMP JUMPDEST PUSH1 0x0 JUMPDEST DUP4 DUP2 LT ISZERO PUSH2 0xB15 JUMPI DUP2 DUP2 ADD MLOAD DUP4 DUP3 ADD MSTORE PUSH1 0x20 ADD PUSH2 0xAFD JUMP JUMPDEST DUP4 DUP2 GT ISZERO PUSH2 0x676 JUMPI POP POP PUSH1 0x0 SWAP2 ADD MSTORE JUMP JUMPDEST PUSH4 0x4E487B71 PUSH1 0xE0 SHL PUSH1 0x0 MSTORE PUSH1 0x11 PUSH1 0x4 MSTORE PUSH1 0x24 PUSH1 0x0 REVERT INVALID 0xC1 PC JUMP 0xD6 PUSH25 0x6C9849FCE88ACCF879BC2B002DC555D3FF91B5869E3B7B51C5 0x29 0xBB LOG2 PUSH5 0x6970667358 0x22 SLT KECCAK256 0xB7 PUSH31 0x9FCE2F2B35B18E83BF4638A79E2270BE896C200D74B9190725EBCBB7631E64 PUSH20 0x6F6C634300080400330000000000000000000000 ","sha1":"415d0d7c9c0f6f311183cb344c65bce37bd4b9b7","source":"//SPDX-License-Identifier: BUSL-1.1\npragma solidity ^0.8.2;\n\nimport \"../../libraries/core/LibHolding.sol\";\nimport \"../../libraries/core/LibCurrencyRegistry.sol\";\nimport \"@openzeppelin/contracts/token/ERC20/IERC20.sol\";\nimport \"@openzeppelin/contracts/security/ReentrancyGuard.sol\";\nimport \"@openzeppelin/contracts/token/ERC20/utils/SafeERC20.sol\";\nimport \"@openzeppelin/contracts/token/ERC20/extensions/draft-IERC20Permit.sol\";\n\nimport \"../../interfaces/IHubLibraryEvents.sol\";\n\n// TODO: keep an eye out for SafeERC20Permit\n\ncontract Holding is IHubLibraryEvents, ReentrancyGuard {\n    using SafeERC20 for IERC20;\n\n    event TokensDeposited(address indexed sender, uint256 amount);\n\n    /**\n     * placeDeposit allows users to deposit token into Hub contract\n     *\n     * @dev call token contract's \"approve\" first\n     *\n     * @param _amount | unit in token\n     *\n     * @custom:event TokensDeposited\n     */\n    function depositTokens(bytes32 _key, uint256 _amount) external {\n        LibCurrencyRegistry._requireCurrencySupported(_key);\n        LibCurrencyRegistry._requireIsCrypto(_key);\n        require(_amount > 0, \"Holding: zero amount\");\n        address token = address(bytes20(_key)); // convert to address\n        // require(token != address(0), \"zero token address\"); // checked at currency registration\n\n        // require(\n        //     IERC20(token).allowance(msg.sender, address(this)) >= _amount,\n        //     \"check token allowance\"\n        // ); // check done at token contract side\n\n        // bool sent = IERC20(token).transferFrom(\n        //     msg.sender,\n        //     address(this),\n        //     _amount\n        // );\n        // require(sent, \"tx failed\");\n        IERC20(token).safeTransferFrom(msg.sender, address(this), _amount);\n\n        LibHolding._storageHolding().userToCurrencyKeyToHolding[msg.sender][\n                _key\n            ] += _amount;\n\n        emit TokensDeposited(msg.sender, _amount);\n    }\n\n    function depositTokensPermit(\n        bytes32 _key,\n        uint256 _amount,\n        uint256 _deadline,\n        uint8 _v,\n        bytes32 _r,\n        bytes32 _s\n    ) external {\n        LibCurrencyRegistry._requireCurrencySupported(_key);\n        LibCurrencyRegistry._requireIsCrypto(_key);\n        require(_amount > 0, \"Holding: zero amount\");\n        address token = address(bytes20(_key)); // convert to address\n\n        IERC20Permit(token).permit(\n            msg.sender,\n            address(this),\n            _amount,\n            _deadline,\n            _v,\n            _r,\n            _s\n        );\n        IERC20(token).safeTransferFrom(msg.sender, address(this), _amount);\n\n        LibHolding._storageHolding().userToCurrencyKeyToHolding[msg.sender][\n                _key\n            ] += _amount;\n\n        emit TokensDeposited(msg.sender, _amount);\n    }\n\n    event TokensRemoved(address indexed sender, uint256 amount);\n\n    /**\n     * removeDeposit allows users to remove token from Hub contract\n     *\n     * @custom:event TokensRemoved\n     */\n    function withdrawTokens(bytes32 _key, uint256 _amount)\n        external\n        nonReentrant\n    {\n        require(_amount > 0, \"Holding: zero amount\");\n        LibHolding._requireSufficientHolding(_key, _amount);\n        LibCurrencyRegistry._requireCurrencySupported(_key);\n        LibCurrencyRegistry._requireIsCrypto(_key);\n\n        address token = address(bytes20(_key)); // convert to address\n        // require(token != address(0), \"zero token address\"); // checked at currency registration\n\n        LibHolding.StorageHolding storage s1 = LibHolding._storageHolding();\n        require(\n            s1.userToCurrencyKeyToHolding[msg.sender][_key] >= _amount,\n            \"Holding: insufficient holdings\"\n        );\n        // require(\n        //     IERC20(token).balanceOf(address(this)) >= _amount,\n        //     \"contract insufficient funds\"\n        // ); // note: if no bugs then this should never be called\n\n        s1.userToCurrencyKeyToHolding[msg.sender][_key] -= _amount;\n        // bool sent = IERC20(token).transfer(msg.sender, _amount);\n        // // bool sent = token.transferFrom(address(this), msg.sender, _amount);\n        // require(sent, \"tx failed\");\n        IERC20(token).safeTransfer(msg.sender, _amount);\n\n        emit TokensRemoved(msg.sender, _amount);\n    }\n\n    function getHolding(address _user, bytes32 _key)\n        external\n        view\n        returns (uint256)\n    {\n        LibCurrencyRegistry._requireCurrencySupported(_key);\n        return\n            LibHolding._storageHolding().userToCurrencyKeyToHolding[_user][\n                _key\n            ];\n    }\n\n    function getVault(address _user, bytes32 _key)\n        external\n        view\n        returns (uint256)\n    {\n        LibCurrencyRegistry._requireCurrencySupported(_key);\n        return\n            LibHolding._storageHolding().userToCurrencyKeyToVault[_user][_key];\n    }\n}\n","sourcePath":"contracts/hub/facets/core/Holding.sol","type":"contract","deployment":{"address":"0x4ba81aEe992D9016DeA5A1e034022E0F1Aa6FE1A","chainid":"80001","blockHeight":26007140}}