{"abi":[{"anonymous":false,"inputs":[{"indexed":true,"internalType":"address","name":"sender","type":"address"},{"indexed":false,"internalType":"address","name":"priceFeed","type":"address"}],"name":"AddedPriceFeedRemoved","type":"event"},{"anonymous":false,"inputs":[{"indexed":true,"internalType":"address","name":"sender","type":"address"},{"indexed":false,"internalType":"address","name":"applicant","type":"address"}],"name":"ApplicantApproved","type":"event"},{"anonymous":false,"inputs":[{"indexed":true,"internalType":"address","name":"sender","type":"address"},{"indexed":false,"internalType":"bytes32","name":"key","type":"bytes32"}],"name":"CurrencyRegistered","type":"event"},{"anonymous":false,"inputs":[{"indexed":true,"internalType":"address","name":"sender","type":"address"},{"indexed":false,"internalType":"bytes32","name":"key","type":"bytes32"}],"name":"CurrencyRemoved","type":"event"},{"anonymous":false,"inputs":[{"indexed":true,"internalType":"address","name":"sender","type":"address"},{"indexed":false,"internalType":"bytes32","name":"keyX","type":"bytes32"},{"indexed":false,"internalType":"bytes32","name":"keyY","type":"bytes32"}],"name":"DerivedPriceFeedRemoved","type":"event"},{"anonymous":false,"inputs":[{"components":[{"internalType":"address","name":"facetAddress","type":"address"},{"internalType":"enum Cut.FacetCutAction","name":"action","type":"uint8"},{"internalType":"bytes4[]","name":"functionSelectors","type":"bytes4[]"}],"indexed":false,"internalType":"struct Cut.FacetCut[]","name":"_cut","type":"tuple[]"},{"indexed":false,"internalType":"address","name":"_init","type":"address"},{"indexed":false,"internalType":"bytes","name":"_calldata","type":"bytes"}],"name":"DiamondCut","type":"event"},{"anonymous":false,"inputs":[{"indexed":true,"internalType":"address","name":"sender","type":"address"},{"indexed":false,"internalType":"uint256","name":"fee","type":"uint256"}],"name":"FeeSetBase","type":"event"},{"anonymous":false,"inputs":[{"indexed":true,"internalType":"address","name":"sender","type":"address"},{"indexed":false,"internalType":"uint256","name":"fee","type":"uint256"}],"name":"FeeSetCancellation","type":"event"},{"anonymous":false,"inputs":[{"indexed":true,"internalType":"address","name":"sender","type":"address"},{"indexed":false,"internalType":"uint256","name":"fee","type":"uint256"}],"name":"FeeSetCostPerMetre","type":"event"},{"anonymous":false,"inputs":[{"indexed":true,"internalType":"address","name":"sender","type":"address"},{"indexed":false,"internalType":"uint256","name":"fee","type":"uint256"}],"name":"FeeSetCostPerMinute","type":"event"},{"anonymous":false,"inputs":[{"indexed":true,"internalType":"address","name":"sender","type":"address"},{"indexed":false,"internalType":"bytes32","name":"key","type":"bytes32"},{"indexed":false,"internalType":"uint256","name":"amount","type":"uint256"}],"name":"FundsLocked","type":"event"},{"anonymous":false,"inputs":[{"indexed":true,"internalType":"address","name":"sender","type":"address"},{"indexed":false,"internalType":"address","name":"decrease","type":"address"},{"indexed":false,"internalType":"address","name":"increase","type":"address"},{"indexed":false,"internalType":"bytes32","name":"key","type":"bytes32"},{"indexed":false,"internalType":"uint256","name":"amount","type":"uint256"}],"name":"FundsUnlocked","type":"event"},{"anonymous":false,"inputs":[{"indexed":true,"internalType":"address","name":"sender","type":"address"},{"indexed":false,"internalType":"uint256","name":"count","type":"uint256"}],"name":"HiveCreationCountSet","type":"event"},{"anonymous":false,"inputs":[{"indexed":true,"internalType":"address","name":"sender","type":"address"},{"indexed":false,"internalType":"uint256","name":"duration","type":"uint256"}],"name":"HiveDisputeDurationSet","type":"event"},{"anonymous":false,"inputs":[{"indexed":true,"internalType":"address","name":"sender","type":"address"},{"indexed":true,"internalType":"bytes32","name":"jobId","type":"bytes32"}],"name":"JobCleared","type":"event"},{"anonymous":false,"inputs":[{"indexed":true,"internalType":"address","name":"sender","type":"address"},{"indexed":false,"internalType":"uint256","name":"duration","type":"uint256"}],"name":"JobLifespanSet","type":"event"},{"anonymous":false,"inputs":[{"indexed":true,"internalType":"address","name":"sender","type":"address"},{"indexed":false,"internalType":"uint256","name":"duration","type":"uint256"}],"name":"MinDisputeDurationSet","type":"event"},{"anonymous":false,"inputs":[{"indexed":true,"internalType":"address","name":"sender","type":"address"},{"indexed":false,"internalType":"address","name":"token","type":"address"}],"name":"NativeTokenSet","type":"event"},{"anonymous":false,"inputs":[{"indexed":true,"internalType":"address","name":"sender","type":"address"},{"indexed":false,"internalType":"bytes32","name":"keyX","type":"bytes32"},{"indexed":false,"internalType":"bytes32","name":"keyY","type":"bytes32"},{"indexed":false,"internalType":"address","name":"priceFeed","type":"address"}],"name":"PriceFeedAdded","type":"event"},{"anonymous":false,"inputs":[{"indexed":true,"internalType":"address","name":"sender","type":"address"},{"indexed":false,"internalType":"bytes32","name":"keyX","type":"bytes32"},{"indexed":false,"internalType":"bytes32","name":"keyY","type":"bytes32"},{"indexed":false,"internalType":"bytes32","name":"keyShared","type":"bytes32"}],"name":"PriceFeedDerived","type":"event"},{"anonymous":false,"inputs":[{"indexed":true,"internalType":"address","name":"sender","type":"address"},{"indexed":false,"internalType":"uint256","name":"rating","type":"uint256"}],"name":"RatingGiven","type":"event"},{"anonymous":false,"inputs":[{"indexed":true,"internalType":"bytes32","name":"role","type":"bytes32"},{"indexed":true,"internalType":"bytes32","name":"previousAdminRole","type":"bytes32"},{"indexed":true,"internalType":"bytes32","name":"newAdminRole","type":"bytes32"}],"name":"RoleAdminChanged","type":"event"},{"anonymous":false,"inputs":[{"indexed":true,"internalType":"bytes32","name":"role","type":"bytes32"},{"indexed":true,"internalType":"address","name":"account","type":"address"},{"indexed":true,"internalType":"address","name":"sender","type":"address"}],"name":"RoleGranted","type":"event"},{"anonymous":false,"inputs":[{"indexed":true,"internalType":"bytes32","name":"role","type":"bytes32"},{"indexed":true,"internalType":"address","name":"account","type":"address"},{"indexed":true,"internalType":"address","name":"sender","type":"address"}],"name":"RoleRevoked","type":"event"},{"anonymous":false,"inputs":[{"indexed":true,"internalType":"address","name":"sender","type":"address"},{"indexed":false,"internalType":"uint256","name":"min","type":"uint256"},{"indexed":false,"internalType":"uint256","name":"max","type":"uint256"}],"name":"SetRatingBounds","type":"event"},{"anonymous":false,"inputs":[{"indexed":true,"internalType":"address","name":"sender","type":"address"},{"indexed":false,"internalType":"address","name":"user","type":"address"},{"indexed":false,"internalType":"uint256","name":"banDuration","type":"uint256"}],"name":"UserBanned","type":"event"},{"inputs":[{"internalType":"address","name":"_requester","type":"address"}],"name":"calculateRequesterScore","outputs":[{"internalType":"uint256","name":"","type":"uint256"}],"stateMutability":"view","type":"function"},{"inputs":[{"internalType":"address","name":"_requester","type":"address"}],"name":"getRequesterToRequesterDetail","outputs":[{"components":[{"internalType":"uint256","name":"countStart","type":"uint256"},{"internalType":"uint256","name":"countEnd","type":"uint256"}],"internalType":"struct LibRequesterDetail.RequesterDetail","name":"","type":"tuple"}],"stateMutability":"view","type":"function"}],"bytecode":"608060405234801561001057600080fd5b506101e8806100206000396000f3fe608060405234801561001057600080fd5b50600436106100365760003560e01c80639ff5baa71461003b578063f2ca906d146100ce575b600080fd5b6100ae610049366004610164565b604080518082018252600080825260209182018190526001600160a01b039390931683527fb488b33f71fd9e5c0e8bf7e1aa82d584aaf8413fad3e382b04576a3cc3bbd9c7815291819020815180830190925280548252600101549181019190915290565b604080518251815260209283015192810192909252015b60405180910390f35b6100e16100dc366004610164565b6100ef565b6040519081526020016100c5565b60006100fa82610100565b92915050565b6001600160a01b03811660009081527fb488b33f71fd9e5c0e8bf7e1aa82d584aaf8413fad3e382b04576a3cc3bbd9c760208190526040822080546001909101548161015157506000949350505050565b61015b8282610192565b95945050505050565b600060208284031215610175578081fd5b81356001600160a01b038116811461018b578182fd5b9392505050565b6000826101ad57634e487b7160e01b81526012600452602481fd5b50049056fea26469706673582212208bf80e799dea20ead50d1c5b4078b4ce0fdf17ec6cc3d2c82500c5dbc246e43b64736f6c63430008040033","bytecodeSha1":"f2b6c3541da911e3b02fb66a75c36f4cb86772f7","compiler":{"evm_version":"istanbul","optimizer":{"enabled":true,"runs":200},"version":"0.8.4+commit.c7e474f2"},"contractName":"RequesterDetail","language":"Solidity","natspec":{"kind":"dev","methods":{},"version":1},"opcodes":"PUSH1 0x80 PUSH1 0x40 MSTORE CALLVALUE DUP1 ISZERO PUSH2 0x10 JUMPI PUSH1 0x0 DUP1 REVERT JUMPDEST POP PUSH1 0x4 CALLDATASIZE LT PUSH2 0x36 JUMPI PUSH1 0x0 CALLDATALOAD PUSH1 0xE0 SHR DUP1 PUSH4 0x9FF5BAA7 EQ PUSH2 0x3B JUMPI DUP1 PUSH4 0xF2CA906D EQ PUSH2 0xCE JUMPI JUMPDEST PUSH1 0x0 DUP1 REVERT JUMPDEST PUSH2 0xAE PUSH2 0x49 CALLDATASIZE PUSH1 0x4 PUSH2 0x164 JUMP JUMPDEST PUSH1 0x40 DUP1 MLOAD DUP1 DUP3 ADD DUP3 MSTORE PUSH1 0x0 DUP1 DUP3 MSTORE PUSH1 0x20 SWAP2 DUP3 ADD DUP2 SWAP1 MSTORE PUSH1 0x1 PUSH1 0x1 PUSH1 0xA0 SHL SUB SWAP4 SWAP1 SWAP4 AND DUP4 MSTORE PUSH32 0xB488B33F71FD9E5C0E8BF7E1AA82D584AAF8413FAD3E382B04576A3CC3BBD9C7 DUP2 MSTORE SWAP2 DUP2 SWAP1 KECCAK256 DUP2 MLOAD DUP1 DUP4 ADD SWAP1 SWAP3 MSTORE DUP1 SLOAD DUP3 MSTORE PUSH1 0x1 ADD SLOAD SWAP2 DUP2 ADD SWAP2 SWAP1 SWAP2 MSTORE SWAP1 JUMP JUMPDEST PUSH1 0x40 DUP1 MLOAD DUP3 MLOAD DUP2 MSTORE PUSH1 0x20 SWAP3 DUP4 ADD MLOAD SWAP3 DUP2 ADD SWAP3 SWAP1 SWAP3 MSTORE ADD JUMPDEST PUSH1 0x40 MLOAD DUP1 SWAP2 SUB SWAP1 RETURN JUMPDEST PUSH2 0xE1 PUSH2 0xDC CALLDATASIZE PUSH1 0x4 PUSH2 0x164 JUMP JUMPDEST PUSH2 0xEF JUMP JUMPDEST PUSH1 0x40 MLOAD SWAP1 DUP2 MSTORE PUSH1 0x20 ADD PUSH2 0xC5 JUMP JUMPDEST PUSH1 0x0 PUSH2 0xFA DUP3 PUSH2 0x100 JUMP JUMPDEST SWAP3 SWAP2 POP POP JUMP JUMPDEST PUSH1 0x1 PUSH1 0x1 PUSH1 0xA0 SHL SUB DUP2 AND PUSH1 0x0 SWAP1 DUP2 MSTORE PUSH32 0xB488B33F71FD9E5C0E8BF7E1AA82D584AAF8413FAD3E382B04576A3CC3BBD9C7 PUSH1 0x20 DUP2 SWAP1 MSTORE PUSH1 0x40 DUP3 KECCAK256 DUP1 SLOAD PUSH1 0x1 SWAP1 SWAP2 ADD SLOAD DUP2 PUSH2 0x151 JUMPI POP PUSH1 0x0 SWAP5 SWAP4 POP POP POP POP JUMP JUMPDEST PUSH2 0x15B DUP3 DUP3 PUSH2 0x192 JUMP JUMPDEST SWAP6 SWAP5 POP POP POP POP POP JUMP JUMPDEST PUSH1 0x0 PUSH1 0x20 DUP3 DUP5 SUB SLT ISZERO PUSH2 0x175 JUMPI DUP1 DUP2 REVERT JUMPDEST DUP2 CALLDATALOAD PUSH1 0x1 PUSH1 0x1 PUSH1 0xA0 SHL SUB DUP2 AND DUP2 EQ PUSH2 0x18B JUMPI DUP2 DUP3 REVERT JUMPDEST SWAP4 SWAP3 POP POP POP JUMP JUMPDEST PUSH1 0x0 DUP3 PUSH2 0x1AD JUMPI PUSH4 0x4E487B71 PUSH1 0xE0 SHL DUP2 MSTORE PUSH1 0x12 PUSH1 0x4 MSTORE PUSH1 0x24 DUP2 REVERT JUMPDEST POP DIV SWAP1 JUMP INVALID LOG2 PUSH5 0x6970667358 0x22 SLT KECCAK256 DUP12 0xF8 0xE PUSH26 0x9DEA20EAD50D1C5B4078B4CE0FDF17EC6CC3D2C82500C5DBC246 0xE4 EXTCODESIZE PUSH5 0x736F6C6343 STOP ADDMOD DIV STOP CALLER ","sha1":"21e0297e281b1da8d2cf939b03dcfb6e32febd0c","source":"//SPDX-License-Identifier: BUSL-1.1\npragma solidity ^0.8.2;\n\nimport \"../../libraries/core/LibRequesterDetail.sol\";\n\nimport \"../../interfaces/IHubLibraryEvents.sol\";\n\ncontract RequesterDetail is IHubLibraryEvents {\n    function getRequesterToRequesterDetail(address _requester)\n        external\n        view\n        returns (LibRequesterDetail.RequesterDetail memory)\n    {\n        return\n            LibRequesterDetail\n                ._storageRequesterDetail()\n                .requesterToRequesterDetail[_requester];\n    }\n\n    function calculateRequesterScore(address _requester)\n        external\n        view\n        returns (uint256)\n    {\n        return LibRequesterDetail._calculateRequesterScore(_requester);\n    }\n}\n","sourcePath":"contracts/hub/facets/core/RequesterDetail.sol","type":"contract","deployment":{"address":"0x50ab0f81b375041Da6f381620a26DEBC3a6b3ad1","chainid":"80001","blockHeight":26007210}}