{"abi":[{"anonymous":false,"inputs":[{"indexed":true,"internalType":"address","name":"sender","type":"address"},{"indexed":false,"internalType":"address","name":"priceFeed","type":"address"}],"name":"AddedPriceFeedRemoved","type":"event"},{"anonymous":false,"inputs":[{"indexed":true,"internalType":"address","name":"sender","type":"address"},{"indexed":false,"internalType":"address","name":"applicant","type":"address"}],"name":"ApplicantApproved","type":"event"},{"anonymous":false,"inputs":[{"indexed":true,"internalType":"address","name":"sender","type":"address"},{"indexed":false,"internalType":"bytes32","name":"key","type":"bytes32"}],"name":"CurrencyRegistered","type":"event"},{"anonymous":false,"inputs":[{"indexed":true,"internalType":"address","name":"sender","type":"address"},{"indexed":false,"internalType":"bytes32","name":"key","type":"bytes32"}],"name":"CurrencyRemoved","type":"event"},{"anonymous":false,"inputs":[{"indexed":true,"internalType":"address","name":"sender","type":"address"},{"indexed":false,"internalType":"bytes32","name":"keyX","type":"bytes32"},{"indexed":false,"internalType":"bytes32","name":"keyY","type":"bytes32"}],"name":"DerivedPriceFeedRemoved","type":"event"},{"anonymous":false,"inputs":[{"components":[{"internalType":"address","name":"facetAddress","type":"address"},{"internalType":"enum Cut.FacetCutAction","name":"action","type":"uint8"},{"internalType":"bytes4[]","name":"functionSelectors","type":"bytes4[]"}],"indexed":false,"internalType":"struct Cut.FacetCut[]","name":"_cut","type":"tuple[]"},{"indexed":false,"internalType":"address","name":"_init","type":"address"},{"indexed":false,"internalType":"bytes","name":"_calldata","type":"bytes"}],"name":"DiamondCut","type":"event"},{"anonymous":false,"inputs":[{"indexed":true,"internalType":"address","name":"sender","type":"address"},{"indexed":false,"internalType":"uint256","name":"fee","type":"uint256"}],"name":"FeeSetBase","type":"event"},{"anonymous":false,"inputs":[{"indexed":true,"internalType":"address","name":"sender","type":"address"},{"indexed":false,"internalType":"uint256","name":"fee","type":"uint256"}],"name":"FeeSetCancellation","type":"event"},{"anonymous":false,"inputs":[{"indexed":true,"internalType":"address","name":"sender","type":"address"},{"indexed":false,"internalType":"uint256","name":"fee","type":"uint256"}],"name":"FeeSetCostPerMetre","type":"event"},{"anonymous":false,"inputs":[{"indexed":true,"internalType":"address","name":"sender","type":"address"},{"indexed":false,"internalType":"uint256","name":"fee","type":"uint256"}],"name":"FeeSetCostPerMinute","type":"event"},{"anonymous":false,"inputs":[{"indexed":true,"internalType":"address","name":"sender","type":"address"},{"indexed":false,"internalType":"bytes32","name":"key","type":"bytes32"},{"indexed":false,"internalType":"uint256","name":"amount","type":"uint256"}],"name":"FundsLocked","type":"event"},{"anonymous":false,"inputs":[{"indexed":true,"internalType":"address","name":"sender","type":"address"},{"indexed":false,"internalType":"address","name":"decrease","type":"address"},{"indexed":false,"internalType":"address","name":"increase","type":"address"},{"indexed":false,"internalType":"bytes32","name":"key","type":"bytes32"},{"indexed":false,"internalType":"uint256","name":"amount","type":"uint256"}],"name":"FundsUnlocked","type":"event"},{"anonymous":false,"inputs":[{"indexed":true,"internalType":"address","name":"sender","type":"address"},{"indexed":false,"internalType":"uint256","name":"count","type":"uint256"}],"name":"HiveCreationCountSet","type":"event"},{"anonymous":false,"inputs":[{"indexed":true,"internalType":"address","name":"sender","type":"address"},{"indexed":false,"internalType":"uint256","name":"duration","type":"uint256"}],"name":"HiveDisputeDurationSet","type":"event"},{"anonymous":false,"inputs":[{"indexed":true,"internalType":"address","name":"sender","type":"address"},{"indexed":true,"internalType":"bytes32","name":"jobId","type":"bytes32"}],"name":"JobCleared","type":"event"},{"anonymous":false,"inputs":[{"indexed":true,"internalType":"address","name":"sender","type":"address"},{"indexed":false,"internalType":"uint256","name":"duration","type":"uint256"}],"name":"JobLifespanSet","type":"event"},{"anonymous":false,"inputs":[{"indexed":true,"internalType":"address","name":"sender","type":"address"},{"indexed":false,"internalType":"uint256","name":"duration","type":"uint256"}],"name":"MinDisputeDurationSet","type":"event"},{"anonymous":false,"inputs":[{"indexed":true,"internalType":"address","name":"sender","type":"address"},{"indexed":false,"internalType":"address","name":"token","type":"address"}],"name":"NativeTokenSet","type":"event"},{"anonymous":false,"inputs":[{"indexed":true,"internalType":"address","name":"sender","type":"address"},{"indexed":false,"internalType":"bytes32","name":"keyX","type":"bytes32"},{"indexed":false,"internalType":"bytes32","name":"keyY","type":"bytes32"},{"indexed":false,"internalType":"address","name":"priceFeed","type":"address"}],"name":"PriceFeedAdded","type":"event"},{"anonymous":false,"inputs":[{"indexed":true,"internalType":"address","name":"sender","type":"address"},{"indexed":false,"internalType":"bytes32","name":"keyX","type":"bytes32"},{"indexed":false,"internalType":"bytes32","name":"keyY","type":"bytes32"},{"indexed":false,"internalType":"bytes32","name":"keyShared","type":"bytes32"}],"name":"PriceFeedDerived","type":"event"},{"anonymous":false,"inputs":[{"indexed":true,"internalType":"address","name":"sender","type":"address"},{"indexed":false,"internalType":"uint256","name":"rating","type":"uint256"}],"name":"RatingGiven","type":"event"},{"anonymous":false,"inputs":[{"indexed":true,"internalType":"bytes32","name":"role","type":"bytes32"},{"indexed":true,"internalType":"bytes32","name":"previousAdminRole","type":"bytes32"},{"indexed":true,"internalType":"bytes32","name":"newAdminRole","type":"bytes32"}],"name":"RoleAdminChanged","type":"event"},{"anonymous":false,"inputs":[{"indexed":true,"internalType":"bytes32","name":"role","type":"bytes32"},{"indexed":true,"internalType":"address","name":"account","type":"address"},{"indexed":true,"internalType":"address","name":"sender","type":"address"}],"name":"RoleGranted","type":"event"},{"anonymous":false,"inputs":[{"indexed":true,"internalType":"bytes32","name":"role","type":"bytes32"},{"indexed":true,"internalType":"address","name":"account","type":"address"},{"indexed":true,"internalType":"address","name":"sender","type":"address"}],"name":"RoleRevoked","type":"event"},{"anonymous":false,"inputs":[{"indexed":true,"internalType":"address","name":"sender","type":"address"},{"indexed":false,"internalType":"uint256","name":"min","type":"uint256"},{"indexed":false,"internalType":"uint256","name":"max","type":"uint256"}],"name":"SetRatingBounds","type":"event"},{"anonymous":false,"inputs":[{"indexed":true,"internalType":"address","name":"sender","type":"address"},{"indexed":false,"internalType":"address","name":"user","type":"address"},{"indexed":false,"internalType":"uint256","name":"banDuration","type":"uint256"}],"name":"UserBanned","type":"event"},{"inputs":[{"internalType":"bytes32[]","name":"_jobIds","type":"bytes32[]"}],"name":"clearJobs","outputs":[],"stateMutability":"nonpayable","type":"function"},{"inputs":[{"internalType":"address","name":"_hive","type":"address"}],"name":"getHiveToDisputeDuration","outputs":[{"internalType":"uint256","name":"","type":"uint256"}],"stateMutability":"view","type":"function"},{"inputs":[{"internalType":"bytes32","name":"_jobId","type":"bytes32"}],"name":"getJobIdToJobDetail","outputs":[{"components":[{"internalType":"enum LibJobBoard.JobState","name":"state","type":"uint8"},{"internalType":"address","name":"requester","type":"address"},{"internalType":"address","name":"runner","type":"address"},{"internalType":"address","name":"package","type":"address"},{"internalType":"bytes32","name":"locationPackage","type":"bytes32"},{"internalType":"bytes32","name":"locationDestination","type":"bytes32"},{"internalType":"bytes32","name":"keyLocal","type":"bytes32"},{"internalType":"bytes32","name":"keyTransact","type":"bytes32"},{"internalType":"uint256","name":"metres","type":"uint256"},{"internalType":"uint256","name":"value","type":"uint256"},{"internalType":"uint256","name":"cancellationFee","type":"uint256"},{"internalType":"uint256","name":"disputeExpiryTimestamp","type":"uint256"},{"internalType":"bool","name":"packageVerified","type":"bool"},{"internalType":"bool","name":"dispute","type":"bool"},{"internalType":"bool","name":"rated","type":"bool"},{"internalType":"bool","name":"collectStatsRecorded","type":"bool"}],"internalType":"struct LibJobBoard.JobDetail","name":"","type":"tuple"}],"stateMutability":"view","type":"function"},{"inputs":[],"name":"getJobLifespan","outputs":[{"internalType":"uint256","name":"","type":"uint256"}],"stateMutability":"view","type":"function"},{"inputs":[],"name":"getMinDisputeDuration","outputs":[{"internalType":"uint256","name":"","type":"uint256"}],"stateMutability":"view","type":"function"},{"inputs":[{"internalType":"address","name":"_user","type":"address"}],"name":"getUserToJobIdCount","outputs":[{"internalType":"uint256","name":"","type":"uint256"}],"stateMutability":"view","type":"function"},{"inputs":[{"internalType":"uint256","name":"_duration","type":"uint256"}],"name":"setHiveToDisputeDuration","outputs":[],"stateMutability":"nonpayable","type":"function"},{"inputs":[{"internalType":"uint256","name":"_duration","type":"uint256"}],"name":"setJobLifespan","outputs":[],"stateMutability":"nonpayable","type":"function"},{"inputs":[{"internalType":"uint256","name":"_duration","type":"uint256"}],"name":"setMinDisputeDuration","outputs":[],"stateMutability":"nonpayable","type":"function"}],"bytecode":"608060405234801561001057600080fd5b50610f75806100206000396000f3fe608060405234801561001057600080fd5b50600436106100935760003560e01c80635ed59244116100665780635ed592441461013f5780636403e8d61461016657806392d448cd146101ae578063df605ff3146101c1578063e954ec8a146101e857600080fd5b80631785376f1461009857806317ce173b146100ad5780632e561fd6146100d6578063539e624f1461012c575b600080fd5b6100ab6100a6366004610c84565b6101fb565b005b6100c06100bb366004610c84565b610207565b6040516100cd9190610d66565b60405180910390f35b61011e6100e4366004610b9d565b6001600160a01b031660009081527fe79924097ccc2e2b47e332de4c30d72abc5a8153cca3b67cc7a0f5258cd81dec602052604090205490565b6040519081526020016100cd565b6100ab61013a366004610c84565b6103c0565b7fe79924097ccc2e2b47e332de4c30d72abc5a8153cca3b67cc7a0f5258cd81dea5461011e565b61011e610174366004610b9d565b6001600160a01b031660009081527fe79924097ccc2e2b47e332de4c30d72abc5a8153cca3b67cc7a0f5258cd81de9602052604090205490565b6100ab6101bc366004610bc4565b6103c9565b7fe79924097ccc2e2b47e332de4c30d72abc5a8153cca3b67cc7a0f5258cd81deb5461011e565b6100ab6101f6366004610c84565b610601565b6102048161060a565b50565b6040805161020081018252600080825260208201819052918101829052606081018290526080810182905260a0810182905260c0810182905260e08101829052610100810182905261012081018290526101408101829052610160810182905261018081018290526101a081018290526101c081018290526101e08101919091526000828152600080516020610f20833981519152602052604090819020815161020081019092528054829060ff1660058111156102d557634e487b7160e01b600052602160045260246000fd5b60058111156102f457634e487b7160e01b600052602160045260246000fd5b815281546001600160a01b036101009182900481166020840152600184015481166040840152600284015416606083015260038301546080830152600483015460a0830152600583015460c0830152600683015460e083015260078301548183015260088301546101208301526009830154610140830152600a830154610160830152600b9092015460ff8082161515610180840152928104831615156101a0830152620100008104831615156101c08301526301000000900490911615156101e09091015292915050565b6102048161072b565b61041a6040516020016103ff906020808252600f908201526e4d41494e5441494e45525f524f4c4560881b604082015260600190565b604051602081830303815290604052805190602001206107be565b600080516020610f2083398151915260005b82518110156105fc57600282600001600085848151811061045d57634e487b7160e01b600052603260045260246000fd5b60209081029190910181015182528101919091526040016000205460ff16600581111561049a57634e487b7160e01b600052602160045260246000fd5b1480610508575060058260000160008584815181106104c957634e487b7160e01b600052603260045260246000fd5b60209081029190910181015182528101919091526040016000205460ff16600581111561050657634e487b7160e01b600052602160045260246000fd5b145b80156105b55750816002015482600001600085848151811061053a57634e487b7160e01b600052603260045260246000fd5b60200260200101518152602001908152602001600020600a015461055e9190610e5a565b421015806105b5575081600001600084838151811061058d57634e487b7160e01b600052603260045260246000fd5b60200260200101518152602001908152602001600020600b0160029054906101000a900460ff165b156105ea576105ea8382815181106105dd57634e487b7160e01b600052603260045260246000fd5b60200260200101516107c7565b806105f481610ed8565b91505061042c565b505050565b61020481610887565b61063a6040516020016103ff90602080825260099082015268484956455f524f4c4560b81b604082015260600190565b7fe79924097ccc2e2b47e332de4c30d72abc5a8153cca3b67cc7a0f5258cd81deb54600080516020610f20833981519152908210156106d95760405162461bcd60e51b815260206004820152603060248201527f4c69624a6f62426f6172643a206475726174696f6e206c657373207468616e2060448201526f36b4b734b6bab690323ab930ba34b7b760811b60648201526084015b60405180910390fd5b33600081815260048301602052604090819020849055517f5dbb1802ee79b4d1b12136f4dd0e6bcfee2853019f12da4e1c0dd410e3153dce9061071f9085815260200190565b60405180910390a25050565b6107616040516020016103ff906020808252600f908201526e535452415445474953545f524f4c4560881b604082015260600190565b7fe79924097ccc2e2b47e332de4c30d72abc5a8153cca3b67cc7a0f5258cd81dea81905560405181815233907f9d4e9bc9b37033bc11c53ff1d9b44c874ed8604f416d36785905a2cd4a2fb576906020015b60405180910390a250565b61020481610913565b6000818152600080516020610f208339815191526020819052604080832080546001600160a81b03191681556001810180546001600160a01b0319908116909155600282018054909116905560038101849055600481018490556005810184905560068101849055600781018490556008810184905560098101849055600a8101849055600b01805463ffffffff19169055519091839133917f90a77ef2413d5be15e3f03be7bbe99152a0ac4349dca8ff5c6b9968d1e7e567d91a35050565b6108bd6040516020016103ff906020808252600f908201526e535452415445474953545f524f4c4560881b604082015260600190565b7fe79924097ccc2e2b47e332de4c30d72abc5a8153cca3b67cc7a0f5258cd81deb81905560405181815233907fe0fa1998449792f3961aad0390f3496aa58616b3bf8556ce022242c27e7a3cc0906020016107b3565b60008181527f4cd15452b25e815d3f9d1a3c7edd985a178edf5eb3461a1acbf855517423d694602090815260408083203380855292529091205461020491839160ff166109b05761096e816001600160a01b031660146109b4565b6109798360206109b4565b60405160200161098a929190610cbe565b60408051601f198184030181529082905262461bcd60e51b82526106d091600401610d33565b5050565b606060006109c3836002610e72565b6109ce906002610e5a565b67ffffffffffffffff8111156109f457634e487b7160e01b600052604160045260246000fd5b6040519080825280601f01601f191660200182016040528015610a1e576020820181803683370190505b509050600360fc1b81600081518110610a4757634e487b7160e01b600052603260045260246000fd5b60200101906001600160f81b031916908160001a905350600f60fb1b81600181518110610a8457634e487b7160e01b600052603260045260246000fd5b60200101906001600160f81b031916908160001a9053506000610aa8846002610e72565b610ab3906001610e5a565b90505b6001811115610b47576f181899199a1a9b1b9c1cb0b131b232b360811b85600f1660108110610af557634e487b7160e01b600052603260045260246000fd5b1a60f81b828281518110610b1957634e487b7160e01b600052603260045260246000fd5b60200101906001600160f81b031916908160001a90535060049490941c93610b4081610ec1565b9050610ab6565b508315610b965760405162461bcd60e51b815260206004820181905260248201527f537472696e67733a20686578206c656e67746820696e73756666696369656e7460448201526064016106d0565b9392505050565b600060208284031215610bae578081fd5b81356001600160a01b0381168114610b96578182fd5b60006020808385031215610bd6578182fd5b823567ffffffffffffffff80821115610bed578384fd5b818501915085601f830112610c00578384fd5b813581811115610c1257610c12610f09565b8060051b604051601f19603f83011681018181108582111715610c3757610c37610f09565b604052828152858101935084860182860187018a1015610c55578788fd5b8795505b83861015610c77578035855260019590950194938601938601610c59565b5098975050505050505050565b600060208284031215610c95578081fd5b5035919050565b60068110610cba57634e487b7160e01b600052602160045260246000fd5b9052565b7f416363657373436f6e74726f6c3a206163636f756e7420000000000000000000815260008351610cf6816017850160208801610e91565b7001034b99036b4b9b9b4b733903937b6329607d1b6017918401918201528351610d27816028840160208801610e91565b01602801949350505050565b6020815260008251806020840152610d52816040850160208701610e91565b601f01601f19169190910160400192915050565b600061020082019050610d7a828451610c9c565b6020830151610d9460208401826001600160a01b03169052565b506040830151610daf60408401826001600160a01b03169052565b506060830151610dca60608401826001600160a01b03169052565b506080838101519083015260a0808401519083015260c0808401519083015260e080840151908301526101008084015190830152610120808401519083015261014080840151908301526101608084015190830152610180808401511515908301526101a0808401511515908301526101c0808401511515908301526101e0928301511515929091019190915290565b60008219821115610e6d57610e6d610ef3565b500190565b6000816000190483118215151615610e8c57610e8c610ef3565b500290565b60005b83811015610eac578181015183820152602001610e94565b83811115610ebb576000848401525b50505050565b600081610ed057610ed0610ef3565b506000190190565b6000600019821415610eec57610eec610ef3565b5060010190565b634e487b7160e01b600052601160045260246000fd5b634e487b7160e01b600052604160045260246000fdfee79924097ccc2e2b47e332de4c30d72abc5a8153cca3b67cc7a0f5258cd81de8a2646970667358221220e3b0be8afb3e742d0b0638da618537b95853a00b8903416c0a9dacf680d15ab064736f6c63430008040033","bytecodeSha1":"f99ff5868e3c1416debd9ecae09d3996b88dc867","compiler":{"evm_version":"istanbul","optimizer":{"enabled":true,"runs":200},"version":"0.8.4+commit.c7e474f2"},"contractName":"JobBoard","language":"Solidity","natspec":{"kind":"dev","methods":{},"version":1},"opcodes":"PUSH1 0x80 PUSH1 0x40 MSTORE CALLVALUE DUP1 ISZERO PUSH2 0x10 JUMPI PUSH1 0x0 DUP1 REVERT JUMPDEST POP PUSH1 0x4 CALLDATASIZE LT PUSH2 0x93 JUMPI PUSH1 0x0 CALLDATALOAD PUSH1 0xE0 SHR DUP1 PUSH4 0x5ED59244 GT PUSH2 0x66 JUMPI DUP1 PUSH4 0x5ED59244 EQ PUSH2 0x13F JUMPI DUP1 PUSH4 0x6403E8D6 EQ PUSH2 0x166 JUMPI DUP1 PUSH4 0x92D448CD EQ PUSH2 0x1AE JUMPI DUP1 PUSH4 0xDF605FF3 EQ PUSH2 0x1C1 JUMPI DUP1 PUSH4 0xE954EC8A EQ PUSH2 0x1E8 JUMPI PUSH1 0x0 DUP1 REVERT JUMPDEST DUP1 PUSH4 0x1785376F EQ PUSH2 0x98 JUMPI DUP1 PUSH4 0x17CE173B EQ PUSH2 0xAD JUMPI DUP1 PUSH4 0x2E561FD6 EQ PUSH2 0xD6 JUMPI DUP1 PUSH4 0x539E624F EQ PUSH2 0x12C JUMPI JUMPDEST PUSH1 0x0 DUP1 REVERT JUMPDEST PUSH2 0xAB PUSH2 0xA6 CALLDATASIZE PUSH1 0x4 PUSH2 0xC84 JUMP JUMPDEST PUSH2 0x1FB JUMP JUMPDEST STOP JUMPDEST PUSH2 0xC0 PUSH2 0xBB CALLDATASIZE PUSH1 0x4 PUSH2 0xC84 JUMP JUMPDEST PUSH2 0x207 JUMP JUMPDEST PUSH1 0x40 MLOAD PUSH2 0xCD SWAP2 SWAP1 PUSH2 0xD66 JUMP JUMPDEST PUSH1 0x40 MLOAD DUP1 SWAP2 SUB SWAP1 RETURN JUMPDEST PUSH2 0x11E PUSH2 0xE4 CALLDATASIZE PUSH1 0x4 PUSH2 0xB9D JUMP JUMPDEST PUSH1 0x1 PUSH1 0x1 PUSH1 0xA0 SHL SUB AND PUSH1 0x0 SWAP1 DUP2 MSTORE PUSH32 0xE79924097CCC2E2B47E332DE4C30D72ABC5A8153CCA3B67CC7A0F5258CD81DEC PUSH1 0x20 MSTORE PUSH1 0x40 SWAP1 KECCAK256 SLOAD SWAP1 JUMP JUMPDEST PUSH1 0x40 MLOAD SWAP1 DUP2 MSTORE PUSH1 0x20 ADD PUSH2 0xCD JUMP JUMPDEST PUSH2 0xAB PUSH2 0x13A CALLDATASIZE PUSH1 0x4 PUSH2 0xC84 JUMP JUMPDEST PUSH2 0x3C0 JUMP JUMPDEST PUSH32 0xE79924097CCC2E2B47E332DE4C30D72ABC5A8153CCA3B67CC7A0F5258CD81DEA SLOAD PUSH2 0x11E JUMP JUMPDEST PUSH2 0x11E PUSH2 0x174 CALLDATASIZE PUSH1 0x4 PUSH2 0xB9D JUMP JUMPDEST PUSH1 0x1 PUSH1 0x1 PUSH1 0xA0 SHL SUB AND PUSH1 0x0 SWAP1 DUP2 MSTORE PUSH32 0xE79924097CCC2E2B47E332DE4C30D72ABC5A8153CCA3B67CC7A0F5258CD81DE9 PUSH1 0x20 MSTORE PUSH1 0x40 SWAP1 KECCAK256 SLOAD SWAP1 JUMP JUMPDEST PUSH2 0xAB PUSH2 0x1BC CALLDATASIZE PUSH1 0x4 PUSH2 0xBC4 JUMP JUMPDEST PUSH2 0x3C9 JUMP JUMPDEST PUSH32 0xE79924097CCC2E2B47E332DE4C30D72ABC5A8153CCA3B67CC7A0F5258CD81DEB SLOAD PUSH2 0x11E JUMP JUMPDEST PUSH2 0xAB PUSH2 0x1F6 CALLDATASIZE PUSH1 0x4 PUSH2 0xC84 JUMP JUMPDEST PUSH2 0x601 JUMP JUMPDEST PUSH2 0x204 DUP2 PUSH2 0x60A JUMP JUMPDEST POP JUMP JUMPDEST PUSH1 0x40 DUP1 MLOAD PUSH2 0x200 DUP2 ADD DUP3 MSTORE PUSH1 0x0 DUP1 DUP3 MSTORE PUSH1 0x20 DUP3 ADD DUP2 SWAP1 MSTORE SWAP2 DUP2 ADD DUP3 SWAP1 MSTORE PUSH1 0x60 DUP2 ADD DUP3 SWAP1 MSTORE PUSH1 0x80 DUP2 ADD DUP3 SWAP1 MSTORE PUSH1 0xA0 DUP2 ADD DUP3 SWAP1 MSTORE PUSH1 0xC0 DUP2 ADD DUP3 SWAP1 MSTORE PUSH1 0xE0 DUP2 ADD DUP3 SWAP1 MSTORE PUSH2 0x100 DUP2 ADD DUP3 SWAP1 MSTORE PUSH2 0x120 DUP2 ADD DUP3 SWAP1 MSTORE PUSH2 0x140 DUP2 ADD DUP3 SWAP1 MSTORE PUSH2 0x160 DUP2 ADD DUP3 SWAP1 MSTORE PUSH2 0x180 DUP2 ADD DUP3 SWAP1 MSTORE PUSH2 0x1A0 DUP2 ADD DUP3 SWAP1 MSTORE PUSH2 0x1C0 DUP2 ADD DUP3 SWAP1 MSTORE PUSH2 0x1E0 DUP2 ADD SWAP2 SWAP1 SWAP2 MSTORE PUSH1 0x0 DUP3 DUP2 MSTORE PUSH1 0x0 DUP1 MLOAD PUSH1 0x20 PUSH2 0xF20 DUP4 CODECOPY DUP2 MLOAD SWAP2 MSTORE PUSH1 0x20 MSTORE PUSH1 0x40 SWAP1 DUP2 SWAP1 KECCAK256 DUP2 MLOAD PUSH2 0x200 DUP2 ADD SWAP1 SWAP3 MSTORE DUP1 SLOAD DUP3 SWAP1 PUSH1 0xFF AND PUSH1 0x5 DUP2 GT ISZERO PUSH2 0x2D5 JUMPI PUSH4 0x4E487B71 PUSH1 0xE0 SHL PUSH1 0x0 MSTORE PUSH1 0x21 PUSH1 0x4 MSTORE PUSH1 0x24 PUSH1 0x0 REVERT JUMPDEST PUSH1 0x5 DUP2 GT ISZERO PUSH2 0x2F4 JUMPI PUSH4 0x4E487B71 PUSH1 0xE0 SHL PUSH1 0x0 MSTORE PUSH1 0x21 PUSH1 0x4 MSTORE PUSH1 0x24 PUSH1 0x0 REVERT JUMPDEST DUP2 MSTORE DUP2 SLOAD PUSH1 0x1 PUSH1 0x1 PUSH1 0xA0 SHL SUB PUSH2 0x100 SWAP2 DUP3 SWAP1 DIV DUP2 AND PUSH1 0x20 DUP5 ADD MSTORE PUSH1 0x1 DUP5 ADD SLOAD DUP2 AND PUSH1 0x40 DUP5 ADD MSTORE PUSH1 0x2 DUP5 ADD SLOAD AND PUSH1 0x60 DUP4 ADD MSTORE PUSH1 0x3 DUP4 ADD SLOAD PUSH1 0x80 DUP4 ADD MSTORE PUSH1 0x4 DUP4 ADD SLOAD PUSH1 0xA0 DUP4 ADD MSTORE PUSH1 0x5 DUP4 ADD SLOAD PUSH1 0xC0 DUP4 ADD MSTORE PUSH1 0x6 DUP4 ADD SLOAD PUSH1 0xE0 DUP4 ADD MSTORE PUSH1 0x7 DUP4 ADD SLOAD DUP2 DUP4 ADD MSTORE PUSH1 0x8 DUP4 ADD SLOAD PUSH2 0x120 DUP4 ADD MSTORE PUSH1 0x9 DUP4 ADD SLOAD PUSH2 0x140 DUP4 ADD MSTORE PUSH1 0xA DUP4 ADD SLOAD PUSH2 0x160 DUP4 ADD MSTORE PUSH1 0xB SWAP1 SWAP3 ADD SLOAD PUSH1 0xFF DUP1 DUP3 AND ISZERO ISZERO PUSH2 0x180 DUP5 ADD MSTORE SWAP3 DUP2 DIV DUP4 AND ISZERO ISZERO PUSH2 0x1A0 DUP4 ADD MSTORE PUSH3 0x10000 DUP2 DIV DUP4 AND ISZERO ISZERO PUSH2 0x1C0 DUP4 ADD MSTORE PUSH4 0x1000000 SWAP1 DIV SWAP1 SWAP2 AND ISZERO ISZERO PUSH2 0x1E0 SWAP1 SWAP2 ADD MSTORE SWAP3 SWAP2 POP POP JUMP JUMPDEST PUSH2 0x204 DUP2 PUSH2 0x72B JUMP JUMPDEST PUSH2 0x41A PUSH1 0x40 MLOAD PUSH1 0x20 ADD PUSH2 0x3FF SWAP1 PUSH1 0x20 DUP1 DUP3 MSTORE PUSH1 0xF SWAP1 DUP3 ADD MSTORE PUSH15 0x4D41494E5441494E45525F524F4C45 PUSH1 0x88 SHL PUSH1 0x40 DUP3 ADD MSTORE PUSH1 0x60 ADD SWAP1 JUMP JUMPDEST PUSH1 0x40 MLOAD PUSH1 0x20 DUP2 DUP4 SUB SUB DUP2 MSTORE SWAP1 PUSH1 0x40 MSTORE DUP1 MLOAD SWAP1 PUSH1 0x20 ADD KECCAK256 PUSH2 0x7BE JUMP JUMPDEST PUSH1 0x0 DUP1 MLOAD PUSH1 0x20 PUSH2 0xF20 DUP4 CODECOPY DUP2 MLOAD SWAP2 MSTORE PUSH1 0x0 JUMPDEST DUP3 MLOAD DUP2 LT ISZERO PUSH2 0x5FC JUMPI PUSH1 0x2 DUP3 PUSH1 0x0 ADD PUSH1 0x0 DUP6 DUP5 DUP2 MLOAD DUP2 LT PUSH2 0x45D JUMPI PUSH4 0x4E487B71 PUSH1 0xE0 SHL PUSH1 0x0 MSTORE PUSH1 0x32 PUSH1 0x4 MSTORE PUSH1 0x24 PUSH1 0x0 REVERT JUMPDEST PUSH1 0x20 SWAP1 DUP2 MUL SWAP2 SWAP1 SWAP2 ADD DUP2 ADD MLOAD DUP3 MSTORE DUP2 ADD SWAP2 SWAP1 SWAP2 MSTORE PUSH1 0x40 ADD PUSH1 0x0 KECCAK256 SLOAD PUSH1 0xFF AND PUSH1 0x5 DUP2 GT ISZERO PUSH2 0x49A JUMPI PUSH4 0x4E487B71 PUSH1 0xE0 SHL PUSH1 0x0 MSTORE PUSH1 0x21 PUSH1 0x4 MSTORE PUSH1 0x24 PUSH1 0x0 REVERT JUMPDEST EQ DUP1 PUSH2 0x508 JUMPI POP PUSH1 0x5 DUP3 PUSH1 0x0 ADD PUSH1 0x0 DUP6 DUP5 DUP2 MLOAD DUP2 LT PUSH2 0x4C9 JUMPI PUSH4 0x4E487B71 PUSH1 0xE0 SHL PUSH1 0x0 MSTORE PUSH1 0x32 PUSH1 0x4 MSTORE PUSH1 0x24 PUSH1 0x0 REVERT JUMPDEST PUSH1 0x20 SWAP1 DUP2 MUL SWAP2 SWAP1 SWAP2 ADD DUP2 ADD MLOAD DUP3 MSTORE DUP2 ADD SWAP2 SWAP1 SWAP2 MSTORE PUSH1 0x40 ADD PUSH1 0x0 KECCAK256 SLOAD PUSH1 0xFF AND PUSH1 0x5 DUP2 GT ISZERO PUSH2 0x506 JUMPI PUSH4 0x4E487B71 PUSH1 0xE0 SHL PUSH1 0x0 MSTORE PUSH1 0x21 PUSH1 0x4 MSTORE PUSH1 0x24 PUSH1 0x0 REVERT JUMPDEST EQ JUMPDEST DUP1 ISZERO PUSH2 0x5B5 JUMPI POP DUP2 PUSH1 0x2 ADD SLOAD DUP3 PUSH1 0x0 ADD PUSH1 0x0 DUP6 DUP5 DUP2 MLOAD DUP2 LT PUSH2 0x53A JUMPI PUSH4 0x4E487B71 PUSH1 0xE0 SHL PUSH1 0x0 MSTORE PUSH1 0x32 PUSH1 0x4 MSTORE PUSH1 0x24 PUSH1 0x0 REVERT JUMPDEST PUSH1 0x20 MUL PUSH1 0x20 ADD ADD MLOAD DUP2 MSTORE PUSH1 0x20 ADD SWAP1 DUP2 MSTORE PUSH1 0x20 ADD PUSH1 0x0 KECCAK256 PUSH1 0xA ADD SLOAD PUSH2 0x55E SWAP2 SWAP1 PUSH2 0xE5A JUMP JUMPDEST TIMESTAMP LT ISZERO DUP1 PUSH2 0x5B5 JUMPI POP DUP2 PUSH1 0x0 ADD PUSH1 0x0 DUP5 DUP4 DUP2 MLOAD DUP2 LT PUSH2 0x58D JUMPI PUSH4 0x4E487B71 PUSH1 0xE0 SHL PUSH1 0x0 MSTORE PUSH1 0x32 PUSH1 0x4 MSTORE PUSH1 0x24 PUSH1 0x0 REVERT JUMPDEST PUSH1 0x20 MUL PUSH1 0x20 ADD ADD MLOAD DUP2 MSTORE PUSH1 0x20 ADD SWAP1 DUP2 MSTORE PUSH1 0x20 ADD PUSH1 0x0 KECCAK256 PUSH1 0xB ADD PUSH1 0x2 SWAP1 SLOAD SWAP1 PUSH2 0x100 EXP SWAP1 DIV PUSH1 0xFF AND JUMPDEST ISZERO PUSH2 0x5EA JUMPI PUSH2 0x5EA DUP4 DUP3 DUP2 MLOAD DUP2 LT PUSH2 0x5DD JUMPI PUSH4 0x4E487B71 PUSH1 0xE0 SHL PUSH1 0x0 MSTORE PUSH1 0x32 PUSH1 0x4 MSTORE PUSH1 0x24 PUSH1 0x0 REVERT JUMPDEST PUSH1 0x20 MUL PUSH1 0x20 ADD ADD MLOAD PUSH2 0x7C7 JUMP JUMPDEST DUP1 PUSH2 0x5F4 DUP2 PUSH2 0xED8 JUMP JUMPDEST SWAP2 POP POP PUSH2 0x42C JUMP JUMPDEST POP POP POP JUMP JUMPDEST PUSH2 0x204 DUP2 PUSH2 0x887 JUMP JUMPDEST PUSH2 0x63A PUSH1 0x40 MLOAD PUSH1 0x20 ADD PUSH2 0x3FF SWAP1 PUSH1 0x20 DUP1 DUP3 MSTORE PUSH1 0x9 SWAP1 DUP3 ADD MSTORE PUSH9 0x484956455F524F4C45 PUSH1 0xB8 SHL PUSH1 0x40 DUP3 ADD MSTORE PUSH1 0x60 ADD SWAP1 JUMP JUMPDEST PUSH32 0xE79924097CCC2E2B47E332DE4C30D72ABC5A8153CCA3B67CC7A0F5258CD81DEB SLOAD PUSH1 0x0 DUP1 MLOAD PUSH1 0x20 PUSH2 0xF20 DUP4 CODECOPY DUP2 MLOAD SWAP2 MSTORE SWAP1 DUP3 LT ISZERO PUSH2 0x6D9 JUMPI PUSH1 0x40 MLOAD PUSH3 0x461BCD PUSH1 0xE5 SHL DUP2 MSTORE PUSH1 0x20 PUSH1 0x4 DUP3 ADD MSTORE PUSH1 0x30 PUSH1 0x24 DUP3 ADD MSTORE PUSH32 0x4C69624A6F62426F6172643A206475726174696F6E206C657373207468616E20 PUSH1 0x44 DUP3 ADD MSTORE PUSH16 0x36B4B734B6BAB690323AB930BA34B7B7 PUSH1 0x81 SHL PUSH1 0x64 DUP3 ADD MSTORE PUSH1 0x84 ADD JUMPDEST PUSH1 0x40 MLOAD DUP1 SWAP2 SUB SWAP1 REVERT JUMPDEST CALLER PUSH1 0x0 DUP2 DUP2 MSTORE PUSH1 0x4 DUP4 ADD PUSH1 0x20 MSTORE PUSH1 0x40 SWAP1 DUP2 SWAP1 KECCAK256 DUP5 SWAP1 SSTORE MLOAD PUSH32 0x5DBB1802EE79B4D1B12136F4DD0E6BCFEE2853019F12DA4E1C0DD410E3153DCE SWAP1 PUSH2 0x71F SWAP1 DUP6 DUP2 MSTORE PUSH1 0x20 ADD SWAP1 JUMP JUMPDEST PUSH1 0x40 MLOAD DUP1 SWAP2 SUB SWAP1 LOG2 POP POP JUMP JUMPDEST PUSH2 0x761 PUSH1 0x40 MLOAD PUSH1 0x20 ADD PUSH2 0x3FF SWAP1 PUSH1 0x20 DUP1 DUP3 MSTORE PUSH1 0xF SWAP1 DUP3 ADD MSTORE PUSH15 0x535452415445474953545F524F4C45 PUSH1 0x88 SHL PUSH1 0x40 DUP3 ADD MSTORE PUSH1 0x60 ADD SWAP1 JUMP JUMPDEST PUSH32 0xE79924097CCC2E2B47E332DE4C30D72ABC5A8153CCA3B67CC7A0F5258CD81DEA DUP2 SWAP1 SSTORE PUSH1 0x40 MLOAD DUP2 DUP2 MSTORE CALLER SWAP1 PUSH32 0x9D4E9BC9B37033BC11C53FF1D9B44C874ED8604F416D36785905A2CD4A2FB576 SWAP1 PUSH1 0x20 ADD JUMPDEST PUSH1 0x40 MLOAD DUP1 SWAP2 SUB SWAP1 LOG2 POP JUMP JUMPDEST PUSH2 0x204 DUP2 PUSH2 0x913 JUMP JUMPDEST PUSH1 0x0 DUP2 DUP2 MSTORE PUSH1 0x0 DUP1 MLOAD PUSH1 0x20 PUSH2 0xF20 DUP4 CODECOPY DUP2 MLOAD SWAP2 MSTORE PUSH1 0x20 DUP2 SWAP1 MSTORE PUSH1 0x40 DUP1 DUP4 KECCAK256 DUP1 SLOAD PUSH1 0x1 PUSH1 0x1 PUSH1 0xA8 SHL SUB NOT AND DUP2 SSTORE PUSH1 0x1 DUP2 ADD DUP1 SLOAD PUSH1 0x1 PUSH1 0x1 PUSH1 0xA0 SHL SUB NOT SWAP1 DUP2 AND SWAP1 SWAP2 SSTORE PUSH1 0x2 DUP3 ADD DUP1 SLOAD SWAP1 SWAP2 AND SWAP1 SSTORE PUSH1 0x3 DUP2 ADD DUP5 SWAP1 SSTORE PUSH1 0x4 DUP2 ADD DUP5 SWAP1 SSTORE PUSH1 0x5 DUP2 ADD DUP5 SWAP1 SSTORE PUSH1 0x6 DUP2 ADD DUP5 SWAP1 SSTORE PUSH1 0x7 DUP2 ADD DUP5 SWAP1 SSTORE PUSH1 0x8 DUP2 ADD DUP5 SWAP1 SSTORE PUSH1 0x9 DUP2 ADD DUP5 SWAP1 SSTORE PUSH1 0xA DUP2 ADD DUP5 SWAP1 SSTORE PUSH1 0xB ADD DUP1 SLOAD PUSH4 0xFFFFFFFF NOT AND SWAP1 SSTORE MLOAD SWAP1 SWAP2 DUP4 SWAP2 CALLER SWAP2 PUSH32 0x90A77EF2413D5BE15E3F03BE7BBE99152A0AC4349DCA8FF5C6B9968D1E7E567D SWAP2 LOG3 POP POP JUMP JUMPDEST PUSH2 0x8BD PUSH1 0x40 MLOAD PUSH1 0x20 ADD PUSH2 0x3FF SWAP1 PUSH1 0x20 DUP1 DUP3 MSTORE PUSH1 0xF SWAP1 DUP3 ADD MSTORE PUSH15 0x535452415445474953545F524F4C45 PUSH1 0x88 SHL PUSH1 0x40 DUP3 ADD MSTORE PUSH1 0x60 ADD SWAP1 JUMP JUMPDEST PUSH32 0xE79924097CCC2E2B47E332DE4C30D72ABC5A8153CCA3B67CC7A0F5258CD81DEB DUP2 SWAP1 SSTORE PUSH1 0x40 MLOAD DUP2 DUP2 MSTORE CALLER SWAP1 PUSH32 0xE0FA1998449792F3961AAD0390F3496AA58616B3BF8556CE022242C27E7A3CC0 SWAP1 PUSH1 0x20 ADD PUSH2 0x7B3 JUMP JUMPDEST PUSH1 0x0 DUP2 DUP2 MSTORE PUSH32 0x4CD15452B25E815D3F9D1A3C7EDD985A178EDF5EB3461A1ACBF855517423D694 PUSH1 0x20 SWAP1 DUP2 MSTORE PUSH1 0x40 DUP1 DUP4 KECCAK256 CALLER DUP1 DUP6 MSTORE SWAP3 MSTORE SWAP1 SWAP2 KECCAK256 SLOAD PUSH2 0x204 SWAP2 DUP4 SWAP2 PUSH1 0xFF AND PUSH2 0x9B0 JUMPI PUSH2 0x96E DUP2 PUSH1 0x1 PUSH1 0x1 PUSH1 0xA0 SHL SUB AND PUSH1 0x14 PUSH2 0x9B4 JUMP JUMPDEST PUSH2 0x979 DUP4 PUSH1 0x20 PUSH2 0x9B4 JUMP JUMPDEST PUSH1 0x40 MLOAD PUSH1 0x20 ADD PUSH2 0x98A SWAP3 SWAP2 SWAP1 PUSH2 0xCBE JUMP JUMPDEST PUSH1 0x40 DUP1 MLOAD PUSH1 0x1F NOT DUP2 DUP5 SUB ADD DUP2 MSTORE SWAP1 DUP3 SWAP1 MSTORE PUSH3 0x461BCD PUSH1 0xE5 SHL DUP3 MSTORE PUSH2 0x6D0 SWAP2 PUSH1 0x4 ADD PUSH2 0xD33 JUMP JUMPDEST POP POP JUMP JUMPDEST PUSH1 0x60 PUSH1 0x0 PUSH2 0x9C3 DUP4 PUSH1 0x2 PUSH2 0xE72 JUMP JUMPDEST PUSH2 0x9CE SWAP1 PUSH1 0x2 PUSH2 0xE5A JUMP JUMPDEST PUSH8 0xFFFFFFFFFFFFFFFF DUP2 GT ISZERO PUSH2 0x9F4 JUMPI PUSH4 0x4E487B71 PUSH1 0xE0 SHL PUSH1 0x0 MSTORE PUSH1 0x41 PUSH1 0x4 MSTORE PUSH1 0x24 PUSH1 0x0 REVERT JUMPDEST PUSH1 0x40 MLOAD SWAP1 DUP1 DUP3 MSTORE DUP1 PUSH1 0x1F ADD PUSH1 0x1F NOT AND PUSH1 0x20 ADD DUP3 ADD PUSH1 0x40 MSTORE DUP1 ISZERO PUSH2 0xA1E JUMPI PUSH1 0x20 DUP3 ADD DUP2 DUP1 CALLDATASIZE DUP4 CALLDATACOPY ADD SWAP1 POP JUMPDEST POP SWAP1 POP PUSH1 0x3 PUSH1 0xFC SHL DUP2 PUSH1 0x0 DUP2 MLOAD DUP2 LT PUSH2 0xA47 JUMPI PUSH4 0x4E487B71 PUSH1 0xE0 SHL PUSH1 0x0 MSTORE PUSH1 0x32 PUSH1 0x4 MSTORE PUSH1 0x24 PUSH1 0x0 REVERT JUMPDEST PUSH1 0x20 ADD ADD SWAP1 PUSH1 0x1 PUSH1 0x1 PUSH1 0xF8 SHL SUB NOT AND SWAP1 DUP2 PUSH1 0x0 BYTE SWAP1 MSTORE8 POP PUSH1 0xF PUSH1 0xFB SHL DUP2 PUSH1 0x1 DUP2 MLOAD DUP2 LT PUSH2 0xA84 JUMPI PUSH4 0x4E487B71 PUSH1 0xE0 SHL PUSH1 0x0 MSTORE PUSH1 0x32 PUSH1 0x4 MSTORE PUSH1 0x24 PUSH1 0x0 REVERT JUMPDEST PUSH1 0x20 ADD ADD SWAP1 PUSH1 0x1 PUSH1 0x1 PUSH1 0xF8 SHL SUB NOT AND SWAP1 DUP2 PUSH1 0x0 BYTE SWAP1 MSTORE8 POP PUSH1 0x0 PUSH2 0xAA8 DUP5 PUSH1 0x2 PUSH2 0xE72 JUMP JUMPDEST PUSH2 0xAB3 SWAP1 PUSH1 0x1 PUSH2 0xE5A JUMP JUMPDEST SWAP1 POP JUMPDEST PUSH1 0x1 DUP2 GT ISZERO PUSH2 0xB47 JUMPI PUSH16 0x181899199A1A9B1B9C1CB0B131B232B3 PUSH1 0x81 SHL DUP6 PUSH1 0xF AND PUSH1 0x10 DUP2 LT PUSH2 0xAF5 JUMPI PUSH4 0x4E487B71 PUSH1 0xE0 SHL PUSH1 0x0 MSTORE PUSH1 0x32 PUSH1 0x4 MSTORE PUSH1 0x24 PUSH1 0x0 REVERT JUMPDEST BYTE PUSH1 0xF8 SHL DUP3 DUP3 DUP2 MLOAD DUP2 LT PUSH2 0xB19 JUMPI PUSH4 0x4E487B71 PUSH1 0xE0 SHL PUSH1 0x0 MSTORE PUSH1 0x32 PUSH1 0x4 MSTORE PUSH1 0x24 PUSH1 0x0 REVERT JUMPDEST PUSH1 0x20 ADD ADD SWAP1 PUSH1 0x1 PUSH1 0x1 PUSH1 0xF8 SHL SUB NOT AND SWAP1 DUP2 PUSH1 0x0 BYTE SWAP1 MSTORE8 POP PUSH1 0x4 SWAP5 SWAP1 SWAP5 SHR SWAP4 PUSH2 0xB40 DUP2 PUSH2 0xEC1 JUMP JUMPDEST SWAP1 POP PUSH2 0xAB6 JUMP JUMPDEST POP DUP4 ISZERO PUSH2 0xB96 JUMPI PUSH1 0x40 MLOAD PUSH3 0x461BCD PUSH1 0xE5 SHL DUP2 MSTORE PUSH1 0x20 PUSH1 0x4 DUP3 ADD DUP2 SWAP1 MSTORE PUSH1 0x24 DUP3 ADD MSTORE PUSH32 0x537472696E67733A20686578206C656E67746820696E73756666696369656E74 PUSH1 0x44 DUP3 ADD MSTORE PUSH1 0x64 ADD PUSH2 0x6D0 JUMP JUMPDEST SWAP4 SWAP3 POP POP POP JUMP JUMPDEST PUSH1 0x0 PUSH1 0x20 DUP3 DUP5 SUB SLT ISZERO PUSH2 0xBAE JUMPI DUP1 DUP2 REVERT JUMPDEST DUP2 CALLDATALOAD PUSH1 0x1 PUSH1 0x1 PUSH1 0xA0 SHL SUB DUP2 AND DUP2 EQ PUSH2 0xB96 JUMPI DUP2 DUP3 REVERT JUMPDEST PUSH1 0x0 PUSH1 0x20 DUP1 DUP4 DUP6 SUB SLT ISZERO PUSH2 0xBD6 JUMPI DUP2 DUP3 REVERT JUMPDEST DUP3 CALLDATALOAD PUSH8 0xFFFFFFFFFFFFFFFF DUP1 DUP3 GT ISZERO PUSH2 0xBED JUMPI DUP4 DUP5 REVERT JUMPDEST DUP2 DUP6 ADD SWAP2 POP DUP6 PUSH1 0x1F DUP4 ADD SLT PUSH2 0xC00 JUMPI DUP4 DUP5 REVERT JUMPDEST DUP2 CALLDATALOAD DUP2 DUP2 GT ISZERO PUSH2 0xC12 JUMPI PUSH2 0xC12 PUSH2 0xF09 JUMP JUMPDEST DUP1 PUSH1 0x5 SHL PUSH1 0x40 MLOAD PUSH1 0x1F NOT PUSH1 0x3F DUP4 ADD AND DUP2 ADD DUP2 DUP2 LT DUP6 DUP3 GT OR ISZERO PUSH2 0xC37 JUMPI PUSH2 0xC37 PUSH2 0xF09 JUMP JUMPDEST PUSH1 0x40 MSTORE DUP3 DUP2 MSTORE DUP6 DUP2 ADD SWAP4 POP DUP5 DUP7 ADD DUP3 DUP7 ADD DUP8 ADD DUP11 LT ISZERO PUSH2 0xC55 JUMPI DUP8 DUP9 REVERT JUMPDEST DUP8 SWAP6 POP JUMPDEST DUP4 DUP7 LT ISZERO PUSH2 0xC77 JUMPI DUP1 CALLDATALOAD DUP6 MSTORE PUSH1 0x1 SWAP6 SWAP1 SWAP6 ADD SWAP5 SWAP4 DUP7 ADD SWAP4 DUP7 ADD PUSH2 0xC59 JUMP JUMPDEST POP SWAP9 SWAP8 POP POP POP POP POP POP POP POP JUMP JUMPDEST PUSH1 0x0 PUSH1 0x20 DUP3 DUP5 SUB SLT ISZERO PUSH2 0xC95 JUMPI DUP1 DUP2 REVERT JUMPDEST POP CALLDATALOAD SWAP2 SWAP1 POP JUMP JUMPDEST PUSH1 0x6 DUP2 LT PUSH2 0xCBA JUMPI PUSH4 0x4E487B71 PUSH1 0xE0 SHL PUSH1 0x0 MSTORE PUSH1 0x21 PUSH1 0x4 MSTORE PUSH1 0x24 PUSH1 0x0 REVERT JUMPDEST SWAP1 MSTORE JUMP JUMPDEST PUSH32 0x416363657373436F6E74726F6C3A206163636F756E7420000000000000000000 DUP2 MSTORE PUSH1 0x0 DUP4 MLOAD PUSH2 0xCF6 DUP2 PUSH1 0x17 DUP6 ADD PUSH1 0x20 DUP9 ADD PUSH2 0xE91 JUMP JUMPDEST PUSH17 0x1034B99036B4B9B9B4B733903937B6329 PUSH1 0x7D SHL PUSH1 0x17 SWAP2 DUP5 ADD SWAP2 DUP3 ADD MSTORE DUP4 MLOAD PUSH2 0xD27 DUP2 PUSH1 0x28 DUP5 ADD PUSH1 0x20 DUP9 ADD PUSH2 0xE91 JUMP JUMPDEST ADD PUSH1 0x28 ADD SWAP5 SWAP4 POP POP POP POP JUMP JUMPDEST PUSH1 0x20 DUP2 MSTORE PUSH1 0x0 DUP3 MLOAD DUP1 PUSH1 0x20 DUP5 ADD MSTORE PUSH2 0xD52 DUP2 PUSH1 0x40 DUP6 ADD PUSH1 0x20 DUP8 ADD PUSH2 0xE91 JUMP JUMPDEST PUSH1 0x1F ADD PUSH1 0x1F NOT AND SWAP2 SWAP1 SWAP2 ADD PUSH1 0x40 ADD SWAP3 SWAP2 POP POP JUMP JUMPDEST PUSH1 0x0 PUSH2 0x200 DUP3 ADD SWAP1 POP PUSH2 0xD7A DUP3 DUP5 MLOAD PUSH2 0xC9C JUMP JUMPDEST PUSH1 0x20 DUP4 ADD MLOAD PUSH2 0xD94 PUSH1 0x20 DUP5 ADD DUP3 PUSH1 0x1 PUSH1 0x1 PUSH1 0xA0 SHL SUB AND SWAP1 MSTORE JUMP JUMPDEST POP PUSH1 0x40 DUP4 ADD MLOAD PUSH2 0xDAF PUSH1 0x40 DUP5 ADD DUP3 PUSH1 0x1 PUSH1 0x1 PUSH1 0xA0 SHL SUB AND SWAP1 MSTORE JUMP JUMPDEST POP PUSH1 0x60 DUP4 ADD MLOAD PUSH2 0xDCA PUSH1 0x60 DUP5 ADD DUP3 PUSH1 0x1 PUSH1 0x1 PUSH1 0xA0 SHL SUB AND SWAP1 MSTORE JUMP JUMPDEST POP PUSH1 0x80 DUP4 DUP2 ADD MLOAD SWAP1 DUP4 ADD MSTORE PUSH1 0xA0 DUP1 DUP5 ADD MLOAD SWAP1 DUP4 ADD MSTORE PUSH1 0xC0 DUP1 DUP5 ADD MLOAD SWAP1 DUP4 ADD MSTORE PUSH1 0xE0 DUP1 DUP5 ADD MLOAD SWAP1 DUP4 ADD MSTORE PUSH2 0x100 DUP1 DUP5 ADD MLOAD SWAP1 DUP4 ADD MSTORE PUSH2 0x120 DUP1 DUP5 ADD MLOAD SWAP1 DUP4 ADD MSTORE PUSH2 0x140 DUP1 DUP5 ADD MLOAD SWAP1 DUP4 ADD MSTORE PUSH2 0x160 DUP1 DUP5 ADD MLOAD SWAP1 DUP4 ADD MSTORE PUSH2 0x180 DUP1 DUP5 ADD MLOAD ISZERO ISZERO SWAP1 DUP4 ADD MSTORE PUSH2 0x1A0 DUP1 DUP5 ADD MLOAD ISZERO ISZERO SWAP1 DUP4 ADD MSTORE PUSH2 0x1C0 DUP1 DUP5 ADD MLOAD ISZERO ISZERO SWAP1 DUP4 ADD MSTORE PUSH2 0x1E0 SWAP3 DUP4 ADD MLOAD ISZERO ISZERO SWAP3 SWAP1 SWAP2 ADD SWAP2 SWAP1 SWAP2 MSTORE SWAP1 JUMP JUMPDEST PUSH1 0x0 DUP3 NOT DUP3 GT ISZERO PUSH2 0xE6D JUMPI PUSH2 0xE6D PUSH2 0xEF3 JUMP JUMPDEST POP ADD SWAP1 JUMP JUMPDEST PUSH1 0x0 DUP2 PUSH1 0x0 NOT DIV DUP4 GT DUP3 ISZERO ISZERO AND ISZERO PUSH2 0xE8C JUMPI PUSH2 0xE8C PUSH2 0xEF3 JUMP JUMPDEST POP MUL SWAP1 JUMP JUMPDEST PUSH1 0x0 JUMPDEST DUP4 DUP2 LT ISZERO PUSH2 0xEAC JUMPI DUP2 DUP2 ADD MLOAD DUP4 DUP3 ADD MSTORE PUSH1 0x20 ADD PUSH2 0xE94 JUMP JUMPDEST DUP4 DUP2 GT ISZERO PUSH2 0xEBB JUMPI PUSH1 0x0 DUP5 DUP5 ADD MSTORE JUMPDEST POP POP POP POP JUMP JUMPDEST PUSH1 0x0 DUP2 PUSH2 0xED0 JUMPI PUSH2 0xED0 PUSH2 0xEF3 JUMP JUMPDEST POP PUSH1 0x0 NOT ADD SWAP1 JUMP JUMPDEST PUSH1 0x0 PUSH1 0x0 NOT DUP3 EQ ISZERO PUSH2 0xEEC JUMPI PUSH2 0xEEC PUSH2 0xEF3 JUMP JUMPDEST POP PUSH1 0x1 ADD SWAP1 JUMP JUMPDEST PUSH4 0x4E487B71 PUSH1 0xE0 SHL PUSH1 0x0 MSTORE PUSH1 0x11 PUSH1 0x4 MSTORE PUSH1 0x24 PUSH1 0x0 REVERT JUMPDEST PUSH4 0x4E487B71 PUSH1 0xE0 SHL PUSH1 0x0 MSTORE PUSH1 0x41 PUSH1 0x4 MSTORE PUSH1 0x24 PUSH1 0x0 REVERT INVALID 0xE7 SWAP10 0x24 MULMOD PUSH29 0xCC2E2B47E332DE4C30D72ABC5A8153CCA3B67CC7A0F5258CD81DE8A264 PUSH10 0x70667358221220E3B0BE DUP11 0xFB RETURNDATACOPY PUSH21 0x2D0B0638DA618537B95853A00B8903416C0A9DACF6 DUP1 0xD1 GAS 0xB0 PUSH5 0x736F6C6343 STOP ADDMOD DIV STOP CALLER ","sha1":"a52db8dfa824eb9ad50afd0c9deeb288ed1343a9","source":"//SPDX-License-Identifier: BUSL-1.1\npragma solidity ^0.8.2;\n\nimport \"../../libraries/core/LibJobBoard.sol\";\n\nimport \"../../libraries/utils/LibAccessControl.sol\";\n\nimport \"../../interfaces/IHubLibraryEvents.sol\";\n\ncontract JobBoard is IHubLibraryEvents {\n    function setJobLifespan(uint256 _duration) external {\n        LibJobBoard._setJobLifespan(_duration);\n    }\n\n    function setMinDisputeDuration(uint256 _duration) external {\n        LibJobBoard._setMinDisputeDuration(_duration);\n    }\n\n    function setHiveToDisputeDuration(uint256 _duration) external {\n        LibJobBoard._setHiveToDisputeDuration(_duration);\n    }\n\n    function getJobLifespan() external view returns (uint256) {\n        return LibJobBoard._storageJobBoard().jobLifespan;\n    }\n\n    function getMinDisputeDuration() external view returns (uint256) {\n        return LibJobBoard._storageJobBoard().minDisputeDuration;\n    }\n\n    function getHiveToDisputeDuration(address _hive)\n        external\n        view\n        returns (uint256)\n    {\n        return LibJobBoard._storageJobBoard().hiveToDisputeDuration[_hive];\n    }\n\n    function getJobIdToJobDetail(bytes32 _jobId)\n        external\n        view\n        returns (LibJobBoard.JobDetail memory)\n    {\n        return LibJobBoard._storageJobBoard().jobIdToJobDetail[_jobId];\n    }\n\n    function getUserToJobIdCount(address _user)\n        external\n        view\n        returns (uint256)\n    {\n        return LibJobBoard._storageJobBoard().userToJobIdCount[_user];\n    }\n\n    // note: cronjob\n    // note: use JobCleared event in internal fn to check the remaining jobIds\n    function clearJobs(bytes32[] memory _jobIds) external {\n        LibAccessControl._requireOnlyRole(LibAccessControl.MAINTAINER_ROLE);\n\n        LibJobBoard.StorageJobBoard storage s1 = LibJobBoard._storageJobBoard();\n\n        for (uint256 i = 0; i < _jobIds.length; i++) {\n            if (\n                (s1.jobIdToJobDetail[_jobIds[i]].state ==\n                    LibJobBoard.JobState.Cancelled ||\n                    s1.jobIdToJobDetail[_jobIds[i]].state ==\n                    LibJobBoard.JobState.Completed) &&\n                (block.timestamp >=\n                    s1.jobIdToJobDetail[_jobIds[i]].disputeExpiryTimestamp +\n                        s1.jobLifespan ||\n                    s1.jobIdToJobDetail[_jobIds[i]].rated)\n            ) {\n                LibJobBoard._clearJob(_jobIds[i]);\n            }\n        }\n    }\n}\n","sourcePath":"contracts/hub/facets/core/JobBoard.sol","type":"contract","deployment":{"address":"0x6026614ed02592Fd20884ee650637F6B7d43f88c","chainid":"80001","blockHeight":26007162}}