{"abi":[{"inputs":[{"internalType":"bytes32","name":"_salt","type":"bytes32"},{"internalType":"contract IERC20","name":"_wrappedToken","type":"address"},{"internalType":"string","name":"_name","type":"string"},{"internalType":"string","name":"_symbol","type":"string"}],"name":"createHiveGovernanceToken","outputs":[{"internalType":"contract HiveGovernanceToken","name":"","type":"address"}],"stateMutability":"nonpayable","type":"function"}],"bytecode":"608060405234801561001057600080fd5b5061295e806100206000396000f3fe608060405234801561001057600080fd5b506004361061002b5760003560e01c80633674c7ce14610030575b600080fd5b61004361003e3660046101ae565b61005f565b6040516001600160a01b03909116815260200160405180910390f35b60003330146100d15760405162461bcd60e51b815260206004820152603460248201527f48697665476f7665726e616e6365546f6b656e4d616368696e653a2063616c6c604482015273195c881b9bdd081d1a1a5cc818dbdb9d1c9858dd60621b606482015260840160405180910390fd5b6000858585856040516100e39061011a565b6100ef93929190610281565b8190604051809103906000f590508015801561010f573d6000803e3d6000fd5b509695505050505050565b612651806102d883390190565b600082601f830112610137578081fd5b813567ffffffffffffffff80821115610152576101526102c1565b604051601f8301601f19908116603f0116810190828211818310171561017a5761017a6102c1565b81604052838152866020858801011115610192578485fd5b8360208701602083013792830160200193909352509392505050565b600080600080608085870312156101c3578384fd5b8435935060208501356001600160a01b03811681146101e0578384fd5b9250604085013567ffffffffffffffff808211156101fc578384fd5b61020888838901610127565b9350606087013591508082111561021d578283fd5b5061022a87828801610127565b91505092959194509250565b60008151808452815b8181101561025b5760208185018101518683018201520161023f565b8181111561026c5782602083870101525b50601f01601f19169290920160200192915050565b6001600160a01b03841681526060602082018190526000906102a590830185610236565b82810360408401526102b78185610236565b9695505050505050565b634e487b7160e01b600052604160045260246000fdfe6101806040527f6e71edae12b1b97f4d1f60370fef10105fa2faae0126114a169c64845d6126c9610140523480156200003757600080fd5b5060405162002651380380620026518339810160408190526200005a91620002b9565b828280604051806040016040528060018152602001603160f81b815250858581600390805190602001906200009192919062000160565b508051620000a790600490602084019062000160565b5050825160208085019190912083518483012060e08290526101008190524660a0818152604080517f8b73c3c69bb8fe3d512ecc4cf759cc79239f7b179b0ffacaa9a75d522b39400f81880181905281830187905260608201869052608082019490945230818401528151808203909301835260c00190528051940193909320919350919060805230606090811b60c052610120919091529590951b6001600160601b0319166101605250620003929650505050505050565b8280546200016e906200033f565b90600052602060002090601f016020900481019282620001925760008555620001dd565b82601f10620001ad57805160ff1916838001178555620001dd565b82800160010185558215620001dd579182015b82811115620001dd578251825591602001919060010190620001c0565b50620001eb929150620001ef565b5090565b5b80821115620001eb5760008155600101620001f0565b600082601f83011262000217578081fd5b81516001600160401b03808211156200023457620002346200037c565b604051601f8301601f19908116603f011681019082821181831017156200025f576200025f6200037c565b816040528381526020925086838588010111156200027b578485fd5b8491505b838210156200029e57858201830151818301840152908201906200027f565b83821115620002af57848385830101525b9695505050505050565b600080600060608486031215620002ce578283fd5b83516001600160a01b0381168114620002e5578384fd5b60208501519093506001600160401b038082111562000302578384fd5b620003108783880162000206565b9350604086015191508082111562000326578283fd5b50620003358682870162000206565b9150509250925092565b600181811c908216806200035457607f821691505b602082108114156200037657634e487b7160e01b600052602260045260246000fd5b50919050565b634e487b7160e01b600052604160045260246000fd5b60805160a05160c05160601c60e0516101005161012051610140516101605160601c6122456200040c6000396000818161029f015281816104d0015261052c015260006109ab01526000611019015260006110680152600061104301526000610f9c01526000610fc601526000610ff001526122456000f3fe608060405234801561001057600080fd5b50600436106101735760003560e01c80636f307dc3116100de5780639ab24eb011610097578063c3cda52011610071578063c3cda52014610379578063d505accf1461038c578063dd62ed3e1461039f578063f1127ed8146103d857600080fd5b80639ab24eb014610340578063a457c2d714610353578063a9059cbb1461036657600080fd5b80636f307dc31461029a5780636fcfff45146102c157806370a08231146102e95780637ecebe00146103125780638e539e8c1461032557806395d89b411461033857600080fd5b8063313ce56711610130578063313ce567146102045780633644e51514610213578063395093511461021b5780633a46b1a81461022e578063587cde1e146102415780635c19a95c1461028557600080fd5b806306fdde0314610178578063095ea7b31461019657806318160ddd146101b9578063205c2878146101cb57806323b872dd146101de5780632f4f21e2146101f1575b600080fd5b610180610415565b60405161018d9190612116565b60405180910390f35b6101a96101a4366004612004565b6104a7565b604051901515815260200161018d565b6002545b60405190815260200161018d565b6101a96101d9366004612004565b6104bf565b6101a96101ec366004611f60565b6104ff565b6101a96101ff366004612004565b610525565b6040516012815260200161018d565b6101bd61055d565b6101a9610229366004612004565b61056c565b6101bd61023c366004612004565b6105ab565b61026d61024f366004611f14565b6001600160a01b039081166000908152600660205260409020541690565b6040516001600160a01b03909116815260200161018d565b610298610293366004611f14565b610623565b005b61026d7f000000000000000000000000000000000000000000000000000000000000000081565b6102d46102cf366004611f14565b610630565b60405163ffffffff909116815260200161018d565b6101bd6102f7366004611f14565b6001600160a01b031660009081526020819052604090205490565b6101bd610320366004611f14565b610658565b6101bd6103333660046120e2565b610676565b6101806106d2565b6101bd61034e366004611f14565b6106e1565b6101a9610361366004612004565b610776565b6101a9610374366004612004565b610813565b61029861038736600461202d565b610821565b61029861039a366004611f9b565b610957565b6101bd6103ad366004611f2e565b6001600160a01b03918216600090815260016020908152604080832093909416825291909152205490565b6103eb6103e6366004612084565b610abb565b60408051825163ffffffff1681526020928301516001600160e01b0316928101929092520161018d565b606060038054610424906121c4565b80601f0160208091040260200160405190810160405280929190818152602001828054610450906121c4565b801561049d5780601f106104725761010080835404028352916020019161049d565b820191906000526020600020905b81548152906001019060200180831161048057829003601f168201915b5050505050905090565b6000336104b5818585610b4d565b5060019392505050565b60006104cb3383610c71565b6104f67f00000000000000000000000000000000000000000000000000000000000000008484610c7f565b50600192915050565b60003361050d858285610ce7565b610518858585610d79565b60019150505b9392505050565b60006105537f0000000000000000000000000000000000000000000000000000000000000000333085610f4d565b6104f68383610f85565b6000610567610f8f565b905090565b3360008181526001602090815260408083206001600160a01b03871684529091528120549091906104b590829086906105a6908790612149565b610b4d565b60004382106106015760405162461bcd60e51b815260206004820152601f60248201527f4552433230566f7465733a20626c6f636b206e6f7420796574206d696e65640060448201526064015b60405180910390fd5b6001600160a01b038316600090815260076020526040902061051e90836110b6565b61062d338261118f565b50565b6001600160a01b03811660009081526007602052604081205461065290611208565b92915050565b6001600160a01b038116600090815260056020526040812054610652565b60004382106106c75760405162461bcd60e51b815260206004820152601f60248201527f4552433230566f7465733a20626c6f636b206e6f7420796574206d696e65640060448201526064016105f8565b6106526008836110b6565b606060048054610424906121c4565b6001600160a01b0381166000908152600760205260408120548015610763576001600160a01b0383166000908152600760205260409020610723600183612181565b8154811061074157634e487b7160e01b600052603260045260246000fd5b60009182526020909120015464010000000090046001600160e01b0316610766565b60005b6001600160e01b03169392505050565b3360008181526001602090815260408083206001600160a01b0387168452909152812054909190838110156107fb5760405162461bcd60e51b815260206004820152602560248201527f45524332303a2064656372656173656420616c6c6f77616e63652062656c6f77604482015264207a65726f60d81b60648201526084016105f8565b6108088286868403610b4d565b506001949350505050565b6000336104b5818585610d79565b834211156108715760405162461bcd60e51b815260206004820152601d60248201527f4552433230566f7465733a207369676e6174757265206578706972656400000060448201526064016105f8565b604080517fe48329057bfd03d55e49b547132e39cffd9c1820ad7b9d4c5307691425d15adf60208201526001600160a01b0388169181019190915260608101869052608081018590526000906108eb906108e39060a00160405160208183030381529060405280519060200120611271565b8585856112bf565b90506108f6816112e7565b86146109445760405162461bcd60e51b815260206004820152601960248201527f4552433230566f7465733a20696e76616c6964206e6f6e63650000000000000060448201526064016105f8565b61094e818861118f565b50505050505050565b834211156109a75760405162461bcd60e51b815260206004820152601d60248201527f45524332305065726d69743a206578706972656420646561646c696e6500000060448201526064016105f8565b60007f00000000000000000000000000000000000000000000000000000000000000008888886109d68c6112e7565b6040805160208101969096526001600160a01b0394851690860152929091166060840152608083015260a082015260c0810186905260e0016040516020818303038152906040528051906020012090506000610a3182611271565b90506000610a41828787876112bf565b9050896001600160a01b0316816001600160a01b031614610aa45760405162461bcd60e51b815260206004820152601e60248201527f45524332305065726d69743a20696e76616c6964207369676e6174757265000060448201526064016105f8565b610aaf8a8a8a610b4d565b50505050505050505050565b60408051808201909152600080825260208201526001600160a01b0383166000908152600760205260409020805463ffffffff8416908110610b0d57634e487b7160e01b600052603260045260246000fd5b60009182526020918290206040805180820190915291015463ffffffff8116825264010000000090046001600160e01b0316918101919091529392505050565b6001600160a01b038316610baf5760405162461bcd60e51b8152602060048201526024808201527f45524332303a20617070726f76652066726f6d20746865207a65726f206164646044820152637265737360e01b60648201526084016105f8565b6001600160a01b038216610c105760405162461bcd60e51b815260206004820152602260248201527f45524332303a20617070726f766520746f20746865207a65726f206164647265604482015261737360f01b60648201526084016105f8565b6001600160a01b0383811660008181526001602090815260408083209487168084529482529182902085905590518481527f8c5be1e5ebec7d5bd14f71427d1e84f3dd0314c0f7b2291e5b200ac8c7c3b925910160405180910390a3505050565b610c7b828261130f565b5050565b6040516001600160a01b038316602482015260448101829052610ce290849063a9059cbb60e01b906064015b60408051601f198184030181529190526020810180516001600160e01b03166001600160e01b031990931692909217909152611327565b505050565b6001600160a01b038381166000908152600160209081526040808320938616835292905220546000198114610d735781811015610d665760405162461bcd60e51b815260206004820152601d60248201527f45524332303a20696e73756666696369656e7420616c6c6f77616e636500000060448201526064016105f8565b610d738484848403610b4d565b50505050565b6001600160a01b038316610ddd5760405162461bcd60e51b815260206004820152602560248201527f45524332303a207472616e736665722066726f6d20746865207a65726f206164604482015264647265737360d81b60648201526084016105f8565b6001600160a01b038216610e3f5760405162461bcd60e51b815260206004820152602360248201527f45524332303a207472616e7366657220746f20746865207a65726f206164647260448201526265737360e81b60648201526084016105f8565b6001600160a01b03831660009081526020819052604090205481811015610eb75760405162461bcd60e51b815260206004820152602660248201527f45524332303a207472616e7366657220616d6f756e7420657863656564732062604482015265616c616e636560d01b60648201526084016105f8565b6001600160a01b03808516600090815260208190526040808220858503905591851681529081208054849290610eee908490612149565b92505081905550826001600160a01b0316846001600160a01b03167fddf252ad1be2c89b69c2b068fc378daa952ba7f163c4a11628f55a4df523b3ef84604051610f3a91815260200190565b60405180910390a3610d738484846113f9565b6040516001600160a01b0380851660248301528316604482015260648101829052610d739085906323b872dd60e01b90608401610cab565b610c7b8282611404565b6000306001600160a01b037f000000000000000000000000000000000000000000000000000000000000000016148015610fe857507f000000000000000000000000000000000000000000000000000000000000000046145b1561101257507f000000000000000000000000000000000000000000000000000000000000000090565b50604080517f00000000000000000000000000000000000000000000000000000000000000006020808301919091527f0000000000000000000000000000000000000000000000000000000000000000828401527f000000000000000000000000000000000000000000000000000000000000000060608301524660808301523060a0808401919091528351808403909101815260c0909201909252805191012090565b8154600090815b818110156111285760006110d1828461148e565b9050848682815481106110f457634e487b7160e01b600052603260045260246000fd5b60009182526020909120015463ffffffff16111561111457809250611122565b61111f816001612149565b91505b506110bd565b811561117a578461113a600184612181565b8154811061115857634e487b7160e01b600052603260045260246000fd5b60009182526020909120015464010000000090046001600160e01b031661117d565b60005b6001600160e01b031695945050505050565b6001600160a01b038281166000818152600660208181526040808420805485845282862054949093528787166001600160a01b03198416811790915590519190951694919391928592917f3134e8a2e6d97e929a7e54011ea5485d7d196dd5f0ba4d4ef95803e8e3fc257f9190a4610d738284836114a9565b600063ffffffff82111561126d5760405162461bcd60e51b815260206004820152602660248201527f53616665436173743a2076616c756520646f65736e27742066697420696e203360448201526532206269747360d01b60648201526084016105f8565b5090565b600061065261127e610f8f565b8360405161190160f01b6020820152602281018390526042810182905260009060620160405160208183030381529060405280519060200120905092915050565b60008060006112d0878787876115e6565b915091506112dd816116d3565b5095945050505050565b6001600160a01b03811660009081526005602052604090208054600181018255905b50919050565b61131982826118d4565b610d736008611a2983611a35565b600061137c826040518060400160405280602081526020017f5361666545524332303a206c6f772d6c6576656c2063616c6c206661696c6564815250856001600160a01b0316611bd89092919063ffffffff16565b805190915015610ce2578080602001905181019061139a91906120c2565b610ce25760405162461bcd60e51b815260206004820152602a60248201527f5361666545524332303a204552433230206f7065726174696f6e20646964206e6044820152691bdd081cdd58d8d9595960b21b60648201526084016105f8565b610ce2838383611bef565b61140e8282611c21565b6002546001600160e01b0310156114805760405162461bcd60e51b815260206004820152603060248201527f4552433230566f7465733a20746f74616c20737570706c79207269736b73206f60448201526f766572666c6f77696e6720766f74657360801b60648201526084016105f8565b610d736008611d0883611a35565b600061149d6002848418612161565b61051e90848416612149565b816001600160a01b0316836001600160a01b0316141580156114cb5750600081115b15610ce2576001600160a01b03831615611559576001600160a01b0383166000908152600760205260408120819061150690611a2985611a35565b91509150846001600160a01b03167fdec2bacdd2f05b59de34da9b523dff8be42e5e38e818c82fdb0bae774387a724838360405161154e929190918252602082015260400190565b60405180910390a250505b6001600160a01b03821615610ce2576001600160a01b0382166000908152600760205260408120819061158f90611d0885611a35565b91509150836001600160a01b03167fdec2bacdd2f05b59de34da9b523dff8be42e5e38e818c82fdb0bae774387a72483836040516115d7929190918252602082015260400190565b60405180910390a25050505050565b6000807f7fffffffffffffffffffffffffffffff5d576e7357a4501ddfe92f46681b20a083111561161d57506000905060036116ca565b8460ff16601b1415801561163557508460ff16601c14155b1561164657506000905060046116ca565b6040805160008082526020820180845289905260ff881692820192909252606081018690526080810185905260019060a0016020604051602081039080840390855afa15801561169a573d6000803e3d6000fd5b5050604051601f1901519150506001600160a01b0381166116c3576000600192509250506116ca565b9150600090505b94509492505050565b60008160048111156116f557634e487b7160e01b600052602160045260246000fd5b14156116fe5750565b600181600481111561172057634e487b7160e01b600052602160045260246000fd5b141561176e5760405162461bcd60e51b815260206004820152601860248201527f45434453413a20696e76616c6964207369676e6174757265000000000000000060448201526064016105f8565b600281600481111561179057634e487b7160e01b600052602160045260246000fd5b14156117de5760405162461bcd60e51b815260206004820152601f60248201527f45434453413a20696e76616c6964207369676e6174757265206c656e6774680060448201526064016105f8565b600381600481111561180057634e487b7160e01b600052602160045260246000fd5b14156118595760405162461bcd60e51b815260206004820152602260248201527f45434453413a20696e76616c6964207369676e6174757265202773272076616c604482015261756560f01b60648201526084016105f8565b600481600481111561187b57634e487b7160e01b600052602160045260246000fd5b141561062d5760405162461bcd60e51b815260206004820152602260248201527f45434453413a20696e76616c6964207369676e6174757265202776272076616c604482015261756560f01b60648201526084016105f8565b6001600160a01b0382166119345760405162461bcd60e51b815260206004820152602160248201527f45524332303a206275726e2066726f6d20746865207a65726f206164647265736044820152607360f81b60648201526084016105f8565b6001600160a01b038216600090815260208190526040902054818110156119a85760405162461bcd60e51b815260206004820152602260248201527f45524332303a206275726e20616d6f756e7420657863656564732062616c616e604482015261636560f01b60648201526084016105f8565b6001600160a01b03831660009081526020819052604081208383039055600280548492906119d7908490612181565b90915550506040518281526000906001600160a01b038516907fddf252ad1be2c89b69c2b068fc378daa952ba7f163c4a11628f55a4df523b3ef9060200160405180910390a3610ce2836000846113f9565b600061051e8284612181565b825460009081908015611a8e5785611a4e600183612181565b81548110611a6c57634e487b7160e01b600052603260045260246000fd5b60009182526020909120015464010000000090046001600160e01b0316611a91565b60005b6001600160e01b03169250611aaa83858763ffffffff16565b9150600081118015611af657504386611ac4600184612181565b81548110611ae257634e487b7160e01b600052603260045260246000fd5b60009182526020909120015463ffffffff16145b15611b6457611b0482611d14565b86611b10600184612181565b81548110611b2e57634e487b7160e01b600052603260045260246000fd5b9060005260206000200160000160046101000a8154816001600160e01b0302191690836001600160e01b03160217905550611bcf565b856040518060400160405280611b7943611208565b63ffffffff168152602001611b8d85611d14565b6001600160e01b0390811690915282546001810184556000938452602093849020835194909301519091166401000000000263ffffffff909316929092179101555b50935093915050565b6060611be78484600085611d7d565b949350505050565b6001600160a01b03838116600090815260066020526040808220548584168352912054610ce2929182169116836114a9565b6001600160a01b038216611c775760405162461bcd60e51b815260206004820152601f60248201527f45524332303a206d696e7420746f20746865207a65726f20616464726573730060448201526064016105f8565b8060026000828254611c899190612149565b90915550506001600160a01b03821660009081526020819052604081208054839290611cb6908490612149565b90915550506040518181526001600160a01b038316906000907fddf252ad1be2c89b69c2b068fc378daa952ba7f163c4a11628f55a4df523b3ef9060200160405180910390a3610c7b600083836113f9565b600061051e8284612149565b60006001600160e01b0382111561126d5760405162461bcd60e51b815260206004820152602760248201527f53616665436173743a2076616c756520646f65736e27742066697420696e20326044820152663234206269747360c81b60648201526084016105f8565b606082471015611dde5760405162461bcd60e51b815260206004820152602660248201527f416464726573733a20696e73756666696369656e742062616c616e636520666f6044820152651c8818d85b1b60d21b60648201526084016105f8565b6001600160a01b0385163b611e355760405162461bcd60e51b815260206004820152601d60248201527f416464726573733a2063616c6c20746f206e6f6e2d636f6e747261637400000060448201526064016105f8565b600080866001600160a01b03168587604051611e5191906120fa565b60006040518083038185875af1925050503d8060008114611e8e576040519150601f19603f3d011682016040523d82523d6000602084013e611e93565b606091505b5091509150611ea3828286611eae565b979650505050505050565b60608315611ebd57508161051e565b825115611ecd5782518084602001fd5b8160405162461bcd60e51b81526004016105f89190612116565b80356001600160a01b0381168114611efe57600080fd5b919050565b803560ff81168114611efe57600080fd5b600060208284031215611f25578081fd5b61051e82611ee7565b60008060408385031215611f40578081fd5b611f4983611ee7565b9150611f5760208401611ee7565b90509250929050565b600080600060608486031215611f74578081fd5b611f7d84611ee7565b9250611f8b60208501611ee7565b9150604084013590509250925092565b600080600080600080600060e0888a031215611fb5578283fd5b611fbe88611ee7565b9650611fcc60208901611ee7565b95506040880135945060608801359350611fe860808901611f03565b925060a0880135915060c0880135905092959891949750929550565b60008060408385031215612016578182fd5b61201f83611ee7565b946020939093013593505050565b60008060008060008060c08789031215612045578182fd5b61204e87611ee7565b9550602087013594506040870135935061206a60608801611f03565b92506080870135915060a087013590509295509295509295565b60008060408385031215612096578182fd5b61209f83611ee7565b9150602083013563ffffffff811681146120b7578182fd5b809150509250929050565b6000602082840312156120d3578081fd5b8151801515811461051e578182fd5b6000602082840312156120f3578081fd5b5035919050565b6000825161210c818460208701612198565b9190910192915050565b6020815260008251806020840152612135816040850160208701612198565b601f01601f19169190910160400192915050565b6000821982111561215c5761215c6121f9565b500190565b60008261217c57634e487b7160e01b81526012600452602481fd5b500490565b600082821015612193576121936121f9565b500390565b60005b838110156121b357818101518382015260200161219b565b83811115610d735750506000910152565b600181811c908216806121d857607f821691505b6020821081141561130957634e487b7160e01b600052602260045260246000fd5b634e487b7160e01b600052601160045260246000fdfea26469706673582212204dd2faf03d67b882e28642789df79b8246ddd1e2f14801dddb69b61104e1755264736f6c63430008040033a26469706673582212209a145b167d17c2b5741c35e20210fd150ee4f6e014d8fdcdb89d21b6791cddfa64736f6c63430008040033","bytecodeSha1":"c9fe496fd41074543a64d566dcded81ed0767130","compiler":{"evm_version":"istanbul","optimizer":{"enabled":true,"runs":200},"version":"0.8.4+commit.c7e474f2"},"contractName":"HiveGovernanceTokenMachine","language":"Solidity","natspec":{"kind":"dev","methods":{},"version":1},"opcodes":"PUSH1 0x80 PUSH1 0x40 MSTORE CALLVALUE DUP1 ISZERO PUSH2 0x10 JUMPI PUSH1 0x0 DUP1 REVERT JUMPDEST POP PUSH1 0x4 CALLDATASIZE LT PUSH2 0x2B JUMPI PUSH1 0x0 CALLDATALOAD PUSH1 0xE0 SHR DUP1 PUSH4 0x3674C7CE EQ PUSH2 0x30 JUMPI JUMPDEST PUSH1 0x0 DUP1 REVERT JUMPDEST PUSH2 0x43 PUSH2 0x3E CALLDATASIZE PUSH1 0x4 PUSH2 0x1AE JUMP JUMPDEST PUSH2 0x5F JUMP JUMPDEST PUSH1 0x40 MLOAD PUSH1 0x1 PUSH1 0x1 PUSH1 0xA0 SHL SUB SWAP1 SWAP2 AND DUP2 MSTORE PUSH1 0x20 ADD PUSH1 0x40 MLOAD DUP1 SWAP2 SUB SWAP1 RETURN JUMPDEST PUSH1 0x0 CALLER ADDRESS EQ PUSH2 0xD1 JUMPI PUSH1 0x40 MLOAD PUSH3 0x461BCD PUSH1 0xE5 SHL DUP2 MSTORE PUSH1 0x20 PUSH1 0x4 DUP3 ADD MSTORE PUSH1 0x34 PUSH1 0x24 DUP3 ADD MSTORE PUSH32 0x48697665476F7665726E616E6365546F6B656E4D616368696E653A2063616C6C PUSH1 0x44 DUP3 ADD MSTORE PUSH20 0x195C881B9BDD081D1A1A5CC818DBDB9D1C9858DD PUSH1 0x62 SHL PUSH1 0x64 DUP3 ADD MSTORE PUSH1 0x84 ADD PUSH1 0x40 MLOAD DUP1 SWAP2 SUB SWAP1 REVERT JUMPDEST PUSH1 0x0 DUP6 DUP6 DUP6 DUP6 PUSH1 0x40 MLOAD PUSH2 0xE3 SWAP1 PUSH2 0x11A JUMP JUMPDEST PUSH2 0xEF SWAP4 SWAP3 SWAP2 SWAP1 PUSH2 0x281 JUMP JUMPDEST DUP2 SWAP1 PUSH1 0x40 MLOAD DUP1 SWAP2 SUB SWAP1 PUSH1 0x0 CREATE2 SWAP1 POP DUP1 ISZERO DUP1 ISZERO PUSH2 0x10F JUMPI RETURNDATASIZE PUSH1 0x0 DUP1 RETURNDATACOPY RETURNDATASIZE PUSH1 0x0 REVERT JUMPDEST POP SWAP7 SWAP6 POP POP POP POP POP POP JUMP JUMPDEST PUSH2 0x2651 DUP1 PUSH2 0x2D8 DUP4 CODECOPY ADD SWAP1 JUMP JUMPDEST PUSH1 0x0 DUP3 PUSH1 0x1F DUP4 ADD SLT PUSH2 0x137 JUMPI DUP1 DUP2 REVERT JUMPDEST DUP2 CALLDATALOAD PUSH8 0xFFFFFFFFFFFFFFFF DUP1 DUP3 GT ISZERO PUSH2 0x152 JUMPI PUSH2 0x152 PUSH2 0x2C1 JUMP JUMPDEST PUSH1 0x40 MLOAD PUSH1 0x1F DUP4 ADD PUSH1 0x1F NOT SWAP1 DUP2 AND PUSH1 0x3F ADD AND DUP2 ADD SWAP1 DUP3 DUP3 GT DUP2 DUP4 LT OR ISZERO PUSH2 0x17A JUMPI PUSH2 0x17A PUSH2 0x2C1 JUMP JUMPDEST DUP2 PUSH1 0x40 MSTORE DUP4 DUP2 MSTORE DUP7 PUSH1 0x20 DUP6 DUP9 ADD ADD GT ISZERO PUSH2 0x192 JUMPI DUP5 DUP6 REVERT JUMPDEST DUP4 PUSH1 0x20 DUP8 ADD PUSH1 0x20 DUP4 ADD CALLDATACOPY SWAP3 DUP4 ADD PUSH1 0x20 ADD SWAP4 SWAP1 SWAP4 MSTORE POP SWAP4 SWAP3 POP POP POP JUMP JUMPDEST PUSH1 0x0 DUP1 PUSH1 0x0 DUP1 PUSH1 0x80 DUP6 DUP8 SUB SLT ISZERO PUSH2 0x1C3 JUMPI DUP4 DUP5 REVERT JUMPDEST DUP5 CALLDATALOAD SWAP4 POP PUSH1 0x20 DUP6 ADD CALLDATALOAD PUSH1 0x1 PUSH1 0x1 PUSH1 0xA0 SHL SUB DUP2 AND DUP2 EQ PUSH2 0x1E0 JUMPI DUP4 DUP5 REVERT JUMPDEST SWAP3 POP PUSH1 0x40 DUP6 ADD CALLDATALOAD PUSH8 0xFFFFFFFFFFFFFFFF DUP1 DUP3 GT ISZERO PUSH2 0x1FC JUMPI DUP4 DUP5 REVERT JUMPDEST PUSH2 0x208 DUP9 DUP4 DUP10 ADD PUSH2 0x127 JUMP JUMPDEST SWAP4 POP PUSH1 0x60 DUP8 ADD CALLDATALOAD SWAP2 POP DUP1 DUP3 GT ISZERO PUSH2 0x21D JUMPI DUP3 DUP4 REVERT JUMPDEST POP PUSH2 0x22A DUP8 DUP3 DUP9 ADD PUSH2 0x127 JUMP JUMPDEST SWAP2 POP POP SWAP3 SWAP6 SWAP2 SWAP5 POP SWAP3 POP JUMP JUMPDEST PUSH1 0x0 DUP2 MLOAD DUP1 DUP5 MSTORE DUP2 JUMPDEST DUP2 DUP2 LT ISZERO PUSH2 0x25B JUMPI PUSH1 0x20 DUP2 DUP6 ADD DUP2 ADD MLOAD DUP7 DUP4 ADD DUP3 ADD MSTORE ADD PUSH2 0x23F JUMP JUMPDEST DUP2 DUP2 GT ISZERO PUSH2 0x26C JUMPI DUP3 PUSH1 0x20 DUP4 DUP8 ADD ADD MSTORE JUMPDEST POP PUSH1 0x1F ADD PUSH1 0x1F NOT AND SWAP3 SWAP1 SWAP3 ADD PUSH1 0x20 ADD SWAP3 SWAP2 POP POP JUMP JUMPDEST PUSH1 0x1 PUSH1 0x1 PUSH1 0xA0 SHL SUB DUP5 AND DUP2 MSTORE PUSH1 0x60 PUSH1 0x20 DUP3 ADD DUP2 SWAP1 MSTORE PUSH1 0x0 SWAP1 PUSH2 0x2A5 SWAP1 DUP4 ADD DUP6 PUSH2 0x236 JUMP JUMPDEST DUP3 DUP2 SUB PUSH1 0x40 DUP5 ADD MSTORE PUSH2 0x2B7 DUP2 DUP6 PUSH2 0x236 JUMP JUMPDEST SWAP7 SWAP6 POP POP POP POP POP POP JUMP JUMPDEST PUSH4 0x4E487B71 PUSH1 0xE0 SHL PUSH1 0x0 MSTORE PUSH1 0x41 PUSH1 0x4 MSTORE PUSH1 0x24 PUSH1 0x0 REVERT INVALID PUSH2 0x180 PUSH1 0x40 MSTORE PUSH32 0x6E71EDAE12B1B97F4D1F60370FEF10105FA2FAAE0126114A169C64845D6126C9 PUSH2 0x140 MSTORE CALLVALUE DUP1 ISZERO PUSH3 0x37 JUMPI PUSH1 0x0 DUP1 REVERT JUMPDEST POP PUSH1 0x40 MLOAD PUSH3 0x2651 CODESIZE SUB DUP1 PUSH3 0x2651 DUP4 CODECOPY DUP2 ADD PUSH1 0x40 DUP2 SWAP1 MSTORE PUSH3 0x5A SWAP2 PUSH3 0x2B9 JUMP JUMPDEST DUP3 DUP3 DUP1 PUSH1 0x40 MLOAD DUP1 PUSH1 0x40 ADD PUSH1 0x40 MSTORE DUP1 PUSH1 0x1 DUP2 MSTORE PUSH1 0x20 ADD PUSH1 0x31 PUSH1 0xF8 SHL DUP2 MSTORE POP DUP6 DUP6 DUP2 PUSH1 0x3 SWAP1 DUP1 MLOAD SWAP1 PUSH1 0x20 ADD SWAP1 PUSH3 0x91 SWAP3 SWAP2 SWAP1 PUSH3 0x160 JUMP JUMPDEST POP DUP1 MLOAD PUSH3 0xA7 SWAP1 PUSH1 0x4 SWAP1 PUSH1 0x20 DUP5 ADD SWAP1 PUSH3 0x160 JUMP JUMPDEST POP POP DUP3 MLOAD PUSH1 0x20 DUP1 DUP6 ADD SWAP2 SWAP1 SWAP2 KECCAK256 DUP4 MLOAD DUP5 DUP4 ADD KECCAK256 PUSH1 0xE0 DUP3 SWAP1 MSTORE PUSH2 0x100 DUP2 SWAP1 MSTORE CHAINID PUSH1 0xA0 DUP2 DUP2 MSTORE PUSH1 0x40 DUP1 MLOAD PUSH32 0x8B73C3C69BB8FE3D512ECC4CF759CC79239F7B179B0FFACAA9A75D522B39400F DUP2 DUP9 ADD DUP2 SWAP1 MSTORE DUP2 DUP4 ADD DUP8 SWAP1 MSTORE PUSH1 0x60 DUP3 ADD DUP7 SWAP1 MSTORE PUSH1 0x80 DUP3 ADD SWAP5 SWAP1 SWAP5 MSTORE ADDRESS DUP2 DUP5 ADD MSTORE DUP2 MLOAD DUP1 DUP3 SUB SWAP1 SWAP4 ADD DUP4 MSTORE PUSH1 0xC0 ADD SWAP1 MSTORE DUP1 MLOAD SWAP5 ADD SWAP4 SWAP1 SWAP4 KECCAK256 SWAP2 SWAP4 POP SWAP2 SWAP1 PUSH1 0x80 MSTORE ADDRESS PUSH1 0x60 SWAP1 DUP2 SHL PUSH1 0xC0 MSTORE PUSH2 0x120 SWAP2 SWAP1 SWAP2 MSTORE SWAP6 SWAP1 SWAP6 SHL PUSH1 0x1 PUSH1 0x1 PUSH1 0x60 SHL SUB NOT AND PUSH2 0x160 MSTORE POP PUSH3 0x392 SWAP7 POP POP POP POP POP POP POP JUMP JUMPDEST DUP3 DUP1 SLOAD PUSH3 0x16E SWAP1 PUSH3 0x33F JUMP JUMPDEST SWAP1 PUSH1 0x0 MSTORE PUSH1 0x20 PUSH1 0x0 KECCAK256 SWAP1 PUSH1 0x1F ADD PUSH1 0x20 SWAP1 DIV DUP2 ADD SWAP3 DUP3 PUSH3 0x192 JUMPI PUSH1 0x0 DUP6 SSTORE PUSH3 0x1DD JUMP JUMPDEST DUP3 PUSH1 0x1F LT PUSH3 0x1AD JUMPI DUP1 MLOAD PUSH1 0xFF NOT AND DUP4 DUP1 ADD OR DUP6 SSTORE PUSH3 0x1DD JUMP JUMPDEST DUP3 DUP1 ADD PUSH1 0x1 ADD DUP6 SSTORE DUP3 ISZERO PUSH3 0x1DD JUMPI SWAP2 DUP3 ADD JUMPDEST DUP3 DUP2 GT ISZERO PUSH3 0x1DD JUMPI DUP3 MLOAD DUP3 SSTORE SWAP2 PUSH1 0x20 ADD SWAP2 SWAP1 PUSH1 0x1 ADD SWAP1 PUSH3 0x1C0 JUMP JUMPDEST POP PUSH3 0x1EB SWAP3 SWAP2 POP PUSH3 0x1EF JUMP JUMPDEST POP SWAP1 JUMP JUMPDEST JUMPDEST DUP1 DUP3 GT ISZERO PUSH3 0x1EB JUMPI PUSH1 0x0 DUP2 SSTORE PUSH1 0x1 ADD PUSH3 0x1F0 JUMP JUMPDEST PUSH1 0x0 DUP3 PUSH1 0x1F DUP4 ADD SLT PUSH3 0x217 JUMPI DUP1 DUP2 REVERT JUMPDEST DUP2 MLOAD PUSH1 0x1 PUSH1 0x1 PUSH1 0x40 SHL SUB DUP1 DUP3 GT ISZERO PUSH3 0x234 JUMPI PUSH3 0x234 PUSH3 0x37C JUMP JUMPDEST PUSH1 0x40 MLOAD PUSH1 0x1F DUP4 ADD PUSH1 0x1F NOT SWAP1 DUP2 AND PUSH1 0x3F ADD AND DUP2 ADD SWAP1 DUP3 DUP3 GT DUP2 DUP4 LT OR ISZERO PUSH3 0x25F JUMPI PUSH3 0x25F PUSH3 0x37C JUMP JUMPDEST DUP2 PUSH1 0x40 MSTORE DUP4 DUP2 MSTORE PUSH1 0x20 SWAP3 POP DUP7 DUP4 DUP6 DUP9 ADD ADD GT ISZERO PUSH3 0x27B JUMPI DUP5 DUP6 REVERT JUMPDEST DUP5 SWAP2 POP JUMPDEST DUP4 DUP3 LT ISZERO PUSH3 0x29E JUMPI DUP6 DUP3 ADD DUP4 ADD MLOAD DUP2 DUP4 ADD DUP5 ADD MSTORE SWAP1 DUP3 ADD SWAP1 PUSH3 0x27F JUMP JUMPDEST DUP4 DUP3 GT ISZERO PUSH3 0x2AF JUMPI DUP5 DUP4 DUP6 DUP4 ADD ADD MSTORE JUMPDEST SWAP7 SWAP6 POP POP POP POP POP POP JUMP JUMPDEST PUSH1 0x0 DUP1 PUSH1 0x0 PUSH1 0x60 DUP5 DUP7 SUB SLT ISZERO PUSH3 0x2CE JUMPI DUP3 DUP4 REVERT JUMPDEST DUP4 MLOAD PUSH1 0x1 PUSH1 0x1 PUSH1 0xA0 SHL SUB DUP2 AND DUP2 EQ PUSH3 0x2E5 JUMPI DUP4 DUP5 REVERT JUMPDEST PUSH1 0x20 DUP6 ADD MLOAD SWAP1 SWAP4 POP PUSH1 0x1 PUSH1 0x1 PUSH1 0x40 SHL SUB DUP1 DUP3 GT ISZERO PUSH3 0x302 JUMPI DUP4 DUP5 REVERT JUMPDEST PUSH3 0x310 DUP8 DUP4 DUP9 ADD PUSH3 0x206 JUMP JUMPDEST SWAP4 POP PUSH1 0x40 DUP7 ADD MLOAD SWAP2 POP DUP1 DUP3 GT ISZERO PUSH3 0x326 JUMPI DUP3 DUP4 REVERT JUMPDEST POP PUSH3 0x335 DUP7 DUP3 DUP8 ADD PUSH3 0x206 JUMP JUMPDEST SWAP2 POP POP SWAP3 POP SWAP3 POP SWAP3 JUMP JUMPDEST PUSH1 0x1 DUP2 DUP2 SHR SWAP1 DUP3 AND DUP1 PUSH3 0x354 JUMPI PUSH1 0x7F DUP3 AND SWAP2 POP JUMPDEST PUSH1 0x20 DUP3 LT DUP2 EQ ISZERO PUSH3 0x376 JUMPI PUSH4 0x4E487B71 PUSH1 0xE0 SHL PUSH1 0x0 MSTORE PUSH1 0x22 PUSH1 0x4 MSTORE PUSH1 0x24 PUSH1 0x0 REVERT JUMPDEST POP SWAP2 SWAP1 POP JUMP JUMPDEST PUSH4 0x4E487B71 PUSH1 0xE0 SHL PUSH1 0x0 MSTORE PUSH1 0x41 PUSH1 0x4 MSTORE PUSH1 0x24 PUSH1 0x0 REVERT JUMPDEST PUSH1 0x80 MLOAD PUSH1 0xA0 MLOAD PUSH1 0xC0 MLOAD PUSH1 0x60 SHR PUSH1 0xE0 MLOAD PUSH2 0x100 MLOAD PUSH2 0x120 MLOAD PUSH2 0x140 MLOAD PUSH2 0x160 MLOAD PUSH1 0x60 SHR PUSH2 0x2245 PUSH3 0x40C PUSH1 0x0 CODECOPY PUSH1 0x0 DUP2 DUP2 PUSH2 0x29F ADD MSTORE DUP2 DUP2 PUSH2 0x4D0 ADD MSTORE PUSH2 0x52C ADD MSTORE PUSH1 0x0 PUSH2 0x9AB ADD MSTORE PUSH1 0x0 PUSH2 0x1019 ADD MSTORE PUSH1 0x0 PUSH2 0x1068 ADD MSTORE PUSH1 0x0 PUSH2 0x1043 ADD MSTORE PUSH1 0x0 PUSH2 0xF9C ADD MSTORE PUSH1 0x0 PUSH2 0xFC6 ADD MSTORE PUSH1 0x0 PUSH2 0xFF0 ADD MSTORE PUSH2 0x2245 PUSH1 0x0 RETURN INVALID PUSH1 0x80 PUSH1 0x40 MSTORE CALLVALUE DUP1 ISZERO PUSH2 0x10 JUMPI PUSH1 0x0 DUP1 REVERT JUMPDEST POP PUSH1 0x4 CALLDATASIZE LT PUSH2 0x173 JUMPI PUSH1 0x0 CALLDATALOAD PUSH1 0xE0 SHR DUP1 PUSH4 0x6F307DC3 GT PUSH2 0xDE JUMPI DUP1 PUSH4 0x9AB24EB0 GT PUSH2 0x97 JUMPI DUP1 PUSH4 0xC3CDA520 GT PUSH2 0x71 JUMPI DUP1 PUSH4 0xC3CDA520 EQ PUSH2 0x379 JUMPI DUP1 PUSH4 0xD505ACCF EQ PUSH2 0x38C JUMPI DUP1 PUSH4 0xDD62ED3E EQ PUSH2 0x39F JUMPI DUP1 PUSH4 0xF1127ED8 EQ PUSH2 0x3D8 JUMPI PUSH1 0x0 DUP1 REVERT JUMPDEST DUP1 PUSH4 0x9AB24EB0 EQ PUSH2 0x340 JUMPI DUP1 PUSH4 0xA457C2D7 EQ PUSH2 0x353 JUMPI DUP1 PUSH4 0xA9059CBB EQ PUSH2 0x366 JUMPI PUSH1 0x0 DUP1 REVERT JUMPDEST DUP1 PUSH4 0x6F307DC3 EQ PUSH2 0x29A JUMPI DUP1 PUSH4 0x6FCFFF45 EQ PUSH2 0x2C1 JUMPI DUP1 PUSH4 0x70A08231 EQ PUSH2 0x2E9 JUMPI DUP1 PUSH4 0x7ECEBE00 EQ PUSH2 0x312 JUMPI DUP1 PUSH4 0x8E539E8C EQ PUSH2 0x325 JUMPI DUP1 PUSH4 0x95D89B41 EQ PUSH2 0x338 JUMPI PUSH1 0x0 DUP1 REVERT JUMPDEST DUP1 PUSH4 0x313CE567 GT PUSH2 0x130 JUMPI DUP1 PUSH4 0x313CE567 EQ PUSH2 0x204 JUMPI DUP1 PUSH4 0x3644E515 EQ PUSH2 0x213 JUMPI DUP1 PUSH4 0x39509351 EQ PUSH2 0x21B JUMPI DUP1 PUSH4 0x3A46B1A8 EQ PUSH2 0x22E JUMPI DUP1 PUSH4 0x587CDE1E EQ PUSH2 0x241 JUMPI DUP1 PUSH4 0x5C19A95C EQ PUSH2 0x285 JUMPI PUSH1 0x0 DUP1 REVERT JUMPDEST DUP1 PUSH4 0x6FDDE03 EQ PUSH2 0x178 JUMPI DUP1 PUSH4 0x95EA7B3 EQ PUSH2 0x196 JUMPI DUP1 PUSH4 0x18160DDD EQ PUSH2 0x1B9 JUMPI DUP1 PUSH4 0x205C2878 EQ PUSH2 0x1CB JUMPI DUP1 PUSH4 0x23B872DD EQ PUSH2 0x1DE JUMPI DUP1 PUSH4 0x2F4F21E2 EQ PUSH2 0x1F1 JUMPI JUMPDEST PUSH1 0x0 DUP1 REVERT JUMPDEST PUSH2 0x180 PUSH2 0x415 JUMP JUMPDEST PUSH1 0x40 MLOAD PUSH2 0x18D SWAP2 SWAP1 PUSH2 0x2116 JUMP JUMPDEST PUSH1 0x40 MLOAD DUP1 SWAP2 SUB SWAP1 RETURN JUMPDEST PUSH2 0x1A9 PUSH2 0x1A4 CALLDATASIZE PUSH1 0x4 PUSH2 0x2004 JUMP JUMPDEST PUSH2 0x4A7 JUMP JUMPDEST PUSH1 0x40 MLOAD SWAP1 ISZERO ISZERO DUP2 MSTORE PUSH1 0x20 ADD PUSH2 0x18D JUMP JUMPDEST PUSH1 0x2 SLOAD JUMPDEST PUSH1 0x40 MLOAD SWAP1 DUP2 MSTORE PUSH1 0x20 ADD PUSH2 0x18D JUMP JUMPDEST PUSH2 0x1A9 PUSH2 0x1D9 CALLDATASIZE PUSH1 0x4 PUSH2 0x2004 JUMP JUMPDEST PUSH2 0x4BF JUMP JUMPDEST PUSH2 0x1A9 PUSH2 0x1EC CALLDATASIZE PUSH1 0x4 PUSH2 0x1F60 JUMP JUMPDEST PUSH2 0x4FF JUMP JUMPDEST PUSH2 0x1A9 PUSH2 0x1FF CALLDATASIZE PUSH1 0x4 PUSH2 0x2004 JUMP JUMPDEST PUSH2 0x525 JUMP JUMPDEST PUSH1 0x40 MLOAD PUSH1 0x12 DUP2 MSTORE PUSH1 0x20 ADD PUSH2 0x18D JUMP JUMPDEST PUSH2 0x1BD PUSH2 0x55D JUMP JUMPDEST PUSH2 0x1A9 PUSH2 0x229 CALLDATASIZE PUSH1 0x4 PUSH2 0x2004 JUMP JUMPDEST PUSH2 0x56C JUMP JUMPDEST PUSH2 0x1BD PUSH2 0x23C CALLDATASIZE PUSH1 0x4 PUSH2 0x2004 JUMP JUMPDEST PUSH2 0x5AB JUMP JUMPDEST PUSH2 0x26D PUSH2 0x24F CALLDATASIZE PUSH1 0x4 PUSH2 0x1F14 JUMP JUMPDEST PUSH1 0x1 PUSH1 0x1 PUSH1 0xA0 SHL SUB SWAP1 DUP2 AND PUSH1 0x0 SWAP1 DUP2 MSTORE PUSH1 0x6 PUSH1 0x20 MSTORE PUSH1 0x40 SWAP1 KECCAK256 SLOAD AND SWAP1 JUMP JUMPDEST PUSH1 0x40 MLOAD PUSH1 0x1 PUSH1 0x1 PUSH1 0xA0 SHL SUB SWAP1 SWAP2 AND DUP2 MSTORE PUSH1 0x20 ADD PUSH2 0x18D JUMP JUMPDEST PUSH2 0x298 PUSH2 0x293 CALLDATASIZE PUSH1 0x4 PUSH2 0x1F14 JUMP JUMPDEST PUSH2 0x623 JUMP JUMPDEST STOP JUMPDEST PUSH2 0x26D PUSH32 0x0 DUP2 JUMP JUMPDEST PUSH2 0x2D4 PUSH2 0x2CF CALLDATASIZE PUSH1 0x4 PUSH2 0x1F14 JUMP JUMPDEST PUSH2 0x630 JUMP JUMPDEST PUSH1 0x40 MLOAD PUSH4 0xFFFFFFFF SWAP1 SWAP2 AND DUP2 MSTORE PUSH1 0x20 ADD PUSH2 0x18D JUMP JUMPDEST PUSH2 0x1BD PUSH2 0x2F7 CALLDATASIZE PUSH1 0x4 PUSH2 0x1F14 JUMP JUMPDEST PUSH1 0x1 PUSH1 0x1 PUSH1 0xA0 SHL SUB AND PUSH1 0x0 SWAP1 DUP2 MSTORE PUSH1 0x20 DUP2 SWAP1 MSTORE PUSH1 0x40 SWAP1 KECCAK256 SLOAD SWAP1 JUMP JUMPDEST PUSH2 0x1BD PUSH2 0x320 CALLDATASIZE PUSH1 0x4 PUSH2 0x1F14 JUMP JUMPDEST PUSH2 0x658 JUMP JUMPDEST PUSH2 0x1BD PUSH2 0x333 CALLDATASIZE PUSH1 0x4 PUSH2 0x20E2 JUMP JUMPDEST PUSH2 0x676 JUMP JUMPDEST PUSH2 0x180 PUSH2 0x6D2 JUMP JUMPDEST PUSH2 0x1BD PUSH2 0x34E CALLDATASIZE PUSH1 0x4 PUSH2 0x1F14 JUMP JUMPDEST PUSH2 0x6E1 JUMP JUMPDEST PUSH2 0x1A9 PUSH2 0x361 CALLDATASIZE PUSH1 0x4 PUSH2 0x2004 JUMP JUMPDEST PUSH2 0x776 JUMP JUMPDEST PUSH2 0x1A9 PUSH2 0x374 CALLDATASIZE PUSH1 0x4 PUSH2 0x2004 JUMP JUMPDEST PUSH2 0x813 JUMP JUMPDEST PUSH2 0x298 PUSH2 0x387 CALLDATASIZE PUSH1 0x4 PUSH2 0x202D JUMP JUMPDEST PUSH2 0x821 JUMP JUMPDEST PUSH2 0x298 PUSH2 0x39A CALLDATASIZE PUSH1 0x4 PUSH2 0x1F9B JUMP JUMPDEST PUSH2 0x957 JUMP JUMPDEST PUSH2 0x1BD PUSH2 0x3AD CALLDATASIZE PUSH1 0x4 PUSH2 0x1F2E JUMP JUMPDEST PUSH1 0x1 PUSH1 0x1 PUSH1 0xA0 SHL SUB SWAP2 DUP3 AND PUSH1 0x0 SWAP1 DUP2 MSTORE PUSH1 0x1 PUSH1 0x20 SWAP1 DUP2 MSTORE PUSH1 0x40 DUP1 DUP4 KECCAK256 SWAP4 SWAP1 SWAP5 AND DUP3 MSTORE SWAP2 SWAP1 SWAP2 MSTORE KECCAK256 SLOAD SWAP1 JUMP JUMPDEST PUSH2 0x3EB PUSH2 0x3E6 CALLDATASIZE PUSH1 0x4 PUSH2 0x2084 JUMP JUMPDEST PUSH2 0xABB JUMP JUMPDEST PUSH1 0x40 DUP1 MLOAD DUP3 MLOAD PUSH4 0xFFFFFFFF AND DUP2 MSTORE PUSH1 0x20 SWAP3 DUP4 ADD MLOAD PUSH1 0x1 PUSH1 0x1 PUSH1 0xE0 SHL SUB AND SWAP3 DUP2 ADD SWAP3 SWAP1 SWAP3 MSTORE ADD PUSH2 0x18D JUMP JUMPDEST PUSH1 0x60 PUSH1 0x3 DUP1 SLOAD PUSH2 0x424 SWAP1 PUSH2 0x21C4 JUMP JUMPDEST DUP1 PUSH1 0x1F ADD PUSH1 0x20 DUP1 SWAP2 DIV MUL PUSH1 0x20 ADD PUSH1 0x40 MLOAD SWAP1 DUP2 ADD PUSH1 0x40 MSTORE DUP1 SWAP3 SWAP2 SWAP1 DUP2 DUP2 MSTORE PUSH1 0x20 ADD DUP3 DUP1 SLOAD PUSH2 0x450 SWAP1 PUSH2 0x21C4 JUMP JUMPDEST DUP1 ISZERO PUSH2 0x49D JUMPI DUP1 PUSH1 0x1F LT PUSH2 0x472 JUMPI PUSH2 0x100 DUP1 DUP4 SLOAD DIV MUL DUP4 MSTORE SWAP2 PUSH1 0x20 ADD SWAP2 PUSH2 0x49D JUMP JUMPDEST DUP3 ADD SWAP2 SWAP1 PUSH1 0x0 MSTORE PUSH1 0x20 PUSH1 0x0 KECCAK256 SWAP1 JUMPDEST DUP2 SLOAD DUP2 MSTORE SWAP1 PUSH1 0x1 ADD SWAP1 PUSH1 0x20 ADD DUP1 DUP4 GT PUSH2 0x480 JUMPI DUP3 SWAP1 SUB PUSH1 0x1F AND DUP3 ADD SWAP2 JUMPDEST POP POP POP POP POP SWAP1 POP SWAP1 JUMP JUMPDEST PUSH1 0x0 CALLER PUSH2 0x4B5 DUP2 DUP6 DUP6 PUSH2 0xB4D JUMP JUMPDEST POP PUSH1 0x1 SWAP4 SWAP3 POP POP POP JUMP JUMPDEST PUSH1 0x0 PUSH2 0x4CB CALLER DUP4 PUSH2 0xC71 JUMP JUMPDEST PUSH2 0x4F6 PUSH32 0x0 DUP5 DUP5 PUSH2 0xC7F JUMP JUMPDEST POP PUSH1 0x1 SWAP3 SWAP2 POP POP JUMP JUMPDEST PUSH1 0x0 CALLER PUSH2 0x50D DUP6 DUP3 DUP6 PUSH2 0xCE7 JUMP JUMPDEST PUSH2 0x518 DUP6 DUP6 DUP6 PUSH2 0xD79 JUMP JUMPDEST PUSH1 0x1 SWAP2 POP POP JUMPDEST SWAP4 SWAP3 POP POP POP JUMP JUMPDEST PUSH1 0x0 PUSH2 0x553 PUSH32 0x0 CALLER ADDRESS DUP6 PUSH2 0xF4D JUMP JUMPDEST PUSH2 0x4F6 DUP4 DUP4 PUSH2 0xF85 JUMP JUMPDEST PUSH1 0x0 PUSH2 0x567 PUSH2 0xF8F JUMP JUMPDEST SWAP1 POP SWAP1 JUMP JUMPDEST CALLER PUSH1 0x0 DUP2 DUP2 MSTORE PUSH1 0x1 PUSH1 0x20 SWAP1 DUP2 MSTORE PUSH1 0x40 DUP1 DUP4 KECCAK256 PUSH1 0x1 PUSH1 0x1 PUSH1 0xA0 SHL SUB DUP8 AND DUP5 MSTORE SWAP1 SWAP2 MSTORE DUP2 KECCAK256 SLOAD SWAP1 SWAP2 SWAP1 PUSH2 0x4B5 SWAP1 DUP3 SWAP1 DUP7 SWAP1 PUSH2 0x5A6 SWAP1 DUP8 SWAP1 PUSH2 0x2149 JUMP JUMPDEST PUSH2 0xB4D JUMP JUMPDEST PUSH1 0x0 NUMBER DUP3 LT PUSH2 0x601 JUMPI PUSH1 0x40 MLOAD PUSH3 0x461BCD PUSH1 0xE5 SHL DUP2 MSTORE PUSH1 0x20 PUSH1 0x4 DUP3 ADD MSTORE PUSH1 0x1F PUSH1 0x24 DUP3 ADD MSTORE PUSH32 0x4552433230566F7465733A20626C6F636B206E6F7420796574206D696E656400 PUSH1 0x44 DUP3 ADD MSTORE PUSH1 0x64 ADD JUMPDEST PUSH1 0x40 MLOAD DUP1 SWAP2 SUB SWAP1 REVERT JUMPDEST PUSH1 0x1 PUSH1 0x1 PUSH1 0xA0 SHL SUB DUP4 AND PUSH1 0x0 SWAP1 DUP2 MSTORE PUSH1 0x7 PUSH1 0x20 MSTORE PUSH1 0x40 SWAP1 KECCAK256 PUSH2 0x51E SWAP1 DUP4 PUSH2 0x10B6 JUMP JUMPDEST PUSH2 0x62D CALLER DUP3 PUSH2 0x118F JUMP JUMPDEST POP JUMP JUMPDEST PUSH1 0x1 PUSH1 0x1 PUSH1 0xA0 SHL SUB DUP2 AND PUSH1 0x0 SWAP1 DUP2 MSTORE PUSH1 0x7 PUSH1 0x20 MSTORE PUSH1 0x40 DUP2 KECCAK256 SLOAD PUSH2 0x652 SWAP1 PUSH2 0x1208 JUMP JUMPDEST SWAP3 SWAP2 POP POP JUMP JUMPDEST PUSH1 0x1 PUSH1 0x1 PUSH1 0xA0 SHL SUB DUP2 AND PUSH1 0x0 SWAP1 DUP2 MSTORE PUSH1 0x5 PUSH1 0x20 MSTORE PUSH1 0x40 DUP2 KECCAK256 SLOAD PUSH2 0x652 JUMP JUMPDEST PUSH1 0x0 NUMBER DUP3 LT PUSH2 0x6C7 JUMPI PUSH1 0x40 MLOAD PUSH3 0x461BCD PUSH1 0xE5 SHL DUP2 MSTORE PUSH1 0x20 PUSH1 0x4 DUP3 ADD MSTORE PUSH1 0x1F PUSH1 0x24 DUP3 ADD MSTORE PUSH32 0x4552433230566F7465733A20626C6F636B206E6F7420796574206D696E656400 PUSH1 0x44 DUP3 ADD MSTORE PUSH1 0x64 ADD PUSH2 0x5F8 JUMP JUMPDEST PUSH2 0x652 PUSH1 0x8 DUP4 PUSH2 0x10B6 JUMP JUMPDEST PUSH1 0x60 PUSH1 0x4 DUP1 SLOAD PUSH2 0x424 SWAP1 PUSH2 0x21C4 JUMP JUMPDEST PUSH1 0x1 PUSH1 0x1 PUSH1 0xA0 SHL SUB DUP2 AND PUSH1 0x0 SWAP1 DUP2 MSTORE PUSH1 0x7 PUSH1 0x20 MSTORE PUSH1 0x40 DUP2 KECCAK256 SLOAD DUP1 ISZERO PUSH2 0x763 JUMPI PUSH1 0x1 PUSH1 0x1 PUSH1 0xA0 SHL SUB DUP4 AND PUSH1 0x0 SWAP1 DUP2 MSTORE PUSH1 0x7 PUSH1 0x20 MSTORE PUSH1 0x40 SWAP1 KECCAK256 PUSH2 0x723 PUSH1 0x1 DUP4 PUSH2 0x2181 JUMP JUMPDEST DUP2 SLOAD DUP2 LT PUSH2 0x741 JUMPI PUSH4 0x4E487B71 PUSH1 0xE0 SHL PUSH1 0x0 MSTORE PUSH1 0x32 PUSH1 0x4 MSTORE PUSH1 0x24 PUSH1 0x0 REVERT JUMPDEST PUSH1 0x0 SWAP2 DUP3 MSTORE PUSH1 0x20 SWAP1 SWAP2 KECCAK256 ADD SLOAD PUSH5 0x100000000 SWAP1 DIV PUSH1 0x1 PUSH1 0x1 PUSH1 0xE0 SHL SUB AND PUSH2 0x766 JUMP JUMPDEST PUSH1 0x0 JUMPDEST PUSH1 0x1 PUSH1 0x1 PUSH1 0xE0 SHL SUB AND SWAP4 SWAP3 POP POP POP JUMP JUMPDEST CALLER PUSH1 0x0 DUP2 DUP2 MSTORE PUSH1 0x1 PUSH1 0x20 SWAP1 DUP2 MSTORE PUSH1 0x40 DUP1 DUP4 KECCAK256 PUSH1 0x1 PUSH1 0x1 PUSH1 0xA0 SHL SUB DUP8 AND DUP5 MSTORE SWAP1 SWAP2 MSTORE DUP2 KECCAK256 SLOAD SWAP1 SWAP2 SWAP1 DUP4 DUP2 LT ISZERO PUSH2 0x7FB JUMPI PUSH1 0x40 MLOAD PUSH3 0x461BCD PUSH1 0xE5 SHL DUP2 MSTORE PUSH1 0x20 PUSH1 0x4 DUP3 ADD MSTORE PUSH1 0x25 PUSH1 0x24 DUP3 ADD MSTORE PUSH32 0x45524332303A2064656372656173656420616C6C6F77616E63652062656C6F77 PUSH1 0x44 DUP3 ADD MSTORE PUSH5 0x207A65726F PUSH1 0xD8 SHL PUSH1 0x64 DUP3 ADD MSTORE PUSH1 0x84 ADD PUSH2 0x5F8 JUMP JUMPDEST PUSH2 0x808 DUP3 DUP7 DUP7 DUP5 SUB PUSH2 0xB4D JUMP JUMPDEST POP PUSH1 0x1 SWAP5 SWAP4 POP POP POP POP JUMP JUMPDEST PUSH1 0x0 CALLER PUSH2 0x4B5 DUP2 DUP6 DUP6 PUSH2 0xD79 JUMP JUMPDEST DUP4 TIMESTAMP GT ISZERO PUSH2 0x871 JUMPI PUSH1 0x40 MLOAD PUSH3 0x461BCD PUSH1 0xE5 SHL DUP2 MSTORE PUSH1 0x20 PUSH1 0x4 DUP3 ADD MSTORE PUSH1 0x1D PUSH1 0x24 DUP3 ADD MSTORE PUSH32 0x4552433230566F7465733A207369676E61747572652065787069726564000000 PUSH1 0x44 DUP3 ADD MSTORE PUSH1 0x64 ADD PUSH2 0x5F8 JUMP JUMPDEST PUSH1 0x40 DUP1 MLOAD PUSH32 0xE48329057BFD03D55E49B547132E39CFFD9C1820AD7B9D4C5307691425D15ADF PUSH1 0x20 DUP3 ADD MSTORE PUSH1 0x1 PUSH1 0x1 PUSH1 0xA0 SHL SUB DUP9 AND SWAP2 DUP2 ADD SWAP2 SWAP1 SWAP2 MSTORE PUSH1 0x60 DUP2 ADD DUP7 SWAP1 MSTORE PUSH1 0x80 DUP2 ADD DUP6 SWAP1 MSTORE PUSH1 0x0 SWAP1 PUSH2 0x8EB SWAP1 PUSH2 0x8E3 SWAP1 PUSH1 0xA0 ADD PUSH1 0x40 MLOAD PUSH1 0x20 DUP2 DUP4 SUB SUB DUP2 MSTORE SWAP1 PUSH1 0x40 MSTORE DUP1 MLOAD SWAP1 PUSH1 0x20 ADD KECCAK256 PUSH2 0x1271 JUMP JUMPDEST DUP6 DUP6 DUP6 PUSH2 0x12BF JUMP JUMPDEST SWAP1 POP PUSH2 0x8F6 DUP2 PUSH2 0x12E7 JUMP JUMPDEST DUP7 EQ PUSH2 0x944 JUMPI PUSH1 0x40 MLOAD PUSH3 0x461BCD PUSH1 0xE5 SHL DUP2 MSTORE PUSH1 0x20 PUSH1 0x4 DUP3 ADD MSTORE PUSH1 0x19 PUSH1 0x24 DUP3 ADD MSTORE PUSH32 0x4552433230566F7465733A20696E76616C6964206E6F6E636500000000000000 PUSH1 0x44 DUP3 ADD MSTORE PUSH1 0x64 ADD PUSH2 0x5F8 JUMP JUMPDEST PUSH2 0x94E DUP2 DUP9 PUSH2 0x118F JUMP JUMPDEST POP POP POP POP POP POP POP JUMP JUMPDEST DUP4 TIMESTAMP GT ISZERO PUSH2 0x9A7 JUMPI PUSH1 0x40 MLOAD PUSH3 0x461BCD PUSH1 0xE5 SHL DUP2 MSTORE PUSH1 0x20 PUSH1 0x4 DUP3 ADD MSTORE PUSH1 0x1D PUSH1 0x24 DUP3 ADD MSTORE PUSH32 0x45524332305065726D69743A206578706972656420646561646C696E65000000 PUSH1 0x44 DUP3 ADD MSTORE PUSH1 0x64 ADD PUSH2 0x5F8 JUMP JUMPDEST PUSH1 0x0 PUSH32 0x0 DUP9 DUP9 DUP9 PUSH2 0x9D6 DUP13 PUSH2 0x12E7 JUMP JUMPDEST PUSH1 0x40 DUP1 MLOAD PUSH1 0x20 DUP2 ADD SWAP7 SWAP1 SWAP7 MSTORE PUSH1 0x1 PUSH1 0x1 PUSH1 0xA0 SHL SUB SWAP5 DUP6 AND SWAP1 DUP7 ADD MSTORE SWAP3 SWAP1 SWAP2 AND PUSH1 0x60 DUP5 ADD MSTORE PUSH1 0x80 DUP4 ADD MSTORE PUSH1 0xA0 DUP3 ADD MSTORE PUSH1 0xC0 DUP2 ADD DUP7 SWAP1 MSTORE PUSH1 0xE0 ADD PUSH1 0x40 MLOAD PUSH1 0x20 DUP2 DUP4 SUB SUB DUP2 MSTORE SWAP1 PUSH1 0x40 MSTORE DUP1 MLOAD SWAP1 PUSH1 0x20 ADD KECCAK256 SWAP1 POP PUSH1 0x0 PUSH2 0xA31 DUP3 PUSH2 0x1271 JUMP JUMPDEST SWAP1 POP PUSH1 0x0 PUSH2 0xA41 DUP3 DUP8 DUP8 DUP8 PUSH2 0x12BF JUMP JUMPDEST SWAP1 POP DUP10 PUSH1 0x1 PUSH1 0x1 PUSH1 0xA0 SHL SUB AND DUP2 PUSH1 0x1 PUSH1 0x1 PUSH1 0xA0 SHL SUB AND EQ PUSH2 0xAA4 JUMPI PUSH1 0x40 MLOAD PUSH3 0x461BCD PUSH1 0xE5 SHL DUP2 MSTORE PUSH1 0x20 PUSH1 0x4 DUP3 ADD MSTORE PUSH1 0x1E PUSH1 0x24 DUP3 ADD MSTORE PUSH32 0x45524332305065726D69743A20696E76616C6964207369676E61747572650000 PUSH1 0x44 DUP3 ADD MSTORE PUSH1 0x64 ADD PUSH2 0x5F8 JUMP JUMPDEST PUSH2 0xAAF DUP11 DUP11 DUP11 PUSH2 0xB4D JUMP JUMPDEST POP POP POP POP POP POP POP POP POP POP JUMP JUMPDEST PUSH1 0x40 DUP1 MLOAD DUP1 DUP3 ADD SWAP1 SWAP2 MSTORE PUSH1 0x0 DUP1 DUP3 MSTORE PUSH1 0x20 DUP3 ADD MSTORE PUSH1 0x1 PUSH1 0x1 PUSH1 0xA0 SHL SUB DUP4 AND PUSH1 0x0 SWAP1 DUP2 MSTORE PUSH1 0x7 PUSH1 0x20 MSTORE PUSH1 0x40 SWAP1 KECCAK256 DUP1 SLOAD PUSH4 0xFFFFFFFF DUP5 AND SWAP1 DUP2 LT PUSH2 0xB0D JUMPI PUSH4 0x4E487B71 PUSH1 0xE0 SHL PUSH1 0x0 MSTORE PUSH1 0x32 PUSH1 0x4 MSTORE PUSH1 0x24 PUSH1 0x0 REVERT JUMPDEST PUSH1 0x0 SWAP2 DUP3 MSTORE PUSH1 0x20 SWAP2 DUP3 SWAP1 KECCAK256 PUSH1 0x40 DUP1 MLOAD DUP1 DUP3 ADD SWAP1 SWAP2 MSTORE SWAP2 ADD SLOAD PUSH4 0xFFFFFFFF DUP2 AND DUP3 MSTORE PUSH5 0x100000000 SWAP1 DIV PUSH1 0x1 PUSH1 0x1 PUSH1 0xE0 SHL SUB AND SWAP2 DUP2 ADD SWAP2 SWAP1 SWAP2 MSTORE SWAP4 SWAP3 POP POP POP JUMP JUMPDEST PUSH1 0x1 PUSH1 0x1 PUSH1 0xA0 SHL SUB DUP4 AND PUSH2 0xBAF JUMPI PUSH1 0x40 MLOAD PUSH3 0x461BCD PUSH1 0xE5 SHL DUP2 MSTORE PUSH1 0x20 PUSH1 0x4 DUP3 ADD MSTORE PUSH1 0x24 DUP1 DUP3 ADD MSTORE PUSH32 0x45524332303A20617070726F76652066726F6D20746865207A65726F20616464 PUSH1 0x44 DUP3 ADD MSTORE PUSH4 0x72657373 PUSH1 0xE0 SHL PUSH1 0x64 DUP3 ADD MSTORE PUSH1 0x84 ADD PUSH2 0x5F8 JUMP JUMPDEST PUSH1 0x1 PUSH1 0x1 PUSH1 0xA0 SHL SUB DUP3 AND PUSH2 0xC10 JUMPI PUSH1 0x40 MLOAD PUSH3 0x461BCD PUSH1 0xE5 SHL DUP2 MSTORE PUSH1 0x20 PUSH1 0x4 DUP3 ADD MSTORE PUSH1 0x22 PUSH1 0x24 DUP3 ADD MSTORE PUSH32 0x45524332303A20617070726F766520746F20746865207A65726F206164647265 PUSH1 0x44 DUP3 ADD MSTORE PUSH2 0x7373 PUSH1 0xF0 SHL PUSH1 0x64 DUP3 ADD MSTORE PUSH1 0x84 ADD PUSH2 0x5F8 JUMP JUMPDEST PUSH1 0x1 PUSH1 0x1 PUSH1 0xA0 SHL SUB DUP4 DUP2 AND PUSH1 0x0 DUP2 DUP2 MSTORE PUSH1 0x1 PUSH1 0x20 SWAP1 DUP2 MSTORE PUSH1 0x40 DUP1 DUP4 KECCAK256 SWAP5 DUP8 AND DUP1 DUP5 MSTORE SWAP5 DUP3 MSTORE SWAP2 DUP3 SWAP1 KECCAK256 DUP6 SWAP1 SSTORE SWAP1 MLOAD DUP5 DUP2 MSTORE PUSH32 0x8C5BE1E5EBEC7D5BD14F71427D1E84F3DD0314C0F7B2291E5B200AC8C7C3B925 SWAP2 ADD PUSH1 0x40 MLOAD DUP1 SWAP2 SUB SWAP1 LOG3 POP POP POP JUMP JUMPDEST PUSH2 0xC7B DUP3 DUP3 PUSH2 0x130F JUMP JUMPDEST POP POP JUMP JUMPDEST PUSH1 0x40 MLOAD PUSH1 0x1 PUSH1 0x1 PUSH1 0xA0 SHL SUB DUP4 AND PUSH1 0x24 DUP3 ADD MSTORE PUSH1 0x44 DUP2 ADD DUP3 SWAP1 MSTORE PUSH2 0xCE2 SWAP1 DUP5 SWAP1 PUSH4 0xA9059CBB PUSH1 0xE0 SHL SWAP1 PUSH1 0x64 ADD JUMPDEST PUSH1 0x40 DUP1 MLOAD PUSH1 0x1F NOT DUP2 DUP5 SUB ADD DUP2 MSTORE SWAP2 SWAP1 MSTORE PUSH1 0x20 DUP2 ADD DUP1 MLOAD PUSH1 0x1 PUSH1 0x1 PUSH1 0xE0 SHL SUB AND PUSH1 0x1 PUSH1 0x1 PUSH1 0xE0 SHL SUB NOT SWAP1 SWAP4 AND SWAP3 SWAP1 SWAP3 OR SWAP1 SWAP2 MSTORE PUSH2 0x1327 JUMP JUMPDEST POP POP POP JUMP JUMPDEST PUSH1 0x1 PUSH1 0x1 PUSH1 0xA0 SHL SUB DUP4 DUP2 AND PUSH1 0x0 SWAP1 DUP2 MSTORE PUSH1 0x1 PUSH1 0x20 SWAP1 DUP2 MSTORE PUSH1 0x40 DUP1 DUP4 KECCAK256 SWAP4 DUP7 AND DUP4 MSTORE SWAP3 SWAP1 MSTORE KECCAK256 SLOAD PUSH1 0x0 NOT DUP2 EQ PUSH2 0xD73 JUMPI DUP2 DUP2 LT ISZERO PUSH2 0xD66 JUMPI PUSH1 0x40 MLOAD PUSH3 0x461BCD PUSH1 0xE5 SHL DUP2 MSTORE PUSH1 0x20 PUSH1 0x4 DUP3 ADD MSTORE PUSH1 0x1D PUSH1 0x24 DUP3 ADD MSTORE PUSH32 0x45524332303A20696E73756666696369656E7420616C6C6F77616E6365000000 PUSH1 0x44 DUP3 ADD MSTORE PUSH1 0x64 ADD PUSH2 0x5F8 JUMP JUMPDEST PUSH2 0xD73 DUP5 DUP5 DUP5 DUP5 SUB PUSH2 0xB4D JUMP JUMPDEST POP POP POP POP JUMP JUMPDEST PUSH1 0x1 PUSH1 0x1 PUSH1 0xA0 SHL SUB DUP4 AND PUSH2 0xDDD JUMPI PUSH1 0x40 MLOAD PUSH3 0x461BCD PUSH1 0xE5 SHL DUP2 MSTORE PUSH1 0x20 PUSH1 0x4 DUP3 ADD MSTORE PUSH1 0x25 PUSH1 0x24 DUP3 ADD MSTORE PUSH32 0x45524332303A207472616E736665722066726F6D20746865207A65726F206164 PUSH1 0x44 DUP3 ADD MSTORE PUSH5 0x6472657373 PUSH1 0xD8 SHL PUSH1 0x64 DUP3 ADD MSTORE PUSH1 0x84 ADD PUSH2 0x5F8 JUMP JUMPDEST PUSH1 0x1 PUSH1 0x1 PUSH1 0xA0 SHL SUB DUP3 AND PUSH2 0xE3F JUMPI PUSH1 0x40 MLOAD PUSH3 0x461BCD PUSH1 0xE5 SHL DUP2 MSTORE PUSH1 0x20 PUSH1 0x4 DUP3 ADD MSTORE PUSH1 0x23 PUSH1 0x24 DUP3 ADD MSTORE PUSH32 0x45524332303A207472616E7366657220746F20746865207A65726F2061646472 PUSH1 0x44 DUP3 ADD MSTORE PUSH3 0x657373 PUSH1 0xE8 SHL PUSH1 0x64 DUP3 ADD MSTORE PUSH1 0x84 ADD PUSH2 0x5F8 JUMP JUMPDEST PUSH1 0x1 PUSH1 0x1 PUSH1 0xA0 SHL SUB DUP4 AND PUSH1 0x0 SWAP1 DUP2 MSTORE PUSH1 0x20 DUP2 SWAP1 MSTORE PUSH1 0x40 SWAP1 KECCAK256 SLOAD DUP2 DUP2 LT ISZERO PUSH2 0xEB7 JUMPI PUSH1 0x40 MLOAD PUSH3 0x461BCD PUSH1 0xE5 SHL DUP2 MSTORE PUSH1 0x20 PUSH1 0x4 DUP3 ADD MSTORE PUSH1 0x26 PUSH1 0x24 DUP3 ADD MSTORE PUSH32 0x45524332303A207472616E7366657220616D6F756E7420657863656564732062 PUSH1 0x44 DUP3 ADD MSTORE PUSH6 0x616C616E6365 PUSH1 0xD0 SHL PUSH1 0x64 DUP3 ADD MSTORE PUSH1 0x84 ADD PUSH2 0x5F8 JUMP JUMPDEST PUSH1 0x1 PUSH1 0x1 PUSH1 0xA0 SHL SUB DUP1 DUP6 AND PUSH1 0x0 SWAP1 DUP2 MSTORE PUSH1 0x20 DUP2 SWAP1 MSTORE PUSH1 0x40 DUP1 DUP3 KECCAK256 DUP6 DUP6 SUB SWAP1 SSTORE SWAP2 DUP6 AND DUP2 MSTORE SWAP1 DUP2 KECCAK256 DUP1 SLOAD DUP5 SWAP3 SWAP1 PUSH2 0xEEE SWAP1 DUP5 SWAP1 PUSH2 0x2149 JUMP JUMPDEST SWAP3 POP POP DUP2 SWAP1 SSTORE POP DUP3 PUSH1 0x1 PUSH1 0x1 PUSH1 0xA0 SHL SUB AND DUP5 PUSH1 0x1 PUSH1 0x1 PUSH1 0xA0 SHL SUB AND PUSH32 0xDDF252AD1BE2C89B69C2B068FC378DAA952BA7F163C4A11628F55A4DF523B3EF DUP5 PUSH1 0x40 MLOAD PUSH2 0xF3A SWAP2 DUP2 MSTORE PUSH1 0x20 ADD SWAP1 JUMP JUMPDEST PUSH1 0x40 MLOAD DUP1 SWAP2 SUB SWAP1 LOG3 PUSH2 0xD73 DUP5 DUP5 DUP5 PUSH2 0x13F9 JUMP JUMPDEST PUSH1 0x40 MLOAD PUSH1 0x1 PUSH1 0x1 PUSH1 0xA0 SHL SUB DUP1 DUP6 AND PUSH1 0x24 DUP4 ADD MSTORE DUP4 AND PUSH1 0x44 DUP3 ADD MSTORE PUSH1 0x64 DUP2 ADD DUP3 SWAP1 MSTORE PUSH2 0xD73 SWAP1 DUP6 SWAP1 PUSH4 0x23B872DD PUSH1 0xE0 SHL SWAP1 PUSH1 0x84 ADD PUSH2 0xCAB JUMP JUMPDEST PUSH2 0xC7B DUP3 DUP3 PUSH2 0x1404 JUMP JUMPDEST PUSH1 0x0 ADDRESS PUSH1 0x1 PUSH1 0x1 PUSH1 0xA0 SHL SUB PUSH32 0x0 AND EQ DUP1 ISZERO PUSH2 0xFE8 JUMPI POP PUSH32 0x0 CHAINID EQ JUMPDEST ISZERO PUSH2 0x1012 JUMPI POP PUSH32 0x0 SWAP1 JUMP JUMPDEST POP PUSH1 0x40 DUP1 MLOAD PUSH32 0x0 PUSH1 0x20 DUP1 DUP4 ADD SWAP2 SWAP1 SWAP2 MSTORE PUSH32 0x0 DUP3 DUP5 ADD MSTORE PUSH32 0x0 PUSH1 0x60 DUP4 ADD MSTORE CHAINID PUSH1 0x80 DUP4 ADD MSTORE ADDRESS PUSH1 0xA0 DUP1 DUP5 ADD SWAP2 SWAP1 SWAP2 MSTORE DUP4 MLOAD DUP1 DUP5 SUB SWAP1 SWAP2 ADD DUP2 MSTORE PUSH1 0xC0 SWAP1 SWAP3 ADD SWAP1 SWAP3 MSTORE DUP1 MLOAD SWAP2 ADD KECCAK256 SWAP1 JUMP JUMPDEST DUP2 SLOAD PUSH1 0x0 SWAP1 DUP2 JUMPDEST DUP2 DUP2 LT ISZERO PUSH2 0x1128 JUMPI PUSH1 0x0 PUSH2 0x10D1 DUP3 DUP5 PUSH2 0x148E JUMP JUMPDEST SWAP1 POP DUP5 DUP7 DUP3 DUP2 SLOAD DUP2 LT PUSH2 0x10F4 JUMPI PUSH4 0x4E487B71 PUSH1 0xE0 SHL PUSH1 0x0 MSTORE PUSH1 0x32 PUSH1 0x4 MSTORE PUSH1 0x24 PUSH1 0x0 REVERT JUMPDEST PUSH1 0x0 SWAP2 DUP3 MSTORE PUSH1 0x20 SWAP1 SWAP2 KECCAK256 ADD SLOAD PUSH4 0xFFFFFFFF AND GT ISZERO PUSH2 0x1114 JUMPI DUP1 SWAP3 POP PUSH2 0x1122 JUMP JUMPDEST PUSH2 0x111F DUP2 PUSH1 0x1 PUSH2 0x2149 JUMP JUMPDEST SWAP2 POP JUMPDEST POP PUSH2 0x10BD JUMP JUMPDEST DUP2 ISZERO PUSH2 0x117A JUMPI DUP5 PUSH2 0x113A PUSH1 0x1 DUP5 PUSH2 0x2181 JUMP JUMPDEST DUP2 SLOAD DUP2 LT PUSH2 0x1158 JUMPI PUSH4 0x4E487B71 PUSH1 0xE0 SHL PUSH1 0x0 MSTORE PUSH1 0x32 PUSH1 0x4 MSTORE PUSH1 0x24 PUSH1 0x0 REVERT JUMPDEST PUSH1 0x0 SWAP2 DUP3 MSTORE PUSH1 0x20 SWAP1 SWAP2 KECCAK256 ADD SLOAD PUSH5 0x100000000 SWAP1 DIV PUSH1 0x1 PUSH1 0x1 PUSH1 0xE0 SHL SUB AND PUSH2 0x117D JUMP JUMPDEST PUSH1 0x0 JUMPDEST PUSH1 0x1 PUSH1 0x1 PUSH1 0xE0 SHL SUB AND SWAP6 SWAP5 POP POP POP POP POP JUMP JUMPDEST PUSH1 0x1 PUSH1 0x1 PUSH1 0xA0 SHL SUB DUP3 DUP2 AND PUSH1 0x0 DUP2 DUP2 MSTORE PUSH1 0x6 PUSH1 0x20 DUP2 DUP2 MSTORE PUSH1 0x40 DUP1 DUP5 KECCAK256 DUP1 SLOAD DUP6 DUP5 MSTORE DUP3 DUP7 KECCAK256 SLOAD SWAP5 SWAP1 SWAP4 MSTORE DUP8 DUP8 AND PUSH1 0x1 PUSH1 0x1 PUSH1 0xA0 SHL SUB NOT DUP5 AND DUP2 OR SWAP1 SWAP2 SSTORE SWAP1 MLOAD SWAP2 SWAP1 SWAP6 AND SWAP5 SWAP2 SWAP4 SWAP2 SWAP3 DUP6 SWAP3 SWAP2 PUSH32 0x3134E8A2E6D97E929A7E54011EA5485D7D196DD5F0BA4D4EF95803E8E3FC257F SWAP2 SWAP1 LOG4 PUSH2 0xD73 DUP3 DUP5 DUP4 PUSH2 0x14A9 JUMP JUMPDEST PUSH1 0x0 PUSH4 0xFFFFFFFF DUP3 GT ISZERO PUSH2 0x126D JUMPI PUSH1 0x40 MLOAD PUSH3 0x461BCD PUSH1 0xE5 SHL DUP2 MSTORE PUSH1 0x20 PUSH1 0x4 DUP3 ADD MSTORE PUSH1 0x26 PUSH1 0x24 DUP3 ADD MSTORE PUSH32 0x53616665436173743A2076616C756520646F65736E27742066697420696E2033 PUSH1 0x44 DUP3 ADD MSTORE PUSH6 0x322062697473 PUSH1 0xD0 SHL PUSH1 0x64 DUP3 ADD MSTORE PUSH1 0x84 ADD PUSH2 0x5F8 JUMP JUMPDEST POP SWAP1 JUMP JUMPDEST PUSH1 0x0 PUSH2 0x652 PUSH2 0x127E PUSH2 0xF8F JUMP JUMPDEST DUP4 PUSH1 0x40 MLOAD PUSH2 0x1901 PUSH1 0xF0 SHL PUSH1 0x20 DUP3 ADD MSTORE PUSH1 0x22 DUP2 ADD DUP4 SWAP1 MSTORE PUSH1 0x42 DUP2 ADD DUP3 SWAP1 MSTORE PUSH1 0x0 SWAP1 PUSH1 0x62 ADD PUSH1 0x40 MLOAD PUSH1 0x20 DUP2 DUP4 SUB SUB DUP2 MSTORE SWAP1 PUSH1 0x40 MSTORE DUP1 MLOAD SWAP1 PUSH1 0x20 ADD KECCAK256 SWAP1 POP SWAP3 SWAP2 POP POP JUMP JUMPDEST PUSH1 0x0 DUP1 PUSH1 0x0 PUSH2 0x12D0 DUP8 DUP8 DUP8 DUP8 PUSH2 0x15E6 JUMP JUMPDEST SWAP2 POP SWAP2 POP PUSH2 0x12DD DUP2 PUSH2 0x16D3 JUMP JUMPDEST POP SWAP6 SWAP5 POP POP POP POP POP JUMP JUMPDEST PUSH1 0x1 PUSH1 0x1 PUSH1 0xA0 SHL SUB DUP2 AND PUSH1 0x0 SWAP1 DUP2 MSTORE PUSH1 0x5 PUSH1 0x20 MSTORE PUSH1 0x40 SWAP1 KECCAK256 DUP1 SLOAD PUSH1 0x1 DUP2 ADD DUP3 SSTORE SWAP1 JUMPDEST POP SWAP2 SWAP1 POP JUMP JUMPDEST PUSH2 0x1319 DUP3 DUP3 PUSH2 0x18D4 JUMP JUMPDEST PUSH2 0xD73 PUSH1 0x8 PUSH2 0x1A29 DUP4 PUSH2 0x1A35 JUMP JUMPDEST PUSH1 0x0 PUSH2 0x137C DUP3 PUSH1 0x40 MLOAD DUP1 PUSH1 0x40 ADD PUSH1 0x40 MSTORE DUP1 PUSH1 0x20 DUP2 MSTORE PUSH1 0x20 ADD PUSH32 0x5361666545524332303A206C6F772D6C6576656C2063616C6C206661696C6564 DUP2 MSTORE POP DUP6 PUSH1 0x1 PUSH1 0x1 PUSH1 0xA0 SHL SUB AND PUSH2 0x1BD8 SWAP1 SWAP3 SWAP2 SWAP1 PUSH4 0xFFFFFFFF AND JUMP JUMPDEST DUP1 MLOAD SWAP1 SWAP2 POP ISZERO PUSH2 0xCE2 JUMPI DUP1 DUP1 PUSH1 0x20 ADD SWAP1 MLOAD DUP2 ADD SWAP1 PUSH2 0x139A SWAP2 SWAP1 PUSH2 0x20C2 JUMP JUMPDEST PUSH2 0xCE2 JUMPI PUSH1 0x40 MLOAD PUSH3 0x461BCD PUSH1 0xE5 SHL DUP2 MSTORE PUSH1 0x20 PUSH1 0x4 DUP3 ADD MSTORE PUSH1 0x2A PUSH1 0x24 DUP3 ADD MSTORE PUSH32 0x5361666545524332303A204552433230206F7065726174696F6E20646964206E PUSH1 0x44 DUP3 ADD MSTORE PUSH10 0x1BDD081CDD58D8D95959 PUSH1 0xB2 SHL PUSH1 0x64 DUP3 ADD MSTORE PUSH1 0x84 ADD PUSH2 0x5F8 JUMP JUMPDEST PUSH2 0xCE2 DUP4 DUP4 DUP4 PUSH2 0x1BEF JUMP JUMPDEST PUSH2 0x140E DUP3 DUP3 PUSH2 0x1C21 JUMP JUMPDEST PUSH1 0x2 SLOAD PUSH1 0x1 PUSH1 0x1 PUSH1 0xE0 SHL SUB LT ISZERO PUSH2 0x1480 JUMPI PUSH1 0x40 MLOAD PUSH3 0x461BCD PUSH1 0xE5 SHL DUP2 MSTORE PUSH1 0x20 PUSH1 0x4 DUP3 ADD MSTORE PUSH1 0x30 PUSH1 0x24 DUP3 ADD MSTORE PUSH32 0x4552433230566F7465733A20746F74616C20737570706C79207269736B73206F PUSH1 0x44 DUP3 ADD MSTORE PUSH16 0x766572666C6F77696E6720766F746573 PUSH1 0x80 SHL PUSH1 0x64 DUP3 ADD MSTORE PUSH1 0x84 ADD PUSH2 0x5F8 JUMP JUMPDEST PUSH2 0xD73 PUSH1 0x8 PUSH2 0x1D08 DUP4 PUSH2 0x1A35 JUMP JUMPDEST PUSH1 0x0 PUSH2 0x149D PUSH1 0x2 DUP5 DUP5 XOR PUSH2 0x2161 JUMP JUMPDEST PUSH2 0x51E SWAP1 DUP5 DUP5 AND PUSH2 0x2149 JUMP JUMPDEST DUP2 PUSH1 0x1 PUSH1 0x1 PUSH1 0xA0 SHL SUB AND DUP4 PUSH1 0x1 PUSH1 0x1 PUSH1 0xA0 SHL SUB AND EQ ISZERO DUP1 ISZERO PUSH2 0x14CB JUMPI POP PUSH1 0x0 DUP2 GT JUMPDEST ISZERO PUSH2 0xCE2 JUMPI PUSH1 0x1 PUSH1 0x1 PUSH1 0xA0 SHL SUB DUP4 AND ISZERO PUSH2 0x1559 JUMPI PUSH1 0x1 PUSH1 0x1 PUSH1 0xA0 SHL SUB DUP4 AND PUSH1 0x0 SWAP1 DUP2 MSTORE PUSH1 0x7 PUSH1 0x20 MSTORE PUSH1 0x40 DUP2 KECCAK256 DUP2 SWAP1 PUSH2 0x1506 SWAP1 PUSH2 0x1A29 DUP6 PUSH2 0x1A35 JUMP JUMPDEST SWAP2 POP SWAP2 POP DUP5 PUSH1 0x1 PUSH1 0x1 PUSH1 0xA0 SHL SUB AND PUSH32 0xDEC2BACDD2F05B59DE34DA9B523DFF8BE42E5E38E818C82FDB0BAE774387A724 DUP4 DUP4 PUSH1 0x40 MLOAD PUSH2 0x154E SWAP3 SWAP2 SWAP1 SWAP2 DUP3 MSTORE PUSH1 0x20 DUP3 ADD MSTORE PUSH1 0x40 ADD SWAP1 JUMP JUMPDEST PUSH1 0x40 MLOAD DUP1 SWAP2 SUB SWAP1 LOG2 POP POP JUMPDEST PUSH1 0x1 PUSH1 0x1 PUSH1 0xA0 SHL SUB DUP3 AND ISZERO PUSH2 0xCE2 JUMPI PUSH1 0x1 PUSH1 0x1 PUSH1 0xA0 SHL SUB DUP3 AND PUSH1 0x0 SWAP1 DUP2 MSTORE PUSH1 0x7 PUSH1 0x20 MSTORE PUSH1 0x40 DUP2 KECCAK256 DUP2 SWAP1 PUSH2 0x158F SWAP1 PUSH2 0x1D08 DUP6 PUSH2 0x1A35 JUMP JUMPDEST SWAP2 POP SWAP2 POP DUP4 PUSH1 0x1 PUSH1 0x1 PUSH1 0xA0 SHL SUB AND PUSH32 0xDEC2BACDD2F05B59DE34DA9B523DFF8BE42E5E38E818C82FDB0BAE774387A724 DUP4 DUP4 PUSH1 0x40 MLOAD PUSH2 0x15D7 SWAP3 SWAP2 SWAP1 SWAP2 DUP3 MSTORE PUSH1 0x20 DUP3 ADD MSTORE PUSH1 0x40 ADD SWAP1 JUMP JUMPDEST PUSH1 0x40 MLOAD DUP1 SWAP2 SUB SWAP1 LOG2 POP POP POP POP POP JUMP JUMPDEST PUSH1 0x0 DUP1 PUSH32 0x7FFFFFFFFFFFFFFFFFFFFFFFFFFFFFFF5D576E7357A4501DDFE92F46681B20A0 DUP4 GT ISZERO PUSH2 0x161D JUMPI POP PUSH1 0x0 SWAP1 POP PUSH1 0x3 PUSH2 0x16CA JUMP JUMPDEST DUP5 PUSH1 0xFF AND PUSH1 0x1B EQ ISZERO DUP1 ISZERO PUSH2 0x1635 JUMPI POP DUP5 PUSH1 0xFF AND PUSH1 0x1C EQ ISZERO JUMPDEST ISZERO PUSH2 0x1646 JUMPI POP PUSH1 0x0 SWAP1 POP PUSH1 0x4 PUSH2 0x16CA JUMP JUMPDEST PUSH1 0x40 DUP1 MLOAD PUSH1 0x0 DUP1 DUP3 MSTORE PUSH1 0x20 DUP3 ADD DUP1 DUP5 MSTORE DUP10 SWAP1 MSTORE PUSH1 0xFF DUP9 AND SWAP3 DUP3 ADD SWAP3 SWAP1 SWAP3 MSTORE PUSH1 0x60 DUP2 ADD DUP7 SWAP1 MSTORE PUSH1 0x80 DUP2 ADD DUP6 SWAP1 MSTORE PUSH1 0x1 SWAP1 PUSH1 0xA0 ADD PUSH1 0x20 PUSH1 0x40 MLOAD PUSH1 0x20 DUP2 SUB SWAP1 DUP1 DUP5 SUB SWAP1 DUP6 GAS STATICCALL ISZERO DUP1 ISZERO PUSH2 0x169A JUMPI RETURNDATASIZE PUSH1 0x0 DUP1 RETURNDATACOPY RETURNDATASIZE PUSH1 0x0 REVERT JUMPDEST POP POP PUSH1 0x40 MLOAD PUSH1 0x1F NOT ADD MLOAD SWAP2 POP POP PUSH1 0x1 PUSH1 0x1 PUSH1 0xA0 SHL SUB DUP2 AND PUSH2 0x16C3 JUMPI PUSH1 0x0 PUSH1 0x1 SWAP3 POP SWAP3 POP POP PUSH2 0x16CA JUMP JUMPDEST SWAP2 POP PUSH1 0x0 SWAP1 POP JUMPDEST SWAP5 POP SWAP5 SWAP3 POP POP POP JUMP JUMPDEST PUSH1 0x0 DUP2 PUSH1 0x4 DUP2 GT ISZERO PUSH2 0x16F5 JUMPI PUSH4 0x4E487B71 PUSH1 0xE0 SHL PUSH1 0x0 MSTORE PUSH1 0x21 PUSH1 0x4 MSTORE PUSH1 0x24 PUSH1 0x0 REVERT JUMPDEST EQ ISZERO PUSH2 0x16FE JUMPI POP JUMP JUMPDEST PUSH1 0x1 DUP2 PUSH1 0x4 DUP2 GT ISZERO PUSH2 0x1720 JUMPI PUSH4 0x4E487B71 PUSH1 0xE0 SHL PUSH1 0x0 MSTORE PUSH1 0x21 PUSH1 0x4 MSTORE PUSH1 0x24 PUSH1 0x0 REVERT JUMPDEST EQ ISZERO PUSH2 0x176E JUMPI PUSH1 0x40 MLOAD PUSH3 0x461BCD PUSH1 0xE5 SHL DUP2 MSTORE PUSH1 0x20 PUSH1 0x4 DUP3 ADD MSTORE PUSH1 0x18 PUSH1 0x24 DUP3 ADD MSTORE PUSH32 0x45434453413A20696E76616C6964207369676E61747572650000000000000000 PUSH1 0x44 DUP3 ADD MSTORE PUSH1 0x64 ADD PUSH2 0x5F8 JUMP JUMPDEST PUSH1 0x2 DUP2 PUSH1 0x4 DUP2 GT ISZERO PUSH2 0x1790 JUMPI PUSH4 0x4E487B71 PUSH1 0xE0 SHL PUSH1 0x0 MSTORE PUSH1 0x21 PUSH1 0x4 MSTORE PUSH1 0x24 PUSH1 0x0 REVERT JUMPDEST EQ ISZERO PUSH2 0x17DE JUMPI PUSH1 0x40 MLOAD PUSH3 0x461BCD PUSH1 0xE5 SHL DUP2 MSTORE PUSH1 0x20 PUSH1 0x4 DUP3 ADD MSTORE PUSH1 0x1F PUSH1 0x24 DUP3 ADD MSTORE PUSH32 0x45434453413A20696E76616C6964207369676E6174757265206C656E67746800 PUSH1 0x44 DUP3 ADD MSTORE PUSH1 0x64 ADD PUSH2 0x5F8 JUMP JUMPDEST PUSH1 0x3 DUP2 PUSH1 0x4 DUP2 GT ISZERO PUSH2 0x1800 JUMPI PUSH4 0x4E487B71 PUSH1 0xE0 SHL PUSH1 0x0 MSTORE PUSH1 0x21 PUSH1 0x4 MSTORE PUSH1 0x24 PUSH1 0x0 REVERT JUMPDEST EQ ISZERO PUSH2 0x1859 JUMPI PUSH1 0x40 MLOAD PUSH3 0x461BCD PUSH1 0xE5 SHL DUP2 MSTORE PUSH1 0x20 PUSH1 0x4 DUP3 ADD MSTORE PUSH1 0x22 PUSH1 0x24 DUP3 ADD MSTORE PUSH32 0x45434453413A20696E76616C6964207369676E6174757265202773272076616C PUSH1 0x44 DUP3 ADD MSTORE PUSH2 0x7565 PUSH1 0xF0 SHL PUSH1 0x64 DUP3 ADD MSTORE PUSH1 0x84 ADD PUSH2 0x5F8 JUMP JUMPDEST PUSH1 0x4 DUP2 PUSH1 0x4 DUP2 GT ISZERO PUSH2 0x187B JUMPI PUSH4 0x4E487B71 PUSH1 0xE0 SHL PUSH1 0x0 MSTORE PUSH1 0x21 PUSH1 0x4 MSTORE PUSH1 0x24 PUSH1 0x0 REVERT JUMPDEST EQ ISZERO PUSH2 0x62D JUMPI PUSH1 0x40 MLOAD PUSH3 0x461BCD PUSH1 0xE5 SHL DUP2 MSTORE PUSH1 0x20 PUSH1 0x4 DUP3 ADD MSTORE PUSH1 0x22 PUSH1 0x24 DUP3 ADD MSTORE PUSH32 0x45434453413A20696E76616C6964207369676E6174757265202776272076616C PUSH1 0x44 DUP3 ADD MSTORE PUSH2 0x7565 PUSH1 0xF0 SHL PUSH1 0x64 DUP3 ADD MSTORE PUSH1 0x84 ADD PUSH2 0x5F8 JUMP JUMPDEST PUSH1 0x1 PUSH1 0x1 PUSH1 0xA0 SHL SUB DUP3 AND PUSH2 0x1934 JUMPI PUSH1 0x40 MLOAD PUSH3 0x461BCD PUSH1 0xE5 SHL DUP2 MSTORE PUSH1 0x20 PUSH1 0x4 DUP3 ADD MSTORE PUSH1 0x21 PUSH1 0x24 DUP3 ADD MSTORE PUSH32 0x45524332303A206275726E2066726F6D20746865207A65726F20616464726573 PUSH1 0x44 DUP3 ADD MSTORE PUSH1 0x73 PUSH1 0xF8 SHL PUSH1 0x64 DUP3 ADD MSTORE PUSH1 0x84 ADD PUSH2 0x5F8 JUMP JUMPDEST PUSH1 0x1 PUSH1 0x1 PUSH1 0xA0 SHL SUB DUP3 AND PUSH1 0x0 SWAP1 DUP2 MSTORE PUSH1 0x20 DUP2 SWAP1 MSTORE PUSH1 0x40 SWAP1 KECCAK256 SLOAD DUP2 DUP2 LT ISZERO PUSH2 0x19A8 JUMPI PUSH1 0x40 MLOAD PUSH3 0x461BCD PUSH1 0xE5 SHL DUP2 MSTORE PUSH1 0x20 PUSH1 0x4 DUP3 ADD MSTORE PUSH1 0x22 PUSH1 0x24 DUP3 ADD MSTORE PUSH32 0x45524332303A206275726E20616D6F756E7420657863656564732062616C616E PUSH1 0x44 DUP3 ADD MSTORE PUSH2 0x6365 PUSH1 0xF0 SHL PUSH1 0x64 DUP3 ADD MSTORE PUSH1 0x84 ADD PUSH2 0x5F8 JUMP JUMPDEST PUSH1 0x1 PUSH1 0x1 PUSH1 0xA0 SHL SUB DUP4 AND PUSH1 0x0 SWAP1 DUP2 MSTORE PUSH1 0x20 DUP2 SWAP1 MSTORE PUSH1 0x40 DUP2 KECCAK256 DUP4 DUP4 SUB SWAP1 SSTORE PUSH1 0x2 DUP1 SLOAD DUP5 SWAP3 SWAP1 PUSH2 0x19D7 SWAP1 DUP5 SWAP1 PUSH2 0x2181 JUMP JUMPDEST SWAP1 SWAP2 SSTORE POP POP PUSH1 0x40 MLOAD DUP3 DUP2 MSTORE PUSH1 0x0 SWAP1 PUSH1 0x1 PUSH1 0x1 PUSH1 0xA0 SHL SUB DUP6 AND SWAP1 PUSH32 0xDDF252AD1BE2C89B69C2B068FC378DAA952BA7F163C4A11628F55A4DF523B3EF SWAP1 PUSH1 0x20 ADD PUSH1 0x40 MLOAD DUP1 SWAP2 SUB SWAP1 LOG3 PUSH2 0xCE2 DUP4 PUSH1 0x0 DUP5 PUSH2 0x13F9 JUMP JUMPDEST PUSH1 0x0 PUSH2 0x51E DUP3 DUP5 PUSH2 0x2181 JUMP JUMPDEST DUP3 SLOAD PUSH1 0x0 SWAP1 DUP2 SWAP1 DUP1 ISZERO PUSH2 0x1A8E JUMPI DUP6 PUSH2 0x1A4E PUSH1 0x1 DUP4 PUSH2 0x2181 JUMP JUMPDEST DUP2 SLOAD DUP2 LT PUSH2 0x1A6C JUMPI PUSH4 0x4E487B71 PUSH1 0xE0 SHL PUSH1 0x0 MSTORE PUSH1 0x32 PUSH1 0x4 MSTORE PUSH1 0x24 PUSH1 0x0 REVERT JUMPDEST PUSH1 0x0 SWAP2 DUP3 MSTORE PUSH1 0x20 SWAP1 SWAP2 KECCAK256 ADD SLOAD PUSH5 0x100000000 SWAP1 DIV PUSH1 0x1 PUSH1 0x1 PUSH1 0xE0 SHL SUB AND PUSH2 0x1A91 JUMP JUMPDEST PUSH1 0x0 JUMPDEST PUSH1 0x1 PUSH1 0x1 PUSH1 0xE0 SHL SUB AND SWAP3 POP PUSH2 0x1AAA DUP4 DUP6 DUP8 PUSH4 0xFFFFFFFF AND JUMP JUMPDEST SWAP2 POP PUSH1 0x0 DUP2 GT DUP1 ISZERO PUSH2 0x1AF6 JUMPI POP NUMBER DUP7 PUSH2 0x1AC4 PUSH1 0x1 DUP5 PUSH2 0x2181 JUMP JUMPDEST DUP2 SLOAD DUP2 LT PUSH2 0x1AE2 JUMPI PUSH4 0x4E487B71 PUSH1 0xE0 SHL PUSH1 0x0 MSTORE PUSH1 0x32 PUSH1 0x4 MSTORE PUSH1 0x24 PUSH1 0x0 REVERT JUMPDEST PUSH1 0x0 SWAP2 DUP3 MSTORE PUSH1 0x20 SWAP1 SWAP2 KECCAK256 ADD SLOAD PUSH4 0xFFFFFFFF AND EQ JUMPDEST ISZERO PUSH2 0x1B64 JUMPI PUSH2 0x1B04 DUP3 PUSH2 0x1D14 JUMP JUMPDEST DUP7 PUSH2 0x1B10 PUSH1 0x1 DUP5 PUSH2 0x2181 JUMP JUMPDEST DUP2 SLOAD DUP2 LT PUSH2 0x1B2E JUMPI PUSH4 0x4E487B71 PUSH1 0xE0 SHL PUSH1 0x0 MSTORE PUSH1 0x32 PUSH1 0x4 MSTORE PUSH1 0x24 PUSH1 0x0 REVERT JUMPDEST SWAP1 PUSH1 0x0 MSTORE PUSH1 0x20 PUSH1 0x0 KECCAK256 ADD PUSH1 0x0 ADD PUSH1 0x4 PUSH2 0x100 EXP DUP2 SLOAD DUP2 PUSH1 0x1 PUSH1 0x1 PUSH1 0xE0 SHL SUB MUL NOT AND SWAP1 DUP4 PUSH1 0x1 PUSH1 0x1 PUSH1 0xE0 SHL SUB AND MUL OR SWAP1 SSTORE POP PUSH2 0x1BCF JUMP JUMPDEST DUP6 PUSH1 0x40 MLOAD DUP1 PUSH1 0x40 ADD PUSH1 0x40 MSTORE DUP1 PUSH2 0x1B79 NUMBER PUSH2 0x1208 JUMP JUMPDEST PUSH4 0xFFFFFFFF AND DUP2 MSTORE PUSH1 0x20 ADD PUSH2 0x1B8D DUP6 PUSH2 0x1D14 JUMP JUMPDEST PUSH1 0x1 PUSH1 0x1 PUSH1 0xE0 SHL SUB SWAP1 DUP2 AND SWAP1 SWAP2 MSTORE DUP3 SLOAD PUSH1 0x1 DUP2 ADD DUP5 SSTORE PUSH1 0x0 SWAP4 DUP5 MSTORE PUSH1 0x20 SWAP4 DUP5 SWAP1 KECCAK256 DUP4 MLOAD SWAP5 SWAP1 SWAP4 ADD MLOAD SWAP1 SWAP2 AND PUSH5 0x100000000 MUL PUSH4 0xFFFFFFFF SWAP1 SWAP4 AND SWAP3 SWAP1 SWAP3 OR SWAP2 ADD SSTORE JUMPDEST POP SWAP4 POP SWAP4 SWAP2 POP POP JUMP JUMPDEST PUSH1 0x60 PUSH2 0x1BE7 DUP5 DUP5 PUSH1 0x0 DUP6 PUSH2 0x1D7D JUMP JUMPDEST SWAP5 SWAP4 POP POP POP POP JUMP JUMPDEST PUSH1 0x1 PUSH1 0x1 PUSH1 0xA0 SHL SUB DUP4 DUP2 AND PUSH1 0x0 SWAP1 DUP2 MSTORE PUSH1 0x6 PUSH1 0x20 MSTORE PUSH1 0x40 DUP1 DUP3 KECCAK256 SLOAD DUP6 DUP5 AND DUP4 MSTORE SWAP2 KECCAK256 SLOAD PUSH2 0xCE2 SWAP3 SWAP2 DUP3 AND SWAP2 AND DUP4 PUSH2 0x14A9 JUMP JUMPDEST PUSH1 0x1 PUSH1 0x1 PUSH1 0xA0 SHL SUB DUP3 AND PUSH2 0x1C77 JUMPI PUSH1 0x40 MLOAD PUSH3 0x461BCD PUSH1 0xE5 SHL DUP2 MSTORE PUSH1 0x20 PUSH1 0x4 DUP3 ADD MSTORE PUSH1 0x1F PUSH1 0x24 DUP3 ADD MSTORE PUSH32 0x45524332303A206D696E7420746F20746865207A65726F206164647265737300 PUSH1 0x44 DUP3 ADD MSTORE PUSH1 0x64 ADD PUSH2 0x5F8 JUMP JUMPDEST DUP1 PUSH1 0x2 PUSH1 0x0 DUP3 DUP3 SLOAD PUSH2 0x1C89 SWAP2 SWAP1 PUSH2 0x2149 JUMP JUMPDEST SWAP1 SWAP2 SSTORE POP POP PUSH1 0x1 PUSH1 0x1 PUSH1 0xA0 SHL SUB DUP3 AND PUSH1 0x0 SWAP1 DUP2 MSTORE PUSH1 0x20 DUP2 SWAP1 MSTORE PUSH1 0x40 DUP2 KECCAK256 DUP1 SLOAD DUP4 SWAP3 SWAP1 PUSH2 0x1CB6 SWAP1 DUP5 SWAP1 PUSH2 0x2149 JUMP JUMPDEST SWAP1 SWAP2 SSTORE POP POP PUSH1 0x40 MLOAD DUP2 DUP2 MSTORE PUSH1 0x1 PUSH1 0x1 PUSH1 0xA0 SHL SUB DUP4 AND SWAP1 PUSH1 0x0 SWAP1 PUSH32 0xDDF252AD1BE2C89B69C2B068FC378DAA952BA7F163C4A11628F55A4DF523B3EF SWAP1 PUSH1 0x20 ADD PUSH1 0x40 MLOAD DUP1 SWAP2 SUB SWAP1 LOG3 PUSH2 0xC7B PUSH1 0x0 DUP4 DUP4 PUSH2 0x13F9 JUMP JUMPDEST PUSH1 0x0 PUSH2 0x51E DUP3 DUP5 PUSH2 0x2149 JUMP JUMPDEST PUSH1 0x0 PUSH1 0x1 PUSH1 0x1 PUSH1 0xE0 SHL SUB DUP3 GT ISZERO PUSH2 0x126D JUMPI PUSH1 0x40 MLOAD PUSH3 0x461BCD PUSH1 0xE5 SHL DUP2 MSTORE PUSH1 0x20 PUSH1 0x4 DUP3 ADD MSTORE PUSH1 0x27 PUSH1 0x24 DUP3 ADD MSTORE PUSH32 0x53616665436173743A2076616C756520646F65736E27742066697420696E2032 PUSH1 0x44 DUP3 ADD MSTORE PUSH7 0x32342062697473 PUSH1 0xC8 SHL PUSH1 0x64 DUP3 ADD MSTORE PUSH1 0x84 ADD PUSH2 0x5F8 JUMP JUMPDEST PUSH1 0x60 DUP3 SELFBALANCE LT ISZERO PUSH2 0x1DDE JUMPI PUSH1 0x40 MLOAD PUSH3 0x461BCD PUSH1 0xE5 SHL DUP2 MSTORE PUSH1 0x20 PUSH1 0x4 DUP3 ADD MSTORE PUSH1 0x26 PUSH1 0x24 DUP3 ADD MSTORE PUSH32 0x416464726573733A20696E73756666696369656E742062616C616E636520666F PUSH1 0x44 DUP3 ADD MSTORE PUSH6 0x1C8818D85B1B PUSH1 0xD2 SHL PUSH1 0x64 DUP3 ADD MSTORE PUSH1 0x84 ADD PUSH2 0x5F8 JUMP JUMPDEST PUSH1 0x1 PUSH1 0x1 PUSH1 0xA0 SHL SUB DUP6 AND EXTCODESIZE PUSH2 0x1E35 JUMPI PUSH1 0x40 MLOAD PUSH3 0x461BCD PUSH1 0xE5 SHL DUP2 MSTORE PUSH1 0x20 PUSH1 0x4 DUP3 ADD MSTORE PUSH1 0x1D PUSH1 0x24 DUP3 ADD MSTORE PUSH32 0x416464726573733A2063616C6C20746F206E6F6E2D636F6E7472616374000000 PUSH1 0x44 DUP3 ADD MSTORE PUSH1 0x64 ADD PUSH2 0x5F8 JUMP JUMPDEST PUSH1 0x0 DUP1 DUP7 PUSH1 0x1 PUSH1 0x1 PUSH1 0xA0 SHL SUB AND DUP6 DUP8 PUSH1 0x40 MLOAD PUSH2 0x1E51 SWAP2 SWAP1 PUSH2 0x20FA JUMP JUMPDEST PUSH1 0x0 PUSH1 0x40 MLOAD DUP1 DUP4 SUB DUP2 DUP6 DUP8 GAS CALL SWAP3 POP POP POP RETURNDATASIZE DUP1 PUSH1 0x0 DUP2 EQ PUSH2 0x1E8E JUMPI PUSH1 0x40 MLOAD SWAP2 POP PUSH1 0x1F NOT PUSH1 0x3F RETURNDATASIZE ADD AND DUP3 ADD PUSH1 0x40 MSTORE RETURNDATASIZE DUP3 MSTORE RETURNDATASIZE PUSH1 0x0 PUSH1 0x20 DUP5 ADD RETURNDATACOPY PUSH2 0x1E93 JUMP JUMPDEST PUSH1 0x60 SWAP2 POP JUMPDEST POP SWAP2 POP SWAP2 POP PUSH2 0x1EA3 DUP3 DUP3 DUP7 PUSH2 0x1EAE JUMP JUMPDEST SWAP8 SWAP7 POP POP POP POP POP POP POP JUMP JUMPDEST PUSH1 0x60 DUP4 ISZERO PUSH2 0x1EBD JUMPI POP DUP2 PUSH2 0x51E JUMP JUMPDEST DUP3 MLOAD ISZERO PUSH2 0x1ECD JUMPI DUP3 MLOAD DUP1 DUP5 PUSH1 0x20 ADD REVERT JUMPDEST DUP2 PUSH1 0x40 MLOAD PUSH3 0x461BCD PUSH1 0xE5 SHL DUP2 MSTORE PUSH1 0x4 ADD PUSH2 0x5F8 SWAP2 SWAP1 PUSH2 0x2116 JUMP JUMPDEST DUP1 CALLDATALOAD PUSH1 0x1 PUSH1 0x1 PUSH1 0xA0 SHL SUB DUP2 AND DUP2 EQ PUSH2 0x1EFE JUMPI PUSH1 0x0 DUP1 REVERT JUMPDEST SWAP2 SWAP1 POP JUMP JUMPDEST DUP1 CALLDATALOAD PUSH1 0xFF DUP2 AND DUP2 EQ PUSH2 0x1EFE JUMPI PUSH1 0x0 DUP1 REVERT JUMPDEST PUSH1 0x0 PUSH1 0x20 DUP3 DUP5 SUB SLT ISZERO PUSH2 0x1F25 JUMPI DUP1 DUP2 REVERT JUMPDEST PUSH2 0x51E DUP3 PUSH2 0x1EE7 JUMP JUMPDEST PUSH1 0x0 DUP1 PUSH1 0x40 DUP4 DUP6 SUB SLT ISZERO PUSH2 0x1F40 JUMPI DUP1 DUP2 REVERT JUMPDEST PUSH2 0x1F49 DUP4 PUSH2 0x1EE7 JUMP JUMPDEST SWAP2 POP PUSH2 0x1F57 PUSH1 0x20 DUP5 ADD PUSH2 0x1EE7 JUMP JUMPDEST SWAP1 POP SWAP3 POP SWAP3 SWAP1 POP JUMP JUMPDEST PUSH1 0x0 DUP1 PUSH1 0x0 PUSH1 0x60 DUP5 DUP7 SUB SLT ISZERO PUSH2 0x1F74 JUMPI DUP1 DUP2 REVERT JUMPDEST PUSH2 0x1F7D DUP5 PUSH2 0x1EE7 JUMP JUMPDEST SWAP3 POP PUSH2 0x1F8B PUSH1 0x20 DUP6 ADD PUSH2 0x1EE7 JUMP JUMPDEST SWAP2 POP PUSH1 0x40 DUP5 ADD CALLDATALOAD SWAP1 POP SWAP3 POP SWAP3 POP SWAP3 JUMP JUMPDEST PUSH1 0x0 DUP1 PUSH1 0x0 DUP1 PUSH1 0x0 DUP1 PUSH1 0x0 PUSH1 0xE0 DUP9 DUP11 SUB SLT ISZERO PUSH2 0x1FB5 JUMPI DUP3 DUP4 REVERT JUMPDEST PUSH2 0x1FBE DUP9 PUSH2 0x1EE7 JUMP JUMPDEST SWAP7 POP PUSH2 0x1FCC PUSH1 0x20 DUP10 ADD PUSH2 0x1EE7 JUMP JUMPDEST SWAP6 POP PUSH1 0x40 DUP9 ADD CALLDATALOAD SWAP5 POP PUSH1 0x60 DUP9 ADD CALLDATALOAD SWAP4 POP PUSH2 0x1FE8 PUSH1 0x80 DUP10 ADD PUSH2 0x1F03 JUMP JUMPDEST SWAP3 POP PUSH1 0xA0 DUP9 ADD CALLDATALOAD SWAP2 POP PUSH1 0xC0 DUP9 ADD CALLDATALOAD SWAP1 POP SWAP3 SWAP6 SWAP9 SWAP2 SWAP5 SWAP8 POP SWAP3 SWAP6 POP JUMP JUMPDEST PUSH1 0x0 DUP1 PUSH1 0x40 DUP4 DUP6 SUB SLT ISZERO PUSH2 0x2016 JUMPI DUP2 DUP3 REVERT JUMPDEST PUSH2 0x201F DUP4 PUSH2 0x1EE7 JUMP JUMPDEST SWAP5 PUSH1 0x20 SWAP4 SWAP1 SWAP4 ADD CALLDATALOAD SWAP4 POP POP POP JUMP JUMPDEST PUSH1 0x0 DUP1 PUSH1 0x0 DUP1 PUSH1 0x0 DUP1 PUSH1 0xC0 DUP8 DUP10 SUB SLT ISZERO PUSH2 0x2045 JUMPI DUP2 DUP3 REVERT JUMPDEST PUSH2 0x204E DUP8 PUSH2 0x1EE7 JUMP JUMPDEST SWAP6 POP PUSH1 0x20 DUP8 ADD CALLDATALOAD SWAP5 POP PUSH1 0x40 DUP8 ADD CALLDATALOAD SWAP4 POP PUSH2 0x206A PUSH1 0x60 DUP9 ADD PUSH2 0x1F03 JUMP JUMPDEST SWAP3 POP PUSH1 0x80 DUP8 ADD CALLDATALOAD SWAP2 POP PUSH1 0xA0 DUP8 ADD CALLDATALOAD SWAP1 POP SWAP3 SWAP6 POP SWAP3 SWAP6 POP SWAP3 SWAP6 JUMP JUMPDEST PUSH1 0x0 DUP1 PUSH1 0x40 DUP4 DUP6 SUB SLT ISZERO PUSH2 0x2096 JUMPI DUP2 DUP3 REVERT JUMPDEST PUSH2 0x209F DUP4 PUSH2 0x1EE7 JUMP JUMPDEST SWAP2 POP PUSH1 0x20 DUP4 ADD CALLDATALOAD PUSH4 0xFFFFFFFF DUP2 AND DUP2 EQ PUSH2 0x20B7 JUMPI DUP2 DUP3 REVERT JUMPDEST DUP1 SWAP2 POP POP SWAP3 POP SWAP3 SWAP1 POP JUMP JUMPDEST PUSH1 0x0 PUSH1 0x20 DUP3 DUP5 SUB SLT ISZERO PUSH2 0x20D3 JUMPI DUP1 DUP2 REVERT JUMPDEST DUP2 MLOAD DUP1 ISZERO ISZERO DUP2 EQ PUSH2 0x51E JUMPI DUP2 DUP3 REVERT JUMPDEST PUSH1 0x0 PUSH1 0x20 DUP3 DUP5 SUB SLT ISZERO PUSH2 0x20F3 JUMPI DUP1 DUP2 REVERT JUMPDEST POP CALLDATALOAD SWAP2 SWAP1 POP JUMP JUMPDEST PUSH1 0x0 DUP3 MLOAD PUSH2 0x210C DUP2 DUP5 PUSH1 0x20 DUP8 ADD PUSH2 0x2198 JUMP JUMPDEST SWAP2 SWAP1 SWAP2 ADD SWAP3 SWAP2 POP POP JUMP JUMPDEST PUSH1 0x20 DUP2 MSTORE PUSH1 0x0 DUP3 MLOAD DUP1 PUSH1 0x20 DUP5 ADD MSTORE PUSH2 0x2135 DUP2 PUSH1 0x40 DUP6 ADD PUSH1 0x20 DUP8 ADD PUSH2 0x2198 JUMP JUMPDEST PUSH1 0x1F ADD PUSH1 0x1F NOT AND SWAP2 SWAP1 SWAP2 ADD PUSH1 0x40 ADD SWAP3 SWAP2 POP POP JUMP JUMPDEST PUSH1 0x0 DUP3 NOT DUP3 GT ISZERO PUSH2 0x215C JUMPI PUSH2 0x215C PUSH2 0x21F9 JUMP JUMPDEST POP ADD SWAP1 JUMP JUMPDEST PUSH1 0x0 DUP3 PUSH2 0x217C JUMPI PUSH4 0x4E487B71 PUSH1 0xE0 SHL DUP2 MSTORE PUSH1 0x12 PUSH1 0x4 MSTORE PUSH1 0x24 DUP2 REVERT JUMPDEST POP DIV SWAP1 JUMP JUMPDEST PUSH1 0x0 DUP3 DUP3 LT ISZERO PUSH2 0x2193 JUMPI PUSH2 0x2193 PUSH2 0x21F9 JUMP JUMPDEST POP SUB SWAP1 JUMP JUMPDEST PUSH1 0x0 JUMPDEST DUP4 DUP2 LT ISZERO PUSH2 0x21B3 JUMPI DUP2 DUP2 ADD MLOAD DUP4 DUP3 ADD MSTORE PUSH1 0x20 ADD PUSH2 0x219B JUMP JUMPDEST DUP4 DUP2 GT ISZERO PUSH2 0xD73 JUMPI POP POP PUSH1 0x0 SWAP2 ADD MSTORE JUMP JUMPDEST PUSH1 0x1 DUP2 DUP2 SHR SWAP1 DUP3 AND DUP1 PUSH2 0x21D8 JUMPI PUSH1 0x7F DUP3 AND SWAP2 POP JUMPDEST PUSH1 0x20 DUP3 LT DUP2 EQ ISZERO PUSH2 0x1309 JUMPI PUSH4 0x4E487B71 PUSH1 0xE0 SHL PUSH1 0x0 MSTORE PUSH1 0x22 PUSH1 0x4 MSTORE PUSH1 0x24 PUSH1 0x0 REVERT JUMPDEST PUSH4 0x4E487B71 PUSH1 0xE0 SHL PUSH1 0x0 MSTORE PUSH1 0x11 PUSH1 0x4 MSTORE PUSH1 0x24 PUSH1 0x0 REVERT INVALID LOG2 PUSH5 0x6970667358 0x22 SLT KECCAK256 0x4D 0xD2 STATICCALL CREATE RETURNDATASIZE PUSH8 0xB882E28642789DF7 SWAP12 DUP3 CHAINID 0xDD 0xD1 0xE2 CALL 0x48 ADD 0xDD 0xDB PUSH10 0xB61104E1755264736F6C PUSH4 0x43000804 STOP CALLER LOG2 PUSH5 0x6970667358 0x22 SLT KECCAK256 SWAP11 EQ JUMPDEST AND PUSH30 0x17C2B5741C35E20210FD150EE4F6E014D8FDCDB89D21B6791CDDFA64736F PUSH13 0x63430008040033000000000000 ","sha1":"46fe3f0db0231ee8262be81145b4e4605733c667","source":"//SPDX-License-Identifier: BUSL-1.1\npragma solidity ^0.8.2;\n\nimport \"../../templates/HiveGovernanceToken.sol\";\n\ncontract HiveGovernanceTokenMachine {\n    // note: required to be external, otherwise cannot get selector\n    function createHiveGovernanceToken(\n        bytes32 _salt,\n        IERC20 _wrappedToken,\n        string memory _name,\n        string memory _symbol\n    ) external returns (HiveGovernanceToken) {\n        require(\n            msg.sender == address(this),\n            \"HiveGovernanceTokenMachine: caller not this contract\"\n        );\n\n        HiveGovernanceToken hiveGovernanceToken = new HiveGovernanceToken{\n            salt: _salt\n        }(_wrappedToken, _name, _symbol);\n\n        return hiveGovernanceToken;\n    }\n\n    // function generateHiveGovernanceTokenAddress(\n    //     bytes32 _salt,\n    //     IERC20 _wrappedToken,\n    //     string memory _name,\n    //     string memory _symbol\n    // ) public returns (address) {\n    //     bytes memory bytecode = LibHiveGovernanceTokenMachine\n    //         ._getHiveGovernanceTokenBytecode(_wrappedToken, _name, _symbol);\n    //     return LibHiveFactory._getAddress(bytecode, _salt);\n    // }\n}\n","sourcePath":"contracts/hub/facets/core/HiveGovernanceTokenMachine.sol","type":"contract","deployment":{"address":"0x669756743043666F9758E94C59B2EBB74C4a4970","chainid":"80001","blockHeight":26007089}}