{"abi":[{"anonymous":false,"inputs":[{"components":[{"internalType":"address","name":"facetAddress","type":"address"},{"internalType":"enum Cut.FacetCutAction","name":"action","type":"uint8"},{"internalType":"bytes4[]","name":"functionSelectors","type":"bytes4[]"}],"indexed":false,"internalType":"struct Cut.FacetCut[]","name":"_cut","type":"tuple[]"},{"indexed":false,"internalType":"address","name":"_init","type":"address"},{"indexed":false,"internalType":"bytes","name":"_calldata","type":"bytes"}],"name":"DiamondCut","type":"event"},{"inputs":[{"components":[{"internalType":"address","name":"facetAddress","type":"address"},{"internalType":"enum Cut.FacetCutAction","name":"action","type":"uint8"},{"internalType":"bytes4[]","name":"functionSelectors","type":"bytes4[]"}],"internalType":"struct Cut.FacetCut[]","name":"_cut","type":"tuple[]"},{"internalType":"address","name":"_init","type":"address"},{"internalType":"bytes","name":"_calldata","type":"bytes"}],"name":"cut","outputs":[],"stateMutability":"nonpayable","type":"function"}],"bytecode":"608060405234801561001057600080fd5b50611577806100206000396000f3fe608060405234801561001057600080fd5b506004361061002b5760003560e01c806355e4583e14610030575b600080fd5b61004361003e36600461109f565b610045565b005b61009660405160200161007b906020808252600f908201526e4d41494e5441494e45525f524f4c4560881b604082015260600190565b604051602081830303815290604052805190602001206102ee565b7fb820ffc7ec9f63e8a9266c0b47ef30deb8b659ea55eeb78fa5ac2a6762a6bce6547fb820ffc7ec9f63e8a9266c0b47ef30deb8b659ea55eeb78fa5ac2a6762a6bce49061ffff8116908190600090600716156101055750600381901c60009081526001840160205260409020545b60005b888110156102265761020f83838c8c8581811061013557634e487b7160e01b600052603260045260246000fd5b9050602002810190610147919061140a565b610155906020810190611085565b8d8d8681811061017557634e487b7160e01b600052603260045260246000fd5b9050602002810190610187919061140a565b61019890604081019060200161114b565b8e8e878181106101b857634e487b7160e01b600052603260045260246000fd5b90506020028101906101ca919061140a565b6101d89060408101906113c2565b808060200260200160405190810160405280939291908181526020018383602002808284376000920191909152506102fa92505050565b90935091508061021e81611499565b915050610108565b508282146102425760028401805461ffff191661ffff84161790555b600782161561026457600382901c600090815260018501602052604090208190555b7f8faa70878671ccd212d20771b795c50af8fd3ff6cf27f4bde57e5d4de0aeb673898989898960405161029b95949392919061126c565b60405180910390a16102e38787878080601f016020809104026020016040519081016040528093929190818152602001838380828437600092019190915250610b4c92505050565b505050505050505050565b6102f781610d60565b50565b600080807fb820ffc7ec9f63e8a9266c0b47ef30deb8b659ea55eeb78fa5ac2a6762a6bce49050600084511161038c5760405162461bcd60e51b815260206004820152602c60248201527f4c6962437574416e644c6f7570653a204e6f2073656c6563746f727320696e2060448201526b199858d95d081d1bc818dd5d60a21b60648201526084015b60405180910390fd5b60008560028111156103ae57634e487b7160e01b600052602160045260246000fd5b141561052b576103d68660405180606001604052806025815260200161151d60259139610d6a565b60005b845181101561052557600085828151811061040457634e487b7160e01b600052603260045260246000fd5b6020908102919091018101516001600160e01b03198116600090815291859052604090912054909150606081901c1561049e5760405162461bcd60e51b815260206004820152603660248201527f4c6962437574416e644c6f7570653a2043616e2774206164642066756e6374696044820152756f6e207468617420616c72656164792065786973747360501b6064820152608401610383565b6001600160e01b031980831660008181526020879052604090206001600160601b031960608d901b168e17905560e060058e901b811692831c199c909c1690821c179a8114156105025760038c901c600090815260018601602052604081209b909b555b8b61050c81611499565b9c5050505050808061051d90611499565b9150506103d9565b50610b40565b600185600281111561054d57634e487b7160e01b600052602160045260246000fd5b141561078e57610575866040518060600160405280602981526020016114cb60299139610d6a565b60005b84518110156105255760008582815181106105a357634e487b7160e01b600052603260045260246000fd5b6020908102919091018101516001600160e01b03198116600090815291859052604090912054909150606081901c3081141561063a5760405162461bcd60e51b815260206004820152603060248201527f4c6962437574416e644c6f7570653a2043616e2774207265706c61636520696d60448201526f36baba30b1363290333ab731ba34b7b760811b6064820152608401610383565b896001600160a01b0316816001600160a01b031614156106c25760405162461bcd60e51b815260206004820152603960248201527f4c6962437574416e644c6f7570653a2043616e2774207265706c61636520667560448201527f6e6374696f6e20776974682073616d652066756e6374696f6e000000000000006064820152608401610383565b6001600160a01b03811661073e5760405162461bcd60e51b815260206004820152603960248201527f4c6962437574416e644c6f7570653a2043616e2774207265706c61636520667560448201527f6e6374696f6e207468617420646f65736e2774206578697374000000000000006064820152608401610383565b506001600160e01b031990911660009081526020849052604090206bffffffffffffffffffffffff919091166001600160601b031960608a901b161790558061078681611499565b915050610578565b60028560028111156107b057634e487b7160e01b600052602160045260246000fd5b1415610ae7576001600160a01b038616156108335760405162461bcd60e51b815260206004820152603760248201527f4c6962437574416e644c6f7570653a2052656d6f76652066616365742061646460448201527f72657373206d75737420626520616464726573732830290000000000000000006064820152608401610383565b600388901c6007891660005b8651811015610ac75789610877578261085781611482565b60008181526001870160205260409020549b509350600792506108859050565b8161088181611482565b9250505b6000806000808a85815181106108ab57634e487b7160e01b600052603260045260246000fd5b6020908102919091018101516001600160e01b031981166000908152918a9052604090912054909150606081901c61094b5760405162461bcd60e51b815260206004820152603860248201527f4c6962437574416e644c6f7570653a2043616e27742072656d6f76652066756e60448201527f6374696f6e207468617420646f65736e277420657869737400000000000000006064820152608401610383565b606081901c3014156109b75760405162461bcd60e51b815260206004820152602f60248201527f4c6962437574416e644c6f7570653a2043616e27742072656d6f766520696d6d60448201526e3aba30b1363290333ab731ba34b7b760891b6064820152608401610383565b600587901b8f901b94506001600160e01b031980861690831614610a0d576001600160e01b03198516600090815260208a90526040902080546001600160601b0319166bffffffffffffffffffffffff83161790555b6001600160e01b031991909116600090815260208990526040812055600381901c611fff16925060051b60e0169050858214610a72576000828152600188016020526040902080546001600160e01b031980841c19909116908516831c179055610a96565b80836001600160e01b031916901c816001600160e01b031960001b901c198e16179c505b84610ab157600086815260018801602052604081208190559c505b5050508080610abf90611499565b91505061083f565b5080610ad4836008611437565b610ade919061141f565b99505050610b40565b60405162461bcd60e51b815260206004820152602860248201527f4c6962437574416e644c6f7570653a20496e636f7272656374204661636574436044820152673aba20b1ba34b7b760c11b6064820152608401610383565b50959694955050505050565b6001600160a01b038216610bd357805115610bcf5760405162461bcd60e51b815260206004820152603d60248201527f4c6962437574416e644c6f7570653a205f696e6974206973206164647265737360448201527f283029206275745f63616c6c64617461206973206e6f7420656d7074790000006064820152608401610383565b5050565b6000815111610c4a5760405162461bcd60e51b815260206004820152603e60248201527f4c6962437574416e644c6f7570653a205f63616c6c6461746120697320656d7060448201527f747920627574205f696e6974206973206e6f74206164647265737328302900006064820152608401610383565b6001600160a01b0382163014610c7c57610c7c826040518060600160405280602981526020016114f460299139610d6a565b600080836001600160a01b031683604051610c9791906111db565b600060405180830381855af49150503d8060008114610cd2576040519150601f19603f3d011682016040523d82523d6000602084013e610cd7565b606091505b509150915081610d5a57805115610d02578060405162461bcd60e51b8152600401610383919061138f565b60405162461bcd60e51b815260206004820152602760248201527f4c6962437574416e644c6f7570653a205f696e69742066756e6374696f6e2072604482015266195d995c9d195960ca1b6064820152608401610383565b50505050565b6102f78133610d8b565b813b8181610d5a5760405162461bcd60e51b8152600401610383919061138f565b60008281527f4cd15452b25e815d3f9d1a3c7edd985a178edf5eb3461a1acbf855517423d694602090815260408083206001600160a01b038516845290915290205460ff16610bcf57610de8816001600160a01b03166014610e2a565b610df3836020610e2a565b604051602001610e049291906111f7565b60408051601f198184030181529082905262461bcd60e51b82526103839160040161138f565b60606000610e39836002611437565b610e4490600261141f565b67ffffffffffffffff811115610e6a57634e487b7160e01b600052604160045260246000fd5b6040519080825280601f01601f191660200182016040528015610e94576020820181803683370190505b509050600360fc1b81600081518110610ebd57634e487b7160e01b600052603260045260246000fd5b60200101906001600160f81b031916908160001a905350600f60fb1b81600181518110610efa57634e487b7160e01b600052603260045260246000fd5b60200101906001600160f81b031916908160001a9053506000610f1e846002611437565b610f2990600161141f565b90505b6001811115610fbd576f181899199a1a9b1b9c1cb0b131b232b360811b85600f1660108110610f6b57634e487b7160e01b600052603260045260246000fd5b1a60f81b828281518110610f8f57634e487b7160e01b600052603260045260246000fd5b60200101906001600160f81b031916908160001a90535060049490941c93610fb681611482565b9050610f2c565b50831561100c5760405162461bcd60e51b815260206004820181905260248201527f537472696e67733a20686578206c656e67746820696e73756666696369656e746044820152606401610383565b9392505050565b80356001600160a01b038116811461102a57600080fd5b919050565b60008083601f840112611040578182fd5b50813567ffffffffffffffff811115611057578182fd5b60208301915083602082850101111561106f57600080fd5b9250929050565b80356003811061102a57600080fd5b600060208284031215611096578081fd5b61100c82611013565b6000806000806000606086880312156110b6578081fd5b853567ffffffffffffffff808211156110cd578283fd5b818801915088601f8301126110e0578283fd5b8135818111156110ee578384fd5b8960208260051b8501011115611102578384fd5b6020830197508096505061111860208901611013565b9450604088013591508082111561112d578283fd5b5061113a8882890161102f565b969995985093965092949392505050565b60006020828403121561115c578081fd5b61100c82611076565b81835260006020808501945082825b858110156111a75781356001600160e01b03198116808214611194578586fd5b8852509582019590820190600101611174565b509495945050505050565b81835281816020850137506000828201602090810191909152601f909101601f19169091010190565b600082516111ed818460208701611456565b9190910192915050565b7f416363657373436f6e74726f6c3a206163636f756e742000000000000000000081526000835161122f816017850160208801611456565b7001034b99036b4b9b9b4b733903937b6329607d1b6017918401918201528351611260816028840160208801611456565b01602801949350505050565b6060808252818101869052600090600560808085019089831b8601018a855b8b81101561135c57878303607f190184528135368e9003605e190181126112b0578788fd5b8d016001600160a01b036112c382611013565b16845260206112d3818301611076565b600381106112ef57634e487b7160e01b8a52602160045260248afd5b8582015260408281013536849003601e1901811261130b578a8bfd5b8301803567ffffffffffffffff811115611323578b8cfd5b808a1b3603851315611333578b8cfd5b8a838901526113478b890182868501611165565b9884019897505050930192505060010161128b565b50506001600160a01b0389166020870152858103604087015261138081888a6111b2565b9b9a5050505050505050505050565b60208152600082518060208401526113ae816040850160208701611456565b601f01601f19169190910160400192915050565b6000808335601e198436030181126113d8578283fd5b83018035915067ffffffffffffffff8211156113f2578283fd5b6020019150600581901b360382131561106f57600080fd5b60008235605e198336030181126111ed578182fd5b60008219821115611432576114326114b4565b500190565b6000816000190483118215151615611451576114516114b4565b500290565b60005b83811015611471578181015183820152602001611459565b83811115610d5a5750506000910152565b600081611491576114916114b4565b506000190190565b60006000198214156114ad576114ad6114b4565b5060010190565b634e487b7160e01b600052601160045260246000fdfe4c6962437574416e644c6f7570653a205265706c61636520666163657420686173206e6f20636f64654c6962437574416e644c6f7570653a205f696e6974206164647265737320686173206e6f20636f64654c6962437574416e644c6f7570653a2041646420666163657420686173206e6f20636f6465a2646970667358221220a670ae8d9fe86717261bbdf818d93872a37b5a53eada966045fa3a7c857a461464736f6c63430008040033","bytecodeSha1":"137a85fccb4b89d890563b2e25c33a43f5284a6b","compiler":{"evm_version":"istanbul","optimizer":{"enabled":true,"runs":200},"version":"0.8.4+commit.c7e474f2"},"contractName":"Cut","language":"Solidity","natspec":{"kind":"dev","methods":{"cut((address,uint8,bytes4[])[],address,bytes)":{"notice":"Add/replace/remove any number of functions and optionally execute         a function with delegatecall","params":{"_calldata":"A function call, including function selector and arguments                  _calldata is executed with delegatecall on _init","_cut":"Contains the facet addresses and function selectors","_init":"The address of the contract or facet to execute _calldata"}}},"version":1},"opcodes":"PUSH1 0x80 PUSH1 0x40 MSTORE CALLVALUE DUP1 ISZERO PUSH2 0x10 JUMPI PUSH1 0x0 DUP1 REVERT JUMPDEST POP PUSH1 0x4 CALLDATASIZE LT PUSH2 0x2B JUMPI PUSH1 0x0 CALLDATALOAD PUSH1 0xE0 SHR DUP1 PUSH4 0x55E4583E EQ PUSH2 0x30 JUMPI JUMPDEST PUSH1 0x0 DUP1 REVERT JUMPDEST PUSH2 0x43 PUSH2 0x3E CALLDATASIZE PUSH1 0x4 PUSH2 0x109F JUMP JUMPDEST PUSH2 0x45 JUMP JUMPDEST STOP JUMPDEST PUSH2 0x96 PUSH1 0x40 MLOAD PUSH1 0x20 ADD PUSH2 0x7B SWAP1 PUSH1 0x20 DUP1 DUP3 MSTORE PUSH1 0xF SWAP1 DUP3 ADD MSTORE PUSH15 0x4D41494E5441494E45525F524F4C45 PUSH1 0x88 SHL PUSH1 0x40 DUP3 ADD MSTORE PUSH1 0x60 ADD SWAP1 JUMP JUMPDEST PUSH1 0x40 MLOAD PUSH1 0x20 DUP2 DUP4 SUB SUB DUP2 MSTORE SWAP1 PUSH1 0x40 MSTORE DUP1 MLOAD SWAP1 PUSH1 0x20 ADD KECCAK256 PUSH2 0x2EE JUMP JUMPDEST PUSH32 0xB820FFC7EC9F63E8A9266C0B47EF30DEB8B659EA55EEB78FA5AC2A6762A6BCE6 SLOAD PUSH32 0xB820FFC7EC9F63E8A9266C0B47EF30DEB8B659EA55EEB78FA5AC2A6762A6BCE4 SWAP1 PUSH2 0xFFFF DUP2 AND SWAP1 DUP2 SWAP1 PUSH1 0x0 SWAP1 PUSH1 0x7 AND ISZERO PUSH2 0x105 JUMPI POP PUSH1 0x3 DUP2 SWAP1 SHR PUSH1 0x0 SWAP1 DUP2 MSTORE PUSH1 0x1 DUP5 ADD PUSH1 0x20 MSTORE PUSH1 0x40 SWAP1 KECCAK256 SLOAD JUMPDEST PUSH1 0x0 JUMPDEST DUP9 DUP2 LT ISZERO PUSH2 0x226 JUMPI PUSH2 0x20F DUP4 DUP4 DUP13 DUP13 DUP6 DUP2 DUP2 LT PUSH2 0x135 JUMPI PUSH4 0x4E487B71 PUSH1 0xE0 SHL PUSH1 0x0 MSTORE PUSH1 0x32 PUSH1 0x4 MSTORE PUSH1 0x24 PUSH1 0x0 REVERT JUMPDEST SWAP1 POP PUSH1 0x20 MUL DUP2 ADD SWAP1 PUSH2 0x147 SWAP2 SWAP1 PUSH2 0x140A JUMP JUMPDEST PUSH2 0x155 SWAP1 PUSH1 0x20 DUP2 ADD SWAP1 PUSH2 0x1085 JUMP JUMPDEST DUP14 DUP14 DUP7 DUP2 DUP2 LT PUSH2 0x175 JUMPI PUSH4 0x4E487B71 PUSH1 0xE0 SHL PUSH1 0x0 MSTORE PUSH1 0x32 PUSH1 0x4 MSTORE PUSH1 0x24 PUSH1 0x0 REVERT JUMPDEST SWAP1 POP PUSH1 0x20 MUL DUP2 ADD SWAP1 PUSH2 0x187 SWAP2 SWAP1 PUSH2 0x140A JUMP JUMPDEST PUSH2 0x198 SWAP1 PUSH1 0x40 DUP2 ADD SWAP1 PUSH1 0x20 ADD PUSH2 0x114B JUMP JUMPDEST DUP15 DUP15 DUP8 DUP2 DUP2 LT PUSH2 0x1B8 JUMPI PUSH4 0x4E487B71 PUSH1 0xE0 SHL PUSH1 0x0 MSTORE PUSH1 0x32 PUSH1 0x4 MSTORE PUSH1 0x24 PUSH1 0x0 REVERT JUMPDEST SWAP1 POP PUSH1 0x20 MUL DUP2 ADD SWAP1 PUSH2 0x1CA SWAP2 SWAP1 PUSH2 0x140A JUMP JUMPDEST PUSH2 0x1D8 SWAP1 PUSH1 0x40 DUP2 ADD SWAP1 PUSH2 0x13C2 JUMP JUMPDEST DUP1 DUP1 PUSH1 0x20 MUL PUSH1 0x20 ADD PUSH1 0x40 MLOAD SWAP1 DUP2 ADD PUSH1 0x40 MSTORE DUP1 SWAP4 SWAP3 SWAP2 SWAP1 DUP2 DUP2 MSTORE PUSH1 0x20 ADD DUP4 DUP4 PUSH1 0x20 MUL DUP1 DUP3 DUP5 CALLDATACOPY PUSH1 0x0 SWAP3 ADD SWAP2 SWAP1 SWAP2 MSTORE POP PUSH2 0x2FA SWAP3 POP POP POP JUMP JUMPDEST SWAP1 SWAP4 POP SWAP2 POP DUP1 PUSH2 0x21E DUP2 PUSH2 0x1499 JUMP JUMPDEST SWAP2 POP POP PUSH2 0x108 JUMP JUMPDEST POP DUP3 DUP3 EQ PUSH2 0x242 JUMPI PUSH1 0x2 DUP5 ADD DUP1 SLOAD PUSH2 0xFFFF NOT AND PUSH2 0xFFFF DUP5 AND OR SWAP1 SSTORE JUMPDEST PUSH1 0x7 DUP3 AND ISZERO PUSH2 0x264 JUMPI PUSH1 0x3 DUP3 SWAP1 SHR PUSH1 0x0 SWAP1 DUP2 MSTORE PUSH1 0x1 DUP6 ADD PUSH1 0x20 MSTORE PUSH1 0x40 SWAP1 KECCAK256 DUP2 SWAP1 SSTORE JUMPDEST PUSH32 0x8FAA70878671CCD212D20771B795C50AF8FD3FF6CF27F4BDE57E5D4DE0AEB673 DUP10 DUP10 DUP10 DUP10 DUP10 PUSH1 0x40 MLOAD PUSH2 0x29B SWAP6 SWAP5 SWAP4 SWAP3 SWAP2 SWAP1 PUSH2 0x126C JUMP JUMPDEST PUSH1 0x40 MLOAD DUP1 SWAP2 SUB SWAP1 LOG1 PUSH2 0x2E3 DUP8 DUP8 DUP8 DUP1 DUP1 PUSH1 0x1F ADD PUSH1 0x20 DUP1 SWAP2 DIV MUL PUSH1 0x20 ADD PUSH1 0x40 MLOAD SWAP1 DUP2 ADD PUSH1 0x40 MSTORE DUP1 SWAP4 SWAP3 SWAP2 SWAP1 DUP2 DUP2 MSTORE PUSH1 0x20 ADD DUP4 DUP4 DUP1 DUP3 DUP5 CALLDATACOPY PUSH1 0x0 SWAP3 ADD SWAP2 SWAP1 SWAP2 MSTORE POP PUSH2 0xB4C SWAP3 POP POP POP JUMP JUMPDEST POP POP POP POP POP POP POP POP POP JUMP JUMPDEST PUSH2 0x2F7 DUP2 PUSH2 0xD60 JUMP JUMPDEST POP JUMP JUMPDEST PUSH1 0x0 DUP1 DUP1 PUSH32 0xB820FFC7EC9F63E8A9266C0B47EF30DEB8B659EA55EEB78FA5AC2A6762A6BCE4 SWAP1 POP PUSH1 0x0 DUP5 MLOAD GT PUSH2 0x38C JUMPI PUSH1 0x40 MLOAD PUSH3 0x461BCD PUSH1 0xE5 SHL DUP2 MSTORE PUSH1 0x20 PUSH1 0x4 DUP3 ADD MSTORE PUSH1 0x2C PUSH1 0x24 DUP3 ADD MSTORE PUSH32 0x4C6962437574416E644C6F7570653A204E6F2073656C6563746F727320696E20 PUSH1 0x44 DUP3 ADD MSTORE PUSH12 0x199858D95D081D1BC818DD5D PUSH1 0xA2 SHL PUSH1 0x64 DUP3 ADD MSTORE PUSH1 0x84 ADD JUMPDEST PUSH1 0x40 MLOAD DUP1 SWAP2 SUB SWAP1 REVERT JUMPDEST PUSH1 0x0 DUP6 PUSH1 0x2 DUP2 GT ISZERO PUSH2 0x3AE JUMPI PUSH4 0x4E487B71 PUSH1 0xE0 SHL PUSH1 0x0 MSTORE PUSH1 0x21 PUSH1 0x4 MSTORE PUSH1 0x24 PUSH1 0x0 REVERT JUMPDEST EQ ISZERO PUSH2 0x52B JUMPI PUSH2 0x3D6 DUP7 PUSH1 0x40 MLOAD DUP1 PUSH1 0x60 ADD PUSH1 0x40 MSTORE DUP1 PUSH1 0x25 DUP2 MSTORE PUSH1 0x20 ADD PUSH2 0x151D PUSH1 0x25 SWAP2 CODECOPY PUSH2 0xD6A JUMP JUMPDEST PUSH1 0x0 JUMPDEST DUP5 MLOAD DUP2 LT ISZERO PUSH2 0x525 JUMPI PUSH1 0x0 DUP6 DUP3 DUP2 MLOAD DUP2 LT PUSH2 0x404 JUMPI PUSH4 0x4E487B71 PUSH1 0xE0 SHL PUSH1 0x0 MSTORE PUSH1 0x32 PUSH1 0x4 MSTORE PUSH1 0x24 PUSH1 0x0 REVERT JUMPDEST PUSH1 0x20 SWAP1 DUP2 MUL SWAP2 SWAP1 SWAP2 ADD DUP2 ADD MLOAD PUSH1 0x1 PUSH1 0x1 PUSH1 0xE0 SHL SUB NOT DUP2 AND PUSH1 0x0 SWAP1 DUP2 MSTORE SWAP2 DUP6 SWAP1 MSTORE PUSH1 0x40 SWAP1 SWAP2 KECCAK256 SLOAD SWAP1 SWAP2 POP PUSH1 0x60 DUP2 SWAP1 SHR ISZERO PUSH2 0x49E JUMPI PUSH1 0x40 MLOAD PUSH3 0x461BCD PUSH1 0xE5 SHL DUP2 MSTORE PUSH1 0x20 PUSH1 0x4 DUP3 ADD MSTORE PUSH1 0x36 PUSH1 0x24 DUP3 ADD MSTORE PUSH32 0x4C6962437574416E644C6F7570653A2043616E2774206164642066756E637469 PUSH1 0x44 DUP3 ADD MSTORE PUSH22 0x6F6E207468617420616C726561647920657869737473 PUSH1 0x50 SHL PUSH1 0x64 DUP3 ADD MSTORE PUSH1 0x84 ADD PUSH2 0x383 JUMP JUMPDEST PUSH1 0x1 PUSH1 0x1 PUSH1 0xE0 SHL SUB NOT DUP1 DUP4 AND PUSH1 0x0 DUP2 DUP2 MSTORE PUSH1 0x20 DUP8 SWAP1 MSTORE PUSH1 0x40 SWAP1 KECCAK256 PUSH1 0x1 PUSH1 0x1 PUSH1 0x60 SHL SUB NOT PUSH1 0x60 DUP14 SWAP1 SHL AND DUP15 OR SWAP1 SSTORE PUSH1 0xE0 PUSH1 0x5 DUP15 SWAP1 SHL DUP2 AND SWAP3 DUP4 SHR NOT SWAP13 SWAP1 SWAP13 AND SWAP1 DUP3 SHR OR SWAP11 DUP2 EQ ISZERO PUSH2 0x502 JUMPI PUSH1 0x3 DUP13 SWAP1 SHR PUSH1 0x0 SWAP1 DUP2 MSTORE PUSH1 0x1 DUP7 ADD PUSH1 0x20 MSTORE PUSH1 0x40 DUP2 KECCAK256 SWAP12 SWAP1 SWAP12 SSTORE JUMPDEST DUP12 PUSH2 0x50C DUP2 PUSH2 0x1499 JUMP JUMPDEST SWAP13 POP POP POP POP POP DUP1 DUP1 PUSH2 0x51D SWAP1 PUSH2 0x1499 JUMP JUMPDEST SWAP2 POP POP PUSH2 0x3D9 JUMP JUMPDEST POP PUSH2 0xB40 JUMP JUMPDEST PUSH1 0x1 DUP6 PUSH1 0x2 DUP2 GT ISZERO PUSH2 0x54D JUMPI PUSH4 0x4E487B71 PUSH1 0xE0 SHL PUSH1 0x0 MSTORE PUSH1 0x21 PUSH1 0x4 MSTORE PUSH1 0x24 PUSH1 0x0 REVERT JUMPDEST EQ ISZERO PUSH2 0x78E JUMPI PUSH2 0x575 DUP7 PUSH1 0x40 MLOAD DUP1 PUSH1 0x60 ADD PUSH1 0x40 MSTORE DUP1 PUSH1 0x29 DUP2 MSTORE PUSH1 0x20 ADD PUSH2 0x14CB PUSH1 0x29 SWAP2 CODECOPY PUSH2 0xD6A JUMP JUMPDEST PUSH1 0x0 JUMPDEST DUP5 MLOAD DUP2 LT ISZERO PUSH2 0x525 JUMPI PUSH1 0x0 DUP6 DUP3 DUP2 MLOAD DUP2 LT PUSH2 0x5A3 JUMPI PUSH4 0x4E487B71 PUSH1 0xE0 SHL PUSH1 0x0 MSTORE PUSH1 0x32 PUSH1 0x4 MSTORE PUSH1 0x24 PUSH1 0x0 REVERT JUMPDEST PUSH1 0x20 SWAP1 DUP2 MUL SWAP2 SWAP1 SWAP2 ADD DUP2 ADD MLOAD PUSH1 0x1 PUSH1 0x1 PUSH1 0xE0 SHL SUB NOT DUP2 AND PUSH1 0x0 SWAP1 DUP2 MSTORE SWAP2 DUP6 SWAP1 MSTORE PUSH1 0x40 SWAP1 SWAP2 KECCAK256 SLOAD SWAP1 SWAP2 POP PUSH1 0x60 DUP2 SWAP1 SHR ADDRESS DUP2 EQ ISZERO PUSH2 0x63A JUMPI PUSH1 0x40 MLOAD PUSH3 0x461BCD PUSH1 0xE5 SHL DUP2 MSTORE PUSH1 0x20 PUSH1 0x4 DUP3 ADD MSTORE PUSH1 0x30 PUSH1 0x24 DUP3 ADD MSTORE PUSH32 0x4C6962437574416E644C6F7570653A2043616E2774207265706C61636520696D PUSH1 0x44 DUP3 ADD MSTORE PUSH16 0x36BABA30B1363290333AB731BA34B7B7 PUSH1 0x81 SHL PUSH1 0x64 DUP3 ADD MSTORE PUSH1 0x84 ADD PUSH2 0x383 JUMP JUMPDEST DUP10 PUSH1 0x1 PUSH1 0x1 PUSH1 0xA0 SHL SUB AND DUP2 PUSH1 0x1 PUSH1 0x1 PUSH1 0xA0 SHL SUB AND EQ ISZERO PUSH2 0x6C2 JUMPI PUSH1 0x40 MLOAD PUSH3 0x461BCD PUSH1 0xE5 SHL DUP2 MSTORE PUSH1 0x20 PUSH1 0x4 DUP3 ADD MSTORE PUSH1 0x39 PUSH1 0x24 DUP3 ADD MSTORE PUSH32 0x4C6962437574416E644C6F7570653A2043616E2774207265706C616365206675 PUSH1 0x44 DUP3 ADD MSTORE PUSH32 0x6E6374696F6E20776974682073616D652066756E6374696F6E00000000000000 PUSH1 0x64 DUP3 ADD MSTORE PUSH1 0x84 ADD PUSH2 0x383 JUMP JUMPDEST PUSH1 0x1 PUSH1 0x1 PUSH1 0xA0 SHL SUB DUP2 AND PUSH2 0x73E JUMPI PUSH1 0x40 MLOAD PUSH3 0x461BCD PUSH1 0xE5 SHL DUP2 MSTORE PUSH1 0x20 PUSH1 0x4 DUP3 ADD MSTORE PUSH1 0x39 PUSH1 0x24 DUP3 ADD MSTORE PUSH32 0x4C6962437574416E644C6F7570653A2043616E2774207265706C616365206675 PUSH1 0x44 DUP3 ADD MSTORE PUSH32 0x6E6374696F6E207468617420646F65736E277420657869737400000000000000 PUSH1 0x64 DUP3 ADD MSTORE PUSH1 0x84 ADD PUSH2 0x383 JUMP JUMPDEST POP PUSH1 0x1 PUSH1 0x1 PUSH1 0xE0 SHL SUB NOT SWAP1 SWAP2 AND PUSH1 0x0 SWAP1 DUP2 MSTORE PUSH1 0x20 DUP5 SWAP1 MSTORE PUSH1 0x40 SWAP1 KECCAK256 PUSH12 0xFFFFFFFFFFFFFFFFFFFFFFFF SWAP2 SWAP1 SWAP2 AND PUSH1 0x1 PUSH1 0x1 PUSH1 0x60 SHL SUB NOT PUSH1 0x60 DUP11 SWAP1 SHL AND OR SWAP1 SSTORE DUP1 PUSH2 0x786 DUP2 PUSH2 0x1499 JUMP JUMPDEST SWAP2 POP POP PUSH2 0x578 JUMP JUMPDEST PUSH1 0x2 DUP6 PUSH1 0x2 DUP2 GT ISZERO PUSH2 0x7B0 JUMPI PUSH4 0x4E487B71 PUSH1 0xE0 SHL PUSH1 0x0 MSTORE PUSH1 0x21 PUSH1 0x4 MSTORE PUSH1 0x24 PUSH1 0x0 REVERT JUMPDEST EQ ISZERO PUSH2 0xAE7 JUMPI PUSH1 0x1 PUSH1 0x1 PUSH1 0xA0 SHL SUB DUP7 AND ISZERO PUSH2 0x833 JUMPI PUSH1 0x40 MLOAD PUSH3 0x461BCD PUSH1 0xE5 SHL DUP2 MSTORE PUSH1 0x20 PUSH1 0x4 DUP3 ADD MSTORE PUSH1 0x37 PUSH1 0x24 DUP3 ADD MSTORE PUSH32 0x4C6962437574416E644C6F7570653A2052656D6F766520666163657420616464 PUSH1 0x44 DUP3 ADD MSTORE PUSH32 0x72657373206D7573742062652061646472657373283029000000000000000000 PUSH1 0x64 DUP3 ADD MSTORE PUSH1 0x84 ADD PUSH2 0x383 JUMP JUMPDEST PUSH1 0x3 DUP9 SWAP1 SHR PUSH1 0x7 DUP10 AND PUSH1 0x0 JUMPDEST DUP7 MLOAD DUP2 LT ISZERO PUSH2 0xAC7 JUMPI DUP10 PUSH2 0x877 JUMPI DUP3 PUSH2 0x857 DUP2 PUSH2 0x1482 JUMP JUMPDEST PUSH1 0x0 DUP2 DUP2 MSTORE PUSH1 0x1 DUP8 ADD PUSH1 0x20 MSTORE PUSH1 0x40 SWAP1 KECCAK256 SLOAD SWAP12 POP SWAP4 POP PUSH1 0x7 SWAP3 POP PUSH2 0x885 SWAP1 POP JUMP JUMPDEST DUP2 PUSH2 0x881 DUP2 PUSH2 0x1482 JUMP JUMPDEST SWAP3 POP POP JUMPDEST PUSH1 0x0 DUP1 PUSH1 0x0 DUP1 DUP11 DUP6 DUP2 MLOAD DUP2 LT PUSH2 0x8AB JUMPI PUSH4 0x4E487B71 PUSH1 0xE0 SHL PUSH1 0x0 MSTORE PUSH1 0x32 PUSH1 0x4 MSTORE PUSH1 0x24 PUSH1 0x0 REVERT JUMPDEST PUSH1 0x20 SWAP1 DUP2 MUL SWAP2 SWAP1 SWAP2 ADD DUP2 ADD MLOAD PUSH1 0x1 PUSH1 0x1 PUSH1 0xE0 SHL SUB NOT DUP2 AND PUSH1 0x0 SWAP1 DUP2 MSTORE SWAP2 DUP11 SWAP1 MSTORE PUSH1 0x40 SWAP1 SWAP2 KECCAK256 SLOAD SWAP1 SWAP2 POP PUSH1 0x60 DUP2 SWAP1 SHR PUSH2 0x94B JUMPI PUSH1 0x40 MLOAD PUSH3 0x461BCD PUSH1 0xE5 SHL DUP2 MSTORE PUSH1 0x20 PUSH1 0x4 DUP3 ADD MSTORE PUSH1 0x38 PUSH1 0x24 DUP3 ADD MSTORE PUSH32 0x4C6962437574416E644C6F7570653A2043616E27742072656D6F76652066756E PUSH1 0x44 DUP3 ADD MSTORE PUSH32 0x6374696F6E207468617420646F65736E27742065786973740000000000000000 PUSH1 0x64 DUP3 ADD MSTORE PUSH1 0x84 ADD PUSH2 0x383 JUMP JUMPDEST PUSH1 0x60 DUP2 SWAP1 SHR ADDRESS EQ ISZERO PUSH2 0x9B7 JUMPI PUSH1 0x40 MLOAD PUSH3 0x461BCD PUSH1 0xE5 SHL DUP2 MSTORE PUSH1 0x20 PUSH1 0x4 DUP3 ADD MSTORE PUSH1 0x2F PUSH1 0x24 DUP3 ADD MSTORE PUSH32 0x4C6962437574416E644C6F7570653A2043616E27742072656D6F766520696D6D PUSH1 0x44 DUP3 ADD MSTORE PUSH15 0x3ABA30B1363290333AB731BA34B7B7 PUSH1 0x89 SHL PUSH1 0x64 DUP3 ADD MSTORE PUSH1 0x84 ADD PUSH2 0x383 JUMP JUMPDEST PUSH1 0x5 DUP8 SWAP1 SHL DUP16 SWAP1 SHL SWAP5 POP PUSH1 0x1 PUSH1 0x1 PUSH1 0xE0 SHL SUB NOT DUP1 DUP7 AND SWAP1 DUP4 AND EQ PUSH2 0xA0D JUMPI PUSH1 0x1 PUSH1 0x1 PUSH1 0xE0 SHL SUB NOT DUP6 AND PUSH1 0x0 SWAP1 DUP2 MSTORE PUSH1 0x20 DUP11 SWAP1 MSTORE PUSH1 0x40 SWAP1 KECCAK256 DUP1 SLOAD PUSH1 0x1 PUSH1 0x1 PUSH1 0x60 SHL SUB NOT AND PUSH12 0xFFFFFFFFFFFFFFFFFFFFFFFF DUP4 AND OR SWAP1 SSTORE JUMPDEST PUSH1 0x1 PUSH1 0x1 PUSH1 0xE0 SHL SUB NOT SWAP2 SWAP1 SWAP2 AND PUSH1 0x0 SWAP1 DUP2 MSTORE PUSH1 0x20 DUP10 SWAP1 MSTORE PUSH1 0x40 DUP2 KECCAK256 SSTORE PUSH1 0x3 DUP2 SWAP1 SHR PUSH2 0x1FFF AND SWAP3 POP PUSH1 0x5 SHL PUSH1 0xE0 AND SWAP1 POP DUP6 DUP3 EQ PUSH2 0xA72 JUMPI PUSH1 0x0 DUP3 DUP2 MSTORE PUSH1 0x1 DUP9 ADD PUSH1 0x20 MSTORE PUSH1 0x40 SWAP1 KECCAK256 DUP1 SLOAD PUSH1 0x1 PUSH1 0x1 PUSH1 0xE0 SHL SUB NOT DUP1 DUP5 SHR NOT SWAP1 SWAP2 AND SWAP1 DUP6 AND DUP4 SHR OR SWAP1 SSTORE PUSH2 0xA96 JUMP JUMPDEST DUP1 DUP4 PUSH1 0x1 PUSH1 0x1 PUSH1 0xE0 SHL SUB NOT AND SWAP1 SHR DUP2 PUSH1 0x1 PUSH1 0x1 PUSH1 0xE0 SHL SUB NOT PUSH1 0x0 SHL SWAP1 SHR NOT DUP15 AND OR SWAP13 POP JUMPDEST DUP5 PUSH2 0xAB1 JUMPI PUSH1 0x0 DUP7 DUP2 MSTORE PUSH1 0x1 DUP9 ADD PUSH1 0x20 MSTORE PUSH1 0x40 DUP2 KECCAK256 DUP2 SWAP1 SSTORE SWAP13 POP JUMPDEST POP POP POP DUP1 DUP1 PUSH2 0xABF SWAP1 PUSH2 0x1499 JUMP JUMPDEST SWAP2 POP POP PUSH2 0x83F JUMP JUMPDEST POP DUP1 PUSH2 0xAD4 DUP4 PUSH1 0x8 PUSH2 0x1437 JUMP JUMPDEST PUSH2 0xADE SWAP2 SWAP1 PUSH2 0x141F JUMP JUMPDEST SWAP10 POP POP POP PUSH2 0xB40 JUMP JUMPDEST PUSH1 0x40 MLOAD PUSH3 0x461BCD PUSH1 0xE5 SHL DUP2 MSTORE PUSH1 0x20 PUSH1 0x4 DUP3 ADD MSTORE PUSH1 0x28 PUSH1 0x24 DUP3 ADD MSTORE PUSH32 0x4C6962437574416E644C6F7570653A20496E636F727265637420466163657443 PUSH1 0x44 DUP3 ADD MSTORE PUSH8 0x3ABA20B1BA34B7B7 PUSH1 0xC1 SHL PUSH1 0x64 DUP3 ADD MSTORE PUSH1 0x84 ADD PUSH2 0x383 JUMP JUMPDEST POP SWAP6 SWAP7 SWAP5 SWAP6 POP POP POP POP POP JUMP JUMPDEST PUSH1 0x1 PUSH1 0x1 PUSH1 0xA0 SHL SUB DUP3 AND PUSH2 0xBD3 JUMPI DUP1 MLOAD ISZERO PUSH2 0xBCF JUMPI PUSH1 0x40 MLOAD PUSH3 0x461BCD PUSH1 0xE5 SHL DUP2 MSTORE PUSH1 0x20 PUSH1 0x4 DUP3 ADD MSTORE PUSH1 0x3D PUSH1 0x24 DUP3 ADD MSTORE PUSH32 0x4C6962437574416E644C6F7570653A205F696E69742069732061646472657373 PUSH1 0x44 DUP3 ADD MSTORE PUSH32 0x283029206275745F63616C6C64617461206973206E6F7420656D707479000000 PUSH1 0x64 DUP3 ADD MSTORE PUSH1 0x84 ADD PUSH2 0x383 JUMP JUMPDEST POP POP JUMP JUMPDEST PUSH1 0x0 DUP2 MLOAD GT PUSH2 0xC4A JUMPI PUSH1 0x40 MLOAD PUSH3 0x461BCD PUSH1 0xE5 SHL DUP2 MSTORE PUSH1 0x20 PUSH1 0x4 DUP3 ADD MSTORE PUSH1 0x3E PUSH1 0x24 DUP3 ADD MSTORE PUSH32 0x4C6962437574416E644C6F7570653A205F63616C6C6461746120697320656D70 PUSH1 0x44 DUP3 ADD MSTORE PUSH32 0x747920627574205F696E6974206973206E6F7420616464726573732830290000 PUSH1 0x64 DUP3 ADD MSTORE PUSH1 0x84 ADD PUSH2 0x383 JUMP JUMPDEST PUSH1 0x1 PUSH1 0x1 PUSH1 0xA0 SHL SUB DUP3 AND ADDRESS EQ PUSH2 0xC7C JUMPI PUSH2 0xC7C DUP3 PUSH1 0x40 MLOAD DUP1 PUSH1 0x60 ADD PUSH1 0x40 MSTORE DUP1 PUSH1 0x29 DUP2 MSTORE PUSH1 0x20 ADD PUSH2 0x14F4 PUSH1 0x29 SWAP2 CODECOPY PUSH2 0xD6A JUMP JUMPDEST PUSH1 0x0 DUP1 DUP4 PUSH1 0x1 PUSH1 0x1 PUSH1 0xA0 SHL SUB AND DUP4 PUSH1 0x40 MLOAD PUSH2 0xC97 SWAP2 SWAP1 PUSH2 0x11DB JUMP JUMPDEST PUSH1 0x0 PUSH1 0x40 MLOAD DUP1 DUP4 SUB DUP2 DUP6 GAS DELEGATECALL SWAP2 POP POP RETURNDATASIZE DUP1 PUSH1 0x0 DUP2 EQ PUSH2 0xCD2 JUMPI PUSH1 0x40 MLOAD SWAP2 POP PUSH1 0x1F NOT PUSH1 0x3F RETURNDATASIZE ADD AND DUP3 ADD PUSH1 0x40 MSTORE RETURNDATASIZE DUP3 MSTORE RETURNDATASIZE PUSH1 0x0 PUSH1 0x20 DUP5 ADD RETURNDATACOPY PUSH2 0xCD7 JUMP JUMPDEST PUSH1 0x60 SWAP2 POP JUMPDEST POP SWAP2 POP SWAP2 POP DUP2 PUSH2 0xD5A JUMPI DUP1 MLOAD ISZERO PUSH2 0xD02 JUMPI DUP1 PUSH1 0x40 MLOAD PUSH3 0x461BCD PUSH1 0xE5 SHL DUP2 MSTORE PUSH1 0x4 ADD PUSH2 0x383 SWAP2 SWAP1 PUSH2 0x138F JUMP JUMPDEST PUSH1 0x40 MLOAD PUSH3 0x461BCD PUSH1 0xE5 SHL DUP2 MSTORE PUSH1 0x20 PUSH1 0x4 DUP3 ADD MSTORE PUSH1 0x27 PUSH1 0x24 DUP3 ADD MSTORE PUSH32 0x4C6962437574416E644C6F7570653A205F696E69742066756E6374696F6E2072 PUSH1 0x44 DUP3 ADD MSTORE PUSH7 0x195D995C9D1959 PUSH1 0xCA SHL PUSH1 0x64 DUP3 ADD MSTORE PUSH1 0x84 ADD PUSH2 0x383 JUMP JUMPDEST POP POP POP POP JUMP JUMPDEST PUSH2 0x2F7 DUP2 CALLER PUSH2 0xD8B JUMP JUMPDEST DUP2 EXTCODESIZE DUP2 DUP2 PUSH2 0xD5A JUMPI PUSH1 0x40 MLOAD PUSH3 0x461BCD PUSH1 0xE5 SHL DUP2 MSTORE PUSH1 0x4 ADD PUSH2 0x383 SWAP2 SWAP1 PUSH2 0x138F JUMP JUMPDEST PUSH1 0x0 DUP3 DUP2 MSTORE PUSH32 0x4CD15452B25E815D3F9D1A3C7EDD985A178EDF5EB3461A1ACBF855517423D694 PUSH1 0x20 SWAP1 DUP2 MSTORE PUSH1 0x40 DUP1 DUP4 KECCAK256 PUSH1 0x1 PUSH1 0x1 PUSH1 0xA0 SHL SUB DUP6 AND DUP5 MSTORE SWAP1 SWAP2 MSTORE SWAP1 KECCAK256 SLOAD PUSH1 0xFF AND PUSH2 0xBCF JUMPI PUSH2 0xDE8 DUP2 PUSH1 0x1 PUSH1 0x1 PUSH1 0xA0 SHL SUB AND PUSH1 0x14 PUSH2 0xE2A JUMP JUMPDEST PUSH2 0xDF3 DUP4 PUSH1 0x20 PUSH2 0xE2A JUMP JUMPDEST PUSH1 0x40 MLOAD PUSH1 0x20 ADD PUSH2 0xE04 SWAP3 SWAP2 SWAP1 PUSH2 0x11F7 JUMP JUMPDEST PUSH1 0x40 DUP1 MLOAD PUSH1 0x1F NOT DUP2 DUP5 SUB ADD DUP2 MSTORE SWAP1 DUP3 SWAP1 MSTORE PUSH3 0x461BCD PUSH1 0xE5 SHL DUP3 MSTORE PUSH2 0x383 SWAP2 PUSH1 0x4 ADD PUSH2 0x138F JUMP JUMPDEST PUSH1 0x60 PUSH1 0x0 PUSH2 0xE39 DUP4 PUSH1 0x2 PUSH2 0x1437 JUMP JUMPDEST PUSH2 0xE44 SWAP1 PUSH1 0x2 PUSH2 0x141F JUMP JUMPDEST PUSH8 0xFFFFFFFFFFFFFFFF DUP2 GT ISZERO PUSH2 0xE6A JUMPI PUSH4 0x4E487B71 PUSH1 0xE0 SHL PUSH1 0x0 MSTORE PUSH1 0x41 PUSH1 0x4 MSTORE PUSH1 0x24 PUSH1 0x0 REVERT JUMPDEST PUSH1 0x40 MLOAD SWAP1 DUP1 DUP3 MSTORE DUP1 PUSH1 0x1F ADD PUSH1 0x1F NOT AND PUSH1 0x20 ADD DUP3 ADD PUSH1 0x40 MSTORE DUP1 ISZERO PUSH2 0xE94 JUMPI PUSH1 0x20 DUP3 ADD DUP2 DUP1 CALLDATASIZE DUP4 CALLDATACOPY ADD SWAP1 POP JUMPDEST POP SWAP1 POP PUSH1 0x3 PUSH1 0xFC SHL DUP2 PUSH1 0x0 DUP2 MLOAD DUP2 LT PUSH2 0xEBD JUMPI PUSH4 0x4E487B71 PUSH1 0xE0 SHL PUSH1 0x0 MSTORE PUSH1 0x32 PUSH1 0x4 MSTORE PUSH1 0x24 PUSH1 0x0 REVERT JUMPDEST PUSH1 0x20 ADD ADD SWAP1 PUSH1 0x1 PUSH1 0x1 PUSH1 0xF8 SHL SUB NOT AND SWAP1 DUP2 PUSH1 0x0 BYTE SWAP1 MSTORE8 POP PUSH1 0xF PUSH1 0xFB SHL DUP2 PUSH1 0x1 DUP2 MLOAD DUP2 LT PUSH2 0xEFA JUMPI PUSH4 0x4E487B71 PUSH1 0xE0 SHL PUSH1 0x0 MSTORE PUSH1 0x32 PUSH1 0x4 MSTORE PUSH1 0x24 PUSH1 0x0 REVERT JUMPDEST PUSH1 0x20 ADD ADD SWAP1 PUSH1 0x1 PUSH1 0x1 PUSH1 0xF8 SHL SUB NOT AND SWAP1 DUP2 PUSH1 0x0 BYTE SWAP1 MSTORE8 POP PUSH1 0x0 PUSH2 0xF1E DUP5 PUSH1 0x2 PUSH2 0x1437 JUMP JUMPDEST PUSH2 0xF29 SWAP1 PUSH1 0x1 PUSH2 0x141F JUMP JUMPDEST SWAP1 POP JUMPDEST PUSH1 0x1 DUP2 GT ISZERO PUSH2 0xFBD JUMPI PUSH16 0x181899199A1A9B1B9C1CB0B131B232B3 PUSH1 0x81 SHL DUP6 PUSH1 0xF AND PUSH1 0x10 DUP2 LT PUSH2 0xF6B JUMPI PUSH4 0x4E487B71 PUSH1 0xE0 SHL PUSH1 0x0 MSTORE PUSH1 0x32 PUSH1 0x4 MSTORE PUSH1 0x24 PUSH1 0x0 REVERT JUMPDEST BYTE PUSH1 0xF8 SHL DUP3 DUP3 DUP2 MLOAD DUP2 LT PUSH2 0xF8F JUMPI PUSH4 0x4E487B71 PUSH1 0xE0 SHL PUSH1 0x0 MSTORE PUSH1 0x32 PUSH1 0x4 MSTORE PUSH1 0x24 PUSH1 0x0 REVERT JUMPDEST PUSH1 0x20 ADD ADD SWAP1 PUSH1 0x1 PUSH1 0x1 PUSH1 0xF8 SHL SUB NOT AND SWAP1 DUP2 PUSH1 0x0 BYTE SWAP1 MSTORE8 POP PUSH1 0x4 SWAP5 SWAP1 SWAP5 SHR SWAP4 PUSH2 0xFB6 DUP2 PUSH2 0x1482 JUMP JUMPDEST SWAP1 POP PUSH2 0xF2C JUMP JUMPDEST POP DUP4 ISZERO PUSH2 0x100C JUMPI PUSH1 0x40 MLOAD PUSH3 0x461BCD PUSH1 0xE5 SHL DUP2 MSTORE PUSH1 0x20 PUSH1 0x4 DUP3 ADD DUP2 SWAP1 MSTORE PUSH1 0x24 DUP3 ADD MSTORE PUSH32 0x537472696E67733A20686578206C656E67746820696E73756666696369656E74 PUSH1 0x44 DUP3 ADD MSTORE PUSH1 0x64 ADD PUSH2 0x383 JUMP JUMPDEST SWAP4 SWAP3 POP POP POP JUMP JUMPDEST DUP1 CALLDATALOAD PUSH1 0x1 PUSH1 0x1 PUSH1 0xA0 SHL SUB DUP2 AND DUP2 EQ PUSH2 0x102A JUMPI PUSH1 0x0 DUP1 REVERT JUMPDEST SWAP2 SWAP1 POP JUMP JUMPDEST PUSH1 0x0 DUP1 DUP4 PUSH1 0x1F DUP5 ADD SLT PUSH2 0x1040 JUMPI DUP2 DUP3 REVERT JUMPDEST POP DUP2 CALLDATALOAD PUSH8 0xFFFFFFFFFFFFFFFF DUP2 GT ISZERO PUSH2 0x1057 JUMPI DUP2 DUP3 REVERT JUMPDEST PUSH1 0x20 DUP4 ADD SWAP2 POP DUP4 PUSH1 0x20 DUP3 DUP6 ADD ADD GT ISZERO PUSH2 0x106F JUMPI PUSH1 0x0 DUP1 REVERT JUMPDEST SWAP3 POP SWAP3 SWAP1 POP JUMP JUMPDEST DUP1 CALLDATALOAD PUSH1 0x3 DUP2 LT PUSH2 0x102A JUMPI PUSH1 0x0 DUP1 REVERT JUMPDEST PUSH1 0x0 PUSH1 0x20 DUP3 DUP5 SUB SLT ISZERO PUSH2 0x1096 JUMPI DUP1 DUP2 REVERT JUMPDEST PUSH2 0x100C DUP3 PUSH2 0x1013 JUMP JUMPDEST PUSH1 0x0 DUP1 PUSH1 0x0 DUP1 PUSH1 0x0 PUSH1 0x60 DUP7 DUP9 SUB SLT ISZERO PUSH2 0x10B6 JUMPI DUP1 DUP2 REVERT JUMPDEST DUP6 CALLDATALOAD PUSH8 0xFFFFFFFFFFFFFFFF DUP1 DUP3 GT ISZERO PUSH2 0x10CD JUMPI DUP3 DUP4 REVERT JUMPDEST DUP2 DUP9 ADD SWAP2 POP DUP9 PUSH1 0x1F DUP4 ADD SLT PUSH2 0x10E0 JUMPI DUP3 DUP4 REVERT JUMPDEST DUP2 CALLDATALOAD DUP2 DUP2 GT ISZERO PUSH2 0x10EE JUMPI DUP4 DUP5 REVERT JUMPDEST DUP10 PUSH1 0x20 DUP3 PUSH1 0x5 SHL DUP6 ADD ADD GT ISZERO PUSH2 0x1102 JUMPI DUP4 DUP5 REVERT JUMPDEST PUSH1 0x20 DUP4 ADD SWAP8 POP DUP1 SWAP7 POP POP PUSH2 0x1118 PUSH1 0x20 DUP10 ADD PUSH2 0x1013 JUMP JUMPDEST SWAP5 POP PUSH1 0x40 DUP9 ADD CALLDATALOAD SWAP2 POP DUP1 DUP3 GT ISZERO PUSH2 0x112D JUMPI DUP3 DUP4 REVERT JUMPDEST POP PUSH2 0x113A DUP9 DUP3 DUP10 ADD PUSH2 0x102F JUMP JUMPDEST SWAP7 SWAP10 SWAP6 SWAP9 POP SWAP4 SWAP7 POP SWAP3 SWAP5 SWAP4 SWAP3 POP POP POP JUMP JUMPDEST PUSH1 0x0 PUSH1 0x20 DUP3 DUP5 SUB SLT ISZERO PUSH2 0x115C JUMPI DUP1 DUP2 REVERT JUMPDEST PUSH2 0x100C DUP3 PUSH2 0x1076 JUMP JUMPDEST DUP2 DUP4 MSTORE PUSH1 0x0 PUSH1 0x20 DUP1 DUP6 ADD SWAP5 POP DUP3 DUP3 JUMPDEST DUP6 DUP2 LT ISZERO PUSH2 0x11A7 JUMPI DUP2 CALLDATALOAD PUSH1 0x1 PUSH1 0x1 PUSH1 0xE0 SHL SUB NOT DUP2 AND DUP1 DUP3 EQ PUSH2 0x1194 JUMPI DUP6 DUP7 REVERT JUMPDEST DUP9 MSTORE POP SWAP6 DUP3 ADD SWAP6 SWAP1 DUP3 ADD SWAP1 PUSH1 0x1 ADD PUSH2 0x1174 JUMP JUMPDEST POP SWAP5 SWAP6 SWAP5 POP POP POP POP POP JUMP JUMPDEST DUP2 DUP4 MSTORE DUP2 DUP2 PUSH1 0x20 DUP6 ADD CALLDATACOPY POP PUSH1 0x0 DUP3 DUP3 ADD PUSH1 0x20 SWAP1 DUP2 ADD SWAP2 SWAP1 SWAP2 MSTORE PUSH1 0x1F SWAP1 SWAP2 ADD PUSH1 0x1F NOT AND SWAP1 SWAP2 ADD ADD SWAP1 JUMP JUMPDEST PUSH1 0x0 DUP3 MLOAD PUSH2 0x11ED DUP2 DUP5 PUSH1 0x20 DUP8 ADD PUSH2 0x1456 JUMP JUMPDEST SWAP2 SWAP1 SWAP2 ADD SWAP3 SWAP2 POP POP JUMP JUMPDEST PUSH32 0x416363657373436F6E74726F6C3A206163636F756E7420000000000000000000 DUP2 MSTORE PUSH1 0x0 DUP4 MLOAD PUSH2 0x122F DUP2 PUSH1 0x17 DUP6 ADD PUSH1 0x20 DUP9 ADD PUSH2 0x1456 JUMP JUMPDEST PUSH17 0x1034B99036B4B9B9B4B733903937B6329 PUSH1 0x7D SHL PUSH1 0x17 SWAP2 DUP5 ADD SWAP2 DUP3 ADD MSTORE DUP4 MLOAD PUSH2 0x1260 DUP2 PUSH1 0x28 DUP5 ADD PUSH1 0x20 DUP9 ADD PUSH2 0x1456 JUMP JUMPDEST ADD PUSH1 0x28 ADD SWAP5 SWAP4 POP POP POP POP JUMP JUMPDEST PUSH1 0x60 DUP1 DUP3 MSTORE DUP2 DUP2 ADD DUP7 SWAP1 MSTORE PUSH1 0x0 SWAP1 PUSH1 0x5 PUSH1 0x80 DUP1 DUP6 ADD SWAP1 DUP10 DUP4 SHL DUP7 ADD ADD DUP11 DUP6 JUMPDEST DUP12 DUP2 LT ISZERO PUSH2 0x135C JUMPI DUP8 DUP4 SUB PUSH1 0x7F NOT ADD DUP5 MSTORE DUP2 CALLDATALOAD CALLDATASIZE DUP15 SWAP1 SUB PUSH1 0x5E NOT ADD DUP2 SLT PUSH2 0x12B0 JUMPI DUP8 DUP9 REVERT JUMPDEST DUP14 ADD PUSH1 0x1 PUSH1 0x1 PUSH1 0xA0 SHL SUB PUSH2 0x12C3 DUP3 PUSH2 0x1013 JUMP JUMPDEST AND DUP5 MSTORE PUSH1 0x20 PUSH2 0x12D3 DUP2 DUP4 ADD PUSH2 0x1076 JUMP JUMPDEST PUSH1 0x3 DUP2 LT PUSH2 0x12EF JUMPI PUSH4 0x4E487B71 PUSH1 0xE0 SHL DUP11 MSTORE PUSH1 0x21 PUSH1 0x4 MSTORE PUSH1 0x24 DUP11 REVERT JUMPDEST DUP6 DUP3 ADD MSTORE PUSH1 0x40 DUP3 DUP2 ADD CALLDATALOAD CALLDATASIZE DUP5 SWAP1 SUB PUSH1 0x1E NOT ADD DUP2 SLT PUSH2 0x130B JUMPI DUP11 DUP12 REVERT JUMPDEST DUP4 ADD DUP1 CALLDATALOAD PUSH8 0xFFFFFFFFFFFFFFFF DUP2 GT ISZERO PUSH2 0x1323 JUMPI DUP12 DUP13 REVERT JUMPDEST DUP1 DUP11 SHL CALLDATASIZE SUB DUP6 SGT ISZERO PUSH2 0x1333 JUMPI DUP12 DUP13 REVERT JUMPDEST DUP11 DUP4 DUP10 ADD MSTORE PUSH2 0x1347 DUP12 DUP10 ADD DUP3 DUP7 DUP6 ADD PUSH2 0x1165 JUMP JUMPDEST SWAP9 DUP5 ADD SWAP9 SWAP8 POP POP POP SWAP4 ADD SWAP3 POP POP PUSH1 0x1 ADD PUSH2 0x128B JUMP JUMPDEST POP POP PUSH1 0x1 PUSH1 0x1 PUSH1 0xA0 SHL SUB DUP10 AND PUSH1 0x20 DUP8 ADD MSTORE DUP6 DUP2 SUB PUSH1 0x40 DUP8 ADD MSTORE PUSH2 0x1380 DUP2 DUP9 DUP11 PUSH2 0x11B2 JUMP JUMPDEST SWAP12 SWAP11 POP POP POP POP POP POP POP POP POP POP POP JUMP JUMPDEST PUSH1 0x20 DUP2 MSTORE PUSH1 0x0 DUP3 MLOAD DUP1 PUSH1 0x20 DUP5 ADD MSTORE PUSH2 0x13AE DUP2 PUSH1 0x40 DUP6 ADD PUSH1 0x20 DUP8 ADD PUSH2 0x1456 JUMP JUMPDEST PUSH1 0x1F ADD PUSH1 0x1F NOT AND SWAP2 SWAP1 SWAP2 ADD PUSH1 0x40 ADD SWAP3 SWAP2 POP POP JUMP JUMPDEST PUSH1 0x0 DUP1 DUP4 CALLDATALOAD PUSH1 0x1E NOT DUP5 CALLDATASIZE SUB ADD DUP2 SLT PUSH2 0x13D8 JUMPI DUP3 DUP4 REVERT JUMPDEST DUP4 ADD DUP1 CALLDATALOAD SWAP2 POP PUSH8 0xFFFFFFFFFFFFFFFF DUP3 GT ISZERO PUSH2 0x13F2 JUMPI DUP3 DUP4 REVERT JUMPDEST PUSH1 0x20 ADD SWAP2 POP PUSH1 0x5 DUP2 SWAP1 SHL CALLDATASIZE SUB DUP3 SGT ISZERO PUSH2 0x106F JUMPI PUSH1 0x0 DUP1 REVERT JUMPDEST PUSH1 0x0 DUP3 CALLDATALOAD PUSH1 0x5E NOT DUP4 CALLDATASIZE SUB ADD DUP2 SLT PUSH2 0x11ED JUMPI DUP2 DUP3 REVERT JUMPDEST PUSH1 0x0 DUP3 NOT DUP3 GT ISZERO PUSH2 0x1432 JUMPI PUSH2 0x1432 PUSH2 0x14B4 JUMP JUMPDEST POP ADD SWAP1 JUMP JUMPDEST PUSH1 0x0 DUP2 PUSH1 0x0 NOT DIV DUP4 GT DUP3 ISZERO ISZERO AND ISZERO PUSH2 0x1451 JUMPI PUSH2 0x1451 PUSH2 0x14B4 JUMP JUMPDEST POP MUL SWAP1 JUMP JUMPDEST PUSH1 0x0 JUMPDEST DUP4 DUP2 LT ISZERO PUSH2 0x1471 JUMPI DUP2 DUP2 ADD MLOAD DUP4 DUP3 ADD MSTORE PUSH1 0x20 ADD PUSH2 0x1459 JUMP JUMPDEST DUP4 DUP2 GT ISZERO PUSH2 0xD5A JUMPI POP POP PUSH1 0x0 SWAP2 ADD MSTORE JUMP JUMPDEST PUSH1 0x0 DUP2 PUSH2 0x1491 JUMPI PUSH2 0x1491 PUSH2 0x14B4 JUMP JUMPDEST POP PUSH1 0x0 NOT ADD SWAP1 JUMP JUMPDEST PUSH1 0x0 PUSH1 0x0 NOT DUP3 EQ ISZERO PUSH2 0x14AD JUMPI PUSH2 0x14AD PUSH2 0x14B4 JUMP JUMPDEST POP PUSH1 0x1 ADD SWAP1 JUMP JUMPDEST PUSH4 0x4E487B71 PUSH1 0xE0 SHL PUSH1 0x0 MSTORE PUSH1 0x11 PUSH1 0x4 MSTORE PUSH1 0x24 PUSH1 0x0 REVERT INVALID 0x4C PUSH10 0x62437574416E644C6F75 PUSH17 0x653A205265706C61636520666163657420 PUSH9 0x6173206E6F20636F64 PUSH6 0x4C6962437574 COINBASE PUSH15 0x644C6F7570653A205F696E69742061 PUSH5 0x6472657373 KECCAK256 PUSH9 0x6173206E6F20636F64 PUSH6 0x4C6962437574 COINBASE PUSH15 0x644C6F7570653A2041646420666163 PUSH6 0x742068617320 PUSH15 0x6F20636F6465A26469706673582212 KECCAK256 0xA6 PUSH17 0xAE8D9FE86717261BBDF818D93872A37B5A MSTORE8 0xEA 0xDA SWAP7 PUSH1 0x45 STATICCALL GASPRICE PUSH29 0x857A461464736F6C634300080400330000000000000000000000000000 ","sha1":"3490ffb671bfc431dd12614167681118d37341cc","source":"// SPDX-License-Identifier: MIT\npragma solidity ^0.8.2;\n\nimport \"../../libraries/utils/LibCutAndLoupe.sol\";\nimport \"../../libraries/utils/LibAccessControl.sol\";\n\ncontract Cut {\n    enum FacetCutAction {\n        Add,\n        Replace,\n        Remove\n    }\n\n    struct FacetCut {\n        address facetAddress;\n        FacetCutAction action;\n        bytes4[] functionSelectors;\n    } // just a data structure, not storing anything\n\n    event DiamondCut(FacetCut[] _cut, address _init, bytes _calldata);\n\n    /// @notice Add/replace/remove any number of functions and optionally execute\n    ///         a function with delegatecall\n    /// @param _cut Contains the facet addresses and function selectors\n    /// @param _init The address of the contract or facet to execute _calldata\n    /// @param _calldata A function call, including function selector and arguments\n    ///                  _calldata is executed with delegatecall on _init\n    function cut(\n        FacetCut[] calldata _cut,\n        address _init,\n        bytes calldata _calldata\n    ) external {\n        LibAccessControl._requireOnlyRole(LibAccessControl.MAINTAINER_ROLE);\n\n        LibCutAndLoupe.StorageCutAndLoupe storage ds = LibCutAndLoupe\n            ._storageCutAndLoupe();\n        uint256 originalSelectorCount = ds.selectorCount;\n        uint256 selectorCount = originalSelectorCount;\n        bytes32 selectorSlot;\n        // Check if last selector slot is not full\n        // \"selectorCount & 7\" is a gas efficient modulo by eight \"selectorCount % 8\"\n        if (selectorCount & 7 > 0) {\n            // get last selectorSlot\n            // \"selectorCount >> 3\" is a gas efficient division by 8 \"selectorCount / 8\"\n            selectorSlot = ds.selectorSlots[selectorCount >> 3];\n        }\n        // loop through diamond cut\n        for (uint256 facetIndex; facetIndex < _cut.length; facetIndex++) {\n            (selectorCount, selectorSlot) = LibCutAndLoupe\n                ._addReplaceRemoveFacetSelectors(\n                    selectorCount,\n                    selectorSlot,\n                    _cut[facetIndex].facetAddress,\n                    _cut[facetIndex].action,\n                    _cut[facetIndex].functionSelectors\n                );\n        }\n        if (selectorCount != originalSelectorCount) {\n            ds.selectorCount = uint16(selectorCount);\n        }\n        // If last selector slot is not full\n        // \"selectorCount & 7\" is a gas efficient modulo by eight \"selectorCount % 8\"\n        if (selectorCount & 7 > 0) {\n            // \"selectorCount >> 3\" is a gas efficient division by 8 \"selectorCount / 8\"\n            ds.selectorSlots[selectorCount >> 3] = selectorSlot;\n        }\n        emit DiamondCut(_cut, _init, _calldata);\n        LibCutAndLoupe._initializeCut(_init, _calldata);\n    }\n}\n","sourcePath":"contracts/hub/facets/utils/Cut.sol","type":"contract","deployment":{"address":"0x6a3e3dd1D9765E47A54303A7799f0A354B9ACD70","chainid":"80001","blockHeight":26007055}}