{"abi":[{"inputs":[{"internalType":"bytes32","name":"_salt","type":"bytes32"},{"internalType":"uint256","name":"_minDelay","type":"uint256"},{"internalType":"address[]","name":"_proposers","type":"address[]"},{"internalType":"address[]","name":"_executors","type":"address[]"}],"name":"createHiveTimelock","outputs":[{"internalType":"contract HiveTimelock","name":"","type":"address"}],"stateMutability":"nonpayable","type":"function"}],"bytecode":"608060405234801561001057600080fd5b50612185806100206000396000f3fe608060405234801561001057600080fd5b506004361061002b5760003560e01c8063ec861e2914610030575b600080fd5b61004361003e3660046101e1565b61005f565b6040516001600160a01b03909116815260200160405180910390f35b60003330146100ca5760405162461bcd60e51b815260206004820152602d60248201527f4869766554696d656c6f636b4d616368696e653a2063616c6c6572206e6f742060448201526c1d1a1a5cc818dbdb9d1c9858dd609a1b606482015260840160405180910390fd5b6000858585856040516100dc90610113565b6100e893929190610298565b8190604051809103906000f5905080158015610108573d6000803e3d6000fd5b509695505050505050565b611e6c806102e483390190565b80356001600160a01b038116811461013757600080fd5b919050565b600082601f83011261014c578081fd5b8135602067ffffffffffffffff80831115610169576101696102cd565b8260051b604051601f19603f8301168101818110848211171561018e5761018e6102cd565b604052848152838101925086840182880185018910156101ac578687fd5b8692505b858310156101d5576101c181610120565b8452928401926001929092019184016101b0565b50979650505050505050565b600080600080608085870312156101f6578384fd5b8435935060208501359250604085013567ffffffffffffffff8082111561021b578384fd5b6102278883890161013c565b9350606087013591508082111561023c578283fd5b506102498782880161013c565b91505092959194509250565b6000815180845260208085019450808401835b8381101561028d5781516001600160a01b031687529582019590820190600101610268565b509495945050505050565b8381526060602082015260006102b16060830185610255565b82810360408401526102c38185610255565b9695505050505050565b634e487b7160e01b600052604160045260246000fdfe60806040523480156200001157600080fd5b5060405162001e6c38038062001e6c8339810160408190526200003491620003af565b8282826200005260008051602062001e0c83398151915280620001e7565b6200007c60008051602062001e2c83398151915260008051602062001e0c833981519152620001e7565b620000a660008051602062001e4c83398151915260008051602062001e0c833981519152620001e7565b620000c160008051602062001e0c8339815191523362000232565b620000dc60008051602062001e0c8339815191523062000232565b60005b825181101562000145576200013260008051602062001e2c8339815191528483815181106200011e57634e487b7160e01b600052603260045260246000fd5b60200260200101516200023260201b60201c565b6200013d8162000420565b9050620000df565b5060005b81518110156200019b576200018860008051602062001e4c8339815191528383815181106200011e57634e487b7160e01b600052603260045260246000fd5b620001938162000420565b905062000149565b5060028390556040805160008152602081018590527f11c24f4ead16507c69ac467fbd5e4eed5fb5c699626d2cc6d66421df253886d5910160405180910390a15050505050506200045e565b600082815260208190526040808220600101805490849055905190918391839186917fbd79b86ffe0ab8e8776151514217cd7cacd52c909f66475c3af44e129f0b00ff9190a4505050565b6200023e828262000242565b5050565b6000828152602081815260408083206001600160a01b038516845290915290205460ff166200023e576000828152602081815260408083206001600160a01b03851684529091529020805460ff191660011790556200029e3390565b6001600160a01b0316816001600160a01b0316837f2f8788117e7eff1d82e926ec794901d17c78024a50270940304540a733656f0d60405160405180910390a45050565b80516001600160a01b0381168114620002fa57600080fd5b919050565b600082601f83011262000310578081fd5b815160206001600160401b03808311156200032f576200032f62000448565b8260051b604051601f19603f8301168101818110848211171562000357576200035762000448565b6040528481528381019250868401828801850189101562000376578687fd5b8692505b85831015620003a3576200038e81620002e2565b8452928401926001929092019184016200037a565b50979650505050505050565b600080600060608486031215620003c4578283fd5b835160208501519093506001600160401b0380821115620003e3578384fd5b620003f187838801620002ff565b9350604086015191508082111562000407578283fd5b506200041686828701620002ff565b9150509250925092565b60006000198214156200044157634e487b7160e01b81526011600452602481fd5b5060010190565b634e487b7160e01b600052604160045260246000fd5b61199e806200046e6000396000f3fe60806040526004361061014f5760003560e01c806364d62353116100b6578063b1c5f4271161006f578063b1c5f427146103f3578063c4d252f514610413578063d45c443514610433578063d547741f14610460578063e38335e514610480578063f27a0c921461049357600080fd5b806364d623531461033c5780638065657f1461035c5780638f2a0bb01461037c5780638f61f4f51461039c57806391d14854146103be578063a217fddf146103de57600080fd5b8063248a9ca311610108578063248a9ca31461025b5780632ab0f5291461028b5780632f2ff15d146102bc57806331d50750146102dc57806336568abe146102fc578063584b153e1461031c57600080fd5b806301d5062a1461015b57806301ffc9a71461017d57806307bd0265146101b25780630d3cf6fc146101f4578063134008d31461022857806313bc9f201461023b57600080fd5b3661015657005b600080fd5b34801561016757600080fd5b5061017b610176366004611314565b6104a8565b005b34801561018957600080fd5b5061019d61019836600461151d565b61052c565b60405190151581526020015b60405180910390f35b3480156101be57600080fd5b506101e67fd8aa0f3194971a2a116679f7c2090f6939c8d4e01a2a8d7e41d55e5351469e6381565b6040519081526020016101a9565b34801561020057600080fd5b506101e67f5f58e3a2316349923ce3780f8d587db2d72378aed66a8261c916544fa6846ca581565b61017b6102363660046112aa565b610563565b34801561024757600080fd5b5061019d6102563660046114da565b6105db565b34801561026757600080fd5b506101e66102763660046114da565b60009081526020819052604090206001015490565b34801561029757600080fd5b5061019d6102a63660046114da565b6000908152600160208190526040909120541490565b3480156102c857600080fd5b5061017b6102d73660046114f2565b610601565b3480156102e857600080fd5b5061019d6102f73660046114da565b61062c565b34801561030857600080fd5b5061017b6103173660046114f2565b610645565b34801561032857600080fd5b5061019d6103373660046114da565b6106c8565b34801561034857600080fd5b5061017b6103573660046114da565b6106de565b34801561036857600080fd5b506101e66103773660046112aa565b610782565b34801561038857600080fd5b5061017b61039736600461142c565b6107c1565b3480156103a857600080fd5b506101e660008051602061194983398151915281565b3480156103ca57600080fd5b5061019d6103d93660046114f2565b61092c565b3480156103ea57600080fd5b506101e6600081565b3480156103ff57600080fd5b506101e661040e366004611387565b610955565b34801561041f57600080fd5b5061017b61042e3660046114da565b61099a565b34801561043f57600080fd5b506101e661044e3660046114da565b60009081526001602052604090205490565b34801561046c57600080fd5b5061017b61047b3660046114f2565b610a5e565b61017b61048e366004611387565b610a84565b34801561049f57600080fd5b506002546101e6565b6000805160206119498339815191526104c18133610be3565b60006104d1898989898989610782565b90506104dd8184610c47565b6000817f4cf4410cc57040e44862ef0f45f3dd5a5e02db8eb8add648d4b0e236f1d07dca8b8b8b8b8b8a604051610519969594939291906116b2565b60405180910390a3505050505050505050565b60006001600160e01b03198216637965db0b60e01b148061055d57506301ffc9a760e01b6001600160e01b03198316145b92915050565b7fd8aa0f3194971a2a116679f7c2090f6939c8d4e01a2a8d7e41d55e5351469e6361058f81600061092c565b61059d5761059d8133610be3565b60006105ad888888888888610782565b90506105b98185610d36565b6105c88160008a8a8a8a610dd2565b6105d181610ee6565b5050505050505050565b6000818152600160205260408120546001811180156105fa5750428111155b9392505050565b60008281526020819052604090206001015461061d8133610be3565b6106278383610f1f565b505050565b60008181526001602052604081205481905b1192915050565b6001600160a01b03811633146106ba5760405162461bcd60e51b815260206004820152602f60248201527f416363657373436f6e74726f6c3a2063616e206f6e6c792072656e6f756e636560448201526e103937b632b9903337b91039b2b63360891b60648201526084015b60405180910390fd5b6106c48282610fa3565b5050565b600081815260016020819052604082205461063e565b3330146107415760405162461bcd60e51b815260206004820152602b60248201527f54696d656c6f636b436f6e74726f6c6c65723a2063616c6c6572206d7573742060448201526a62652074696d656c6f636b60a81b60648201526084016106b1565b60025460408051918252602082018390527f11c24f4ead16507c69ac467fbd5e4eed5fb5c699626d2cc6d66421df253886d5910160405180910390a1600255565b600086868686868660405160200161079f969594939291906116b2565b6040516020818303038152906040528051906020012090509695505050505050565b6000805160206119498339815191526107da8133610be3565b8887146107f95760405162461bcd60e51b81526004016106b1906117c7565b8885146108185760405162461bcd60e51b81526004016106b1906117c7565b600061082a8b8b8b8b8b8b8b8b610955565b90506108368184610c47565b60005b8a81101561091e5780827f4cf4410cc57040e44862ef0f45f3dd5a5e02db8eb8add648d4b0e236f1d07dca8e8e8581811061088457634e487b7160e01b600052603260045260246000fd5b90506020020160208101906108999190611290565b8d8d868181106108b957634e487b7160e01b600052603260045260246000fd5b905060200201358c8c878181106108e057634e487b7160e01b600052603260045260246000fd5b90506020028101906108f29190611854565b8c8b604051610906969594939291906116b2565b60405180910390a361091781611917565b9050610839565b505050505050505050505050565b6000918252602082815260408084206001600160a01b0393909316845291905290205460ff1690565b600088888888888888886040516020016109769897969594939291906116ef565b60405160208183030381529060405280519060200120905098975050505050505050565b6000805160206119498339815191526109b38133610be3565b6109bc826106c8565b610a225760405162461bcd60e51b815260206004820152603160248201527f54696d656c6f636b436f6e74726f6c6c65723a206f7065726174696f6e2063616044820152701b9b9bdd0818994818d85b98d95b1b1959607a1b60648201526084016106b1565b6000828152600160205260408082208290555183917fbaa1eb22f2a492ba1a5fea61b8df4d27c6c8b5f3971e63bb58fa14ff72eedb7091a25050565b600082815260208190526040902060010154610a7a8133610be3565b6106278383610fa3565b7fd8aa0f3194971a2a116679f7c2090f6939c8d4e01a2a8d7e41d55e5351469e63610ab081600061092c565b610abe57610abe8133610be3565b878614610add5760405162461bcd60e51b81526004016106b1906117c7565b878414610afc5760405162461bcd60e51b81526004016106b1906117c7565b6000610b0e8a8a8a8a8a8a8a8a610955565b9050610b1a8185610d36565b60005b89811015610bcd57610bbd82828d8d85818110610b4a57634e487b7160e01b600052603260045260246000fd5b9050602002016020810190610b5f9190611290565b8c8c86818110610b7f57634e487b7160e01b600052603260045260246000fd5b905060200201358b8b87818110610ba657634e487b7160e01b600052603260045260246000fd5b9050602002810190610bb89190611854565b610dd2565b610bc681611917565b9050610b1d565b50610bd781610ee6565b50505050505050505050565b610bed828261092c565b6106c457610c05816001600160a01b03166014611008565b610c10836020611008565b604051602001610c2192919061160b565b60408051601f198184030181529082905262461bcd60e51b82526106b191600401611794565b610c508261062c565b15610cb55760405162461bcd60e51b815260206004820152602f60248201527f54696d656c6f636b436f6e74726f6c6c65723a206f7065726174696f6e20616c60448201526e1c9958591e481cd8da19591d5b1959608a1b60648201526084016106b1565b600254811015610d165760405162461bcd60e51b815260206004820152602660248201527f54696d656c6f636b436f6e74726f6c6c65723a20696e73756666696369656e746044820152652064656c617960d01b60648201526084016106b1565b610d208142611899565b6000928352600160205260409092209190915550565b610d3f826105db565b610d5b5760405162461bcd60e51b81526004016106b19061180a565b801580610d775750600081815260016020819052604090912054145b6106c45760405162461bcd60e51b815260206004820152602660248201527f54696d656c6f636b436f6e74726f6c6c65723a206d697373696e6720646570656044820152656e64656e637960d01b60648201526084016106b1565b6000846001600160a01b0316848484604051610def9291906115fb565b60006040518083038185875af1925050503d8060008114610e2c576040519150601f19603f3d011682016040523d82523d6000602084013e610e31565b606091505b5050905080610e9e5760405162461bcd60e51b815260206004820152603360248201527f54696d656c6f636b436f6e74726f6c6c65723a20756e6465726c79696e6720746044820152721c985b9cd858dd1a5bdb881c995d995c9d1959606a1b60648201526084016106b1565b85877fc2617efa69bab66782fa219543714338489c4e9e178271560a91b82c3f612b5887878787604051610ed59493929190611680565b60405180910390a350505050505050565b610eef816105db565b610f0b5760405162461bcd60e51b81526004016106b19061180a565b600090815260016020819052604090912055565b610f29828261092c565b6106c4576000828152602081815260408083206001600160a01b03851684529091529020805460ff19166001179055610f5f3390565b6001600160a01b0316816001600160a01b0316837f2f8788117e7eff1d82e926ec794901d17c78024a50270940304540a733656f0d60405160405180910390a45050565b610fad828261092c565b156106c4576000828152602081815260408083206001600160a01b0385168085529252808320805460ff1916905551339285917ff6391f5c32d9c69d2a47ea670b442974b53935d1edc7fd64eb21e047a839171b9190a45050565b606060006110178360026118b1565b611022906002611899565b67ffffffffffffffff81111561104857634e487b7160e01b600052604160045260246000fd5b6040519080825280601f01601f191660200182016040528015611072576020820181803683370190505b509050600360fc1b8160008151811061109b57634e487b7160e01b600052603260045260246000fd5b60200101906001600160f81b031916908160001a905350600f60fb1b816001815181106110d857634e487b7160e01b600052603260045260246000fd5b60200101906001600160f81b031916908160001a90535060006110fc8460026118b1565b611107906001611899565b90505b600181111561119b576f181899199a1a9b1b9c1cb0b131b232b360811b85600f166010811061114957634e487b7160e01b600052603260045260246000fd5b1a60f81b82828151811061116d57634e487b7160e01b600052603260045260246000fd5b60200101906001600160f81b031916908160001a90535060049490941c9361119481611900565b905061110a565b5083156105fa5760405162461bcd60e51b815260206004820181905260248201527f537472696e67733a20686578206c656e67746820696e73756666696369656e7460448201526064016106b1565b80356001600160a01b038116811461120157600080fd5b919050565b60008083601f840112611217578182fd5b50813567ffffffffffffffff81111561122e578182fd5b6020830191508360208260051b850101111561124957600080fd5b9250929050565b60008083601f840112611261578182fd5b50813567ffffffffffffffff811115611278578182fd5b60208301915083602082850101111561124957600080fd5b6000602082840312156112a1578081fd5b6105fa826111ea565b60008060008060008060a087890312156112c2578182fd5b6112cb876111ea565b955060208701359450604087013567ffffffffffffffff8111156112ed578283fd5b6112f989828a01611250565b979a9699509760608101359660809091013595509350505050565b600080600080600080600060c0888a03121561132e578081fd5b611337886111ea565b965060208801359550604088013567ffffffffffffffff811115611359578182fd5b6113658a828b01611250565b989b979a50986060810135976080820135975060a09091013595509350505050565b60008060008060008060008060a0898b0312156113a2578081fd5b883567ffffffffffffffff808211156113b9578283fd5b6113c58c838d01611206565b909a50985060208b01359150808211156113dd578283fd5b6113e98c838d01611206565b909850965060408b0135915080821115611401578283fd5b5061140e8b828c01611206565b999c989b509699959896976060870135966080013595509350505050565b600080600080600080600080600060c08a8c031215611449578081fd5b893567ffffffffffffffff80821115611460578283fd5b61146c8d838e01611206565b909b50995060208c0135915080821115611484578283fd5b6114908d838e01611206565b909950975060408c01359150808211156114a8578283fd5b506114b58c828d01611206565b9a9d999c50979a969997986060880135976080810135975060a0013595509350505050565b6000602082840312156114eb578081fd5b5035919050565b60008060408385031215611504578182fd5b82359150611514602084016111ea565b90509250929050565b60006020828403121561152e578081fd5b81356001600160e01b0319811681146105fa578182fd5b81835260006020808501808196508560051b8101915084845b878110156115c55782840389528135601e1988360301811261157e578687fd5b8701803567ffffffffffffffff811115611596578788fd5b8036038913156115a4578788fd5b6115b186828985016115d2565b9a87019a955050509084019060010161155e565b5091979650505050505050565b81835281816020850137506000828201602090810191909152601f909101601f19169091010190565b8183823760009101908152919050565b7f416363657373436f6e74726f6c3a206163636f756e74200000000000000000008152600083516116438160178501602088016118d0565b7001034b99036b4b9b9b4b733903937b6329607d1b60179184019182015283516116748160288401602088016118d0565b01602801949350505050565b60018060a01b03851681528360208201526060604082015260006116a86060830184866115d2565b9695505050505050565b60018060a01b038716815285602082015260a0604082015260006116da60a0830186886115d2565b60608301949094525060800152949350505050565b60a0808252810188905260008960c08301825b8b811015611730576001600160a01b0361171b846111ea565b16825260209283019290910190600101611702565b5083810360208501528881526001600160fb1b0389111561174f578283fd5b8860051b9150818a6020830137016020818101838152848303909101604085015261177b81888a611545565b6060850196909652505050608001529695505050505050565b60208152600082518060208401526117b38160408501602087016118d0565b601f01601f19169190910160400192915050565b60208082526023908201527f54696d656c6f636b436f6e74726f6c6c65723a206c656e677468206d69736d616040820152620e8c6d60eb1b606082015260800190565b6020808252602a908201527f54696d656c6f636b436f6e74726f6c6c65723a206f7065726174696f6e206973604082015269206e6f7420726561647960b01b606082015260800190565b6000808335601e1984360301811261186a578283fd5b83018035915067ffffffffffffffff821115611884578283fd5b60200191503681900382131561124957600080fd5b600082198211156118ac576118ac611932565b500190565b60008160001904831182151516156118cb576118cb611932565b500290565b60005b838110156118eb5781810151838201526020016118d3565b838111156118fa576000848401525b50505050565b60008161190f5761190f611932565b506000190190565b600060001982141561192b5761192b611932565b5060010190565b634e487b7160e01b600052601160045260246000fdfeb09aa5aeb3702cfd50b6b62bc4532604938f21248a27a1d5ca736082b6819cc1a2646970667358221220c013088da03a0aed4baafa155a2dc51283c51213dd969e036fbbf473b63b074e64736f6c634300080400335f58e3a2316349923ce3780f8d587db2d72378aed66a8261c916544fa6846ca5b09aa5aeb3702cfd50b6b62bc4532604938f21248a27a1d5ca736082b6819cc1d8aa0f3194971a2a116679f7c2090f6939c8d4e01a2a8d7e41d55e5351469e63a264697066735822122073db5c69578f1e64c12bacd7a0a019ce357d7fb215857678f8c9b921bec22a8964736f6c63430008040033","bytecodeSha1":"7810b0be59cb8d0a471da6c4b2d134b42add6fa3","compiler":{"evm_version":"istanbul","optimizer":{"enabled":true,"runs":200},"version":"0.8.4+commit.c7e474f2"},"contractName":"HiveTimelockMachine","language":"Solidity","natspec":{"kind":"dev","methods":{},"version":1},"opcodes":"PUSH1 0x80 PUSH1 0x40 MSTORE CALLVALUE DUP1 ISZERO PUSH2 0x10 JUMPI PUSH1 0x0 DUP1 REVERT JUMPDEST POP PUSH1 0x4 CALLDATASIZE LT PUSH2 0x2B JUMPI PUSH1 0x0 CALLDATALOAD PUSH1 0xE0 SHR DUP1 PUSH4 0xEC861E29 EQ PUSH2 0x30 JUMPI JUMPDEST PUSH1 0x0 DUP1 REVERT JUMPDEST PUSH2 0x43 PUSH2 0x3E CALLDATASIZE PUSH1 0x4 PUSH2 0x1E1 JUMP JUMPDEST PUSH2 0x5F JUMP JUMPDEST PUSH1 0x40 MLOAD PUSH1 0x1 PUSH1 0x1 PUSH1 0xA0 SHL SUB SWAP1 SWAP2 AND DUP2 MSTORE PUSH1 0x20 ADD PUSH1 0x40 MLOAD DUP1 SWAP2 SUB SWAP1 RETURN JUMPDEST PUSH1 0x0 CALLER ADDRESS EQ PUSH2 0xCA JUMPI PUSH1 0x40 MLOAD PUSH3 0x461BCD PUSH1 0xE5 SHL DUP2 MSTORE PUSH1 0x20 PUSH1 0x4 DUP3 ADD MSTORE PUSH1 0x2D PUSH1 0x24 DUP3 ADD MSTORE PUSH32 0x4869766554696D656C6F636B4D616368696E653A2063616C6C6572206E6F7420 PUSH1 0x44 DUP3 ADD MSTORE PUSH13 0x1D1A1A5CC818DBDB9D1C9858DD PUSH1 0x9A SHL PUSH1 0x64 DUP3 ADD MSTORE PUSH1 0x84 ADD PUSH1 0x40 MLOAD DUP1 SWAP2 SUB SWAP1 REVERT JUMPDEST PUSH1 0x0 DUP6 DUP6 DUP6 DUP6 PUSH1 0x40 MLOAD PUSH2 0xDC SWAP1 PUSH2 0x113 JUMP JUMPDEST PUSH2 0xE8 SWAP4 SWAP3 SWAP2 SWAP1 PUSH2 0x298 JUMP JUMPDEST DUP2 SWAP1 PUSH1 0x40 MLOAD DUP1 SWAP2 SUB SWAP1 PUSH1 0x0 CREATE2 SWAP1 POP DUP1 ISZERO DUP1 ISZERO PUSH2 0x108 JUMPI RETURNDATASIZE PUSH1 0x0 DUP1 RETURNDATACOPY RETURNDATASIZE PUSH1 0x0 REVERT JUMPDEST POP SWAP7 SWAP6 POP POP POP POP POP POP JUMP JUMPDEST PUSH2 0x1E6C DUP1 PUSH2 0x2E4 DUP4 CODECOPY ADD SWAP1 JUMP JUMPDEST DUP1 CALLDATALOAD PUSH1 0x1 PUSH1 0x1 PUSH1 0xA0 SHL SUB DUP2 AND DUP2 EQ PUSH2 0x137 JUMPI PUSH1 0x0 DUP1 REVERT JUMPDEST SWAP2 SWAP1 POP JUMP JUMPDEST PUSH1 0x0 DUP3 PUSH1 0x1F DUP4 ADD SLT PUSH2 0x14C JUMPI DUP1 DUP2 REVERT JUMPDEST DUP2 CALLDATALOAD PUSH1 0x20 PUSH8 0xFFFFFFFFFFFFFFFF DUP1 DUP4 GT ISZERO PUSH2 0x169 JUMPI PUSH2 0x169 PUSH2 0x2CD JUMP JUMPDEST DUP3 PUSH1 0x5 SHL PUSH1 0x40 MLOAD PUSH1 0x1F NOT PUSH1 0x3F DUP4 ADD AND DUP2 ADD DUP2 DUP2 LT DUP5 DUP3 GT OR ISZERO PUSH2 0x18E JUMPI PUSH2 0x18E PUSH2 0x2CD JUMP JUMPDEST PUSH1 0x40 MSTORE DUP5 DUP2 MSTORE DUP4 DUP2 ADD SWAP3 POP DUP7 DUP5 ADD DUP3 DUP9 ADD DUP6 ADD DUP10 LT ISZERO PUSH2 0x1AC JUMPI DUP7 DUP8 REVERT JUMPDEST DUP7 SWAP3 POP JUMPDEST DUP6 DUP4 LT ISZERO PUSH2 0x1D5 JUMPI PUSH2 0x1C1 DUP2 PUSH2 0x120 JUMP JUMPDEST DUP5 MSTORE SWAP3 DUP5 ADD SWAP3 PUSH1 0x1 SWAP3 SWAP1 SWAP3 ADD SWAP2 DUP5 ADD PUSH2 0x1B0 JUMP JUMPDEST POP SWAP8 SWAP7 POP POP POP POP POP POP POP JUMP JUMPDEST PUSH1 0x0 DUP1 PUSH1 0x0 DUP1 PUSH1 0x80 DUP6 DUP8 SUB SLT ISZERO PUSH2 0x1F6 JUMPI DUP4 DUP5 REVERT JUMPDEST DUP5 CALLDATALOAD SWAP4 POP PUSH1 0x20 DUP6 ADD CALLDATALOAD SWAP3 POP PUSH1 0x40 DUP6 ADD CALLDATALOAD PUSH8 0xFFFFFFFFFFFFFFFF DUP1 DUP3 GT ISZERO PUSH2 0x21B JUMPI DUP4 DUP5 REVERT JUMPDEST PUSH2 0x227 DUP9 DUP4 DUP10 ADD PUSH2 0x13C JUMP JUMPDEST SWAP4 POP PUSH1 0x60 DUP8 ADD CALLDATALOAD SWAP2 POP DUP1 DUP3 GT ISZERO PUSH2 0x23C JUMPI DUP3 DUP4 REVERT JUMPDEST POP PUSH2 0x249 DUP8 DUP3 DUP9 ADD PUSH2 0x13C JUMP JUMPDEST SWAP2 POP POP SWAP3 SWAP6 SWAP2 SWAP5 POP SWAP3 POP JUMP JUMPDEST PUSH1 0x0 DUP2 MLOAD DUP1 DUP5 MSTORE PUSH1 0x20 DUP1 DUP6 ADD SWAP5 POP DUP1 DUP5 ADD DUP4 JUMPDEST DUP4 DUP2 LT ISZERO PUSH2 0x28D JUMPI DUP2 MLOAD PUSH1 0x1 PUSH1 0x1 PUSH1 0xA0 SHL SUB AND DUP8 MSTORE SWAP6 DUP3 ADD SWAP6 SWAP1 DUP3 ADD SWAP1 PUSH1 0x1 ADD PUSH2 0x268 JUMP JUMPDEST POP SWAP5 SWAP6 SWAP5 POP POP POP POP POP JUMP JUMPDEST DUP4 DUP2 MSTORE PUSH1 0x60 PUSH1 0x20 DUP3 ADD MSTORE PUSH1 0x0 PUSH2 0x2B1 PUSH1 0x60 DUP4 ADD DUP6 PUSH2 0x255 JUMP JUMPDEST DUP3 DUP2 SUB PUSH1 0x40 DUP5 ADD MSTORE PUSH2 0x2C3 DUP2 DUP6 PUSH2 0x255 JUMP JUMPDEST SWAP7 SWAP6 POP POP POP POP POP POP JUMP JUMPDEST PUSH4 0x4E487B71 PUSH1 0xE0 SHL PUSH1 0x0 MSTORE PUSH1 0x41 PUSH1 0x4 MSTORE PUSH1 0x24 PUSH1 0x0 REVERT INVALID PUSH1 0x80 PUSH1 0x40 MSTORE CALLVALUE DUP1 ISZERO PUSH3 0x11 JUMPI PUSH1 0x0 DUP1 REVERT JUMPDEST POP PUSH1 0x40 MLOAD PUSH3 0x1E6C CODESIZE SUB DUP1 PUSH3 0x1E6C DUP4 CODECOPY DUP2 ADD PUSH1 0x40 DUP2 SWAP1 MSTORE PUSH3 0x34 SWAP2 PUSH3 0x3AF JUMP JUMPDEST DUP3 DUP3 DUP3 PUSH3 0x52 PUSH1 0x0 DUP1 MLOAD PUSH1 0x20 PUSH3 0x1E0C DUP4 CODECOPY DUP2 MLOAD SWAP2 MSTORE DUP1 PUSH3 0x1E7 JUMP JUMPDEST PUSH3 0x7C PUSH1 0x0 DUP1 MLOAD PUSH1 0x20 PUSH3 0x1E2C DUP4 CODECOPY DUP2 MLOAD SWAP2 MSTORE PUSH1 0x0 DUP1 MLOAD PUSH1 0x20 PUSH3 0x1E0C DUP4 CODECOPY DUP2 MLOAD SWAP2 MSTORE PUSH3 0x1E7 JUMP JUMPDEST PUSH3 0xA6 PUSH1 0x0 DUP1 MLOAD PUSH1 0x20 PUSH3 0x1E4C DUP4 CODECOPY DUP2 MLOAD SWAP2 MSTORE PUSH1 0x0 DUP1 MLOAD PUSH1 0x20 PUSH3 0x1E0C DUP4 CODECOPY DUP2 MLOAD SWAP2 MSTORE PUSH3 0x1E7 JUMP JUMPDEST PUSH3 0xC1 PUSH1 0x0 DUP1 MLOAD PUSH1 0x20 PUSH3 0x1E0C DUP4 CODECOPY DUP2 MLOAD SWAP2 MSTORE CALLER PUSH3 0x232 JUMP JUMPDEST PUSH3 0xDC PUSH1 0x0 DUP1 MLOAD PUSH1 0x20 PUSH3 0x1E0C DUP4 CODECOPY DUP2 MLOAD SWAP2 MSTORE ADDRESS PUSH3 0x232 JUMP JUMPDEST PUSH1 0x0 JUMPDEST DUP3 MLOAD DUP2 LT ISZERO PUSH3 0x145 JUMPI PUSH3 0x132 PUSH1 0x0 DUP1 MLOAD PUSH1 0x20 PUSH3 0x1E2C DUP4 CODECOPY DUP2 MLOAD SWAP2 MSTORE DUP5 DUP4 DUP2 MLOAD DUP2 LT PUSH3 0x11E JUMPI PUSH4 0x4E487B71 PUSH1 0xE0 SHL PUSH1 0x0 MSTORE PUSH1 0x32 PUSH1 0x4 MSTORE PUSH1 0x24 PUSH1 0x0 REVERT JUMPDEST PUSH1 0x20 MUL PUSH1 0x20 ADD ADD MLOAD PUSH3 0x232 PUSH1 0x20 SHL PUSH1 0x20 SHR JUMP JUMPDEST PUSH3 0x13D DUP2 PUSH3 0x420 JUMP JUMPDEST SWAP1 POP PUSH3 0xDF JUMP JUMPDEST POP PUSH1 0x0 JUMPDEST DUP2 MLOAD DUP2 LT ISZERO PUSH3 0x19B JUMPI PUSH3 0x188 PUSH1 0x0 DUP1 MLOAD PUSH1 0x20 PUSH3 0x1E4C DUP4 CODECOPY DUP2 MLOAD SWAP2 MSTORE DUP4 DUP4 DUP2 MLOAD DUP2 LT PUSH3 0x11E JUMPI PUSH4 0x4E487B71 PUSH1 0xE0 SHL PUSH1 0x0 MSTORE PUSH1 0x32 PUSH1 0x4 MSTORE PUSH1 0x24 PUSH1 0x0 REVERT JUMPDEST PUSH3 0x193 DUP2 PUSH3 0x420 JUMP JUMPDEST SWAP1 POP PUSH3 0x149 JUMP JUMPDEST POP PUSH1 0x2 DUP4 SWAP1 SSTORE PUSH1 0x40 DUP1 MLOAD PUSH1 0x0 DUP2 MSTORE PUSH1 0x20 DUP2 ADD DUP6 SWAP1 MSTORE PUSH32 0x11C24F4EAD16507C69AC467FBD5E4EED5FB5C699626D2CC6D66421DF253886D5 SWAP2 ADD PUSH1 0x40 MLOAD DUP1 SWAP2 SUB SWAP1 LOG1 POP POP POP POP POP POP PUSH3 0x45E JUMP JUMPDEST PUSH1 0x0 DUP3 DUP2 MSTORE PUSH1 0x20 DUP2 SWAP1 MSTORE PUSH1 0x40 DUP1 DUP3 KECCAK256 PUSH1 0x1 ADD DUP1 SLOAD SWAP1 DUP5 SWAP1 SSTORE SWAP1 MLOAD SWAP1 SWAP2 DUP4 SWAP2 DUP4 SWAP2 DUP7 SWAP2 PUSH32 0xBD79B86FFE0AB8E8776151514217CD7CACD52C909F66475C3AF44E129F0B00FF SWAP2 SWAP1 LOG4 POP POP POP JUMP JUMPDEST PUSH3 0x23E DUP3 DUP3 PUSH3 0x242 JUMP JUMPDEST POP POP JUMP JUMPDEST PUSH1 0x0 DUP3 DUP2 MSTORE PUSH1 0x20 DUP2 DUP2 MSTORE PUSH1 0x40 DUP1 DUP4 KECCAK256 PUSH1 0x1 PUSH1 0x1 PUSH1 0xA0 SHL SUB DUP6 AND DUP5 MSTORE SWAP1 SWAP2 MSTORE SWAP1 KECCAK256 SLOAD PUSH1 0xFF AND PUSH3 0x23E JUMPI PUSH1 0x0 DUP3 DUP2 MSTORE PUSH1 0x20 DUP2 DUP2 MSTORE PUSH1 0x40 DUP1 DUP4 KECCAK256 PUSH1 0x1 PUSH1 0x1 PUSH1 0xA0 SHL SUB DUP6 AND DUP5 MSTORE SWAP1 SWAP2 MSTORE SWAP1 KECCAK256 DUP1 SLOAD PUSH1 0xFF NOT AND PUSH1 0x1 OR SWAP1 SSTORE PUSH3 0x29E CALLER SWAP1 JUMP JUMPDEST PUSH1 0x1 PUSH1 0x1 PUSH1 0xA0 SHL SUB AND DUP2 PUSH1 0x1 PUSH1 0x1 PUSH1 0xA0 SHL SUB AND DUP4 PUSH32 0x2F8788117E7EFF1D82E926EC794901D17C78024A50270940304540A733656F0D PUSH1 0x40 MLOAD PUSH1 0x40 MLOAD DUP1 SWAP2 SUB SWAP1 LOG4 POP POP JUMP JUMPDEST DUP1 MLOAD PUSH1 0x1 PUSH1 0x1 PUSH1 0xA0 SHL SUB DUP2 AND DUP2 EQ PUSH3 0x2FA JUMPI PUSH1 0x0 DUP1 REVERT JUMPDEST SWAP2 SWAP1 POP JUMP JUMPDEST PUSH1 0x0 DUP3 PUSH1 0x1F DUP4 ADD SLT PUSH3 0x310 JUMPI DUP1 DUP2 REVERT JUMPDEST DUP2 MLOAD PUSH1 0x20 PUSH1 0x1 PUSH1 0x1 PUSH1 0x40 SHL SUB DUP1 DUP4 GT ISZERO PUSH3 0x32F JUMPI PUSH3 0x32F PUSH3 0x448 JUMP JUMPDEST DUP3 PUSH1 0x5 SHL PUSH1 0x40 MLOAD PUSH1 0x1F NOT PUSH1 0x3F DUP4 ADD AND DUP2 ADD DUP2 DUP2 LT DUP5 DUP3 GT OR ISZERO PUSH3 0x357 JUMPI PUSH3 0x357 PUSH3 0x448 JUMP JUMPDEST PUSH1 0x40 MSTORE DUP5 DUP2 MSTORE DUP4 DUP2 ADD SWAP3 POP DUP7 DUP5 ADD DUP3 DUP9 ADD DUP6 ADD DUP10 LT ISZERO PUSH3 0x376 JUMPI DUP7 DUP8 REVERT JUMPDEST DUP7 SWAP3 POP JUMPDEST DUP6 DUP4 LT ISZERO PUSH3 0x3A3 JUMPI PUSH3 0x38E DUP2 PUSH3 0x2E2 JUMP JUMPDEST DUP5 MSTORE SWAP3 DUP5 ADD SWAP3 PUSH1 0x1 SWAP3 SWAP1 SWAP3 ADD SWAP2 DUP5 ADD PUSH3 0x37A JUMP JUMPDEST POP SWAP8 SWAP7 POP POP POP POP POP POP POP JUMP JUMPDEST PUSH1 0x0 DUP1 PUSH1 0x0 PUSH1 0x60 DUP5 DUP7 SUB SLT ISZERO PUSH3 0x3C4 JUMPI DUP3 DUP4 REVERT JUMPDEST DUP4 MLOAD PUSH1 0x20 DUP6 ADD MLOAD SWAP1 SWAP4 POP PUSH1 0x1 PUSH1 0x1 PUSH1 0x40 SHL SUB DUP1 DUP3 GT ISZERO PUSH3 0x3E3 JUMPI DUP4 DUP5 REVERT JUMPDEST PUSH3 0x3F1 DUP8 DUP4 DUP9 ADD PUSH3 0x2FF JUMP JUMPDEST SWAP4 POP PUSH1 0x40 DUP7 ADD MLOAD SWAP2 POP DUP1 DUP3 GT ISZERO PUSH3 0x407 JUMPI DUP3 DUP4 REVERT JUMPDEST POP PUSH3 0x416 DUP7 DUP3 DUP8 ADD PUSH3 0x2FF JUMP JUMPDEST SWAP2 POP POP SWAP3 POP SWAP3 POP SWAP3 JUMP JUMPDEST PUSH1 0x0 PUSH1 0x0 NOT DUP3 EQ ISZERO PUSH3 0x441 JUMPI PUSH4 0x4E487B71 PUSH1 0xE0 SHL DUP2 MSTORE PUSH1 0x11 PUSH1 0x4 MSTORE PUSH1 0x24 DUP2 REVERT JUMPDEST POP PUSH1 0x1 ADD SWAP1 JUMP JUMPDEST PUSH4 0x4E487B71 PUSH1 0xE0 SHL PUSH1 0x0 MSTORE PUSH1 0x41 PUSH1 0x4 MSTORE PUSH1 0x24 PUSH1 0x0 REVERT JUMPDEST PUSH2 0x199E DUP1 PUSH3 0x46E PUSH1 0x0 CODECOPY PUSH1 0x0 RETURN INVALID PUSH1 0x80 PUSH1 0x40 MSTORE PUSH1 0x4 CALLDATASIZE LT PUSH2 0x14F JUMPI PUSH1 0x0 CALLDATALOAD PUSH1 0xE0 SHR DUP1 PUSH4 0x64D62353 GT PUSH2 0xB6 JUMPI DUP1 PUSH4 0xB1C5F427 GT PUSH2 0x6F JUMPI DUP1 PUSH4 0xB1C5F427 EQ PUSH2 0x3F3 JUMPI DUP1 PUSH4 0xC4D252F5 EQ PUSH2 0x413 JUMPI DUP1 PUSH4 0xD45C4435 EQ PUSH2 0x433 JUMPI DUP1 PUSH4 0xD547741F EQ PUSH2 0x460 JUMPI DUP1 PUSH4 0xE38335E5 EQ PUSH2 0x480 JUMPI DUP1 PUSH4 0xF27A0C92 EQ PUSH2 0x493 JUMPI PUSH1 0x0 DUP1 REVERT JUMPDEST DUP1 PUSH4 0x64D62353 EQ PUSH2 0x33C JUMPI DUP1 PUSH4 0x8065657F EQ PUSH2 0x35C JUMPI DUP1 PUSH4 0x8F2A0BB0 EQ PUSH2 0x37C JUMPI DUP1 PUSH4 0x8F61F4F5 EQ PUSH2 0x39C JUMPI DUP1 PUSH4 0x91D14854 EQ PUSH2 0x3BE JUMPI DUP1 PUSH4 0xA217FDDF EQ PUSH2 0x3DE JUMPI PUSH1 0x0 DUP1 REVERT JUMPDEST DUP1 PUSH4 0x248A9CA3 GT PUSH2 0x108 JUMPI DUP1 PUSH4 0x248A9CA3 EQ PUSH2 0x25B JUMPI DUP1 PUSH4 0x2AB0F529 EQ PUSH2 0x28B JUMPI DUP1 PUSH4 0x2F2FF15D EQ PUSH2 0x2BC JUMPI DUP1 PUSH4 0x31D50750 EQ PUSH2 0x2DC JUMPI DUP1 PUSH4 0x36568ABE EQ PUSH2 0x2FC JUMPI DUP1 PUSH4 0x584B153E EQ PUSH2 0x31C JUMPI PUSH1 0x0 DUP1 REVERT JUMPDEST DUP1 PUSH4 0x1D5062A EQ PUSH2 0x15B JUMPI DUP1 PUSH4 0x1FFC9A7 EQ PUSH2 0x17D JUMPI DUP1 PUSH4 0x7BD0265 EQ PUSH2 0x1B2 JUMPI DUP1 PUSH4 0xD3CF6FC EQ PUSH2 0x1F4 JUMPI DUP1 PUSH4 0x134008D3 EQ PUSH2 0x228 JUMPI DUP1 PUSH4 0x13BC9F20 EQ PUSH2 0x23B JUMPI PUSH1 0x0 DUP1 REVERT JUMPDEST CALLDATASIZE PUSH2 0x156 JUMPI STOP JUMPDEST PUSH1 0x0 DUP1 REVERT JUMPDEST CALLVALUE DUP1 ISZERO PUSH2 0x167 JUMPI PUSH1 0x0 DUP1 REVERT JUMPDEST POP PUSH2 0x17B PUSH2 0x176 CALLDATASIZE PUSH1 0x4 PUSH2 0x1314 JUMP JUMPDEST PUSH2 0x4A8 JUMP JUMPDEST STOP JUMPDEST CALLVALUE DUP1 ISZERO PUSH2 0x189 JUMPI PUSH1 0x0 DUP1 REVERT JUMPDEST POP PUSH2 0x19D PUSH2 0x198 CALLDATASIZE PUSH1 0x4 PUSH2 0x151D JUMP JUMPDEST PUSH2 0x52C JUMP JUMPDEST PUSH1 0x40 MLOAD SWAP1 ISZERO ISZERO DUP2 MSTORE PUSH1 0x20 ADD JUMPDEST PUSH1 0x40 MLOAD DUP1 SWAP2 SUB SWAP1 RETURN JUMPDEST CALLVALUE DUP1 ISZERO PUSH2 0x1BE JUMPI PUSH1 0x0 DUP1 REVERT JUMPDEST POP PUSH2 0x1E6 PUSH32 0xD8AA0F3194971A2A116679F7C2090F6939C8D4E01A2A8D7E41D55E5351469E63 DUP2 JUMP JUMPDEST PUSH1 0x40 MLOAD SWAP1 DUP2 MSTORE PUSH1 0x20 ADD PUSH2 0x1A9 JUMP JUMPDEST CALLVALUE DUP1 ISZERO PUSH2 0x200 JUMPI PUSH1 0x0 DUP1 REVERT JUMPDEST POP PUSH2 0x1E6 PUSH32 0x5F58E3A2316349923CE3780F8D587DB2D72378AED66A8261C916544FA6846CA5 DUP2 JUMP JUMPDEST PUSH2 0x17B PUSH2 0x236 CALLDATASIZE PUSH1 0x4 PUSH2 0x12AA JUMP JUMPDEST PUSH2 0x563 JUMP JUMPDEST CALLVALUE DUP1 ISZERO PUSH2 0x247 JUMPI PUSH1 0x0 DUP1 REVERT JUMPDEST POP PUSH2 0x19D PUSH2 0x256 CALLDATASIZE PUSH1 0x4 PUSH2 0x14DA JUMP JUMPDEST PUSH2 0x5DB JUMP JUMPDEST CALLVALUE DUP1 ISZERO PUSH2 0x267 JUMPI PUSH1 0x0 DUP1 REVERT JUMPDEST POP PUSH2 0x1E6 PUSH2 0x276 CALLDATASIZE PUSH1 0x4 PUSH2 0x14DA JUMP JUMPDEST PUSH1 0x0 SWAP1 DUP2 MSTORE PUSH1 0x20 DUP2 SWAP1 MSTORE PUSH1 0x40 SWAP1 KECCAK256 PUSH1 0x1 ADD SLOAD SWAP1 JUMP JUMPDEST CALLVALUE DUP1 ISZERO PUSH2 0x297 JUMPI PUSH1 0x0 DUP1 REVERT JUMPDEST POP PUSH2 0x19D PUSH2 0x2A6 CALLDATASIZE PUSH1 0x4 PUSH2 0x14DA JUMP JUMPDEST PUSH1 0x0 SWAP1 DUP2 MSTORE PUSH1 0x1 PUSH1 0x20 DUP2 SWAP1 MSTORE PUSH1 0x40 SWAP1 SWAP2 KECCAK256 SLOAD EQ SWAP1 JUMP JUMPDEST CALLVALUE DUP1 ISZERO PUSH2 0x2C8 JUMPI PUSH1 0x0 DUP1 REVERT JUMPDEST POP PUSH2 0x17B PUSH2 0x2D7 CALLDATASIZE PUSH1 0x4 PUSH2 0x14F2 JUMP JUMPDEST PUSH2 0x601 JUMP JUMPDEST CALLVALUE DUP1 ISZERO PUSH2 0x2E8 JUMPI PUSH1 0x0 DUP1 REVERT JUMPDEST POP PUSH2 0x19D PUSH2 0x2F7 CALLDATASIZE PUSH1 0x4 PUSH2 0x14DA JUMP JUMPDEST PUSH2 0x62C JUMP JUMPDEST CALLVALUE DUP1 ISZERO PUSH2 0x308 JUMPI PUSH1 0x0 DUP1 REVERT JUMPDEST POP PUSH2 0x17B PUSH2 0x317 CALLDATASIZE PUSH1 0x4 PUSH2 0x14F2 JUMP JUMPDEST PUSH2 0x645 JUMP JUMPDEST CALLVALUE DUP1 ISZERO PUSH2 0x328 JUMPI PUSH1 0x0 DUP1 REVERT JUMPDEST POP PUSH2 0x19D PUSH2 0x337 CALLDATASIZE PUSH1 0x4 PUSH2 0x14DA JUMP JUMPDEST PUSH2 0x6C8 JUMP JUMPDEST CALLVALUE DUP1 ISZERO PUSH2 0x348 JUMPI PUSH1 0x0 DUP1 REVERT JUMPDEST POP PUSH2 0x17B PUSH2 0x357 CALLDATASIZE PUSH1 0x4 PUSH2 0x14DA JUMP JUMPDEST PUSH2 0x6DE JUMP JUMPDEST CALLVALUE DUP1 ISZERO PUSH2 0x368 JUMPI PUSH1 0x0 DUP1 REVERT JUMPDEST POP PUSH2 0x1E6 PUSH2 0x377 CALLDATASIZE PUSH1 0x4 PUSH2 0x12AA JUMP JUMPDEST PUSH2 0x782 JUMP JUMPDEST CALLVALUE DUP1 ISZERO PUSH2 0x388 JUMPI PUSH1 0x0 DUP1 REVERT JUMPDEST POP PUSH2 0x17B PUSH2 0x397 CALLDATASIZE PUSH1 0x4 PUSH2 0x142C JUMP JUMPDEST PUSH2 0x7C1 JUMP JUMPDEST CALLVALUE DUP1 ISZERO PUSH2 0x3A8 JUMPI PUSH1 0x0 DUP1 REVERT JUMPDEST POP PUSH2 0x1E6 PUSH1 0x0 DUP1 MLOAD PUSH1 0x20 PUSH2 0x1949 DUP4 CODECOPY DUP2 MLOAD SWAP2 MSTORE DUP2 JUMP JUMPDEST CALLVALUE DUP1 ISZERO PUSH2 0x3CA JUMPI PUSH1 0x0 DUP1 REVERT JUMPDEST POP PUSH2 0x19D PUSH2 0x3D9 CALLDATASIZE PUSH1 0x4 PUSH2 0x14F2 JUMP JUMPDEST PUSH2 0x92C JUMP JUMPDEST CALLVALUE DUP1 ISZERO PUSH2 0x3EA JUMPI PUSH1 0x0 DUP1 REVERT JUMPDEST POP PUSH2 0x1E6 PUSH1 0x0 DUP2 JUMP JUMPDEST CALLVALUE DUP1 ISZERO PUSH2 0x3FF JUMPI PUSH1 0x0 DUP1 REVERT JUMPDEST POP PUSH2 0x1E6 PUSH2 0x40E CALLDATASIZE PUSH1 0x4 PUSH2 0x1387 JUMP JUMPDEST PUSH2 0x955 JUMP JUMPDEST CALLVALUE DUP1 ISZERO PUSH2 0x41F JUMPI PUSH1 0x0 DUP1 REVERT JUMPDEST POP PUSH2 0x17B PUSH2 0x42E CALLDATASIZE PUSH1 0x4 PUSH2 0x14DA JUMP JUMPDEST PUSH2 0x99A JUMP JUMPDEST CALLVALUE DUP1 ISZERO PUSH2 0x43F JUMPI PUSH1 0x0 DUP1 REVERT JUMPDEST POP PUSH2 0x1E6 PUSH2 0x44E CALLDATASIZE PUSH1 0x4 PUSH2 0x14DA JUMP JUMPDEST PUSH1 0x0 SWAP1 DUP2 MSTORE PUSH1 0x1 PUSH1 0x20 MSTORE PUSH1 0x40 SWAP1 KECCAK256 SLOAD SWAP1 JUMP JUMPDEST CALLVALUE DUP1 ISZERO PUSH2 0x46C JUMPI PUSH1 0x0 DUP1 REVERT JUMPDEST POP PUSH2 0x17B PUSH2 0x47B CALLDATASIZE PUSH1 0x4 PUSH2 0x14F2 JUMP JUMPDEST PUSH2 0xA5E JUMP JUMPDEST PUSH2 0x17B PUSH2 0x48E CALLDATASIZE PUSH1 0x4 PUSH2 0x1387 JUMP JUMPDEST PUSH2 0xA84 JUMP JUMPDEST CALLVALUE DUP1 ISZERO PUSH2 0x49F JUMPI PUSH1 0x0 DUP1 REVERT JUMPDEST POP PUSH1 0x2 SLOAD PUSH2 0x1E6 JUMP JUMPDEST PUSH1 0x0 DUP1 MLOAD PUSH1 0x20 PUSH2 0x1949 DUP4 CODECOPY DUP2 MLOAD SWAP2 MSTORE PUSH2 0x4C1 DUP2 CALLER PUSH2 0xBE3 JUMP JUMPDEST PUSH1 0x0 PUSH2 0x4D1 DUP10 DUP10 DUP10 DUP10 DUP10 DUP10 PUSH2 0x782 JUMP JUMPDEST SWAP1 POP PUSH2 0x4DD DUP2 DUP5 PUSH2 0xC47 JUMP JUMPDEST PUSH1 0x0 DUP2 PUSH32 0x4CF4410CC57040E44862EF0F45F3DD5A5E02DB8EB8ADD648D4B0E236F1D07DCA DUP12 DUP12 DUP12 DUP12 DUP12 DUP11 PUSH1 0x40 MLOAD PUSH2 0x519 SWAP7 SWAP6 SWAP5 SWAP4 SWAP3 SWAP2 SWAP1 PUSH2 0x16B2 JUMP JUMPDEST PUSH1 0x40 MLOAD DUP1 SWAP2 SUB SWAP1 LOG3 POP POP POP POP POP POP POP POP POP JUMP JUMPDEST PUSH1 0x0 PUSH1 0x1 PUSH1 0x1 PUSH1 0xE0 SHL SUB NOT DUP3 AND PUSH4 0x7965DB0B PUSH1 0xE0 SHL EQ DUP1 PUSH2 0x55D JUMPI POP PUSH4 0x1FFC9A7 PUSH1 0xE0 SHL PUSH1 0x1 PUSH1 0x1 PUSH1 0xE0 SHL SUB NOT DUP4 AND EQ JUMPDEST SWAP3 SWAP2 POP POP JUMP JUMPDEST PUSH32 0xD8AA0F3194971A2A116679F7C2090F6939C8D4E01A2A8D7E41D55E5351469E63 PUSH2 0x58F DUP2 PUSH1 0x0 PUSH2 0x92C JUMP JUMPDEST PUSH2 0x59D JUMPI PUSH2 0x59D DUP2 CALLER PUSH2 0xBE3 JUMP JUMPDEST PUSH1 0x0 PUSH2 0x5AD DUP9 DUP9 DUP9 DUP9 DUP9 DUP9 PUSH2 0x782 JUMP JUMPDEST SWAP1 POP PUSH2 0x5B9 DUP2 DUP6 PUSH2 0xD36 JUMP JUMPDEST PUSH2 0x5C8 DUP2 PUSH1 0x0 DUP11 DUP11 DUP11 DUP11 PUSH2 0xDD2 JUMP JUMPDEST PUSH2 0x5D1 DUP2 PUSH2 0xEE6 JUMP JUMPDEST POP POP POP POP POP POP POP POP JUMP JUMPDEST PUSH1 0x0 DUP2 DUP2 MSTORE PUSH1 0x1 PUSH1 0x20 MSTORE PUSH1 0x40 DUP2 KECCAK256 SLOAD PUSH1 0x1 DUP2 GT DUP1 ISZERO PUSH2 0x5FA JUMPI POP TIMESTAMP DUP2 GT ISZERO JUMPDEST SWAP4 SWAP3 POP POP POP JUMP JUMPDEST PUSH1 0x0 DUP3 DUP2 MSTORE PUSH1 0x20 DUP2 SWAP1 MSTORE PUSH1 0x40 SWAP1 KECCAK256 PUSH1 0x1 ADD SLOAD PUSH2 0x61D DUP2 CALLER PUSH2 0xBE3 JUMP JUMPDEST PUSH2 0x627 DUP4 DUP4 PUSH2 0xF1F JUMP JUMPDEST POP POP POP JUMP JUMPDEST PUSH1 0x0 DUP2 DUP2 MSTORE PUSH1 0x1 PUSH1 0x20 MSTORE PUSH1 0x40 DUP2 KECCAK256 SLOAD DUP2 SWAP1 JUMPDEST GT SWAP3 SWAP2 POP POP JUMP JUMPDEST PUSH1 0x1 PUSH1 0x1 PUSH1 0xA0 SHL SUB DUP2 AND CALLER EQ PUSH2 0x6BA JUMPI PUSH1 0x40 MLOAD PUSH3 0x461BCD PUSH1 0xE5 SHL DUP2 MSTORE PUSH1 0x20 PUSH1 0x4 DUP3 ADD MSTORE PUSH1 0x2F PUSH1 0x24 DUP3 ADD MSTORE PUSH32 0x416363657373436F6E74726F6C3A2063616E206F6E6C792072656E6F756E6365 PUSH1 0x44 DUP3 ADD MSTORE PUSH15 0x103937B632B9903337B91039B2B633 PUSH1 0x89 SHL PUSH1 0x64 DUP3 ADD MSTORE PUSH1 0x84 ADD JUMPDEST PUSH1 0x40 MLOAD DUP1 SWAP2 SUB SWAP1 REVERT JUMPDEST PUSH2 0x6C4 DUP3 DUP3 PUSH2 0xFA3 JUMP JUMPDEST POP POP JUMP JUMPDEST PUSH1 0x0 DUP2 DUP2 MSTORE PUSH1 0x1 PUSH1 0x20 DUP2 SWAP1 MSTORE PUSH1 0x40 DUP3 KECCAK256 SLOAD PUSH2 0x63E JUMP JUMPDEST CALLER ADDRESS EQ PUSH2 0x741 JUMPI PUSH1 0x40 MLOAD PUSH3 0x461BCD PUSH1 0xE5 SHL DUP2 MSTORE PUSH1 0x20 PUSH1 0x4 DUP3 ADD MSTORE PUSH1 0x2B PUSH1 0x24 DUP3 ADD MSTORE PUSH32 0x54696D656C6F636B436F6E74726F6C6C65723A2063616C6C6572206D75737420 PUSH1 0x44 DUP3 ADD MSTORE PUSH11 0x62652074696D656C6F636B PUSH1 0xA8 SHL PUSH1 0x64 DUP3 ADD MSTORE PUSH1 0x84 ADD PUSH2 0x6B1 JUMP JUMPDEST PUSH1 0x2 SLOAD PUSH1 0x40 DUP1 MLOAD SWAP2 DUP3 MSTORE PUSH1 0x20 DUP3 ADD DUP4 SWAP1 MSTORE PUSH32 0x11C24F4EAD16507C69AC467FBD5E4EED5FB5C699626D2CC6D66421DF253886D5 SWAP2 ADD PUSH1 0x40 MLOAD DUP1 SWAP2 SUB SWAP1 LOG1 PUSH1 0x2 SSTORE JUMP JUMPDEST PUSH1 0x0 DUP7 DUP7 DUP7 DUP7 DUP7 DUP7 PUSH1 0x40 MLOAD PUSH1 0x20 ADD PUSH2 0x79F SWAP7 SWAP6 SWAP5 SWAP4 SWAP3 SWAP2 SWAP1 PUSH2 0x16B2 JUMP JUMPDEST PUSH1 0x40 MLOAD PUSH1 0x20 DUP2 DUP4 SUB SUB DUP2 MSTORE SWAP1 PUSH1 0x40 MSTORE DUP1 MLOAD SWAP1 PUSH1 0x20 ADD KECCAK256 SWAP1 POP SWAP7 SWAP6 POP POP POP POP POP POP JUMP JUMPDEST PUSH1 0x0 DUP1 MLOAD PUSH1 0x20 PUSH2 0x1949 DUP4 CODECOPY DUP2 MLOAD SWAP2 MSTORE PUSH2 0x7DA DUP2 CALLER PUSH2 0xBE3 JUMP JUMPDEST DUP9 DUP8 EQ PUSH2 0x7F9 JUMPI PUSH1 0x40 MLOAD PUSH3 0x461BCD PUSH1 0xE5 SHL DUP2 MSTORE PUSH1 0x4 ADD PUSH2 0x6B1 SWAP1 PUSH2 0x17C7 JUMP JUMPDEST DUP9 DUP6 EQ PUSH2 0x818 JUMPI PUSH1 0x40 MLOAD PUSH3 0x461BCD PUSH1 0xE5 SHL DUP2 MSTORE PUSH1 0x4 ADD PUSH2 0x6B1 SWAP1 PUSH2 0x17C7 JUMP JUMPDEST PUSH1 0x0 PUSH2 0x82A DUP12 DUP12 DUP12 DUP12 DUP12 DUP12 DUP12 DUP12 PUSH2 0x955 JUMP JUMPDEST SWAP1 POP PUSH2 0x836 DUP2 DUP5 PUSH2 0xC47 JUMP JUMPDEST PUSH1 0x0 JUMPDEST DUP11 DUP2 LT ISZERO PUSH2 0x91E JUMPI DUP1 DUP3 PUSH32 0x4CF4410CC57040E44862EF0F45F3DD5A5E02DB8EB8ADD648D4B0E236F1D07DCA DUP15 DUP15 DUP6 DUP2 DUP2 LT PUSH2 0x884 JUMPI PUSH4 0x4E487B71 PUSH1 0xE0 SHL PUSH1 0x0 MSTORE PUSH1 0x32 PUSH1 0x4 MSTORE PUSH1 0x24 PUSH1 0x0 REVERT JUMPDEST SWAP1 POP PUSH1 0x20 MUL ADD PUSH1 0x20 DUP2 ADD SWAP1 PUSH2 0x899 SWAP2 SWAP1 PUSH2 0x1290 JUMP JUMPDEST DUP14 DUP14 DUP7 DUP2 DUP2 LT PUSH2 0x8B9 JUMPI PUSH4 0x4E487B71 PUSH1 0xE0 SHL PUSH1 0x0 MSTORE PUSH1 0x32 PUSH1 0x4 MSTORE PUSH1 0x24 PUSH1 0x0 REVERT JUMPDEST SWAP1 POP PUSH1 0x20 MUL ADD CALLDATALOAD DUP13 DUP13 DUP8 DUP2 DUP2 LT PUSH2 0x8E0 JUMPI PUSH4 0x4E487B71 PUSH1 0xE0 SHL PUSH1 0x0 MSTORE PUSH1 0x32 PUSH1 0x4 MSTORE PUSH1 0x24 PUSH1 0x0 REVERT JUMPDEST SWAP1 POP PUSH1 0x20 MUL DUP2 ADD SWAP1 PUSH2 0x8F2 SWAP2 SWAP1 PUSH2 0x1854 JUMP JUMPDEST DUP13 DUP12 PUSH1 0x40 MLOAD PUSH2 0x906 SWAP7 SWAP6 SWAP5 SWAP4 SWAP3 SWAP2 SWAP1 PUSH2 0x16B2 JUMP JUMPDEST PUSH1 0x40 MLOAD DUP1 SWAP2 SUB SWAP1 LOG3 PUSH2 0x917 DUP2 PUSH2 0x1917 JUMP JUMPDEST SWAP1 POP PUSH2 0x839 JUMP JUMPDEST POP POP POP POP POP POP POP POP POP POP POP POP JUMP JUMPDEST PUSH1 0x0 SWAP2 DUP3 MSTORE PUSH1 0x20 DUP3 DUP2 MSTORE PUSH1 0x40 DUP1 DUP5 KECCAK256 PUSH1 0x1 PUSH1 0x1 PUSH1 0xA0 SHL SUB SWAP4 SWAP1 SWAP4 AND DUP5 MSTORE SWAP2 SWAP1 MSTORE SWAP1 KECCAK256 SLOAD PUSH1 0xFF AND SWAP1 JUMP JUMPDEST PUSH1 0x0 DUP9 DUP9 DUP9 DUP9 DUP9 DUP9 DUP9 DUP9 PUSH1 0x40 MLOAD PUSH1 0x20 ADD PUSH2 0x976 SWAP9 SWAP8 SWAP7 SWAP6 SWAP5 SWAP4 SWAP3 SWAP2 SWAP1 PUSH2 0x16EF JUMP JUMPDEST PUSH1 0x40 MLOAD PUSH1 0x20 DUP2 DUP4 SUB SUB DUP2 MSTORE SWAP1 PUSH1 0x40 MSTORE DUP1 MLOAD SWAP1 PUSH1 0x20 ADD KECCAK256 SWAP1 POP SWAP9 SWAP8 POP POP POP POP POP POP POP POP JUMP JUMPDEST PUSH1 0x0 DUP1 MLOAD PUSH1 0x20 PUSH2 0x1949 DUP4 CODECOPY DUP2 MLOAD SWAP2 MSTORE PUSH2 0x9B3 DUP2 CALLER PUSH2 0xBE3 JUMP JUMPDEST PUSH2 0x9BC DUP3 PUSH2 0x6C8 JUMP JUMPDEST PUSH2 0xA22 JUMPI PUSH1 0x40 MLOAD PUSH3 0x461BCD PUSH1 0xE5 SHL DUP2 MSTORE PUSH1 0x20 PUSH1 0x4 DUP3 ADD MSTORE PUSH1 0x31 PUSH1 0x24 DUP3 ADD MSTORE PUSH32 0x54696D656C6F636B436F6E74726F6C6C65723A206F7065726174696F6E206361 PUSH1 0x44 DUP3 ADD MSTORE PUSH17 0x1B9B9BDD0818994818D85B98D95B1B1959 PUSH1 0x7A SHL PUSH1 0x64 DUP3 ADD MSTORE PUSH1 0x84 ADD PUSH2 0x6B1 JUMP JUMPDEST PUSH1 0x0 DUP3 DUP2 MSTORE PUSH1 0x1 PUSH1 0x20 MSTORE PUSH1 0x40 DUP1 DUP3 KECCAK256 DUP3 SWAP1 SSTORE MLOAD DUP4 SWAP2 PUSH32 0xBAA1EB22F2A492BA1A5FEA61B8DF4D27C6C8B5F3971E63BB58FA14FF72EEDB70 SWAP2 LOG2 POP POP JUMP JUMPDEST PUSH1 0x0 DUP3 DUP2 MSTORE PUSH1 0x20 DUP2 SWAP1 MSTORE PUSH1 0x40 SWAP1 KECCAK256 PUSH1 0x1 ADD SLOAD PUSH2 0xA7A DUP2 CALLER PUSH2 0xBE3 JUMP JUMPDEST PUSH2 0x627 DUP4 DUP4 PUSH2 0xFA3 JUMP JUMPDEST PUSH32 0xD8AA0F3194971A2A116679F7C2090F6939C8D4E01A2A8D7E41D55E5351469E63 PUSH2 0xAB0 DUP2 PUSH1 0x0 PUSH2 0x92C JUMP JUMPDEST PUSH2 0xABE JUMPI PUSH2 0xABE DUP2 CALLER PUSH2 0xBE3 JUMP JUMPDEST DUP8 DUP7 EQ PUSH2 0xADD JUMPI PUSH1 0x40 MLOAD PUSH3 0x461BCD PUSH1 0xE5 SHL DUP2 MSTORE PUSH1 0x4 ADD PUSH2 0x6B1 SWAP1 PUSH2 0x17C7 JUMP JUMPDEST DUP8 DUP5 EQ PUSH2 0xAFC JUMPI PUSH1 0x40 MLOAD PUSH3 0x461BCD PUSH1 0xE5 SHL DUP2 MSTORE PUSH1 0x4 ADD PUSH2 0x6B1 SWAP1 PUSH2 0x17C7 JUMP JUMPDEST PUSH1 0x0 PUSH2 0xB0E DUP11 DUP11 DUP11 DUP11 DUP11 DUP11 DUP11 DUP11 PUSH2 0x955 JUMP JUMPDEST SWAP1 POP PUSH2 0xB1A DUP2 DUP6 PUSH2 0xD36 JUMP JUMPDEST PUSH1 0x0 JUMPDEST DUP10 DUP2 LT ISZERO PUSH2 0xBCD JUMPI PUSH2 0xBBD DUP3 DUP3 DUP14 DUP14 DUP6 DUP2 DUP2 LT PUSH2 0xB4A JUMPI PUSH4 0x4E487B71 PUSH1 0xE0 SHL PUSH1 0x0 MSTORE PUSH1 0x32 PUSH1 0x4 MSTORE PUSH1 0x24 PUSH1 0x0 REVERT JUMPDEST SWAP1 POP PUSH1 0x20 MUL ADD PUSH1 0x20 DUP2 ADD SWAP1 PUSH2 0xB5F SWAP2 SWAP1 PUSH2 0x1290 JUMP JUMPDEST DUP13 DUP13 DUP7 DUP2 DUP2 LT PUSH2 0xB7F JUMPI PUSH4 0x4E487B71 PUSH1 0xE0 SHL PUSH1 0x0 MSTORE PUSH1 0x32 PUSH1 0x4 MSTORE PUSH1 0x24 PUSH1 0x0 REVERT JUMPDEST SWAP1 POP PUSH1 0x20 MUL ADD CALLDATALOAD DUP12 DUP12 DUP8 DUP2 DUP2 LT PUSH2 0xBA6 JUMPI PUSH4 0x4E487B71 PUSH1 0xE0 SHL PUSH1 0x0 MSTORE PUSH1 0x32 PUSH1 0x4 MSTORE PUSH1 0x24 PUSH1 0x0 REVERT JUMPDEST SWAP1 POP PUSH1 0x20 MUL DUP2 ADD SWAP1 PUSH2 0xBB8 SWAP2 SWAP1 PUSH2 0x1854 JUMP JUMPDEST PUSH2 0xDD2 JUMP JUMPDEST PUSH2 0xBC6 DUP2 PUSH2 0x1917 JUMP JUMPDEST SWAP1 POP PUSH2 0xB1D JUMP JUMPDEST POP PUSH2 0xBD7 DUP2 PUSH2 0xEE6 JUMP JUMPDEST POP POP POP POP POP POP POP POP POP POP JUMP JUMPDEST PUSH2 0xBED DUP3 DUP3 PUSH2 0x92C JUMP JUMPDEST PUSH2 0x6C4 JUMPI PUSH2 0xC05 DUP2 PUSH1 0x1 PUSH1 0x1 PUSH1 0xA0 SHL SUB AND PUSH1 0x14 PUSH2 0x1008 JUMP JUMPDEST PUSH2 0xC10 DUP4 PUSH1 0x20 PUSH2 0x1008 JUMP JUMPDEST PUSH1 0x40 MLOAD PUSH1 0x20 ADD PUSH2 0xC21 SWAP3 SWAP2 SWAP1 PUSH2 0x160B JUMP JUMPDEST PUSH1 0x40 DUP1 MLOAD PUSH1 0x1F NOT DUP2 DUP5 SUB ADD DUP2 MSTORE SWAP1 DUP3 SWAP1 MSTORE PUSH3 0x461BCD PUSH1 0xE5 SHL DUP3 MSTORE PUSH2 0x6B1 SWAP2 PUSH1 0x4 ADD PUSH2 0x1794 JUMP JUMPDEST PUSH2 0xC50 DUP3 PUSH2 0x62C JUMP JUMPDEST ISZERO PUSH2 0xCB5 JUMPI PUSH1 0x40 MLOAD PUSH3 0x461BCD PUSH1 0xE5 SHL DUP2 MSTORE PUSH1 0x20 PUSH1 0x4 DUP3 ADD MSTORE PUSH1 0x2F PUSH1 0x24 DUP3 ADD MSTORE PUSH32 0x54696D656C6F636B436F6E74726F6C6C65723A206F7065726174696F6E20616C PUSH1 0x44 DUP3 ADD MSTORE PUSH15 0x1C9958591E481CD8DA19591D5B1959 PUSH1 0x8A SHL PUSH1 0x64 DUP3 ADD MSTORE PUSH1 0x84 ADD PUSH2 0x6B1 JUMP JUMPDEST PUSH1 0x2 SLOAD DUP2 LT ISZERO PUSH2 0xD16 JUMPI PUSH1 0x40 MLOAD PUSH3 0x461BCD PUSH1 0xE5 SHL DUP2 MSTORE PUSH1 0x20 PUSH1 0x4 DUP3 ADD MSTORE PUSH1 0x26 PUSH1 0x24 DUP3 ADD MSTORE PUSH32 0x54696D656C6F636B436F6E74726F6C6C65723A20696E73756666696369656E74 PUSH1 0x44 DUP3 ADD MSTORE PUSH6 0x2064656C6179 PUSH1 0xD0 SHL PUSH1 0x64 DUP3 ADD MSTORE PUSH1 0x84 ADD PUSH2 0x6B1 JUMP JUMPDEST PUSH2 0xD20 DUP2 TIMESTAMP PUSH2 0x1899 JUMP JUMPDEST PUSH1 0x0 SWAP3 DUP4 MSTORE PUSH1 0x1 PUSH1 0x20 MSTORE PUSH1 0x40 SWAP1 SWAP3 KECCAK256 SWAP2 SWAP1 SWAP2 SSTORE POP JUMP JUMPDEST PUSH2 0xD3F DUP3 PUSH2 0x5DB JUMP JUMPDEST PUSH2 0xD5B JUMPI PUSH1 0x40 MLOAD PUSH3 0x461BCD PUSH1 0xE5 SHL DUP2 MSTORE PUSH1 0x4 ADD PUSH2 0x6B1 SWAP1 PUSH2 0x180A JUMP JUMPDEST DUP1 ISZERO DUP1 PUSH2 0xD77 JUMPI POP PUSH1 0x0 DUP2 DUP2 MSTORE PUSH1 0x1 PUSH1 0x20 DUP2 SWAP1 MSTORE PUSH1 0x40 SWAP1 SWAP2 KECCAK256 SLOAD EQ JUMPDEST PUSH2 0x6C4 JUMPI PUSH1 0x40 MLOAD PUSH3 0x461BCD PUSH1 0xE5 SHL DUP2 MSTORE PUSH1 0x20 PUSH1 0x4 DUP3 ADD MSTORE PUSH1 0x26 PUSH1 0x24 DUP3 ADD MSTORE PUSH32 0x54696D656C6F636B436F6E74726F6C6C65723A206D697373696E672064657065 PUSH1 0x44 DUP3 ADD MSTORE PUSH6 0x6E64656E6379 PUSH1 0xD0 SHL PUSH1 0x64 DUP3 ADD MSTORE PUSH1 0x84 ADD PUSH2 0x6B1 JUMP JUMPDEST PUSH1 0x0 DUP5 PUSH1 0x1 PUSH1 0x1 PUSH1 0xA0 SHL SUB AND DUP5 DUP5 DUP5 PUSH1 0x40 MLOAD PUSH2 0xDEF SWAP3 SWAP2 SWAP1 PUSH2 0x15FB JUMP JUMPDEST PUSH1 0x0 PUSH1 0x40 MLOAD DUP1 DUP4 SUB DUP2 DUP6 DUP8 GAS CALL SWAP3 POP POP POP RETURNDATASIZE DUP1 PUSH1 0x0 DUP2 EQ PUSH2 0xE2C JUMPI PUSH1 0x40 MLOAD SWAP2 POP PUSH1 0x1F NOT PUSH1 0x3F RETURNDATASIZE ADD AND DUP3 ADD PUSH1 0x40 MSTORE RETURNDATASIZE DUP3 MSTORE RETURNDATASIZE PUSH1 0x0 PUSH1 0x20 DUP5 ADD RETURNDATACOPY PUSH2 0xE31 JUMP JUMPDEST PUSH1 0x60 SWAP2 POP JUMPDEST POP POP SWAP1 POP DUP1 PUSH2 0xE9E JUMPI PUSH1 0x40 MLOAD PUSH3 0x461BCD PUSH1 0xE5 SHL DUP2 MSTORE PUSH1 0x20 PUSH1 0x4 DUP3 ADD MSTORE PUSH1 0x33 PUSH1 0x24 DUP3 ADD MSTORE PUSH32 0x54696D656C6F636B436F6E74726F6C6C65723A20756E6465726C79696E672074 PUSH1 0x44 DUP3 ADD MSTORE PUSH19 0x1C985B9CD858DD1A5BDB881C995D995C9D1959 PUSH1 0x6A SHL PUSH1 0x64 DUP3 ADD MSTORE PUSH1 0x84 ADD PUSH2 0x6B1 JUMP JUMPDEST DUP6 DUP8 PUSH32 0xC2617EFA69BAB66782FA219543714338489C4E9E178271560A91B82C3F612B58 DUP8 DUP8 DUP8 DUP8 PUSH1 0x40 MLOAD PUSH2 0xED5 SWAP5 SWAP4 SWAP3 SWAP2 SWAP1 PUSH2 0x1680 JUMP JUMPDEST PUSH1 0x40 MLOAD DUP1 SWAP2 SUB SWAP1 LOG3 POP POP POP POP POP POP POP JUMP JUMPDEST PUSH2 0xEEF DUP2 PUSH2 0x5DB JUMP JUMPDEST PUSH2 0xF0B JUMPI PUSH1 0x40 MLOAD PUSH3 0x461BCD PUSH1 0xE5 SHL DUP2 MSTORE PUSH1 0x4 ADD PUSH2 0x6B1 SWAP1 PUSH2 0x180A JUMP JUMPDEST PUSH1 0x0 SWAP1 DUP2 MSTORE PUSH1 0x1 PUSH1 0x20 DUP2 SWAP1 MSTORE PUSH1 0x40 SWAP1 SWAP2 KECCAK256 SSTORE JUMP JUMPDEST PUSH2 0xF29 DUP3 DUP3 PUSH2 0x92C JUMP JUMPDEST PUSH2 0x6C4 JUMPI PUSH1 0x0 DUP3 DUP2 MSTORE PUSH1 0x20 DUP2 DUP2 MSTORE PUSH1 0x40 DUP1 DUP4 KECCAK256 PUSH1 0x1 PUSH1 0x1 PUSH1 0xA0 SHL SUB DUP6 AND DUP5 MSTORE SWAP1 SWAP2 MSTORE SWAP1 KECCAK256 DUP1 SLOAD PUSH1 0xFF NOT AND PUSH1 0x1 OR SWAP1 SSTORE PUSH2 0xF5F CALLER SWAP1 JUMP JUMPDEST PUSH1 0x1 PUSH1 0x1 PUSH1 0xA0 SHL SUB AND DUP2 PUSH1 0x1 PUSH1 0x1 PUSH1 0xA0 SHL SUB AND DUP4 PUSH32 0x2F8788117E7EFF1D82E926EC794901D17C78024A50270940304540A733656F0D PUSH1 0x40 MLOAD PUSH1 0x40 MLOAD DUP1 SWAP2 SUB SWAP1 LOG4 POP POP JUMP JUMPDEST PUSH2 0xFAD DUP3 DUP3 PUSH2 0x92C JUMP JUMPDEST ISZERO PUSH2 0x6C4 JUMPI PUSH1 0x0 DUP3 DUP2 MSTORE PUSH1 0x20 DUP2 DUP2 MSTORE PUSH1 0x40 DUP1 DUP4 KECCAK256 PUSH1 0x1 PUSH1 0x1 PUSH1 0xA0 SHL SUB DUP6 AND DUP1 DUP6 MSTORE SWAP3 MSTORE DUP1 DUP4 KECCAK256 DUP1 SLOAD PUSH1 0xFF NOT AND SWAP1 SSTORE MLOAD CALLER SWAP3 DUP6 SWAP2 PUSH32 0xF6391F5C32D9C69D2A47EA670B442974B53935D1EDC7FD64EB21E047A839171B SWAP2 SWAP1 LOG4 POP POP JUMP JUMPDEST PUSH1 0x60 PUSH1 0x0 PUSH2 0x1017 DUP4 PUSH1 0x2 PUSH2 0x18B1 JUMP JUMPDEST PUSH2 0x1022 SWAP1 PUSH1 0x2 PUSH2 0x1899 JUMP JUMPDEST PUSH8 0xFFFFFFFFFFFFFFFF DUP2 GT ISZERO PUSH2 0x1048 JUMPI PUSH4 0x4E487B71 PUSH1 0xE0 SHL PUSH1 0x0 MSTORE PUSH1 0x41 PUSH1 0x4 MSTORE PUSH1 0x24 PUSH1 0x0 REVERT JUMPDEST PUSH1 0x40 MLOAD SWAP1 DUP1 DUP3 MSTORE DUP1 PUSH1 0x1F ADD PUSH1 0x1F NOT AND PUSH1 0x20 ADD DUP3 ADD PUSH1 0x40 MSTORE DUP1 ISZERO PUSH2 0x1072 JUMPI PUSH1 0x20 DUP3 ADD DUP2 DUP1 CALLDATASIZE DUP4 CALLDATACOPY ADD SWAP1 POP JUMPDEST POP SWAP1 POP PUSH1 0x3 PUSH1 0xFC SHL DUP2 PUSH1 0x0 DUP2 MLOAD DUP2 LT PUSH2 0x109B JUMPI PUSH4 0x4E487B71 PUSH1 0xE0 SHL PUSH1 0x0 MSTORE PUSH1 0x32 PUSH1 0x4 MSTORE PUSH1 0x24 PUSH1 0x0 REVERT JUMPDEST PUSH1 0x20 ADD ADD SWAP1 PUSH1 0x1 PUSH1 0x1 PUSH1 0xF8 SHL SUB NOT AND SWAP1 DUP2 PUSH1 0x0 BYTE SWAP1 MSTORE8 POP PUSH1 0xF PUSH1 0xFB SHL DUP2 PUSH1 0x1 DUP2 MLOAD DUP2 LT PUSH2 0x10D8 JUMPI PUSH4 0x4E487B71 PUSH1 0xE0 SHL PUSH1 0x0 MSTORE PUSH1 0x32 PUSH1 0x4 MSTORE PUSH1 0x24 PUSH1 0x0 REVERT JUMPDEST PUSH1 0x20 ADD ADD SWAP1 PUSH1 0x1 PUSH1 0x1 PUSH1 0xF8 SHL SUB NOT AND SWAP1 DUP2 PUSH1 0x0 BYTE SWAP1 MSTORE8 POP PUSH1 0x0 PUSH2 0x10FC DUP5 PUSH1 0x2 PUSH2 0x18B1 JUMP JUMPDEST PUSH2 0x1107 SWAP1 PUSH1 0x1 PUSH2 0x1899 JUMP JUMPDEST SWAP1 POP JUMPDEST PUSH1 0x1 DUP2 GT ISZERO PUSH2 0x119B JUMPI PUSH16 0x181899199A1A9B1B9C1CB0B131B232B3 PUSH1 0x81 SHL DUP6 PUSH1 0xF AND PUSH1 0x10 DUP2 LT PUSH2 0x1149 JUMPI PUSH4 0x4E487B71 PUSH1 0xE0 SHL PUSH1 0x0 MSTORE PUSH1 0x32 PUSH1 0x4 MSTORE PUSH1 0x24 PUSH1 0x0 REVERT JUMPDEST BYTE PUSH1 0xF8 SHL DUP3 DUP3 DUP2 MLOAD DUP2 LT PUSH2 0x116D JUMPI PUSH4 0x4E487B71 PUSH1 0xE0 SHL PUSH1 0x0 MSTORE PUSH1 0x32 PUSH1 0x4 MSTORE PUSH1 0x24 PUSH1 0x0 REVERT JUMPDEST PUSH1 0x20 ADD ADD SWAP1 PUSH1 0x1 PUSH1 0x1 PUSH1 0xF8 SHL SUB NOT AND SWAP1 DUP2 PUSH1 0x0 BYTE SWAP1 MSTORE8 POP PUSH1 0x4 SWAP5 SWAP1 SWAP5 SHR SWAP4 PUSH2 0x1194 DUP2 PUSH2 0x1900 JUMP JUMPDEST SWAP1 POP PUSH2 0x110A JUMP JUMPDEST POP DUP4 ISZERO PUSH2 0x5FA JUMPI PUSH1 0x40 MLOAD PUSH3 0x461BCD PUSH1 0xE5 SHL DUP2 MSTORE PUSH1 0x20 PUSH1 0x4 DUP3 ADD DUP2 SWAP1 MSTORE PUSH1 0x24 DUP3 ADD MSTORE PUSH32 0x537472696E67733A20686578206C656E67746820696E73756666696369656E74 PUSH1 0x44 DUP3 ADD MSTORE PUSH1 0x64 ADD PUSH2 0x6B1 JUMP JUMPDEST DUP1 CALLDATALOAD PUSH1 0x1 PUSH1 0x1 PUSH1 0xA0 SHL SUB DUP2 AND DUP2 EQ PUSH2 0x1201 JUMPI PUSH1 0x0 DUP1 REVERT JUMPDEST SWAP2 SWAP1 POP JUMP JUMPDEST PUSH1 0x0 DUP1 DUP4 PUSH1 0x1F DUP5 ADD SLT PUSH2 0x1217 JUMPI DUP2 DUP3 REVERT JUMPDEST POP DUP2 CALLDATALOAD PUSH8 0xFFFFFFFFFFFFFFFF DUP2 GT ISZERO PUSH2 0x122E JUMPI DUP2 DUP3 REVERT JUMPDEST PUSH1 0x20 DUP4 ADD SWAP2 POP DUP4 PUSH1 0x20 DUP3 PUSH1 0x5 SHL DUP6 ADD ADD GT ISZERO PUSH2 0x1249 JUMPI PUSH1 0x0 DUP1 REVERT JUMPDEST SWAP3 POP SWAP3 SWAP1 POP JUMP JUMPDEST PUSH1 0x0 DUP1 DUP4 PUSH1 0x1F DUP5 ADD SLT PUSH2 0x1261 JUMPI DUP2 DUP3 REVERT JUMPDEST POP DUP2 CALLDATALOAD PUSH8 0xFFFFFFFFFFFFFFFF DUP2 GT ISZERO PUSH2 0x1278 JUMPI DUP2 DUP3 REVERT JUMPDEST PUSH1 0x20 DUP4 ADD SWAP2 POP DUP4 PUSH1 0x20 DUP3 DUP6 ADD ADD GT ISZERO PUSH2 0x1249 JUMPI PUSH1 0x0 DUP1 REVERT JUMPDEST PUSH1 0x0 PUSH1 0x20 DUP3 DUP5 SUB SLT ISZERO PUSH2 0x12A1 JUMPI DUP1 DUP2 REVERT JUMPDEST PUSH2 0x5FA DUP3 PUSH2 0x11EA JUMP JUMPDEST PUSH1 0x0 DUP1 PUSH1 0x0 DUP1 PUSH1 0x0 DUP1 PUSH1 0xA0 DUP8 DUP10 SUB SLT ISZERO PUSH2 0x12C2 JUMPI DUP2 DUP3 REVERT JUMPDEST PUSH2 0x12CB DUP8 PUSH2 0x11EA JUMP JUMPDEST SWAP6 POP PUSH1 0x20 DUP8 ADD CALLDATALOAD SWAP5 POP PUSH1 0x40 DUP8 ADD CALLDATALOAD PUSH8 0xFFFFFFFFFFFFFFFF DUP2 GT ISZERO PUSH2 0x12ED JUMPI DUP3 DUP4 REVERT JUMPDEST PUSH2 0x12F9 DUP10 DUP3 DUP11 ADD PUSH2 0x1250 JUMP JUMPDEST SWAP8 SWAP11 SWAP7 SWAP10 POP SWAP8 PUSH1 0x60 DUP2 ADD CALLDATALOAD SWAP7 PUSH1 0x80 SWAP1 SWAP2 ADD CALLDATALOAD SWAP6 POP SWAP4 POP POP POP POP JUMP JUMPDEST PUSH1 0x0 DUP1 PUSH1 0x0 DUP1 PUSH1 0x0 DUP1 PUSH1 0x0 PUSH1 0xC0 DUP9 DUP11 SUB SLT ISZERO PUSH2 0x132E JUMPI DUP1 DUP2 REVERT JUMPDEST PUSH2 0x1337 DUP9 PUSH2 0x11EA JUMP JUMPDEST SWAP7 POP PUSH1 0x20 DUP9 ADD CALLDATALOAD SWAP6 POP PUSH1 0x40 DUP9 ADD CALLDATALOAD PUSH8 0xFFFFFFFFFFFFFFFF DUP2 GT ISZERO PUSH2 0x1359 JUMPI DUP2 DUP3 REVERT JUMPDEST PUSH2 0x1365 DUP11 DUP3 DUP12 ADD PUSH2 0x1250 JUMP JUMPDEST SWAP9 SWAP12 SWAP8 SWAP11 POP SWAP9 PUSH1 0x60 DUP2 ADD CALLDATALOAD SWAP8 PUSH1 0x80 DUP3 ADD CALLDATALOAD SWAP8 POP PUSH1 0xA0 SWAP1 SWAP2 ADD CALLDATALOAD SWAP6 POP SWAP4 POP POP POP POP JUMP JUMPDEST PUSH1 0x0 DUP1 PUSH1 0x0 DUP1 PUSH1 0x0 DUP1 PUSH1 0x0 DUP1 PUSH1 0xA0 DUP10 DUP12 SUB SLT ISZERO PUSH2 0x13A2 JUMPI DUP1 DUP2 REVERT JUMPDEST DUP9 CALLDATALOAD PUSH8 0xFFFFFFFFFFFFFFFF DUP1 DUP3 GT ISZERO PUSH2 0x13B9 JUMPI DUP3 DUP4 REVERT JUMPDEST PUSH2 0x13C5 DUP13 DUP4 DUP14 ADD PUSH2 0x1206 JUMP JUMPDEST SWAP1 SWAP11 POP SWAP9 POP PUSH1 0x20 DUP12 ADD CALLDATALOAD SWAP2 POP DUP1 DUP3 GT ISZERO PUSH2 0x13DD JUMPI DUP3 DUP4 REVERT JUMPDEST PUSH2 0x13E9 DUP13 DUP4 DUP14 ADD PUSH2 0x1206 JUMP JUMPDEST SWAP1 SWAP9 POP SWAP7 POP PUSH1 0x40 DUP12 ADD CALLDATALOAD SWAP2 POP DUP1 DUP3 GT ISZERO PUSH2 0x1401 JUMPI DUP3 DUP4 REVERT JUMPDEST POP PUSH2 0x140E DUP12 DUP3 DUP13 ADD PUSH2 0x1206 JUMP JUMPDEST SWAP10 SWAP13 SWAP9 SWAP12 POP SWAP7 SWAP10 SWAP6 SWAP9 SWAP7 SWAP8 PUSH1 0x60 DUP8 ADD CALLDATALOAD SWAP7 PUSH1 0x80 ADD CALLDATALOAD SWAP6 POP SWAP4 POP POP POP POP JUMP JUMPDEST PUSH1 0x0 DUP1 PUSH1 0x0 DUP1 PUSH1 0x0 DUP1 PUSH1 0x0 DUP1 PUSH1 0x0 PUSH1 0xC0 DUP11 DUP13 SUB SLT ISZERO PUSH2 0x1449 JUMPI DUP1 DUP2 REVERT JUMPDEST DUP10 CALLDATALOAD PUSH8 0xFFFFFFFFFFFFFFFF DUP1 DUP3 GT ISZERO PUSH2 0x1460 JUMPI DUP3 DUP4 REVERT JUMPDEST PUSH2 0x146C DUP14 DUP4 DUP15 ADD PUSH2 0x1206 JUMP JUMPDEST SWAP1 SWAP12 POP SWAP10 POP PUSH1 0x20 DUP13 ADD CALLDATALOAD SWAP2 POP DUP1 DUP3 GT ISZERO PUSH2 0x1484 JUMPI DUP3 DUP4 REVERT JUMPDEST PUSH2 0x1490 DUP14 DUP4 DUP15 ADD PUSH2 0x1206 JUMP JUMPDEST SWAP1 SWAP10 POP SWAP8 POP PUSH1 0x40 DUP13 ADD CALLDATALOAD SWAP2 POP DUP1 DUP3 GT ISZERO PUSH2 0x14A8 JUMPI DUP3 DUP4 REVERT JUMPDEST POP PUSH2 0x14B5 DUP13 DUP3 DUP14 ADD PUSH2 0x1206 JUMP JUMPDEST SWAP11 SWAP14 SWAP10 SWAP13 POP SWAP8 SWAP11 SWAP7 SWAP10 SWAP8 SWAP9 PUSH1 0x60 DUP9 ADD CALLDATALOAD SWAP8 PUSH1 0x80 DUP2 ADD CALLDATALOAD SWAP8 POP PUSH1 0xA0 ADD CALLDATALOAD SWAP6 POP SWAP4 POP POP POP POP JUMP JUMPDEST PUSH1 0x0 PUSH1 0x20 DUP3 DUP5 SUB SLT ISZERO PUSH2 0x14EB JUMPI DUP1 DUP2 REVERT JUMPDEST POP CALLDATALOAD SWAP2 SWAP1 POP JUMP JUMPDEST PUSH1 0x0 DUP1 PUSH1 0x40 DUP4 DUP6 SUB SLT ISZERO PUSH2 0x1504 JUMPI DUP2 DUP3 REVERT JUMPDEST DUP3 CALLDATALOAD SWAP2 POP PUSH2 0x1514 PUSH1 0x20 DUP5 ADD PUSH2 0x11EA JUMP JUMPDEST SWAP1 POP SWAP3 POP SWAP3 SWAP1 POP JUMP JUMPDEST PUSH1 0x0 PUSH1 0x20 DUP3 DUP5 SUB SLT ISZERO PUSH2 0x152E JUMPI DUP1 DUP2 REVERT JUMPDEST DUP2 CALLDATALOAD PUSH1 0x1 PUSH1 0x1 PUSH1 0xE0 SHL SUB NOT DUP2 AND DUP2 EQ PUSH2 0x5FA JUMPI DUP2 DUP3 REVERT JUMPDEST DUP2 DUP4 MSTORE PUSH1 0x0 PUSH1 0x20 DUP1 DUP6 ADD DUP1 DUP2 SWAP7 POP DUP6 PUSH1 0x5 SHL DUP2 ADD SWAP2 POP DUP5 DUP5 JUMPDEST DUP8 DUP2 LT ISZERO PUSH2 0x15C5 JUMPI DUP3 DUP5 SUB DUP10 MSTORE DUP2 CALLDATALOAD PUSH1 0x1E NOT DUP9 CALLDATASIZE SUB ADD DUP2 SLT PUSH2 0x157E JUMPI DUP7 DUP8 REVERT JUMPDEST DUP8 ADD DUP1 CALLDATALOAD PUSH8 0xFFFFFFFFFFFFFFFF DUP2 GT ISZERO PUSH2 0x1596 JUMPI DUP8 DUP9 REVERT JUMPDEST DUP1 CALLDATASIZE SUB DUP10 SGT ISZERO PUSH2 0x15A4 JUMPI DUP8 DUP9 REVERT JUMPDEST PUSH2 0x15B1 DUP7 DUP3 DUP10 DUP6 ADD PUSH2 0x15D2 JUMP JUMPDEST SWAP11 DUP8 ADD SWAP11 SWAP6 POP POP POP SWAP1 DUP5 ADD SWAP1 PUSH1 0x1 ADD PUSH2 0x155E JUMP JUMPDEST POP SWAP2 SWAP8 SWAP7 POP POP POP POP POP POP POP JUMP JUMPDEST DUP2 DUP4 MSTORE DUP2 DUP2 PUSH1 0x20 DUP6 ADD CALLDATACOPY POP PUSH1 0x0 DUP3 DUP3 ADD PUSH1 0x20 SWAP1 DUP2 ADD SWAP2 SWAP1 SWAP2 MSTORE PUSH1 0x1F SWAP1 SWAP2 ADD PUSH1 0x1F NOT AND SWAP1 SWAP2 ADD ADD SWAP1 JUMP JUMPDEST DUP2 DUP4 DUP3 CALLDATACOPY PUSH1 0x0 SWAP2 ADD SWAP1 DUP2 MSTORE SWAP2 SWAP1 POP JUMP JUMPDEST PUSH32 0x416363657373436F6E74726F6C3A206163636F756E7420000000000000000000 DUP2 MSTORE PUSH1 0x0 DUP4 MLOAD PUSH2 0x1643 DUP2 PUSH1 0x17 DUP6 ADD PUSH1 0x20 DUP9 ADD PUSH2 0x18D0 JUMP JUMPDEST PUSH17 0x1034B99036B4B9B9B4B733903937B6329 PUSH1 0x7D SHL PUSH1 0x17 SWAP2 DUP5 ADD SWAP2 DUP3 ADD MSTORE DUP4 MLOAD PUSH2 0x1674 DUP2 PUSH1 0x28 DUP5 ADD PUSH1 0x20 DUP9 ADD PUSH2 0x18D0 JUMP JUMPDEST ADD PUSH1 0x28 ADD SWAP5 SWAP4 POP POP POP POP JUMP JUMPDEST PUSH1 0x1 DUP1 PUSH1 0xA0 SHL SUB DUP6 AND DUP2 MSTORE DUP4 PUSH1 0x20 DUP3 ADD MSTORE PUSH1 0x60 PUSH1 0x40 DUP3 ADD MSTORE PUSH1 0x0 PUSH2 0x16A8 PUSH1 0x60 DUP4 ADD DUP5 DUP7 PUSH2 0x15D2 JUMP JUMPDEST SWAP7 SWAP6 POP POP POP POP POP POP JUMP JUMPDEST PUSH1 0x1 DUP1 PUSH1 0xA0 SHL SUB DUP8 AND DUP2 MSTORE DUP6 PUSH1 0x20 DUP3 ADD MSTORE PUSH1 0xA0 PUSH1 0x40 DUP3 ADD MSTORE PUSH1 0x0 PUSH2 0x16DA PUSH1 0xA0 DUP4 ADD DUP7 DUP9 PUSH2 0x15D2 JUMP JUMPDEST PUSH1 0x60 DUP4 ADD SWAP5 SWAP1 SWAP5 MSTORE POP PUSH1 0x80 ADD MSTORE SWAP5 SWAP4 POP POP POP POP JUMP JUMPDEST PUSH1 0xA0 DUP1 DUP3 MSTORE DUP2 ADD DUP9 SWAP1 MSTORE PUSH1 0x0 DUP10 PUSH1 0xC0 DUP4 ADD DUP3 JUMPDEST DUP12 DUP2 LT ISZERO PUSH2 0x1730 JUMPI PUSH1 0x1 PUSH1 0x1 PUSH1 0xA0 SHL SUB PUSH2 0x171B DUP5 PUSH2 0x11EA JUMP JUMPDEST AND DUP3 MSTORE PUSH1 0x20 SWAP3 DUP4 ADD SWAP3 SWAP1 SWAP2 ADD SWAP1 PUSH1 0x1 ADD PUSH2 0x1702 JUMP JUMPDEST POP DUP4 DUP2 SUB PUSH1 0x20 DUP6 ADD MSTORE DUP9 DUP2 MSTORE PUSH1 0x1 PUSH1 0x1 PUSH1 0xFB SHL SUB DUP10 GT ISZERO PUSH2 0x174F JUMPI DUP3 DUP4 REVERT JUMPDEST DUP9 PUSH1 0x5 SHL SWAP2 POP DUP2 DUP11 PUSH1 0x20 DUP4 ADD CALLDATACOPY ADD PUSH1 0x20 DUP2 DUP2 ADD DUP4 DUP2 MSTORE DUP5 DUP4 SUB SWAP1 SWAP2 ADD PUSH1 0x40 DUP6 ADD MSTORE PUSH2 0x177B DUP2 DUP9 DUP11 PUSH2 0x1545 JUMP JUMPDEST PUSH1 0x60 DUP6 ADD SWAP7 SWAP1 SWAP7 MSTORE POP POP POP PUSH1 0x80 ADD MSTORE SWAP7 SWAP6 POP POP POP POP POP POP JUMP JUMPDEST PUSH1 0x20 DUP2 MSTORE PUSH1 0x0 DUP3 MLOAD DUP1 PUSH1 0x20 DUP5 ADD MSTORE PUSH2 0x17B3 DUP2 PUSH1 0x40 DUP6 ADD PUSH1 0x20 DUP8 ADD PUSH2 0x18D0 JUMP JUMPDEST PUSH1 0x1F ADD PUSH1 0x1F NOT AND SWAP2 SWAP1 SWAP2 ADD PUSH1 0x40 ADD SWAP3 SWAP2 POP POP JUMP JUMPDEST PUSH1 0x20 DUP1 DUP3 MSTORE PUSH1 0x23 SWAP1 DUP3 ADD MSTORE PUSH32 0x54696D656C6F636B436F6E74726F6C6C65723A206C656E677468206D69736D61 PUSH1 0x40 DUP3 ADD MSTORE PUSH3 0xE8C6D PUSH1 0xEB SHL PUSH1 0x60 DUP3 ADD MSTORE PUSH1 0x80 ADD SWAP1 JUMP JUMPDEST PUSH1 0x20 DUP1 DUP3 MSTORE PUSH1 0x2A SWAP1 DUP3 ADD MSTORE PUSH32 0x54696D656C6F636B436F6E74726F6C6C65723A206F7065726174696F6E206973 PUSH1 0x40 DUP3 ADD MSTORE PUSH10 0x206E6F74207265616479 PUSH1 0xB0 SHL PUSH1 0x60 DUP3 ADD MSTORE PUSH1 0x80 ADD SWAP1 JUMP JUMPDEST PUSH1 0x0 DUP1 DUP4 CALLDATALOAD PUSH1 0x1E NOT DUP5 CALLDATASIZE SUB ADD DUP2 SLT PUSH2 0x186A JUMPI DUP3 DUP4 REVERT JUMPDEST DUP4 ADD DUP1 CALLDATALOAD SWAP2 POP PUSH8 0xFFFFFFFFFFFFFFFF DUP3 GT ISZERO PUSH2 0x1884 JUMPI DUP3 DUP4 REVERT JUMPDEST PUSH1 0x20 ADD SWAP2 POP CALLDATASIZE DUP2 SWAP1 SUB DUP3 SGT ISZERO PUSH2 0x1249 JUMPI PUSH1 0x0 DUP1 REVERT JUMPDEST PUSH1 0x0 DUP3 NOT DUP3 GT ISZERO PUSH2 0x18AC JUMPI PUSH2 0x18AC PUSH2 0x1932 JUMP JUMPDEST POP ADD SWAP1 JUMP JUMPDEST PUSH1 0x0 DUP2 PUSH1 0x0 NOT DIV DUP4 GT DUP3 ISZERO ISZERO AND ISZERO PUSH2 0x18CB JUMPI PUSH2 0x18CB PUSH2 0x1932 JUMP JUMPDEST POP MUL SWAP1 JUMP JUMPDEST PUSH1 0x0 JUMPDEST DUP4 DUP2 LT ISZERO PUSH2 0x18EB JUMPI DUP2 DUP2 ADD MLOAD DUP4 DUP3 ADD MSTORE PUSH1 0x20 ADD PUSH2 0x18D3 JUMP JUMPDEST DUP4 DUP2 GT ISZERO PUSH2 0x18FA JUMPI PUSH1 0x0 DUP5 DUP5 ADD MSTORE JUMPDEST POP POP POP POP JUMP JUMPDEST PUSH1 0x0 DUP2 PUSH2 0x190F JUMPI PUSH2 0x190F PUSH2 0x1932 JUMP JUMPDEST POP PUSH1 0x0 NOT ADD SWAP1 JUMP JUMPDEST PUSH1 0x0 PUSH1 0x0 NOT DUP3 EQ ISZERO PUSH2 0x192B JUMPI PUSH2 0x192B PUSH2 0x1932 JUMP JUMPDEST POP PUSH1 0x1 ADD SWAP1 JUMP JUMPDEST PUSH4 0x4E487B71 PUSH1 0xE0 SHL PUSH1 0x0 MSTORE PUSH1 0x11 PUSH1 0x4 MSTORE PUSH1 0x24 PUSH1 0x0 REVERT INVALID 0xB0 SWAP11 0xA5 0xAE 0xB3 PUSH17 0x2CFD50B6B62BC4532604938F21248A27A1 0xD5 0xCA PUSH20 0x6082B6819CC1A2646970667358221220C013088D LOG0 GASPRICE EXP 0xED 0x4B 0xAA STATICCALL ISZERO GAS 0x2D 0xC5 SLT DUP4 0xC5 SLT SGT 0xDD SWAP7 SWAP15 SUB PUSH16 0xBBF473B63B074E64736F6C6343000804 STOP CALLER 0x5F PC 0xE3 LOG2 BALANCE PUSH4 0x49923CE3 PUSH25 0xF8D587DB2D72378AED66A8261C916544FA6846CA5B09AA5AE 0xB3 PUSH17 0x2CFD50B6B62BC4532604938F21248A27A1 0xD5 0xCA PUSH20 0x6082B6819CC1D8AA0F3194971A2A116679F7C209 0xF PUSH10 0x39C8D4E01A2A8D7E41D5 0x5E MSTORE8 MLOAD CHAINID SWAP15 PUSH4 0xA2646970 PUSH7 0x735822122073DB 0x5C PUSH10 0x578F1E64C12BACD7A0A0 NOT 0xCE CALLDATALOAD PUSH30 0x7FB215857678F8C9B921BEC22A8964736F6C634300080400330000000000 ","sha1":"3202accf251f351540c9dbad44cc51f5d3f5b63e","source":"//SPDX-License-Identifier: BUSL-1.1\npragma solidity ^0.8.2;\n\nimport \"../../templates/HiveTimelock.sol\";\n\ncontract HiveTimelockMachine {\n    // note: required to be external, otherwise cannot get selector\n    function createHiveTimelock(\n        bytes32 _salt,\n        uint256 _minDelay,\n        address[] memory _proposers,\n        address[] memory _executors\n    ) external returns (HiveTimelock) {\n        require(\n            msg.sender == address(this),\n            \"HiveTimelockMachine: caller not this contract\"\n        );\n\n        HiveTimelock hiveTimelock = new HiveTimelock{salt: _salt}(\n            _minDelay,\n            _proposers,\n            _executors\n        );\n\n        return hiveTimelock;\n    }\n\n    // function generateHiveTimelockAddress(\n    //     bytes32 _salt,\n    //     uint256 _minDelay,\n    //     address[] memory _proposers,\n    //     address[] memory _executors\n    // ) public returns (address) {\n    //     bytes memory bytecode = LibHiveTimelockMachine._getHiveTimelockBytecode(\n    //         _minDelay,\n    //         _proposers,\n    //         _executors\n    //     );\n    //     return LibHiveFactory._getAddress(bytecode, _salt);\n    // }\n}\n","sourcePath":"contracts/hub/facets/core/HiveTimelockMachine.sol","type":"contract","deployment":{"address":"0x6ADEDf634C974Ec4493271880c930e067DD44f9D","chainid":"80001","blockHeight":26007098}}