{"abi":[{"anonymous":false,"inputs":[{"indexed":true,"internalType":"address","name":"sender","type":"address"},{"indexed":false,"internalType":"address","name":"priceFeed","type":"address"}],"name":"AddedPriceFeedRemoved","type":"event"},{"anonymous":false,"inputs":[{"indexed":true,"internalType":"address","name":"sender","type":"address"},{"indexed":false,"internalType":"address","name":"applicant","type":"address"}],"name":"ApplicantApproved","type":"event"},{"anonymous":false,"inputs":[{"indexed":true,"internalType":"address","name":"sender","type":"address"},{"indexed":false,"internalType":"bytes32","name":"key","type":"bytes32"}],"name":"CurrencyRegistered","type":"event"},{"anonymous":false,"inputs":[{"indexed":true,"internalType":"address","name":"sender","type":"address"},{"indexed":false,"internalType":"bytes32","name":"key","type":"bytes32"}],"name":"CurrencyRemoved","type":"event"},{"anonymous":false,"inputs":[{"indexed":true,"internalType":"address","name":"sender","type":"address"},{"indexed":false,"internalType":"bytes32","name":"keyX","type":"bytes32"},{"indexed":false,"internalType":"bytes32","name":"keyY","type":"bytes32"}],"name":"DerivedPriceFeedRemoved","type":"event"},{"anonymous":false,"inputs":[{"components":[{"internalType":"address","name":"facetAddress","type":"address"},{"internalType":"enum Cut.FacetCutAction","name":"action","type":"uint8"},{"internalType":"bytes4[]","name":"functionSelectors","type":"bytes4[]"}],"indexed":false,"internalType":"struct Cut.FacetCut[]","name":"_cut","type":"tuple[]"},{"indexed":false,"internalType":"address","name":"_init","type":"address"},{"indexed":false,"internalType":"bytes","name":"_calldata","type":"bytes"}],"name":"DiamondCut","type":"event"},{"anonymous":false,"inputs":[{"indexed":true,"internalType":"address","name":"sender","type":"address"},{"indexed":false,"internalType":"uint256","name":"fee","type":"uint256"}],"name":"FeeSetBase","type":"event"},{"anonymous":false,"inputs":[{"indexed":true,"internalType":"address","name":"sender","type":"address"},{"indexed":false,"internalType":"uint256","name":"fee","type":"uint256"}],"name":"FeeSetCancellation","type":"event"},{"anonymous":false,"inputs":[{"indexed":true,"internalType":"address","name":"sender","type":"address"},{"indexed":false,"internalType":"uint256","name":"fee","type":"uint256"}],"name":"FeeSetCostPerMetre","type":"event"},{"anonymous":false,"inputs":[{"indexed":true,"internalType":"address","name":"sender","type":"address"},{"indexed":false,"internalType":"uint256","name":"fee","type":"uint256"}],"name":"FeeSetCostPerMinute","type":"event"},{"anonymous":false,"inputs":[{"indexed":true,"internalType":"address","name":"sender","type":"address"},{"indexed":false,"internalType":"bytes32","name":"key","type":"bytes32"},{"indexed":false,"internalType":"uint256","name":"amount","type":"uint256"}],"name":"FundsLocked","type":"event"},{"anonymous":false,"inputs":[{"indexed":true,"internalType":"address","name":"sender","type":"address"},{"indexed":false,"internalType":"address","name":"decrease","type":"address"},{"indexed":false,"internalType":"address","name":"increase","type":"address"},{"indexed":false,"internalType":"bytes32","name":"key","type":"bytes32"},{"indexed":false,"internalType":"uint256","name":"amount","type":"uint256"}],"name":"FundsUnlocked","type":"event"},{"anonymous":false,"inputs":[{"indexed":true,"internalType":"address","name":"sender","type":"address"},{"indexed":false,"internalType":"uint256","name":"count","type":"uint256"}],"name":"HiveCreationCountSet","type":"event"},{"anonymous":false,"inputs":[{"indexed":true,"internalType":"address","name":"sender","type":"address"},{"indexed":false,"internalType":"uint256","name":"duration","type":"uint256"}],"name":"HiveDisputeDurationSet","type":"event"},{"anonymous":false,"inputs":[{"indexed":true,"internalType":"address","name":"sender","type":"address"},{"indexed":true,"internalType":"bytes32","name":"jobId","type":"bytes32"}],"name":"JobCleared","type":"event"},{"anonymous":false,"inputs":[{"indexed":true,"internalType":"address","name":"sender","type":"address"},{"indexed":false,"internalType":"uint256","name":"duration","type":"uint256"}],"name":"JobLifespanSet","type":"event"},{"anonymous":false,"inputs":[{"indexed":true,"internalType":"address","name":"sender","type":"address"},{"indexed":false,"internalType":"address","name":"hive","type":"address"}],"name":"LeftHive","type":"event"},{"anonymous":false,"inputs":[{"indexed":true,"internalType":"address","name":"sender","type":"address"},{"indexed":false,"internalType":"uint256","name":"metres","type":"uint256"}],"name":"MaxMetresUpdated","type":"event"},{"anonymous":false,"inputs":[{"indexed":true,"internalType":"address","name":"sender","type":"address"},{"indexed":false,"internalType":"uint256","name":"duration","type":"uint256"}],"name":"MinDisputeDurationSet","type":"event"},{"anonymous":false,"inputs":[{"indexed":true,"internalType":"address","name":"sender","type":"address"},{"indexed":false,"internalType":"address","name":"token","type":"address"}],"name":"NativeTokenSet","type":"event"},{"anonymous":false,"inputs":[{"indexed":true,"internalType":"address","name":"sender","type":"address"},{"indexed":false,"internalType":"bytes32","name":"keyX","type":"bytes32"},{"indexed":false,"internalType":"bytes32","name":"keyY","type":"bytes32"},{"indexed":false,"internalType":"address","name":"priceFeed","type":"address"}],"name":"PriceFeedAdded","type":"event"},{"anonymous":false,"inputs":[{"indexed":true,"internalType":"address","name":"sender","type":"address"},{"indexed":false,"internalType":"bytes32","name":"keyX","type":"bytes32"},{"indexed":false,"internalType":"bytes32","name":"keyY","type":"bytes32"},{"indexed":false,"internalType":"bytes32","name":"keyShared","type":"bytes32"}],"name":"PriceFeedDerived","type":"event"},{"anonymous":false,"inputs":[{"indexed":true,"internalType":"address","name":"sender","type":"address"},{"indexed":false,"internalType":"uint256","name":"rating","type":"uint256"}],"name":"RatingGiven","type":"event"},{"anonymous":false,"inputs":[{"indexed":true,"internalType":"address","name":"sender","type":"address"}],"name":"RegisteredAsRunner","type":"event"},{"anonymous":false,"inputs":[{"indexed":true,"internalType":"bytes32","name":"role","type":"bytes32"},{"indexed":true,"internalType":"bytes32","name":"previousAdminRole","type":"bytes32"},{"indexed":true,"internalType":"bytes32","name":"newAdminRole","type":"bytes32"}],"name":"RoleAdminChanged","type":"event"},{"anonymous":false,"inputs":[{"indexed":true,"internalType":"bytes32","name":"role","type":"bytes32"},{"indexed":true,"internalType":"address","name":"account","type":"address"},{"indexed":true,"internalType":"address","name":"sender","type":"address"}],"name":"RoleGranted","type":"event"},{"anonymous":false,"inputs":[{"indexed":true,"internalType":"bytes32","name":"role","type":"bytes32"},{"indexed":true,"internalType":"address","name":"account","type":"address"},{"indexed":true,"internalType":"address","name":"sender","type":"address"}],"name":"RoleRevoked","type":"event"},{"anonymous":false,"inputs":[{"indexed":true,"internalType":"address","name":"sender","type":"address"},{"indexed":false,"internalType":"uint256","name":"min","type":"uint256"},{"indexed":false,"internalType":"uint256","name":"max","type":"uint256"}],"name":"SetRatingBounds","type":"event"},{"anonymous":false,"inputs":[{"indexed":true,"internalType":"address","name":"sender","type":"address"},{"indexed":false,"internalType":"address","name":"user","type":"address"},{"indexed":false,"internalType":"uint256","name":"banDuration","type":"uint256"}],"name":"UserBanned","type":"event"},{"inputs":[{"internalType":"address","name":"_runner","type":"address"},{"internalType":"string","name":"_uri","type":"string"}],"name":"approveApplicant","outputs":[],"stateMutability":"nonpayable","type":"function"},{"inputs":[],"name":"leaveHive","outputs":[],"stateMutability":"nonpayable","type":"function"},{"inputs":[{"internalType":"uint256","name":"_maxMetresPerTrip","type":"uint256"}],"name":"registerAsRunner","outputs":[],"stateMutability":"nonpayable","type":"function"},{"inputs":[{"internalType":"address","name":"_runner","type":"address"},{"internalType":"string","name":"_uri","type":"string"}],"name":"resetURI","outputs":[],"stateMutability":"nonpayable","type":"function"},{"inputs":[{"internalType":"uint256","name":"_maxMetresPerTrip","type":"uint256"}],"name":"updateMaxMetresPerTrip","outputs":[],"stateMutability":"nonpayable","type":"function"}],"bytecode":"608060405234801561001057600080fd5b50610cad806100206000396000f3fe608060405234801561001057600080fd5b50600436106100575760003560e01c806329d317e41461005c5780633a16dbe91461007157806372c23df214610084578063d5708b9314610097578063eacd78831461009f575b600080fd5b61006f61006a3660046109e8565b6100b2565b005b61006f61007f366004610ab2565b61013e565b61006f6100923660046109e8565b61028d565b61006f6102cc565b61006f6100ad366004610ab2565b6103bf565b6100fd6040516020016100e290602080825260099082015268484956455f524f4c4560b81b604082015260600190565b6040516020818303038152906040528051906020012061042a565b6001600160a01b0382166000908152600080516020610c588339815191526020908152604090912082516101399260019092019184019061094f565b505050565b610146610436565b61014e6104ae565b336000908152600080516020610c5883398151915260208190526040909120600101805461017b90610bf0565b151590506101d05760405162461bcd60e51b815260206004820152601b60248201527f52756e6e657252656769737472793a20555249206e6f7420736574000000000060448201526064015b60405180910390fd5b3361021d5760405162461bcd60e51b815260206004820152601c60248201527f52756e6e657252656769737472793a205a65726f20616464726573730000000060448201526064016101c7565b7f34f23ac8dba1b0d420860360c560bb179223090c38ce56fa6655c791ccab58dd805460018101909155336000818152602084905260408082209384556003909301859055915190917ff2ead073c0393ed1b39a7c8486f4adf47175ea04f492607f4c547f05bb5328dd91a25050565b6102bd6040516020016100e290602080825260099082015268484956455f524f4c4560b81b604082015260600190565b6102c882823361052a565b5050565b6102d4610654565b6102dc6104ae565b336000908152600080516020610c5883398151915260208190526040909120600201546001600160a01b0316806103605760405162461bcd60e51b815260206004820152602260248201527f52756e6e657252656769737472793a2063616c6c6572206e6f7420696e206869604482015261766560f01b60648201526084016101c7565b336000818152602084815260409182902060020180546001600160a01b031916905590516001600160a01b03841681527f1aa8f3d5ecdb1ef733edff597610b58eae2965ad6ea2284e24098ecfd487c886910160405180910390a25050565b6103c7610654565b6103cf6104ae565b80600080516020610c5883398151915233600081815260209283526040908190206003019390935591518381527faef18a1f27cea243ef8b5c93390f8949553fbbdc3ff5cc6ac21f70196b2fa1dd910160405180910390a250565b610433816106c9565b50565b336000908152600080516020610c588339815191526020526040902054156104ac5760405162461bcd60e51b815260206004820152602360248201527f4c696252756e6e657252656769737472793a2063616c6c65722069732072756e6044820152623732b960e91b60648201526084016101c7565b565b3360009081527fe79924097ccc2e2b47e332de4c30d72abc5a8153cca3b67cc7a0f5258cd81de96020526040902054156104ac5760405162461bcd60e51b815260206004820152601d60248201527f4c69624a6f62426f6172643a2063616c6c65722069732061637469766500000060448201526064016101c7565b6001600160a01b038381166000908152600080516020610c588339815191526020819052604090912060020154909116156105bb5760405162461bcd60e51b815260206004820152602b60248201527f4c696252756e6e657252656769737472793a206869766520657869737420666f60448201526a1c88185c1c1b1a58d85b9d60aa1b60648201526084016101c7565b6001600160a01b03841660009081526020828152604090912084516105e89260019092019186019061094f565b506001600160a01b038481166000818152602084815260409182902060020180546001600160a01b031916948716949094179093555190815233917f7d3d460ae2321c55dd17ca0374131d12b043780b662e61564b5c62ed6958218c910160405180910390a250505050565b336000908152600080516020610c5883398151915260205260409020546104ac5760405162461bcd60e51b8152602060048201526024808201527f4c696252756e6e657252656769737472793a2063616c6c6572206e6f74207275604482015263373732b960e11b60648201526084016101c7565b60008181527f4cd15452b25e815d3f9d1a3c7edd985a178edf5eb3461a1acbf855517423d694602090815260408083203380855292529091205461043391839160ff166102c857610724816001600160a01b03166014610766565b61072f836020610766565b604051602001610740929190610aca565b60408051601f198184030181529082905262461bcd60e51b82526101c791600401610b3f565b60606000610775836002610b8a565b610780906002610b72565b67ffffffffffffffff8111156107a657634e487b7160e01b600052604160045260246000fd5b6040519080825280601f01601f1916602001820160405280156107d0576020820181803683370190505b509050600360fc1b816000815181106107f957634e487b7160e01b600052603260045260246000fd5b60200101906001600160f81b031916908160001a905350600f60fb1b8160018151811061083657634e487b7160e01b600052603260045260246000fd5b60200101906001600160f81b031916908160001a905350600061085a846002610b8a565b610865906001610b72565b90505b60018111156108f9576f181899199a1a9b1b9c1cb0b131b232b360811b85600f16601081106108a757634e487b7160e01b600052603260045260246000fd5b1a60f81b8282815181106108cb57634e487b7160e01b600052603260045260246000fd5b60200101906001600160f81b031916908160001a90535060049490941c936108f281610bd9565b9050610868565b5083156109485760405162461bcd60e51b815260206004820181905260248201527f537472696e67733a20686578206c656e67746820696e73756666696369656e7460448201526064016101c7565b9392505050565b82805461095b90610bf0565b90600052602060002090601f01602090048101928261097d57600085556109c3565b82601f1061099657805160ff19168380011785556109c3565b828001600101855582156109c3579182015b828111156109c35782518255916020019190600101906109a8565b506109cf9291506109d3565b5090565b5b808211156109cf57600081556001016109d4565b600080604083850312156109fa578182fd5b82356001600160a01b0381168114610a10578283fd5b9150602083013567ffffffffffffffff80821115610a2c578283fd5b818501915085601f830112610a3f578283fd5b813581811115610a5157610a51610c41565b604051601f8201601f19908116603f01168101908382118183101715610a7957610a79610c41565b81604052828152886020848701011115610a91578586fd5b82602086016020830137856020848301015280955050505050509250929050565b600060208284031215610ac3578081fd5b5035919050565b7f416363657373436f6e74726f6c3a206163636f756e7420000000000000000000815260008351610b02816017850160208801610ba9565b7001034b99036b4b9b9b4b733903937b6329607d1b6017918401918201528351610b33816028840160208801610ba9565b01602801949350505050565b6020815260008251806020840152610b5e816040850160208701610ba9565b601f01601f19169190910160400192915050565b60008219821115610b8557610b85610c2b565b500190565b6000816000190483118215151615610ba457610ba4610c2b565b500290565b60005b83811015610bc4578181015183820152602001610bac565b83811115610bd3576000848401525b50505050565b600081610be857610be8610c2b565b506000190190565b600181811c90821680610c0457607f821691505b60208210811415610c2557634e487b7160e01b600052602260045260246000fd5b50919050565b634e487b7160e01b600052601160045260246000fd5b634e487b7160e01b600052604160045260246000fdfec7ddcdc008a4787bc0ebc7e57c6de87615ae1cb780f671ab25bfdfbd9cc9ce62a264697066735822122053ab9c150c6860bff39e606aef020908cf9657682cad47963a52a2d71e64d7fd64736f6c63430008040033","bytecodeSha1":"90893ab70351f651c9f343e184c87d3ac592a798","compiler":{"evm_version":"istanbul","optimizer":{"enabled":true,"runs":200},"version":"0.8.4+commit.c7e474f2"},"contractName":"RunnerRegistry","language":"Solidity","natspec":{"kind":"dev","methods":{"registerAsRunner(uint256)":{"custom:event":"RegisteredAsRunner","notice":"registerRunner registers approved applicants (has passed background check)","params":{"_maxMetresPerTrip":"| unit in metre"}},"updateMaxMetresPerTrip(uint256)":{"notice":"updateMaxMetresPerTrip updates maximum metre per trip of runner","params":{"_maxMetresPerTrip":"| unit in metre"}}},"version":1},"opcodes":"PUSH1 0x80 PUSH1 0x40 MSTORE CALLVALUE DUP1 ISZERO PUSH2 0x10 JUMPI PUSH1 0x0 DUP1 REVERT JUMPDEST POP PUSH1 0x4 CALLDATASIZE LT PUSH2 0x57 JUMPI PUSH1 0x0 CALLDATALOAD PUSH1 0xE0 SHR DUP1 PUSH4 0x29D317E4 EQ PUSH2 0x5C JUMPI DUP1 PUSH4 0x3A16DBE9 EQ PUSH2 0x71 JUMPI DUP1 PUSH4 0x72C23DF2 EQ PUSH2 0x84 JUMPI DUP1 PUSH4 0xD5708B93 EQ PUSH2 0x97 JUMPI DUP1 PUSH4 0xEACD7883 EQ PUSH2 0x9F JUMPI JUMPDEST PUSH1 0x0 DUP1 REVERT JUMPDEST PUSH2 0x6F PUSH2 0x6A CALLDATASIZE PUSH1 0x4 PUSH2 0x9E8 JUMP JUMPDEST PUSH2 0xB2 JUMP JUMPDEST STOP JUMPDEST PUSH2 0x6F PUSH2 0x7F CALLDATASIZE PUSH1 0x4 PUSH2 0xAB2 JUMP JUMPDEST PUSH2 0x13E JUMP JUMPDEST PUSH2 0x6F PUSH2 0x92 CALLDATASIZE PUSH1 0x4 PUSH2 0x9E8 JUMP JUMPDEST PUSH2 0x28D JUMP JUMPDEST PUSH2 0x6F PUSH2 0x2CC JUMP JUMPDEST PUSH2 0x6F PUSH2 0xAD CALLDATASIZE PUSH1 0x4 PUSH2 0xAB2 JUMP JUMPDEST PUSH2 0x3BF JUMP JUMPDEST PUSH2 0xFD PUSH1 0x40 MLOAD PUSH1 0x20 ADD PUSH2 0xE2 SWAP1 PUSH1 0x20 DUP1 DUP3 MSTORE PUSH1 0x9 SWAP1 DUP3 ADD MSTORE PUSH9 0x484956455F524F4C45 PUSH1 0xB8 SHL PUSH1 0x40 DUP3 ADD MSTORE PUSH1 0x60 ADD SWAP1 JUMP JUMPDEST PUSH1 0x40 MLOAD PUSH1 0x20 DUP2 DUP4 SUB SUB DUP2 MSTORE SWAP1 PUSH1 0x40 MSTORE DUP1 MLOAD SWAP1 PUSH1 0x20 ADD KECCAK256 PUSH2 0x42A JUMP JUMPDEST PUSH1 0x1 PUSH1 0x1 PUSH1 0xA0 SHL SUB DUP3 AND PUSH1 0x0 SWAP1 DUP2 MSTORE PUSH1 0x0 DUP1 MLOAD PUSH1 0x20 PUSH2 0xC58 DUP4 CODECOPY DUP2 MLOAD SWAP2 MSTORE PUSH1 0x20 SWAP1 DUP2 MSTORE PUSH1 0x40 SWAP1 SWAP2 KECCAK256 DUP3 MLOAD PUSH2 0x139 SWAP3 PUSH1 0x1 SWAP1 SWAP3 ADD SWAP2 DUP5 ADD SWAP1 PUSH2 0x94F JUMP JUMPDEST POP POP POP JUMP JUMPDEST PUSH2 0x146 PUSH2 0x436 JUMP JUMPDEST PUSH2 0x14E PUSH2 0x4AE JUMP JUMPDEST CALLER PUSH1 0x0 SWAP1 DUP2 MSTORE PUSH1 0x0 DUP1 MLOAD PUSH1 0x20 PUSH2 0xC58 DUP4 CODECOPY DUP2 MLOAD SWAP2 MSTORE PUSH1 0x20 DUP2 SWAP1 MSTORE PUSH1 0x40 SWAP1 SWAP2 KECCAK256 PUSH1 0x1 ADD DUP1 SLOAD PUSH2 0x17B SWAP1 PUSH2 0xBF0 JUMP JUMPDEST ISZERO ISZERO SWAP1 POP PUSH2 0x1D0 JUMPI PUSH1 0x40 MLOAD PUSH3 0x461BCD PUSH1 0xE5 SHL DUP2 MSTORE PUSH1 0x20 PUSH1 0x4 DUP3 ADD MSTORE PUSH1 0x1B PUSH1 0x24 DUP3 ADD MSTORE PUSH32 0x52756E6E657252656769737472793A20555249206E6F74207365740000000000 PUSH1 0x44 DUP3 ADD MSTORE PUSH1 0x64 ADD JUMPDEST PUSH1 0x40 MLOAD DUP1 SWAP2 SUB SWAP1 REVERT JUMPDEST CALLER PUSH2 0x21D JUMPI PUSH1 0x40 MLOAD PUSH3 0x461BCD PUSH1 0xE5 SHL DUP2 MSTORE PUSH1 0x20 PUSH1 0x4 DUP3 ADD MSTORE PUSH1 0x1C PUSH1 0x24 DUP3 ADD MSTORE PUSH32 0x52756E6E657252656769737472793A205A65726F206164647265737300000000 PUSH1 0x44 DUP3 ADD MSTORE PUSH1 0x64 ADD PUSH2 0x1C7 JUMP JUMPDEST PUSH32 0x34F23AC8DBA1B0D420860360C560BB179223090C38CE56FA6655C791CCAB58DD DUP1 SLOAD PUSH1 0x1 DUP2 ADD SWAP1 SWAP2 SSTORE CALLER PUSH1 0x0 DUP2 DUP2 MSTORE PUSH1 0x20 DUP5 SWAP1 MSTORE PUSH1 0x40 DUP1 DUP3 KECCAK256 SWAP4 DUP5 SSTORE PUSH1 0x3 SWAP1 SWAP4 ADD DUP6 SWAP1 SSTORE SWAP2 MLOAD SWAP1 SWAP2 PUSH32 0xF2EAD073C0393ED1B39A7C8486F4ADF47175EA04F492607F4C547F05BB5328DD SWAP2 LOG2 POP POP JUMP JUMPDEST PUSH2 0x2BD PUSH1 0x40 MLOAD PUSH1 0x20 ADD PUSH2 0xE2 SWAP1 PUSH1 0x20 DUP1 DUP3 MSTORE PUSH1 0x9 SWAP1 DUP3 ADD MSTORE PUSH9 0x484956455F524F4C45 PUSH1 0xB8 SHL PUSH1 0x40 DUP3 ADD MSTORE PUSH1 0x60 ADD SWAP1 JUMP JUMPDEST PUSH2 0x2C8 DUP3 DUP3 CALLER PUSH2 0x52A JUMP JUMPDEST POP POP JUMP JUMPDEST PUSH2 0x2D4 PUSH2 0x654 JUMP JUMPDEST PUSH2 0x2DC PUSH2 0x4AE JUMP JUMPDEST CALLER PUSH1 0x0 SWAP1 DUP2 MSTORE PUSH1 0x0 DUP1 MLOAD PUSH1 0x20 PUSH2 0xC58 DUP4 CODECOPY DUP2 MLOAD SWAP2 MSTORE PUSH1 0x20 DUP2 SWAP1 MSTORE PUSH1 0x40 SWAP1 SWAP2 KECCAK256 PUSH1 0x2 ADD SLOAD PUSH1 0x1 PUSH1 0x1 PUSH1 0xA0 SHL SUB AND DUP1 PUSH2 0x360 JUMPI PUSH1 0x40 MLOAD PUSH3 0x461BCD PUSH1 0xE5 SHL DUP2 MSTORE PUSH1 0x20 PUSH1 0x4 DUP3 ADD MSTORE PUSH1 0x22 PUSH1 0x24 DUP3 ADD MSTORE PUSH32 0x52756E6E657252656769737472793A2063616C6C6572206E6F7420696E206869 PUSH1 0x44 DUP3 ADD MSTORE PUSH2 0x7665 PUSH1 0xF0 SHL PUSH1 0x64 DUP3 ADD MSTORE PUSH1 0x84 ADD PUSH2 0x1C7 JUMP JUMPDEST CALLER PUSH1 0x0 DUP2 DUP2 MSTORE PUSH1 0x20 DUP5 DUP2 MSTORE PUSH1 0x40 SWAP2 DUP3 SWAP1 KECCAK256 PUSH1 0x2 ADD DUP1 SLOAD PUSH1 0x1 PUSH1 0x1 PUSH1 0xA0 SHL SUB NOT AND SWAP1 SSTORE SWAP1 MLOAD PUSH1 0x1 PUSH1 0x1 PUSH1 0xA0 SHL SUB DUP5 AND DUP2 MSTORE PUSH32 0x1AA8F3D5ECDB1EF733EDFF597610B58EAE2965AD6EA2284E24098ECFD487C886 SWAP2 ADD PUSH1 0x40 MLOAD DUP1 SWAP2 SUB SWAP1 LOG2 POP POP JUMP JUMPDEST PUSH2 0x3C7 PUSH2 0x654 JUMP JUMPDEST PUSH2 0x3CF PUSH2 0x4AE JUMP JUMPDEST DUP1 PUSH1 0x0 DUP1 MLOAD PUSH1 0x20 PUSH2 0xC58 DUP4 CODECOPY DUP2 MLOAD SWAP2 MSTORE CALLER PUSH1 0x0 DUP2 DUP2 MSTORE PUSH1 0x20 SWAP3 DUP4 MSTORE PUSH1 0x40 SWAP1 DUP2 SWAP1 KECCAK256 PUSH1 0x3 ADD SWAP4 SWAP1 SWAP4 SSTORE SWAP2 MLOAD DUP4 DUP2 MSTORE PUSH32 0xAEF18A1F27CEA243EF8B5C93390F8949553FBBDC3FF5CC6AC21F70196B2FA1DD SWAP2 ADD PUSH1 0x40 MLOAD DUP1 SWAP2 SUB SWAP1 LOG2 POP JUMP JUMPDEST PUSH2 0x433 DUP2 PUSH2 0x6C9 JUMP JUMPDEST POP JUMP JUMPDEST CALLER PUSH1 0x0 SWAP1 DUP2 MSTORE PUSH1 0x0 DUP1 MLOAD PUSH1 0x20 PUSH2 0xC58 DUP4 CODECOPY DUP2 MLOAD SWAP2 MSTORE PUSH1 0x20 MSTORE PUSH1 0x40 SWAP1 KECCAK256 SLOAD ISZERO PUSH2 0x4AC JUMPI PUSH1 0x40 MLOAD PUSH3 0x461BCD PUSH1 0xE5 SHL DUP2 MSTORE PUSH1 0x20 PUSH1 0x4 DUP3 ADD MSTORE PUSH1 0x23 PUSH1 0x24 DUP3 ADD MSTORE PUSH32 0x4C696252756E6E657252656769737472793A2063616C6C65722069732072756E PUSH1 0x44 DUP3 ADD MSTORE PUSH3 0x3732B9 PUSH1 0xE9 SHL PUSH1 0x64 DUP3 ADD MSTORE PUSH1 0x84 ADD PUSH2 0x1C7 JUMP JUMPDEST JUMP JUMPDEST CALLER PUSH1 0x0 SWAP1 DUP2 MSTORE PUSH32 0xE79924097CCC2E2B47E332DE4C30D72ABC5A8153CCA3B67CC7A0F5258CD81DE9 PUSH1 0x20 MSTORE PUSH1 0x40 SWAP1 KECCAK256 SLOAD ISZERO PUSH2 0x4AC JUMPI PUSH1 0x40 MLOAD PUSH3 0x461BCD PUSH1 0xE5 SHL DUP2 MSTORE PUSH1 0x20 PUSH1 0x4 DUP3 ADD MSTORE PUSH1 0x1D PUSH1 0x24 DUP3 ADD MSTORE PUSH32 0x4C69624A6F62426F6172643A2063616C6C657220697320616374697665000000 PUSH1 0x44 DUP3 ADD MSTORE PUSH1 0x64 ADD PUSH2 0x1C7 JUMP JUMPDEST PUSH1 0x1 PUSH1 0x1 PUSH1 0xA0 SHL SUB DUP4 DUP2 AND PUSH1 0x0 SWAP1 DUP2 MSTORE PUSH1 0x0 DUP1 MLOAD PUSH1 0x20 PUSH2 0xC58 DUP4 CODECOPY DUP2 MLOAD SWAP2 MSTORE PUSH1 0x20 DUP2 SWAP1 MSTORE PUSH1 0x40 SWAP1 SWAP2 KECCAK256 PUSH1 0x2 ADD SLOAD SWAP1 SWAP2 AND ISZERO PUSH2 0x5BB JUMPI PUSH1 0x40 MLOAD PUSH3 0x461BCD PUSH1 0xE5 SHL DUP2 MSTORE PUSH1 0x20 PUSH1 0x4 DUP3 ADD MSTORE PUSH1 0x2B PUSH1 0x24 DUP3 ADD MSTORE PUSH32 0x4C696252756E6E657252656769737472793A206869766520657869737420666F PUSH1 0x44 DUP3 ADD MSTORE PUSH11 0x1C88185C1C1B1A58D85B9D PUSH1 0xAA SHL PUSH1 0x64 DUP3 ADD MSTORE PUSH1 0x84 ADD PUSH2 0x1C7 JUMP JUMPDEST PUSH1 0x1 PUSH1 0x1 PUSH1 0xA0 SHL SUB DUP5 AND PUSH1 0x0 SWAP1 DUP2 MSTORE PUSH1 0x20 DUP3 DUP2 MSTORE PUSH1 0x40 SWAP1 SWAP2 KECCAK256 DUP5 MLOAD PUSH2 0x5E8 SWAP3 PUSH1 0x1 SWAP1 SWAP3 ADD SWAP2 DUP7 ADD SWAP1 PUSH2 0x94F JUMP JUMPDEST POP PUSH1 0x1 PUSH1 0x1 PUSH1 0xA0 SHL SUB DUP5 DUP2 AND PUSH1 0x0 DUP2 DUP2 MSTORE PUSH1 0x20 DUP5 DUP2 MSTORE PUSH1 0x40 SWAP2 DUP3 SWAP1 KECCAK256 PUSH1 0x2 ADD DUP1 SLOAD PUSH1 0x1 PUSH1 0x1 PUSH1 0xA0 SHL SUB NOT AND SWAP5 DUP8 AND SWAP5 SWAP1 SWAP5 OR SWAP1 SWAP4 SSTORE MLOAD SWAP1 DUP2 MSTORE CALLER SWAP2 PUSH32 0x7D3D460AE2321C55DD17CA0374131D12B043780B662E61564B5C62ED6958218C SWAP2 ADD PUSH1 0x40 MLOAD DUP1 SWAP2 SUB SWAP1 LOG2 POP POP POP POP JUMP JUMPDEST CALLER PUSH1 0x0 SWAP1 DUP2 MSTORE PUSH1 0x0 DUP1 MLOAD PUSH1 0x20 PUSH2 0xC58 DUP4 CODECOPY DUP2 MLOAD SWAP2 MSTORE PUSH1 0x20 MSTORE PUSH1 0x40 SWAP1 KECCAK256 SLOAD PUSH2 0x4AC JUMPI PUSH1 0x40 MLOAD PUSH3 0x461BCD PUSH1 0xE5 SHL DUP2 MSTORE PUSH1 0x20 PUSH1 0x4 DUP3 ADD MSTORE PUSH1 0x24 DUP1 DUP3 ADD MSTORE PUSH32 0x4C696252756E6E657252656769737472793A2063616C6C6572206E6F74207275 PUSH1 0x44 DUP3 ADD MSTORE PUSH4 0x373732B9 PUSH1 0xE1 SHL PUSH1 0x64 DUP3 ADD MSTORE PUSH1 0x84 ADD PUSH2 0x1C7 JUMP JUMPDEST PUSH1 0x0 DUP2 DUP2 MSTORE PUSH32 0x4CD15452B25E815D3F9D1A3C7EDD985A178EDF5EB3461A1ACBF855517423D694 PUSH1 0x20 SWAP1 DUP2 MSTORE PUSH1 0x40 DUP1 DUP4 KECCAK256 CALLER DUP1 DUP6 MSTORE SWAP3 MSTORE SWAP1 SWAP2 KECCAK256 SLOAD PUSH2 0x433 SWAP2 DUP4 SWAP2 PUSH1 0xFF AND PUSH2 0x2C8 JUMPI PUSH2 0x724 DUP2 PUSH1 0x1 PUSH1 0x1 PUSH1 0xA0 SHL SUB AND PUSH1 0x14 PUSH2 0x766 JUMP JUMPDEST PUSH2 0x72F DUP4 PUSH1 0x20 PUSH2 0x766 JUMP JUMPDEST PUSH1 0x40 MLOAD PUSH1 0x20 ADD PUSH2 0x740 SWAP3 SWAP2 SWAP1 PUSH2 0xACA JUMP JUMPDEST PUSH1 0x40 DUP1 MLOAD PUSH1 0x1F NOT DUP2 DUP5 SUB ADD DUP2 MSTORE SWAP1 DUP3 SWAP1 MSTORE PUSH3 0x461BCD PUSH1 0xE5 SHL DUP3 MSTORE PUSH2 0x1C7 SWAP2 PUSH1 0x4 ADD PUSH2 0xB3F JUMP JUMPDEST PUSH1 0x60 PUSH1 0x0 PUSH2 0x775 DUP4 PUSH1 0x2 PUSH2 0xB8A JUMP JUMPDEST PUSH2 0x780 SWAP1 PUSH1 0x2 PUSH2 0xB72 JUMP JUMPDEST PUSH8 0xFFFFFFFFFFFFFFFF DUP2 GT ISZERO PUSH2 0x7A6 JUMPI PUSH4 0x4E487B71 PUSH1 0xE0 SHL PUSH1 0x0 MSTORE PUSH1 0x41 PUSH1 0x4 MSTORE PUSH1 0x24 PUSH1 0x0 REVERT JUMPDEST PUSH1 0x40 MLOAD SWAP1 DUP1 DUP3 MSTORE DUP1 PUSH1 0x1F ADD PUSH1 0x1F NOT AND PUSH1 0x20 ADD DUP3 ADD PUSH1 0x40 MSTORE DUP1 ISZERO PUSH2 0x7D0 JUMPI PUSH1 0x20 DUP3 ADD DUP2 DUP1 CALLDATASIZE DUP4 CALLDATACOPY ADD SWAP1 POP JUMPDEST POP SWAP1 POP PUSH1 0x3 PUSH1 0xFC SHL DUP2 PUSH1 0x0 DUP2 MLOAD DUP2 LT PUSH2 0x7F9 JUMPI PUSH4 0x4E487B71 PUSH1 0xE0 SHL PUSH1 0x0 MSTORE PUSH1 0x32 PUSH1 0x4 MSTORE PUSH1 0x24 PUSH1 0x0 REVERT JUMPDEST PUSH1 0x20 ADD ADD SWAP1 PUSH1 0x1 PUSH1 0x1 PUSH1 0xF8 SHL SUB NOT AND SWAP1 DUP2 PUSH1 0x0 BYTE SWAP1 MSTORE8 POP PUSH1 0xF PUSH1 0xFB SHL DUP2 PUSH1 0x1 DUP2 MLOAD DUP2 LT PUSH2 0x836 JUMPI PUSH4 0x4E487B71 PUSH1 0xE0 SHL PUSH1 0x0 MSTORE PUSH1 0x32 PUSH1 0x4 MSTORE PUSH1 0x24 PUSH1 0x0 REVERT JUMPDEST PUSH1 0x20 ADD ADD SWAP1 PUSH1 0x1 PUSH1 0x1 PUSH1 0xF8 SHL SUB NOT AND SWAP1 DUP2 PUSH1 0x0 BYTE SWAP1 MSTORE8 POP PUSH1 0x0 PUSH2 0x85A DUP5 PUSH1 0x2 PUSH2 0xB8A JUMP JUMPDEST PUSH2 0x865 SWAP1 PUSH1 0x1 PUSH2 0xB72 JUMP JUMPDEST SWAP1 POP JUMPDEST PUSH1 0x1 DUP2 GT ISZERO PUSH2 0x8F9 JUMPI PUSH16 0x181899199A1A9B1B9C1CB0B131B232B3 PUSH1 0x81 SHL DUP6 PUSH1 0xF AND PUSH1 0x10 DUP2 LT PUSH2 0x8A7 JUMPI PUSH4 0x4E487B71 PUSH1 0xE0 SHL PUSH1 0x0 MSTORE PUSH1 0x32 PUSH1 0x4 MSTORE PUSH1 0x24 PUSH1 0x0 REVERT JUMPDEST BYTE PUSH1 0xF8 SHL DUP3 DUP3 DUP2 MLOAD DUP2 LT PUSH2 0x8CB JUMPI PUSH4 0x4E487B71 PUSH1 0xE0 SHL PUSH1 0x0 MSTORE PUSH1 0x32 PUSH1 0x4 MSTORE PUSH1 0x24 PUSH1 0x0 REVERT JUMPDEST PUSH1 0x20 ADD ADD SWAP1 PUSH1 0x1 PUSH1 0x1 PUSH1 0xF8 SHL SUB NOT AND SWAP1 DUP2 PUSH1 0x0 BYTE SWAP1 MSTORE8 POP PUSH1 0x4 SWAP5 SWAP1 SWAP5 SHR SWAP4 PUSH2 0x8F2 DUP2 PUSH2 0xBD9 JUMP JUMPDEST SWAP1 POP PUSH2 0x868 JUMP JUMPDEST POP DUP4 ISZERO PUSH2 0x948 JUMPI PUSH1 0x40 MLOAD PUSH3 0x461BCD PUSH1 0xE5 SHL DUP2 MSTORE PUSH1 0x20 PUSH1 0x4 DUP3 ADD DUP2 SWAP1 MSTORE PUSH1 0x24 DUP3 ADD MSTORE PUSH32 0x537472696E67733A20686578206C656E67746820696E73756666696369656E74 PUSH1 0x44 DUP3 ADD MSTORE PUSH1 0x64 ADD PUSH2 0x1C7 JUMP JUMPDEST SWAP4 SWAP3 POP POP POP JUMP JUMPDEST DUP3 DUP1 SLOAD PUSH2 0x95B SWAP1 PUSH2 0xBF0 JUMP JUMPDEST SWAP1 PUSH1 0x0 MSTORE PUSH1 0x20 PUSH1 0x0 KECCAK256 SWAP1 PUSH1 0x1F ADD PUSH1 0x20 SWAP1 DIV DUP2 ADD SWAP3 DUP3 PUSH2 0x97D JUMPI PUSH1 0x0 DUP6 SSTORE PUSH2 0x9C3 JUMP JUMPDEST DUP3 PUSH1 0x1F LT PUSH2 0x996 JUMPI DUP1 MLOAD PUSH1 0xFF NOT AND DUP4 DUP1 ADD OR DUP6 SSTORE PUSH2 0x9C3 JUMP JUMPDEST DUP3 DUP1 ADD PUSH1 0x1 ADD DUP6 SSTORE DUP3 ISZERO PUSH2 0x9C3 JUMPI SWAP2 DUP3 ADD JUMPDEST DUP3 DUP2 GT ISZERO PUSH2 0x9C3 JUMPI DUP3 MLOAD DUP3 SSTORE SWAP2 PUSH1 0x20 ADD SWAP2 SWAP1 PUSH1 0x1 ADD SWAP1 PUSH2 0x9A8 JUMP JUMPDEST POP PUSH2 0x9CF SWAP3 SWAP2 POP PUSH2 0x9D3 JUMP JUMPDEST POP SWAP1 JUMP JUMPDEST JUMPDEST DUP1 DUP3 GT ISZERO PUSH2 0x9CF JUMPI PUSH1 0x0 DUP2 SSTORE PUSH1 0x1 ADD PUSH2 0x9D4 JUMP JUMPDEST PUSH1 0x0 DUP1 PUSH1 0x40 DUP4 DUP6 SUB SLT ISZERO PUSH2 0x9FA JUMPI DUP2 DUP3 REVERT JUMPDEST DUP3 CALLDATALOAD PUSH1 0x1 PUSH1 0x1 PUSH1 0xA0 SHL SUB DUP2 AND DUP2 EQ PUSH2 0xA10 JUMPI DUP3 DUP4 REVERT JUMPDEST SWAP2 POP PUSH1 0x20 DUP4 ADD CALLDATALOAD PUSH8 0xFFFFFFFFFFFFFFFF DUP1 DUP3 GT ISZERO PUSH2 0xA2C JUMPI DUP3 DUP4 REVERT JUMPDEST DUP2 DUP6 ADD SWAP2 POP DUP6 PUSH1 0x1F DUP4 ADD SLT PUSH2 0xA3F JUMPI DUP3 DUP4 REVERT JUMPDEST DUP2 CALLDATALOAD DUP2 DUP2 GT ISZERO PUSH2 0xA51 JUMPI PUSH2 0xA51 PUSH2 0xC41 JUMP JUMPDEST PUSH1 0x40 MLOAD PUSH1 0x1F DUP3 ADD PUSH1 0x1F NOT SWAP1 DUP2 AND PUSH1 0x3F ADD AND DUP2 ADD SWAP1 DUP4 DUP3 GT DUP2 DUP4 LT OR ISZERO PUSH2 0xA79 JUMPI PUSH2 0xA79 PUSH2 0xC41 JUMP JUMPDEST DUP2 PUSH1 0x40 MSTORE DUP3 DUP2 MSTORE DUP9 PUSH1 0x20 DUP5 DUP8 ADD ADD GT ISZERO PUSH2 0xA91 JUMPI DUP6 DUP7 REVERT JUMPDEST DUP3 PUSH1 0x20 DUP7 ADD PUSH1 0x20 DUP4 ADD CALLDATACOPY DUP6 PUSH1 0x20 DUP5 DUP4 ADD ADD MSTORE DUP1 SWAP6 POP POP POP POP POP POP SWAP3 POP SWAP3 SWAP1 POP JUMP JUMPDEST PUSH1 0x0 PUSH1 0x20 DUP3 DUP5 SUB SLT ISZERO PUSH2 0xAC3 JUMPI DUP1 DUP2 REVERT JUMPDEST POP CALLDATALOAD SWAP2 SWAP1 POP JUMP JUMPDEST PUSH32 0x416363657373436F6E74726F6C3A206163636F756E7420000000000000000000 DUP2 MSTORE PUSH1 0x0 DUP4 MLOAD PUSH2 0xB02 DUP2 PUSH1 0x17 DUP6 ADD PUSH1 0x20 DUP9 ADD PUSH2 0xBA9 JUMP JUMPDEST PUSH17 0x1034B99036B4B9B9B4B733903937B6329 PUSH1 0x7D SHL PUSH1 0x17 SWAP2 DUP5 ADD SWAP2 DUP3 ADD MSTORE DUP4 MLOAD PUSH2 0xB33 DUP2 PUSH1 0x28 DUP5 ADD PUSH1 0x20 DUP9 ADD PUSH2 0xBA9 JUMP JUMPDEST ADD PUSH1 0x28 ADD SWAP5 SWAP4 POP POP POP POP JUMP JUMPDEST PUSH1 0x20 DUP2 MSTORE PUSH1 0x0 DUP3 MLOAD DUP1 PUSH1 0x20 DUP5 ADD MSTORE PUSH2 0xB5E DUP2 PUSH1 0x40 DUP6 ADD PUSH1 0x20 DUP8 ADD PUSH2 0xBA9 JUMP JUMPDEST PUSH1 0x1F ADD PUSH1 0x1F NOT AND SWAP2 SWAP1 SWAP2 ADD PUSH1 0x40 ADD SWAP3 SWAP2 POP POP JUMP JUMPDEST PUSH1 0x0 DUP3 NOT DUP3 GT ISZERO PUSH2 0xB85 JUMPI PUSH2 0xB85 PUSH2 0xC2B JUMP JUMPDEST POP ADD SWAP1 JUMP JUMPDEST PUSH1 0x0 DUP2 PUSH1 0x0 NOT DIV DUP4 GT DUP3 ISZERO ISZERO AND ISZERO PUSH2 0xBA4 JUMPI PUSH2 0xBA4 PUSH2 0xC2B JUMP JUMPDEST POP MUL SWAP1 JUMP JUMPDEST PUSH1 0x0 JUMPDEST DUP4 DUP2 LT ISZERO PUSH2 0xBC4 JUMPI DUP2 DUP2 ADD MLOAD DUP4 DUP3 ADD MSTORE PUSH1 0x20 ADD PUSH2 0xBAC JUMP JUMPDEST DUP4 DUP2 GT ISZERO PUSH2 0xBD3 JUMPI PUSH1 0x0 DUP5 DUP5 ADD MSTORE JUMPDEST POP POP POP POP JUMP JUMPDEST PUSH1 0x0 DUP2 PUSH2 0xBE8 JUMPI PUSH2 0xBE8 PUSH2 0xC2B JUMP JUMPDEST POP PUSH1 0x0 NOT ADD SWAP1 JUMP JUMPDEST PUSH1 0x1 DUP2 DUP2 SHR SWAP1 DUP3 AND DUP1 PUSH2 0xC04 JUMPI PUSH1 0x7F DUP3 AND SWAP2 POP JUMPDEST PUSH1 0x20 DUP3 LT DUP2 EQ ISZERO PUSH2 0xC25 JUMPI PUSH4 0x4E487B71 PUSH1 0xE0 SHL PUSH1 0x0 MSTORE PUSH1 0x22 PUSH1 0x4 MSTORE PUSH1 0x24 PUSH1 0x0 REVERT JUMPDEST POP SWAP2 SWAP1 POP JUMP JUMPDEST PUSH4 0x4E487B71 PUSH1 0xE0 SHL PUSH1 0x0 MSTORE PUSH1 0x11 PUSH1 0x4 MSTORE PUSH1 0x24 PUSH1 0x0 REVERT JUMPDEST PUSH4 0x4E487B71 PUSH1 0xE0 SHL PUSH1 0x0 MSTORE PUSH1 0x41 PUSH1 0x4 MSTORE PUSH1 0x24 PUSH1 0x0 REVERT INVALID 0xC7 0xDD 0xCD 0xC0 ADDMOD LOG4 PUSH25 0x7BC0EBC7E57C6DE87615AE1CB780F671AB25BFDFBD9CC9CE62 LOG2 PUSH5 0x6970667358 0x22 SLT KECCAK256 MSTORE8 0xAB SWAP13 ISZERO 0xC PUSH9 0x60BFF39E606AEF0209 ADDMOD 0xCF SWAP7 JUMPI PUSH9 0x2CAD47963A52A2D71E PUSH5 0xD7FD64736F PUSH13 0x63430008040033000000000000 ","sha1":"3421b91e4da2072c0113c0f59265404a64e4c0e8","source":"//SPDX-License-Identifier: BUSL-1.1\npragma solidity ^0.8.2;\n\nimport \"../../libraries/core/LibRunnerRegistry.sol\";\nimport \"../../libraries/core/LibRunnerDetail.sol\";\nimport \"../../libraries/core/LibJobBoard.sol\";\nimport \"../../libraries/core/LibRunner.sol\";\nimport \"../../libraries/utils/LibAccessControl.sol\";\n\nimport \"../../interfaces/IHubLibraryEvents.sol\";\n\ncontract RunnerRegistry is IHubLibraryEvents {\n    event RegisteredAsRunner(address indexed sender);\n\n    /**\n     * registerRunner registers approved applicants (has passed background check)\n     *\n     * @param _maxMetresPerTrip | unit in metre\n     *\n     * @custom:event RegisteredAsRunner\n     */\n    // TODO: test this not callable for runner switching hives (after registered for second hive)\n    function registerAsRunner(uint256 _maxMetresPerTrip) external {\n        LibRunnerRegistry._requireNotRunner();\n        LibJobBoard._requireNotActive(); // ok use of requireNotActive\n        LibRunnerDetail.StorageRunnerDetail storage s1 = LibRunnerDetail\n            ._storageRunnerDetail();\n        require(\n            bytes(s1.runnerToRunnerDetail[msg.sender].uri).length != 0,\n            \"RunnerRegistry: URI not set\"\n        );\n        require(msg.sender != address(0), \"RunnerRegistry: Zero address\");\n\n        s1.runnerToRunnerDetail[msg.sender].id = LibRunnerRegistry._mint();\n        s1\n            .runnerToRunnerDetail[msg.sender]\n            .maxMetresPerTrip = _maxMetresPerTrip;\n\n        emit RegisteredAsRunner(msg.sender);\n    }\n\n    event MaxMetresUpdated(address indexed sender, uint256 metres);\n\n    /**\n     * updateMaxMetresPerTrip updates maximum metre per trip of runner\n     *\n     * @param _maxMetresPerTrip | unit in metre\n     */\n    function updateMaxMetresPerTrip(uint256 _maxMetresPerTrip) external {\n        LibRunnerRegistry._requireIsRunner();\n        LibJobBoard._requireNotActive(); // ok use of requireNotActive\n        LibRunnerDetail\n            ._storageRunnerDetail()\n            .runnerToRunnerDetail[msg.sender]\n            .maxMetresPerTrip = _maxMetresPerTrip;\n\n        emit MaxMetresUpdated(msg.sender, _maxMetresPerTrip);\n    }\n\n    function approveApplicant(address _runner, string memory _uri) external {\n        LibAccessControl._requireOnlyRole(LibAccessControl.HIVE_ROLE); // hive timelock\n\n        LibRunnerRegistry._approveApplicant(_runner, _uri, msg.sender);\n    }\n\n    // note: in case URI set wrongly\n    function resetURI(address _runner, string memory _uri) external {\n        LibAccessControl._requireOnlyRole(LibAccessControl.HIVE_ROLE); // hive timelock\n\n        LibRunnerDetail\n            ._storageRunnerDetail()\n            .runnerToRunnerDetail[_runner]\n            .uri = _uri;\n    }\n\n    event LeftHive(address indexed sender, address hive);\n\n    function leaveHive() external {\n        LibRunnerRegistry._requireIsRunner();\n        LibJobBoard._requireNotActive(); // ok use of requireNotActive\n\n        LibRunnerDetail.StorageRunnerDetail storage s1 = LibRunnerDetail\n            ._storageRunnerDetail();\n\n        address hive = s1.runnerToRunnerDetail[msg.sender].hive;\n        require(hive != address(0), \"RunnerRegistry: caller not in hive\");\n\n        s1.runnerToRunnerDetail[msg.sender].hive = address(0);\n\n        emit LeftHive(msg.sender, hive);\n    }\n}\n","sourcePath":"contracts/hub/facets/core/RunnerRegistry.sol","type":"contract","deployment":{"address":"0x866382773188bcdaFf4414dCb5443Ea72ADF8b90","chainid":"80001","blockHeight":26007172}}