{"abi":[{"anonymous":false,"inputs":[{"indexed":true,"internalType":"address","name":"sender","type":"address"},{"indexed":false,"internalType":"address","name":"priceFeed","type":"address"}],"name":"AddedPriceFeedRemoved","type":"event"},{"anonymous":false,"inputs":[{"indexed":true,"internalType":"address","name":"sender","type":"address"},{"indexed":false,"internalType":"address","name":"applicant","type":"address"}],"name":"ApplicantApproved","type":"event"},{"anonymous":false,"inputs":[{"indexed":true,"internalType":"address","name":"sender","type":"address"},{"indexed":false,"internalType":"bytes32","name":"key","type":"bytes32"}],"name":"CurrencyRegistered","type":"event"},{"anonymous":false,"inputs":[{"indexed":true,"internalType":"address","name":"sender","type":"address"},{"indexed":false,"internalType":"bytes32","name":"key","type":"bytes32"}],"name":"CurrencyRemoved","type":"event"},{"anonymous":false,"inputs":[{"indexed":true,"internalType":"address","name":"sender","type":"address"},{"indexed":false,"internalType":"bytes32","name":"keyX","type":"bytes32"},{"indexed":false,"internalType":"bytes32","name":"keyY","type":"bytes32"}],"name":"DerivedPriceFeedRemoved","type":"event"},{"anonymous":false,"inputs":[{"components":[{"internalType":"address","name":"facetAddress","type":"address"},{"internalType":"enum Cut.FacetCutAction","name":"action","type":"uint8"},{"internalType":"bytes4[]","name":"functionSelectors","type":"bytes4[]"}],"indexed":false,"internalType":"struct Cut.FacetCut[]","name":"_cut","type":"tuple[]"},{"indexed":false,"internalType":"address","name":"_init","type":"address"},{"indexed":false,"internalType":"bytes","name":"_calldata","type":"bytes"}],"name":"DiamondCut","type":"event"},{"anonymous":false,"inputs":[{"indexed":true,"internalType":"address","name":"sender","type":"address"},{"indexed":false,"internalType":"uint256","name":"fee","type":"uint256"}],"name":"FeeSetBase","type":"event"},{"anonymous":false,"inputs":[{"indexed":true,"internalType":"address","name":"sender","type":"address"},{"indexed":false,"internalType":"uint256","name":"fee","type":"uint256"}],"name":"FeeSetCancellation","type":"event"},{"anonymous":false,"inputs":[{"indexed":true,"internalType":"address","name":"sender","type":"address"},{"indexed":false,"internalType":"uint256","name":"fee","type":"uint256"}],"name":"FeeSetCostPerMetre","type":"event"},{"anonymous":false,"inputs":[{"indexed":true,"internalType":"address","name":"sender","type":"address"},{"indexed":false,"internalType":"uint256","name":"fee","type":"uint256"}],"name":"FeeSetCostPerMinute","type":"event"},{"anonymous":false,"inputs":[{"indexed":true,"internalType":"address","name":"sender","type":"address"},{"indexed":false,"internalType":"bytes32","name":"key","type":"bytes32"},{"indexed":false,"internalType":"uint256","name":"amount","type":"uint256"}],"name":"FundsLocked","type":"event"},{"anonymous":false,"inputs":[{"indexed":true,"internalType":"address","name":"sender","type":"address"},{"indexed":false,"internalType":"address","name":"decrease","type":"address"},{"indexed":false,"internalType":"address","name":"increase","type":"address"},{"indexed":false,"internalType":"bytes32","name":"key","type":"bytes32"},{"indexed":false,"internalType":"uint256","name":"amount","type":"uint256"}],"name":"FundsUnlocked","type":"event"},{"anonymous":false,"inputs":[{"indexed":true,"internalType":"address","name":"sender","type":"address"},{"indexed":false,"internalType":"uint256","name":"count","type":"uint256"}],"name":"HiveCreationCountSet","type":"event"},{"anonymous":false,"inputs":[{"indexed":true,"internalType":"address","name":"sender","type":"address"},{"indexed":false,"internalType":"uint256","name":"duration","type":"uint256"}],"name":"HiveDisputeDurationSet","type":"event"},{"anonymous":false,"inputs":[{"indexed":true,"internalType":"address","name":"sender","type":"address"},{"indexed":true,"internalType":"bytes32","name":"jobId","type":"bytes32"}],"name":"JobCleared","type":"event"},{"anonymous":false,"inputs":[{"indexed":true,"internalType":"address","name":"sender","type":"address"},{"indexed":true,"internalType":"bytes32","name":"jobId","type":"bytes32"}],"name":"JobCompleted","type":"event"},{"anonymous":false,"inputs":[{"indexed":true,"internalType":"address","name":"sender","type":"address"},{"indexed":false,"internalType":"uint256","name":"duration","type":"uint256"}],"name":"JobLifespanSet","type":"event"},{"anonymous":false,"inputs":[{"indexed":true,"internalType":"address","name":"sender","type":"address"},{"indexed":false,"internalType":"uint256","name":"duration","type":"uint256"}],"name":"MinDisputeDurationSet","type":"event"},{"anonymous":false,"inputs":[{"indexed":true,"internalType":"address","name":"sender","type":"address"},{"indexed":false,"internalType":"address","name":"token","type":"address"}],"name":"NativeTokenSet","type":"event"},{"anonymous":false,"inputs":[{"indexed":true,"internalType":"address","name":"sender","type":"address"},{"indexed":true,"internalType":"bytes32","name":"jobId","type":"bytes32"}],"name":"PackageCollected","type":"event"},{"anonymous":false,"inputs":[{"indexed":true,"internalType":"address","name":"sender","type":"address"},{"indexed":true,"internalType":"bytes32","name":"jobId","type":"bytes32"}],"name":"PackageDelivered","type":"event"},{"anonymous":false,"inputs":[{"indexed":true,"internalType":"address","name":"sender","type":"address"},{"indexed":true,"internalType":"bytes32","name":"jobId","type":"bytes32"}],"name":"PackageVerified","type":"event"},{"anonymous":false,"inputs":[{"indexed":true,"internalType":"address","name":"sender","type":"address"},{"indexed":false,"internalType":"bytes32","name":"keyX","type":"bytes32"},{"indexed":false,"internalType":"bytes32","name":"keyY","type":"bytes32"},{"indexed":false,"internalType":"address","name":"priceFeed","type":"address"}],"name":"PriceFeedAdded","type":"event"},{"anonymous":false,"inputs":[{"indexed":true,"internalType":"address","name":"sender","type":"address"},{"indexed":false,"internalType":"bytes32","name":"keyX","type":"bytes32"},{"indexed":false,"internalType":"bytes32","name":"keyY","type":"bytes32"},{"indexed":false,"internalType":"bytes32","name":"keyShared","type":"bytes32"}],"name":"PriceFeedDerived","type":"event"},{"anonymous":false,"inputs":[{"indexed":true,"internalType":"address","name":"sender","type":"address"},{"indexed":false,"internalType":"uint256","name":"rating","type":"uint256"}],"name":"RatingGiven","type":"event"},{"anonymous":false,"inputs":[{"indexed":true,"internalType":"address","name":"sender","type":"address"},{"indexed":true,"internalType":"bytes32","name":"jobId","type":"bytes32"}],"name":"RequestAccepted","type":"event"},{"anonymous":false,"inputs":[{"indexed":true,"internalType":"bytes32","name":"role","type":"bytes32"},{"indexed":true,"internalType":"bytes32","name":"previousAdminRole","type":"bytes32"},{"indexed":true,"internalType":"bytes32","name":"newAdminRole","type":"bytes32"}],"name":"RoleAdminChanged","type":"event"},{"anonymous":false,"inputs":[{"indexed":true,"internalType":"bytes32","name":"role","type":"bytes32"},{"indexed":true,"internalType":"address","name":"account","type":"address"},{"indexed":true,"internalType":"address","name":"sender","type":"address"}],"name":"RoleGranted","type":"event"},{"anonymous":false,"inputs":[{"indexed":true,"internalType":"bytes32","name":"role","type":"bytes32"},{"indexed":true,"internalType":"address","name":"account","type":"address"},{"indexed":true,"internalType":"address","name":"sender","type":"address"}],"name":"RoleRevoked","type":"event"},{"anonymous":false,"inputs":[{"indexed":true,"internalType":"address","name":"sender","type":"address"},{"indexed":true,"internalType":"bytes32","name":"jobId","type":"bytes32"}],"name":"RunnerCancelled","type":"event"},{"anonymous":false,"inputs":[{"indexed":true,"internalType":"address","name":"sender","type":"address"},{"indexed":false,"internalType":"uint256","name":"min","type":"uint256"},{"indexed":false,"internalType":"uint256","name":"max","type":"uint256"}],"name":"SetRatingBounds","type":"event"},{"anonymous":false,"inputs":[{"indexed":true,"internalType":"address","name":"sender","type":"address"},{"indexed":false,"internalType":"address","name":"user","type":"address"},{"indexed":false,"internalType":"uint256","name":"banDuration","type":"uint256"}],"name":"UserBanned","type":"event"},{"inputs":[{"internalType":"bytes32","name":"_keyLocal","type":"bytes32"},{"internalType":"bytes32","name":"_keyTransact","type":"bytes32"},{"internalType":"bytes32","name":"_jobId","type":"bytes32"}],"name":"acceptRequest","outputs":[],"stateMutability":"nonpayable","type":"function"},{"inputs":[{"internalType":"bytes32","name":"_jobId","type":"bytes32"}],"name":"cancelFromRunner","outputs":[],"stateMutability":"nonpayable","type":"function"},{"inputs":[{"internalType":"bytes32","name":"_jobId","type":"bytes32"},{"internalType":"address","name":"_package","type":"address"}],"name":"collectPackage","outputs":[],"stateMutability":"nonpayable","type":"function"},{"inputs":[{"internalType":"bytes32","name":"_jobId","type":"bytes32"},{"internalType":"bool","name":"_accept","type":"bool"}],"name":"completeJob","outputs":[],"stateMutability":"nonpayable","type":"function"},{"inputs":[{"internalType":"bytes32","name":"_jobId","type":"bytes32"}],"name":"deliverPackage","outputs":[],"stateMutability":"nonpayable","type":"function"},{"inputs":[{"internalType":"bytes32","name":"_jobId","type":"bytes32"},{"internalType":"address","name":"_package","type":"address"}],"name":"verify","outputs":[],"stateMutability":"nonpayable","type":"function"}],"bytecode":"608060405234801561001057600080fd5b50611462806100206000396000f3fe608060405234801561001057600080fd5b50600436106100625760003560e01c80635a8b886114610067578063a147234d1461007c578063b450ba4f1461008f578063b88fbd2d146100a2578063d98c3e00146100b5578063f795c009146100c8575b600080fd5b61007a610075366004611302565b6100db565b005b61007a61008a36600461137c565b6102c8565b61007a61009d36600461131a565b61062e565b61007a6100b036600461131a565b610746565b61007a6100c3366004611354565b6107c7565b61007a6100d6366004611302565b610a6d565b6100e481610bc7565b60008181526000805160206113ed833981519152602081905260409091205460019060ff16600581111561012857634e487b7160e01b600052602160045260246000fd5b14806101645750600360008381526020839052604090205460ff16600581111561016257634e487b7160e01b600052602160045260246000fd5b145b6101c95760405162461bcd60e51b815260206004820152602b60248201527f52756e6e65723a206a6f62207374617465206e6f74206163636570746564206f60448201526a1c8818dbdb1b1958dd195960aa1b60648201526084015b60405180910390fd5b600160008381526020839052604090205460ff1660058111156101fc57634e487b7160e01b600052602160045260246000fd5b14156102135761020e82600080610c52565b610259565b600360008381526020839052604090205460ff16600581111561024657634e487b7160e01b600052602160045260246000fd5b1415610259576102598260016000610c52565b33600090815260018281016020526040822080549192909161027c9084906113bf565b9091555050600082815260208290526040808220805460ff1916600217905551839133917faed88662cc5a6a0f822c839a543c5377dab781a3605d31f0b69a4d753e2bc2189190a35050565b6102d0610d0e565b33600090815260008051602061140d8339815191526020819052604090912060020154610305906001600160a01b0316610d85565b61030f8484610e16565b60008281526000805160206113ed833981519152602081905260409091205461010090046001600160a01b03166103815760405162461bcd60e51b815260206004820152601660248201527552756e6e65723a206a6f62206e6f742065786973747360501b60448201526064016101c0565b60008381526020829052604081205460ff1660058111156103b257634e487b7160e01b600052602160045260246000fd5b146103ff5760405162461bcd60e51b815260206004820152601d60248201527f52756e6e65723a206a6f62207374617465206e6f742070656e64696e6700000060448201526064016101c0565b600083815260208290526040902060050154851461046b5760405162461bcd60e51b8152602060048201526024808201527f52756e6e65723a206c6f63616c2063757272656e6379206b6579206e6f74206d6044820152630c2e8c6d60e31b60648201526084016101c0565b60008381526020829052604090206006015484146104db5760405162461bcd60e51b815260206004820152602760248201527f52756e6e65723a207472616e736163742063757272656e6379206b6579206e6f6044820152660e840dac2e8c6d60cb1b60648201526084016101c0565b33600090815260208381526040808320600301548684529184905290912060070154111561054b5760405162461bcd60e51b815260206004820152601960248201527f52756e6e65723a20657863656564206d6178206d65747265730000000000000060448201526064016101c0565b6000838152602082905260409020600981015460089091015461057991869161057491906113a7565b610eb9565b600083815260208290526040902060098101546008909101546105a79186916105a291906113a7565b610f41565b600083815260208281526040808320600180820180546001600160a01b03191633908117909155825460ff1916821790925590845280850190925282208054919290916105f59084906113a7565b9091555050604051839033907f84c975b571ee9a911664184f441732e016570c01bc40bb3fb73a084b469a8e7a90600090a35050505050565b61063782610bc7565b60008281526000805160206113ed833981519152602081905260409091205460019060ff16600581111561067b57634e487b7160e01b600052602160045260246000fd5b146106c85760405162461bcd60e51b815260206004820152601e60248201527f52756e6e65723a206a6f62207374617465206e6f74206163636570746564000060448201526064016101c0565b6106d183611001565b6106db8383610746565b6000838152602082905260409020600b015460ff16156106fe576106fe836110b8565b600083815260208290526040808220805460ff1916600317905551849133917fda8ef75a0823f06c6d88c84c6a24621f260af1a9a1217d50ba64d6de3a9ad5939190a3505050565b60008281526000805160206113ed83398151915260208190526040909120600201546001600160a01b03838116911614156107c257600083815260208290526040808220600b01805460ff1916600117905551849133917fef4626193acb490407a4366df7f869674ccab3ffea88232785449eca97979b299190a35b505050565b6107d082610bc7565b60008281526000805160206113ed833981519152602081905260409091205460049060ff16600581111561081457634e487b7160e01b600052602160045260246000fd5b146108615760405162461bcd60e51b815260206004820152601f60248201527f52756e6e65723a206a6f62207374617465206e6f742064656c6976657265640060448201526064016101c0565b61086a8361117b565b816108ac5760405162461bcd60e51b8152602060048201526012602482015271149d5b9b995c8e881b9bdd081858d8d95c1d60721b60448201526064016101c0565b6000838152602082905260409020600b015460008051602061140d83398151915290610100900460ff16156108ed576108e88460006001610c52565b6109fc565b6108f984600180610c52565b6000848152602083905260409020600b015460ff16156109fc576000848152602083905260409020600b01546301000000900460ff1661093c5761093c846110b8565b6000848152602083815260408083206007015433845291849052822060040180549192909161096c9084906113a7565b90915550503360009081526020829052604081206006018054600192906109949084906113a7565b90915550600190507fb488b33f71fd9e5c0e8bf7e1aa82d584aaf8413fad3e382b04576a3cc3bbd9c76000868152602085815260408083205461010090046001600160a01b0316835292905290812060010180549091906109f69084906113a7565b90915550505b336000908152600183810160205260408220805491929091610a1f9084906113bf565b9091555050600084815260208390526040808220805460ff1916600517905551859133917ff6d5b898eb7024fe11c7c87f2fd11c2aa9744c88932a23915cb6bf1d41c621c29190a350505050565b610a7681610bc7565b60008181526000805160206113ed833981519152602081905260409091205460039060ff166005811115610aba57634e487b7160e01b600052602160045260246000fd5b14610b075760405162461bcd60e51b815260206004820152601f60248201527f52756e6e65723a206a6f62207374617465206e6f7420636f6c6c65637465640060448201526064016101c0565b610b108261117b565b6000828152602082905260409020600b0154610100900460ff1615610b775760405162461bcd60e51b815260206004820152601960248201527f52756e6e65723a2072657175657374657220646973707574650000000000000060448201526064016101c0565b610b8082611001565b600082815260208290526040808220805460ff1916600417905551839133917fd1ed1cc47f24f2ef2ec0f944d497d51d4258c4a70e4a35cddf07cc4a46af2b9a9190a35050565b60008181526000805160206113ed83398151915260205260409020600101546001600160a01b03163314610c4f5760405162461bcd60e51b815260206004820152602960248201527f4c696252756e6e65723a2063616c6c6572206e6f74206d61746368206a6f622060448201526834b210393ab73732b960b91b60648201526084016101c0565b50565b60008381526000805160206113ed8339815191526020526040812080546001820154600683015460088401546009909401546101009093046001600160a01b039081169592169390929091808080808b15610cb257869450859350610cb9565b8594508693505b610cc386886113a7565b92508a15610cd5575088905087610cdb565b50879050885b610ce7888684846111f8565b610cf3888584856111f8565b610cff888483846111f8565b50505050505050505050505050565b33600090815260008051602061140d8339815191526020526040902054610d835760405162461bcd60e51b8152602060048201526024808201527f4c696252756e6e657252656769737472793a2063616c6c6572206e6f74207275604482015263373732b960e11b60648201526084016101c0565b565b7f291891b328c08e91561b70fdd022498fbad6a1a2e983983bc63d45e111cdf0ec336000908152602091825260408082206001600160a01b03851683529092522054421015610c4f5760405162461bcd60e51b815260206004820152601860248201527f4c696250656e616c74793a207374696c6c2062616e6e6564000000000000000060448201526064016101c0565b60007f53e81b6394f0808163be38c3d2fc2c762dd7686d10fe6296ed6cbf8c0f3e8b1360008481526020918252604080822085835290925220546001600160a01b03161415610eb55760405162461bcd60e51b815260206004820152602560248201527f4c696245786368616e67653a2050726963652066656564206e6f7420737570706044820152641bdc9d195960da1b60648201526084016101c0565b5050565b7fc15856d6786c9849fce88accf879bc2b002dc555d3ff91b5869e3b7b51c529bb336000908152602091825260408082208583529092522054811115610eb55760405162461bcd60e51b815260206004820181905260248201527f4c6962486f6c64696e673a20696e73756666696369656e7420686f6c64696e6760448201526064016101c0565b3360009081527fc15856d6786c9849fce88accf879bc2b002dc555d3ff91b5869e3b7b51c529bb602081815260408084208685529091528220805491928492610f8b9084906113bf565b9091555050336000908152600182016020908152604080832086845290915281208054849290610fbc9084906113a7565b9091555050604080518481526020810184905233917fb1593762ff20f7fe2289f7bec73ff895f464fe7e5b20af138cffeca343e8402b910160405180910390a2505050565b33600090815260008051602061140d83398151915260209081526040808320600201546001600160a01b031683527fe79924097ccc2e2b47e332de4c30d72abc5a8153cca3b67cc7a0f5258cd81dec9091529020547fe79924097ccc2e2b47e332de4c30d72abc5a8153cca3b67cc7a0f5258cd81deb546000805160206113ed8339815191529190811015611097575060038101545b6110a181426113a7565b6000938452602092909252506040909120600a0155565b33600090815260008051602061140d8339815191526020526040812060050180546000805160206113ed83398151915292600192916110f89084906113a7565b90915550506000828152602082815260408083205461010090046001600160a01b031683527fb488b33f71fd9e5c0e8bf7e1aa82d584aaf8413fad3e382b04576a3cc3bbd9c790915281208054600192906111549084906113a7565b9091555050600091825260205260409020600b01805463ff00000019166301000000179055565b60008181526000805160206113ed83398151915260205260409020600a01544211610c4f5760405162461bcd60e51b815260206004820152602760248201527f4c69624a6f62426f6172643a206469737075746520706572696f64206e6f7420604482015266195e1c1a5c995960ca1b60648201526084016101c0565b6001600160a01b03821660009081527fc15856d6786c9849fce88accf879bc2b002dc555d3ff91b5869e3b7b51c529bc60209081526040808320878452909152812080547fc15856d6786c9849fce88accf879bc2b002dc555d3ff91b5869e3b7b51c529bb9286929161126c9084906113bf565b90915550506001600160a01b038216600090815260208281526040808320888452909152812080548692906112a29084906113a7565b9091555050604080516001600160a01b038086168252841660208201529081018690526060810185905233907fbebca434b66bece58c971022a65ed7909850687c4469d4b0897812ee032077d29060800160405180910390a25050505050565b600060208284031215611313578081fd5b5035919050565b6000806040838503121561132c578081fd5b8235915060208301356001600160a01b0381168114611349578182fd5b809150509250929050565b60008060408385031215611366578182fd5b8235915060208301358015158114611349578182fd5b600080600060608486031215611390578081fd5b505081359360208301359350604090920135919050565b600082198211156113ba576113ba6113d6565b500190565b6000828210156113d1576113d16113d6565b500390565b634e487b7160e01b600052601160045260246000fdfee79924097ccc2e2b47e332de4c30d72abc5a8153cca3b67cc7a0f5258cd81de8c7ddcdc008a4787bc0ebc7e57c6de87615ae1cb780f671ab25bfdfbd9cc9ce62a26469706673582212208846925337415b49fec565afd87719192af971b7e4e5ca0ccdfae4a66efde45264736f6c63430008040033","bytecodeSha1":"ea2d6349068ea3d09ac47b7fd7f2c22ce7b84eff","compiler":{"evm_version":"istanbul","optimizer":{"enabled":true,"runs":200},"version":"0.8.4+commit.c7e474f2"},"contractName":"Runner","language":"Solidity","natspec":{"kind":"dev","methods":{},"version":1},"opcodes":"PUSH1 0x80 PUSH1 0x40 MSTORE CALLVALUE DUP1 ISZERO PUSH2 0x10 JUMPI PUSH1 0x0 DUP1 REVERT JUMPDEST POP PUSH1 0x4 CALLDATASIZE LT PUSH2 0x62 JUMPI PUSH1 0x0 CALLDATALOAD PUSH1 0xE0 SHR DUP1 PUSH4 0x5A8B8861 EQ PUSH2 0x67 JUMPI DUP1 PUSH4 0xA147234D EQ PUSH2 0x7C JUMPI DUP1 PUSH4 0xB450BA4F EQ PUSH2 0x8F JUMPI DUP1 PUSH4 0xB88FBD2D EQ PUSH2 0xA2 JUMPI DUP1 PUSH4 0xD98C3E00 EQ PUSH2 0xB5 JUMPI DUP1 PUSH4 0xF795C009 EQ PUSH2 0xC8 JUMPI JUMPDEST PUSH1 0x0 DUP1 REVERT JUMPDEST PUSH2 0x7A PUSH2 0x75 CALLDATASIZE PUSH1 0x4 PUSH2 0x1302 JUMP JUMPDEST PUSH2 0xDB JUMP JUMPDEST STOP JUMPDEST PUSH2 0x7A PUSH2 0x8A CALLDATASIZE PUSH1 0x4 PUSH2 0x137C JUMP JUMPDEST PUSH2 0x2C8 JUMP JUMPDEST PUSH2 0x7A PUSH2 0x9D CALLDATASIZE PUSH1 0x4 PUSH2 0x131A JUMP JUMPDEST PUSH2 0x62E JUMP JUMPDEST PUSH2 0x7A PUSH2 0xB0 CALLDATASIZE PUSH1 0x4 PUSH2 0x131A JUMP JUMPDEST PUSH2 0x746 JUMP JUMPDEST PUSH2 0x7A PUSH2 0xC3 CALLDATASIZE PUSH1 0x4 PUSH2 0x1354 JUMP JUMPDEST PUSH2 0x7C7 JUMP JUMPDEST PUSH2 0x7A PUSH2 0xD6 CALLDATASIZE PUSH1 0x4 PUSH2 0x1302 JUMP JUMPDEST PUSH2 0xA6D JUMP JUMPDEST PUSH2 0xE4 DUP2 PUSH2 0xBC7 JUMP JUMPDEST PUSH1 0x0 DUP2 DUP2 MSTORE PUSH1 0x0 DUP1 MLOAD PUSH1 0x20 PUSH2 0x13ED DUP4 CODECOPY DUP2 MLOAD SWAP2 MSTORE PUSH1 0x20 DUP2 SWAP1 MSTORE PUSH1 0x40 SWAP1 SWAP2 KECCAK256 SLOAD PUSH1 0x1 SWAP1 PUSH1 0xFF AND PUSH1 0x5 DUP2 GT ISZERO PUSH2 0x128 JUMPI PUSH4 0x4E487B71 PUSH1 0xE0 SHL PUSH1 0x0 MSTORE PUSH1 0x21 PUSH1 0x4 MSTORE PUSH1 0x24 PUSH1 0x0 REVERT JUMPDEST EQ DUP1 PUSH2 0x164 JUMPI POP PUSH1 0x3 PUSH1 0x0 DUP4 DUP2 MSTORE PUSH1 0x20 DUP4 SWAP1 MSTORE PUSH1 0x40 SWAP1 KECCAK256 SLOAD PUSH1 0xFF AND PUSH1 0x5 DUP2 GT ISZERO PUSH2 0x162 JUMPI PUSH4 0x4E487B71 PUSH1 0xE0 SHL PUSH1 0x0 MSTORE PUSH1 0x21 PUSH1 0x4 MSTORE PUSH1 0x24 PUSH1 0x0 REVERT JUMPDEST EQ JUMPDEST PUSH2 0x1C9 JUMPI PUSH1 0x40 MLOAD PUSH3 0x461BCD PUSH1 0xE5 SHL DUP2 MSTORE PUSH1 0x20 PUSH1 0x4 DUP3 ADD MSTORE PUSH1 0x2B PUSH1 0x24 DUP3 ADD MSTORE PUSH32 0x52756E6E65723A206A6F62207374617465206E6F74206163636570746564206F PUSH1 0x44 DUP3 ADD MSTORE PUSH11 0x1C8818DBDB1B1958DD1959 PUSH1 0xAA SHL PUSH1 0x64 DUP3 ADD MSTORE PUSH1 0x84 ADD JUMPDEST PUSH1 0x40 MLOAD DUP1 SWAP2 SUB SWAP1 REVERT JUMPDEST PUSH1 0x1 PUSH1 0x0 DUP4 DUP2 MSTORE PUSH1 0x20 DUP4 SWAP1 MSTORE PUSH1 0x40 SWAP1 KECCAK256 SLOAD PUSH1 0xFF AND PUSH1 0x5 DUP2 GT ISZERO PUSH2 0x1FC JUMPI PUSH4 0x4E487B71 PUSH1 0xE0 SHL PUSH1 0x0 MSTORE PUSH1 0x21 PUSH1 0x4 MSTORE PUSH1 0x24 PUSH1 0x0 REVERT JUMPDEST EQ ISZERO PUSH2 0x213 JUMPI PUSH2 0x20E DUP3 PUSH1 0x0 DUP1 PUSH2 0xC52 JUMP JUMPDEST PUSH2 0x259 JUMP JUMPDEST PUSH1 0x3 PUSH1 0x0 DUP4 DUP2 MSTORE PUSH1 0x20 DUP4 SWAP1 MSTORE PUSH1 0x40 SWAP1 KECCAK256 SLOAD PUSH1 0xFF AND PUSH1 0x5 DUP2 GT ISZERO PUSH2 0x246 JUMPI PUSH4 0x4E487B71 PUSH1 0xE0 SHL PUSH1 0x0 MSTORE PUSH1 0x21 PUSH1 0x4 MSTORE PUSH1 0x24 PUSH1 0x0 REVERT JUMPDEST EQ ISZERO PUSH2 0x259 JUMPI PUSH2 0x259 DUP3 PUSH1 0x1 PUSH1 0x0 PUSH2 0xC52 JUMP JUMPDEST CALLER PUSH1 0x0 SWAP1 DUP2 MSTORE PUSH1 0x1 DUP3 DUP2 ADD PUSH1 0x20 MSTORE PUSH1 0x40 DUP3 KECCAK256 DUP1 SLOAD SWAP2 SWAP3 SWAP1 SWAP2 PUSH2 0x27C SWAP1 DUP5 SWAP1 PUSH2 0x13BF JUMP JUMPDEST SWAP1 SWAP2 SSTORE POP POP PUSH1 0x0 DUP3 DUP2 MSTORE PUSH1 0x20 DUP3 SWAP1 MSTORE PUSH1 0x40 DUP1 DUP3 KECCAK256 DUP1 SLOAD PUSH1 0xFF NOT AND PUSH1 0x2 OR SWAP1 SSTORE MLOAD DUP4 SWAP2 CALLER SWAP2 PUSH32 0xAED88662CC5A6A0F822C839A543C5377DAB781A3605D31F0B69A4D753E2BC218 SWAP2 SWAP1 LOG3 POP POP JUMP JUMPDEST PUSH2 0x2D0 PUSH2 0xD0E JUMP JUMPDEST CALLER PUSH1 0x0 SWAP1 DUP2 MSTORE PUSH1 0x0 DUP1 MLOAD PUSH1 0x20 PUSH2 0x140D DUP4 CODECOPY DUP2 MLOAD SWAP2 MSTORE PUSH1 0x20 DUP2 SWAP1 MSTORE PUSH1 0x40 SWAP1 SWAP2 KECCAK256 PUSH1 0x2 ADD SLOAD PUSH2 0x305 SWAP1 PUSH1 0x1 PUSH1 0x1 PUSH1 0xA0 SHL SUB AND PUSH2 0xD85 JUMP JUMPDEST PUSH2 0x30F DUP5 DUP5 PUSH2 0xE16 JUMP JUMPDEST PUSH1 0x0 DUP3 DUP2 MSTORE PUSH1 0x0 DUP1 MLOAD PUSH1 0x20 PUSH2 0x13ED DUP4 CODECOPY DUP2 MLOAD SWAP2 MSTORE PUSH1 0x20 DUP2 SWAP1 MSTORE PUSH1 0x40 SWAP1 SWAP2 KECCAK256 SLOAD PUSH2 0x100 SWAP1 DIV PUSH1 0x1 PUSH1 0x1 PUSH1 0xA0 SHL SUB AND PUSH2 0x381 JUMPI PUSH1 0x40 MLOAD PUSH3 0x461BCD PUSH1 0xE5 SHL DUP2 MSTORE PUSH1 0x20 PUSH1 0x4 DUP3 ADD MSTORE PUSH1 0x16 PUSH1 0x24 DUP3 ADD MSTORE PUSH22 0x52756E6E65723A206A6F62206E6F7420657869737473 PUSH1 0x50 SHL PUSH1 0x44 DUP3 ADD MSTORE PUSH1 0x64 ADD PUSH2 0x1C0 JUMP JUMPDEST PUSH1 0x0 DUP4 DUP2 MSTORE PUSH1 0x20 DUP3 SWAP1 MSTORE PUSH1 0x40 DUP2 KECCAK256 SLOAD PUSH1 0xFF AND PUSH1 0x5 DUP2 GT ISZERO PUSH2 0x3B2 JUMPI PUSH4 0x4E487B71 PUSH1 0xE0 SHL PUSH1 0x0 MSTORE PUSH1 0x21 PUSH1 0x4 MSTORE PUSH1 0x24 PUSH1 0x0 REVERT JUMPDEST EQ PUSH2 0x3FF JUMPI PUSH1 0x40 MLOAD PUSH3 0x461BCD PUSH1 0xE5 SHL DUP2 MSTORE PUSH1 0x20 PUSH1 0x4 DUP3 ADD MSTORE PUSH1 0x1D PUSH1 0x24 DUP3 ADD MSTORE PUSH32 0x52756E6E65723A206A6F62207374617465206E6F742070656E64696E67000000 PUSH1 0x44 DUP3 ADD MSTORE PUSH1 0x64 ADD PUSH2 0x1C0 JUMP JUMPDEST PUSH1 0x0 DUP4 DUP2 MSTORE PUSH1 0x20 DUP3 SWAP1 MSTORE PUSH1 0x40 SWAP1 KECCAK256 PUSH1 0x5 ADD SLOAD DUP6 EQ PUSH2 0x46B JUMPI PUSH1 0x40 MLOAD PUSH3 0x461BCD PUSH1 0xE5 SHL DUP2 MSTORE PUSH1 0x20 PUSH1 0x4 DUP3 ADD MSTORE PUSH1 0x24 DUP1 DUP3 ADD MSTORE PUSH32 0x52756E6E65723A206C6F63616C2063757272656E6379206B6579206E6F74206D PUSH1 0x44 DUP3 ADD MSTORE PUSH4 0xC2E8C6D PUSH1 0xE3 SHL PUSH1 0x64 DUP3 ADD MSTORE PUSH1 0x84 ADD PUSH2 0x1C0 JUMP JUMPDEST PUSH1 0x0 DUP4 DUP2 MSTORE PUSH1 0x20 DUP3 SWAP1 MSTORE PUSH1 0x40 SWAP1 KECCAK256 PUSH1 0x6 ADD SLOAD DUP5 EQ PUSH2 0x4DB JUMPI PUSH1 0x40 MLOAD PUSH3 0x461BCD PUSH1 0xE5 SHL DUP2 MSTORE PUSH1 0x20 PUSH1 0x4 DUP3 ADD MSTORE PUSH1 0x27 PUSH1 0x24 DUP3 ADD MSTORE PUSH32 0x52756E6E65723A207472616E736163742063757272656E6379206B6579206E6F PUSH1 0x44 DUP3 ADD MSTORE PUSH7 0xE840DAC2E8C6D PUSH1 0xCB SHL PUSH1 0x64 DUP3 ADD MSTORE PUSH1 0x84 ADD PUSH2 0x1C0 JUMP JUMPDEST CALLER PUSH1 0x0 SWAP1 DUP2 MSTORE PUSH1 0x20 DUP4 DUP2 MSTORE PUSH1 0x40 DUP1 DUP4 KECCAK256 PUSH1 0x3 ADD SLOAD DUP7 DUP5 MSTORE SWAP2 DUP5 SWAP1 MSTORE SWAP1 SWAP2 KECCAK256 PUSH1 0x7 ADD SLOAD GT ISZERO PUSH2 0x54B JUMPI PUSH1 0x40 MLOAD PUSH3 0x461BCD PUSH1 0xE5 SHL DUP2 MSTORE PUSH1 0x20 PUSH1 0x4 DUP3 ADD MSTORE PUSH1 0x19 PUSH1 0x24 DUP3 ADD MSTORE PUSH32 0x52756E6E65723A20657863656564206D6178206D657472657300000000000000 PUSH1 0x44 DUP3 ADD MSTORE PUSH1 0x64 ADD PUSH2 0x1C0 JUMP JUMPDEST PUSH1 0x0 DUP4 DUP2 MSTORE PUSH1 0x20 DUP3 SWAP1 MSTORE PUSH1 0x40 SWAP1 KECCAK256 PUSH1 0x9 DUP2 ADD SLOAD PUSH1 0x8 SWAP1 SWAP2 ADD SLOAD PUSH2 0x579 SWAP2 DUP7 SWAP2 PUSH2 0x574 SWAP2 SWAP1 PUSH2 0x13A7 JUMP JUMPDEST PUSH2 0xEB9 JUMP JUMPDEST PUSH1 0x0 DUP4 DUP2 MSTORE PUSH1 0x20 DUP3 SWAP1 MSTORE PUSH1 0x40 SWAP1 KECCAK256 PUSH1 0x9 DUP2 ADD SLOAD PUSH1 0x8 SWAP1 SWAP2 ADD SLOAD PUSH2 0x5A7 SWAP2 DUP7 SWAP2 PUSH2 0x5A2 SWAP2 SWAP1 PUSH2 0x13A7 JUMP JUMPDEST PUSH2 0xF41 JUMP JUMPDEST PUSH1 0x0 DUP4 DUP2 MSTORE PUSH1 0x20 DUP3 DUP2 MSTORE PUSH1 0x40 DUP1 DUP4 KECCAK256 PUSH1 0x1 DUP1 DUP3 ADD DUP1 SLOAD PUSH1 0x1 PUSH1 0x1 PUSH1 0xA0 SHL SUB NOT AND CALLER SWAP1 DUP2 OR SWAP1 SWAP2 SSTORE DUP3 SLOAD PUSH1 0xFF NOT AND DUP3 OR SWAP1 SWAP3 SSTORE SWAP1 DUP5 MSTORE DUP1 DUP6 ADD SWAP1 SWAP3 MSTORE DUP3 KECCAK256 DUP1 SLOAD SWAP2 SWAP3 SWAP1 SWAP2 PUSH2 0x5F5 SWAP1 DUP5 SWAP1 PUSH2 0x13A7 JUMP JUMPDEST SWAP1 SWAP2 SSTORE POP POP PUSH1 0x40 MLOAD DUP4 SWAP1 CALLER SWAP1 PUSH32 0x84C975B571EE9A911664184F441732E016570C01BC40BB3FB73A084B469A8E7A SWAP1 PUSH1 0x0 SWAP1 LOG3 POP POP POP POP POP JUMP JUMPDEST PUSH2 0x637 DUP3 PUSH2 0xBC7 JUMP JUMPDEST PUSH1 0x0 DUP3 DUP2 MSTORE PUSH1 0x0 DUP1 MLOAD PUSH1 0x20 PUSH2 0x13ED DUP4 CODECOPY DUP2 MLOAD SWAP2 MSTORE PUSH1 0x20 DUP2 SWAP1 MSTORE PUSH1 0x40 SWAP1 SWAP2 KECCAK256 SLOAD PUSH1 0x1 SWAP1 PUSH1 0xFF AND PUSH1 0x5 DUP2 GT ISZERO PUSH2 0x67B JUMPI PUSH4 0x4E487B71 PUSH1 0xE0 SHL PUSH1 0x0 MSTORE PUSH1 0x21 PUSH1 0x4 MSTORE PUSH1 0x24 PUSH1 0x0 REVERT JUMPDEST EQ PUSH2 0x6C8 JUMPI PUSH1 0x40 MLOAD PUSH3 0x461BCD PUSH1 0xE5 SHL DUP2 MSTORE PUSH1 0x20 PUSH1 0x4 DUP3 ADD MSTORE PUSH1 0x1E PUSH1 0x24 DUP3 ADD MSTORE PUSH32 0x52756E6E65723A206A6F62207374617465206E6F742061636365707465640000 PUSH1 0x44 DUP3 ADD MSTORE PUSH1 0x64 ADD PUSH2 0x1C0 JUMP JUMPDEST PUSH2 0x6D1 DUP4 PUSH2 0x1001 JUMP JUMPDEST PUSH2 0x6DB DUP4 DUP4 PUSH2 0x746 JUMP JUMPDEST PUSH1 0x0 DUP4 DUP2 MSTORE PUSH1 0x20 DUP3 SWAP1 MSTORE PUSH1 0x40 SWAP1 KECCAK256 PUSH1 0xB ADD SLOAD PUSH1 0xFF AND ISZERO PUSH2 0x6FE JUMPI PUSH2 0x6FE DUP4 PUSH2 0x10B8 JUMP JUMPDEST PUSH1 0x0 DUP4 DUP2 MSTORE PUSH1 0x20 DUP3 SWAP1 MSTORE PUSH1 0x40 DUP1 DUP3 KECCAK256 DUP1 SLOAD PUSH1 0xFF NOT AND PUSH1 0x3 OR SWAP1 SSTORE MLOAD DUP5 SWAP2 CALLER SWAP2 PUSH32 0xDA8EF75A0823F06C6D88C84C6A24621F260AF1A9A1217D50BA64D6DE3A9AD593 SWAP2 SWAP1 LOG3 POP POP POP JUMP JUMPDEST PUSH1 0x0 DUP3 DUP2 MSTORE PUSH1 0x0 DUP1 MLOAD PUSH1 0x20 PUSH2 0x13ED DUP4 CODECOPY DUP2 MLOAD SWAP2 MSTORE PUSH1 0x20 DUP2 SWAP1 MSTORE PUSH1 0x40 SWAP1 SWAP2 KECCAK256 PUSH1 0x2 ADD SLOAD PUSH1 0x1 PUSH1 0x1 PUSH1 0xA0 SHL SUB DUP4 DUP2 AND SWAP2 AND EQ ISZERO PUSH2 0x7C2 JUMPI PUSH1 0x0 DUP4 DUP2 MSTORE PUSH1 0x20 DUP3 SWAP1 MSTORE PUSH1 0x40 DUP1 DUP3 KECCAK256 PUSH1 0xB ADD DUP1 SLOAD PUSH1 0xFF NOT AND PUSH1 0x1 OR SWAP1 SSTORE MLOAD DUP5 SWAP2 CALLER SWAP2 PUSH32 0xEF4626193ACB490407A4366DF7F869674CCAB3FFEA88232785449ECA97979B29 SWAP2 SWAP1 LOG3 JUMPDEST POP POP POP JUMP JUMPDEST PUSH2 0x7D0 DUP3 PUSH2 0xBC7 JUMP JUMPDEST PUSH1 0x0 DUP3 DUP2 MSTORE PUSH1 0x0 DUP1 MLOAD PUSH1 0x20 PUSH2 0x13ED DUP4 CODECOPY DUP2 MLOAD SWAP2 MSTORE PUSH1 0x20 DUP2 SWAP1 MSTORE PUSH1 0x40 SWAP1 SWAP2 KECCAK256 SLOAD PUSH1 0x4 SWAP1 PUSH1 0xFF AND PUSH1 0x5 DUP2 GT ISZERO PUSH2 0x814 JUMPI PUSH4 0x4E487B71 PUSH1 0xE0 SHL PUSH1 0x0 MSTORE PUSH1 0x21 PUSH1 0x4 MSTORE PUSH1 0x24 PUSH1 0x0 REVERT JUMPDEST EQ PUSH2 0x861 JUMPI PUSH1 0x40 MLOAD PUSH3 0x461BCD PUSH1 0xE5 SHL DUP2 MSTORE PUSH1 0x20 PUSH1 0x4 DUP3 ADD MSTORE PUSH1 0x1F PUSH1 0x24 DUP3 ADD MSTORE PUSH32 0x52756E6E65723A206A6F62207374617465206E6F742064656C69766572656400 PUSH1 0x44 DUP3 ADD MSTORE PUSH1 0x64 ADD PUSH2 0x1C0 JUMP JUMPDEST PUSH2 0x86A DUP4 PUSH2 0x117B JUMP JUMPDEST DUP2 PUSH2 0x8AC JUMPI PUSH1 0x40 MLOAD PUSH3 0x461BCD PUSH1 0xE5 SHL DUP2 MSTORE PUSH1 0x20 PUSH1 0x4 DUP3 ADD MSTORE PUSH1 0x12 PUSH1 0x24 DUP3 ADD MSTORE PUSH18 0x149D5B9B995C8E881B9BDD081858D8D95C1D PUSH1 0x72 SHL PUSH1 0x44 DUP3 ADD MSTORE PUSH1 0x64 ADD PUSH2 0x1C0 JUMP JUMPDEST PUSH1 0x0 DUP4 DUP2 MSTORE PUSH1 0x20 DUP3 SWAP1 MSTORE PUSH1 0x40 SWAP1 KECCAK256 PUSH1 0xB ADD SLOAD PUSH1 0x0 DUP1 MLOAD PUSH1 0x20 PUSH2 0x140D DUP4 CODECOPY DUP2 MLOAD SWAP2 MSTORE SWAP1 PUSH2 0x100 SWAP1 DIV PUSH1 0xFF AND ISZERO PUSH2 0x8ED JUMPI PUSH2 0x8E8 DUP5 PUSH1 0x0 PUSH1 0x1 PUSH2 0xC52 JUMP JUMPDEST PUSH2 0x9FC JUMP JUMPDEST PUSH2 0x8F9 DUP5 PUSH1 0x1 DUP1 PUSH2 0xC52 JUMP JUMPDEST PUSH1 0x0 DUP5 DUP2 MSTORE PUSH1 0x20 DUP4 SWAP1 MSTORE PUSH1 0x40 SWAP1 KECCAK256 PUSH1 0xB ADD SLOAD PUSH1 0xFF AND ISZERO PUSH2 0x9FC JUMPI PUSH1 0x0 DUP5 DUP2 MSTORE PUSH1 0x20 DUP4 SWAP1 MSTORE PUSH1 0x40 SWAP1 KECCAK256 PUSH1 0xB ADD SLOAD PUSH4 0x1000000 SWAP1 DIV PUSH1 0xFF AND PUSH2 0x93C JUMPI PUSH2 0x93C DUP5 PUSH2 0x10B8 JUMP JUMPDEST PUSH1 0x0 DUP5 DUP2 MSTORE PUSH1 0x20 DUP4 DUP2 MSTORE PUSH1 0x40 DUP1 DUP4 KECCAK256 PUSH1 0x7 ADD SLOAD CALLER DUP5 MSTORE SWAP2 DUP5 SWAP1 MSTORE DUP3 KECCAK256 PUSH1 0x4 ADD DUP1 SLOAD SWAP2 SWAP3 SWAP1 SWAP2 PUSH2 0x96C SWAP1 DUP5 SWAP1 PUSH2 0x13A7 JUMP JUMPDEST SWAP1 SWAP2 SSTORE POP POP CALLER PUSH1 0x0 SWAP1 DUP2 MSTORE PUSH1 0x20 DUP3 SWAP1 MSTORE PUSH1 0x40 DUP2 KECCAK256 PUSH1 0x6 ADD DUP1 SLOAD PUSH1 0x1 SWAP3 SWAP1 PUSH2 0x994 SWAP1 DUP5 SWAP1 PUSH2 0x13A7 JUMP JUMPDEST SWAP1 SWAP2 SSTORE POP PUSH1 0x1 SWAP1 POP PUSH32 0xB488B33F71FD9E5C0E8BF7E1AA82D584AAF8413FAD3E382B04576A3CC3BBD9C7 PUSH1 0x0 DUP7 DUP2 MSTORE PUSH1 0x20 DUP6 DUP2 MSTORE PUSH1 0x40 DUP1 DUP4 KECCAK256 SLOAD PUSH2 0x100 SWAP1 DIV PUSH1 0x1 PUSH1 0x1 PUSH1 0xA0 SHL SUB AND DUP4 MSTORE SWAP3 SWAP1 MSTORE SWAP1 DUP2 KECCAK256 PUSH1 0x1 ADD DUP1 SLOAD SWAP1 SWAP2 SWAP1 PUSH2 0x9F6 SWAP1 DUP5 SWAP1 PUSH2 0x13A7 JUMP JUMPDEST SWAP1 SWAP2 SSTORE POP POP JUMPDEST CALLER PUSH1 0x0 SWAP1 DUP2 MSTORE PUSH1 0x1 DUP4 DUP2 ADD PUSH1 0x20 MSTORE PUSH1 0x40 DUP3 KECCAK256 DUP1 SLOAD SWAP2 SWAP3 SWAP1 SWAP2 PUSH2 0xA1F SWAP1 DUP5 SWAP1 PUSH2 0x13BF JUMP JUMPDEST SWAP1 SWAP2 SSTORE POP POP PUSH1 0x0 DUP5 DUP2 MSTORE PUSH1 0x20 DUP4 SWAP1 MSTORE PUSH1 0x40 DUP1 DUP3 KECCAK256 DUP1 SLOAD PUSH1 0xFF NOT AND PUSH1 0x5 OR SWAP1 SSTORE MLOAD DUP6 SWAP2 CALLER SWAP2 PUSH32 0xF6D5B898EB7024FE11C7C87F2FD11C2AA9744C88932A23915CB6BF1D41C621C2 SWAP2 SWAP1 LOG3 POP POP POP POP JUMP JUMPDEST PUSH2 0xA76 DUP2 PUSH2 0xBC7 JUMP JUMPDEST PUSH1 0x0 DUP2 DUP2 MSTORE PUSH1 0x0 DUP1 MLOAD PUSH1 0x20 PUSH2 0x13ED DUP4 CODECOPY DUP2 MLOAD SWAP2 MSTORE PUSH1 0x20 DUP2 SWAP1 MSTORE PUSH1 0x40 SWAP1 SWAP2 KECCAK256 SLOAD PUSH1 0x3 SWAP1 PUSH1 0xFF AND PUSH1 0x5 DUP2 GT ISZERO PUSH2 0xABA JUMPI PUSH4 0x4E487B71 PUSH1 0xE0 SHL PUSH1 0x0 MSTORE PUSH1 0x21 PUSH1 0x4 MSTORE PUSH1 0x24 PUSH1 0x0 REVERT JUMPDEST EQ PUSH2 0xB07 JUMPI PUSH1 0x40 MLOAD PUSH3 0x461BCD PUSH1 0xE5 SHL DUP2 MSTORE PUSH1 0x20 PUSH1 0x4 DUP3 ADD MSTORE PUSH1 0x1F PUSH1 0x24 DUP3 ADD MSTORE PUSH32 0x52756E6E65723A206A6F62207374617465206E6F7420636F6C6C656374656400 PUSH1 0x44 DUP3 ADD MSTORE PUSH1 0x64 ADD PUSH2 0x1C0 JUMP JUMPDEST PUSH2 0xB10 DUP3 PUSH2 0x117B JUMP JUMPDEST PUSH1 0x0 DUP3 DUP2 MSTORE PUSH1 0x20 DUP3 SWAP1 MSTORE PUSH1 0x40 SWAP1 KECCAK256 PUSH1 0xB ADD SLOAD PUSH2 0x100 SWAP1 DIV PUSH1 0xFF AND ISZERO PUSH2 0xB77 JUMPI PUSH1 0x40 MLOAD PUSH3 0x461BCD PUSH1 0xE5 SHL DUP2 MSTORE PUSH1 0x20 PUSH1 0x4 DUP3 ADD MSTORE PUSH1 0x19 PUSH1 0x24 DUP3 ADD MSTORE PUSH32 0x52756E6E65723A20726571756573746572206469737075746500000000000000 PUSH1 0x44 DUP3 ADD MSTORE PUSH1 0x64 ADD PUSH2 0x1C0 JUMP JUMPDEST PUSH2 0xB80 DUP3 PUSH2 0x1001 JUMP JUMPDEST PUSH1 0x0 DUP3 DUP2 MSTORE PUSH1 0x20 DUP3 SWAP1 MSTORE PUSH1 0x40 DUP1 DUP3 KECCAK256 DUP1 SLOAD PUSH1 0xFF NOT AND PUSH1 0x4 OR SWAP1 SSTORE MLOAD DUP4 SWAP2 CALLER SWAP2 PUSH32 0xD1ED1CC47F24F2EF2EC0F944D497D51D4258C4A70E4A35CDDF07CC4A46AF2B9A SWAP2 SWAP1 LOG3 POP POP JUMP JUMPDEST PUSH1 0x0 DUP2 DUP2 MSTORE PUSH1 0x0 DUP1 MLOAD PUSH1 0x20 PUSH2 0x13ED DUP4 CODECOPY DUP2 MLOAD SWAP2 MSTORE PUSH1 0x20 MSTORE PUSH1 0x40 SWAP1 KECCAK256 PUSH1 0x1 ADD SLOAD PUSH1 0x1 PUSH1 0x1 PUSH1 0xA0 SHL SUB AND CALLER EQ PUSH2 0xC4F JUMPI PUSH1 0x40 MLOAD PUSH3 0x461BCD PUSH1 0xE5 SHL DUP2 MSTORE PUSH1 0x20 PUSH1 0x4 DUP3 ADD MSTORE PUSH1 0x29 PUSH1 0x24 DUP3 ADD MSTORE PUSH32 0x4C696252756E6E65723A2063616C6C6572206E6F74206D61746368206A6F6220 PUSH1 0x44 DUP3 ADD MSTORE PUSH9 0x34B210393AB73732B9 PUSH1 0xB9 SHL PUSH1 0x64 DUP3 ADD MSTORE PUSH1 0x84 ADD PUSH2 0x1C0 JUMP JUMPDEST POP JUMP JUMPDEST PUSH1 0x0 DUP4 DUP2 MSTORE PUSH1 0x0 DUP1 MLOAD PUSH1 0x20 PUSH2 0x13ED DUP4 CODECOPY DUP2 MLOAD SWAP2 MSTORE PUSH1 0x20 MSTORE PUSH1 0x40 DUP2 KECCAK256 DUP1 SLOAD PUSH1 0x1 DUP3 ADD SLOAD PUSH1 0x6 DUP4 ADD SLOAD PUSH1 0x8 DUP5 ADD SLOAD PUSH1 0x9 SWAP1 SWAP5 ADD SLOAD PUSH2 0x100 SWAP1 SWAP4 DIV PUSH1 0x1 PUSH1 0x1 PUSH1 0xA0 SHL SUB SWAP1 DUP2 AND SWAP6 SWAP3 AND SWAP4 SWAP1 SWAP3 SWAP1 SWAP2 DUP1 DUP1 DUP1 DUP1 DUP12 ISZERO PUSH2 0xCB2 JUMPI DUP7 SWAP5 POP DUP6 SWAP4 POP PUSH2 0xCB9 JUMP JUMPDEST DUP6 SWAP5 POP DUP7 SWAP4 POP JUMPDEST PUSH2 0xCC3 DUP7 DUP9 PUSH2 0x13A7 JUMP JUMPDEST SWAP3 POP DUP11 ISZERO PUSH2 0xCD5 JUMPI POP DUP9 SWAP1 POP DUP8 PUSH2 0xCDB JUMP JUMPDEST POP DUP8 SWAP1 POP DUP9 JUMPDEST PUSH2 0xCE7 DUP9 DUP7 DUP5 DUP5 PUSH2 0x11F8 JUMP JUMPDEST PUSH2 0xCF3 DUP9 DUP6 DUP5 DUP6 PUSH2 0x11F8 JUMP JUMPDEST PUSH2 0xCFF DUP9 DUP5 DUP4 DUP5 PUSH2 0x11F8 JUMP JUMPDEST POP POP POP POP POP POP POP POP POP POP POP POP POP JUMP JUMPDEST CALLER PUSH1 0x0 SWAP1 DUP2 MSTORE PUSH1 0x0 DUP1 MLOAD PUSH1 0x20 PUSH2 0x140D DUP4 CODECOPY DUP2 MLOAD SWAP2 MSTORE PUSH1 0x20 MSTORE PUSH1 0x40 SWAP1 KECCAK256 SLOAD PUSH2 0xD83 JUMPI PUSH1 0x40 MLOAD PUSH3 0x461BCD PUSH1 0xE5 SHL DUP2 MSTORE PUSH1 0x20 PUSH1 0x4 DUP3 ADD MSTORE PUSH1 0x24 DUP1 DUP3 ADD MSTORE PUSH32 0x4C696252756E6E657252656769737472793A2063616C6C6572206E6F74207275 PUSH1 0x44 DUP3 ADD MSTORE PUSH4 0x373732B9 PUSH1 0xE1 SHL PUSH1 0x64 DUP3 ADD MSTORE PUSH1 0x84 ADD PUSH2 0x1C0 JUMP JUMPDEST JUMP JUMPDEST PUSH32 0x291891B328C08E91561B70FDD022498FBAD6A1A2E983983BC63D45E111CDF0EC CALLER PUSH1 0x0 SWAP1 DUP2 MSTORE PUSH1 0x20 SWAP2 DUP3 MSTORE PUSH1 0x40 DUP1 DUP3 KECCAK256 PUSH1 0x1 PUSH1 0x1 PUSH1 0xA0 SHL SUB DUP6 AND DUP4 MSTORE SWAP1 SWAP3 MSTORE KECCAK256 SLOAD TIMESTAMP LT ISZERO PUSH2 0xC4F JUMPI PUSH1 0x40 MLOAD PUSH3 0x461BCD PUSH1 0xE5 SHL DUP2 MSTORE PUSH1 0x20 PUSH1 0x4 DUP3 ADD MSTORE PUSH1 0x18 PUSH1 0x24 DUP3 ADD MSTORE PUSH32 0x4C696250656E616C74793A207374696C6C2062616E6E65640000000000000000 PUSH1 0x44 DUP3 ADD MSTORE PUSH1 0x64 ADD PUSH2 0x1C0 JUMP JUMPDEST PUSH1 0x0 PUSH32 0x53E81B6394F0808163BE38C3D2FC2C762DD7686D10FE6296ED6CBF8C0F3E8B13 PUSH1 0x0 DUP5 DUP2 MSTORE PUSH1 0x20 SWAP2 DUP3 MSTORE PUSH1 0x40 DUP1 DUP3 KECCAK256 DUP6 DUP4 MSTORE SWAP1 SWAP3 MSTORE KECCAK256 SLOAD PUSH1 0x1 PUSH1 0x1 PUSH1 0xA0 SHL SUB AND EQ ISZERO PUSH2 0xEB5 JUMPI PUSH1 0x40 MLOAD PUSH3 0x461BCD PUSH1 0xE5 SHL DUP2 MSTORE PUSH1 0x20 PUSH1 0x4 DUP3 ADD MSTORE PUSH1 0x25 PUSH1 0x24 DUP3 ADD MSTORE PUSH32 0x4C696245786368616E67653A2050726963652066656564206E6F742073757070 PUSH1 0x44 DUP3 ADD MSTORE PUSH5 0x1BDC9D1959 PUSH1 0xDA SHL PUSH1 0x64 DUP3 ADD MSTORE PUSH1 0x84 ADD PUSH2 0x1C0 JUMP JUMPDEST POP POP JUMP JUMPDEST PUSH32 0xC15856D6786C9849FCE88ACCF879BC2B002DC555D3FF91B5869E3B7B51C529BB CALLER PUSH1 0x0 SWAP1 DUP2 MSTORE PUSH1 0x20 SWAP2 DUP3 MSTORE PUSH1 0x40 DUP1 DUP3 KECCAK256 DUP6 DUP4 MSTORE SWAP1 SWAP3 MSTORE KECCAK256 SLOAD DUP2 GT ISZERO PUSH2 0xEB5 JUMPI PUSH1 0x40 MLOAD PUSH3 0x461BCD PUSH1 0xE5 SHL DUP2 MSTORE PUSH1 0x20 PUSH1 0x4 DUP3 ADD DUP2 SWAP1 MSTORE PUSH1 0x24 DUP3 ADD MSTORE PUSH32 0x4C6962486F6C64696E673A20696E73756666696369656E7420686F6C64696E67 PUSH1 0x44 DUP3 ADD MSTORE PUSH1 0x64 ADD PUSH2 0x1C0 JUMP JUMPDEST CALLER PUSH1 0x0 SWAP1 DUP2 MSTORE PUSH32 0xC15856D6786C9849FCE88ACCF879BC2B002DC555D3FF91B5869E3B7B51C529BB PUSH1 0x20 DUP2 DUP2 MSTORE PUSH1 0x40 DUP1 DUP5 KECCAK256 DUP7 DUP6 MSTORE SWAP1 SWAP2 MSTORE DUP3 KECCAK256 DUP1 SLOAD SWAP2 SWAP3 DUP5 SWAP3 PUSH2 0xF8B SWAP1 DUP5 SWAP1 PUSH2 0x13BF JUMP JUMPDEST SWAP1 SWAP2 SSTORE POP POP CALLER PUSH1 0x0 SWAP1 DUP2 MSTORE PUSH1 0x1 DUP3 ADD PUSH1 0x20 SWAP1 DUP2 MSTORE PUSH1 0x40 DUP1 DUP4 KECCAK256 DUP7 DUP5 MSTORE SWAP1 SWAP2 MSTORE DUP2 KECCAK256 DUP1 SLOAD DUP5 SWAP3 SWAP1 PUSH2 0xFBC SWAP1 DUP5 SWAP1 PUSH2 0x13A7 JUMP JUMPDEST SWAP1 SWAP2 SSTORE POP POP PUSH1 0x40 DUP1 MLOAD DUP5 DUP2 MSTORE PUSH1 0x20 DUP2 ADD DUP5 SWAP1 MSTORE CALLER SWAP2 PUSH32 0xB1593762FF20F7FE2289F7BEC73FF895F464FE7E5B20AF138CFFECA343E8402B SWAP2 ADD PUSH1 0x40 MLOAD DUP1 SWAP2 SUB SWAP1 LOG2 POP POP POP JUMP JUMPDEST CALLER PUSH1 0x0 SWAP1 DUP2 MSTORE PUSH1 0x0 DUP1 MLOAD PUSH1 0x20 PUSH2 0x140D DUP4 CODECOPY DUP2 MLOAD SWAP2 MSTORE PUSH1 0x20 SWAP1 DUP2 MSTORE PUSH1 0x40 DUP1 DUP4 KECCAK256 PUSH1 0x2 ADD SLOAD PUSH1 0x1 PUSH1 0x1 PUSH1 0xA0 SHL SUB AND DUP4 MSTORE PUSH32 0xE79924097CCC2E2B47E332DE4C30D72ABC5A8153CCA3B67CC7A0F5258CD81DEC SWAP1 SWAP2 MSTORE SWAP1 KECCAK256 SLOAD PUSH32 0xE79924097CCC2E2B47E332DE4C30D72ABC5A8153CCA3B67CC7A0F5258CD81DEB SLOAD PUSH1 0x0 DUP1 MLOAD PUSH1 0x20 PUSH2 0x13ED DUP4 CODECOPY DUP2 MLOAD SWAP2 MSTORE SWAP2 SWAP1 DUP2 LT ISZERO PUSH2 0x1097 JUMPI POP PUSH1 0x3 DUP2 ADD SLOAD JUMPDEST PUSH2 0x10A1 DUP2 TIMESTAMP PUSH2 0x13A7 JUMP JUMPDEST PUSH1 0x0 SWAP4 DUP5 MSTORE PUSH1 0x20 SWAP3 SWAP1 SWAP3 MSTORE POP PUSH1 0x40 SWAP1 SWAP2 KECCAK256 PUSH1 0xA ADD SSTORE JUMP JUMPDEST CALLER PUSH1 0x0 SWAP1 DUP2 MSTORE PUSH1 0x0 DUP1 MLOAD PUSH1 0x20 PUSH2 0x140D DUP4 CODECOPY DUP2 MLOAD SWAP2 MSTORE PUSH1 0x20 MSTORE PUSH1 0x40 DUP2 KECCAK256 PUSH1 0x5 ADD DUP1 SLOAD PUSH1 0x0 DUP1 MLOAD PUSH1 0x20 PUSH2 0x13ED DUP4 CODECOPY DUP2 MLOAD SWAP2 MSTORE SWAP3 PUSH1 0x1 SWAP3 SWAP2 PUSH2 0x10F8 SWAP1 DUP5 SWAP1 PUSH2 0x13A7 JUMP JUMPDEST SWAP1 SWAP2 SSTORE POP POP PUSH1 0x0 DUP3 DUP2 MSTORE PUSH1 0x20 DUP3 DUP2 MSTORE PUSH1 0x40 DUP1 DUP4 KECCAK256 SLOAD PUSH2 0x100 SWAP1 DIV PUSH1 0x1 PUSH1 0x1 PUSH1 0xA0 SHL SUB AND DUP4 MSTORE PUSH32 0xB488B33F71FD9E5C0E8BF7E1AA82D584AAF8413FAD3E382B04576A3CC3BBD9C7 SWAP1 SWAP2 MSTORE DUP2 KECCAK256 DUP1 SLOAD PUSH1 0x1 SWAP3 SWAP1 PUSH2 0x1154 SWAP1 DUP5 SWAP1 PUSH2 0x13A7 JUMP JUMPDEST SWAP1 SWAP2 SSTORE POP POP PUSH1 0x0 SWAP2 DUP3 MSTORE PUSH1 0x20 MSTORE PUSH1 0x40 SWAP1 KECCAK256 PUSH1 0xB ADD DUP1 SLOAD PUSH4 0xFF000000 NOT AND PUSH4 0x1000000 OR SWAP1 SSTORE JUMP JUMPDEST PUSH1 0x0 DUP2 DUP2 MSTORE PUSH1 0x0 DUP1 MLOAD PUSH1 0x20 PUSH2 0x13ED DUP4 CODECOPY DUP2 MLOAD SWAP2 MSTORE PUSH1 0x20 MSTORE PUSH1 0x40 SWAP1 KECCAK256 PUSH1 0xA ADD SLOAD TIMESTAMP GT PUSH2 0xC4F JUMPI PUSH1 0x40 MLOAD PUSH3 0x461BCD PUSH1 0xE5 SHL DUP2 MSTORE PUSH1 0x20 PUSH1 0x4 DUP3 ADD MSTORE PUSH1 0x27 PUSH1 0x24 DUP3 ADD MSTORE PUSH32 0x4C69624A6F62426F6172643A206469737075746520706572696F64206E6F7420 PUSH1 0x44 DUP3 ADD MSTORE PUSH7 0x195E1C1A5C9959 PUSH1 0xCA SHL PUSH1 0x64 DUP3 ADD MSTORE PUSH1 0x84 ADD PUSH2 0x1C0 JUMP JUMPDEST PUSH1 0x1 PUSH1 0x1 PUSH1 0xA0 SHL SUB DUP3 AND PUSH1 0x0 SWAP1 DUP2 MSTORE PUSH32 0xC15856D6786C9849FCE88ACCF879BC2B002DC555D3FF91B5869E3B7B51C529BC PUSH1 0x20 SWAP1 DUP2 MSTORE PUSH1 0x40 DUP1 DUP4 KECCAK256 DUP8 DUP5 MSTORE SWAP1 SWAP2 MSTORE DUP2 KECCAK256 DUP1 SLOAD PUSH32 0xC15856D6786C9849FCE88ACCF879BC2B002DC555D3FF91B5869E3B7B51C529BB SWAP3 DUP7 SWAP3 SWAP2 PUSH2 0x126C SWAP1 DUP5 SWAP1 PUSH2 0x13BF JUMP JUMPDEST SWAP1 SWAP2 SSTORE POP POP PUSH1 0x1 PUSH1 0x1 PUSH1 0xA0 SHL SUB DUP3 AND PUSH1 0x0 SWAP1 DUP2 MSTORE PUSH1 0x20 DUP3 DUP2 MSTORE PUSH1 0x40 DUP1 DUP4 KECCAK256 DUP9 DUP5 MSTORE SWAP1 SWAP2 MSTORE DUP2 KECCAK256 DUP1 SLOAD DUP7 SWAP3 SWAP1 PUSH2 0x12A2 SWAP1 DUP5 SWAP1 PUSH2 0x13A7 JUMP JUMPDEST SWAP1 SWAP2 SSTORE POP POP PUSH1 0x40 DUP1 MLOAD PUSH1 0x1 PUSH1 0x1 PUSH1 0xA0 SHL SUB DUP1 DUP7 AND DUP3 MSTORE DUP5 AND PUSH1 0x20 DUP3 ADD MSTORE SWAP1 DUP2 ADD DUP7 SWAP1 MSTORE PUSH1 0x60 DUP2 ADD DUP6 SWAP1 MSTORE CALLER SWAP1 PUSH32 0xBEBCA434B66BECE58C971022A65ED7909850687C4469D4B0897812EE032077D2 SWAP1 PUSH1 0x80 ADD PUSH1 0x40 MLOAD DUP1 SWAP2 SUB SWAP1 LOG2 POP POP POP POP POP JUMP JUMPDEST PUSH1 0x0 PUSH1 0x20 DUP3 DUP5 SUB SLT ISZERO PUSH2 0x1313 JUMPI DUP1 DUP2 REVERT JUMPDEST POP CALLDATALOAD SWAP2 SWAP1 POP JUMP JUMPDEST PUSH1 0x0 DUP1 PUSH1 0x40 DUP4 DUP6 SUB SLT ISZERO PUSH2 0x132C JUMPI DUP1 DUP2 REVERT JUMPDEST DUP3 CALLDATALOAD SWAP2 POP PUSH1 0x20 DUP4 ADD CALLDATALOAD PUSH1 0x1 PUSH1 0x1 PUSH1 0xA0 SHL SUB DUP2 AND DUP2 EQ PUSH2 0x1349 JUMPI DUP2 DUP3 REVERT JUMPDEST DUP1 SWAP2 POP POP SWAP3 POP SWAP3 SWAP1 POP JUMP JUMPDEST PUSH1 0x0 DUP1 PUSH1 0x40 DUP4 DUP6 SUB SLT ISZERO PUSH2 0x1366 JUMPI DUP2 DUP3 REVERT JUMPDEST DUP3 CALLDATALOAD SWAP2 POP PUSH1 0x20 DUP4 ADD CALLDATALOAD DUP1 ISZERO ISZERO DUP2 EQ PUSH2 0x1349 JUMPI DUP2 DUP3 REVERT JUMPDEST PUSH1 0x0 DUP1 PUSH1 0x0 PUSH1 0x60 DUP5 DUP7 SUB SLT ISZERO PUSH2 0x1390 JUMPI DUP1 DUP2 REVERT JUMPDEST POP POP DUP2 CALLDATALOAD SWAP4 PUSH1 0x20 DUP4 ADD CALLDATALOAD SWAP4 POP PUSH1 0x40 SWAP1 SWAP3 ADD CALLDATALOAD SWAP2 SWAP1 POP JUMP JUMPDEST PUSH1 0x0 DUP3 NOT DUP3 GT ISZERO PUSH2 0x13BA JUMPI PUSH2 0x13BA PUSH2 0x13D6 JUMP JUMPDEST POP ADD SWAP1 JUMP JUMPDEST PUSH1 0x0 DUP3 DUP3 LT ISZERO PUSH2 0x13D1 JUMPI PUSH2 0x13D1 PUSH2 0x13D6 JUMP JUMPDEST POP SUB SWAP1 JUMP JUMPDEST PUSH4 0x4E487B71 PUSH1 0xE0 SHL PUSH1 0x0 MSTORE PUSH1 0x11 PUSH1 0x4 MSTORE PUSH1 0x24 PUSH1 0x0 REVERT INVALID 0xE7 SWAP10 0x24 MULMOD PUSH29 0xCC2E2B47E332DE4C30D72ABC5A8153CCA3B67CC7A0F5258CD81DE8C7DD 0xCD 0xC0 ADDMOD LOG4 PUSH25 0x7BC0EBC7E57C6DE87615AE1CB780F671AB25BFDFBD9CC9CE62 LOG2 PUSH5 0x6970667358 0x22 SLT KECCAK256 DUP9 CHAINID SWAP3 MSTORE8 CALLDATACOPY COINBASE JUMPDEST 0x49 INVALID 0xC5 PUSH6 0xAFD87719192A 0xF9 PUSH18 0xB7E4E5CA0CCDFAE4A66EFDE45264736F6C63 NUMBER STOP ADDMOD DIV STOP CALLER ","sha1":"49c323a367d400cd6f15003ea81d84674c46aa4e","source":"//SPDX-License-Identifier: BUSL-1.1\npragma solidity ^0.8.2;\n\nimport \"../../libraries/core/LibJobBoard.sol\";\nimport \"../../libraries/core/LibRunnerRegistry.sol\";\nimport \"../../libraries/core/LibRunnerDetail.sol\";\nimport \"../../libraries/core/LibRunner.sol\";\nimport \"../../libraries/core/LibRequester.sol\";\nimport \"../../libraries/core/LibRequesterDetail.sol\";\nimport \"../../libraries/core/LibHolding.sol\";\nimport \"../../libraries/core/LibExchange.sol\";\n\nimport \"../../libraries/core/LibPenalty.sol\";\n\nimport \"../../interfaces/IHubLibraryEvents.sol\";\n\ncontract Runner is IHubLibraryEvents {\n    event RequestAccepted(address indexed sender, bytes32 indexed jobId);\n\n    function acceptRequest(\n        bytes32 _keyLocal,\n        bytes32 _keyTransact,\n        bytes32 _jobId\n    ) external {\n        LibRunnerRegistry._requireIsRunner();\n\n        LibRunnerDetail.StorageRunnerDetail storage s2 = LibRunnerDetail\n            ._storageRunnerDetail();\n\n        LibPenalty._requireNotBanned(s2.runnerToRunnerDetail[msg.sender].hive); // TODO: test possible for hives to ban their own runner\n        LibExchange._requireAddedXPerYPriceFeedSupported(\n            _keyLocal,\n            _keyTransact\n        );\n\n        LibJobBoard.StorageJobBoard storage s1 = LibJobBoard._storageJobBoard();\n\n        require(\n            s1.jobIdToJobDetail[_jobId].requester != address(0),\n            \"Runner: job not exists\"\n        );\n\n        require(\n            s1.jobIdToJobDetail[_jobId].state == LibJobBoard.JobState.Pending,\n            \"Runner: job state not pending\"\n        );\n\n        require(\n            s1.jobIdToJobDetail[_jobId].keyLocal == _keyLocal,\n            \"Runner: local currency key not match\"\n        );\n        require(\n            s1.jobIdToJobDetail[_jobId].keyTransact == _keyTransact,\n            \"Runner: transact currency key not match\"\n        );\n\n        require(\n            s1.jobIdToJobDetail[_jobId].metres <=\n                s2.runnerToRunnerDetail[msg.sender].maxMetresPerTrip,\n            \"Runner: exceed max metres\"\n        );\n\n        LibHolding._requireSufficientHolding(\n            _keyTransact,\n            s1.jobIdToJobDetail[_jobId].value +\n                s1.jobIdToJobDetail[_jobId].cancellationFee\n        );\n        LibHolding._lockFunds(\n            _keyTransact,\n            s1.jobIdToJobDetail[_jobId].value +\n                s1.jobIdToJobDetail[_jobId].cancellationFee\n        );\n\n        s1.jobIdToJobDetail[_jobId].runner = msg.sender;\n        s1.jobIdToJobDetail[_jobId].state = LibJobBoard.JobState.Accepted;\n\n        s1.userToJobIdCount[msg.sender] += 1;\n\n        emit RequestAccepted(msg.sender, _jobId);\n    }\n\n    event PackageCollected(address indexed sender, bytes32 indexed jobId);\n\n    function collectPackage(bytes32 _jobId, address _package) external {\n        LibRunner._requireMatchJobIdRunner(_jobId);\n\n        LibJobBoard.StorageJobBoard storage s1 = LibJobBoard._storageJobBoard();\n\n        require(\n            s1.jobIdToJobDetail[_jobId].state == LibJobBoard.JobState.Accepted,\n            \"Runner: job state not accepted\"\n        );\n\n        LibJobBoard._setJobDisputeExpiry(_jobId);\n\n        verify(_jobId, _package);\n\n        if (s1.jobIdToJobDetail[_jobId].packageVerified) {\n            // runner & requester incentivised to get verified to get stats\n            // TODO: re-study this logic where if verified only can gain stats\n            LibRunner._recordCollectStats(_jobId);\n            // LibRunnerDetail\n            //     ._storageRunnerDetail()\n            //     .runnerToRunnerDetail[msg.sender]\n            //     .countStart += 1;\n            // LibRequesterDetail\n            //     ._storageRequesterDetail()\n            //     .requesterToRequesterDetail[\n            //         s1.jobIdToJobDetail[_jobId].requester\n            //     ]\n            //     .countStart += 1;\n            // s1.jobIdToJobDetail[_jobId].collectStatsRecorded = true;\n        }\n\n        s1.jobIdToJobDetail[_jobId].state = LibJobBoard.JobState.Collected;\n\n        emit PackageCollected(msg.sender, _jobId);\n    }\n\n    event PackageDelivered(address indexed sender, bytes32 indexed jobId);\n\n    function deliverPackage(bytes32 _jobId) external {\n        LibRunner._requireMatchJobIdRunner(_jobId);\n\n        LibJobBoard.StorageJobBoard storage s1 = LibJobBoard._storageJobBoard();\n\n        require(\n            s1.jobIdToJobDetail[_jobId].state == LibJobBoard.JobState.Collected,\n            \"Runner: job state not collected\"\n        );\n\n        LibJobBoard._requireDisputePeriodExpired(_jobId);\n        require(\n            !s1.jobIdToJobDetail[_jobId].dispute,\n            \"Runner: requester dispute\"\n        );\n\n        LibJobBoard._setJobDisputeExpiry(_jobId);\n\n        s1.jobIdToJobDetail[_jobId].state = LibJobBoard.JobState.Delivered;\n\n        emit PackageDelivered(msg.sender, _jobId);\n    }\n\n    event JobCompleted(address indexed sender, bytes32 indexed jobId);\n\n    function completeJob(bytes32 _jobId, bool _accept) external {\n        LibRunner._requireMatchJobIdRunner(_jobId);\n\n        LibJobBoard.StorageJobBoard storage s1 = LibJobBoard._storageJobBoard();\n\n        require(\n            s1.jobIdToJobDetail[_jobId].state == LibJobBoard.JobState.Delivered,\n            \"Runner: job state not delivered\"\n        );\n\n        LibJobBoard._requireDisputePeriodExpired(_jobId);\n\n        require(_accept, \"Runner: not accept\"); // accept whether disputed or not\n\n        LibRunnerDetail.StorageRunnerDetail storage s2 = LibRunnerDetail\n            ._storageRunnerDetail();\n\n        if (s1.jobIdToJobDetail[_jobId].dispute) {\n            LibHolding._sortFundsUnlocking(_jobId, false, true);\n        } else {\n            LibHolding._sortFundsUnlocking(_jobId, true, true);\n\n            if (s1.jobIdToJobDetail[_jobId].packageVerified) {\n                if (!s1.jobIdToJobDetail[_jobId].collectStatsRecorded) {\n                    LibRunner._recordCollectStats(_jobId);\n                }\n\n                // TODO: re-study this logic where if verified only can gain stats\n                s2.runnerToRunnerDetail[msg.sender].metresTravelled += s1\n                    .jobIdToJobDetail[_jobId]\n                    .metres;\n                s2.runnerToRunnerDetail[msg.sender].countEnd += 1;\n\n                LibRequesterDetail\n                    ._storageRequesterDetail()\n                    .requesterToRequesterDetail[\n                        s1.jobIdToJobDetail[_jobId].requester\n                    ]\n                    .countEnd += 1;\n            }\n        }\n\n        s1.userToJobIdCount[msg.sender] -= 1;\n\n        s1.jobIdToJobDetail[_jobId].state = LibJobBoard.JobState.Completed; // note: not used as job cleared before this point\n\n        emit JobCompleted(msg.sender, _jobId);\n    }\n\n    event RunnerCancelled(address indexed sender, bytes32 indexed jobId);\n\n    function cancelFromRunner(bytes32 _jobId) external {\n        LibRunner._requireMatchJobIdRunner(_jobId);\n\n        LibJobBoard.StorageJobBoard storage s1 = LibJobBoard._storageJobBoard();\n\n        require(\n            s1.jobIdToJobDetail[_jobId].state ==\n                LibJobBoard.JobState.Accepted ||\n                s1.jobIdToJobDetail[_jobId].state ==\n                LibJobBoard.JobState.Collected,\n            \"Runner: job state not accepted or collected\"\n        );\n\n        if (\n            s1.jobIdToJobDetail[_jobId].state == LibJobBoard.JobState.Accepted\n        ) {\n            LibHolding._sortFundsUnlocking(_jobId, false, false);\n        } else if (\n            s1.jobIdToJobDetail[_jobId].state == LibJobBoard.JobState.Collected\n        ) {\n            // runner need pay value to prevent steal\n            LibHolding._sortFundsUnlocking(_jobId, true, false);\n        }\n\n        s1.userToJobIdCount[msg.sender] -= 1;\n\n        s1.jobIdToJobDetail[_jobId].state = LibJobBoard.JobState.Cancelled; // note: not used as job cleared before this point\n\n        emit RunnerCancelled(msg.sender, _jobId);\n    }\n\n    event PackageVerified(address indexed sender, bytes32 indexed jobId);\n\n    function verify(bytes32 _jobId, address _package) public {\n        LibJobBoard.StorageJobBoard storage s1 = LibJobBoard._storageJobBoard();\n\n        if (_package == s1.jobIdToJobDetail[_jobId].package) {\n            s1.jobIdToJobDetail[_jobId].packageVerified = true;\n\n            emit PackageVerified(msg.sender, _jobId);\n        }\n    }\n}\n","sourcePath":"contracts/hub/facets/core/Runner.sol","type":"contract","deployment":{"address":"0x8FCF7C9c228b5DEd6C10F1EF9f56393E2BbBBEdb","chainid":"80001","blockHeight":26007190}}