{"abi":[{"anonymous":false,"inputs":[{"indexed":true,"internalType":"address","name":"sender","type":"address"},{"indexed":false,"internalType":"address","name":"priceFeed","type":"address"}],"name":"AddedPriceFeedRemoved","type":"event"},{"anonymous":false,"inputs":[{"indexed":true,"internalType":"address","name":"sender","type":"address"},{"indexed":false,"internalType":"address","name":"applicant","type":"address"}],"name":"ApplicantApproved","type":"event"},{"anonymous":false,"inputs":[{"indexed":true,"internalType":"address","name":"sender","type":"address"},{"indexed":false,"internalType":"bytes32","name":"key","type":"bytes32"}],"name":"CurrencyRegistered","type":"event"},{"anonymous":false,"inputs":[{"indexed":true,"internalType":"address","name":"sender","type":"address"},{"indexed":false,"internalType":"bytes32","name":"key","type":"bytes32"}],"name":"CurrencyRemoved","type":"event"},{"anonymous":false,"inputs":[{"indexed":true,"internalType":"address","name":"sender","type":"address"},{"indexed":false,"internalType":"bytes32","name":"keyX","type":"bytes32"},{"indexed":false,"internalType":"bytes32","name":"keyY","type":"bytes32"}],"name":"DerivedPriceFeedRemoved","type":"event"},{"anonymous":false,"inputs":[{"components":[{"internalType":"address","name":"facetAddress","type":"address"},{"internalType":"enum Cut.FacetCutAction","name":"action","type":"uint8"},{"internalType":"bytes4[]","name":"functionSelectors","type":"bytes4[]"}],"indexed":false,"internalType":"struct Cut.FacetCut[]","name":"_cut","type":"tuple[]"},{"indexed":false,"internalType":"address","name":"_init","type":"address"},{"indexed":false,"internalType":"bytes","name":"_calldata","type":"bytes"}],"name":"DiamondCut","type":"event"},{"anonymous":false,"inputs":[{"indexed":true,"internalType":"address","name":"sender","type":"address"},{"indexed":false,"internalType":"uint256","name":"fee","type":"uint256"}],"name":"FeeSetBase","type":"event"},{"anonymous":false,"inputs":[{"indexed":true,"internalType":"address","name":"sender","type":"address"},{"indexed":false,"internalType":"uint256","name":"fee","type":"uint256"}],"name":"FeeSetCancellation","type":"event"},{"anonymous":false,"inputs":[{"indexed":true,"internalType":"address","name":"sender","type":"address"},{"indexed":false,"internalType":"uint256","name":"fee","type":"uint256"}],"name":"FeeSetCostPerMetre","type":"event"},{"anonymous":false,"inputs":[{"indexed":true,"internalType":"address","name":"sender","type":"address"},{"indexed":false,"internalType":"uint256","name":"fee","type":"uint256"}],"name":"FeeSetCostPerMinute","type":"event"},{"anonymous":false,"inputs":[{"indexed":true,"internalType":"address","name":"sender","type":"address"},{"indexed":false,"internalType":"bytes32","name":"key","type":"bytes32"},{"indexed":false,"internalType":"uint256","name":"amount","type":"uint256"}],"name":"FundsLocked","type":"event"},{"anonymous":false,"inputs":[{"indexed":true,"internalType":"address","name":"sender","type":"address"},{"indexed":false,"internalType":"address","name":"decrease","type":"address"},{"indexed":false,"internalType":"address","name":"increase","type":"address"},{"indexed":false,"internalType":"bytes32","name":"key","type":"bytes32"},{"indexed":false,"internalType":"uint256","name":"amount","type":"uint256"}],"name":"FundsUnlocked","type":"event"},{"anonymous":false,"inputs":[{"indexed":true,"internalType":"address","name":"sender","type":"address"},{"indexed":false,"internalType":"uint256","name":"hiveCount","type":"uint256"},{"indexed":false,"internalType":"bytes32","name":"hiveKey","type":"bytes32"}],"name":"HiveActivated","type":"event"},{"anonymous":false,"inputs":[{"indexed":true,"internalType":"address","name":"sender","type":"address"},{"indexed":false,"internalType":"uint256","name":"orderCount","type":"uint256"},{"indexed":false,"internalType":"address","name":"component","type":"address"}],"name":"HiveComponentDeployed","type":"event"},{"anonymous":false,"inputs":[{"indexed":true,"internalType":"address","name":"sender","type":"address"},{"indexed":false,"internalType":"uint256","name":"count","type":"uint256"}],"name":"HiveCreationCountSet","type":"event"},{"anonymous":false,"inputs":[{"indexed":true,"internalType":"address","name":"sender","type":"address"},{"indexed":false,"internalType":"uint256","name":"orderCount","type":"uint256"},{"indexed":false,"internalType":"bytes32","name":"salt","type":"bytes32"},{"indexed":false,"internalType":"bytes32","name":"hiveKey","type":"bytes32"}],"name":"HiveCreationInitialized","type":"event"},{"anonymous":false,"inputs":[{"indexed":true,"internalType":"address","name":"sender","type":"address"},{"indexed":false,"internalType":"uint256","name":"duration","type":"uint256"}],"name":"HiveDisputeDurationSet","type":"event"},{"anonymous":false,"inputs":[{"indexed":true,"internalType":"address","name":"sender","type":"address"},{"indexed":true,"internalType":"bytes32","name":"jobId","type":"bytes32"}],"name":"JobCleared","type":"event"},{"anonymous":false,"inputs":[{"indexed":true,"internalType":"address","name":"sender","type":"address"},{"indexed":false,"internalType":"uint256","name":"duration","type":"uint256"}],"name":"JobLifespanSet","type":"event"},{"anonymous":false,"inputs":[{"indexed":true,"internalType":"address","name":"sender","type":"address"},{"indexed":false,"internalType":"uint256","name":"duration","type":"uint256"}],"name":"MinDisputeDurationSet","type":"event"},{"anonymous":false,"inputs":[{"indexed":true,"internalType":"address","name":"sender","type":"address"},{"indexed":false,"internalType":"address","name":"token","type":"address"}],"name":"NativeTokenSet","type":"event"},{"anonymous":false,"inputs":[{"indexed":true,"internalType":"address","name":"sender","type":"address"},{"indexed":false,"internalType":"bytes32","name":"keyX","type":"bytes32"},{"indexed":false,"internalType":"bytes32","name":"keyY","type":"bytes32"},{"indexed":false,"internalType":"address","name":"priceFeed","type":"address"}],"name":"PriceFeedAdded","type":"event"},{"anonymous":false,"inputs":[{"indexed":true,"internalType":"address","name":"sender","type":"address"},{"indexed":false,"internalType":"bytes32","name":"keyX","type":"bytes32"},{"indexed":false,"internalType":"bytes32","name":"keyY","type":"bytes32"},{"indexed":false,"internalType":"bytes32","name":"keyShared","type":"bytes32"}],"name":"PriceFeedDerived","type":"event"},{"anonymous":false,"inputs":[{"indexed":true,"internalType":"address","name":"sender","type":"address"},{"indexed":false,"internalType":"uint256","name":"rating","type":"uint256"}],"name":"RatingGiven","type":"event"},{"anonymous":false,"inputs":[{"indexed":true,"internalType":"bytes32","name":"role","type":"bytes32"},{"indexed":true,"internalType":"bytes32","name":"previousAdminRole","type":"bytes32"},{"indexed":true,"internalType":"bytes32","name":"newAdminRole","type":"bytes32"}],"name":"RoleAdminChanged","type":"event"},{"anonymous":false,"inputs":[{"indexed":true,"internalType":"bytes32","name":"role","type":"bytes32"},{"indexed":true,"internalType":"address","name":"account","type":"address"},{"indexed":true,"internalType":"address","name":"sender","type":"address"}],"name":"RoleGranted","type":"event"},{"anonymous":false,"inputs":[{"indexed":true,"internalType":"bytes32","name":"role","type":"bytes32"},{"indexed":true,"internalType":"address","name":"account","type":"address"},{"indexed":true,"internalType":"address","name":"sender","type":"address"}],"name":"RoleRevoked","type":"event"},{"anonymous":false,"inputs":[{"indexed":true,"internalType":"address","name":"sender","type":"address"},{"indexed":false,"internalType":"uint256","name":"min","type":"uint256"},{"indexed":false,"internalType":"uint256","name":"max","type":"uint256"}],"name":"SetRatingBounds","type":"event"},{"anonymous":false,"inputs":[{"indexed":true,"internalType":"address","name":"sender","type":"address"},{"indexed":false,"internalType":"address","name":"user","type":"address"},{"indexed":false,"internalType":"uint256","name":"banDuration","type":"uint256"}],"name":"UserBanned","type":"event"},{"inputs":[{"internalType":"address[]","name":"_administrators","type":"address[]"},{"internalType":"string[]","name":"_uris","type":"string[]"}],"name":"activateHive","outputs":[],"stateMutability":"nonpayable","type":"function"},{"inputs":[],"name":"clearUnfinishedHive","outputs":[],"stateMutability":"nonpayable","type":"function"},{"inputs":[{"internalType":"contract IERC20","name":"_wrappedToken","type":"address"},{"internalType":"string","name":"_name","type":"string"},{"internalType":"string","name":"_symbol","type":"string"}],"name":"deployHiveGovernanceToken","outputs":[],"stateMutability":"nonpayable","type":"function"},{"inputs":[{"internalType":"string","name":"_name","type":"string"},{"internalType":"contract ERC20Votes","name":"_hiveGovernanceToken","type":"address"},{"internalType":"contract TimelockController","name":"_hiveTimelock","type":"address"},{"internalType":"address","name":"_underlyingContract","type":"address"},{"internalType":"uint256","name":"_votingDelay","type":"uint256"},{"internalType":"uint256","name":"_votingPeriod","type":"uint256"},{"internalType":"uint256","name":"_proposalThreshold","type":"uint256"},{"internalType":"uint256","name":"_quorumPercentage","type":"uint256"}],"name":"deployHiveGovernor","outputs":[],"stateMutability":"nonpayable","type":"function"},{"inputs":[{"internalType":"uint256","name":"_minDelay","type":"uint256"},{"internalType":"address[]","name":"_proposers","type":"address[]"},{"internalType":"address[]","name":"_executors","type":"address[]"}],"name":"deployHiveTimelock","outputs":[],"stateMutability":"nonpayable","type":"function"},{"inputs":[],"name":"getCount","outputs":[{"internalType":"uint256","name":"","type":"uint256"}],"stateMutability":"view","type":"function"},{"inputs":[{"internalType":"bytes32","name":"_key","type":"bytes32"}],"name":"getHiveGovernanceToken","outputs":[{"internalType":"address","name":"","type":"address"}],"stateMutability":"view","type":"function"},{"inputs":[{"internalType":"bytes32","name":"_key","type":"bytes32"}],"name":"getHiveGovernor","outputs":[{"internalType":"address","name":"","type":"address"}],"stateMutability":"view","type":"function"},{"inputs":[{"internalType":"string","name":"_name","type":"string"},{"internalType":"string","name":"_symbol","type":"string"}],"name":"getHiveKey","outputs":[{"internalType":"bytes32","name":"","type":"bytes32"}],"stateMutability":"pure","type":"function"},{"inputs":[{"internalType":"bytes32","name":"_key","type":"bytes32"}],"name":"getHiveTimelock","outputs":[{"internalType":"address","name":"","type":"address"}],"stateMutability":"view","type":"function"},{"inputs":[{"internalType":"string","name":"_name","type":"string"},{"internalType":"string","name":"_symbol","type":"string"}],"name":"getSalt","outputs":[{"internalType":"bytes32","name":"","type":"bytes32"}],"stateMutability":"view","type":"function"},{"inputs":[{"internalType":"string","name":"_name","type":"string"},{"internalType":"string","name":"_symbol","type":"string"}],"name":"initializeHiveGeneration","outputs":[],"stateMutability":"nonpayable","type":"function"},{"inputs":[{"internalType":"uint256","name":"_count","type":"uint256"}],"name":"setHiveCreationCount","outputs":[],"stateMutability":"nonpayable","type":"function"}],"bytecode":"608060405234801561001057600080fd5b50612024806100206000396000f3fe608060405234801561001057600080fd5b50600436106100cf5760003560e01c8063bc933a8e1161008c578063edb06f0a11610066578063edb06f0a146101cb578063f1d31a40146101de578063f829ac9414610226578063ffb167871461023957600080fd5b8063bc933a8e14610192578063c6c0db37146101a5578063ce4d17cf146101b857600080fd5b80630ffb17cf146100d457806328071a99146100e95780633f7db2d01461014e5780634ab3b42b1461016f57806389f8986114610177578063a87d942c1461018a575b600080fd5b6100e76100e2366004611b24565b610281565b005b6101316100f736600461196d565b60009081527fdf9fe6c7820634fc96403ab99f5002d08ca0285232f082ffd1ecd86082131b8e60205260409020546001600160a01b031690565b6040516001600160a01b0390911681526020015b60405180910390f35b61016161015c366004611ac3565b610404565b604051908152602001610145565b6100e7610417565b6100e7610185366004611a2c565b61050f565b61016161069b565b6100e76101a0366004611ac3565b6106b8565b6100e76101b33660046119b9565b61075f565b6100e76101c636600461189b565b61087a565b6100e76101d936600461196d565b610db2565b6101316101ec36600461196d565b60009081527fdf9fe6c7820634fc96403ab99f5002d08ca0285232f082ffd1ecd86082131b8f60205260409020546001600160a01b031690565b610161610234366004611ac3565b610dbb565b61013161024736600461196d565b60009081527fdf9fe6c7820634fc96403ab99f5002d08ca0285232f082ffd1ecd86082131b9060205260409020546001600160a01b031690565b6102ae60405160200161029390611dc6565b60405160208183030381529060405280519060200120610dc7565b6102b86002610dd0565b600080516020611fcf8339815191525460009081527fdf9fe6c7820634fc96403ab99f5002d08ca0285232f082ffd1ecd86082131b8f6020526040902054600080516020611faf833981519152906001600160a01b03161561036b5760405162461bcd60e51b815260206004820152602160248201527f48697665466163746f72793a204869766554696d656c6f636b206578697374736044820152602160f81b60648201526084015b60405180910390fd5b600061037d8260060154868686610e40565b60078301546000908152600284016020526040902080546001600160a01b0319166001600160a01b03831617905590506103b5610f72565b6005820154604080519182526001600160a01b038316602083015233917f079bc0e2551d658e98aea9821683696279ab2a5c6b0120914bc50cd5f6c9438b910160405180910390a25050505050565b60006104108383610f9c565b9392505050565b61042960405160200161029390611dc6565b6104336000610dd0565b600080516020611fcf833981519152805460009081527fdf9fe6c7820634fc96403ab99f5002d08ca0285232f082ffd1ecd86082131b8e6020908152604080832080546001600160a01b0319908116909155845484527fdf9fe6c7820634fc96403ab99f5002d08ca0285232f082ffd1ecd86082131b8f8352818420805482169055935483527fdf9fe6c7820634fc96403ab99f5002d08ca0285232f082ffd1ecd86082131b90909152902080549091169055600080516020611faf83398151915261050c6000600080516020611f8f83398151915255565b50565b61052160405160200161029390611dc6565b61052b6003610dd0565b600080516020611fcf8339815191525460009081527fdf9fe6c7820634fc96403ab99f5002d08ca0285232f082ffd1ecd86082131b906020526040902054600080516020611faf833981519152906001600160a01b0316156105d95760405162461bcd60e51b815260206004820152602160248201527f48697665466163746f72793a2048697665476f7665726e6f72206578697374736044820152602160f81b6064820152608401610362565b600061060f82600601548b6040516020016105f49190611c0f565b6040516020818303038152906040528b8b8b8b8b8b8b610fcf565b60078301546000908152600384016020526040902080546001600160a01b0319166001600160a01b0383161790559050610647610f72565b6005820154604080519182526001600160a01b038316602083015233917f079bc0e2551d658e98aea9821683696279ab2a5c6b0120914bc50cd5f6c9438b910160405180910390a250505050505050505050565b60006106b3600080516020611faf8339815191525490565b905090565b6106ca60405160200161029390611dc6565b600080516020611faf8339815191526106e36000610dd0565b6106ed8383611110565b60068201556106fc8383610f9c565b6007820155610709610f72565b6005810154600682015460078301546040805193845260208401929092529082015233907ff06cfede3e61312775018527922ca87b677d1f88b4c150ef8daee31cfee08eae9060600160405180910390a2505050565b61077160405160200161029390611dc6565b61077b6001610dd0565b600080516020611fcf8339815191525460009081527fdf9fe6c7820634fc96403ab99f5002d08ca0285232f082ffd1ecd86082131b8e6020526040902054600080516020611faf833981519152906001600160a01b0316156108305760405162461bcd60e51b815260206004820152602860248201527f48697665466163746f72793a2048697665476f7665726e616e6365546f6b656e604482015267206578697374732160c01b6064820152608401610362565b6000610842826006015486868661113c565b60078301546000908152600184016020526040902080546001600160a01b0319166001600160a01b03831617905590506103b5610f72565b61088c60405160200161029390611dc6565b6108966004610dd0565b8151815181146109055760405162461bcd60e51b815260206004820152603460248201527f48697665466163746f72793a2072756e6e65727320617272617920646f6573206044820152736e6f74206d61746368205552497320617272617960601b6064820152608401610362565b7fdf9fe6c7820634fc96403ab99f5002d08ca0285232f082ffd1ecd86082131b9154600080516020611f8f83398151915254600080516020611faf83398151915291146109b15760405162461bcd60e51b815260206004820152603460248201527f48697665466163746f72793a20636f72726563742068697665206372656174696044820152731bdb8818dbdd5b9d081b9bdd081c995858da195960621b6064820152608401610362565b60018160000160008282546109c69190611e79565b909155505060078101546000908152600282016020908152604091829020548251638f61f4f560e01b815292516001600160a01b039091169283928392632f2ff15d928492638f61f4f592600480840193829003018186803b158015610a2b57600080fd5b505afa158015610a3f573d6000803e3d6000fd5b505050506040513d601f19601f82011682018060405250810190610a639190611985565b600786015460009081526003870160205260409081902054905160e084901b6001600160e01b031916815260048101929092526001600160a01b03166024820152604401600060405180830381600087803b158015610ac157600080fd5b505af1158015610ad5573d6000803e3d6000fd5b50505050806001600160a01b0316632f2ff15d826001600160a01b03166307bd02656040518163ffffffff1660e01b815260040160206040518083038186803b158015610b2157600080fd5b505afa158015610b35573d6000803e3d6000fd5b505050506040513d601f19601f82011682018060405250810190610b599190611985565b6040516001600160e01b031960e084901b168152600481019190915260006024820152604401600060405180830381600087803b158015610b9957600080fd5b505af1158015610bad573d6000803e3d6000fd5b50505050806001600160a01b03166336568abe826001600160a01b0316630d3cf6fc6040518163ffffffff1660e01b815260040160206040518083038186803b158015610bf957600080fd5b505afa158015610c0d573d6000803e3d6000fd5b505050506040513d601f19601f82011682018060405250810190610c319190611985565b6040516001600160e01b031960e084901b1681526004810191909152306024820152604401600060405180830381600087803b158015610c7057600080fd5b505af1158015610c84573d6000803e3d6000fd5b5050505060005b84811015610cfe57610cec878281518110610cb657634e487b7160e01b600052603260045260246000fd5b6020026020010151878381518110610cde57634e487b7160e01b600052603260045260246000fd5b602002602001015185611255565b80610cf681611f32565b915050610c8b565b50610d4b604051602001610d2f90602080825260099082015268484956455f524f4c4560b81b604082015260600190565b6040516020818303038152906040528051906020012083611391565b610d626000600080516020611f8f83398151915255565b8254600784015460405133927f8a403e9bac529e2394686ce1af2e7055f408786829851e1f82c282f20c8b4c8092610da292918252602082015260400190565b60405180910390a2505050505050565b61050c8161139f565b60006104108383611110565b61050c816113fd565b600080516020611f8f83398151915254811461050c5760405162461bcd60e51b815260206004820152602960248201527f4c696248697665466163746f72793a2077726f6e67206869766520637265617460448201526834b7b71037b93232b960b91b6064820152608401610362565b60008063ec861e2960e01b86868686604051602401610e629493929190611d54565b604051602081830303815290604052906001600160e01b0319166020820180516001600160e01b0383818316178352505050509050600080306001600160a01b031683604051610eb29190611bf3565b6000604051808303816000865af19150503d8060008114610eef576040519150601f19603f3d011682016040523d82523d6000602084013e610ef4565b606091505b509150915081610f525760405162461bcd60e51b815260206004820152602360248201527f4c69624869766554696d656c6f636b4d616368696e653a2063616c6c206661696044820152621b195960ea1b6064820152608401610362565b80806020019051810190610f66919061199d565b98975050505050505050565b6001600080516020611faf8339815191526005016000828254610f959190611e79565b9091555050565b60008282604051602001610fb1929190611d98565b60405160208183030381529060405280519060200120905092915050565b600080632fac741c60e01b8b8b8b8b8b8b8b8b8b604051602401610ffb99989796959493929190611cf7565b604051602081830303815290604052906001600160e01b0319166020820180516001600160e01b0383818316178352505050509050600080306001600160a01b03168360405161104b9190611bf3565b6000604051808303816000865af19150503d8060008114611088576040519150601f19603f3d011682016040523d82523d6000602084013e61108d565b606091505b5091509150816110eb5760405162461bcd60e51b815260206004820152602360248201527f4c696248697665476f7665726e6f724d616368696e653a2063616c6c206661696044820152621b195960ea1b6064820152608401610362565b808060200190518101906110ff919061199d565b9d9c50505050505050505050505050565b6000611128600080516020611faf8339815191525490565b8383604051602001610fb193929190611def565b600080633674c7ce60e01b8686868660405160240161115e9493929190611cb0565b604051602081830303815290604052906001600160e01b0319166020820180516001600160e01b0383818316178352505050509050600080306001600160a01b0316836040516111ae9190611bf3565b6000604051808303816000865af19150503d80600081146111eb576040519150601f19603f3d011682016040523d82523d6000602084013e6111f0565b606091505b509150915081610f525760405162461bcd60e51b815260206004820152602a60248201527f4c696248697665476f7665726e616e6365546f6b656e4d616368696e653a2063604482015269185b1b0819985a5b195960b21b6064820152608401610362565b6001600160a01b0383811660009081527fc7ddcdc008a4787bc0ebc7e57c6de87615ae1cb780f671ab25bfdfbd9cc9ce626020819052604090912060020154909116156112f85760405162461bcd60e51b815260206004820152602b60248201527f4c696252756e6e657252656769737472793a206869766520657869737420666f60448201526a1c88185c1c1b1a58d85b9d60aa1b6064820152608401610362565b6001600160a01b03841660009081526020828152604090912084516113259260019092019186019061171f565b506001600160a01b038481166000818152602084815260409182902060020180546001600160a01b031916948716949094179093555190815233917f7d3d460ae2321c55dd17ca0374131d12b043780b662e61564b5c62ed6958218c910160405180910390a250505050565b61139b8282611407565b5050565b6113b160405160200161029390611dc6565b80600080516020611faf8339815191526004015560405181815233907f70db3de2517d6c9bc1e7ffef78e48fc10ccc1e47539fada5088218ddc9d0ca6d9060200160405180910390a250565b61050c813361148f565b61141182826114f3565b61139b5760008281527f4cd15452b25e815d3f9d1a3c7edd985a178edf5eb3461a1acbf855517423d694602090815260408083206001600160a01b0385168085529252808320805460ff1916600117905551339285917f2f8788117e7eff1d82e926ec794901d17c78024a50270940304540a733656f0d9190a45050565b61149982826114f3565b61139b576114b1816001600160a01b0316601461153d565b6114bc83602061153d565b6040516020016114cd929190611c3b565b60408051601f198184030181529082905262461bcd60e51b825261036291600401611d85565b60009182527f4cd15452b25e815d3f9d1a3c7edd985a178edf5eb3461a1acbf855517423d694602090815260408084206001600160a01b0393909316845291905290205460ff1690565b6060600061154c836002611e91565b611557906002611e79565b67ffffffffffffffff81111561157d57634e487b7160e01b600052604160045260246000fd5b6040519080825280601f01601f1916602001820160405280156115a7576020820181803683370190505b509050600360fc1b816000815181106115d057634e487b7160e01b600052603260045260246000fd5b60200101906001600160f81b031916908160001a905350600f60fb1b8160018151811061160d57634e487b7160e01b600052603260045260246000fd5b60200101906001600160f81b031916908160001a9053506000611631846002611e91565b61163c906001611e79565b90505b60018111156116d0576f181899199a1a9b1b9c1cb0b131b232b360811b85600f166010811061167e57634e487b7160e01b600052603260045260246000fd5b1a60f81b8282815181106116a257634e487b7160e01b600052603260045260246000fd5b60200101906001600160f81b031916908160001a90535060049490941c936116c981611ee0565b905061163f565b5083156104105760405162461bcd60e51b815260206004820181905260248201527f537472696e67733a20686578206c656e67746820696e73756666696369656e746044820152606401610362565b82805461172b90611ef7565b90600052602060002090601f01602090048101928261174d5760008555611793565b82601f1061176657805160ff1916838001178555611793565b82800160010185558215611793579182015b82811115611793578251825591602001919060010190611778565b5061179f9291506117a3565b5090565b5b8082111561179f57600081556001016117a4565b600082601f8301126117c8578081fd5b813560206117dd6117d883611e55565b611e24565b80838252828201915082860187848660051b89010111156117fc578586fd5b855b8581101561182357813561181181611f79565b845292840192908401906001016117fe565b5090979650505050505050565b600082601f830112611840578081fd5b813567ffffffffffffffff81111561185a5761185a611f63565b61186d601f8201601f1916602001611e24565b818152846020838601011115611881578283fd5b816020850160208301379081016020019190915292915050565b600080604083850312156118ad578182fd5b823567ffffffffffffffff808211156118c4578384fd5b6118d0868387016117b8565b93506020915081850135818111156118e6578384fd5b8501601f810187136118f6578384fd5b80356119046117d882611e55565b8082825285820191508584018a878560051b8701011115611923578788fd5b875b8481101561195c5781358781111561193b57898afd5b6119498d8a838a0101611830565b8552509287019290870190600101611925565b50979a909950975050505050505050565b60006020828403121561197e578081fd5b5035919050565b600060208284031215611996578081fd5b5051919050565b6000602082840312156119ae578081fd5b815161041081611f79565b6000806000606084860312156119cd578081fd5b83356119d881611f79565b9250602084013567ffffffffffffffff808211156119f4578283fd5b611a0087838801611830565b93506040860135915080821115611a15578283fd5b50611a2286828701611830565b9150509250925092565b600080600080600080600080610100898b031215611a48578384fd5b883567ffffffffffffffff811115611a5e578485fd5b611a6a8b828c01611830565b9850506020890135611a7b81611f79565b96506040890135611a8b81611f79565b95506060890135611a9b81611f79565b979a969950949760808101359660a0820135965060c0820135955060e0909101359350915050565b60008060408385031215611ad5578081fd5b823567ffffffffffffffff80821115611aec578283fd5b611af886838701611830565b93506020850135915080821115611b0d578283fd5b50611b1a85828601611830565b9150509250929050565b600080600060608486031215611b38578081fd5b83359250602084013567ffffffffffffffff80821115611b56578283fd5b611b62878388016117b8565b93506040860135915080821115611b77578283fd5b50611a22868287016117b8565b6000815180845260208085019450808401835b83811015611bbc5781516001600160a01b031687529582019590820190600101611b97565b509495945050505050565b60008151808452611bdf816020860160208601611eb0565b601f01601f19169290920160200192915050565b60008251611c05818460208701611eb0565b9190910192915050565b60008251611c21818460208701611eb0565b6723b7bb32b93737b960c11b920191825250600801919050565b7f416363657373436f6e74726f6c3a206163636f756e7420000000000000000000815260008351611c73816017850160208801611eb0565b7001034b99036b4b9b9b4b733903937b6329607d1b6017918401918201528351611ca4816028840160208801611eb0565b01602801949350505050565b8481526001600160a01b0384166020820152608060408201819052600090611cda90830185611bc7565b8281036060840152611cec8185611bc7565b979650505050505050565b60006101208b8352806020840152611d118184018c611bc7565b6001600160a01b039a8b166040850152988a166060840152505094909616608085015260a084019290925260c083015260e0820152610100019190915292915050565b848152836020820152608060408201526000611d736080830185611b84565b8281036060840152611cec8185611b84565b6020815260006104106020830184611bc7565b604081526000611dab6040830185611bc7565b8281036020840152611dbd8185611bc7565b95945050505050565b6020808252600f908201526e535452415445474953545f524f4c4560881b604082015260600190565b838152606060208201526000611e086060830185611bc7565b8281036040840152611e1a8185611bc7565b9695505050505050565b604051601f8201601f1916810167ffffffffffffffff81118282101715611e4d57611e4d611f63565b604052919050565b600067ffffffffffffffff821115611e6f57611e6f611f63565b5060051b60200190565b60008219821115611e8c57611e8c611f4d565b500190565b6000816000190483118215151615611eab57611eab611f4d565b500290565b60005b83811015611ecb578181015183820152602001611eb3565b83811115611eda576000848401525b50505050565b600081611eef57611eef611f4d565b506000190190565b600181811c90821680611f0b57607f821691505b60208210811415611f2c57634e487b7160e01b600052602260045260246000fd5b50919050565b6000600019821415611f4657611f46611f4d565b5060010190565b634e487b7160e01b600052601160045260246000fd5b634e487b7160e01b600052604160045260246000fd5b6001600160a01b038116811461050c57600080fdfedf9fe6c7820634fc96403ab99f5002d08ca0285232f082ffd1ecd86082131b92df9fe6c7820634fc96403ab99f5002d08ca0285232f082ffd1ecd86082131b8ddf9fe6c7820634fc96403ab99f5002d08ca0285232f082ffd1ecd86082131b94a2646970667358221220b2a09bb99c620640fbaf0d3f613d6a2940dc624376c277448844c4d325efde5064736f6c63430008040033","bytecodeSha1":"9f24fda4d3a3c403fb018789838f9c782930e6de","compiler":{"evm_version":"istanbul","optimizer":{"enabled":true,"runs":200},"version":"0.8.4+commit.c7e474f2"},"contractName":"HiveFactory","language":"Solidity","natspec":{"kind":"dev","methods":{"activateHive(address[],string[])":{"notice":"NOTE requires some initial runners for voting otherwise nothing can be approved, see templates/HiveGovernor.sol, can just put the administrative addresses and these addresses should have sufficient voting power to make proposals"}},"version":1},"opcodes":"PUSH1 0x80 PUSH1 0x40 MSTORE CALLVALUE DUP1 ISZERO PUSH2 0x10 JUMPI PUSH1 0x0 DUP1 REVERT JUMPDEST POP PUSH1 0x4 CALLDATASIZE LT PUSH2 0xCF JUMPI PUSH1 0x0 CALLDATALOAD PUSH1 0xE0 SHR DUP1 PUSH4 0xBC933A8E GT PUSH2 0x8C JUMPI DUP1 PUSH4 0xEDB06F0A GT PUSH2 0x66 JUMPI DUP1 PUSH4 0xEDB06F0A EQ PUSH2 0x1CB JUMPI DUP1 PUSH4 0xF1D31A40 EQ PUSH2 0x1DE JUMPI DUP1 PUSH4 0xF829AC94 EQ PUSH2 0x226 JUMPI DUP1 PUSH4 0xFFB16787 EQ PUSH2 0x239 JUMPI PUSH1 0x0 DUP1 REVERT JUMPDEST DUP1 PUSH4 0xBC933A8E EQ PUSH2 0x192 JUMPI DUP1 PUSH4 0xC6C0DB37 EQ PUSH2 0x1A5 JUMPI DUP1 PUSH4 0xCE4D17CF EQ PUSH2 0x1B8 JUMPI PUSH1 0x0 DUP1 REVERT JUMPDEST DUP1 PUSH4 0xFFB17CF EQ PUSH2 0xD4 JUMPI DUP1 PUSH4 0x28071A99 EQ PUSH2 0xE9 JUMPI DUP1 PUSH4 0x3F7DB2D0 EQ PUSH2 0x14E JUMPI DUP1 PUSH4 0x4AB3B42B EQ PUSH2 0x16F JUMPI DUP1 PUSH4 0x89F89861 EQ PUSH2 0x177 JUMPI DUP1 PUSH4 0xA87D942C EQ PUSH2 0x18A JUMPI JUMPDEST PUSH1 0x0 DUP1 REVERT JUMPDEST PUSH2 0xE7 PUSH2 0xE2 CALLDATASIZE PUSH1 0x4 PUSH2 0x1B24 JUMP JUMPDEST PUSH2 0x281 JUMP JUMPDEST STOP JUMPDEST PUSH2 0x131 PUSH2 0xF7 CALLDATASIZE PUSH1 0x4 PUSH2 0x196D JUMP JUMPDEST PUSH1 0x0 SWAP1 DUP2 MSTORE PUSH32 0xDF9FE6C7820634FC96403AB99F5002D08CA0285232F082FFD1ECD86082131B8E PUSH1 0x20 MSTORE PUSH1 0x40 SWAP1 KECCAK256 SLOAD PUSH1 0x1 PUSH1 0x1 PUSH1 0xA0 SHL SUB AND SWAP1 JUMP JUMPDEST PUSH1 0x40 MLOAD PUSH1 0x1 PUSH1 0x1 PUSH1 0xA0 SHL SUB SWAP1 SWAP2 AND DUP2 MSTORE PUSH1 0x20 ADD JUMPDEST PUSH1 0x40 MLOAD DUP1 SWAP2 SUB SWAP1 RETURN JUMPDEST PUSH2 0x161 PUSH2 0x15C CALLDATASIZE PUSH1 0x4 PUSH2 0x1AC3 JUMP JUMPDEST PUSH2 0x404 JUMP JUMPDEST PUSH1 0x40 MLOAD SWAP1 DUP2 MSTORE PUSH1 0x20 ADD PUSH2 0x145 JUMP JUMPDEST PUSH2 0xE7 PUSH2 0x417 JUMP JUMPDEST PUSH2 0xE7 PUSH2 0x185 CALLDATASIZE PUSH1 0x4 PUSH2 0x1A2C JUMP JUMPDEST PUSH2 0x50F JUMP JUMPDEST PUSH2 0x161 PUSH2 0x69B JUMP JUMPDEST PUSH2 0xE7 PUSH2 0x1A0 CALLDATASIZE PUSH1 0x4 PUSH2 0x1AC3 JUMP JUMPDEST PUSH2 0x6B8 JUMP JUMPDEST PUSH2 0xE7 PUSH2 0x1B3 CALLDATASIZE PUSH1 0x4 PUSH2 0x19B9 JUMP JUMPDEST PUSH2 0x75F JUMP JUMPDEST PUSH2 0xE7 PUSH2 0x1C6 CALLDATASIZE PUSH1 0x4 PUSH2 0x189B JUMP JUMPDEST PUSH2 0x87A JUMP JUMPDEST PUSH2 0xE7 PUSH2 0x1D9 CALLDATASIZE PUSH1 0x4 PUSH2 0x196D JUMP JUMPDEST PUSH2 0xDB2 JUMP JUMPDEST PUSH2 0x131 PUSH2 0x1EC CALLDATASIZE PUSH1 0x4 PUSH2 0x196D JUMP JUMPDEST PUSH1 0x0 SWAP1 DUP2 MSTORE PUSH32 0xDF9FE6C7820634FC96403AB99F5002D08CA0285232F082FFD1ECD86082131B8F PUSH1 0x20 MSTORE PUSH1 0x40 SWAP1 KECCAK256 SLOAD PUSH1 0x1 PUSH1 0x1 PUSH1 0xA0 SHL SUB AND SWAP1 JUMP JUMPDEST PUSH2 0x161 PUSH2 0x234 CALLDATASIZE PUSH1 0x4 PUSH2 0x1AC3 JUMP JUMPDEST PUSH2 0xDBB JUMP JUMPDEST PUSH2 0x131 PUSH2 0x247 CALLDATASIZE PUSH1 0x4 PUSH2 0x196D JUMP JUMPDEST PUSH1 0x0 SWAP1 DUP2 MSTORE PUSH32 0xDF9FE6C7820634FC96403AB99F5002D08CA0285232F082FFD1ECD86082131B90 PUSH1 0x20 MSTORE PUSH1 0x40 SWAP1 KECCAK256 SLOAD PUSH1 0x1 PUSH1 0x1 PUSH1 0xA0 SHL SUB AND SWAP1 JUMP JUMPDEST PUSH2 0x2AE PUSH1 0x40 MLOAD PUSH1 0x20 ADD PUSH2 0x293 SWAP1 PUSH2 0x1DC6 JUMP JUMPDEST PUSH1 0x40 MLOAD PUSH1 0x20 DUP2 DUP4 SUB SUB DUP2 MSTORE SWAP1 PUSH1 0x40 MSTORE DUP1 MLOAD SWAP1 PUSH1 0x20 ADD KECCAK256 PUSH2 0xDC7 JUMP JUMPDEST PUSH2 0x2B8 PUSH1 0x2 PUSH2 0xDD0 JUMP JUMPDEST PUSH1 0x0 DUP1 MLOAD PUSH1 0x20 PUSH2 0x1FCF DUP4 CODECOPY DUP2 MLOAD SWAP2 MSTORE SLOAD PUSH1 0x0 SWAP1 DUP2 MSTORE PUSH32 0xDF9FE6C7820634FC96403AB99F5002D08CA0285232F082FFD1ECD86082131B8F PUSH1 0x20 MSTORE PUSH1 0x40 SWAP1 KECCAK256 SLOAD PUSH1 0x0 DUP1 MLOAD PUSH1 0x20 PUSH2 0x1FAF DUP4 CODECOPY DUP2 MLOAD SWAP2 MSTORE SWAP1 PUSH1 0x1 PUSH1 0x1 PUSH1 0xA0 SHL SUB AND ISZERO PUSH2 0x36B JUMPI PUSH1 0x40 MLOAD PUSH3 0x461BCD PUSH1 0xE5 SHL DUP2 MSTORE PUSH1 0x20 PUSH1 0x4 DUP3 ADD MSTORE PUSH1 0x21 PUSH1 0x24 DUP3 ADD MSTORE PUSH32 0x48697665466163746F72793A204869766554696D656C6F636B20657869737473 PUSH1 0x44 DUP3 ADD MSTORE PUSH1 0x21 PUSH1 0xF8 SHL PUSH1 0x64 DUP3 ADD MSTORE PUSH1 0x84 ADD JUMPDEST PUSH1 0x40 MLOAD DUP1 SWAP2 SUB SWAP1 REVERT JUMPDEST PUSH1 0x0 PUSH2 0x37D DUP3 PUSH1 0x6 ADD SLOAD DUP7 DUP7 DUP7 PUSH2 0xE40 JUMP JUMPDEST PUSH1 0x7 DUP4 ADD SLOAD PUSH1 0x0 SWAP1 DUP2 MSTORE PUSH1 0x2 DUP5 ADD PUSH1 0x20 MSTORE PUSH1 0x40 SWAP1 KECCAK256 DUP1 SLOAD PUSH1 0x1 PUSH1 0x1 PUSH1 0xA0 SHL SUB NOT AND PUSH1 0x1 PUSH1 0x1 PUSH1 0xA0 SHL SUB DUP4 AND OR SWAP1 SSTORE SWAP1 POP PUSH2 0x3B5 PUSH2 0xF72 JUMP JUMPDEST PUSH1 0x5 DUP3 ADD SLOAD PUSH1 0x40 DUP1 MLOAD SWAP2 DUP3 MSTORE PUSH1 0x1 PUSH1 0x1 PUSH1 0xA0 SHL SUB DUP4 AND PUSH1 0x20 DUP4 ADD MSTORE CALLER SWAP2 PUSH32 0x79BC0E2551D658E98AEA9821683696279AB2A5C6B0120914BC50CD5F6C9438B SWAP2 ADD PUSH1 0x40 MLOAD DUP1 SWAP2 SUB SWAP1 LOG2 POP POP POP POP POP JUMP JUMPDEST PUSH1 0x0 PUSH2 0x410 DUP4 DUP4 PUSH2 0xF9C JUMP JUMPDEST SWAP4 SWAP3 POP POP POP JUMP JUMPDEST PUSH2 0x429 PUSH1 0x40 MLOAD PUSH1 0x20 ADD PUSH2 0x293 SWAP1 PUSH2 0x1DC6 JUMP JUMPDEST PUSH2 0x433 PUSH1 0x0 PUSH2 0xDD0 JUMP JUMPDEST PUSH1 0x0 DUP1 MLOAD PUSH1 0x20 PUSH2 0x1FCF DUP4 CODECOPY DUP2 MLOAD SWAP2 MSTORE DUP1 SLOAD PUSH1 0x0 SWAP1 DUP2 MSTORE PUSH32 0xDF9FE6C7820634FC96403AB99F5002D08CA0285232F082FFD1ECD86082131B8E PUSH1 0x20 SWAP1 DUP2 MSTORE PUSH1 0x40 DUP1 DUP4 KECCAK256 DUP1 SLOAD PUSH1 0x1 PUSH1 0x1 PUSH1 0xA0 SHL SUB NOT SWAP1 DUP2 AND SWAP1 SWAP2 SSTORE DUP5 SLOAD DUP5 MSTORE PUSH32 0xDF9FE6C7820634FC96403AB99F5002D08CA0285232F082FFD1ECD86082131B8F DUP4 MSTORE DUP2 DUP5 KECCAK256 DUP1 SLOAD DUP3 AND SWAP1 SSTORE SWAP4 SLOAD DUP4 MSTORE PUSH32 0xDF9FE6C7820634FC96403AB99F5002D08CA0285232F082FFD1ECD86082131B90 SWAP1 SWAP2 MSTORE SWAP1 KECCAK256 DUP1 SLOAD SWAP1 SWAP2 AND SWAP1 SSTORE PUSH1 0x0 DUP1 MLOAD PUSH1 0x20 PUSH2 0x1FAF DUP4 CODECOPY DUP2 MLOAD SWAP2 MSTORE PUSH2 0x50C PUSH1 0x0 PUSH1 0x0 DUP1 MLOAD PUSH1 0x20 PUSH2 0x1F8F DUP4 CODECOPY DUP2 MLOAD SWAP2 MSTORE SSTORE JUMP JUMPDEST POP JUMP JUMPDEST PUSH2 0x521 PUSH1 0x40 MLOAD PUSH1 0x20 ADD PUSH2 0x293 SWAP1 PUSH2 0x1DC6 JUMP JUMPDEST PUSH2 0x52B PUSH1 0x3 PUSH2 0xDD0 JUMP JUMPDEST PUSH1 0x0 DUP1 MLOAD PUSH1 0x20 PUSH2 0x1FCF DUP4 CODECOPY DUP2 MLOAD SWAP2 MSTORE SLOAD PUSH1 0x0 SWAP1 DUP2 MSTORE PUSH32 0xDF9FE6C7820634FC96403AB99F5002D08CA0285232F082FFD1ECD86082131B90 PUSH1 0x20 MSTORE PUSH1 0x40 SWAP1 KECCAK256 SLOAD PUSH1 0x0 DUP1 MLOAD PUSH1 0x20 PUSH2 0x1FAF DUP4 CODECOPY DUP2 MLOAD SWAP2 MSTORE SWAP1 PUSH1 0x1 PUSH1 0x1 PUSH1 0xA0 SHL SUB AND ISZERO PUSH2 0x5D9 JUMPI PUSH1 0x40 MLOAD PUSH3 0x461BCD PUSH1 0xE5 SHL DUP2 MSTORE PUSH1 0x20 PUSH1 0x4 DUP3 ADD MSTORE PUSH1 0x21 PUSH1 0x24 DUP3 ADD MSTORE PUSH32 0x48697665466163746F72793A2048697665476F7665726E6F7220657869737473 PUSH1 0x44 DUP3 ADD MSTORE PUSH1 0x21 PUSH1 0xF8 SHL PUSH1 0x64 DUP3 ADD MSTORE PUSH1 0x84 ADD PUSH2 0x362 JUMP JUMPDEST PUSH1 0x0 PUSH2 0x60F DUP3 PUSH1 0x6 ADD SLOAD DUP12 PUSH1 0x40 MLOAD PUSH1 0x20 ADD PUSH2 0x5F4 SWAP2 SWAP1 PUSH2 0x1C0F JUMP JUMPDEST PUSH1 0x40 MLOAD PUSH1 0x20 DUP2 DUP4 SUB SUB DUP2 MSTORE SWAP1 PUSH1 0x40 MSTORE DUP12 DUP12 DUP12 DUP12 DUP12 DUP12 DUP12 PUSH2 0xFCF JUMP JUMPDEST PUSH1 0x7 DUP4 ADD SLOAD PUSH1 0x0 SWAP1 DUP2 MSTORE PUSH1 0x3 DUP5 ADD PUSH1 0x20 MSTORE PUSH1 0x40 SWAP1 KECCAK256 DUP1 SLOAD PUSH1 0x1 PUSH1 0x1 PUSH1 0xA0 SHL SUB NOT AND PUSH1 0x1 PUSH1 0x1 PUSH1 0xA0 SHL SUB DUP4 AND OR SWAP1 SSTORE SWAP1 POP PUSH2 0x647 PUSH2 0xF72 JUMP JUMPDEST PUSH1 0x5 DUP3 ADD SLOAD PUSH1 0x40 DUP1 MLOAD SWAP2 DUP3 MSTORE PUSH1 0x1 PUSH1 0x1 PUSH1 0xA0 SHL SUB DUP4 AND PUSH1 0x20 DUP4 ADD MSTORE CALLER SWAP2 PUSH32 0x79BC0E2551D658E98AEA9821683696279AB2A5C6B0120914BC50CD5F6C9438B SWAP2 ADD PUSH1 0x40 MLOAD DUP1 SWAP2 SUB SWAP1 LOG2 POP POP POP POP POP POP POP POP POP POP JUMP JUMPDEST PUSH1 0x0 PUSH2 0x6B3 PUSH1 0x0 DUP1 MLOAD PUSH1 0x20 PUSH2 0x1FAF DUP4 CODECOPY DUP2 MLOAD SWAP2 MSTORE SLOAD SWAP1 JUMP JUMPDEST SWAP1 POP SWAP1 JUMP JUMPDEST PUSH2 0x6CA PUSH1 0x40 MLOAD PUSH1 0x20 ADD PUSH2 0x293 SWAP1 PUSH2 0x1DC6 JUMP JUMPDEST PUSH1 0x0 DUP1 MLOAD PUSH1 0x20 PUSH2 0x1FAF DUP4 CODECOPY DUP2 MLOAD SWAP2 MSTORE PUSH2 0x6E3 PUSH1 0x0 PUSH2 0xDD0 JUMP JUMPDEST PUSH2 0x6ED DUP4 DUP4 PUSH2 0x1110 JUMP JUMPDEST PUSH1 0x6 DUP3 ADD SSTORE PUSH2 0x6FC DUP4 DUP4 PUSH2 0xF9C JUMP JUMPDEST PUSH1 0x7 DUP3 ADD SSTORE PUSH2 0x709 PUSH2 0xF72 JUMP JUMPDEST PUSH1 0x5 DUP2 ADD SLOAD PUSH1 0x6 DUP3 ADD SLOAD PUSH1 0x7 DUP4 ADD SLOAD PUSH1 0x40 DUP1 MLOAD SWAP4 DUP5 MSTORE PUSH1 0x20 DUP5 ADD SWAP3 SWAP1 SWAP3 MSTORE SWAP1 DUP3 ADD MSTORE CALLER SWAP1 PUSH32 0xF06CFEDE3E61312775018527922CA87B677D1F88B4C150EF8DAEE31CFEE08EAE SWAP1 PUSH1 0x60 ADD PUSH1 0x40 MLOAD DUP1 SWAP2 SUB SWAP1 LOG2 POP POP POP JUMP JUMPDEST PUSH2 0x771 PUSH1 0x40 MLOAD PUSH1 0x20 ADD PUSH2 0x293 SWAP1 PUSH2 0x1DC6 JUMP JUMPDEST PUSH2 0x77B PUSH1 0x1 PUSH2 0xDD0 JUMP JUMPDEST PUSH1 0x0 DUP1 MLOAD PUSH1 0x20 PUSH2 0x1FCF DUP4 CODECOPY DUP2 MLOAD SWAP2 MSTORE SLOAD PUSH1 0x0 SWAP1 DUP2 MSTORE PUSH32 0xDF9FE6C7820634FC96403AB99F5002D08CA0285232F082FFD1ECD86082131B8E PUSH1 0x20 MSTORE PUSH1 0x40 SWAP1 KECCAK256 SLOAD PUSH1 0x0 DUP1 MLOAD PUSH1 0x20 PUSH2 0x1FAF DUP4 CODECOPY DUP2 MLOAD SWAP2 MSTORE SWAP1 PUSH1 0x1 PUSH1 0x1 PUSH1 0xA0 SHL SUB AND ISZERO PUSH2 0x830 JUMPI PUSH1 0x40 MLOAD PUSH3 0x461BCD PUSH1 0xE5 SHL DUP2 MSTORE PUSH1 0x20 PUSH1 0x4 DUP3 ADD MSTORE PUSH1 0x28 PUSH1 0x24 DUP3 ADD MSTORE PUSH32 0x48697665466163746F72793A2048697665476F7665726E616E6365546F6B656E PUSH1 0x44 DUP3 ADD MSTORE PUSH8 0x2065786973747321 PUSH1 0xC0 SHL PUSH1 0x64 DUP3 ADD MSTORE PUSH1 0x84 ADD PUSH2 0x362 JUMP JUMPDEST PUSH1 0x0 PUSH2 0x842 DUP3 PUSH1 0x6 ADD SLOAD DUP7 DUP7 DUP7 PUSH2 0x113C JUMP JUMPDEST PUSH1 0x7 DUP4 ADD SLOAD PUSH1 0x0 SWAP1 DUP2 MSTORE PUSH1 0x1 DUP5 ADD PUSH1 0x20 MSTORE PUSH1 0x40 SWAP1 KECCAK256 DUP1 SLOAD PUSH1 0x1 PUSH1 0x1 PUSH1 0xA0 SHL SUB NOT AND PUSH1 0x1 PUSH1 0x1 PUSH1 0xA0 SHL SUB DUP4 AND OR SWAP1 SSTORE SWAP1 POP PUSH2 0x3B5 PUSH2 0xF72 JUMP JUMPDEST PUSH2 0x88C PUSH1 0x40 MLOAD PUSH1 0x20 ADD PUSH2 0x293 SWAP1 PUSH2 0x1DC6 JUMP JUMPDEST PUSH2 0x896 PUSH1 0x4 PUSH2 0xDD0 JUMP JUMPDEST DUP2 MLOAD DUP2 MLOAD DUP2 EQ PUSH2 0x905 JUMPI PUSH1 0x40 MLOAD PUSH3 0x461BCD PUSH1 0xE5 SHL DUP2 MSTORE PUSH1 0x20 PUSH1 0x4 DUP3 ADD MSTORE PUSH1 0x34 PUSH1 0x24 DUP3 ADD MSTORE PUSH32 0x48697665466163746F72793A2072756E6E65727320617272617920646F657320 PUSH1 0x44 DUP3 ADD MSTORE PUSH20 0x6E6F74206D617463682055524973206172726179 PUSH1 0x60 SHL PUSH1 0x64 DUP3 ADD MSTORE PUSH1 0x84 ADD PUSH2 0x362 JUMP JUMPDEST PUSH32 0xDF9FE6C7820634FC96403AB99F5002D08CA0285232F082FFD1ECD86082131B91 SLOAD PUSH1 0x0 DUP1 MLOAD PUSH1 0x20 PUSH2 0x1F8F DUP4 CODECOPY DUP2 MLOAD SWAP2 MSTORE SLOAD PUSH1 0x0 DUP1 MLOAD PUSH1 0x20 PUSH2 0x1FAF DUP4 CODECOPY DUP2 MLOAD SWAP2 MSTORE SWAP2 EQ PUSH2 0x9B1 JUMPI PUSH1 0x40 MLOAD PUSH3 0x461BCD PUSH1 0xE5 SHL DUP2 MSTORE PUSH1 0x20 PUSH1 0x4 DUP3 ADD MSTORE PUSH1 0x34 PUSH1 0x24 DUP3 ADD MSTORE PUSH32 0x48697665466163746F72793A20636F7272656374206869766520637265617469 PUSH1 0x44 DUP3 ADD MSTORE PUSH20 0x1BDB8818DBDD5B9D081B9BDD081C995858DA1959 PUSH1 0x62 SHL PUSH1 0x64 DUP3 ADD MSTORE PUSH1 0x84 ADD PUSH2 0x362 JUMP JUMPDEST PUSH1 0x1 DUP2 PUSH1 0x0 ADD PUSH1 0x0 DUP3 DUP3 SLOAD PUSH2 0x9C6 SWAP2 SWAP1 PUSH2 0x1E79 JUMP JUMPDEST SWAP1 SWAP2 SSTORE POP POP PUSH1 0x7 DUP2 ADD SLOAD PUSH1 0x0 SWAP1 DUP2 MSTORE PUSH1 0x2 DUP3 ADD PUSH1 0x20 SWAP1 DUP2 MSTORE PUSH1 0x40 SWAP2 DUP3 SWAP1 KECCAK256 SLOAD DUP3 MLOAD PUSH4 0x8F61F4F5 PUSH1 0xE0 SHL DUP2 MSTORE SWAP3 MLOAD PUSH1 0x1 PUSH1 0x1 PUSH1 0xA0 SHL SUB SWAP1 SWAP2 AND SWAP3 DUP4 SWAP3 DUP4 SWAP3 PUSH4 0x2F2FF15D SWAP3 DUP5 SWAP3 PUSH4 0x8F61F4F5 SWAP3 PUSH1 0x4 DUP1 DUP5 ADD SWAP4 DUP3 SWAP1 SUB ADD DUP2 DUP7 DUP1 EXTCODESIZE ISZERO DUP1 ISZERO PUSH2 0xA2B JUMPI PUSH1 0x0 DUP1 REVERT JUMPDEST POP GAS STATICCALL ISZERO DUP1 ISZERO PUSH2 0xA3F JUMPI RETURNDATASIZE PUSH1 0x0 DUP1 RETURNDATACOPY RETURNDATASIZE PUSH1 0x0 REVERT JUMPDEST POP POP POP POP PUSH1 0x40 MLOAD RETURNDATASIZE PUSH1 0x1F NOT PUSH1 0x1F DUP3 ADD AND DUP3 ADD DUP1 PUSH1 0x40 MSTORE POP DUP2 ADD SWAP1 PUSH2 0xA63 SWAP2 SWAP1 PUSH2 0x1985 JUMP JUMPDEST PUSH1 0x7 DUP7 ADD SLOAD PUSH1 0x0 SWAP1 DUP2 MSTORE PUSH1 0x3 DUP8 ADD PUSH1 0x20 MSTORE PUSH1 0x40 SWAP1 DUP2 SWAP1 KECCAK256 SLOAD SWAP1 MLOAD PUSH1 0xE0 DUP5 SWAP1 SHL PUSH1 0x1 PUSH1 0x1 PUSH1 0xE0 SHL SUB NOT AND DUP2 MSTORE PUSH1 0x4 DUP2 ADD SWAP3 SWAP1 SWAP3 MSTORE PUSH1 0x1 PUSH1 0x1 PUSH1 0xA0 SHL SUB AND PUSH1 0x24 DUP3 ADD MSTORE PUSH1 0x44 ADD PUSH1 0x0 PUSH1 0x40 MLOAD DUP1 DUP4 SUB DUP2 PUSH1 0x0 DUP8 DUP1 EXTCODESIZE ISZERO DUP1 ISZERO PUSH2 0xAC1 JUMPI PUSH1 0x0 DUP1 REVERT JUMPDEST POP GAS CALL ISZERO DUP1 ISZERO PUSH2 0xAD5 JUMPI RETURNDATASIZE PUSH1 0x0 DUP1 RETURNDATACOPY RETURNDATASIZE PUSH1 0x0 REVERT JUMPDEST POP POP POP POP DUP1 PUSH1 0x1 PUSH1 0x1 PUSH1 0xA0 SHL SUB AND PUSH4 0x2F2FF15D DUP3 PUSH1 0x1 PUSH1 0x1 PUSH1 0xA0 SHL SUB AND PUSH4 0x7BD0265 PUSH1 0x40 MLOAD DUP2 PUSH4 0xFFFFFFFF AND PUSH1 0xE0 SHL DUP2 MSTORE PUSH1 0x4 ADD PUSH1 0x20 PUSH1 0x40 MLOAD DUP1 DUP4 SUB DUP2 DUP7 DUP1 EXTCODESIZE ISZERO DUP1 ISZERO PUSH2 0xB21 JUMPI PUSH1 0x0 DUP1 REVERT JUMPDEST POP GAS STATICCALL ISZERO DUP1 ISZERO PUSH2 0xB35 JUMPI RETURNDATASIZE PUSH1 0x0 DUP1 RETURNDATACOPY RETURNDATASIZE PUSH1 0x0 REVERT JUMPDEST POP POP POP POP PUSH1 0x40 MLOAD RETURNDATASIZE PUSH1 0x1F NOT PUSH1 0x1F DUP3 ADD AND DUP3 ADD DUP1 PUSH1 0x40 MSTORE POP DUP2 ADD SWAP1 PUSH2 0xB59 SWAP2 SWAP1 PUSH2 0x1985 JUMP JUMPDEST PUSH1 0x40 MLOAD PUSH1 0x1 PUSH1 0x1 PUSH1 0xE0 SHL SUB NOT PUSH1 0xE0 DUP5 SWAP1 SHL AND DUP2 MSTORE PUSH1 0x4 DUP2 ADD SWAP2 SWAP1 SWAP2 MSTORE PUSH1 0x0 PUSH1 0x24 DUP3 ADD MSTORE PUSH1 0x44 ADD PUSH1 0x0 PUSH1 0x40 MLOAD DUP1 DUP4 SUB DUP2 PUSH1 0x0 DUP8 DUP1 EXTCODESIZE ISZERO DUP1 ISZERO PUSH2 0xB99 JUMPI PUSH1 0x0 DUP1 REVERT JUMPDEST POP GAS CALL ISZERO DUP1 ISZERO PUSH2 0xBAD JUMPI RETURNDATASIZE PUSH1 0x0 DUP1 RETURNDATACOPY RETURNDATASIZE PUSH1 0x0 REVERT JUMPDEST POP POP POP POP DUP1 PUSH1 0x1 PUSH1 0x1 PUSH1 0xA0 SHL SUB AND PUSH4 0x36568ABE DUP3 PUSH1 0x1 PUSH1 0x1 PUSH1 0xA0 SHL SUB AND PUSH4 0xD3CF6FC PUSH1 0x40 MLOAD DUP2 PUSH4 0xFFFFFFFF AND PUSH1 0xE0 SHL DUP2 MSTORE PUSH1 0x4 ADD PUSH1 0x20 PUSH1 0x40 MLOAD DUP1 DUP4 SUB DUP2 DUP7 DUP1 EXTCODESIZE ISZERO DUP1 ISZERO PUSH2 0xBF9 JUMPI PUSH1 0x0 DUP1 REVERT JUMPDEST POP GAS STATICCALL ISZERO DUP1 ISZERO PUSH2 0xC0D JUMPI RETURNDATASIZE PUSH1 0x0 DUP1 RETURNDATACOPY RETURNDATASIZE PUSH1 0x0 REVERT JUMPDEST POP POP POP POP PUSH1 0x40 MLOAD RETURNDATASIZE PUSH1 0x1F NOT PUSH1 0x1F DUP3 ADD AND DUP3 ADD DUP1 PUSH1 0x40 MSTORE POP DUP2 ADD SWAP1 PUSH2 0xC31 SWAP2 SWAP1 PUSH2 0x1985 JUMP JUMPDEST PUSH1 0x40 MLOAD PUSH1 0x1 PUSH1 0x1 PUSH1 0xE0 SHL SUB NOT PUSH1 0xE0 DUP5 SWAP1 SHL AND DUP2 MSTORE PUSH1 0x4 DUP2 ADD SWAP2 SWAP1 SWAP2 MSTORE ADDRESS PUSH1 0x24 DUP3 ADD MSTORE PUSH1 0x44 ADD PUSH1 0x0 PUSH1 0x40 MLOAD DUP1 DUP4 SUB DUP2 PUSH1 0x0 DUP8 DUP1 EXTCODESIZE ISZERO DUP1 ISZERO PUSH2 0xC70 JUMPI PUSH1 0x0 DUP1 REVERT JUMPDEST POP GAS CALL ISZERO DUP1 ISZERO PUSH2 0xC84 JUMPI RETURNDATASIZE PUSH1 0x0 DUP1 RETURNDATACOPY RETURNDATASIZE PUSH1 0x0 REVERT JUMPDEST POP POP POP POP PUSH1 0x0 JUMPDEST DUP5 DUP2 LT ISZERO PUSH2 0xCFE JUMPI PUSH2 0xCEC DUP8 DUP3 DUP2 MLOAD DUP2 LT PUSH2 0xCB6 JUMPI PUSH4 0x4E487B71 PUSH1 0xE0 SHL PUSH1 0x0 MSTORE PUSH1 0x32 PUSH1 0x4 MSTORE PUSH1 0x24 PUSH1 0x0 REVERT JUMPDEST PUSH1 0x20 MUL PUSH1 0x20 ADD ADD MLOAD DUP8 DUP4 DUP2 MLOAD DUP2 LT PUSH2 0xCDE JUMPI PUSH4 0x4E487B71 PUSH1 0xE0 SHL PUSH1 0x0 MSTORE PUSH1 0x32 PUSH1 0x4 MSTORE PUSH1 0x24 PUSH1 0x0 REVERT JUMPDEST PUSH1 0x20 MUL PUSH1 0x20 ADD ADD MLOAD DUP6 PUSH2 0x1255 JUMP JUMPDEST DUP1 PUSH2 0xCF6 DUP2 PUSH2 0x1F32 JUMP JUMPDEST SWAP2 POP POP PUSH2 0xC8B JUMP JUMPDEST POP PUSH2 0xD4B PUSH1 0x40 MLOAD PUSH1 0x20 ADD PUSH2 0xD2F SWAP1 PUSH1 0x20 DUP1 DUP3 MSTORE PUSH1 0x9 SWAP1 DUP3 ADD MSTORE PUSH9 0x484956455F524F4C45 PUSH1 0xB8 SHL PUSH1 0x40 DUP3 ADD MSTORE PUSH1 0x60 ADD SWAP1 JUMP JUMPDEST PUSH1 0x40 MLOAD PUSH1 0x20 DUP2 DUP4 SUB SUB DUP2 MSTORE SWAP1 PUSH1 0x40 MSTORE DUP1 MLOAD SWAP1 PUSH1 0x20 ADD KECCAK256 DUP4 PUSH2 0x1391 JUMP JUMPDEST PUSH2 0xD62 PUSH1 0x0 PUSH1 0x0 DUP1 MLOAD PUSH1 0x20 PUSH2 0x1F8F DUP4 CODECOPY DUP2 MLOAD SWAP2 MSTORE SSTORE JUMP JUMPDEST DUP3 SLOAD PUSH1 0x7 DUP5 ADD SLOAD PUSH1 0x40 MLOAD CALLER SWAP3 PUSH32 0x8A403E9BAC529E2394686CE1AF2E7055F408786829851E1F82C282F20C8B4C80 SWAP3 PUSH2 0xDA2 SWAP3 SWAP2 DUP3 MSTORE PUSH1 0x20 DUP3 ADD MSTORE PUSH1 0x40 ADD SWAP1 JUMP JUMPDEST PUSH1 0x40 MLOAD DUP1 SWAP2 SUB SWAP1 LOG2 POP POP POP POP POP POP JUMP JUMPDEST PUSH2 0x50C DUP2 PUSH2 0x139F JUMP JUMPDEST PUSH1 0x0 PUSH2 0x410 DUP4 DUP4 PUSH2 0x1110 JUMP JUMPDEST PUSH2 0x50C DUP2 PUSH2 0x13FD JUMP JUMPDEST PUSH1 0x0 DUP1 MLOAD PUSH1 0x20 PUSH2 0x1F8F DUP4 CODECOPY DUP2 MLOAD SWAP2 MSTORE SLOAD DUP2 EQ PUSH2 0x50C JUMPI PUSH1 0x40 MLOAD PUSH3 0x461BCD PUSH1 0xE5 SHL DUP2 MSTORE PUSH1 0x20 PUSH1 0x4 DUP3 ADD MSTORE PUSH1 0x29 PUSH1 0x24 DUP3 ADD MSTORE PUSH32 0x4C696248697665466163746F72793A2077726F6E672068697665206372656174 PUSH1 0x44 DUP3 ADD MSTORE PUSH9 0x34B7B71037B93232B9 PUSH1 0xB9 SHL PUSH1 0x64 DUP3 ADD MSTORE PUSH1 0x84 ADD PUSH2 0x362 JUMP JUMPDEST PUSH1 0x0 DUP1 PUSH4 0xEC861E29 PUSH1 0xE0 SHL DUP7 DUP7 DUP7 DUP7 PUSH1 0x40 MLOAD PUSH1 0x24 ADD PUSH2 0xE62 SWAP5 SWAP4 SWAP3 SWAP2 SWAP1 PUSH2 0x1D54 JUMP JUMPDEST PUSH1 0x40 MLOAD PUSH1 0x20 DUP2 DUP4 SUB SUB DUP2 MSTORE SWAP1 PUSH1 0x40 MSTORE SWAP1 PUSH1 0x1 PUSH1 0x1 PUSH1 0xE0 SHL SUB NOT AND PUSH1 0x20 DUP3 ADD DUP1 MLOAD PUSH1 0x1 PUSH1 0x1 PUSH1 0xE0 SHL SUB DUP4 DUP2 DUP4 AND OR DUP4 MSTORE POP POP POP POP SWAP1 POP PUSH1 0x0 DUP1 ADDRESS PUSH1 0x1 PUSH1 0x1 PUSH1 0xA0 SHL SUB AND DUP4 PUSH1 0x40 MLOAD PUSH2 0xEB2 SWAP2 SWAP1 PUSH2 0x1BF3 JUMP JUMPDEST PUSH1 0x0 PUSH1 0x40 MLOAD DUP1 DUP4 SUB DUP2 PUSH1 0x0 DUP7 GAS CALL SWAP2 POP POP RETURNDATASIZE DUP1 PUSH1 0x0 DUP2 EQ PUSH2 0xEEF JUMPI PUSH1 0x40 MLOAD SWAP2 POP PUSH1 0x1F NOT PUSH1 0x3F RETURNDATASIZE ADD AND DUP3 ADD PUSH1 0x40 MSTORE RETURNDATASIZE DUP3 MSTORE RETURNDATASIZE PUSH1 0x0 PUSH1 0x20 DUP5 ADD RETURNDATACOPY PUSH2 0xEF4 JUMP JUMPDEST PUSH1 0x60 SWAP2 POP JUMPDEST POP SWAP2 POP SWAP2 POP DUP2 PUSH2 0xF52 JUMPI PUSH1 0x40 MLOAD PUSH3 0x461BCD PUSH1 0xE5 SHL DUP2 MSTORE PUSH1 0x20 PUSH1 0x4 DUP3 ADD MSTORE PUSH1 0x23 PUSH1 0x24 DUP3 ADD MSTORE PUSH32 0x4C69624869766554696D656C6F636B4D616368696E653A2063616C6C20666169 PUSH1 0x44 DUP3 ADD MSTORE PUSH3 0x1B1959 PUSH1 0xEA SHL PUSH1 0x64 DUP3 ADD MSTORE PUSH1 0x84 ADD PUSH2 0x362 JUMP JUMPDEST DUP1 DUP1 PUSH1 0x20 ADD SWAP1 MLOAD DUP2 ADD SWAP1 PUSH2 0xF66 SWAP2 SWAP1 PUSH2 0x199D JUMP JUMPDEST SWAP9 SWAP8 POP POP POP POP POP POP POP POP JUMP JUMPDEST PUSH1 0x1 PUSH1 0x0 DUP1 MLOAD PUSH1 0x20 PUSH2 0x1FAF DUP4 CODECOPY DUP2 MLOAD SWAP2 MSTORE PUSH1 0x5 ADD PUSH1 0x0 DUP3 DUP3 SLOAD PUSH2 0xF95 SWAP2 SWAP1 PUSH2 0x1E79 JUMP JUMPDEST SWAP1 SWAP2 SSTORE POP POP JUMP JUMPDEST PUSH1 0x0 DUP3 DUP3 PUSH1 0x40 MLOAD PUSH1 0x20 ADD PUSH2 0xFB1 SWAP3 SWAP2 SWAP1 PUSH2 0x1D98 JUMP JUMPDEST PUSH1 0x40 MLOAD PUSH1 0x20 DUP2 DUP4 SUB SUB DUP2 MSTORE SWAP1 PUSH1 0x40 MSTORE DUP1 MLOAD SWAP1 PUSH1 0x20 ADD KECCAK256 SWAP1 POP SWAP3 SWAP2 POP POP JUMP JUMPDEST PUSH1 0x0 DUP1 PUSH4 0x2FAC741C PUSH1 0xE0 SHL DUP12 DUP12 DUP12 DUP12 DUP12 DUP12 DUP12 DUP12 DUP12 PUSH1 0x40 MLOAD PUSH1 0x24 ADD PUSH2 0xFFB SWAP10 SWAP9 SWAP8 SWAP7 SWAP6 SWAP5 SWAP4 SWAP3 SWAP2 SWAP1 PUSH2 0x1CF7 JUMP JUMPDEST PUSH1 0x40 MLOAD PUSH1 0x20 DUP2 DUP4 SUB SUB DUP2 MSTORE SWAP1 PUSH1 0x40 MSTORE SWAP1 PUSH1 0x1 PUSH1 0x1 PUSH1 0xE0 SHL SUB NOT AND PUSH1 0x20 DUP3 ADD DUP1 MLOAD PUSH1 0x1 PUSH1 0x1 PUSH1 0xE0 SHL SUB DUP4 DUP2 DUP4 AND OR DUP4 MSTORE POP POP POP POP SWAP1 POP PUSH1 0x0 DUP1 ADDRESS PUSH1 0x1 PUSH1 0x1 PUSH1 0xA0 SHL SUB AND DUP4 PUSH1 0x40 MLOAD PUSH2 0x104B SWAP2 SWAP1 PUSH2 0x1BF3 JUMP JUMPDEST PUSH1 0x0 PUSH1 0x40 MLOAD DUP1 DUP4 SUB DUP2 PUSH1 0x0 DUP7 GAS CALL SWAP2 POP POP RETURNDATASIZE DUP1 PUSH1 0x0 DUP2 EQ PUSH2 0x1088 JUMPI PUSH1 0x40 MLOAD SWAP2 POP PUSH1 0x1F NOT PUSH1 0x3F RETURNDATASIZE ADD AND DUP3 ADD PUSH1 0x40 MSTORE RETURNDATASIZE DUP3 MSTORE RETURNDATASIZE PUSH1 0x0 PUSH1 0x20 DUP5 ADD RETURNDATACOPY PUSH2 0x108D JUMP JUMPDEST PUSH1 0x60 SWAP2 POP JUMPDEST POP SWAP2 POP SWAP2 POP DUP2 PUSH2 0x10EB JUMPI PUSH1 0x40 MLOAD PUSH3 0x461BCD PUSH1 0xE5 SHL DUP2 MSTORE PUSH1 0x20 PUSH1 0x4 DUP3 ADD MSTORE PUSH1 0x23 PUSH1 0x24 DUP3 ADD MSTORE PUSH32 0x4C696248697665476F7665726E6F724D616368696E653A2063616C6C20666169 PUSH1 0x44 DUP3 ADD MSTORE PUSH3 0x1B1959 PUSH1 0xEA SHL PUSH1 0x64 DUP3 ADD MSTORE PUSH1 0x84 ADD PUSH2 0x362 JUMP JUMPDEST DUP1 DUP1 PUSH1 0x20 ADD SWAP1 MLOAD DUP2 ADD SWAP1 PUSH2 0x10FF SWAP2 SWAP1 PUSH2 0x199D JUMP JUMPDEST SWAP14 SWAP13 POP POP POP POP POP POP POP POP POP POP POP POP POP JUMP JUMPDEST PUSH1 0x0 PUSH2 0x1128 PUSH1 0x0 DUP1 MLOAD PUSH1 0x20 PUSH2 0x1FAF DUP4 CODECOPY DUP2 MLOAD SWAP2 MSTORE SLOAD SWAP1 JUMP JUMPDEST DUP4 DUP4 PUSH1 0x40 MLOAD PUSH1 0x20 ADD PUSH2 0xFB1 SWAP4 SWAP3 SWAP2 SWAP1 PUSH2 0x1DEF JUMP JUMPDEST PUSH1 0x0 DUP1 PUSH4 0x3674C7CE PUSH1 0xE0 SHL DUP7 DUP7 DUP7 DUP7 PUSH1 0x40 MLOAD PUSH1 0x24 ADD PUSH2 0x115E SWAP5 SWAP4 SWAP3 SWAP2 SWAP1 PUSH2 0x1CB0 JUMP JUMPDEST PUSH1 0x40 MLOAD PUSH1 0x20 DUP2 DUP4 SUB SUB DUP2 MSTORE SWAP1 PUSH1 0x40 MSTORE SWAP1 PUSH1 0x1 PUSH1 0x1 PUSH1 0xE0 SHL SUB NOT AND PUSH1 0x20 DUP3 ADD DUP1 MLOAD PUSH1 0x1 PUSH1 0x1 PUSH1 0xE0 SHL SUB DUP4 DUP2 DUP4 AND OR DUP4 MSTORE POP POP POP POP SWAP1 POP PUSH1 0x0 DUP1 ADDRESS PUSH1 0x1 PUSH1 0x1 PUSH1 0xA0 SHL SUB AND DUP4 PUSH1 0x40 MLOAD PUSH2 0x11AE SWAP2 SWAP1 PUSH2 0x1BF3 JUMP JUMPDEST PUSH1 0x0 PUSH1 0x40 MLOAD DUP1 DUP4 SUB DUP2 PUSH1 0x0 DUP7 GAS CALL SWAP2 POP POP RETURNDATASIZE DUP1 PUSH1 0x0 DUP2 EQ PUSH2 0x11EB JUMPI PUSH1 0x40 MLOAD SWAP2 POP PUSH1 0x1F NOT PUSH1 0x3F RETURNDATASIZE ADD AND DUP3 ADD PUSH1 0x40 MSTORE RETURNDATASIZE DUP3 MSTORE RETURNDATASIZE PUSH1 0x0 PUSH1 0x20 DUP5 ADD RETURNDATACOPY PUSH2 0x11F0 JUMP JUMPDEST PUSH1 0x60 SWAP2 POP JUMPDEST POP SWAP2 POP SWAP2 POP DUP2 PUSH2 0xF52 JUMPI PUSH1 0x40 MLOAD PUSH3 0x461BCD PUSH1 0xE5 SHL DUP2 MSTORE PUSH1 0x20 PUSH1 0x4 DUP3 ADD MSTORE PUSH1 0x2A PUSH1 0x24 DUP3 ADD MSTORE PUSH32 0x4C696248697665476F7665726E616E6365546F6B656E4D616368696E653A2063 PUSH1 0x44 DUP3 ADD MSTORE PUSH10 0x185B1B0819985A5B1959 PUSH1 0xB2 SHL PUSH1 0x64 DUP3 ADD MSTORE PUSH1 0x84 ADD PUSH2 0x362 JUMP JUMPDEST PUSH1 0x1 PUSH1 0x1 PUSH1 0xA0 SHL SUB DUP4 DUP2 AND PUSH1 0x0 SWAP1 DUP2 MSTORE PUSH32 0xC7DDCDC008A4787BC0EBC7E57C6DE87615AE1CB780F671AB25BFDFBD9CC9CE62 PUSH1 0x20 DUP2 SWAP1 MSTORE PUSH1 0x40 SWAP1 SWAP2 KECCAK256 PUSH1 0x2 ADD SLOAD SWAP1 SWAP2 AND ISZERO PUSH2 0x12F8 JUMPI PUSH1 0x40 MLOAD PUSH3 0x461BCD PUSH1 0xE5 SHL DUP2 MSTORE PUSH1 0x20 PUSH1 0x4 DUP3 ADD MSTORE PUSH1 0x2B PUSH1 0x24 DUP3 ADD MSTORE PUSH32 0x4C696252756E6E657252656769737472793A206869766520657869737420666F PUSH1 0x44 DUP3 ADD MSTORE PUSH11 0x1C88185C1C1B1A58D85B9D PUSH1 0xAA SHL PUSH1 0x64 DUP3 ADD MSTORE PUSH1 0x84 ADD PUSH2 0x362 JUMP JUMPDEST PUSH1 0x1 PUSH1 0x1 PUSH1 0xA0 SHL SUB DUP5 AND PUSH1 0x0 SWAP1 DUP2 MSTORE PUSH1 0x20 DUP3 DUP2 MSTORE PUSH1 0x40 SWAP1 SWAP2 KECCAK256 DUP5 MLOAD PUSH2 0x1325 SWAP3 PUSH1 0x1 SWAP1 SWAP3 ADD SWAP2 DUP7 ADD SWAP1 PUSH2 0x171F JUMP JUMPDEST POP PUSH1 0x1 PUSH1 0x1 PUSH1 0xA0 SHL SUB DUP5 DUP2 AND PUSH1 0x0 DUP2 DUP2 MSTORE PUSH1 0x20 DUP5 DUP2 MSTORE PUSH1 0x40 SWAP2 DUP3 SWAP1 KECCAK256 PUSH1 0x2 ADD DUP1 SLOAD PUSH1 0x1 PUSH1 0x1 PUSH1 0xA0 SHL SUB NOT AND SWAP5 DUP8 AND SWAP5 SWAP1 SWAP5 OR SWAP1 SWAP4 SSTORE MLOAD SWAP1 DUP2 MSTORE CALLER SWAP2 PUSH32 0x7D3D460AE2321C55DD17CA0374131D12B043780B662E61564B5C62ED6958218C SWAP2 ADD PUSH1 0x40 MLOAD DUP1 SWAP2 SUB SWAP1 LOG2 POP POP POP POP JUMP JUMPDEST PUSH2 0x139B DUP3 DUP3 PUSH2 0x1407 JUMP JUMPDEST POP POP JUMP JUMPDEST PUSH2 0x13B1 PUSH1 0x40 MLOAD PUSH1 0x20 ADD PUSH2 0x293 SWAP1 PUSH2 0x1DC6 JUMP JUMPDEST DUP1 PUSH1 0x0 DUP1 MLOAD PUSH1 0x20 PUSH2 0x1FAF DUP4 CODECOPY DUP2 MLOAD SWAP2 MSTORE PUSH1 0x4 ADD SSTORE PUSH1 0x40 MLOAD DUP2 DUP2 MSTORE CALLER SWAP1 PUSH32 0x70DB3DE2517D6C9BC1E7FFEF78E48FC10CCC1E47539FADA5088218DDC9D0CA6D SWAP1 PUSH1 0x20 ADD PUSH1 0x40 MLOAD DUP1 SWAP2 SUB SWAP1 LOG2 POP JUMP JUMPDEST PUSH2 0x50C DUP2 CALLER PUSH2 0x148F JUMP JUMPDEST PUSH2 0x1411 DUP3 DUP3 PUSH2 0x14F3 JUMP JUMPDEST PUSH2 0x139B JUMPI PUSH1 0x0 DUP3 DUP2 MSTORE PUSH32 0x4CD15452B25E815D3F9D1A3C7EDD985A178EDF5EB3461A1ACBF855517423D694 PUSH1 0x20 SWAP1 DUP2 MSTORE PUSH1 0x40 DUP1 DUP4 KECCAK256 PUSH1 0x1 PUSH1 0x1 PUSH1 0xA0 SHL SUB DUP6 AND DUP1 DUP6 MSTORE SWAP3 MSTORE DUP1 DUP4 KECCAK256 DUP1 SLOAD PUSH1 0xFF NOT AND PUSH1 0x1 OR SWAP1 SSTORE MLOAD CALLER SWAP3 DUP6 SWAP2 PUSH32 0x2F8788117E7EFF1D82E926EC794901D17C78024A50270940304540A733656F0D SWAP2 SWAP1 LOG4 POP POP JUMP JUMPDEST PUSH2 0x1499 DUP3 DUP3 PUSH2 0x14F3 JUMP JUMPDEST PUSH2 0x139B JUMPI PUSH2 0x14B1 DUP2 PUSH1 0x1 PUSH1 0x1 PUSH1 0xA0 SHL SUB AND PUSH1 0x14 PUSH2 0x153D JUMP JUMPDEST PUSH2 0x14BC DUP4 PUSH1 0x20 PUSH2 0x153D JUMP JUMPDEST PUSH1 0x40 MLOAD PUSH1 0x20 ADD PUSH2 0x14CD SWAP3 SWAP2 SWAP1 PUSH2 0x1C3B JUMP JUMPDEST PUSH1 0x40 DUP1 MLOAD PUSH1 0x1F NOT DUP2 DUP5 SUB ADD DUP2 MSTORE SWAP1 DUP3 SWAP1 MSTORE PUSH3 0x461BCD PUSH1 0xE5 SHL DUP3 MSTORE PUSH2 0x362 SWAP2 PUSH1 0x4 ADD PUSH2 0x1D85 JUMP JUMPDEST PUSH1 0x0 SWAP2 DUP3 MSTORE PUSH32 0x4CD15452B25E815D3F9D1A3C7EDD985A178EDF5EB3461A1ACBF855517423D694 PUSH1 0x20 SWAP1 DUP2 MSTORE PUSH1 0x40 DUP1 DUP5 KECCAK256 PUSH1 0x1 PUSH1 0x1 PUSH1 0xA0 SHL SUB SWAP4 SWAP1 SWAP4 AND DUP5 MSTORE SWAP2 SWAP1 MSTORE SWAP1 KECCAK256 SLOAD PUSH1 0xFF AND SWAP1 JUMP JUMPDEST PUSH1 0x60 PUSH1 0x0 PUSH2 0x154C DUP4 PUSH1 0x2 PUSH2 0x1E91 JUMP JUMPDEST PUSH2 0x1557 SWAP1 PUSH1 0x2 PUSH2 0x1E79 JUMP JUMPDEST PUSH8 0xFFFFFFFFFFFFFFFF DUP2 GT ISZERO PUSH2 0x157D JUMPI PUSH4 0x4E487B71 PUSH1 0xE0 SHL PUSH1 0x0 MSTORE PUSH1 0x41 PUSH1 0x4 MSTORE PUSH1 0x24 PUSH1 0x0 REVERT JUMPDEST PUSH1 0x40 MLOAD SWAP1 DUP1 DUP3 MSTORE DUP1 PUSH1 0x1F ADD PUSH1 0x1F NOT AND PUSH1 0x20 ADD DUP3 ADD PUSH1 0x40 MSTORE DUP1 ISZERO PUSH2 0x15A7 JUMPI PUSH1 0x20 DUP3 ADD DUP2 DUP1 CALLDATASIZE DUP4 CALLDATACOPY ADD SWAP1 POP JUMPDEST POP SWAP1 POP PUSH1 0x3 PUSH1 0xFC SHL DUP2 PUSH1 0x0 DUP2 MLOAD DUP2 LT PUSH2 0x15D0 JUMPI PUSH4 0x4E487B71 PUSH1 0xE0 SHL PUSH1 0x0 MSTORE PUSH1 0x32 PUSH1 0x4 MSTORE PUSH1 0x24 PUSH1 0x0 REVERT JUMPDEST PUSH1 0x20 ADD ADD SWAP1 PUSH1 0x1 PUSH1 0x1 PUSH1 0xF8 SHL SUB NOT AND SWAP1 DUP2 PUSH1 0x0 BYTE SWAP1 MSTORE8 POP PUSH1 0xF PUSH1 0xFB SHL DUP2 PUSH1 0x1 DUP2 MLOAD DUP2 LT PUSH2 0x160D JUMPI PUSH4 0x4E487B71 PUSH1 0xE0 SHL PUSH1 0x0 MSTORE PUSH1 0x32 PUSH1 0x4 MSTORE PUSH1 0x24 PUSH1 0x0 REVERT JUMPDEST PUSH1 0x20 ADD ADD SWAP1 PUSH1 0x1 PUSH1 0x1 PUSH1 0xF8 SHL SUB NOT AND SWAP1 DUP2 PUSH1 0x0 BYTE SWAP1 MSTORE8 POP PUSH1 0x0 PUSH2 0x1631 DUP5 PUSH1 0x2 PUSH2 0x1E91 JUMP JUMPDEST PUSH2 0x163C SWAP1 PUSH1 0x1 PUSH2 0x1E79 JUMP JUMPDEST SWAP1 POP JUMPDEST PUSH1 0x1 DUP2 GT ISZERO PUSH2 0x16D0 JUMPI PUSH16 0x181899199A1A9B1B9C1CB0B131B232B3 PUSH1 0x81 SHL DUP6 PUSH1 0xF AND PUSH1 0x10 DUP2 LT PUSH2 0x167E JUMPI PUSH4 0x4E487B71 PUSH1 0xE0 SHL PUSH1 0x0 MSTORE PUSH1 0x32 PUSH1 0x4 MSTORE PUSH1 0x24 PUSH1 0x0 REVERT JUMPDEST BYTE PUSH1 0xF8 SHL DUP3 DUP3 DUP2 MLOAD DUP2 LT PUSH2 0x16A2 JUMPI PUSH4 0x4E487B71 PUSH1 0xE0 SHL PUSH1 0x0 MSTORE PUSH1 0x32 PUSH1 0x4 MSTORE PUSH1 0x24 PUSH1 0x0 REVERT JUMPDEST PUSH1 0x20 ADD ADD SWAP1 PUSH1 0x1 PUSH1 0x1 PUSH1 0xF8 SHL SUB NOT AND SWAP1 DUP2 PUSH1 0x0 BYTE SWAP1 MSTORE8 POP PUSH1 0x4 SWAP5 SWAP1 SWAP5 SHR SWAP4 PUSH2 0x16C9 DUP2 PUSH2 0x1EE0 JUMP JUMPDEST SWAP1 POP PUSH2 0x163F JUMP JUMPDEST POP DUP4 ISZERO PUSH2 0x410 JUMPI PUSH1 0x40 MLOAD PUSH3 0x461BCD PUSH1 0xE5 SHL DUP2 MSTORE PUSH1 0x20 PUSH1 0x4 DUP3 ADD DUP2 SWAP1 MSTORE PUSH1 0x24 DUP3 ADD MSTORE PUSH32 0x537472696E67733A20686578206C656E67746820696E73756666696369656E74 PUSH1 0x44 DUP3 ADD MSTORE PUSH1 0x64 ADD PUSH2 0x362 JUMP JUMPDEST DUP3 DUP1 SLOAD PUSH2 0x172B SWAP1 PUSH2 0x1EF7 JUMP JUMPDEST SWAP1 PUSH1 0x0 MSTORE PUSH1 0x20 PUSH1 0x0 KECCAK256 SWAP1 PUSH1 0x1F ADD PUSH1 0x20 SWAP1 DIV DUP2 ADD SWAP3 DUP3 PUSH2 0x174D JUMPI PUSH1 0x0 DUP6 SSTORE PUSH2 0x1793 JUMP JUMPDEST DUP3 PUSH1 0x1F LT PUSH2 0x1766 JUMPI DUP1 MLOAD PUSH1 0xFF NOT AND DUP4 DUP1 ADD OR DUP6 SSTORE PUSH2 0x1793 JUMP JUMPDEST DUP3 DUP1 ADD PUSH1 0x1 ADD DUP6 SSTORE DUP3 ISZERO PUSH2 0x1793 JUMPI SWAP2 DUP3 ADD JUMPDEST DUP3 DUP2 GT ISZERO PUSH2 0x1793 JUMPI DUP3 MLOAD DUP3 SSTORE SWAP2 PUSH1 0x20 ADD SWAP2 SWAP1 PUSH1 0x1 ADD SWAP1 PUSH2 0x1778 JUMP JUMPDEST POP PUSH2 0x179F SWAP3 SWAP2 POP PUSH2 0x17A3 JUMP JUMPDEST POP SWAP1 JUMP JUMPDEST JUMPDEST DUP1 DUP3 GT ISZERO PUSH2 0x179F JUMPI PUSH1 0x0 DUP2 SSTORE PUSH1 0x1 ADD PUSH2 0x17A4 JUMP JUMPDEST PUSH1 0x0 DUP3 PUSH1 0x1F DUP4 ADD SLT PUSH2 0x17C8 JUMPI DUP1 DUP2 REVERT JUMPDEST DUP2 CALLDATALOAD PUSH1 0x20 PUSH2 0x17DD PUSH2 0x17D8 DUP4 PUSH2 0x1E55 JUMP JUMPDEST PUSH2 0x1E24 JUMP JUMPDEST DUP1 DUP4 DUP3 MSTORE DUP3 DUP3 ADD SWAP2 POP DUP3 DUP7 ADD DUP8 DUP5 DUP7 PUSH1 0x5 SHL DUP10 ADD ADD GT ISZERO PUSH2 0x17FC JUMPI DUP6 DUP7 REVERT JUMPDEST DUP6 JUMPDEST DUP6 DUP2 LT ISZERO PUSH2 0x1823 JUMPI DUP2 CALLDATALOAD PUSH2 0x1811 DUP2 PUSH2 0x1F79 JUMP JUMPDEST DUP5 MSTORE SWAP3 DUP5 ADD SWAP3 SWAP1 DUP5 ADD SWAP1 PUSH1 0x1 ADD PUSH2 0x17FE JUMP JUMPDEST POP SWAP1 SWAP8 SWAP7 POP POP POP POP POP POP POP JUMP JUMPDEST PUSH1 0x0 DUP3 PUSH1 0x1F DUP4 ADD SLT PUSH2 0x1840 JUMPI DUP1 DUP2 REVERT JUMPDEST DUP2 CALLDATALOAD PUSH8 0xFFFFFFFFFFFFFFFF DUP2 GT ISZERO PUSH2 0x185A JUMPI PUSH2 0x185A PUSH2 0x1F63 JUMP JUMPDEST PUSH2 0x186D PUSH1 0x1F DUP3 ADD PUSH1 0x1F NOT AND PUSH1 0x20 ADD PUSH2 0x1E24 JUMP JUMPDEST DUP2 DUP2 MSTORE DUP5 PUSH1 0x20 DUP4 DUP7 ADD ADD GT ISZERO PUSH2 0x1881 JUMPI DUP3 DUP4 REVERT JUMPDEST DUP2 PUSH1 0x20 DUP6 ADD PUSH1 0x20 DUP4 ADD CALLDATACOPY SWAP1 DUP2 ADD PUSH1 0x20 ADD SWAP2 SWAP1 SWAP2 MSTORE SWAP3 SWAP2 POP POP JUMP JUMPDEST PUSH1 0x0 DUP1 PUSH1 0x40 DUP4 DUP6 SUB SLT ISZERO PUSH2 0x18AD JUMPI DUP2 DUP3 REVERT JUMPDEST DUP3 CALLDATALOAD PUSH8 0xFFFFFFFFFFFFFFFF DUP1 DUP3 GT ISZERO PUSH2 0x18C4 JUMPI DUP4 DUP5 REVERT JUMPDEST PUSH2 0x18D0 DUP7 DUP4 DUP8 ADD PUSH2 0x17B8 JUMP JUMPDEST SWAP4 POP PUSH1 0x20 SWAP2 POP DUP2 DUP6 ADD CALLDATALOAD DUP2 DUP2 GT ISZERO PUSH2 0x18E6 JUMPI DUP4 DUP5 REVERT JUMPDEST DUP6 ADD PUSH1 0x1F DUP2 ADD DUP8 SGT PUSH2 0x18F6 JUMPI DUP4 DUP5 REVERT JUMPDEST DUP1 CALLDATALOAD PUSH2 0x1904 PUSH2 0x17D8 DUP3 PUSH2 0x1E55 JUMP JUMPDEST DUP1 DUP3 DUP3 MSTORE DUP6 DUP3 ADD SWAP2 POP DUP6 DUP5 ADD DUP11 DUP8 DUP6 PUSH1 0x5 SHL DUP8 ADD ADD GT ISZERO PUSH2 0x1923 JUMPI DUP8 DUP9 REVERT JUMPDEST DUP8 JUMPDEST DUP5 DUP2 LT ISZERO PUSH2 0x195C JUMPI DUP2 CALLDATALOAD DUP8 DUP2 GT ISZERO PUSH2 0x193B JUMPI DUP10 DUP11 REVERT JUMPDEST PUSH2 0x1949 DUP14 DUP11 DUP4 DUP11 ADD ADD PUSH2 0x1830 JUMP JUMPDEST DUP6 MSTORE POP SWAP3 DUP8 ADD SWAP3 SWAP1 DUP8 ADD SWAP1 PUSH1 0x1 ADD PUSH2 0x1925 JUMP JUMPDEST POP SWAP8 SWAP11 SWAP1 SWAP10 POP SWAP8 POP POP POP POP POP POP POP POP JUMP JUMPDEST PUSH1 0x0 PUSH1 0x20 DUP3 DUP5 SUB SLT ISZERO PUSH2 0x197E JUMPI DUP1 DUP2 REVERT JUMPDEST POP CALLDATALOAD SWAP2 SWAP1 POP JUMP JUMPDEST PUSH1 0x0 PUSH1 0x20 DUP3 DUP5 SUB SLT ISZERO PUSH2 0x1996 JUMPI DUP1 DUP2 REVERT JUMPDEST POP MLOAD SWAP2 SWAP1 POP JUMP JUMPDEST PUSH1 0x0 PUSH1 0x20 DUP3 DUP5 SUB SLT ISZERO PUSH2 0x19AE JUMPI DUP1 DUP2 REVERT JUMPDEST DUP2 MLOAD PUSH2 0x410 DUP2 PUSH2 0x1F79 JUMP JUMPDEST PUSH1 0x0 DUP1 PUSH1 0x0 PUSH1 0x60 DUP5 DUP7 SUB SLT ISZERO PUSH2 0x19CD JUMPI DUP1 DUP2 REVERT JUMPDEST DUP4 CALLDATALOAD PUSH2 0x19D8 DUP2 PUSH2 0x1F79 JUMP JUMPDEST SWAP3 POP PUSH1 0x20 DUP5 ADD CALLDATALOAD PUSH8 0xFFFFFFFFFFFFFFFF DUP1 DUP3 GT ISZERO PUSH2 0x19F4 JUMPI DUP3 DUP4 REVERT JUMPDEST PUSH2 0x1A00 DUP8 DUP4 DUP9 ADD PUSH2 0x1830 JUMP JUMPDEST SWAP4 POP PUSH1 0x40 DUP7 ADD CALLDATALOAD SWAP2 POP DUP1 DUP3 GT ISZERO PUSH2 0x1A15 JUMPI DUP3 DUP4 REVERT JUMPDEST POP PUSH2 0x1A22 DUP7 DUP3 DUP8 ADD PUSH2 0x1830 JUMP JUMPDEST SWAP2 POP POP SWAP3 POP SWAP3 POP SWAP3 JUMP JUMPDEST PUSH1 0x0 DUP1 PUSH1 0x0 DUP1 PUSH1 0x0 DUP1 PUSH1 0x0 DUP1 PUSH2 0x100 DUP10 DUP12 SUB SLT ISZERO PUSH2 0x1A48 JUMPI DUP4 DUP5 REVERT JUMPDEST DUP9 CALLDATALOAD PUSH8 0xFFFFFFFFFFFFFFFF DUP2 GT ISZERO PUSH2 0x1A5E JUMPI DUP5 DUP6 REVERT JUMPDEST PUSH2 0x1A6A DUP12 DUP3 DUP13 ADD PUSH2 0x1830 JUMP JUMPDEST SWAP9 POP POP PUSH1 0x20 DUP10 ADD CALLDATALOAD PUSH2 0x1A7B DUP2 PUSH2 0x1F79 JUMP JUMPDEST SWAP7 POP PUSH1 0x40 DUP10 ADD CALLDATALOAD PUSH2 0x1A8B DUP2 PUSH2 0x1F79 JUMP JUMPDEST SWAP6 POP PUSH1 0x60 DUP10 ADD CALLDATALOAD PUSH2 0x1A9B DUP2 PUSH2 0x1F79 JUMP JUMPDEST SWAP8 SWAP11 SWAP7 SWAP10 POP SWAP5 SWAP8 PUSH1 0x80 DUP2 ADD CALLDATALOAD SWAP7 PUSH1 0xA0 DUP3 ADD CALLDATALOAD SWAP7 POP PUSH1 0xC0 DUP3 ADD CALLDATALOAD SWAP6 POP PUSH1 0xE0 SWAP1 SWAP2 ADD CALLDATALOAD SWAP4 POP SWAP2 POP POP JUMP JUMPDEST PUSH1 0x0 DUP1 PUSH1 0x40 DUP4 DUP6 SUB SLT ISZERO PUSH2 0x1AD5 JUMPI DUP1 DUP2 REVERT JUMPDEST DUP3 CALLDATALOAD PUSH8 0xFFFFFFFFFFFFFFFF DUP1 DUP3 GT ISZERO PUSH2 0x1AEC JUMPI DUP3 DUP4 REVERT JUMPDEST PUSH2 0x1AF8 DUP7 DUP4 DUP8 ADD PUSH2 0x1830 JUMP JUMPDEST SWAP4 POP PUSH1 0x20 DUP6 ADD CALLDATALOAD SWAP2 POP DUP1 DUP3 GT ISZERO PUSH2 0x1B0D JUMPI DUP3 DUP4 REVERT JUMPDEST POP PUSH2 0x1B1A DUP6 DUP3 DUP7 ADD PUSH2 0x1830 JUMP JUMPDEST SWAP2 POP POP SWAP3 POP SWAP3 SWAP1 POP JUMP JUMPDEST PUSH1 0x0 DUP1 PUSH1 0x0 PUSH1 0x60 DUP5 DUP7 SUB SLT ISZERO PUSH2 0x1B38 JUMPI DUP1 DUP2 REVERT JUMPDEST DUP4 CALLDATALOAD SWAP3 POP PUSH1 0x20 DUP5 ADD CALLDATALOAD PUSH8 0xFFFFFFFFFFFFFFFF DUP1 DUP3 GT ISZERO PUSH2 0x1B56 JUMPI DUP3 DUP4 REVERT JUMPDEST PUSH2 0x1B62 DUP8 DUP4 DUP9 ADD PUSH2 0x17B8 JUMP JUMPDEST SWAP4 POP PUSH1 0x40 DUP7 ADD CALLDATALOAD SWAP2 POP DUP1 DUP3 GT ISZERO PUSH2 0x1B77 JUMPI DUP3 DUP4 REVERT JUMPDEST POP PUSH2 0x1A22 DUP7 DUP3 DUP8 ADD PUSH2 0x17B8 JUMP JUMPDEST PUSH1 0x0 DUP2 MLOAD DUP1 DUP5 MSTORE PUSH1 0x20 DUP1 DUP6 ADD SWAP5 POP DUP1 DUP5 ADD DUP4 JUMPDEST DUP4 DUP2 LT ISZERO PUSH2 0x1BBC JUMPI DUP2 MLOAD PUSH1 0x1 PUSH1 0x1 PUSH1 0xA0 SHL SUB AND DUP8 MSTORE SWAP6 DUP3 ADD SWAP6 SWAP1 DUP3 ADD SWAP1 PUSH1 0x1 ADD PUSH2 0x1B97 JUMP JUMPDEST POP SWAP5 SWAP6 SWAP5 POP POP POP POP POP JUMP JUMPDEST PUSH1 0x0 DUP2 MLOAD DUP1 DUP5 MSTORE PUSH2 0x1BDF DUP2 PUSH1 0x20 DUP7 ADD PUSH1 0x20 DUP7 ADD PUSH2 0x1EB0 JUMP JUMPDEST PUSH1 0x1F ADD PUSH1 0x1F NOT AND SWAP3 SWAP1 SWAP3 ADD PUSH1 0x20 ADD SWAP3 SWAP2 POP POP JUMP JUMPDEST PUSH1 0x0 DUP3 MLOAD PUSH2 0x1C05 DUP2 DUP5 PUSH1 0x20 DUP8 ADD PUSH2 0x1EB0 JUMP JUMPDEST SWAP2 SWAP1 SWAP2 ADD SWAP3 SWAP2 POP POP JUMP JUMPDEST PUSH1 0x0 DUP3 MLOAD PUSH2 0x1C21 DUP2 DUP5 PUSH1 0x20 DUP8 ADD PUSH2 0x1EB0 JUMP JUMPDEST PUSH8 0x23B7BB32B93737B9 PUSH1 0xC1 SHL SWAP3 ADD SWAP2 DUP3 MSTORE POP PUSH1 0x8 ADD SWAP2 SWAP1 POP JUMP JUMPDEST PUSH32 0x416363657373436F6E74726F6C3A206163636F756E7420000000000000000000 DUP2 MSTORE PUSH1 0x0 DUP4 MLOAD PUSH2 0x1C73 DUP2 PUSH1 0x17 DUP6 ADD PUSH1 0x20 DUP9 ADD PUSH2 0x1EB0 JUMP JUMPDEST PUSH17 0x1034B99036B4B9B9B4B733903937B6329 PUSH1 0x7D SHL PUSH1 0x17 SWAP2 DUP5 ADD SWAP2 DUP3 ADD MSTORE DUP4 MLOAD PUSH2 0x1CA4 DUP2 PUSH1 0x28 DUP5 ADD PUSH1 0x20 DUP9 ADD PUSH2 0x1EB0 JUMP JUMPDEST ADD PUSH1 0x28 ADD SWAP5 SWAP4 POP POP POP POP JUMP JUMPDEST DUP5 DUP2 MSTORE PUSH1 0x1 PUSH1 0x1 PUSH1 0xA0 SHL SUB DUP5 AND PUSH1 0x20 DUP3 ADD MSTORE PUSH1 0x80 PUSH1 0x40 DUP3 ADD DUP2 SWAP1 MSTORE PUSH1 0x0 SWAP1 PUSH2 0x1CDA SWAP1 DUP4 ADD DUP6 PUSH2 0x1BC7 JUMP JUMPDEST DUP3 DUP2 SUB PUSH1 0x60 DUP5 ADD MSTORE PUSH2 0x1CEC DUP2 DUP6 PUSH2 0x1BC7 JUMP JUMPDEST SWAP8 SWAP7 POP POP POP POP POP POP POP JUMP JUMPDEST PUSH1 0x0 PUSH2 0x120 DUP12 DUP4 MSTORE DUP1 PUSH1 0x20 DUP5 ADD MSTORE PUSH2 0x1D11 DUP2 DUP5 ADD DUP13 PUSH2 0x1BC7 JUMP JUMPDEST PUSH1 0x1 PUSH1 0x1 PUSH1 0xA0 SHL SUB SWAP11 DUP12 AND PUSH1 0x40 DUP6 ADD MSTORE SWAP9 DUP11 AND PUSH1 0x60 DUP5 ADD MSTORE POP POP SWAP5 SWAP1 SWAP7 AND PUSH1 0x80 DUP6 ADD MSTORE PUSH1 0xA0 DUP5 ADD SWAP3 SWAP1 SWAP3 MSTORE PUSH1 0xC0 DUP4 ADD MSTORE PUSH1 0xE0 DUP3 ADD MSTORE PUSH2 0x100 ADD SWAP2 SWAP1 SWAP2 MSTORE SWAP3 SWAP2 POP POP JUMP JUMPDEST DUP5 DUP2 MSTORE DUP4 PUSH1 0x20 DUP3 ADD MSTORE PUSH1 0x80 PUSH1 0x40 DUP3 ADD MSTORE PUSH1 0x0 PUSH2 0x1D73 PUSH1 0x80 DUP4 ADD DUP6 PUSH2 0x1B84 JUMP JUMPDEST DUP3 DUP2 SUB PUSH1 0x60 DUP5 ADD MSTORE PUSH2 0x1CEC DUP2 DUP6 PUSH2 0x1B84 JUMP JUMPDEST PUSH1 0x20 DUP2 MSTORE PUSH1 0x0 PUSH2 0x410 PUSH1 0x20 DUP4 ADD DUP5 PUSH2 0x1BC7 JUMP JUMPDEST PUSH1 0x40 DUP2 MSTORE PUSH1 0x0 PUSH2 0x1DAB PUSH1 0x40 DUP4 ADD DUP6 PUSH2 0x1BC7 JUMP JUMPDEST DUP3 DUP2 SUB PUSH1 0x20 DUP5 ADD MSTORE PUSH2 0x1DBD DUP2 DUP6 PUSH2 0x1BC7 JUMP JUMPDEST SWAP6 SWAP5 POP POP POP POP POP JUMP JUMPDEST PUSH1 0x20 DUP1 DUP3 MSTORE PUSH1 0xF SWAP1 DUP3 ADD MSTORE PUSH15 0x535452415445474953545F524F4C45 PUSH1 0x88 SHL PUSH1 0x40 DUP3 ADD MSTORE PUSH1 0x60 ADD SWAP1 JUMP JUMPDEST DUP4 DUP2 MSTORE PUSH1 0x60 PUSH1 0x20 DUP3 ADD MSTORE PUSH1 0x0 PUSH2 0x1E08 PUSH1 0x60 DUP4 ADD DUP6 PUSH2 0x1BC7 JUMP JUMPDEST DUP3 DUP2 SUB PUSH1 0x40 DUP5 ADD MSTORE PUSH2 0x1E1A DUP2 DUP6 PUSH2 0x1BC7 JUMP JUMPDEST SWAP7 SWAP6 POP POP POP POP POP POP JUMP JUMPDEST PUSH1 0x40 MLOAD PUSH1 0x1F DUP3 ADD PUSH1 0x1F NOT AND DUP2 ADD PUSH8 0xFFFFFFFFFFFFFFFF DUP2 GT DUP3 DUP3 LT OR ISZERO PUSH2 0x1E4D JUMPI PUSH2 0x1E4D PUSH2 0x1F63 JUMP JUMPDEST PUSH1 0x40 MSTORE SWAP2 SWAP1 POP JUMP JUMPDEST PUSH1 0x0 PUSH8 0xFFFFFFFFFFFFFFFF DUP3 GT ISZERO PUSH2 0x1E6F JUMPI PUSH2 0x1E6F PUSH2 0x1F63 JUMP JUMPDEST POP PUSH1 0x5 SHL PUSH1 0x20 ADD SWAP1 JUMP JUMPDEST PUSH1 0x0 DUP3 NOT DUP3 GT ISZERO PUSH2 0x1E8C JUMPI PUSH2 0x1E8C PUSH2 0x1F4D JUMP JUMPDEST POP ADD SWAP1 JUMP JUMPDEST PUSH1 0x0 DUP2 PUSH1 0x0 NOT DIV DUP4 GT DUP3 ISZERO ISZERO AND ISZERO PUSH2 0x1EAB JUMPI PUSH2 0x1EAB PUSH2 0x1F4D JUMP JUMPDEST POP MUL SWAP1 JUMP JUMPDEST PUSH1 0x0 JUMPDEST DUP4 DUP2 LT ISZERO PUSH2 0x1ECB JUMPI DUP2 DUP2 ADD MLOAD DUP4 DUP3 ADD MSTORE PUSH1 0x20 ADD PUSH2 0x1EB3 JUMP JUMPDEST DUP4 DUP2 GT ISZERO PUSH2 0x1EDA JUMPI PUSH1 0x0 DUP5 DUP5 ADD MSTORE JUMPDEST POP POP POP POP JUMP JUMPDEST PUSH1 0x0 DUP2 PUSH2 0x1EEF JUMPI PUSH2 0x1EEF PUSH2 0x1F4D JUMP JUMPDEST POP PUSH1 0x0 NOT ADD SWAP1 JUMP JUMPDEST PUSH1 0x1 DUP2 DUP2 SHR SWAP1 DUP3 AND DUP1 PUSH2 0x1F0B JUMPI PUSH1 0x7F DUP3 AND SWAP2 POP JUMPDEST PUSH1 0x20 DUP3 LT DUP2 EQ ISZERO PUSH2 0x1F2C JUMPI PUSH4 0x4E487B71 PUSH1 0xE0 SHL PUSH1 0x0 MSTORE PUSH1 0x22 PUSH1 0x4 MSTORE PUSH1 0x24 PUSH1 0x0 REVERT JUMPDEST POP SWAP2 SWAP1 POP JUMP JUMPDEST PUSH1 0x0 PUSH1 0x0 NOT DUP3 EQ ISZERO PUSH2 0x1F46 JUMPI PUSH2 0x1F46 PUSH2 0x1F4D JUMP JUMPDEST POP PUSH1 0x1 ADD SWAP1 JUMP JUMPDEST PUSH4 0x4E487B71 PUSH1 0xE0 SHL PUSH1 0x0 MSTORE PUSH1 0x11 PUSH1 0x4 MSTORE PUSH1 0x24 PUSH1 0x0 REVERT JUMPDEST PUSH4 0x4E487B71 PUSH1 0xE0 SHL PUSH1 0x0 MSTORE PUSH1 0x41 PUSH1 0x4 MSTORE PUSH1 0x24 PUSH1 0x0 REVERT JUMPDEST PUSH1 0x1 PUSH1 0x1 PUSH1 0xA0 SHL SUB DUP2 AND DUP2 EQ PUSH2 0x50C JUMPI PUSH1 0x0 DUP1 REVERT INVALID 0xDF SWAP16 0xE6 0xC7 DUP3 MOD CALLVALUE 0xFC SWAP7 BLOCKHASH GASPRICE 0xB9 SWAP16 POP MUL 0xD0 DUP13 LOG0 0x28 MSTORE ORIGIN CREATE DUP3 SELFDESTRUCT 0xD1 0xEC 0xD8 PUSH1 0x82 SGT SHL SWAP3 0xDF SWAP16 0xE6 0xC7 DUP3 MOD CALLVALUE 0xFC SWAP7 BLOCKHASH GASPRICE 0xB9 SWAP16 POP MUL 0xD0 DUP13 LOG0 0x28 MSTORE ORIGIN CREATE DUP3 SELFDESTRUCT 0xD1 0xEC 0xD8 PUSH1 0x82 SGT SHL DUP14 0xDF SWAP16 0xE6 0xC7 DUP3 MOD CALLVALUE 0xFC SWAP7 BLOCKHASH GASPRICE 0xB9 SWAP16 POP MUL 0xD0 DUP13 LOG0 0x28 MSTORE ORIGIN CREATE DUP3 SELFDESTRUCT 0xD1 0xEC 0xD8 PUSH1 0x82 SGT SHL SWAP5 LOG2 PUSH5 0x6970667358 0x22 SLT KECCAK256 0xB2 LOG0 SWAP12 0xB9 SWAP13 PUSH3 0x640FB 0xAF 0xD EXTCODEHASH PUSH2 0x3D6A 0x29 BLOCKHASH 0xDC PUSH3 0x4376C2 PUSH24 0x448844C4D325EFDE5064736F6C6343000804003300000000 ","sha1":"00887906f57cfe279c6b5928458057458e6965b8","source":"//SPDX-License-Identifier: BUSL-1.1\npragma solidity ^0.8.2;\n\nimport \"../../templates/HiveTimelock.sol\";\nimport \"../../libraries/core/LibHiveFactory.sol\";\nimport \"../../libraries/core/LibHiveGovernanceTokenMachine.sol\";\nimport \"../../libraries/core/LibRunnerRegistry.sol\";\nimport \"../../libraries/utils/LibAccessControl.sol\";\n\nimport \"../../interfaces/IHubLibraryEvents.sol\";\n\ncontract HiveFactory is IHubLibraryEvents {\n    function setHiveCreationCount(uint256 _count) external {\n        LibHiveFactory._setHiveCreationCount(_count);\n    }\n\n    function clearUnfinishedHive() external {\n        LibAccessControl._requireOnlyRole(LibAccessControl.STRATEGIST_ROLE);\n\n        LibHiveFactory._requireCorrectOrder(0);\n\n        LibHiveFactory.StorageHiveFactory storage s1 = LibHiveFactory\n            ._storageHiveFactory();\n\n        delete s1.hiveKeyToHiveGovernanceToken[s1.currentHiveKey];\n        delete s1.hiveKeyToHiveTimelock[s1.currentHiveKey];\n        delete s1.hiveKeyToHiveGovernor[s1.currentHiveKey];\n\n        LibHiveFactory._resetHiveOrder();\n    }\n\n    event HiveCreationInitialized(\n        address indexed sender,\n        uint256 orderCount,\n        bytes32 salt,\n        bytes32 hiveKey\n    );\n\n    function initializeHiveGeneration(\n        string memory _name,\n        string memory _symbol\n    ) external {\n        LibAccessControl._requireOnlyRole(LibAccessControl.STRATEGIST_ROLE);\n\n        LibHiveFactory.StorageHiveFactory storage s1 = LibHiveFactory\n            ._storageHiveFactory();\n\n        LibHiveFactory._requireCorrectOrder(0);\n\n        s1.currentSalt = LibHiveFactory._getSalt(_name, _symbol);\n        s1.currentHiveKey = LibHiveFactory._getHiveKey(_name, _symbol);\n\n        LibHiveFactory._incrementOrder();\n\n        emit HiveCreationInitialized(\n            msg.sender,\n            s1.hiveCurrentOrder,\n            s1.currentSalt,\n            s1.currentHiveKey\n        );\n    }\n\n    event HiveComponentDeployed(\n        address indexed sender,\n        uint256 orderCount,\n        address component\n    );\n\n    function deployHiveGovernanceToken(\n        IERC20 _wrappedToken,\n        string memory _name,\n        string memory _symbol\n    ) external {\n        LibAccessControl._requireOnlyRole(LibAccessControl.STRATEGIST_ROLE);\n\n        LibHiveFactory._requireCorrectOrder(1);\n\n        LibHiveFactory.StorageHiveFactory storage s1 = LibHiveFactory\n            ._storageHiveFactory();\n\n        require(\n            s1.hiveKeyToHiveGovernanceToken[s1.currentHiveKey] == address(0),\n            \"HiveFactory: HiveGovernanceToken exists!\"\n        );\n\n        HiveGovernanceToken hiveGovernanceToken = LibHiveGovernanceTokenMachine\n            ._copyHiveGovernanceToken(\n                s1.currentSalt,\n                _wrappedToken,\n                _name,\n                _symbol\n            );\n\n        s1.hiveKeyToHiveGovernanceToken[s1.currentHiveKey] = address(\n            hiveGovernanceToken\n        );\n\n        LibHiveFactory._incrementOrder();\n\n        emit HiveComponentDeployed(\n            msg.sender,\n            s1.hiveCurrentOrder,\n            address(hiveGovernanceToken)\n        );\n    }\n\n    function deployHiveTimelock(\n        uint256 _minDelay,\n        address[] memory _proposers,\n        address[] memory _executors\n    ) external {\n        LibAccessControl._requireOnlyRole(LibAccessControl.STRATEGIST_ROLE);\n\n        LibHiveFactory._requireCorrectOrder(2);\n\n        LibHiveFactory.StorageHiveFactory storage s1 = LibHiveFactory\n            ._storageHiveFactory();\n\n        require(\n            s1.hiveKeyToHiveTimelock[s1.currentHiveKey] == address(0),\n            \"HiveFactory: HiveTimelock exists!\"\n        );\n\n        HiveTimelock hiveTimelock = LibHiveTimelockMachine._copyHiveTimelock(\n            s1.currentSalt,\n            _minDelay,\n            _proposers,\n            _executors\n        );\n\n        s1.hiveKeyToHiveTimelock[s1.currentHiveKey] = address(hiveTimelock);\n\n        LibHiveFactory._incrementOrder();\n\n        emit HiveComponentDeployed(\n            msg.sender,\n            s1.hiveCurrentOrder,\n            address(hiveTimelock)\n        );\n    }\n\n    function deployHiveGovernor(\n        string memory _name,\n        ERC20Votes _hiveGovernanceToken,\n        TimelockController _hiveTimelock,\n        address _underlyingContract,\n        uint256 _votingDelay,\n        uint256 _votingPeriod,\n        uint256 _proposalThreshold,\n        uint256 _quorumPercentage\n    ) external {\n        LibAccessControl._requireOnlyRole(LibAccessControl.STRATEGIST_ROLE);\n\n        LibHiveFactory._requireCorrectOrder(3);\n\n        LibHiveFactory.StorageHiveFactory storage s1 = LibHiveFactory\n            ._storageHiveFactory();\n\n        require(\n            s1.hiveKeyToHiveGovernor[s1.currentHiveKey] == address(0),\n            \"HiveFactory: HiveGovernor exists!\"\n        );\n\n        HiveGovernor hiveGovernor = LibHiveGovernorMachine._copyHiveGovernor(\n            s1.currentSalt,\n            string(abi.encodePacked(_name, \"Governor\")),\n            _hiveGovernanceToken,\n            _hiveTimelock,\n            _underlyingContract,\n            _votingDelay,\n            _votingPeriod,\n            _proposalThreshold,\n            _quorumPercentage\n        );\n\n        s1.hiveKeyToHiveGovernor[s1.currentHiveKey] = address(hiveGovernor);\n\n        LibHiveFactory._incrementOrder();\n\n        emit HiveComponentDeployed(\n            msg.sender,\n            s1.hiveCurrentOrder,\n            address(hiveGovernor)\n        );\n    }\n\n    event HiveActivated(\n        address indexed sender,\n        uint256 hiveCount,\n        bytes32 hiveKey\n    );\n\n    /** NOTE\n     * requires some initial runners for voting otherwise nothing can be approved,\n     * see templates/HiveGovernor.sol, can just put the administrative addresses\n     * and these addresses should have sufficient voting power to make proposals\n     */\n    function activateHive(\n        address[] memory _administrators,\n        string[] memory _uris\n    ) external {\n        LibAccessControl._requireOnlyRole(LibAccessControl.STRATEGIST_ROLE);\n\n        LibHiveFactory._requireCorrectOrder(4);\n\n        uint256 applicantCount = _administrators.length;\n        require(\n            applicantCount == _uris.length,\n            \"HiveFactory: runners array does not match URIs array\"\n        );\n\n        LibHiveFactory.StorageHiveFactory storage s1 = LibHiveFactory\n            ._storageHiveFactory();\n\n        require(\n            s1.hiveCurrentOrder == s1.hiveCreationCount,\n            \"HiveFactory: correct hive creation count not reached\"\n        );\n\n        s1.count += 1;\n\n        // setup\n\n        address hiveTimelockAddress = s1.hiveKeyToHiveTimelock[\n            s1.currentHiveKey\n        ];\n\n        HiveTimelock hiveTimelockContract = HiveTimelock(\n            payable(hiveTimelockAddress)\n        );\n        hiveTimelockContract.grantRole(\n            hiveTimelockContract.PROPOSER_ROLE(),\n            s1.hiveKeyToHiveGovernor[s1.currentHiveKey]\n        );\n        hiveTimelockContract.grantRole(\n            hiveTimelockContract.EXECUTOR_ROLE(),\n            address(0)\n        );\n        hiveTimelockContract.renounceRole(\n            hiveTimelockContract.TIMELOCK_ADMIN_ROLE(),\n            address(this)\n        ); // note: address(this) == hub address\n\n        for (uint256 i = 0; i < applicantCount; i++) {\n            LibRunnerRegistry._approveApplicant(\n                _administrators[i],\n                _uris[i],\n                hiveTimelockAddress\n            );\n        }\n\n        LibAccessControl._setupRole(\n            LibAccessControl.HIVE_ROLE,\n            hiveTimelockAddress\n        );\n\n        LibHiveFactory._resetHiveOrder();\n\n        emit HiveActivated(msg.sender, s1.count, s1.currentHiveKey);\n    }\n\n    function getSalt(string memory _name, string memory _symbol)\n        external\n        view\n        returns (bytes32)\n    {\n        return LibHiveFactory._getSalt(_name, _symbol);\n    }\n\n    function getHiveKey(string memory _name, string memory _symbol)\n        external\n        pure\n        returns (bytes32)\n    {\n        return LibHiveFactory._getHiveKey(_name, _symbol);\n    }\n\n    function getCount() external view returns (uint256) {\n        return LibHiveFactory._getCount();\n    }\n\n    function getHiveGovernanceToken(bytes32 _key)\n        external\n        view\n        returns (address)\n    {\n        return\n            LibHiveFactory._storageHiveFactory().hiveKeyToHiveGovernanceToken[\n                _key\n            ];\n    }\n\n    function getHiveTimelock(bytes32 _key) external view returns (address) {\n        return LibHiveFactory._storageHiveFactory().hiveKeyToHiveTimelock[_key];\n    }\n\n    function getHiveGovernor(bytes32 _key) external view returns (address) {\n        return LibHiveFactory._storageHiveFactory().hiveKeyToHiveGovernor[_key];\n    }\n}\n","sourcePath":"contracts/hub/facets/core/HiveFactory.sol","type":"contract","deployment":{"address":"0x9A71a0471e75738fC809B28F5133851f00049c02","chainid":"80001","blockHeight":26007113}}