{"abi":[{"inputs":[{"internalType":"bytes4","name":"_functionSelector","type":"bytes4"}],"name":"facetAddress","outputs":[{"internalType":"address","name":"facetAddress_","type":"address"}],"stateMutability":"view","type":"function"},{"inputs":[],"name":"facetAddresses","outputs":[{"internalType":"address[]","name":"facetAddresses_","type":"address[]"}],"stateMutability":"view","type":"function"},{"inputs":[{"internalType":"address","name":"_facet","type":"address"}],"name":"facetFunctionSelectors","outputs":[{"internalType":"bytes4[]","name":"_facetFunctionSelectors","type":"bytes4[]"}],"stateMutability":"view","type":"function"},{"inputs":[],"name":"facets","outputs":[{"components":[{"internalType":"address","name":"facetAddress","type":"address"},{"internalType":"bytes4[]","name":"functionSelectors","type":"bytes4[]"}],"internalType":"struct Loupe.Facet[]","name":"facets_","type":"tuple[]"}],"stateMutability":"view","type":"function"}],"bytecode":"608060405234801561001057600080fd5b50610bce806100206000396000f3fe608060405234801561001057600080fd5b506004361061004c5760003560e01c806352ef6b2c146100515780637a0ed6271461006f578063adfca15e14610084578063cdffacc6146100a4575b600080fd5b6100596100f6565b6040516100669190610a4b565b60405180910390f35b6100776102ec565b6040516100669190610aab565b6100976100923660046109b1565b61081d565b6040516100669190610a98565b6100de6100b23660046109df565b6001600160e01b0319166000908152600080516020610b79833981519152602052604090205460601c90565b6040516001600160a01b039091168152602001610066565b7fb820ffc7ec9f63e8a9266c0b47ef30deb8b659ea55eeb78fa5ac2a6762a6bce654606090600080516020610b798339815191529061ffff1667ffffffffffffffff81111561015557634e487b7160e01b600052604160045260246000fd5b60405190808252806020026020018201604052801561017e578160200160208202803683370190505b50915060008060005b600284015461ffff168210156102e4576000818152600185016020526040812054905b60088110156102cf57836101bd81610b27565b600288015490955061ffff1685111590506101d7576102cf565b600581901b82901b6001600160e01b0319811660009081526020889052604081205460601c90805b88811015610263578a818151811061022757634e487b7160e01b600052603260045260246000fd5b60200260200101516001600160a01b0316836001600160a01b031614156102515760019150610263565b8061025b81610b27565b9150506101ff565b50801561027357506102bd915050565b818a898151811061029457634e487b7160e01b600052603260045260246000fd5b6001600160a01b0390921660209283029190910190910152876102b681610b27565b9850505050505b806102c781610b27565b9150506101aa565b505080806102dc90610b27565b915050610187565b505082525090565b7fb820ffc7ec9f63e8a9266c0b47ef30deb8b659ea55eeb78fa5ac2a6762a6bce654606090600080516020610b798339815191529061ffff1667ffffffffffffffff81111561034b57634e487b7160e01b600052604160045260246000fd5b60405190808252806020026020018201604052801561039157816020015b6040805180820190915260008152606060208201528152602001906001900390816103695790505b50600282015490925060009061ffff1667ffffffffffffffff8111156103c757634e487b7160e01b600052604160045260246000fd5b6040519080825280602002602001820160405280156103f0578160200160208202803683370190505b50905060008060005b600285015461ffff1682101561078f576000818152600186016020526040812054905b600881101561077a578361042f81610b27565b600289015490955061ffff1685111590506104495761077a565b600581901b82901b6001600160e01b0319811660009081526020899052604081205460601c90805b888110156105e357826001600160a01b03168c82815181106104a357634e487b7160e01b600052603260045260246000fd5b6020026020010151600001516001600160a01b031614156105d157838c82815181106104df57634e487b7160e01b600052603260045260246000fd5b6020026020010151602001518b838151811061050b57634e487b7160e01b600052603260045260246000fd5b602002602001015160ff168151811061053457634e487b7160e01b600052603260045260246000fd5b60200260200101906001600160e01b03191690816001600160e01b0319168152505060ff8a828151811061057857634e487b7160e01b600052603260045260246000fd5b602002602001015160ff161061058d57600080fd5b8981815181106105ad57634e487b7160e01b600052603260045260246000fd5b6020026020010180518091906105c290610b42565b60ff16905250600191506105e3565b806105db81610b27565b915050610471565b5080156105f35750610768915050565b818b898151811061061457634e487b7160e01b600052603260045260246000fd5b60209081029190910101516001600160a01b03909116905260028a015461ffff1667ffffffffffffffff81111561065b57634e487b7160e01b600052604160045260246000fd5b604051908082528060200260200182016040528015610684578160200160208202803683370190505b508b89815181106106a557634e487b7160e01b600052603260045260246000fd5b602002602001015160200181905250828b89815181106106d557634e487b7160e01b600052603260045260246000fd5b60200260200101516020015160008151811061070157634e487b7160e01b600052603260045260246000fd5b60200260200101906001600160e01b03191690816001600160e01b03191681525050600189898151811061074557634e487b7160e01b600052603260045260246000fd5b60ff909216602092830291909101909101528761076181610b27565b9850505050505b8061077281610b27565b91505061041c565b5050808061078790610b27565b9150506103f9565b5060005b828110156108125760008482815181106107bd57634e487b7160e01b600052603260045260246000fd5b602002602001015160ff16905060008783815181106107ec57634e487b7160e01b600052603260045260246000fd5b60200260200101516020015190508181525050808061080a90610b27565b915050610793565b508185525050505090565b7fb820ffc7ec9f63e8a9266c0b47ef30deb8b659ea55eeb78fa5ac2a6762a6bce654606090600080516020610b798339815191529060009061ffff1667ffffffffffffffff81111561087f57634e487b7160e01b600052604160045260246000fd5b6040519080825280602002602001820160405280156108a8578160200160208202803683370190505b5092506000805b600284015461ffff168210156109a7576000818152600185016020526040812054905b600881101561099257836108e581610b27565b600288015490955061ffff1685111590506108ff57610992565b600581901b82901b6001600160e01b0319811660009081526020889052604090205460601c6001600160a01b038a1681141561097d578189888151811061095657634e487b7160e01b600052603260045260246000fd5b6001600160e01b0319909216602092830291909101909101528661097981610b27565b9750505b5050808061098a90610b27565b9150506108d2565b5050808061099f90610b27565b9150506108af565b5050825250919050565b6000602082840312156109c2578081fd5b81356001600160a01b03811681146109d8578182fd5b9392505050565b6000602082840312156109f0578081fd5b81356001600160e01b0319811681146109d8578182fd5b6000815180845260208085019450808401835b83811015610a405781516001600160e01b03191687529582019590820190600101610a1a565b509495945050505050565b6020808252825182820181905260009190848201906040850190845b81811015610a8c5783516001600160a01b031683529284019291840191600101610a67565b50909695505050505050565b6020815260006109d86020830184610a07565b60006020808301818452808551808352604092508286019150828160051b870101848801865b83811015610b1957888303603f19018552815180516001600160a01b03168452870151878401879052610b0687850182610a07565b9588019593505090860190600101610ad1565b509098975050505050505050565b6000600019821415610b3b57610b3b610b62565b5060010190565b600060ff821660ff811415610b5957610b59610b62565b60010192915050565b634e487b7160e01b600052601160045260246000fdfeb820ffc7ec9f63e8a9266c0b47ef30deb8b659ea55eeb78fa5ac2a6762a6bce4a2646970667358221220d2a1ed8119f318f19e5039137f49a05dd41d556f9cc80bd4c9e3147d680e16cd64736f6c63430008040033","bytecodeSha1":"fc1aa5121ebb50aa4bd2737c26466627883c8d7d","compiler":{"evm_version":"istanbul","optimizer":{"enabled":true,"runs":200},"version":"0.8.4+commit.c7e474f2"},"contractName":"Loupe","language":"Solidity","natspec":{"kind":"dev","methods":{"facetAddress(bytes4)":{"details":"If facet is not found return address(0).","notice":"Gets the facet that supports the given selector.","params":{"_functionSelector":"The function selector."},"returns":{"facetAddress_":"The facet address."}},"facetAddresses()":{"notice":"Get all the facet addresses used by a diamond.","returns":{"facetAddresses_":"facetAddresses_"}},"facetFunctionSelectors(address)":{"notice":"Gets all the function selectors supported by a specific facet.","params":{"_facet":"The facet address."},"returns":{"_facetFunctionSelectors":"The selectors associated with a facet address."}},"facets()":{"notice":"Gets all facets and their selectors.","returns":{"facets_":"Facet"}}},"version":1},"opcodes":"PUSH1 0x80 PUSH1 0x40 MSTORE CALLVALUE DUP1 ISZERO PUSH2 0x10 JUMPI PUSH1 0x0 DUP1 REVERT JUMPDEST POP PUSH1 0x4 CALLDATASIZE LT PUSH2 0x4C JUMPI PUSH1 0x0 CALLDATALOAD PUSH1 0xE0 SHR DUP1 PUSH4 0x52EF6B2C EQ PUSH2 0x51 JUMPI DUP1 PUSH4 0x7A0ED627 EQ PUSH2 0x6F JUMPI DUP1 PUSH4 0xADFCA15E EQ PUSH2 0x84 JUMPI DUP1 PUSH4 0xCDFFACC6 EQ PUSH2 0xA4 JUMPI JUMPDEST PUSH1 0x0 DUP1 REVERT JUMPDEST PUSH2 0x59 PUSH2 0xF6 JUMP JUMPDEST PUSH1 0x40 MLOAD PUSH2 0x66 SWAP2 SWAP1 PUSH2 0xA4B JUMP JUMPDEST PUSH1 0x40 MLOAD DUP1 SWAP2 SUB SWAP1 RETURN JUMPDEST PUSH2 0x77 PUSH2 0x2EC JUMP JUMPDEST PUSH1 0x40 MLOAD PUSH2 0x66 SWAP2 SWAP1 PUSH2 0xAAB JUMP JUMPDEST PUSH2 0x97 PUSH2 0x92 CALLDATASIZE PUSH1 0x4 PUSH2 0x9B1 JUMP JUMPDEST PUSH2 0x81D JUMP JUMPDEST PUSH1 0x40 MLOAD PUSH2 0x66 SWAP2 SWAP1 PUSH2 0xA98 JUMP JUMPDEST PUSH2 0xDE PUSH2 0xB2 CALLDATASIZE PUSH1 0x4 PUSH2 0x9DF JUMP JUMPDEST PUSH1 0x1 PUSH1 0x1 PUSH1 0xE0 SHL SUB NOT AND PUSH1 0x0 SWAP1 DUP2 MSTORE PUSH1 0x0 DUP1 MLOAD PUSH1 0x20 PUSH2 0xB79 DUP4 CODECOPY DUP2 MLOAD SWAP2 MSTORE PUSH1 0x20 MSTORE PUSH1 0x40 SWAP1 KECCAK256 SLOAD PUSH1 0x60 SHR SWAP1 JUMP JUMPDEST PUSH1 0x40 MLOAD PUSH1 0x1 PUSH1 0x1 PUSH1 0xA0 SHL SUB SWAP1 SWAP2 AND DUP2 MSTORE PUSH1 0x20 ADD PUSH2 0x66 JUMP JUMPDEST PUSH32 0xB820FFC7EC9F63E8A9266C0B47EF30DEB8B659EA55EEB78FA5AC2A6762A6BCE6 SLOAD PUSH1 0x60 SWAP1 PUSH1 0x0 DUP1 MLOAD PUSH1 0x20 PUSH2 0xB79 DUP4 CODECOPY DUP2 MLOAD SWAP2 MSTORE SWAP1 PUSH2 0xFFFF AND PUSH8 0xFFFFFFFFFFFFFFFF DUP2 GT ISZERO PUSH2 0x155 JUMPI PUSH4 0x4E487B71 PUSH1 0xE0 SHL PUSH1 0x0 MSTORE PUSH1 0x41 PUSH1 0x4 MSTORE PUSH1 0x24 PUSH1 0x0 REVERT JUMPDEST PUSH1 0x40 MLOAD SWAP1 DUP1 DUP3 MSTORE DUP1 PUSH1 0x20 MUL PUSH1 0x20 ADD DUP3 ADD PUSH1 0x40 MSTORE DUP1 ISZERO PUSH2 0x17E JUMPI DUP2 PUSH1 0x20 ADD PUSH1 0x20 DUP3 MUL DUP1 CALLDATASIZE DUP4 CALLDATACOPY ADD SWAP1 POP JUMPDEST POP SWAP2 POP PUSH1 0x0 DUP1 PUSH1 0x0 JUMPDEST PUSH1 0x2 DUP5 ADD SLOAD PUSH2 0xFFFF AND DUP3 LT ISZERO PUSH2 0x2E4 JUMPI PUSH1 0x0 DUP2 DUP2 MSTORE PUSH1 0x1 DUP6 ADD PUSH1 0x20 MSTORE PUSH1 0x40 DUP2 KECCAK256 SLOAD SWAP1 JUMPDEST PUSH1 0x8 DUP2 LT ISZERO PUSH2 0x2CF JUMPI DUP4 PUSH2 0x1BD DUP2 PUSH2 0xB27 JUMP JUMPDEST PUSH1 0x2 DUP9 ADD SLOAD SWAP1 SWAP6 POP PUSH2 0xFFFF AND DUP6 GT ISZERO SWAP1 POP PUSH2 0x1D7 JUMPI PUSH2 0x2CF JUMP JUMPDEST PUSH1 0x5 DUP2 SWAP1 SHL DUP3 SWAP1 SHL PUSH1 0x1 PUSH1 0x1 PUSH1 0xE0 SHL SUB NOT DUP2 AND PUSH1 0x0 SWAP1 DUP2 MSTORE PUSH1 0x20 DUP9 SWAP1 MSTORE PUSH1 0x40 DUP2 KECCAK256 SLOAD PUSH1 0x60 SHR SWAP1 DUP1 JUMPDEST DUP9 DUP2 LT ISZERO PUSH2 0x263 JUMPI DUP11 DUP2 DUP2 MLOAD DUP2 LT PUSH2 0x227 JUMPI PUSH4 0x4E487B71 PUSH1 0xE0 SHL PUSH1 0x0 MSTORE PUSH1 0x32 PUSH1 0x4 MSTORE PUSH1 0x24 PUSH1 0x0 REVERT JUMPDEST PUSH1 0x20 MUL PUSH1 0x20 ADD ADD MLOAD PUSH1 0x1 PUSH1 0x1 PUSH1 0xA0 SHL SUB AND DUP4 PUSH1 0x1 PUSH1 0x1 PUSH1 0xA0 SHL SUB AND EQ ISZERO PUSH2 0x251 JUMPI PUSH1 0x1 SWAP2 POP PUSH2 0x263 JUMP JUMPDEST DUP1 PUSH2 0x25B DUP2 PUSH2 0xB27 JUMP JUMPDEST SWAP2 POP POP PUSH2 0x1FF JUMP JUMPDEST POP DUP1 ISZERO PUSH2 0x273 JUMPI POP PUSH2 0x2BD SWAP2 POP POP JUMP JUMPDEST DUP2 DUP11 DUP10 DUP2 MLOAD DUP2 LT PUSH2 0x294 JUMPI PUSH4 0x4E487B71 PUSH1 0xE0 SHL PUSH1 0x0 MSTORE PUSH1 0x32 PUSH1 0x4 MSTORE PUSH1 0x24 PUSH1 0x0 REVERT JUMPDEST PUSH1 0x1 PUSH1 0x1 PUSH1 0xA0 SHL SUB SWAP1 SWAP3 AND PUSH1 0x20 SWAP3 DUP4 MUL SWAP2 SWAP1 SWAP2 ADD SWAP1 SWAP2 ADD MSTORE DUP8 PUSH2 0x2B6 DUP2 PUSH2 0xB27 JUMP JUMPDEST SWAP9 POP POP POP POP POP JUMPDEST DUP1 PUSH2 0x2C7 DUP2 PUSH2 0xB27 JUMP JUMPDEST SWAP2 POP POP PUSH2 0x1AA JUMP JUMPDEST POP POP DUP1 DUP1 PUSH2 0x2DC SWAP1 PUSH2 0xB27 JUMP JUMPDEST SWAP2 POP POP PUSH2 0x187 JUMP JUMPDEST POP POP DUP3 MSTORE POP SWAP1 JUMP JUMPDEST PUSH32 0xB820FFC7EC9F63E8A9266C0B47EF30DEB8B659EA55EEB78FA5AC2A6762A6BCE6 SLOAD PUSH1 0x60 SWAP1 PUSH1 0x0 DUP1 MLOAD PUSH1 0x20 PUSH2 0xB79 DUP4 CODECOPY DUP2 MLOAD SWAP2 MSTORE SWAP1 PUSH2 0xFFFF AND PUSH8 0xFFFFFFFFFFFFFFFF DUP2 GT ISZERO PUSH2 0x34B JUMPI PUSH4 0x4E487B71 PUSH1 0xE0 SHL PUSH1 0x0 MSTORE PUSH1 0x41 PUSH1 0x4 MSTORE PUSH1 0x24 PUSH1 0x0 REVERT JUMPDEST PUSH1 0x40 MLOAD SWAP1 DUP1 DUP3 MSTORE DUP1 PUSH1 0x20 MUL PUSH1 0x20 ADD DUP3 ADD PUSH1 0x40 MSTORE DUP1 ISZERO PUSH2 0x391 JUMPI DUP2 PUSH1 0x20 ADD JUMPDEST PUSH1 0x40 DUP1 MLOAD DUP1 DUP3 ADD SWAP1 SWAP2 MSTORE PUSH1 0x0 DUP2 MSTORE PUSH1 0x60 PUSH1 0x20 DUP3 ADD MSTORE DUP2 MSTORE PUSH1 0x20 ADD SWAP1 PUSH1 0x1 SWAP1 SUB SWAP1 DUP2 PUSH2 0x369 JUMPI SWAP1 POP JUMPDEST POP PUSH1 0x2 DUP3 ADD SLOAD SWAP1 SWAP3 POP PUSH1 0x0 SWAP1 PUSH2 0xFFFF AND PUSH8 0xFFFFFFFFFFFFFFFF DUP2 GT ISZERO PUSH2 0x3C7 JUMPI PUSH4 0x4E487B71 PUSH1 0xE0 SHL PUSH1 0x0 MSTORE PUSH1 0x41 PUSH1 0x4 MSTORE PUSH1 0x24 PUSH1 0x0 REVERT JUMPDEST PUSH1 0x40 MLOAD SWAP1 DUP1 DUP3 MSTORE DUP1 PUSH1 0x20 MUL PUSH1 0x20 ADD DUP3 ADD PUSH1 0x40 MSTORE DUP1 ISZERO PUSH2 0x3F0 JUMPI DUP2 PUSH1 0x20 ADD PUSH1 0x20 DUP3 MUL DUP1 CALLDATASIZE DUP4 CALLDATACOPY ADD SWAP1 POP JUMPDEST POP SWAP1 POP PUSH1 0x0 DUP1 PUSH1 0x0 JUMPDEST PUSH1 0x2 DUP6 ADD SLOAD PUSH2 0xFFFF AND DUP3 LT ISZERO PUSH2 0x78F JUMPI PUSH1 0x0 DUP2 DUP2 MSTORE PUSH1 0x1 DUP7 ADD PUSH1 0x20 MSTORE PUSH1 0x40 DUP2 KECCAK256 SLOAD SWAP1 JUMPDEST PUSH1 0x8 DUP2 LT ISZERO PUSH2 0x77A JUMPI DUP4 PUSH2 0x42F DUP2 PUSH2 0xB27 JUMP JUMPDEST PUSH1 0x2 DUP10 ADD SLOAD SWAP1 SWAP6 POP PUSH2 0xFFFF AND DUP6 GT ISZERO SWAP1 POP PUSH2 0x449 JUMPI PUSH2 0x77A JUMP JUMPDEST PUSH1 0x5 DUP2 SWAP1 SHL DUP3 SWAP1 SHL PUSH1 0x1 PUSH1 0x1 PUSH1 0xE0 SHL SUB NOT DUP2 AND PUSH1 0x0 SWAP1 DUP2 MSTORE PUSH1 0x20 DUP10 SWAP1 MSTORE PUSH1 0x40 DUP2 KECCAK256 SLOAD PUSH1 0x60 SHR SWAP1 DUP1 JUMPDEST DUP9 DUP2 LT ISZERO PUSH2 0x5E3 JUMPI DUP3 PUSH1 0x1 PUSH1 0x1 PUSH1 0xA0 SHL SUB AND DUP13 DUP3 DUP2 MLOAD DUP2 LT PUSH2 0x4A3 JUMPI PUSH4 0x4E487B71 PUSH1 0xE0 SHL PUSH1 0x0 MSTORE PUSH1 0x32 PUSH1 0x4 MSTORE PUSH1 0x24 PUSH1 0x0 REVERT JUMPDEST PUSH1 0x20 MUL PUSH1 0x20 ADD ADD MLOAD PUSH1 0x0 ADD MLOAD PUSH1 0x1 PUSH1 0x1 PUSH1 0xA0 SHL SUB AND EQ ISZERO PUSH2 0x5D1 JUMPI DUP4 DUP13 DUP3 DUP2 MLOAD DUP2 LT PUSH2 0x4DF JUMPI PUSH4 0x4E487B71 PUSH1 0xE0 SHL PUSH1 0x0 MSTORE PUSH1 0x32 PUSH1 0x4 MSTORE PUSH1 0x24 PUSH1 0x0 REVERT JUMPDEST PUSH1 0x20 MUL PUSH1 0x20 ADD ADD MLOAD PUSH1 0x20 ADD MLOAD DUP12 DUP4 DUP2 MLOAD DUP2 LT PUSH2 0x50B JUMPI PUSH4 0x4E487B71 PUSH1 0xE0 SHL PUSH1 0x0 MSTORE PUSH1 0x32 PUSH1 0x4 MSTORE PUSH1 0x24 PUSH1 0x0 REVERT JUMPDEST PUSH1 0x20 MUL PUSH1 0x20 ADD ADD MLOAD PUSH1 0xFF AND DUP2 MLOAD DUP2 LT PUSH2 0x534 JUMPI PUSH4 0x4E487B71 PUSH1 0xE0 SHL PUSH1 0x0 MSTORE PUSH1 0x32 PUSH1 0x4 MSTORE PUSH1 0x24 PUSH1 0x0 REVERT JUMPDEST PUSH1 0x20 MUL PUSH1 0x20 ADD ADD SWAP1 PUSH1 0x1 PUSH1 0x1 PUSH1 0xE0 SHL SUB NOT AND SWAP1 DUP2 PUSH1 0x1 PUSH1 0x1 PUSH1 0xE0 SHL SUB NOT AND DUP2 MSTORE POP POP PUSH1 0xFF DUP11 DUP3 DUP2 MLOAD DUP2 LT PUSH2 0x578 JUMPI PUSH4 0x4E487B71 PUSH1 0xE0 SHL PUSH1 0x0 MSTORE PUSH1 0x32 PUSH1 0x4 MSTORE PUSH1 0x24 PUSH1 0x0 REVERT JUMPDEST PUSH1 0x20 MUL PUSH1 0x20 ADD ADD MLOAD PUSH1 0xFF AND LT PUSH2 0x58D JUMPI PUSH1 0x0 DUP1 REVERT JUMPDEST DUP10 DUP2 DUP2 MLOAD DUP2 LT PUSH2 0x5AD JUMPI PUSH4 0x4E487B71 PUSH1 0xE0 SHL PUSH1 0x0 MSTORE PUSH1 0x32 PUSH1 0x4 MSTORE PUSH1 0x24 PUSH1 0x0 REVERT JUMPDEST PUSH1 0x20 MUL PUSH1 0x20 ADD ADD DUP1 MLOAD DUP1 SWAP2 SWAP1 PUSH2 0x5C2 SWAP1 PUSH2 0xB42 JUMP JUMPDEST PUSH1 0xFF AND SWAP1 MSTORE POP PUSH1 0x1 SWAP2 POP PUSH2 0x5E3 JUMP JUMPDEST DUP1 PUSH2 0x5DB DUP2 PUSH2 0xB27 JUMP JUMPDEST SWAP2 POP POP PUSH2 0x471 JUMP JUMPDEST POP DUP1 ISZERO PUSH2 0x5F3 JUMPI POP PUSH2 0x768 SWAP2 POP POP JUMP JUMPDEST DUP2 DUP12 DUP10 DUP2 MLOAD DUP2 LT PUSH2 0x614 JUMPI PUSH4 0x4E487B71 PUSH1 0xE0 SHL PUSH1 0x0 MSTORE PUSH1 0x32 PUSH1 0x4 MSTORE PUSH1 0x24 PUSH1 0x0 REVERT JUMPDEST PUSH1 0x20 SWAP1 DUP2 MUL SWAP2 SWAP1 SWAP2 ADD ADD MLOAD PUSH1 0x1 PUSH1 0x1 PUSH1 0xA0 SHL SUB SWAP1 SWAP2 AND SWAP1 MSTORE PUSH1 0x2 DUP11 ADD SLOAD PUSH2 0xFFFF AND PUSH8 0xFFFFFFFFFFFFFFFF DUP2 GT ISZERO PUSH2 0x65B JUMPI PUSH4 0x4E487B71 PUSH1 0xE0 SHL PUSH1 0x0 MSTORE PUSH1 0x41 PUSH1 0x4 MSTORE PUSH1 0x24 PUSH1 0x0 REVERT JUMPDEST PUSH1 0x40 MLOAD SWAP1 DUP1 DUP3 MSTORE DUP1 PUSH1 0x20 MUL PUSH1 0x20 ADD DUP3 ADD PUSH1 0x40 MSTORE DUP1 ISZERO PUSH2 0x684 JUMPI DUP2 PUSH1 0x20 ADD PUSH1 0x20 DUP3 MUL DUP1 CALLDATASIZE DUP4 CALLDATACOPY ADD SWAP1 POP JUMPDEST POP DUP12 DUP10 DUP2 MLOAD DUP2 LT PUSH2 0x6A5 JUMPI PUSH4 0x4E487B71 PUSH1 0xE0 SHL PUSH1 0x0 MSTORE PUSH1 0x32 PUSH1 0x4 MSTORE PUSH1 0x24 PUSH1 0x0 REVERT JUMPDEST PUSH1 0x20 MUL PUSH1 0x20 ADD ADD MLOAD PUSH1 0x20 ADD DUP2 SWAP1 MSTORE POP DUP3 DUP12 DUP10 DUP2 MLOAD DUP2 LT PUSH2 0x6D5 JUMPI PUSH4 0x4E487B71 PUSH1 0xE0 SHL PUSH1 0x0 MSTORE PUSH1 0x32 PUSH1 0x4 MSTORE PUSH1 0x24 PUSH1 0x0 REVERT JUMPDEST PUSH1 0x20 MUL PUSH1 0x20 ADD ADD MLOAD PUSH1 0x20 ADD MLOAD PUSH1 0x0 DUP2 MLOAD DUP2 LT PUSH2 0x701 JUMPI PUSH4 0x4E487B71 PUSH1 0xE0 SHL PUSH1 0x0 MSTORE PUSH1 0x32 PUSH1 0x4 MSTORE PUSH1 0x24 PUSH1 0x0 REVERT JUMPDEST PUSH1 0x20 MUL PUSH1 0x20 ADD ADD SWAP1 PUSH1 0x1 PUSH1 0x1 PUSH1 0xE0 SHL SUB NOT AND SWAP1 DUP2 PUSH1 0x1 PUSH1 0x1 PUSH1 0xE0 SHL SUB NOT AND DUP2 MSTORE POP POP PUSH1 0x1 DUP10 DUP10 DUP2 MLOAD DUP2 LT PUSH2 0x745 JUMPI PUSH4 0x4E487B71 PUSH1 0xE0 SHL PUSH1 0x0 MSTORE PUSH1 0x32 PUSH1 0x4 MSTORE PUSH1 0x24 PUSH1 0x0 REVERT JUMPDEST PUSH1 0xFF SWAP1 SWAP3 AND PUSH1 0x20 SWAP3 DUP4 MUL SWAP2 SWAP1 SWAP2 ADD SWAP1 SWAP2 ADD MSTORE DUP8 PUSH2 0x761 DUP2 PUSH2 0xB27 JUMP JUMPDEST SWAP9 POP POP POP POP POP JUMPDEST DUP1 PUSH2 0x772 DUP2 PUSH2 0xB27 JUMP JUMPDEST SWAP2 POP POP PUSH2 0x41C JUMP JUMPDEST POP POP DUP1 DUP1 PUSH2 0x787 SWAP1 PUSH2 0xB27 JUMP JUMPDEST SWAP2 POP POP PUSH2 0x3F9 JUMP JUMPDEST POP PUSH1 0x0 JUMPDEST DUP3 DUP2 LT ISZERO PUSH2 0x812 JUMPI PUSH1 0x0 DUP5 DUP3 DUP2 MLOAD DUP2 LT PUSH2 0x7BD JUMPI PUSH4 0x4E487B71 PUSH1 0xE0 SHL PUSH1 0x0 MSTORE PUSH1 0x32 PUSH1 0x4 MSTORE PUSH1 0x24 PUSH1 0x0 REVERT JUMPDEST PUSH1 0x20 MUL PUSH1 0x20 ADD ADD MLOAD PUSH1 0xFF AND SWAP1 POP PUSH1 0x0 DUP8 DUP4 DUP2 MLOAD DUP2 LT PUSH2 0x7EC JUMPI PUSH4 0x4E487B71 PUSH1 0xE0 SHL PUSH1 0x0 MSTORE PUSH1 0x32 PUSH1 0x4 MSTORE PUSH1 0x24 PUSH1 0x0 REVERT JUMPDEST PUSH1 0x20 MUL PUSH1 0x20 ADD ADD MLOAD PUSH1 0x20 ADD MLOAD SWAP1 POP DUP2 DUP2 MSTORE POP POP DUP1 DUP1 PUSH2 0x80A SWAP1 PUSH2 0xB27 JUMP JUMPDEST SWAP2 POP POP PUSH2 0x793 JUMP JUMPDEST POP DUP2 DUP6 MSTORE POP POP POP POP SWAP1 JUMP JUMPDEST PUSH32 0xB820FFC7EC9F63E8A9266C0B47EF30DEB8B659EA55EEB78FA5AC2A6762A6BCE6 SLOAD PUSH1 0x60 SWAP1 PUSH1 0x0 DUP1 MLOAD PUSH1 0x20 PUSH2 0xB79 DUP4 CODECOPY DUP2 MLOAD SWAP2 MSTORE SWAP1 PUSH1 0x0 SWAP1 PUSH2 0xFFFF AND PUSH8 0xFFFFFFFFFFFFFFFF DUP2 GT ISZERO PUSH2 0x87F JUMPI PUSH4 0x4E487B71 PUSH1 0xE0 SHL PUSH1 0x0 MSTORE PUSH1 0x41 PUSH1 0x4 MSTORE PUSH1 0x24 PUSH1 0x0 REVERT JUMPDEST PUSH1 0x40 MLOAD SWAP1 DUP1 DUP3 MSTORE DUP1 PUSH1 0x20 MUL PUSH1 0x20 ADD DUP3 ADD PUSH1 0x40 MSTORE DUP1 ISZERO PUSH2 0x8A8 JUMPI DUP2 PUSH1 0x20 ADD PUSH1 0x20 DUP3 MUL DUP1 CALLDATASIZE DUP4 CALLDATACOPY ADD SWAP1 POP JUMPDEST POP SWAP3 POP PUSH1 0x0 DUP1 JUMPDEST PUSH1 0x2 DUP5 ADD SLOAD PUSH2 0xFFFF AND DUP3 LT ISZERO PUSH2 0x9A7 JUMPI PUSH1 0x0 DUP2 DUP2 MSTORE PUSH1 0x1 DUP6 ADD PUSH1 0x20 MSTORE PUSH1 0x40 DUP2 KECCAK256 SLOAD SWAP1 JUMPDEST PUSH1 0x8 DUP2 LT ISZERO PUSH2 0x992 JUMPI DUP4 PUSH2 0x8E5 DUP2 PUSH2 0xB27 JUMP JUMPDEST PUSH1 0x2 DUP9 ADD SLOAD SWAP1 SWAP6 POP PUSH2 0xFFFF AND DUP6 GT ISZERO SWAP1 POP PUSH2 0x8FF JUMPI PUSH2 0x992 JUMP JUMPDEST PUSH1 0x5 DUP2 SWAP1 SHL DUP3 SWAP1 SHL PUSH1 0x1 PUSH1 0x1 PUSH1 0xE0 SHL SUB NOT DUP2 AND PUSH1 0x0 SWAP1 DUP2 MSTORE PUSH1 0x20 DUP9 SWAP1 MSTORE PUSH1 0x40 SWAP1 KECCAK256 SLOAD PUSH1 0x60 SHR PUSH1 0x1 PUSH1 0x1 PUSH1 0xA0 SHL SUB DUP11 AND DUP2 EQ ISZERO PUSH2 0x97D JUMPI DUP2 DUP10 DUP9 DUP2 MLOAD DUP2 LT PUSH2 0x956 JUMPI PUSH4 0x4E487B71 PUSH1 0xE0 SHL PUSH1 0x0 MSTORE PUSH1 0x32 PUSH1 0x4 MSTORE PUSH1 0x24 PUSH1 0x0 REVERT JUMPDEST PUSH1 0x1 PUSH1 0x1 PUSH1 0xE0 SHL SUB NOT SWAP1 SWAP3 AND PUSH1 0x20 SWAP3 DUP4 MUL SWAP2 SWAP1 SWAP2 ADD SWAP1 SWAP2 ADD MSTORE DUP7 PUSH2 0x979 DUP2 PUSH2 0xB27 JUMP JUMPDEST SWAP8 POP POP JUMPDEST POP POP DUP1 DUP1 PUSH2 0x98A SWAP1 PUSH2 0xB27 JUMP JUMPDEST SWAP2 POP POP PUSH2 0x8D2 JUMP JUMPDEST POP POP DUP1 DUP1 PUSH2 0x99F SWAP1 PUSH2 0xB27 JUMP JUMPDEST SWAP2 POP POP PUSH2 0x8AF JUMP JUMPDEST POP POP DUP3 MSTORE POP SWAP2 SWAP1 POP JUMP JUMPDEST PUSH1 0x0 PUSH1 0x20 DUP3 DUP5 SUB SLT ISZERO PUSH2 0x9C2 JUMPI DUP1 DUP2 REVERT JUMPDEST DUP2 CALLDATALOAD PUSH1 0x1 PUSH1 0x1 PUSH1 0xA0 SHL SUB DUP2 AND DUP2 EQ PUSH2 0x9D8 JUMPI DUP2 DUP3 REVERT JUMPDEST SWAP4 SWAP3 POP POP POP JUMP JUMPDEST PUSH1 0x0 PUSH1 0x20 DUP3 DUP5 SUB SLT ISZERO PUSH2 0x9F0 JUMPI DUP1 DUP2 REVERT JUMPDEST DUP2 CALLDATALOAD PUSH1 0x1 PUSH1 0x1 PUSH1 0xE0 SHL SUB NOT DUP2 AND DUP2 EQ PUSH2 0x9D8 JUMPI DUP2 DUP3 REVERT JUMPDEST PUSH1 0x0 DUP2 MLOAD DUP1 DUP5 MSTORE PUSH1 0x20 DUP1 DUP6 ADD SWAP5 POP DUP1 DUP5 ADD DUP4 JUMPDEST DUP4 DUP2 LT ISZERO PUSH2 0xA40 JUMPI DUP2 MLOAD PUSH1 0x1 PUSH1 0x1 PUSH1 0xE0 SHL SUB NOT AND DUP8 MSTORE SWAP6 DUP3 ADD SWAP6 SWAP1 DUP3 ADD SWAP1 PUSH1 0x1 ADD PUSH2 0xA1A JUMP JUMPDEST POP SWAP5 SWAP6 SWAP5 POP POP POP POP POP JUMP JUMPDEST PUSH1 0x20 DUP1 DUP3 MSTORE DUP3 MLOAD DUP3 DUP3 ADD DUP2 SWAP1 MSTORE PUSH1 0x0 SWAP2 SWAP1 DUP5 DUP3 ADD SWAP1 PUSH1 0x40 DUP6 ADD SWAP1 DUP5 JUMPDEST DUP2 DUP2 LT ISZERO PUSH2 0xA8C JUMPI DUP4 MLOAD PUSH1 0x1 PUSH1 0x1 PUSH1 0xA0 SHL SUB AND DUP4 MSTORE SWAP3 DUP5 ADD SWAP3 SWAP2 DUP5 ADD SWAP2 PUSH1 0x1 ADD PUSH2 0xA67 JUMP JUMPDEST POP SWAP1 SWAP7 SWAP6 POP POP POP POP POP POP JUMP JUMPDEST PUSH1 0x20 DUP2 MSTORE PUSH1 0x0 PUSH2 0x9D8 PUSH1 0x20 DUP4 ADD DUP5 PUSH2 0xA07 JUMP JUMPDEST PUSH1 0x0 PUSH1 0x20 DUP1 DUP4 ADD DUP2 DUP5 MSTORE DUP1 DUP6 MLOAD DUP1 DUP4 MSTORE PUSH1 0x40 SWAP3 POP DUP3 DUP7 ADD SWAP2 POP DUP3 DUP2 PUSH1 0x5 SHL DUP8 ADD ADD DUP5 DUP9 ADD DUP7 JUMPDEST DUP4 DUP2 LT ISZERO PUSH2 0xB19 JUMPI DUP9 DUP4 SUB PUSH1 0x3F NOT ADD DUP6 MSTORE DUP2 MLOAD DUP1 MLOAD PUSH1 0x1 PUSH1 0x1 PUSH1 0xA0 SHL SUB AND DUP5 MSTORE DUP8 ADD MLOAD DUP8 DUP5 ADD DUP8 SWAP1 MSTORE PUSH2 0xB06 DUP8 DUP6 ADD DUP3 PUSH2 0xA07 JUMP JUMPDEST SWAP6 DUP9 ADD SWAP6 SWAP4 POP POP SWAP1 DUP7 ADD SWAP1 PUSH1 0x1 ADD PUSH2 0xAD1 JUMP JUMPDEST POP SWAP1 SWAP9 SWAP8 POP POP POP POP POP POP POP POP JUMP JUMPDEST PUSH1 0x0 PUSH1 0x0 NOT DUP3 EQ ISZERO PUSH2 0xB3B JUMPI PUSH2 0xB3B PUSH2 0xB62 JUMP JUMPDEST POP PUSH1 0x1 ADD SWAP1 JUMP JUMPDEST PUSH1 0x0 PUSH1 0xFF DUP3 AND PUSH1 0xFF DUP2 EQ ISZERO PUSH2 0xB59 JUMPI PUSH2 0xB59 PUSH2 0xB62 JUMP JUMPDEST PUSH1 0x1 ADD SWAP3 SWAP2 POP POP JUMP JUMPDEST PUSH4 0x4E487B71 PUSH1 0xE0 SHL PUSH1 0x0 MSTORE PUSH1 0x11 PUSH1 0x4 MSTORE PUSH1 0x24 PUSH1 0x0 REVERT INVALID 0xB8 KECCAK256 SELFDESTRUCT 0xC7 0xEC SWAP16 PUSH4 0xE8A9266C SIGNEXTEND SELFBALANCE 0xEF ADDRESS 0xDE 0xB8 0xB6 MSIZE 0xEA SSTORE 0xEE 0xB7 DUP16 0xA5 0xAC 0x2A PUSH8 0x62A6BCE4A2646970 PUSH7 0x7358221220D2A1 0xED DUP2 NOT RETURN XOR CALL SWAP15 POP CODECOPY SGT PUSH32 0x49A05DD41D556F9CC80BD4C9E3147D680E16CD64736F6C634300080400330000 ","sha1":"376824b2ca451b0abe598f8fb79d92fe55be578e","source":"// SPDX-License-Identifier: MIT\npragma solidity ^0.8.2;\n\nimport \"../../libraries/utils/LibCutAndLoupe.sol\";\n\ncontract Loupe {\n    struct Facet {\n        address facetAddress;\n        bytes4[] functionSelectors;\n    }\n\n    // Diamond Loupe Functions\n    ////////////////////////////////////////////////////////////////////\n    /// These functions are expected to be called frequently by tools.\n    //\n    // struct Facet {\n    //     address facetAddress;\n    //     bytes4[] functionSelectors;\n    // }\n    /// @notice Gets all facets and their selectors.\n    /// @return facets_ Facet\n    function facets() external view returns (Facet[] memory facets_) {\n        LibCutAndLoupe.StorageCutAndLoupe storage s1 = LibCutAndLoupe\n            ._storageCutAndLoupe();\n        facets_ = new Facet[](s1.selectorCount);\n        uint8[] memory numFacetSelectors = new uint8[](s1.selectorCount);\n        uint256 numFacets;\n        uint256 selectorIndex;\n        // loop through function selectors\n        for (uint256 slotIndex; selectorIndex < s1.selectorCount; slotIndex++) {\n            bytes32 slot = s1.selectorSlots[slotIndex];\n            for (\n                uint256 selectorSlotIndex;\n                selectorSlotIndex < 8;\n                selectorSlotIndex++\n            ) {\n                selectorIndex++;\n                if (selectorIndex > s1.selectorCount) {\n                    break;\n                }\n                bytes4 selector = bytes4(slot << (selectorSlotIndex << 5));\n                address facetAddress_ = address(bytes20(s1.facets[selector]));\n                bool continueLoop = false;\n                for (uint256 facetIndex; facetIndex < numFacets; facetIndex++) {\n                    if (facets_[facetIndex].facetAddress == facetAddress_) {\n                        facets_[facetIndex].functionSelectors[\n                            numFacetSelectors[facetIndex]\n                        ] = selector;\n                        // probably will never have more than 256 functions from one facet contract\n                        require(numFacetSelectors[facetIndex] < 255);\n                        numFacetSelectors[facetIndex]++;\n                        continueLoop = true;\n                        break;\n                    }\n                }\n                if (continueLoop) {\n                    continueLoop = false;\n                    continue;\n                }\n                facets_[numFacets].facetAddress = facetAddress_;\n                facets_[numFacets].functionSelectors = new bytes4[](\n                    s1.selectorCount\n                );\n                facets_[numFacets].functionSelectors[0] = selector;\n                numFacetSelectors[numFacets] = 1;\n                numFacets++;\n            }\n        }\n        for (uint256 facetIndex; facetIndex < numFacets; facetIndex++) {\n            uint256 numSelectors = numFacetSelectors[facetIndex];\n            bytes4[] memory selectors = facets_[facetIndex].functionSelectors;\n            // setting the number of selectors\n            assembly {\n                mstore(selectors, numSelectors)\n            }\n        }\n        // setting the number of facets\n        assembly {\n            mstore(facets_, numFacets)\n        }\n    }\n\n    /// @notice Gets all the function selectors supported by a specific facet.\n    /// @param _facet The facet address.\n    /// @return _facetFunctionSelectors The selectors associated with a facet address.\n    function facetFunctionSelectors(address _facet)\n        external\n        view\n        returns (bytes4[] memory _facetFunctionSelectors)\n    {\n        LibCutAndLoupe.StorageCutAndLoupe storage s1 = LibCutAndLoupe\n            ._storageCutAndLoupe();\n        uint256 numSelectors;\n        _facetFunctionSelectors = new bytes4[](s1.selectorCount);\n        uint256 selectorIndex;\n        // loop through function selectors\n        for (uint256 slotIndex; selectorIndex < s1.selectorCount; slotIndex++) {\n            bytes32 slot = s1.selectorSlots[slotIndex];\n            for (\n                uint256 selectorSlotIndex;\n                selectorSlotIndex < 8;\n                selectorSlotIndex++\n            ) {\n                selectorIndex++;\n                if (selectorIndex > s1.selectorCount) {\n                    break;\n                }\n                bytes4 selector = bytes4(slot << (selectorSlotIndex << 5));\n                address facet = address(bytes20(s1.facets[selector]));\n                if (_facet == facet) {\n                    _facetFunctionSelectors[numSelectors] = selector;\n                    numSelectors++;\n                }\n            }\n        }\n        // Set the number of selectors in the array\n        assembly {\n            mstore(_facetFunctionSelectors, numSelectors)\n        }\n    }\n\n    /// @notice Get all the facet addresses used by a diamond.\n    /// @return facetAddresses_\n    function facetAddresses()\n        external\n        view\n        returns (address[] memory facetAddresses_)\n    {\n        LibCutAndLoupe.StorageCutAndLoupe storage s1 = LibCutAndLoupe\n            ._storageCutAndLoupe();\n        facetAddresses_ = new address[](s1.selectorCount);\n        uint256 numFacets;\n        uint256 selectorIndex;\n        // loop through function selectors\n        for (uint256 slotIndex; selectorIndex < s1.selectorCount; slotIndex++) {\n            bytes32 slot = s1.selectorSlots[slotIndex];\n            for (\n                uint256 selectorSlotIndex;\n                selectorSlotIndex < 8;\n                selectorSlotIndex++\n            ) {\n                selectorIndex++;\n                if (selectorIndex > s1.selectorCount) {\n                    break;\n                }\n                bytes4 selector = bytes4(slot << (selectorSlotIndex << 5));\n                address facetAddress_ = address(bytes20(s1.facets[selector]));\n                bool continueLoop = false;\n                for (uint256 facetIndex; facetIndex < numFacets; facetIndex++) {\n                    if (facetAddress_ == facetAddresses_[facetIndex]) {\n                        continueLoop = true;\n                        break;\n                    }\n                }\n                if (continueLoop) {\n                    continueLoop = false;\n                    continue;\n                }\n                facetAddresses_[numFacets] = facetAddress_;\n                numFacets++;\n            }\n        }\n        // Set the number of facet addresses in the array\n        assembly {\n            mstore(facetAddresses_, numFacets)\n        }\n    }\n\n    /// @notice Gets the facet that supports the given selector.\n    /// @dev If facet is not found return address(0).\n    /// @param _functionSelector The function selector.\n    /// @return facetAddress_ The facet address.\n    function facetAddress(bytes4 _functionSelector)\n        external\n        view\n        returns (address facetAddress_)\n    {\n        facetAddress_ = address(\n            bytes20(\n                LibCutAndLoupe._storageCutAndLoupe().facets[_functionSelector]\n            )\n        );\n    }\n}\n","sourcePath":"contracts/hub/facets/utils/Loupe.sol","type":"contract","deployment":{"address":"0xA33cE7743cE9b7C9e5765cCCB4622C751b2F762d","chainid":"80001","blockHeight":26007073}}