{"abi":[{"inputs":[{"internalType":"address","name":"_nativeToken","type":"address"},{"internalType":"uint256","name":"_hiveCreationCount","type":"uint256"},{"internalType":"uint256","name":"_jobLifespan","type":"uint256"},{"internalType":"uint256","name":"_minDisputeDuration","type":"uint256"},{"internalType":"uint256","name":"_ratingMin","type":"uint256"},{"internalType":"uint256","name":"_ratingMax","type":"uint256"},{"internalType":"address[]","name":"_tokens","type":"address[]"},{"internalType":"address[]","name":"_priceFeeds","type":"address[]"}],"name":"init","outputs":[],"stateMutability":"nonpayable","type":"function"}],"bytecode":"608060405234801561001057600080fd5b50610f8b806100206000396000f3fe608060405234801561001057600080fd5b506004361061002b5760003560e01c8063227b35f314610030575b600080fd5b61004361003e366004610d1d565b610045565b005b61004d6101b0565b6100568661022c565b61005f856102b6565b610069848461031e565b6100728761048c565b61007b886104f4565b60006100a1604051806040016040528060038152602001621554d160ea1b81525061056e565b9050815183511461011f5760405162461bcd60e51b815260206004820152603c60248201527f487562496e697469616c697a6572303a206e756d626572206f6620746f6b656e60448201527f7320616e64207072696365206665656473206d75737420657175616c0000000060648201526084015b60405180910390fd5b60005b83518110156101a457600061015d85838151811061015057634e487b7160e01b600052603260045260246000fd5b60200260200101516105ed565b9050610191838286858151811061018457634e487b7160e01b600052603260045260246000fd5b60200260200101516106b0565b508061019c81610f0e565b915050610122565b50505050505050505050565b7f34f23ac8dba1b0d420860360c560bb179223090c38ce56fa6655c791ccab58dd8054156102205760405162461bcd60e51b815260206004820152601f60248201527f4c696252756e6e657252656769737472793a204d757374206265207a65726f006044820152606401610116565b80546001019055565b50565b61025960405160200161023e90610e67565b6040516020818303038152906040528051906020012061088b565b7fe79924097ccc2e2b47e332de4c30d72abc5a8153cca3b67cc7a0f5258cd81dea81905560405181815233907f9d4e9bc9b37033bc11c53ff1d9b44c874ed8604f416d36785905a2cd4a2fb576906020015b60405180910390a250565b6102c860405160200161023e90610e67565b7fe79924097ccc2e2b47e332de4c30d72abc5a8153cca3b67cc7a0f5258cd81deb81905560405181815233907fe0fa1998449792f3961aad0390f3496aa58616b3bf8556ce022242c27e7a3cc0906020016102ab565b61033060405160200161023e90610e67565b600082116103905760405162461bcd60e51b815260206004820152602760248201527f4c696252617465723a2063616e6e6f742068617665207a65726f20726174696e60448201526619c8189bdd5b9960ca1b6064820152608401610116565b8181116104055760405162461bcd60e51b815260206004820152603960248201527f4c696252617465723a206d6178696d756d20726174696e67206d75737420626560448201527f206d6f7265207468616e206d696e696d756d20726174696e67000000000000006064820152608401610116565b7f46c0914bf24666fe25f9613bee4d3fa84329f5e46e3bdbe0372d1a4fe2fbd2f78281557f46c0914bf24666fe25f9613bee4d3fa84329f5e46e3bdbe0372d1a4fe2fbd2f88290556040805184815260208101849052815133927f9cdcb3d527bbfa3646e8cfa2c42a9af323bf0950353eb82a8917acf60eca6be6928290030190a2505050565b61049e60405160200161023e90610e67565b7fdf9fe6c7820634fc96403ab99f5002d08ca0285232f082ffd1ecd86082131b9181905560405181815233907f70db3de2517d6c9bc1e7ffef78e48fc10ccc1e47539fada5088218ddc9d0ca6d906020016102ab565b6104fe600061088b565b807f61c2c7cf5017a0ead7aef00d9e35505290722fe92da9eca2feee8f02980bf56480546001600160a01b0319166001600160a01b03928316179055604051908216815233907f3ebb56a9312c658f4972a9780a452f94407562a5f33f8130fb30c39196897d79906020016102ab565b60008151600014156105d15760405162461bcd60e51b815260206004820152602660248201527f4c696243757272656e637952656769737472793a20456d70747920636f646520604482015265737472696e6760d01b6064820152608401610116565b60006105dc83610894565b90506105e7816108c4565b92915050565b60006001600160a01b0382166106555760405162461bcd60e51b815260206004820152602760248201527f4c696243757272656e637952656769737472793a205a65726f20746f6b656e206044820152666164647265737360c81b6064820152608401610116565b6bffffffffffffffffffffffff19606083901b16610672816108c4565b60008181527f61c2c7cf5017a0ead7aef00d9e35505290722fe92da9eca2feee8f02980bf56660205260409020805460ff1916600117905592915050565b6106c260405160200161023e90610e67565b6106cb83610941565b6106d482610941565b6001600160a01b0381166107365760405162461bcd60e51b8152602060048201526024808201527f4c696245786368616e67653a205a65726f2070726963652066656564206164646044820152637265737360e01b6064820152608401610116565b60008381527f53e81b6394f0808163be38c3d2fc2c762dd7686d10fe6296ed6cbf8c0f3e8b1360208181526040808420868552909152909120546001600160a01b0316156107d85760405162461bcd60e51b815260206004820152602960248201527f4c696245786368616e67653a205072696365206665656420616c7265616479206044820152681cdd5c1c1bdc9d195960ba1b6064820152608401610116565b600084815260208281526040808320868452825280832080546001600160a01b0387166001600160a01b03199182168117909255858452828520898652845282852080549091168217905586845260018086018452828520898652845293829020805460ff1916909417909355805187815291820186905281019190915233907f8c109466b6f9c2ca069d6b70cbc749cf8d994c2a138bcb6353c8d57f0ed583d79060600160405180910390a250505050565b610229816109d2565b6000816040516020016108a79190610e34565b604051602081830303815290604052805190602001209050919050565b6108d660405160200161023e90610e67565b60008181527f61c2c7cf5017a0ead7aef00d9e35505290722fe92da9eca2feee8f02980bf5656020908152604091829020805460ff19166001179055905182815233917f6df288c658a162629a93cff40b4625ea76e38e5cf12274b5164af9a933f9920191016102ab565b60008181527f61c2c7cf5017a0ead7aef00d9e35505290722fe92da9eca2feee8f02980bf565602052604090205460ff166102295760405162461bcd60e51b815260206004820152602b60248201527f4c696243757272656e637952656769737472793a2043757272656e6379206e6f60448201526a1d081cdd5c1c1bdc9d195960aa1b6064820152608401610116565b60008181527f4cd15452b25e815d3f9d1a3c7edd985a178edf5eb3461a1acbf855517423d694602090815260408083203380855292529091205461022991839160ff16610a6f57610a2d816001600160a01b03166014610a73565b610a38836020610a73565b604051602001610a49929190610dbf565b60408051601f198184030181529082905262461bcd60e51b825261011691600401610e34565b5050565b60606000610a82836002610ea8565b610a8d906002610e90565b67ffffffffffffffff811115610ab357634e487b7160e01b600052604160045260246000fd5b6040519080825280601f01601f191660200182016040528015610add576020820181803683370190505b509050600360fc1b81600081518110610b0657634e487b7160e01b600052603260045260246000fd5b60200101906001600160f81b031916908160001a905350600f60fb1b81600181518110610b4357634e487b7160e01b600052603260045260246000fd5b60200101906001600160f81b031916908160001a9053506000610b67846002610ea8565b610b72906001610e90565b90505b6001811115610c06576f181899199a1a9b1b9c1cb0b131b232b360811b85600f1660108110610bb457634e487b7160e01b600052603260045260246000fd5b1a60f81b828281518110610bd857634e487b7160e01b600052603260045260246000fd5b60200101906001600160f81b031916908160001a90535060049490941c93610bff81610ef7565b9050610b75565b508315610c555760405162461bcd60e51b815260206004820181905260248201527f537472696e67733a20686578206c656e67746820696e73756666696369656e746044820152606401610116565b9392505050565b80356001600160a01b0381168114610c7357600080fd5b919050565b600082601f830112610c88578081fd5b8135602067ffffffffffffffff80831115610ca557610ca5610f3f565b8260051b604051601f19603f83011681018181108482111715610cca57610cca610f3f565b60405284815283810192508684018288018501891015610ce8578687fd5b8692505b85831015610d1157610cfd81610c5c565b845292840192600192909201918401610cec565b50979650505050505050565b600080600080600080600080610100898b031215610d39578384fd5b610d4289610c5c565b97506020890135965060408901359550606089013594506080890135935060a0890135925060c089013567ffffffffffffffff80821115610d81578384fd5b610d8d8c838d01610c78565b935060e08b0135915080821115610da2578283fd5b50610daf8b828c01610c78565b9150509295985092959890939650565b7f416363657373436f6e74726f6c3a206163636f756e7420000000000000000000815260008351610df7816017850160208801610ec7565b7001034b99036b4b9b9b4b733903937b6329607d1b6017918401918201528351610e28816028840160208801610ec7565b01602801949350505050565b6020815260008251806020840152610e53816040850160208701610ec7565b601f01601f19169190910160400192915050565b6020808252600f908201526e535452415445474953545f524f4c4560881b604082015260600190565b60008219821115610ea357610ea3610f29565b500190565b6000816000190483118215151615610ec257610ec2610f29565b500290565b60005b83811015610ee2578181015183820152602001610eca565b83811115610ef1576000848401525b50505050565b600081610f0657610f06610f29565b506000190190565b6000600019821415610f2257610f22610f29565b5060010190565b634e487b7160e01b600052601160045260246000fd5b634e487b7160e01b600052604160045260246000fdfea264697066735822122058a07ff0490e9348b0ed33bb63475200f804e2740b4301fbea77dd459585b86264736f6c63430008040033","bytecodeSha1":"95e448acae010744da08a2c78dee53c799d8fcb1","compiler":{"evm_version":"istanbul","optimizer":{"enabled":true,"runs":200},"version":"0.8.4+commit.c7e474f2"},"contractName":"HubInitializer0","language":"Solidity","natspec":{"kind":"dev","methods":{},"version":1},"opcodes":"PUSH1 0x80 PUSH1 0x40 MSTORE CALLVALUE DUP1 ISZERO PUSH2 0x10 JUMPI PUSH1 0x0 DUP1 REVERT JUMPDEST POP PUSH1 0x4 CALLDATASIZE LT PUSH2 0x2B JUMPI PUSH1 0x0 CALLDATALOAD PUSH1 0xE0 SHR DUP1 PUSH4 0x227B35F3 EQ PUSH2 0x30 JUMPI JUMPDEST PUSH1 0x0 DUP1 REVERT JUMPDEST PUSH2 0x43 PUSH2 0x3E CALLDATASIZE PUSH1 0x4 PUSH2 0xD1D JUMP JUMPDEST PUSH2 0x45 JUMP JUMPDEST STOP JUMPDEST PUSH2 0x4D PUSH2 0x1B0 JUMP JUMPDEST PUSH2 0x56 DUP7 PUSH2 0x22C JUMP JUMPDEST PUSH2 0x5F DUP6 PUSH2 0x2B6 JUMP JUMPDEST PUSH2 0x69 DUP5 DUP5 PUSH2 0x31E JUMP JUMPDEST PUSH2 0x72 DUP8 PUSH2 0x48C JUMP JUMPDEST PUSH2 0x7B DUP9 PUSH2 0x4F4 JUMP JUMPDEST PUSH1 0x0 PUSH2 0xA1 PUSH1 0x40 MLOAD DUP1 PUSH1 0x40 ADD PUSH1 0x40 MSTORE DUP1 PUSH1 0x3 DUP2 MSTORE PUSH1 0x20 ADD PUSH3 0x1554D1 PUSH1 0xEA SHL DUP2 MSTORE POP PUSH2 0x56E JUMP JUMPDEST SWAP1 POP DUP2 MLOAD DUP4 MLOAD EQ PUSH2 0x11F JUMPI PUSH1 0x40 MLOAD PUSH3 0x461BCD PUSH1 0xE5 SHL DUP2 MSTORE PUSH1 0x20 PUSH1 0x4 DUP3 ADD MSTORE PUSH1 0x3C PUSH1 0x24 DUP3 ADD MSTORE PUSH32 0x487562496E697469616C697A6572303A206E756D626572206F6620746F6B656E PUSH1 0x44 DUP3 ADD MSTORE PUSH32 0x7320616E64207072696365206665656473206D75737420657175616C00000000 PUSH1 0x64 DUP3 ADD MSTORE PUSH1 0x84 ADD JUMPDEST PUSH1 0x40 MLOAD DUP1 SWAP2 SUB SWAP1 REVERT JUMPDEST PUSH1 0x0 JUMPDEST DUP4 MLOAD DUP2 LT ISZERO PUSH2 0x1A4 JUMPI PUSH1 0x0 PUSH2 0x15D DUP6 DUP4 DUP2 MLOAD DUP2 LT PUSH2 0x150 JUMPI PUSH4 0x4E487B71 PUSH1 0xE0 SHL PUSH1 0x0 MSTORE PUSH1 0x32 PUSH1 0x4 MSTORE PUSH1 0x24 PUSH1 0x0 REVERT JUMPDEST PUSH1 0x20 MUL PUSH1 0x20 ADD ADD MLOAD PUSH2 0x5ED JUMP JUMPDEST SWAP1 POP PUSH2 0x191 DUP4 DUP3 DUP7 DUP6 DUP2 MLOAD DUP2 LT PUSH2 0x184 JUMPI PUSH4 0x4E487B71 PUSH1 0xE0 SHL PUSH1 0x0 MSTORE PUSH1 0x32 PUSH1 0x4 MSTORE PUSH1 0x24 PUSH1 0x0 REVERT JUMPDEST PUSH1 0x20 MUL PUSH1 0x20 ADD ADD MLOAD PUSH2 0x6B0 JUMP JUMPDEST POP DUP1 PUSH2 0x19C DUP2 PUSH2 0xF0E JUMP JUMPDEST SWAP2 POP POP PUSH2 0x122 JUMP JUMPDEST POP POP POP POP POP POP POP POP POP POP JUMP JUMPDEST PUSH32 0x34F23AC8DBA1B0D420860360C560BB179223090C38CE56FA6655C791CCAB58DD DUP1 SLOAD ISZERO PUSH2 0x220 JUMPI PUSH1 0x40 MLOAD PUSH3 0x461BCD PUSH1 0xE5 SHL DUP2 MSTORE PUSH1 0x20 PUSH1 0x4 DUP3 ADD MSTORE PUSH1 0x1F PUSH1 0x24 DUP3 ADD MSTORE PUSH32 0x4C696252756E6E657252656769737472793A204D757374206265207A65726F00 PUSH1 0x44 DUP3 ADD MSTORE PUSH1 0x64 ADD PUSH2 0x116 JUMP JUMPDEST DUP1 SLOAD PUSH1 0x1 ADD SWAP1 SSTORE JUMP JUMPDEST POP JUMP JUMPDEST PUSH2 0x259 PUSH1 0x40 MLOAD PUSH1 0x20 ADD PUSH2 0x23E SWAP1 PUSH2 0xE67 JUMP JUMPDEST PUSH1 0x40 MLOAD PUSH1 0x20 DUP2 DUP4 SUB SUB DUP2 MSTORE SWAP1 PUSH1 0x40 MSTORE DUP1 MLOAD SWAP1 PUSH1 0x20 ADD KECCAK256 PUSH2 0x88B JUMP JUMPDEST PUSH32 0xE79924097CCC2E2B47E332DE4C30D72ABC5A8153CCA3B67CC7A0F5258CD81DEA DUP2 SWAP1 SSTORE PUSH1 0x40 MLOAD DUP2 DUP2 MSTORE CALLER SWAP1 PUSH32 0x9D4E9BC9B37033BC11C53FF1D9B44C874ED8604F416D36785905A2CD4A2FB576 SWAP1 PUSH1 0x20 ADD JUMPDEST PUSH1 0x40 MLOAD DUP1 SWAP2 SUB SWAP1 LOG2 POP JUMP JUMPDEST PUSH2 0x2C8 PUSH1 0x40 MLOAD PUSH1 0x20 ADD PUSH2 0x23E SWAP1 PUSH2 0xE67 JUMP JUMPDEST PUSH32 0xE79924097CCC2E2B47E332DE4C30D72ABC5A8153CCA3B67CC7A0F5258CD81DEB DUP2 SWAP1 SSTORE PUSH1 0x40 MLOAD DUP2 DUP2 MSTORE CALLER SWAP1 PUSH32 0xE0FA1998449792F3961AAD0390F3496AA58616B3BF8556CE022242C27E7A3CC0 SWAP1 PUSH1 0x20 ADD PUSH2 0x2AB JUMP JUMPDEST PUSH2 0x330 PUSH1 0x40 MLOAD PUSH1 0x20 ADD PUSH2 0x23E SWAP1 PUSH2 0xE67 JUMP JUMPDEST PUSH1 0x0 DUP3 GT PUSH2 0x390 JUMPI PUSH1 0x40 MLOAD PUSH3 0x461BCD PUSH1 0xE5 SHL DUP2 MSTORE PUSH1 0x20 PUSH1 0x4 DUP3 ADD MSTORE PUSH1 0x27 PUSH1 0x24 DUP3 ADD MSTORE PUSH32 0x4C696252617465723A2063616E6E6F742068617665207A65726F20726174696E PUSH1 0x44 DUP3 ADD MSTORE PUSH7 0x19C8189BDD5B99 PUSH1 0xCA SHL PUSH1 0x64 DUP3 ADD MSTORE PUSH1 0x84 ADD PUSH2 0x116 JUMP JUMPDEST DUP2 DUP2 GT PUSH2 0x405 JUMPI PUSH1 0x40 MLOAD PUSH3 0x461BCD PUSH1 0xE5 SHL DUP2 MSTORE PUSH1 0x20 PUSH1 0x4 DUP3 ADD MSTORE PUSH1 0x39 PUSH1 0x24 DUP3 ADD MSTORE PUSH32 0x4C696252617465723A206D6178696D756D20726174696E67206D757374206265 PUSH1 0x44 DUP3 ADD MSTORE PUSH32 0x206D6F7265207468616E206D696E696D756D20726174696E6700000000000000 PUSH1 0x64 DUP3 ADD MSTORE PUSH1 0x84 ADD PUSH2 0x116 JUMP JUMPDEST PUSH32 0x46C0914BF24666FE25F9613BEE4D3FA84329F5E46E3BDBE0372D1A4FE2FBD2F7 DUP3 DUP2 SSTORE PUSH32 0x46C0914BF24666FE25F9613BEE4D3FA84329F5E46E3BDBE0372D1A4FE2FBD2F8 DUP3 SWAP1 SSTORE PUSH1 0x40 DUP1 MLOAD DUP5 DUP2 MSTORE PUSH1 0x20 DUP2 ADD DUP5 SWAP1 MSTORE DUP2 MLOAD CALLER SWAP3 PUSH32 0x9CDCB3D527BBFA3646E8CFA2C42A9AF323BF0950353EB82A8917ACF60ECA6BE6 SWAP3 DUP3 SWAP1 SUB ADD SWAP1 LOG2 POP POP POP JUMP JUMPDEST PUSH2 0x49E PUSH1 0x40 MLOAD PUSH1 0x20 ADD PUSH2 0x23E SWAP1 PUSH2 0xE67 JUMP JUMPDEST PUSH32 0xDF9FE6C7820634FC96403AB99F5002D08CA0285232F082FFD1ECD86082131B91 DUP2 SWAP1 SSTORE PUSH1 0x40 MLOAD DUP2 DUP2 MSTORE CALLER SWAP1 PUSH32 0x70DB3DE2517D6C9BC1E7FFEF78E48FC10CCC1E47539FADA5088218DDC9D0CA6D SWAP1 PUSH1 0x20 ADD PUSH2 0x2AB JUMP JUMPDEST PUSH2 0x4FE PUSH1 0x0 PUSH2 0x88B JUMP JUMPDEST DUP1 PUSH32 0x61C2C7CF5017A0EAD7AEF00D9E35505290722FE92DA9ECA2FEEE8F02980BF564 DUP1 SLOAD PUSH1 0x1 PUSH1 0x1 PUSH1 0xA0 SHL SUB NOT AND PUSH1 0x1 PUSH1 0x1 PUSH1 0xA0 SHL SUB SWAP3 DUP4 AND OR SWAP1 SSTORE PUSH1 0x40 MLOAD SWAP1 DUP3 AND DUP2 MSTORE CALLER SWAP1 PUSH32 0x3EBB56A9312C658F4972A9780A452F94407562A5F33F8130FB30C39196897D79 SWAP1 PUSH1 0x20 ADD PUSH2 0x2AB JUMP JUMPDEST PUSH1 0x0 DUP2 MLOAD PUSH1 0x0 EQ ISZERO PUSH2 0x5D1 JUMPI PUSH1 0x40 MLOAD PUSH3 0x461BCD PUSH1 0xE5 SHL DUP2 MSTORE PUSH1 0x20 PUSH1 0x4 DUP3 ADD MSTORE PUSH1 0x26 PUSH1 0x24 DUP3 ADD MSTORE PUSH32 0x4C696243757272656E637952656769737472793A20456D70747920636F646520 PUSH1 0x44 DUP3 ADD MSTORE PUSH6 0x737472696E67 PUSH1 0xD0 SHL PUSH1 0x64 DUP3 ADD MSTORE PUSH1 0x84 ADD PUSH2 0x116 JUMP JUMPDEST PUSH1 0x0 PUSH2 0x5DC DUP4 PUSH2 0x894 JUMP JUMPDEST SWAP1 POP PUSH2 0x5E7 DUP2 PUSH2 0x8C4 JUMP JUMPDEST SWAP3 SWAP2 POP POP JUMP JUMPDEST PUSH1 0x0 PUSH1 0x1 PUSH1 0x1 PUSH1 0xA0 SHL SUB DUP3 AND PUSH2 0x655 JUMPI PUSH1 0x40 MLOAD PUSH3 0x461BCD PUSH1 0xE5 SHL DUP2 MSTORE PUSH1 0x20 PUSH1 0x4 DUP3 ADD MSTORE PUSH1 0x27 PUSH1 0x24 DUP3 ADD MSTORE PUSH32 0x4C696243757272656E637952656769737472793A205A65726F20746F6B656E20 PUSH1 0x44 DUP3 ADD MSTORE PUSH7 0x61646472657373 PUSH1 0xC8 SHL PUSH1 0x64 DUP3 ADD MSTORE PUSH1 0x84 ADD PUSH2 0x116 JUMP JUMPDEST PUSH12 0xFFFFFFFFFFFFFFFFFFFFFFFF NOT PUSH1 0x60 DUP4 SWAP1 SHL AND PUSH2 0x672 DUP2 PUSH2 0x8C4 JUMP JUMPDEST PUSH1 0x0 DUP2 DUP2 MSTORE PUSH32 0x61C2C7CF5017A0EAD7AEF00D9E35505290722FE92DA9ECA2FEEE8F02980BF566 PUSH1 0x20 MSTORE PUSH1 0x40 SWAP1 KECCAK256 DUP1 SLOAD PUSH1 0xFF NOT AND PUSH1 0x1 OR SWAP1 SSTORE SWAP3 SWAP2 POP POP JUMP JUMPDEST PUSH2 0x6C2 PUSH1 0x40 MLOAD PUSH1 0x20 ADD PUSH2 0x23E SWAP1 PUSH2 0xE67 JUMP JUMPDEST PUSH2 0x6CB DUP4 PUSH2 0x941 JUMP JUMPDEST PUSH2 0x6D4 DUP3 PUSH2 0x941 JUMP JUMPDEST PUSH1 0x1 PUSH1 0x1 PUSH1 0xA0 SHL SUB DUP2 AND PUSH2 0x736 JUMPI PUSH1 0x40 MLOAD PUSH3 0x461BCD PUSH1 0xE5 SHL DUP2 MSTORE PUSH1 0x20 PUSH1 0x4 DUP3 ADD MSTORE PUSH1 0x24 DUP1 DUP3 ADD MSTORE PUSH32 0x4C696245786368616E67653A205A65726F207072696365206665656420616464 PUSH1 0x44 DUP3 ADD MSTORE PUSH4 0x72657373 PUSH1 0xE0 SHL PUSH1 0x64 DUP3 ADD MSTORE PUSH1 0x84 ADD PUSH2 0x116 JUMP JUMPDEST PUSH1 0x0 DUP4 DUP2 MSTORE PUSH32 0x53E81B6394F0808163BE38C3D2FC2C762DD7686D10FE6296ED6CBF8C0F3E8B13 PUSH1 0x20 DUP2 DUP2 MSTORE PUSH1 0x40 DUP1 DUP5 KECCAK256 DUP7 DUP6 MSTORE SWAP1 SWAP2 MSTORE SWAP1 SWAP2 KECCAK256 SLOAD PUSH1 0x1 PUSH1 0x1 PUSH1 0xA0 SHL SUB AND ISZERO PUSH2 0x7D8 JUMPI PUSH1 0x40 MLOAD PUSH3 0x461BCD PUSH1 0xE5 SHL DUP2 MSTORE PUSH1 0x20 PUSH1 0x4 DUP3 ADD MSTORE PUSH1 0x29 PUSH1 0x24 DUP3 ADD MSTORE PUSH32 0x4C696245786368616E67653A205072696365206665656420616C726561647920 PUSH1 0x44 DUP3 ADD MSTORE PUSH9 0x1CDD5C1C1BDC9D1959 PUSH1 0xBA SHL PUSH1 0x64 DUP3 ADD MSTORE PUSH1 0x84 ADD PUSH2 0x116 JUMP JUMPDEST PUSH1 0x0 DUP5 DUP2 MSTORE PUSH1 0x20 DUP3 DUP2 MSTORE PUSH1 0x40 DUP1 DUP4 KECCAK256 DUP7 DUP5 MSTORE DUP3 MSTORE DUP1 DUP4 KECCAK256 DUP1 SLOAD PUSH1 0x1 PUSH1 0x1 PUSH1 0xA0 SHL SUB DUP8 AND PUSH1 0x1 PUSH1 0x1 PUSH1 0xA0 SHL SUB NOT SWAP2 DUP3 AND DUP2 OR SWAP1 SWAP3 SSTORE DUP6 DUP5 MSTORE DUP3 DUP6 KECCAK256 DUP10 DUP7 MSTORE DUP5 MSTORE DUP3 DUP6 KECCAK256 DUP1 SLOAD SWAP1 SWAP2 AND DUP3 OR SWAP1 SSTORE DUP7 DUP5 MSTORE PUSH1 0x1 DUP1 DUP7 ADD DUP5 MSTORE DUP3 DUP6 KECCAK256 DUP10 DUP7 MSTORE DUP5 MSTORE SWAP4 DUP3 SWAP1 KECCAK256 DUP1 SLOAD PUSH1 0xFF NOT AND SWAP1 SWAP5 OR SWAP1 SWAP4 SSTORE DUP1 MLOAD DUP8 DUP2 MSTORE SWAP2 DUP3 ADD DUP7 SWAP1 MSTORE DUP2 ADD SWAP2 SWAP1 SWAP2 MSTORE CALLER SWAP1 PUSH32 0x8C109466B6F9C2CA069D6B70CBC749CF8D994C2A138BCB6353C8D57F0ED583D7 SWAP1 PUSH1 0x60 ADD PUSH1 0x40 MLOAD DUP1 SWAP2 SUB SWAP1 LOG2 POP POP POP POP JUMP JUMPDEST PUSH2 0x229 DUP2 PUSH2 0x9D2 JUMP JUMPDEST PUSH1 0x0 DUP2 PUSH1 0x40 MLOAD PUSH1 0x20 ADD PUSH2 0x8A7 SWAP2 SWAP1 PUSH2 0xE34 JUMP JUMPDEST PUSH1 0x40 MLOAD PUSH1 0x20 DUP2 DUP4 SUB SUB DUP2 MSTORE SWAP1 PUSH1 0x40 MSTORE DUP1 MLOAD SWAP1 PUSH1 0x20 ADD KECCAK256 SWAP1 POP SWAP2 SWAP1 POP JUMP JUMPDEST PUSH2 0x8D6 PUSH1 0x40 MLOAD PUSH1 0x20 ADD PUSH2 0x23E SWAP1 PUSH2 0xE67 JUMP JUMPDEST PUSH1 0x0 DUP2 DUP2 MSTORE PUSH32 0x61C2C7CF5017A0EAD7AEF00D9E35505290722FE92DA9ECA2FEEE8F02980BF565 PUSH1 0x20 SWAP1 DUP2 MSTORE PUSH1 0x40 SWAP2 DUP3 SWAP1 KECCAK256 DUP1 SLOAD PUSH1 0xFF NOT AND PUSH1 0x1 OR SWAP1 SSTORE SWAP1 MLOAD DUP3 DUP2 MSTORE CALLER SWAP2 PUSH32 0x6DF288C658A162629A93CFF40B4625EA76E38E5CF12274B5164AF9A933F99201 SWAP2 ADD PUSH2 0x2AB JUMP JUMPDEST PUSH1 0x0 DUP2 DUP2 MSTORE PUSH32 0x61C2C7CF5017A0EAD7AEF00D9E35505290722FE92DA9ECA2FEEE8F02980BF565 PUSH1 0x20 MSTORE PUSH1 0x40 SWAP1 KECCAK256 SLOAD PUSH1 0xFF AND PUSH2 0x229 JUMPI PUSH1 0x40 MLOAD PUSH3 0x461BCD PUSH1 0xE5 SHL DUP2 MSTORE PUSH1 0x20 PUSH1 0x4 DUP3 ADD MSTORE PUSH1 0x2B PUSH1 0x24 DUP3 ADD MSTORE PUSH32 0x4C696243757272656E637952656769737472793A2043757272656E6379206E6F PUSH1 0x44 DUP3 ADD MSTORE PUSH11 0x1D081CDD5C1C1BDC9D1959 PUSH1 0xAA SHL PUSH1 0x64 DUP3 ADD MSTORE PUSH1 0x84 ADD PUSH2 0x116 JUMP JUMPDEST PUSH1 0x0 DUP2 DUP2 MSTORE PUSH32 0x4CD15452B25E815D3F9D1A3C7EDD985A178EDF5EB3461A1ACBF855517423D694 PUSH1 0x20 SWAP1 DUP2 MSTORE PUSH1 0x40 DUP1 DUP4 KECCAK256 CALLER DUP1 DUP6 MSTORE SWAP3 MSTORE SWAP1 SWAP2 KECCAK256 SLOAD PUSH2 0x229 SWAP2 DUP4 SWAP2 PUSH1 0xFF AND PUSH2 0xA6F JUMPI PUSH2 0xA2D DUP2 PUSH1 0x1 PUSH1 0x1 PUSH1 0xA0 SHL SUB AND PUSH1 0x14 PUSH2 0xA73 JUMP JUMPDEST PUSH2 0xA38 DUP4 PUSH1 0x20 PUSH2 0xA73 JUMP JUMPDEST PUSH1 0x40 MLOAD PUSH1 0x20 ADD PUSH2 0xA49 SWAP3 SWAP2 SWAP1 PUSH2 0xDBF JUMP JUMPDEST PUSH1 0x40 DUP1 MLOAD PUSH1 0x1F NOT DUP2 DUP5 SUB ADD DUP2 MSTORE SWAP1 DUP3 SWAP1 MSTORE PUSH3 0x461BCD PUSH1 0xE5 SHL DUP3 MSTORE PUSH2 0x116 SWAP2 PUSH1 0x4 ADD PUSH2 0xE34 JUMP JUMPDEST POP POP JUMP JUMPDEST PUSH1 0x60 PUSH1 0x0 PUSH2 0xA82 DUP4 PUSH1 0x2 PUSH2 0xEA8 JUMP JUMPDEST PUSH2 0xA8D SWAP1 PUSH1 0x2 PUSH2 0xE90 JUMP JUMPDEST PUSH8 0xFFFFFFFFFFFFFFFF DUP2 GT ISZERO PUSH2 0xAB3 JUMPI PUSH4 0x4E487B71 PUSH1 0xE0 SHL PUSH1 0x0 MSTORE PUSH1 0x41 PUSH1 0x4 MSTORE PUSH1 0x24 PUSH1 0x0 REVERT JUMPDEST PUSH1 0x40 MLOAD SWAP1 DUP1 DUP3 MSTORE DUP1 PUSH1 0x1F ADD PUSH1 0x1F NOT AND PUSH1 0x20 ADD DUP3 ADD PUSH1 0x40 MSTORE DUP1 ISZERO PUSH2 0xADD JUMPI PUSH1 0x20 DUP3 ADD DUP2 DUP1 CALLDATASIZE DUP4 CALLDATACOPY ADD SWAP1 POP JUMPDEST POP SWAP1 POP PUSH1 0x3 PUSH1 0xFC SHL DUP2 PUSH1 0x0 DUP2 MLOAD DUP2 LT PUSH2 0xB06 JUMPI PUSH4 0x4E487B71 PUSH1 0xE0 SHL PUSH1 0x0 MSTORE PUSH1 0x32 PUSH1 0x4 MSTORE PUSH1 0x24 PUSH1 0x0 REVERT JUMPDEST PUSH1 0x20 ADD ADD SWAP1 PUSH1 0x1 PUSH1 0x1 PUSH1 0xF8 SHL SUB NOT AND SWAP1 DUP2 PUSH1 0x0 BYTE SWAP1 MSTORE8 POP PUSH1 0xF PUSH1 0xFB SHL DUP2 PUSH1 0x1 DUP2 MLOAD DUP2 LT PUSH2 0xB43 JUMPI PUSH4 0x4E487B71 PUSH1 0xE0 SHL PUSH1 0x0 MSTORE PUSH1 0x32 PUSH1 0x4 MSTORE PUSH1 0x24 PUSH1 0x0 REVERT JUMPDEST PUSH1 0x20 ADD ADD SWAP1 PUSH1 0x1 PUSH1 0x1 PUSH1 0xF8 SHL SUB NOT AND SWAP1 DUP2 PUSH1 0x0 BYTE SWAP1 MSTORE8 POP PUSH1 0x0 PUSH2 0xB67 DUP5 PUSH1 0x2 PUSH2 0xEA8 JUMP JUMPDEST PUSH2 0xB72 SWAP1 PUSH1 0x1 PUSH2 0xE90 JUMP JUMPDEST SWAP1 POP JUMPDEST PUSH1 0x1 DUP2 GT ISZERO PUSH2 0xC06 JUMPI PUSH16 0x181899199A1A9B1B9C1CB0B131B232B3 PUSH1 0x81 SHL DUP6 PUSH1 0xF AND PUSH1 0x10 DUP2 LT PUSH2 0xBB4 JUMPI PUSH4 0x4E487B71 PUSH1 0xE0 SHL PUSH1 0x0 MSTORE PUSH1 0x32 PUSH1 0x4 MSTORE PUSH1 0x24 PUSH1 0x0 REVERT JUMPDEST BYTE PUSH1 0xF8 SHL DUP3 DUP3 DUP2 MLOAD DUP2 LT PUSH2 0xBD8 JUMPI PUSH4 0x4E487B71 PUSH1 0xE0 SHL PUSH1 0x0 MSTORE PUSH1 0x32 PUSH1 0x4 MSTORE PUSH1 0x24 PUSH1 0x0 REVERT JUMPDEST PUSH1 0x20 ADD ADD SWAP1 PUSH1 0x1 PUSH1 0x1 PUSH1 0xF8 SHL SUB NOT AND SWAP1 DUP2 PUSH1 0x0 BYTE SWAP1 MSTORE8 POP PUSH1 0x4 SWAP5 SWAP1 SWAP5 SHR SWAP4 PUSH2 0xBFF DUP2 PUSH2 0xEF7 JUMP JUMPDEST SWAP1 POP PUSH2 0xB75 JUMP JUMPDEST POP DUP4 ISZERO PUSH2 0xC55 JUMPI PUSH1 0x40 MLOAD PUSH3 0x461BCD PUSH1 0xE5 SHL DUP2 MSTORE PUSH1 0x20 PUSH1 0x4 DUP3 ADD DUP2 SWAP1 MSTORE PUSH1 0x24 DUP3 ADD MSTORE PUSH32 0x537472696E67733A20686578206C656E67746820696E73756666696369656E74 PUSH1 0x44 DUP3 ADD MSTORE PUSH1 0x64 ADD PUSH2 0x116 JUMP JUMPDEST SWAP4 SWAP3 POP POP POP JUMP JUMPDEST DUP1 CALLDATALOAD PUSH1 0x1 PUSH1 0x1 PUSH1 0xA0 SHL SUB DUP2 AND DUP2 EQ PUSH2 0xC73 JUMPI PUSH1 0x0 DUP1 REVERT JUMPDEST SWAP2 SWAP1 POP JUMP JUMPDEST PUSH1 0x0 DUP3 PUSH1 0x1F DUP4 ADD SLT PUSH2 0xC88 JUMPI DUP1 DUP2 REVERT JUMPDEST DUP2 CALLDATALOAD PUSH1 0x20 PUSH8 0xFFFFFFFFFFFFFFFF DUP1 DUP4 GT ISZERO PUSH2 0xCA5 JUMPI PUSH2 0xCA5 PUSH2 0xF3F JUMP JUMPDEST DUP3 PUSH1 0x5 SHL PUSH1 0x40 MLOAD PUSH1 0x1F NOT PUSH1 0x3F DUP4 ADD AND DUP2 ADD DUP2 DUP2 LT DUP5 DUP3 GT OR ISZERO PUSH2 0xCCA JUMPI PUSH2 0xCCA PUSH2 0xF3F JUMP JUMPDEST PUSH1 0x40 MSTORE DUP5 DUP2 MSTORE DUP4 DUP2 ADD SWAP3 POP DUP7 DUP5 ADD DUP3 DUP9 ADD DUP6 ADD DUP10 LT ISZERO PUSH2 0xCE8 JUMPI DUP7 DUP8 REVERT JUMPDEST DUP7 SWAP3 POP JUMPDEST DUP6 DUP4 LT ISZERO PUSH2 0xD11 JUMPI PUSH2 0xCFD DUP2 PUSH2 0xC5C JUMP JUMPDEST DUP5 MSTORE SWAP3 DUP5 ADD SWAP3 PUSH1 0x1 SWAP3 SWAP1 SWAP3 ADD SWAP2 DUP5 ADD PUSH2 0xCEC JUMP JUMPDEST POP SWAP8 SWAP7 POP POP POP POP POP POP POP JUMP JUMPDEST PUSH1 0x0 DUP1 PUSH1 0x0 DUP1 PUSH1 0x0 DUP1 PUSH1 0x0 DUP1 PUSH2 0x100 DUP10 DUP12 SUB SLT ISZERO PUSH2 0xD39 JUMPI DUP4 DUP5 REVERT JUMPDEST PUSH2 0xD42 DUP10 PUSH2 0xC5C JUMP JUMPDEST SWAP8 POP PUSH1 0x20 DUP10 ADD CALLDATALOAD SWAP7 POP PUSH1 0x40 DUP10 ADD CALLDATALOAD SWAP6 POP PUSH1 0x60 DUP10 ADD CALLDATALOAD SWAP5 POP PUSH1 0x80 DUP10 ADD CALLDATALOAD SWAP4 POP PUSH1 0xA0 DUP10 ADD CALLDATALOAD SWAP3 POP PUSH1 0xC0 DUP10 ADD CALLDATALOAD PUSH8 0xFFFFFFFFFFFFFFFF DUP1 DUP3 GT ISZERO PUSH2 0xD81 JUMPI DUP4 DUP5 REVERT JUMPDEST PUSH2 0xD8D DUP13 DUP4 DUP14 ADD PUSH2 0xC78 JUMP JUMPDEST SWAP4 POP PUSH1 0xE0 DUP12 ADD CALLDATALOAD SWAP2 POP DUP1 DUP3 GT ISZERO PUSH2 0xDA2 JUMPI DUP3 DUP4 REVERT JUMPDEST POP PUSH2 0xDAF DUP12 DUP3 DUP13 ADD PUSH2 0xC78 JUMP JUMPDEST SWAP2 POP POP SWAP3 SWAP6 SWAP9 POP SWAP3 SWAP6 SWAP9 SWAP1 SWAP4 SWAP7 POP JUMP JUMPDEST PUSH32 0x416363657373436F6E74726F6C3A206163636F756E7420000000000000000000 DUP2 MSTORE PUSH1 0x0 DUP4 MLOAD PUSH2 0xDF7 DUP2 PUSH1 0x17 DUP6 ADD PUSH1 0x20 DUP9 ADD PUSH2 0xEC7 JUMP JUMPDEST PUSH17 0x1034B99036B4B9B9B4B733903937B6329 PUSH1 0x7D SHL PUSH1 0x17 SWAP2 DUP5 ADD SWAP2 DUP3 ADD MSTORE DUP4 MLOAD PUSH2 0xE28 DUP2 PUSH1 0x28 DUP5 ADD PUSH1 0x20 DUP9 ADD PUSH2 0xEC7 JUMP JUMPDEST ADD PUSH1 0x28 ADD SWAP5 SWAP4 POP POP POP POP JUMP JUMPDEST PUSH1 0x20 DUP2 MSTORE PUSH1 0x0 DUP3 MLOAD DUP1 PUSH1 0x20 DUP5 ADD MSTORE PUSH2 0xE53 DUP2 PUSH1 0x40 DUP6 ADD PUSH1 0x20 DUP8 ADD PUSH2 0xEC7 JUMP JUMPDEST PUSH1 0x1F ADD PUSH1 0x1F NOT AND SWAP2 SWAP1 SWAP2 ADD PUSH1 0x40 ADD SWAP3 SWAP2 POP POP JUMP JUMPDEST PUSH1 0x20 DUP1 DUP3 MSTORE PUSH1 0xF SWAP1 DUP3 ADD MSTORE PUSH15 0x535452415445474953545F524F4C45 PUSH1 0x88 SHL PUSH1 0x40 DUP3 ADD MSTORE PUSH1 0x60 ADD SWAP1 JUMP JUMPDEST PUSH1 0x0 DUP3 NOT DUP3 GT ISZERO PUSH2 0xEA3 JUMPI PUSH2 0xEA3 PUSH2 0xF29 JUMP JUMPDEST POP ADD SWAP1 JUMP JUMPDEST PUSH1 0x0 DUP2 PUSH1 0x0 NOT DIV DUP4 GT DUP3 ISZERO ISZERO AND ISZERO PUSH2 0xEC2 JUMPI PUSH2 0xEC2 PUSH2 0xF29 JUMP JUMPDEST POP MUL SWAP1 JUMP JUMPDEST PUSH1 0x0 JUMPDEST DUP4 DUP2 LT ISZERO PUSH2 0xEE2 JUMPI DUP2 DUP2 ADD MLOAD DUP4 DUP3 ADD MSTORE PUSH1 0x20 ADD PUSH2 0xECA JUMP JUMPDEST DUP4 DUP2 GT ISZERO PUSH2 0xEF1 JUMPI PUSH1 0x0 DUP5 DUP5 ADD MSTORE JUMPDEST POP POP POP POP JUMP JUMPDEST PUSH1 0x0 DUP2 PUSH2 0xF06 JUMPI PUSH2 0xF06 PUSH2 0xF29 JUMP JUMPDEST POP PUSH1 0x0 NOT ADD SWAP1 JUMP JUMPDEST PUSH1 0x0 PUSH1 0x0 NOT DUP3 EQ ISZERO PUSH2 0xF22 JUMPI PUSH2 0xF22 PUSH2 0xF29 JUMP JUMPDEST POP PUSH1 0x1 ADD SWAP1 JUMP JUMPDEST PUSH4 0x4E487B71 PUSH1 0xE0 SHL PUSH1 0x0 MSTORE PUSH1 0x11 PUSH1 0x4 MSTORE PUSH1 0x24 PUSH1 0x0 REVERT JUMPDEST PUSH4 0x4E487B71 PUSH1 0xE0 SHL PUSH1 0x0 MSTORE PUSH1 0x41 PUSH1 0x4 MSTORE PUSH1 0x24 PUSH1 0x0 REVERT INVALID LOG2 PUSH5 0x6970667358 0x22 SLT KECCAK256 PC LOG0 PUSH32 0xF0490E9348B0ED33BB63475200F804E2740B4301FBEA77DD459585B86264736F PUSH13 0x63430008040033000000000000 ","sha1":"abb292d7932a2632c5c7d35b364af78b45676b71","source":"// SPDX-License-Identifier: MIT\npragma solidity ^0.8.2;\n\nimport \"../hub/libraries/core/LibRunnerRegistry.sol\";\nimport \"../hub/libraries/core/LibCurrencyRegistry.sol\";\nimport \"../hub/libraries/core/LibExchange.sol\";\nimport \"../hub/libraries/core/LibJobBoard.sol\";\nimport \"../hub/libraries/core/LibRater.sol\";\nimport \"../hub/libraries/core/LibHiveFactory.sol\";\n\n// ways to call fns from another facet (without knowing address)\n// 1. use delegatecall: https://eip2535diamonds.substack.com/p/how-to-share-functions-between-facets\n// 2. make those external fns internal and move them to library,\n//    then make external fns in respective facets that call those internal fns\n//    (can import library and just use the fns needed instead of inheriting)\n\ncontract HubInitializer0 {\n    function init(\n        address _nativeToken,\n        uint256 _hiveCreationCount,\n        uint256 _jobLifespan,\n        uint256 _minDisputeDuration,\n        uint256 _ratingMin,\n        uint256 _ratingMax,\n        address[] memory _tokens,\n        address[] memory _priceFeeds\n    ) external {\n        // setup\n        LibRunnerRegistry._burnFirstRunnerId();\n\n        LibJobBoard._setJobLifespan(_jobLifespan);\n        LibJobBoard._setMinDisputeDuration(_minDisputeDuration);\n        LibRater._setRatingBounds(_ratingMin, _ratingMax);\n\n        LibHiveFactory._setHiveCreationCount(_hiveCreationCount);\n\n        // set native token\n        LibCurrencyRegistry._setNativeToken(_nativeToken);\n\n        // setup fiat (or crypto)\n        bytes32 keyX = LibCurrencyRegistry._registerFiat(\"USD\");\n\n        require(\n            _tokens.length == _priceFeeds.length,\n            \"HubInitializer0: number of tokens and price feeds must equal\"\n        );\n        for (uint256 i = 0; i < _tokens.length; i++) {\n            // setup crypto (or fiat)\n            bytes32 keyY = LibCurrencyRegistry._registerCrypto(_tokens[i]);\n            // setup pair\n            LibExchange._addXPerYPriceFeed(keyX, keyY, _priceFeeds[i]);\n        }\n\n        // note: dont call _deriveXPerYPriceFeed here, do externally\n    }\n}\n","sourcePath":"contracts/upgrades/HubInitializer0.sol","type":"contract","deployment":{"address":"0xE877D79acEe2691acB843EcfC7A05773f4bb4A7F","chainid":"80001","blockHeight":26007221}}