{"abi":[{"anonymous":false,"inputs":[{"indexed":true,"internalType":"bytes32","name":"role","type":"bytes32"},{"indexed":true,"internalType":"bytes32","name":"previousAdminRole","type":"bytes32"},{"indexed":true,"internalType":"bytes32","name":"newAdminRole","type":"bytes32"}],"name":"RoleAdminChanged","type":"event"},{"anonymous":false,"inputs":[{"indexed":true,"internalType":"bytes32","name":"role","type":"bytes32"},{"indexed":true,"internalType":"address","name":"account","type":"address"},{"indexed":true,"internalType":"address","name":"sender","type":"address"}],"name":"RoleGranted","type":"event"},{"anonymous":false,"inputs":[{"indexed":true,"internalType":"bytes32","name":"role","type":"bytes32"},{"indexed":true,"internalType":"address","name":"account","type":"address"},{"indexed":true,"internalType":"address","name":"sender","type":"address"}],"name":"RoleRevoked","type":"event"},{"inputs":[],"name":"getDefaultAdminRole","outputs":[{"internalType":"bytes32","name":"","type":"bytes32"}],"stateMutability":"pure","type":"function"},{"inputs":[{"internalType":"string","name":"_role","type":"string"}],"name":"getRole","outputs":[{"internalType":"bytes32","name":"","type":"bytes32"}],"stateMutability":"pure","type":"function"},{"inputs":[{"internalType":"bytes32","name":"_role","type":"bytes32"}],"name":"getRoleAdmin","outputs":[{"internalType":"bytes32","name":"","type":"bytes32"}],"stateMutability":"view","type":"function"},{"inputs":[{"internalType":"bytes32","name":"_role","type":"bytes32"},{"internalType":"address","name":"_account","type":"address"}],"name":"grantRole","outputs":[],"stateMutability":"nonpayable","type":"function"},{"inputs":[{"internalType":"bytes32","name":"_role","type":"bytes32"},{"internalType":"address","name":"_account","type":"address"}],"name":"hasRole","outputs":[{"internalType":"bool","name":"","type":"bool"}],"stateMutability":"view","type":"function"},{"inputs":[{"internalType":"bytes32","name":"_role","type":"bytes32"}],"name":"renounceRole","outputs":[],"stateMutability":"nonpayable","type":"function"},{"inputs":[{"internalType":"bytes32","name":"_role","type":"bytes32"},{"internalType":"address","name":"_account","type":"address"}],"name":"revokeRole","outputs":[],"stateMutability":"nonpayable","type":"function"}],"bytecode":"608060405234801561001057600080fd5b506107fb806100206000396000f3fe608060405234801561001057600080fd5b506004361061007d5760003560e01c80636e9067fb1161005b5780636e9067fb146100c45780638bb9c5bf146100d757806391d14854146100ea578063d547741f1461010d57600080fd5b8063248a9ca3146100825780632f2ff15d146100a857806352a9c8d7146100bd575b600080fd5b610095610090366004610557565b610120565b6040519081526020015b60405180910390f35b6100bb6100b636600461056f565b610131565b005b6000610095565b6100956100d23660046105a9565b610150565b6100bb6100e5366004610557565b610180565b6100fd6100f836600461056f565b61018d565b604051901515815260200161009f565b6100bb61011b36600461056f565b6101a0565b600061012b826101b6565b92915050565b61014261013d836101b6565b6101d8565b61014c82826101e1565b5050565b60008160405160200161016391906106c8565b604051602081830303815290604052805190602001209050919050565b61018a8133610257565b50565b600061019983836102cb565b9392505050565b6101ac61013d836101b6565b61014c8282610257565b60009081526000805160206107a6833981519152602052604090206001015490565b61018a81610303565b6101eb82826102cb565b61014c5760008281526000805160206107a6833981519152602090815260408083206001600160a01b0385168085529252808320805460ff1916600117905551339285917f2f8788117e7eff1d82e926ec794901d17c78024a50270940304540a733656f0d9190a45050565b61026182826102cb565b1561014c5760008281526000805160206107a6833981519152602090815260408083206001600160a01b0385168085529252808320805460ff1916905551339285917ff6391f5c32d9c69d2a47ea670b442974b53935d1edc7fd64eb21e047a839171b9190a45050565b60009182526000805160206107a6833981519152602090815260408084206001600160a01b0393909316845291905290205460ff1690565b61018a813361031282826102cb565b61014c5761032a816001600160a01b03166014610375565b610335836020610375565b604051602001610346929190610653565b60408051601f198184030181529082905262461bcd60e51b825261036c916004016106c8565b60405180910390fd5b60606000610384836002610713565b61038f9060026106fb565b67ffffffffffffffff8111156103b557634e487b7160e01b600052604160045260246000fd5b6040519080825280601f01601f1916602001820160405280156103df576020820181803683370190505b509050600360fc1b8160008151811061040857634e487b7160e01b600052603260045260246000fd5b60200101906001600160f81b031916908160001a905350600f60fb1b8160018151811061044557634e487b7160e01b600052603260045260246000fd5b60200101906001600160f81b031916908160001a9053506000610469846002610713565b6104749060016106fb565b90505b6001811115610508576f181899199a1a9b1b9c1cb0b131b232b360811b85600f16601081106104b657634e487b7160e01b600052603260045260246000fd5b1a60f81b8282815181106104da57634e487b7160e01b600052603260045260246000fd5b60200101906001600160f81b031916908160001a90535060049490941c9361050181610762565b9050610477565b5083156101995760405162461bcd60e51b815260206004820181905260248201527f537472696e67733a20686578206c656e67746820696e73756666696369656e74604482015260640161036c565b600060208284031215610568578081fd5b5035919050565b60008060408385031215610581578081fd5b8235915060208301356001600160a01b038116811461059e578182fd5b809150509250929050565b6000602082840312156105ba578081fd5b813567ffffffffffffffff808211156105d1578283fd5b818401915084601f8301126105e4578283fd5b8135818111156105f6576105f661078f565b604051601f8201601f19908116603f0116810190838211818310171561061e5761061e61078f565b81604052828152876020848701011115610636578586fd5b826020860160208301379182016020019490945295945050505050565b7f416363657373436f6e74726f6c3a206163636f756e742000000000000000000081526000835161068b816017850160208801610732565b7001034b99036b4b9b9b4b733903937b6329607d1b60179184019182015283516106bc816028840160208801610732565b01602801949350505050565b60208152600082518060208401526106e7816040850160208701610732565b601f01601f19169190910160400192915050565b6000821982111561070e5761070e610779565b500190565b600081600019048311821515161561072d5761072d610779565b500290565b60005b8381101561074d578181015183820152602001610735565b8381111561075c576000848401525b50505050565b60008161077157610771610779565b506000190190565b634e487b7160e01b600052601160045260246000fd5b634e487b7160e01b600052604160045260246000fdfe4cd15452b25e815d3f9d1a3c7edd985a178edf5eb3461a1acbf855517423d694a264697066735822122041c25cd7de4aaa10e64f92816a22a9277600c0f03404044999bd628ba9c55cf864736f6c63430008040033","bytecodeSha1":"8db678059461c87017557970b5a134589c93b171","compiler":{"evm_version":"istanbul","optimizer":{"enabled":true,"runs":200},"version":"0.8.4+commit.c7e474f2"},"contractName":"AccessControl","language":"Solidity","natspec":{"kind":"dev","methods":{},"version":1},"opcodes":"PUSH1 0x80 PUSH1 0x40 MSTORE CALLVALUE DUP1 ISZERO PUSH2 0x10 JUMPI PUSH1 0x0 DUP1 REVERT JUMPDEST POP PUSH1 0x4 CALLDATASIZE LT PUSH2 0x7D JUMPI PUSH1 0x0 CALLDATALOAD PUSH1 0xE0 SHR DUP1 PUSH4 0x6E9067FB GT PUSH2 0x5B JUMPI DUP1 PUSH4 0x6E9067FB EQ PUSH2 0xC4 JUMPI DUP1 PUSH4 0x8BB9C5BF EQ PUSH2 0xD7 JUMPI DUP1 PUSH4 0x91D14854 EQ PUSH2 0xEA JUMPI DUP1 PUSH4 0xD547741F EQ PUSH2 0x10D JUMPI PUSH1 0x0 DUP1 REVERT JUMPDEST DUP1 PUSH4 0x248A9CA3 EQ PUSH2 0x82 JUMPI DUP1 PUSH4 0x2F2FF15D EQ PUSH2 0xA8 JUMPI DUP1 PUSH4 0x52A9C8D7 EQ PUSH2 0xBD JUMPI JUMPDEST PUSH1 0x0 DUP1 REVERT JUMPDEST PUSH2 0x95 PUSH2 0x90 CALLDATASIZE PUSH1 0x4 PUSH2 0x557 JUMP JUMPDEST PUSH2 0x120 JUMP JUMPDEST PUSH1 0x40 MLOAD SWAP1 DUP2 MSTORE PUSH1 0x20 ADD JUMPDEST PUSH1 0x40 MLOAD DUP1 SWAP2 SUB SWAP1 RETURN JUMPDEST PUSH2 0xBB PUSH2 0xB6 CALLDATASIZE PUSH1 0x4 PUSH2 0x56F JUMP JUMPDEST PUSH2 0x131 JUMP JUMPDEST STOP JUMPDEST PUSH1 0x0 PUSH2 0x95 JUMP JUMPDEST PUSH2 0x95 PUSH2 0xD2 CALLDATASIZE PUSH1 0x4 PUSH2 0x5A9 JUMP JUMPDEST PUSH2 0x150 JUMP JUMPDEST PUSH2 0xBB PUSH2 0xE5 CALLDATASIZE PUSH1 0x4 PUSH2 0x557 JUMP JUMPDEST PUSH2 0x180 JUMP JUMPDEST PUSH2 0xFD PUSH2 0xF8 CALLDATASIZE PUSH1 0x4 PUSH2 0x56F JUMP JUMPDEST PUSH2 0x18D JUMP JUMPDEST PUSH1 0x40 MLOAD SWAP1 ISZERO ISZERO DUP2 MSTORE PUSH1 0x20 ADD PUSH2 0x9F JUMP JUMPDEST PUSH2 0xBB PUSH2 0x11B CALLDATASIZE PUSH1 0x4 PUSH2 0x56F JUMP JUMPDEST PUSH2 0x1A0 JUMP JUMPDEST PUSH1 0x0 PUSH2 0x12B DUP3 PUSH2 0x1B6 JUMP JUMPDEST SWAP3 SWAP2 POP POP JUMP JUMPDEST PUSH2 0x142 PUSH2 0x13D DUP4 PUSH2 0x1B6 JUMP JUMPDEST PUSH2 0x1D8 JUMP JUMPDEST PUSH2 0x14C DUP3 DUP3 PUSH2 0x1E1 JUMP JUMPDEST POP POP JUMP JUMPDEST PUSH1 0x0 DUP2 PUSH1 0x40 MLOAD PUSH1 0x20 ADD PUSH2 0x163 SWAP2 SWAP1 PUSH2 0x6C8 JUMP JUMPDEST PUSH1 0x40 MLOAD PUSH1 0x20 DUP2 DUP4 SUB SUB DUP2 MSTORE SWAP1 PUSH1 0x40 MSTORE DUP1 MLOAD SWAP1 PUSH1 0x20 ADD KECCAK256 SWAP1 POP SWAP2 SWAP1 POP JUMP JUMPDEST PUSH2 0x18A DUP2 CALLER PUSH2 0x257 JUMP JUMPDEST POP JUMP JUMPDEST PUSH1 0x0 PUSH2 0x199 DUP4 DUP4 PUSH2 0x2CB JUMP JUMPDEST SWAP4 SWAP3 POP POP POP JUMP JUMPDEST PUSH2 0x1AC PUSH2 0x13D DUP4 PUSH2 0x1B6 JUMP JUMPDEST PUSH2 0x14C DUP3 DUP3 PUSH2 0x257 JUMP JUMPDEST PUSH1 0x0 SWAP1 DUP2 MSTORE PUSH1 0x0 DUP1 MLOAD PUSH1 0x20 PUSH2 0x7A6 DUP4 CODECOPY DUP2 MLOAD SWAP2 MSTORE PUSH1 0x20 MSTORE PUSH1 0x40 SWAP1 KECCAK256 PUSH1 0x1 ADD SLOAD SWAP1 JUMP JUMPDEST PUSH2 0x18A DUP2 PUSH2 0x303 JUMP JUMPDEST PUSH2 0x1EB DUP3 DUP3 PUSH2 0x2CB JUMP JUMPDEST PUSH2 0x14C JUMPI PUSH1 0x0 DUP3 DUP2 MSTORE PUSH1 0x0 DUP1 MLOAD PUSH1 0x20 PUSH2 0x7A6 DUP4 CODECOPY DUP2 MLOAD SWAP2 MSTORE PUSH1 0x20 SWAP1 DUP2 MSTORE PUSH1 0x40 DUP1 DUP4 KECCAK256 PUSH1 0x1 PUSH1 0x1 PUSH1 0xA0 SHL SUB DUP6 AND DUP1 DUP6 MSTORE SWAP3 MSTORE DUP1 DUP4 KECCAK256 DUP1 SLOAD PUSH1 0xFF NOT AND PUSH1 0x1 OR SWAP1 SSTORE MLOAD CALLER SWAP3 DUP6 SWAP2 PUSH32 0x2F8788117E7EFF1D82E926EC794901D17C78024A50270940304540A733656F0D SWAP2 SWAP1 LOG4 POP POP JUMP JUMPDEST PUSH2 0x261 DUP3 DUP3 PUSH2 0x2CB JUMP JUMPDEST ISZERO PUSH2 0x14C JUMPI PUSH1 0x0 DUP3 DUP2 MSTORE PUSH1 0x0 DUP1 MLOAD PUSH1 0x20 PUSH2 0x7A6 DUP4 CODECOPY DUP2 MLOAD SWAP2 MSTORE PUSH1 0x20 SWAP1 DUP2 MSTORE PUSH1 0x40 DUP1 DUP4 KECCAK256 PUSH1 0x1 PUSH1 0x1 PUSH1 0xA0 SHL SUB DUP6 AND DUP1 DUP6 MSTORE SWAP3 MSTORE DUP1 DUP4 KECCAK256 DUP1 SLOAD PUSH1 0xFF NOT AND SWAP1 SSTORE MLOAD CALLER SWAP3 DUP6 SWAP2 PUSH32 0xF6391F5C32D9C69D2A47EA670B442974B53935D1EDC7FD64EB21E047A839171B SWAP2 SWAP1 LOG4 POP POP JUMP JUMPDEST PUSH1 0x0 SWAP2 DUP3 MSTORE PUSH1 0x0 DUP1 MLOAD PUSH1 0x20 PUSH2 0x7A6 DUP4 CODECOPY DUP2 MLOAD SWAP2 MSTORE PUSH1 0x20 SWAP1 DUP2 MSTORE PUSH1 0x40 DUP1 DUP5 KECCAK256 PUSH1 0x1 PUSH1 0x1 PUSH1 0xA0 SHL SUB SWAP4 SWAP1 SWAP4 AND DUP5 MSTORE SWAP2 SWAP1 MSTORE SWAP1 KECCAK256 SLOAD PUSH1 0xFF AND SWAP1 JUMP JUMPDEST PUSH2 0x18A DUP2 CALLER PUSH2 0x312 DUP3 DUP3 PUSH2 0x2CB JUMP JUMPDEST PUSH2 0x14C JUMPI PUSH2 0x32A DUP2 PUSH1 0x1 PUSH1 0x1 PUSH1 0xA0 SHL SUB AND PUSH1 0x14 PUSH2 0x375 JUMP JUMPDEST PUSH2 0x335 DUP4 PUSH1 0x20 PUSH2 0x375 JUMP JUMPDEST PUSH1 0x40 MLOAD PUSH1 0x20 ADD PUSH2 0x346 SWAP3 SWAP2 SWAP1 PUSH2 0x653 JUMP JUMPDEST PUSH1 0x40 DUP1 MLOAD PUSH1 0x1F NOT DUP2 DUP5 SUB ADD DUP2 MSTORE SWAP1 DUP3 SWAP1 MSTORE PUSH3 0x461BCD PUSH1 0xE5 SHL DUP3 MSTORE PUSH2 0x36C SWAP2 PUSH1 0x4 ADD PUSH2 0x6C8 JUMP JUMPDEST PUSH1 0x40 MLOAD DUP1 SWAP2 SUB SWAP1 REVERT JUMPDEST PUSH1 0x60 PUSH1 0x0 PUSH2 0x384 DUP4 PUSH1 0x2 PUSH2 0x713 JUMP JUMPDEST PUSH2 0x38F SWAP1 PUSH1 0x2 PUSH2 0x6FB JUMP JUMPDEST PUSH8 0xFFFFFFFFFFFFFFFF DUP2 GT ISZERO PUSH2 0x3B5 JUMPI PUSH4 0x4E487B71 PUSH1 0xE0 SHL PUSH1 0x0 MSTORE PUSH1 0x41 PUSH1 0x4 MSTORE PUSH1 0x24 PUSH1 0x0 REVERT JUMPDEST PUSH1 0x40 MLOAD SWAP1 DUP1 DUP3 MSTORE DUP1 PUSH1 0x1F ADD PUSH1 0x1F NOT AND PUSH1 0x20 ADD DUP3 ADD PUSH1 0x40 MSTORE DUP1 ISZERO PUSH2 0x3DF JUMPI PUSH1 0x20 DUP3 ADD DUP2 DUP1 CALLDATASIZE DUP4 CALLDATACOPY ADD SWAP1 POP JUMPDEST POP SWAP1 POP PUSH1 0x3 PUSH1 0xFC SHL DUP2 PUSH1 0x0 DUP2 MLOAD DUP2 LT PUSH2 0x408 JUMPI PUSH4 0x4E487B71 PUSH1 0xE0 SHL PUSH1 0x0 MSTORE PUSH1 0x32 PUSH1 0x4 MSTORE PUSH1 0x24 PUSH1 0x0 REVERT JUMPDEST PUSH1 0x20 ADD ADD SWAP1 PUSH1 0x1 PUSH1 0x1 PUSH1 0xF8 SHL SUB NOT AND SWAP1 DUP2 PUSH1 0x0 BYTE SWAP1 MSTORE8 POP PUSH1 0xF PUSH1 0xFB SHL DUP2 PUSH1 0x1 DUP2 MLOAD DUP2 LT PUSH2 0x445 JUMPI PUSH4 0x4E487B71 PUSH1 0xE0 SHL PUSH1 0x0 MSTORE PUSH1 0x32 PUSH1 0x4 MSTORE PUSH1 0x24 PUSH1 0x0 REVERT JUMPDEST PUSH1 0x20 ADD ADD SWAP1 PUSH1 0x1 PUSH1 0x1 PUSH1 0xF8 SHL SUB NOT AND SWAP1 DUP2 PUSH1 0x0 BYTE SWAP1 MSTORE8 POP PUSH1 0x0 PUSH2 0x469 DUP5 PUSH1 0x2 PUSH2 0x713 JUMP JUMPDEST PUSH2 0x474 SWAP1 PUSH1 0x1 PUSH2 0x6FB JUMP JUMPDEST SWAP1 POP JUMPDEST PUSH1 0x1 DUP2 GT ISZERO PUSH2 0x508 JUMPI PUSH16 0x181899199A1A9B1B9C1CB0B131B232B3 PUSH1 0x81 SHL DUP6 PUSH1 0xF AND PUSH1 0x10 DUP2 LT PUSH2 0x4B6 JUMPI PUSH4 0x4E487B71 PUSH1 0xE0 SHL PUSH1 0x0 MSTORE PUSH1 0x32 PUSH1 0x4 MSTORE PUSH1 0x24 PUSH1 0x0 REVERT JUMPDEST BYTE PUSH1 0xF8 SHL DUP3 DUP3 DUP2 MLOAD DUP2 LT PUSH2 0x4DA JUMPI PUSH4 0x4E487B71 PUSH1 0xE0 SHL PUSH1 0x0 MSTORE PUSH1 0x32 PUSH1 0x4 MSTORE PUSH1 0x24 PUSH1 0x0 REVERT JUMPDEST PUSH1 0x20 ADD ADD SWAP1 PUSH1 0x1 PUSH1 0x1 PUSH1 0xF8 SHL SUB NOT AND SWAP1 DUP2 PUSH1 0x0 BYTE SWAP1 MSTORE8 POP PUSH1 0x4 SWAP5 SWAP1 SWAP5 SHR SWAP4 PUSH2 0x501 DUP2 PUSH2 0x762 JUMP JUMPDEST SWAP1 POP PUSH2 0x477 JUMP JUMPDEST POP DUP4 ISZERO PUSH2 0x199 JUMPI PUSH1 0x40 MLOAD PUSH3 0x461BCD PUSH1 0xE5 SHL DUP2 MSTORE PUSH1 0x20 PUSH1 0x4 DUP3 ADD DUP2 SWAP1 MSTORE PUSH1 0x24 DUP3 ADD MSTORE PUSH32 0x537472696E67733A20686578206C656E67746820696E73756666696369656E74 PUSH1 0x44 DUP3 ADD MSTORE PUSH1 0x64 ADD PUSH2 0x36C JUMP JUMPDEST PUSH1 0x0 PUSH1 0x20 DUP3 DUP5 SUB SLT ISZERO PUSH2 0x568 JUMPI DUP1 DUP2 REVERT JUMPDEST POP CALLDATALOAD SWAP2 SWAP1 POP JUMP JUMPDEST PUSH1 0x0 DUP1 PUSH1 0x40 DUP4 DUP6 SUB SLT ISZERO PUSH2 0x581 JUMPI DUP1 DUP2 REVERT JUMPDEST DUP3 CALLDATALOAD SWAP2 POP PUSH1 0x20 DUP4 ADD CALLDATALOAD PUSH1 0x1 PUSH1 0x1 PUSH1 0xA0 SHL SUB DUP2 AND DUP2 EQ PUSH2 0x59E JUMPI DUP2 DUP3 REVERT JUMPDEST DUP1 SWAP2 POP POP SWAP3 POP SWAP3 SWAP1 POP JUMP JUMPDEST PUSH1 0x0 PUSH1 0x20 DUP3 DUP5 SUB SLT ISZERO PUSH2 0x5BA JUMPI DUP1 DUP2 REVERT JUMPDEST DUP2 CALLDATALOAD PUSH8 0xFFFFFFFFFFFFFFFF DUP1 DUP3 GT ISZERO PUSH2 0x5D1 JUMPI DUP3 DUP4 REVERT JUMPDEST DUP2 DUP5 ADD SWAP2 POP DUP5 PUSH1 0x1F DUP4 ADD SLT PUSH2 0x5E4 JUMPI DUP3 DUP4 REVERT JUMPDEST DUP2 CALLDATALOAD DUP2 DUP2 GT ISZERO PUSH2 0x5F6 JUMPI PUSH2 0x5F6 PUSH2 0x78F JUMP JUMPDEST PUSH1 0x40 MLOAD PUSH1 0x1F DUP3 ADD PUSH1 0x1F NOT SWAP1 DUP2 AND PUSH1 0x3F ADD AND DUP2 ADD SWAP1 DUP4 DUP3 GT DUP2 DUP4 LT OR ISZERO PUSH2 0x61E JUMPI PUSH2 0x61E PUSH2 0x78F JUMP JUMPDEST DUP2 PUSH1 0x40 MSTORE DUP3 DUP2 MSTORE DUP8 PUSH1 0x20 DUP5 DUP8 ADD ADD GT ISZERO PUSH2 0x636 JUMPI DUP6 DUP7 REVERT JUMPDEST DUP3 PUSH1 0x20 DUP7 ADD PUSH1 0x20 DUP4 ADD CALLDATACOPY SWAP2 DUP3 ADD PUSH1 0x20 ADD SWAP5 SWAP1 SWAP5 MSTORE SWAP6 SWAP5 POP POP POP POP POP JUMP JUMPDEST PUSH32 0x416363657373436F6E74726F6C3A206163636F756E7420000000000000000000 DUP2 MSTORE PUSH1 0x0 DUP4 MLOAD PUSH2 0x68B DUP2 PUSH1 0x17 DUP6 ADD PUSH1 0x20 DUP9 ADD PUSH2 0x732 JUMP JUMPDEST PUSH17 0x1034B99036B4B9B9B4B733903937B6329 PUSH1 0x7D SHL PUSH1 0x17 SWAP2 DUP5 ADD SWAP2 DUP3 ADD MSTORE DUP4 MLOAD PUSH2 0x6BC DUP2 PUSH1 0x28 DUP5 ADD PUSH1 0x20 DUP9 ADD PUSH2 0x732 JUMP JUMPDEST ADD PUSH1 0x28 ADD SWAP5 SWAP4 POP POP POP POP JUMP JUMPDEST PUSH1 0x20 DUP2 MSTORE PUSH1 0x0 DUP3 MLOAD DUP1 PUSH1 0x20 DUP5 ADD MSTORE PUSH2 0x6E7 DUP2 PUSH1 0x40 DUP6 ADD PUSH1 0x20 DUP8 ADD PUSH2 0x732 JUMP JUMPDEST PUSH1 0x1F ADD PUSH1 0x1F NOT AND SWAP2 SWAP1 SWAP2 ADD PUSH1 0x40 ADD SWAP3 SWAP2 POP POP JUMP JUMPDEST PUSH1 0x0 DUP3 NOT DUP3 GT ISZERO PUSH2 0x70E JUMPI PUSH2 0x70E PUSH2 0x779 JUMP JUMPDEST POP ADD SWAP1 JUMP JUMPDEST PUSH1 0x0 DUP2 PUSH1 0x0 NOT DIV DUP4 GT DUP3 ISZERO ISZERO AND ISZERO PUSH2 0x72D JUMPI PUSH2 0x72D PUSH2 0x779 JUMP JUMPDEST POP MUL SWAP1 JUMP JUMPDEST PUSH1 0x0 JUMPDEST DUP4 DUP2 LT ISZERO PUSH2 0x74D JUMPI DUP2 DUP2 ADD MLOAD DUP4 DUP3 ADD MSTORE PUSH1 0x20 ADD PUSH2 0x735 JUMP JUMPDEST DUP4 DUP2 GT ISZERO PUSH2 0x75C JUMPI PUSH1 0x0 DUP5 DUP5 ADD MSTORE JUMPDEST POP POP POP POP JUMP JUMPDEST PUSH1 0x0 DUP2 PUSH2 0x771 JUMPI PUSH2 0x771 PUSH2 0x779 JUMP JUMPDEST POP PUSH1 0x0 NOT ADD SWAP1 JUMP JUMPDEST PUSH4 0x4E487B71 PUSH1 0xE0 SHL PUSH1 0x0 MSTORE PUSH1 0x11 PUSH1 0x4 MSTORE PUSH1 0x24 PUSH1 0x0 REVERT JUMPDEST PUSH4 0x4E487B71 PUSH1 0xE0 SHL PUSH1 0x0 MSTORE PUSH1 0x41 PUSH1 0x4 MSTORE PUSH1 0x24 PUSH1 0x0 REVERT INVALID 0x4C 0xD1 SLOAD MSTORE 0xB2 0x5E DUP2 0x5D EXTCODEHASH SWAP14 BYTE EXTCODECOPY PUSH31 0xDD985A178EDF5EB3461A1ACBF855517423D694A264697066735822122041C2 0x5C 0xD7 0xDE 0x4A 0xAA LT 0xE6 0x4F SWAP3 DUP2 PUSH11 0x22A9277600C0F034040449 SWAP10 0xBD PUSH3 0x8BA9C5 0x5C 0xF8 PUSH5 0x736F6C6343 STOP ADDMOD DIV STOP CALLER ","sha1":"47d1917a65d9b9c83b4ab49236d1b933c4068aab","source":"// SPDX-License-Identifier: MIT\npragma solidity ^0.8.2;\n\nimport \"../../libraries/utils/LibAccessControl.sol\";\n\ncontract AccessControl {\n    event RoleAdminChanged(\n        bytes32 indexed role,\n        bytes32 indexed previousAdminRole,\n        bytes32 indexed newAdminRole\n    );\n\n    event RoleGranted(\n        bytes32 indexed role,\n        address indexed account,\n        address indexed sender\n    );\n\n    event RoleRevoked(\n        bytes32 indexed role,\n        address indexed account,\n        address indexed sender\n    );\n\n    function getDefaultAdminRole() external pure returns (bytes32) {\n        return LibAccessControl.DEFAULT_ADMIN_ROLE;\n    }\n\n    function getRole(string memory _role) external pure returns (bytes32) {\n        return keccak256(abi.encode(_role));\n    }\n\n    function hasRole(bytes32 _role, address _account)\n        external\n        view\n        returns (bool)\n    {\n        return LibAccessControl._hasRole(_role, _account);\n    }\n\n    function getRoleAdmin(bytes32 _role) external view returns (bytes32) {\n        return LibAccessControl._getRoleAdmin(_role);\n    }\n\n    function grantRole(bytes32 _role, address _account) external {\n        LibAccessControl._requireOnlyRole(\n            LibAccessControl._getRoleAdmin(_role)\n        );\n        return LibAccessControl._grantRole(_role, _account);\n    }\n\n    function revokeRole(bytes32 _role, address _account) external {\n        LibAccessControl._requireOnlyRole(\n            LibAccessControl._getRoleAdmin(_role)\n        );\n        return LibAccessControl._revokeRole(_role, _account);\n    }\n\n    function renounceRole(bytes32 _role) external {\n        return LibAccessControl._revokeRole(_role, msg.sender);\n    }\n}\n","sourcePath":"contracts/hub/facets/utils/AccessControl.sol","type":"contract","deployment":{"address":"0xF0fcd0384539425E631Db8B89B46D3B0E8007F46","chainid":"80001","blockHeight":26007081}}