{"abi":[{"anonymous":false,"inputs":[{"indexed":true,"internalType":"address","name":"sender","type":"address"},{"indexed":false,"internalType":"address","name":"priceFeed","type":"address"}],"name":"AddedPriceFeedRemoved","type":"event"},{"anonymous":false,"inputs":[{"indexed":true,"internalType":"address","name":"sender","type":"address"},{"indexed":false,"internalType":"address","name":"applicant","type":"address"}],"name":"ApplicantApproved","type":"event"},{"anonymous":false,"inputs":[{"indexed":true,"internalType":"address","name":"sender","type":"address"},{"indexed":false,"internalType":"bytes32","name":"key","type":"bytes32"}],"name":"CurrencyRegistered","type":"event"},{"anonymous":false,"inputs":[{"indexed":true,"internalType":"address","name":"sender","type":"address"},{"indexed":false,"internalType":"bytes32","name":"key","type":"bytes32"}],"name":"CurrencyRemoved","type":"event"},{"anonymous":false,"inputs":[{"indexed":true,"internalType":"address","name":"sender","type":"address"},{"indexed":false,"internalType":"bytes32","name":"keyX","type":"bytes32"},{"indexed":false,"internalType":"bytes32","name":"keyY","type":"bytes32"}],"name":"DerivedPriceFeedRemoved","type":"event"},{"anonymous":false,"inputs":[{"components":[{"internalType":"address","name":"facetAddress","type":"address"},{"internalType":"enum Cut.FacetCutAction","name":"action","type":"uint8"},{"internalType":"bytes4[]","name":"functionSelectors","type":"bytes4[]"}],"indexed":false,"internalType":"struct Cut.FacetCut[]","name":"_cut","type":"tuple[]"},{"indexed":false,"internalType":"address","name":"_init","type":"address"},{"indexed":false,"internalType":"bytes","name":"_calldata","type":"bytes"}],"name":"DiamondCut","type":"event"},{"anonymous":false,"inputs":[{"indexed":true,"internalType":"address","name":"sender","type":"address"},{"indexed":true,"internalType":"bytes32","name":"jobId","type":"bytes32"}],"name":"Dispute","type":"event"},{"anonymous":false,"inputs":[{"indexed":true,"internalType":"address","name":"sender","type":"address"},{"indexed":false,"internalType":"uint256","name":"fee","type":"uint256"}],"name":"FeeSetBase","type":"event"},{"anonymous":false,"inputs":[{"indexed":true,"internalType":"address","name":"sender","type":"address"},{"indexed":false,"internalType":"uint256","name":"fee","type":"uint256"}],"name":"FeeSetCancellation","type":"event"},{"anonymous":false,"inputs":[{"indexed":true,"internalType":"address","name":"sender","type":"address"},{"indexed":false,"internalType":"uint256","name":"fee","type":"uint256"}],"name":"FeeSetCostPerMetre","type":"event"},{"anonymous":false,"inputs":[{"indexed":true,"internalType":"address","name":"sender","type":"address"},{"indexed":false,"internalType":"uint256","name":"fee","type":"uint256"}],"name":"FeeSetCostPerMinute","type":"event"},{"anonymous":false,"inputs":[{"indexed":true,"internalType":"address","name":"sender","type":"address"},{"indexed":false,"internalType":"bytes32","name":"key","type":"bytes32"},{"indexed":false,"internalType":"uint256","name":"amount","type":"uint256"}],"name":"FundsLocked","type":"event"},{"anonymous":false,"inputs":[{"indexed":true,"internalType":"address","name":"sender","type":"address"},{"indexed":false,"internalType":"address","name":"decrease","type":"address"},{"indexed":false,"internalType":"address","name":"increase","type":"address"},{"indexed":false,"internalType":"bytes32","name":"key","type":"bytes32"},{"indexed":false,"internalType":"uint256","name":"amount","type":"uint256"}],"name":"FundsUnlocked","type":"event"},{"anonymous":false,"inputs":[{"indexed":true,"internalType":"address","name":"sender","type":"address"},{"indexed":false,"internalType":"uint256","name":"count","type":"uint256"}],"name":"HiveCreationCountSet","type":"event"},{"anonymous":false,"inputs":[{"indexed":true,"internalType":"address","name":"sender","type":"address"},{"indexed":false,"internalType":"uint256","name":"duration","type":"uint256"}],"name":"HiveDisputeDurationSet","type":"event"},{"anonymous":false,"inputs":[{"indexed":true,"internalType":"address","name":"sender","type":"address"},{"indexed":true,"internalType":"bytes32","name":"jobId","type":"bytes32"}],"name":"JobCleared","type":"event"},{"anonymous":false,"inputs":[{"indexed":true,"internalType":"address","name":"sender","type":"address"},{"indexed":false,"internalType":"uint256","name":"duration","type":"uint256"}],"name":"JobLifespanSet","type":"event"},{"anonymous":false,"inputs":[{"indexed":true,"internalType":"address","name":"sender","type":"address"},{"indexed":false,"internalType":"uint256","name":"duration","type":"uint256"}],"name":"MinDisputeDurationSet","type":"event"},{"anonymous":false,"inputs":[{"indexed":true,"internalType":"address","name":"sender","type":"address"},{"indexed":false,"internalType":"address","name":"token","type":"address"}],"name":"NativeTokenSet","type":"event"},{"anonymous":false,"inputs":[{"indexed":true,"internalType":"address","name":"sender","type":"address"},{"indexed":false,"internalType":"bytes32","name":"keyX","type":"bytes32"},{"indexed":false,"internalType":"bytes32","name":"keyY","type":"bytes32"},{"indexed":false,"internalType":"address","name":"priceFeed","type":"address"}],"name":"PriceFeedAdded","type":"event"},{"anonymous":false,"inputs":[{"indexed":true,"internalType":"address","name":"sender","type":"address"},{"indexed":false,"internalType":"bytes32","name":"keyX","type":"bytes32"},{"indexed":false,"internalType":"bytes32","name":"keyY","type":"bytes32"},{"indexed":false,"internalType":"bytes32","name":"keyShared","type":"bytes32"}],"name":"PriceFeedDerived","type":"event"},{"anonymous":false,"inputs":[{"indexed":true,"internalType":"address","name":"sender","type":"address"},{"indexed":false,"internalType":"uint256","name":"rating","type":"uint256"}],"name":"RatingGiven","type":"event"},{"anonymous":false,"inputs":[{"indexed":true,"internalType":"address","name":"sender","type":"address"},{"indexed":true,"internalType":"bytes32","name":"jobId","type":"bytes32"}],"name":"RequestRunner","type":"event"},{"anonymous":false,"inputs":[{"indexed":true,"internalType":"address","name":"sender","type":"address"},{"indexed":true,"internalType":"bytes32","name":"jobId","type":"bytes32"}],"name":"RequesterCancelled","type":"event"},{"anonymous":false,"inputs":[{"indexed":true,"internalType":"bytes32","name":"role","type":"bytes32"},{"indexed":true,"internalType":"bytes32","name":"previousAdminRole","type":"bytes32"},{"indexed":true,"internalType":"bytes32","name":"newAdminRole","type":"bytes32"}],"name":"RoleAdminChanged","type":"event"},{"anonymous":false,"inputs":[{"indexed":true,"internalType":"bytes32","name":"role","type":"bytes32"},{"indexed":true,"internalType":"address","name":"account","type":"address"},{"indexed":true,"internalType":"address","name":"sender","type":"address"}],"name":"RoleGranted","type":"event"},{"anonymous":false,"inputs":[{"indexed":true,"internalType":"bytes32","name":"role","type":"bytes32"},{"indexed":true,"internalType":"address","name":"account","type":"address"},{"indexed":true,"internalType":"address","name":"sender","type":"address"}],"name":"RoleRevoked","type":"event"},{"anonymous":false,"inputs":[{"indexed":true,"internalType":"address","name":"sender","type":"address"},{"indexed":false,"internalType":"uint256","name":"min","type":"uint256"},{"indexed":false,"internalType":"uint256","name":"max","type":"uint256"}],"name":"SetRatingBounds","type":"event"},{"anonymous":false,"inputs":[{"indexed":true,"internalType":"address","name":"sender","type":"address"},{"indexed":false,"internalType":"address","name":"user","type":"address"},{"indexed":false,"internalType":"uint256","name":"banDuration","type":"uint256"}],"name":"UserBanned","type":"event"},{"inputs":[{"internalType":"bytes32","name":"_jobId","type":"bytes32"}],"name":"cancelFromRequester","outputs":[],"stateMutability":"nonpayable","type":"function"},{"inputs":[{"internalType":"bytes32","name":"_jobId","type":"bytes32"},{"internalType":"bool","name":"_dispute","type":"bool"}],"name":"dispute","outputs":[],"stateMutability":"nonpayable","type":"function"},{"inputs":[{"internalType":"address","name":"_hive","type":"address"},{"internalType":"address","name":"_package","type":"address"},{"internalType":"bytes32","name":"_locationPackage","type":"bytes32"},{"internalType":"bytes32","name":"_locationDestination","type":"bytes32"},{"internalType":"bytes32","name":"_keyLocal","type":"bytes32"},{"internalType":"bytes32","name":"_keyTransact","type":"bytes32"},{"internalType":"uint256","name":"_minutes","type":"uint256"},{"internalType":"uint256","name":"_metres","type":"uint256"}],"name":"requestRunner","outputs":[],"stateMutability":"nonpayable","type":"function"}],"bytecode":"608060405234801561001057600080fd5b50611b18806100206000396000f3fe608060405234801561001057600080fd5b50600436106100415760003560e01c806355973ad1146100465780635ac3ce401461005b5780638fe06e721461006e575b600080fd5b610059610054366004611812565b610081565b005b610059610069366004611878565b61033a565b61005961007c366004611890565b6106bf565b6100896108fc565b61009288610986565b600061009e8986610a1a565b905060006100ae8a878686610a70565b9050600080868814156100c55750829050816100e0565b6100d0888886610b7b565b91506100dd888885610b7b565b90505b6100f3876100ee8484611933565b610c3e565b610106876101018484611933565b610cca565b60408051336020808301919091524282840152825180830384018152606090920190925280519101206000600080516020611ac383398151915290503381600001600084815260200190815260200160002060000160016101000a8154816001600160a01b0302191690836001600160a01b031602179055508c81600001600084815260200190815260200160002060020160006101000a8154816001600160a01b0302191690836001600160a01b031602179055508b816000016000848152602001908152602001600020600301819055508a8160000160008481526020019081526020016000206004018190555089816000016000848152602001908152602001600020600501819055508881600001600084815260200190815260200160002060060181905550868160000160008481526020019081526020016000206007018190555082816000016000848152602001908152602001600020600801819055508381600001600084815260200190815260200160002060090181905550600081600001600084815260200190815260200160002060000160006101000a81548160ff021916908360058111156102d057634e487b7160e01b600052602160045260246000fd5b02179055503360009081526001828101602052604082208054919290916102f8908490611933565b9091555050604051829033907f7725d660edf338714d06dbe6e084dbfd8b766ae8fc853a6c9fe58c2b8116c8f690600090a35050505050505050505050505050565b6103443382610d8a565b6000818152600080516020611ac38339815191526020819052604082205490919060ff16600581111561038757634e487b7160e01b600052602160045260246000fd5b14806103c35750600160008381526020839052604090205460ff1660058111156103c157634e487b7160e01b600052602160045260246000fd5b145b806103fe5750600360008381526020839052604090205460ff1660058111156103fc57634e487b7160e01b600052602160045260246000fd5b145b806104395750600460008381526020839052604090205460ff16600581111561043757634e487b7160e01b600052602160045260246000fd5b145b6104bc5760405162461bcd60e51b815260206004820152604360248201527f52756e6e65723a206a6f62207374617465206e6f742070656e64696e67206f7260448201527f206163636570746564206f7220636f6c6c6563746564206f722064656c6976656064820152621c995960ea1b608482015260a4015b60405180910390fd5b60008281526020829052604081205460ff1660058111156104ed57634e487b7160e01b600052602160045260246000fd5b141561052857600080600061050185610e1a565b94509450945050506105208382846105199190611933565b3333610e67565b505050610650565b600160008381526020839052604090205460ff16600581111561055b57634e487b7160e01b600052602160045260246000fd5b14156105735761056e8260006001610f71565b610650565b600360008381526020839052604090205460ff1660058111156105a657634e487b7160e01b600052602160045260246000fd5b14156105df576000828152602082905260409020600b015460ff16156105d25761056e82600180610f71565b61056e8260006001610f71565b600460008381526020839052604090205460ff16600581111561061257634e487b7160e01b600052602160045260246000fd5b1415610650576000828152602082905260409020600b0154610100900460ff16156106445761056e8260006001610f71565b61065082600180610f71565b336000908152600182810160205260408220805491929091610673908490611a75565b9091555050600082815260208290526040808220805460ff1916600217905551839133917f1c66ea706c3c221770525bd36f1c3c66d7c3eaca6b69c4b667fe86b1195a611d9190a35050565b6106c93383610d8a565b6000828152600080516020611ac3833981519152602081905260409091205460039060ff16600581111561070d57634e487b7160e01b600052602160045260246000fd5b14156107fe576000838152602082905260409020600b015460ff16610753576000838152602082905260409020600b01805461ff001916610100841515021790556108ca565b6000838152602082905260409020600b015460ff16801561078a57506000838152602082905260409020600b0154610100900460ff165b156107b6576000838152602082905260409020600b01805461ff001916610100841515021790556108ca565b60405162461bcd60e51b815260206004820152601b60248201527f5265717565737465723a20616c7265616479207665726966696564000000000060448201526064016104b3565b600460008481526020839052604090205460ff16600581111561083157634e487b7160e01b600052602160045260246000fd5b14156108ca5781156108a7576000838152602082905260409020600a015442106108a75760405162461bcd60e51b815260206004820152602160248201527f5265717565737465723a206469737075746520706572696f64206578706972656044820152601960fa1b60648201526084016104b3565b6000838152602082905260409020600b01805461ff001916610100841515021790555b604051839033907f5f9f68c2c12c510a24e30c7a0946f7cbbf95d04ae68d51487f758d55c1c3b7d090600090a3505050565b3360009081527fc7ddcdc008a4787bc0ebc7e57c6de87615ae1cb780f671ab25bfdfbd9cc9ce626020526040902054156109845760405162461bcd60e51b815260206004820152602360248201527f4c696252756e6e657252656769737472793a2063616c6c65722069732072756e6044820152623732b960e91b60648201526084016104b3565b565b7f291891b328c08e91561b70fdd022498fbad6a1a2e983983bc63d45e111cdf0ec336000908152602091825260408082206001600160a01b03851683529092522054421015610a175760405162461bcd60e51b815260206004820152601860248201527f4c696250656e616c74793a207374696c6c2062616e6e6564000000000000000060448201526064016104b3565b50565b6000610a2582611001565b7fbdcf11f75b7e8769a7ce2ae001dce0286f180944b0ee519b011a074601f6acc86001600160a01b038416600090815260209182526040808220858352909252205490505b92915050565b6000610a7b84611001565b6001600160a01b03851660008181527fbdcf11f75b7e8769a7ce2ae001dce0286f180944b0ee519b011a074601f6acc9602090815260408083208884528252808320548484527fbdcf11f75b7e8769a7ce2ae001dce0286f180944b0ee519b011a074601f6acca83528184208985528352818420549484527fbdcf11f75b7e8769a7ce2ae001dce0286f180944b0ee519b011a074601f6accb8352818420898552909252909120547fbdcf11f75b7e8769a7ce2ae001dce0286f180944b0ee519b011a074601f6acc89290610b508682611a56565b610b5a8884611a56565b610b649085611933565b610b6e9190611933565b9998505050505050505050565b6000838152600080516020611aa38339815191526020818152604080842086855290915282205482906001600160a01b031615610bc357610bbc8686611092565b9050610bd0565b610bcd86866111e9565b90505b6000868152600183016020908152604080832088845290915290205460ff1680610c1557506000868152600383016020908152604080832088845290915290205460ff165b15610c2d57610c248185611674565b92505050610c37565b610c248185611693565b9392505050565b7fc15856d6786c9849fce88accf879bc2b002dc555d3ff91b5869e3b7b51c529bb336000908152602091825260408082208583529092522054811115610cc65760405162461bcd60e51b815260206004820181905260248201527f4c6962486f6c64696e673a20696e73756666696369656e7420686f6c64696e6760448201526064016104b3565b5050565b3360009081527fc15856d6786c9849fce88accf879bc2b002dc555d3ff91b5869e3b7b51c529bb602081815260408084208685529091528220805491928492610d14908490611a75565b9091555050336000908152600182016020908152604080832086845290915281208054849290610d45908490611933565b9091555050604080518481526020810184905233917fb1593762ff20f7fe2289f7bec73ff895f464fe7e5b20af138cffeca343e8402b910160405180910390a2505050565b6000818152600080516020611ac383398151915260205260409020546001600160a01b038381166101009092041614610cc65760405162461bcd60e51b815260206004820152602c60248201527f4c69625265717565737465723a2063616c6c6572206e6f74206d61746368206a60448201526b37b1103932b8bab2b9ba32b960a11b60648201526084016104b3565b6000908152600080516020611ac38339815191526020526040902080546001820154600683015460088401546009909401546101009093046001600160a01b039081169592169390929091565b6001600160a01b03821660009081527fc15856d6786c9849fce88accf879bc2b002dc555d3ff91b5869e3b7b51c529bc60209081526040808320878452909152812080547fc15856d6786c9849fce88accf879bc2b002dc555d3ff91b5869e3b7b51c529bb92869291610edb908490611a75565b90915550506001600160a01b03821660009081526020828152604080832088845290915281208054869290610f11908490611933565b9091555050604080516001600160a01b038086168252841660208201529081018690526060810185905233907fbebca434b66bece58c971022a65ed7909850687c4469d4b0897812ee032077d29060800160405180910390a25050505050565b6000806000806000610f8288610e1a565b9450945094509450945060008060008060008b15610fa557869450859350610fac565b8594508693505b610fb68688611933565b92508a15610fc8575088905087610fce565b50879050885b610fda88868484610e67565b610fe688858485610e67565b610ff288848384610e67565b50505050505050505050505050565b60008181527f61c2c7cf5017a0ead7aef00d9e35505290722fe92da9eca2feee8f02980bf565602052604090205460ff16610a175760405162461bcd60e51b815260206004820152602b60248201527f4c696243757272656e637952656769737472793a2043757272656e6379206e6f60448201526a1d081cdd5c1c1bdc9d195960aa1b60648201526084016104b3565b600061109e83836116a8565b6000838152600080516020611aa383398151915260209081526040808320858452909152808220548151633fabe5a360e21b815291516001600160a01b039091169291839163feaf968c9160048082019260a092909190829003018186803b15801561110957600080fd5b505afa15801561111d573d6000803e3d6000fd5b505050506040513d601f19601f8201168201806040525081019061114191906118c3565b5050509150506000826001600160a01b031663313ce5676040518163ffffffff1660e01b815260040160206040518083038186803b15801561118257600080fd5b505afa158015611196573d6000803e3d6000fd5b505050506040513d601f19601f820116820180604052508101906111ba9190611912565b60ff1690506111ca816012611a75565b6111d590600a6119ae565b6111df9083611a56565b9695505050505050565b60006111f58383611735565b60008381527f53e81b6394f0808163be38c3d2fc2c762dd7686d10fe6296ed6cbf8c0f3e8b1560209081526040808320858452909152808220600101548151633fabe5a360e21b81529151600080516020611aa3833981519152936001600160a01b0390921692839163feaf968c9160048082019260a092909190829003018186803b15801561128457600080fd5b505afa158015611298573d6000803e3d6000fd5b505050506040513d601f19601f820116820180604052508101906112bc91906118c3565b5050509150506000826001600160a01b031663313ce5676040518163ffffffff1660e01b815260040160206040518083038186803b1580156112fd57600080fd5b505afa158015611311573d6000803e3d6000fd5b505050506040513d601f19601f820116820180604052508101906113359190611912565b60ff1690506000611347826012611a75565b61135290600a6119ae565b61135c9084611a56565b60008981526002878101602090815260408084208c8552909152808320909101548151633fabe5a360e21b81529151939450600160a01b810460ff16936001600160a01b039091169291839163feaf968c9160048082019260a092909190829003018186803b1580156113ce57600080fd5b505afa1580156113e2573d6000803e3d6000fd5b505050506040513d601f19601f8201168201806040525081019061140691906118c3565b5050509150506000826001600160a01b031663313ce5676040518163ffffffff1660e01b815260040160206040518083038186803b15801561144757600080fd5b505afa15801561145b573d6000803e3d6000fd5b505050506040513d601f19601f8201168201806040525081019061147f9190611912565b60ff1690506000611491826012611a75565b61149c90600a6119ae565b6114a69084611a56565b905060008a60020160008f815260200190815260200160002060008e815260200190815260200160002060020160159054906101000a900460ff1690506000861580156114f1575081155b1561151a578261150989670de0b6b3a7640000611a56565b611513919061194b565b9050611662565b861580156115255750815b1561155557611543836ec097ce7bc90715b34b9f100000000061194b565b61150989670de0b6b3a7640000611a56565b868015611560575081155b15611591578261157f896ec097ce7bc90715b34b9f100000000061194b565b61150990670de0b6b3a7640000611a56565b86801561159b5750815b156115d657826115b389670de0b6b3a7640000611a56565b6115bd919061194b565b611513906ec097ce7bc90715b34b9f100000000061194b565b60405162461bcd60e51b815260206004820152605560248201527f4c696245786368616e67653a2054686973207265766572742073686f756c642060448201527f6e6f7420657665722062652072756e202d20736f6d657468696e6720736572696064820152746f75736c792077726f6e67207769746820636f646560581b608482015260a4016104b3565b9e9d5050505050505050505050505050565b6000670de0b6b3a76400006116898484611a56565b610c37919061194b565b60008261168983670de0b6b3a7640000611a56565b6000600080516020611aa383398151915260008481526020918252604080822085835290925220546001600160a01b03161415610cc65760405162461bcd60e51b815260206004820152602560248201527f4c696245786368616e67653a2050726963652066656564206e6f7420737570706044820152641bdc9d195960da1b60648201526084016104b3565b60008281527f53e81b6394f0808163be38c3d2fc2c762dd7686d10fe6296ed6cbf8c0f3e8b15602090815260408083208484529091529020600101546001600160a01b0316610cc65760405162461bcd60e51b815260206004820152602d60248201527f4c696245786368616e67653a204465726976656420707269636520666565642060448201526c1b9bdd081cdd5c1c1bdc9d1959609a1b60648201526084016104b3565b80356001600160a01b03811681146117f357600080fd5b919050565b805169ffffffffffffffffffff811681146117f357600080fd5b600080600080600080600080610100898b03121561182e578384fd5b611837896117dc565b975061184560208a016117dc565b979a9799505050506040860135956060810135956080820135955060a0820135945060c0820135935060e0909101359150565b600060208284031215611889578081fd5b5035919050565b600080604083850312156118a2578182fd5b82359150602083013580151581146118b8578182fd5b809150509250929050565b600080600080600060a086880312156118da578081fd5b6118e3866117f8565b9450602086015193506040860151925060608601519150611906608087016117f8565b90509295509295909350565b600060208284031215611923578081fd5b815160ff81168114610c37578182fd5b6000821982111561194657611946611a8c565b500190565b60008261196657634e487b7160e01b81526012600452602481fd5b500490565b600181815b808511156119a657816000190482111561198c5761198c611a8c565b8085161561199957918102915b93841c9390800290611970565b509250929050565b6000610c3783836000826119c457506001610a6a565b816119d157506000610a6a565b81600181146119e757600281146119f157611a0d565b6001915050610a6a565b60ff841115611a0257611a02611a8c565b50506001821b610a6a565b5060208310610133831016604e8410600b8410161715611a30575081810a610a6a565b611a3a838361196b565b8060001904821115611a4e57611a4e611a8c565b029392505050565b6000816000190483118215151615611a7057611a70611a8c565b500290565b600082821015611a8757611a87611a8c565b500390565b634e487b7160e01b600052601160045260246000fdfe53e81b6394f0808163be38c3d2fc2c762dd7686d10fe6296ed6cbf8c0f3e8b13e79924097ccc2e2b47e332de4c30d72abc5a8153cca3b67cc7a0f5258cd81de8a2646970667358221220df3cc54769bdb44ba3627096e37f4cedf67703b12d794b55fe7c2327470a4d1364736f6c63430008040033","bytecodeSha1":"17f419e91960b875c3875d245bf3f70e56d56875","compiler":{"evm_version":"istanbul","optimizer":{"enabled":true,"runs":200},"version":"0.8.4+commit.c7e474f2"},"contractName":"Requester","language":"Solidity","natspec":{"kind":"dev","methods":{},"version":1},"opcodes":"PUSH1 0x80 PUSH1 0x40 MSTORE CALLVALUE DUP1 ISZERO PUSH2 0x10 JUMPI PUSH1 0x0 DUP1 REVERT JUMPDEST POP PUSH1 0x4 CALLDATASIZE LT PUSH2 0x41 JUMPI PUSH1 0x0 CALLDATALOAD PUSH1 0xE0 SHR DUP1 PUSH4 0x55973AD1 EQ PUSH2 0x46 JUMPI DUP1 PUSH4 0x5AC3CE40 EQ PUSH2 0x5B JUMPI DUP1 PUSH4 0x8FE06E72 EQ PUSH2 0x6E JUMPI JUMPDEST PUSH1 0x0 DUP1 REVERT JUMPDEST PUSH2 0x59 PUSH2 0x54 CALLDATASIZE PUSH1 0x4 PUSH2 0x1812 JUMP JUMPDEST PUSH2 0x81 JUMP JUMPDEST STOP JUMPDEST PUSH2 0x59 PUSH2 0x69 CALLDATASIZE PUSH1 0x4 PUSH2 0x1878 JUMP JUMPDEST PUSH2 0x33A JUMP JUMPDEST PUSH2 0x59 PUSH2 0x7C CALLDATASIZE PUSH1 0x4 PUSH2 0x1890 JUMP JUMPDEST PUSH2 0x6BF JUMP JUMPDEST PUSH2 0x89 PUSH2 0x8FC JUMP JUMPDEST PUSH2 0x92 DUP9 PUSH2 0x986 JUMP JUMPDEST PUSH1 0x0 PUSH2 0x9E DUP10 DUP7 PUSH2 0xA1A JUMP JUMPDEST SWAP1 POP PUSH1 0x0 PUSH2 0xAE DUP11 DUP8 DUP7 DUP7 PUSH2 0xA70 JUMP JUMPDEST SWAP1 POP PUSH1 0x0 DUP1 DUP7 DUP9 EQ ISZERO PUSH2 0xC5 JUMPI POP DUP3 SWAP1 POP DUP2 PUSH2 0xE0 JUMP JUMPDEST PUSH2 0xD0 DUP9 DUP9 DUP7 PUSH2 0xB7B JUMP JUMPDEST SWAP2 POP PUSH2 0xDD DUP9 DUP9 DUP6 PUSH2 0xB7B JUMP JUMPDEST SWAP1 POP JUMPDEST PUSH2 0xF3 DUP8 PUSH2 0xEE DUP5 DUP5 PUSH2 0x1933 JUMP JUMPDEST PUSH2 0xC3E JUMP JUMPDEST PUSH2 0x106 DUP8 PUSH2 0x101 DUP5 DUP5 PUSH2 0x1933 JUMP JUMPDEST PUSH2 0xCCA JUMP JUMPDEST PUSH1 0x40 DUP1 MLOAD CALLER PUSH1 0x20 DUP1 DUP4 ADD SWAP2 SWAP1 SWAP2 MSTORE TIMESTAMP DUP3 DUP5 ADD MSTORE DUP3 MLOAD DUP1 DUP4 SUB DUP5 ADD DUP2 MSTORE PUSH1 0x60 SWAP1 SWAP3 ADD SWAP1 SWAP3 MSTORE DUP1 MLOAD SWAP2 ADD KECCAK256 PUSH1 0x0 PUSH1 0x0 DUP1 MLOAD PUSH1 0x20 PUSH2 0x1AC3 DUP4 CODECOPY DUP2 MLOAD SWAP2 MSTORE SWAP1 POP CALLER DUP2 PUSH1 0x0 ADD PUSH1 0x0 DUP5 DUP2 MSTORE PUSH1 0x20 ADD SWAP1 DUP2 MSTORE PUSH1 0x20 ADD PUSH1 0x0 KECCAK256 PUSH1 0x0 ADD PUSH1 0x1 PUSH2 0x100 EXP DUP2 SLOAD DUP2 PUSH1 0x1 PUSH1 0x1 PUSH1 0xA0 SHL SUB MUL NOT AND SWAP1 DUP4 PUSH1 0x1 PUSH1 0x1 PUSH1 0xA0 SHL SUB AND MUL OR SWAP1 SSTORE POP DUP13 DUP2 PUSH1 0x0 ADD PUSH1 0x0 DUP5 DUP2 MSTORE PUSH1 0x20 ADD SWAP1 DUP2 MSTORE PUSH1 0x20 ADD PUSH1 0x0 KECCAK256 PUSH1 0x2 ADD PUSH1 0x0 PUSH2 0x100 EXP DUP2 SLOAD DUP2 PUSH1 0x1 PUSH1 0x1 PUSH1 0xA0 SHL SUB MUL NOT AND SWAP1 DUP4 PUSH1 0x1 PUSH1 0x1 PUSH1 0xA0 SHL SUB AND MUL OR SWAP1 SSTORE POP DUP12 DUP2 PUSH1 0x0 ADD PUSH1 0x0 DUP5 DUP2 MSTORE PUSH1 0x20 ADD SWAP1 DUP2 MSTORE PUSH1 0x20 ADD PUSH1 0x0 KECCAK256 PUSH1 0x3 ADD DUP2 SWAP1 SSTORE POP DUP11 DUP2 PUSH1 0x0 ADD PUSH1 0x0 DUP5 DUP2 MSTORE PUSH1 0x20 ADD SWAP1 DUP2 MSTORE PUSH1 0x20 ADD PUSH1 0x0 KECCAK256 PUSH1 0x4 ADD DUP2 SWAP1 SSTORE POP DUP10 DUP2 PUSH1 0x0 ADD PUSH1 0x0 DUP5 DUP2 MSTORE PUSH1 0x20 ADD SWAP1 DUP2 MSTORE PUSH1 0x20 ADD PUSH1 0x0 KECCAK256 PUSH1 0x5 ADD DUP2 SWAP1 SSTORE POP DUP9 DUP2 PUSH1 0x0 ADD PUSH1 0x0 DUP5 DUP2 MSTORE PUSH1 0x20 ADD SWAP1 DUP2 MSTORE PUSH1 0x20 ADD PUSH1 0x0 KECCAK256 PUSH1 0x6 ADD DUP2 SWAP1 SSTORE POP DUP7 DUP2 PUSH1 0x0 ADD PUSH1 0x0 DUP5 DUP2 MSTORE PUSH1 0x20 ADD SWAP1 DUP2 MSTORE PUSH1 0x20 ADD PUSH1 0x0 KECCAK256 PUSH1 0x7 ADD DUP2 SWAP1 SSTORE POP DUP3 DUP2 PUSH1 0x0 ADD PUSH1 0x0 DUP5 DUP2 MSTORE PUSH1 0x20 ADD SWAP1 DUP2 MSTORE PUSH1 0x20 ADD PUSH1 0x0 KECCAK256 PUSH1 0x8 ADD DUP2 SWAP1 SSTORE POP DUP4 DUP2 PUSH1 0x0 ADD PUSH1 0x0 DUP5 DUP2 MSTORE PUSH1 0x20 ADD SWAP1 DUP2 MSTORE PUSH1 0x20 ADD PUSH1 0x0 KECCAK256 PUSH1 0x9 ADD DUP2 SWAP1 SSTORE POP PUSH1 0x0 DUP2 PUSH1 0x0 ADD PUSH1 0x0 DUP5 DUP2 MSTORE PUSH1 0x20 ADD SWAP1 DUP2 MSTORE PUSH1 0x20 ADD PUSH1 0x0 KECCAK256 PUSH1 0x0 ADD PUSH1 0x0 PUSH2 0x100 EXP DUP2 SLOAD DUP2 PUSH1 0xFF MUL NOT AND SWAP1 DUP4 PUSH1 0x5 DUP2 GT ISZERO PUSH2 0x2D0 JUMPI PUSH4 0x4E487B71 PUSH1 0xE0 SHL PUSH1 0x0 MSTORE PUSH1 0x21 PUSH1 0x4 MSTORE PUSH1 0x24 PUSH1 0x0 REVERT JUMPDEST MUL OR SWAP1 SSTORE POP CALLER PUSH1 0x0 SWAP1 DUP2 MSTORE PUSH1 0x1 DUP3 DUP2 ADD PUSH1 0x20 MSTORE PUSH1 0x40 DUP3 KECCAK256 DUP1 SLOAD SWAP2 SWAP3 SWAP1 SWAP2 PUSH2 0x2F8 SWAP1 DUP5 SWAP1 PUSH2 0x1933 JUMP JUMPDEST SWAP1 SWAP2 SSTORE POP POP PUSH1 0x40 MLOAD DUP3 SWAP1 CALLER SWAP1 PUSH32 0x7725D660EDF338714D06DBE6E084DBFD8B766AE8FC853A6C9FE58C2B8116C8F6 SWAP1 PUSH1 0x0 SWAP1 LOG3 POP POP POP POP POP POP POP POP POP POP POP POP POP POP JUMP JUMPDEST PUSH2 0x344 CALLER DUP3 PUSH2 0xD8A JUMP JUMPDEST PUSH1 0x0 DUP2 DUP2 MSTORE PUSH1 0x0 DUP1 MLOAD PUSH1 0x20 PUSH2 0x1AC3 DUP4 CODECOPY DUP2 MLOAD SWAP2 MSTORE PUSH1 0x20 DUP2 SWAP1 MSTORE PUSH1 0x40 DUP3 KECCAK256 SLOAD SWAP1 SWAP2 SWAP1 PUSH1 0xFF AND PUSH1 0x5 DUP2 GT ISZERO PUSH2 0x387 JUMPI PUSH4 0x4E487B71 PUSH1 0xE0 SHL PUSH1 0x0 MSTORE PUSH1 0x21 PUSH1 0x4 MSTORE PUSH1 0x24 PUSH1 0x0 REVERT JUMPDEST EQ DUP1 PUSH2 0x3C3 JUMPI POP PUSH1 0x1 PUSH1 0x0 DUP4 DUP2 MSTORE PUSH1 0x20 DUP4 SWAP1 MSTORE PUSH1 0x40 SWAP1 KECCAK256 SLOAD PUSH1 0xFF AND PUSH1 0x5 DUP2 GT ISZERO PUSH2 0x3C1 JUMPI PUSH4 0x4E487B71 PUSH1 0xE0 SHL PUSH1 0x0 MSTORE PUSH1 0x21 PUSH1 0x4 MSTORE PUSH1 0x24 PUSH1 0x0 REVERT JUMPDEST EQ JUMPDEST DUP1 PUSH2 0x3FE JUMPI POP PUSH1 0x3 PUSH1 0x0 DUP4 DUP2 MSTORE PUSH1 0x20 DUP4 SWAP1 MSTORE PUSH1 0x40 SWAP1 KECCAK256 SLOAD PUSH1 0xFF AND PUSH1 0x5 DUP2 GT ISZERO PUSH2 0x3FC JUMPI PUSH4 0x4E487B71 PUSH1 0xE0 SHL PUSH1 0x0 MSTORE PUSH1 0x21 PUSH1 0x4 MSTORE PUSH1 0x24 PUSH1 0x0 REVERT JUMPDEST EQ JUMPDEST DUP1 PUSH2 0x439 JUMPI POP PUSH1 0x4 PUSH1 0x0 DUP4 DUP2 MSTORE PUSH1 0x20 DUP4 SWAP1 MSTORE PUSH1 0x40 SWAP1 KECCAK256 SLOAD PUSH1 0xFF AND PUSH1 0x5 DUP2 GT ISZERO PUSH2 0x437 JUMPI PUSH4 0x4E487B71 PUSH1 0xE0 SHL PUSH1 0x0 MSTORE PUSH1 0x21 PUSH1 0x4 MSTORE PUSH1 0x24 PUSH1 0x0 REVERT JUMPDEST EQ JUMPDEST PUSH2 0x4BC JUMPI PUSH1 0x40 MLOAD PUSH3 0x461BCD PUSH1 0xE5 SHL DUP2 MSTORE PUSH1 0x20 PUSH1 0x4 DUP3 ADD MSTORE PUSH1 0x43 PUSH1 0x24 DUP3 ADD MSTORE PUSH32 0x52756E6E65723A206A6F62207374617465206E6F742070656E64696E67206F72 PUSH1 0x44 DUP3 ADD MSTORE PUSH32 0x206163636570746564206F7220636F6C6C6563746564206F722064656C697665 PUSH1 0x64 DUP3 ADD MSTORE PUSH3 0x1C9959 PUSH1 0xEA SHL PUSH1 0x84 DUP3 ADD MSTORE PUSH1 0xA4 ADD JUMPDEST PUSH1 0x40 MLOAD DUP1 SWAP2 SUB SWAP1 REVERT JUMPDEST PUSH1 0x0 DUP3 DUP2 MSTORE PUSH1 0x20 DUP3 SWAP1 MSTORE PUSH1 0x40 DUP2 KECCAK256 SLOAD PUSH1 0xFF AND PUSH1 0x5 DUP2 GT ISZERO PUSH2 0x4ED JUMPI PUSH4 0x4E487B71 PUSH1 0xE0 SHL PUSH1 0x0 MSTORE PUSH1 0x21 PUSH1 0x4 MSTORE PUSH1 0x24 PUSH1 0x0 REVERT JUMPDEST EQ ISZERO PUSH2 0x528 JUMPI PUSH1 0x0 DUP1 PUSH1 0x0 PUSH2 0x501 DUP6 PUSH2 0xE1A JUMP JUMPDEST SWAP5 POP SWAP5 POP SWAP5 POP POP POP PUSH2 0x520 DUP4 DUP3 DUP5 PUSH2 0x519 SWAP2 SWAP1 PUSH2 0x1933 JUMP JUMPDEST CALLER CALLER PUSH2 0xE67 JUMP JUMPDEST POP POP POP PUSH2 0x650 JUMP JUMPDEST PUSH1 0x1 PUSH1 0x0 DUP4 DUP2 MSTORE PUSH1 0x20 DUP4 SWAP1 MSTORE PUSH1 0x40 SWAP1 KECCAK256 SLOAD PUSH1 0xFF AND PUSH1 0x5 DUP2 GT ISZERO PUSH2 0x55B JUMPI PUSH4 0x4E487B71 PUSH1 0xE0 SHL PUSH1 0x0 MSTORE PUSH1 0x21 PUSH1 0x4 MSTORE PUSH1 0x24 PUSH1 0x0 REVERT JUMPDEST EQ ISZERO PUSH2 0x573 JUMPI PUSH2 0x56E DUP3 PUSH1 0x0 PUSH1 0x1 PUSH2 0xF71 JUMP JUMPDEST PUSH2 0x650 JUMP JUMPDEST PUSH1 0x3 PUSH1 0x0 DUP4 DUP2 MSTORE PUSH1 0x20 DUP4 SWAP1 MSTORE PUSH1 0x40 SWAP1 KECCAK256 SLOAD PUSH1 0xFF AND PUSH1 0x5 DUP2 GT ISZERO PUSH2 0x5A6 JUMPI PUSH4 0x4E487B71 PUSH1 0xE0 SHL PUSH1 0x0 MSTORE PUSH1 0x21 PUSH1 0x4 MSTORE PUSH1 0x24 PUSH1 0x0 REVERT JUMPDEST EQ ISZERO PUSH2 0x5DF JUMPI PUSH1 0x0 DUP3 DUP2 MSTORE PUSH1 0x20 DUP3 SWAP1 MSTORE PUSH1 0x40 SWAP1 KECCAK256 PUSH1 0xB ADD SLOAD PUSH1 0xFF AND ISZERO PUSH2 0x5D2 JUMPI PUSH2 0x56E DUP3 PUSH1 0x1 DUP1 PUSH2 0xF71 JUMP JUMPDEST PUSH2 0x56E DUP3 PUSH1 0x0 PUSH1 0x1 PUSH2 0xF71 JUMP JUMPDEST PUSH1 0x4 PUSH1 0x0 DUP4 DUP2 MSTORE PUSH1 0x20 DUP4 SWAP1 MSTORE PUSH1 0x40 SWAP1 KECCAK256 SLOAD PUSH1 0xFF AND PUSH1 0x5 DUP2 GT ISZERO PUSH2 0x612 JUMPI PUSH4 0x4E487B71 PUSH1 0xE0 SHL PUSH1 0x0 MSTORE PUSH1 0x21 PUSH1 0x4 MSTORE PUSH1 0x24 PUSH1 0x0 REVERT JUMPDEST EQ ISZERO PUSH2 0x650 JUMPI PUSH1 0x0 DUP3 DUP2 MSTORE PUSH1 0x20 DUP3 SWAP1 MSTORE PUSH1 0x40 SWAP1 KECCAK256 PUSH1 0xB ADD SLOAD PUSH2 0x100 SWAP1 DIV PUSH1 0xFF AND ISZERO PUSH2 0x644 JUMPI PUSH2 0x56E DUP3 PUSH1 0x0 PUSH1 0x1 PUSH2 0xF71 JUMP JUMPDEST PUSH2 0x650 DUP3 PUSH1 0x1 DUP1 PUSH2 0xF71 JUMP JUMPDEST CALLER PUSH1 0x0 SWAP1 DUP2 MSTORE PUSH1 0x1 DUP3 DUP2 ADD PUSH1 0x20 MSTORE PUSH1 0x40 DUP3 KECCAK256 DUP1 SLOAD SWAP2 SWAP3 SWAP1 SWAP2 PUSH2 0x673 SWAP1 DUP5 SWAP1 PUSH2 0x1A75 JUMP JUMPDEST SWAP1 SWAP2 SSTORE POP POP PUSH1 0x0 DUP3 DUP2 MSTORE PUSH1 0x20 DUP3 SWAP1 MSTORE PUSH1 0x40 DUP1 DUP3 KECCAK256 DUP1 SLOAD PUSH1 0xFF NOT AND PUSH1 0x2 OR SWAP1 SSTORE MLOAD DUP4 SWAP2 CALLER SWAP2 PUSH32 0x1C66EA706C3C221770525BD36F1C3C66D7C3EACA6B69C4B667FE86B1195A611D SWAP2 SWAP1 LOG3 POP POP JUMP JUMPDEST PUSH2 0x6C9 CALLER DUP4 PUSH2 0xD8A JUMP JUMPDEST PUSH1 0x0 DUP3 DUP2 MSTORE PUSH1 0x0 DUP1 MLOAD PUSH1 0x20 PUSH2 0x1AC3 DUP4 CODECOPY DUP2 MLOAD SWAP2 MSTORE PUSH1 0x20 DUP2 SWAP1 MSTORE PUSH1 0x40 SWAP1 SWAP2 KECCAK256 SLOAD PUSH1 0x3 SWAP1 PUSH1 0xFF AND PUSH1 0x5 DUP2 GT ISZERO PUSH2 0x70D JUMPI PUSH4 0x4E487B71 PUSH1 0xE0 SHL PUSH1 0x0 MSTORE PUSH1 0x21 PUSH1 0x4 MSTORE PUSH1 0x24 PUSH1 0x0 REVERT JUMPDEST EQ ISZERO PUSH2 0x7FE JUMPI PUSH1 0x0 DUP4 DUP2 MSTORE PUSH1 0x20 DUP3 SWAP1 MSTORE PUSH1 0x40 SWAP1 KECCAK256 PUSH1 0xB ADD SLOAD PUSH1 0xFF AND PUSH2 0x753 JUMPI PUSH1 0x0 DUP4 DUP2 MSTORE PUSH1 0x20 DUP3 SWAP1 MSTORE PUSH1 0x40 SWAP1 KECCAK256 PUSH1 0xB ADD DUP1 SLOAD PUSH2 0xFF00 NOT AND PUSH2 0x100 DUP5 ISZERO ISZERO MUL OR SWAP1 SSTORE PUSH2 0x8CA JUMP JUMPDEST PUSH1 0x0 DUP4 DUP2 MSTORE PUSH1 0x20 DUP3 SWAP1 MSTORE PUSH1 0x40 SWAP1 KECCAK256 PUSH1 0xB ADD SLOAD PUSH1 0xFF AND DUP1 ISZERO PUSH2 0x78A JUMPI POP PUSH1 0x0 DUP4 DUP2 MSTORE PUSH1 0x20 DUP3 SWAP1 MSTORE PUSH1 0x40 SWAP1 KECCAK256 PUSH1 0xB ADD SLOAD PUSH2 0x100 SWAP1 DIV PUSH1 0xFF AND JUMPDEST ISZERO PUSH2 0x7B6 JUMPI PUSH1 0x0 DUP4 DUP2 MSTORE PUSH1 0x20 DUP3 SWAP1 MSTORE PUSH1 0x40 SWAP1 KECCAK256 PUSH1 0xB ADD DUP1 SLOAD PUSH2 0xFF00 NOT AND PUSH2 0x100 DUP5 ISZERO ISZERO MUL OR SWAP1 SSTORE PUSH2 0x8CA JUMP JUMPDEST PUSH1 0x40 MLOAD PUSH3 0x461BCD PUSH1 0xE5 SHL DUP2 MSTORE PUSH1 0x20 PUSH1 0x4 DUP3 ADD MSTORE PUSH1 0x1B PUSH1 0x24 DUP3 ADD MSTORE PUSH32 0x5265717565737465723A20616C72656164792076657269666965640000000000 PUSH1 0x44 DUP3 ADD MSTORE PUSH1 0x64 ADD PUSH2 0x4B3 JUMP JUMPDEST PUSH1 0x4 PUSH1 0x0 DUP5 DUP2 MSTORE PUSH1 0x20 DUP4 SWAP1 MSTORE PUSH1 0x40 SWAP1 KECCAK256 SLOAD PUSH1 0xFF AND PUSH1 0x5 DUP2 GT ISZERO PUSH2 0x831 JUMPI PUSH4 0x4E487B71 PUSH1 0xE0 SHL PUSH1 0x0 MSTORE PUSH1 0x21 PUSH1 0x4 MSTORE PUSH1 0x24 PUSH1 0x0 REVERT JUMPDEST EQ ISZERO PUSH2 0x8CA JUMPI DUP2 ISZERO PUSH2 0x8A7 JUMPI PUSH1 0x0 DUP4 DUP2 MSTORE PUSH1 0x20 DUP3 SWAP1 MSTORE PUSH1 0x40 SWAP1 KECCAK256 PUSH1 0xA ADD SLOAD TIMESTAMP LT PUSH2 0x8A7 JUMPI PUSH1 0x40 MLOAD PUSH3 0x461BCD PUSH1 0xE5 SHL DUP2 MSTORE PUSH1 0x20 PUSH1 0x4 DUP3 ADD MSTORE PUSH1 0x21 PUSH1 0x24 DUP3 ADD MSTORE PUSH32 0x5265717565737465723A206469737075746520706572696F6420657870697265 PUSH1 0x44 DUP3 ADD MSTORE PUSH1 0x19 PUSH1 0xFA SHL PUSH1 0x64 DUP3 ADD MSTORE PUSH1 0x84 ADD PUSH2 0x4B3 JUMP JUMPDEST PUSH1 0x0 DUP4 DUP2 MSTORE PUSH1 0x20 DUP3 SWAP1 MSTORE PUSH1 0x40 SWAP1 KECCAK256 PUSH1 0xB ADD DUP1 SLOAD PUSH2 0xFF00 NOT AND PUSH2 0x100 DUP5 ISZERO ISZERO MUL OR SWAP1 SSTORE JUMPDEST PUSH1 0x40 MLOAD DUP4 SWAP1 CALLER SWAP1 PUSH32 0x5F9F68C2C12C510A24E30C7A0946F7CBBF95D04AE68D51487F758D55C1C3B7D0 SWAP1 PUSH1 0x0 SWAP1 LOG3 POP POP POP JUMP JUMPDEST CALLER PUSH1 0x0 SWAP1 DUP2 MSTORE PUSH32 0xC7DDCDC008A4787BC0EBC7E57C6DE87615AE1CB780F671AB25BFDFBD9CC9CE62 PUSH1 0x20 MSTORE PUSH1 0x40 SWAP1 KECCAK256 SLOAD ISZERO PUSH2 0x984 JUMPI PUSH1 0x40 MLOAD PUSH3 0x461BCD PUSH1 0xE5 SHL DUP2 MSTORE PUSH1 0x20 PUSH1 0x4 DUP3 ADD MSTORE PUSH1 0x23 PUSH1 0x24 DUP3 ADD MSTORE PUSH32 0x4C696252756E6E657252656769737472793A2063616C6C65722069732072756E PUSH1 0x44 DUP3 ADD MSTORE PUSH3 0x3732B9 PUSH1 0xE9 SHL PUSH1 0x64 DUP3 ADD MSTORE PUSH1 0x84 ADD PUSH2 0x4B3 JUMP JUMPDEST JUMP JUMPDEST PUSH32 0x291891B328C08E91561B70FDD022498FBAD6A1A2E983983BC63D45E111CDF0EC CALLER PUSH1 0x0 SWAP1 DUP2 MSTORE PUSH1 0x20 SWAP2 DUP3 MSTORE PUSH1 0x40 DUP1 DUP3 KECCAK256 PUSH1 0x1 PUSH1 0x1 PUSH1 0xA0 SHL SUB DUP6 AND DUP4 MSTORE SWAP1 SWAP3 MSTORE KECCAK256 SLOAD TIMESTAMP LT ISZERO PUSH2 0xA17 JUMPI PUSH1 0x40 MLOAD PUSH3 0x461BCD PUSH1 0xE5 SHL DUP2 MSTORE PUSH1 0x20 PUSH1 0x4 DUP3 ADD MSTORE PUSH1 0x18 PUSH1 0x24 DUP3 ADD MSTORE PUSH32 0x4C696250656E616C74793A207374696C6C2062616E6E65640000000000000000 PUSH1 0x44 DUP3 ADD MSTORE PUSH1 0x64 ADD PUSH2 0x4B3 JUMP JUMPDEST POP JUMP JUMPDEST PUSH1 0x0 PUSH2 0xA25 DUP3 PUSH2 0x1001 JUMP JUMPDEST PUSH32 0xBDCF11F75B7E8769A7CE2AE001DCE0286F180944B0EE519B011A074601F6ACC8 PUSH1 0x1 PUSH1 0x1 PUSH1 0xA0 SHL SUB DUP5 AND PUSH1 0x0 SWAP1 DUP2 MSTORE PUSH1 0x20 SWAP2 DUP3 MSTORE PUSH1 0x40 DUP1 DUP3 KECCAK256 DUP6 DUP4 MSTORE SWAP1 SWAP3 MSTORE KECCAK256 SLOAD SWAP1 POP JUMPDEST SWAP3 SWAP2 POP POP JUMP JUMPDEST PUSH1 0x0 PUSH2 0xA7B DUP5 PUSH2 0x1001 JUMP JUMPDEST PUSH1 0x1 PUSH1 0x1 PUSH1 0xA0 SHL SUB DUP6 AND PUSH1 0x0 DUP2 DUP2 MSTORE PUSH32 0xBDCF11F75B7E8769A7CE2AE001DCE0286F180944B0EE519B011A074601F6ACC9 PUSH1 0x20 SWAP1 DUP2 MSTORE PUSH1 0x40 DUP1 DUP4 KECCAK256 DUP9 DUP5 MSTORE DUP3 MSTORE DUP1 DUP4 KECCAK256 SLOAD DUP5 DUP5 MSTORE PUSH32 0xBDCF11F75B7E8769A7CE2AE001DCE0286F180944B0EE519B011A074601F6ACCA DUP4 MSTORE DUP2 DUP5 KECCAK256 DUP10 DUP6 MSTORE DUP4 MSTORE DUP2 DUP5 KECCAK256 SLOAD SWAP5 DUP5 MSTORE PUSH32 0xBDCF11F75B7E8769A7CE2AE001DCE0286F180944B0EE519B011A074601F6ACCB DUP4 MSTORE DUP2 DUP5 KECCAK256 DUP10 DUP6 MSTORE SWAP1 SWAP3 MSTORE SWAP1 SWAP2 KECCAK256 SLOAD PUSH32 0xBDCF11F75B7E8769A7CE2AE001DCE0286F180944B0EE519B011A074601F6ACC8 SWAP3 SWAP1 PUSH2 0xB50 DUP7 DUP3 PUSH2 0x1A56 JUMP JUMPDEST PUSH2 0xB5A DUP9 DUP5 PUSH2 0x1A56 JUMP JUMPDEST PUSH2 0xB64 SWAP1 DUP6 PUSH2 0x1933 JUMP JUMPDEST PUSH2 0xB6E SWAP2 SWAP1 PUSH2 0x1933 JUMP JUMPDEST SWAP10 SWAP9 POP POP POP POP POP POP POP POP POP JUMP JUMPDEST PUSH1 0x0 DUP4 DUP2 MSTORE PUSH1 0x0 DUP1 MLOAD PUSH1 0x20 PUSH2 0x1AA3 DUP4 CODECOPY DUP2 MLOAD SWAP2 MSTORE PUSH1 0x20 DUP2 DUP2 MSTORE PUSH1 0x40 DUP1 DUP5 KECCAK256 DUP7 DUP6 MSTORE SWAP1 SWAP2 MSTORE DUP3 KECCAK256 SLOAD DUP3 SWAP1 PUSH1 0x1 PUSH1 0x1 PUSH1 0xA0 SHL SUB AND ISZERO PUSH2 0xBC3 JUMPI PUSH2 0xBBC DUP7 DUP7 PUSH2 0x1092 JUMP JUMPDEST SWAP1 POP PUSH2 0xBD0 JUMP JUMPDEST PUSH2 0xBCD DUP7 DUP7 PUSH2 0x11E9 JUMP JUMPDEST SWAP1 POP JUMPDEST PUSH1 0x0 DUP7 DUP2 MSTORE PUSH1 0x1 DUP4 ADD PUSH1 0x20 SWAP1 DUP2 MSTORE PUSH1 0x40 DUP1 DUP4 KECCAK256 DUP9 DUP5 MSTORE SWAP1 SWAP2 MSTORE SWAP1 KECCAK256 SLOAD PUSH1 0xFF AND DUP1 PUSH2 0xC15 JUMPI POP PUSH1 0x0 DUP7 DUP2 MSTORE PUSH1 0x3 DUP4 ADD PUSH1 0x20 SWAP1 DUP2 MSTORE PUSH1 0x40 DUP1 DUP4 KECCAK256 DUP9 DUP5 MSTORE SWAP1 SWAP2 MSTORE SWAP1 KECCAK256 SLOAD PUSH1 0xFF AND JUMPDEST ISZERO PUSH2 0xC2D JUMPI PUSH2 0xC24 DUP2 DUP6 PUSH2 0x1674 JUMP JUMPDEST SWAP3 POP POP POP PUSH2 0xC37 JUMP JUMPDEST PUSH2 0xC24 DUP2 DUP6 PUSH2 0x1693 JUMP JUMPDEST SWAP4 SWAP3 POP POP POP JUMP JUMPDEST PUSH32 0xC15856D6786C9849FCE88ACCF879BC2B002DC555D3FF91B5869E3B7B51C529BB CALLER PUSH1 0x0 SWAP1 DUP2 MSTORE PUSH1 0x20 SWAP2 DUP3 MSTORE PUSH1 0x40 DUP1 DUP3 KECCAK256 DUP6 DUP4 MSTORE SWAP1 SWAP3 MSTORE KECCAK256 SLOAD DUP2 GT ISZERO PUSH2 0xCC6 JUMPI PUSH1 0x40 MLOAD PUSH3 0x461BCD PUSH1 0xE5 SHL DUP2 MSTORE PUSH1 0x20 PUSH1 0x4 DUP3 ADD DUP2 SWAP1 MSTORE PUSH1 0x24 DUP3 ADD MSTORE PUSH32 0x4C6962486F6C64696E673A20696E73756666696369656E7420686F6C64696E67 PUSH1 0x44 DUP3 ADD MSTORE PUSH1 0x64 ADD PUSH2 0x4B3 JUMP JUMPDEST POP POP JUMP JUMPDEST CALLER PUSH1 0x0 SWAP1 DUP2 MSTORE PUSH32 0xC15856D6786C9849FCE88ACCF879BC2B002DC555D3FF91B5869E3B7B51C529BB PUSH1 0x20 DUP2 DUP2 MSTORE PUSH1 0x40 DUP1 DUP5 KECCAK256 DUP7 DUP6 MSTORE SWAP1 SWAP2 MSTORE DUP3 KECCAK256 DUP1 SLOAD SWAP2 SWAP3 DUP5 SWAP3 PUSH2 0xD14 SWAP1 DUP5 SWAP1 PUSH2 0x1A75 JUMP JUMPDEST SWAP1 SWAP2 SSTORE POP POP CALLER PUSH1 0x0 SWAP1 DUP2 MSTORE PUSH1 0x1 DUP3 ADD PUSH1 0x20 SWAP1 DUP2 MSTORE PUSH1 0x40 DUP1 DUP4 KECCAK256 DUP7 DUP5 MSTORE SWAP1 SWAP2 MSTORE DUP2 KECCAK256 DUP1 SLOAD DUP5 SWAP3 SWAP1 PUSH2 0xD45 SWAP1 DUP5 SWAP1 PUSH2 0x1933 JUMP JUMPDEST SWAP1 SWAP2 SSTORE POP POP PUSH1 0x40 DUP1 MLOAD DUP5 DUP2 MSTORE PUSH1 0x20 DUP2 ADD DUP5 SWAP1 MSTORE CALLER SWAP2 PUSH32 0xB1593762FF20F7FE2289F7BEC73FF895F464FE7E5B20AF138CFFECA343E8402B SWAP2 ADD PUSH1 0x40 MLOAD DUP1 SWAP2 SUB SWAP1 LOG2 POP POP POP JUMP JUMPDEST PUSH1 0x0 DUP2 DUP2 MSTORE PUSH1 0x0 DUP1 MLOAD PUSH1 0x20 PUSH2 0x1AC3 DUP4 CODECOPY DUP2 MLOAD SWAP2 MSTORE PUSH1 0x20 MSTORE PUSH1 0x40 SWAP1 KECCAK256 SLOAD PUSH1 0x1 PUSH1 0x1 PUSH1 0xA0 SHL SUB DUP4 DUP2 AND PUSH2 0x100 SWAP1 SWAP3 DIV AND EQ PUSH2 0xCC6 JUMPI PUSH1 0x40 MLOAD PUSH3 0x461BCD PUSH1 0xE5 SHL DUP2 MSTORE PUSH1 0x20 PUSH1 0x4 DUP3 ADD MSTORE PUSH1 0x2C PUSH1 0x24 DUP3 ADD MSTORE PUSH32 0x4C69625265717565737465723A2063616C6C6572206E6F74206D61746368206A PUSH1 0x44 DUP3 ADD MSTORE PUSH12 0x37B1103932B8BAB2B9BA32B9 PUSH1 0xA1 SHL PUSH1 0x64 DUP3 ADD MSTORE PUSH1 0x84 ADD PUSH2 0x4B3 JUMP JUMPDEST PUSH1 0x0 SWAP1 DUP2 MSTORE PUSH1 0x0 DUP1 MLOAD PUSH1 0x20 PUSH2 0x1AC3 DUP4 CODECOPY DUP2 MLOAD SWAP2 MSTORE PUSH1 0x20 MSTORE PUSH1 0x40 SWAP1 KECCAK256 DUP1 SLOAD PUSH1 0x1 DUP3 ADD SLOAD PUSH1 0x6 DUP4 ADD SLOAD PUSH1 0x8 DUP5 ADD SLOAD PUSH1 0x9 SWAP1 SWAP5 ADD SLOAD PUSH2 0x100 SWAP1 SWAP4 DIV PUSH1 0x1 PUSH1 0x1 PUSH1 0xA0 SHL SUB SWAP1 DUP2 AND SWAP6 SWAP3 AND SWAP4 SWAP1 SWAP3 SWAP1 SWAP2 JUMP JUMPDEST PUSH1 0x1 PUSH1 0x1 PUSH1 0xA0 SHL SUB DUP3 AND PUSH1 0x0 SWAP1 DUP2 MSTORE PUSH32 0xC15856D6786C9849FCE88ACCF879BC2B002DC555D3FF91B5869E3B7B51C529BC PUSH1 0x20 SWAP1 DUP2 MSTORE PUSH1 0x40 DUP1 DUP4 KECCAK256 DUP8 DUP5 MSTORE SWAP1 SWAP2 MSTORE DUP2 KECCAK256 DUP1 SLOAD PUSH32 0xC15856D6786C9849FCE88ACCF879BC2B002DC555D3FF91B5869E3B7B51C529BB SWAP3 DUP7 SWAP3 SWAP2 PUSH2 0xEDB SWAP1 DUP5 SWAP1 PUSH2 0x1A75 JUMP JUMPDEST SWAP1 SWAP2 SSTORE POP POP PUSH1 0x1 PUSH1 0x1 PUSH1 0xA0 SHL SUB DUP3 AND PUSH1 0x0 SWAP1 DUP2 MSTORE PUSH1 0x20 DUP3 DUP2 MSTORE PUSH1 0x40 DUP1 DUP4 KECCAK256 DUP9 DUP5 MSTORE SWAP1 SWAP2 MSTORE DUP2 KECCAK256 DUP1 SLOAD DUP7 SWAP3 SWAP1 PUSH2 0xF11 SWAP1 DUP5 SWAP1 PUSH2 0x1933 JUMP JUMPDEST SWAP1 SWAP2 SSTORE POP POP PUSH1 0x40 DUP1 MLOAD PUSH1 0x1 PUSH1 0x1 PUSH1 0xA0 SHL SUB DUP1 DUP7 AND DUP3 MSTORE DUP5 AND PUSH1 0x20 DUP3 ADD MSTORE SWAP1 DUP2 ADD DUP7 SWAP1 MSTORE PUSH1 0x60 DUP2 ADD DUP6 SWAP1 MSTORE CALLER SWAP1 PUSH32 0xBEBCA434B66BECE58C971022A65ED7909850687C4469D4B0897812EE032077D2 SWAP1 PUSH1 0x80 ADD PUSH1 0x40 MLOAD DUP1 SWAP2 SUB SWAP1 LOG2 POP POP POP POP POP JUMP JUMPDEST PUSH1 0x0 DUP1 PUSH1 0x0 DUP1 PUSH1 0x0 PUSH2 0xF82 DUP9 PUSH2 0xE1A JUMP JUMPDEST SWAP5 POP SWAP5 POP SWAP5 POP SWAP5 POP SWAP5 POP PUSH1 0x0 DUP1 PUSH1 0x0 DUP1 PUSH1 0x0 DUP12 ISZERO PUSH2 0xFA5 JUMPI DUP7 SWAP5 POP DUP6 SWAP4 POP PUSH2 0xFAC JUMP JUMPDEST DUP6 SWAP5 POP DUP7 SWAP4 POP JUMPDEST PUSH2 0xFB6 DUP7 DUP9 PUSH2 0x1933 JUMP JUMPDEST SWAP3 POP DUP11 ISZERO PUSH2 0xFC8 JUMPI POP DUP9 SWAP1 POP DUP8 PUSH2 0xFCE JUMP JUMPDEST POP DUP8 SWAP1 POP DUP9 JUMPDEST PUSH2 0xFDA DUP9 DUP7 DUP5 DUP5 PUSH2 0xE67 JUMP JUMPDEST PUSH2 0xFE6 DUP9 DUP6 DUP5 DUP6 PUSH2 0xE67 JUMP JUMPDEST PUSH2 0xFF2 DUP9 DUP5 DUP4 DUP5 PUSH2 0xE67 JUMP JUMPDEST POP POP POP POP POP POP POP POP POP POP POP POP POP JUMP JUMPDEST PUSH1 0x0 DUP2 DUP2 MSTORE PUSH32 0x61C2C7CF5017A0EAD7AEF00D9E35505290722FE92DA9ECA2FEEE8F02980BF565 PUSH1 0x20 MSTORE PUSH1 0x40 SWAP1 KECCAK256 SLOAD PUSH1 0xFF AND PUSH2 0xA17 JUMPI PUSH1 0x40 MLOAD PUSH3 0x461BCD PUSH1 0xE5 SHL DUP2 MSTORE PUSH1 0x20 PUSH1 0x4 DUP3 ADD MSTORE PUSH1 0x2B PUSH1 0x24 DUP3 ADD MSTORE PUSH32 0x4C696243757272656E637952656769737472793A2043757272656E6379206E6F PUSH1 0x44 DUP3 ADD MSTORE PUSH11 0x1D081CDD5C1C1BDC9D1959 PUSH1 0xAA SHL PUSH1 0x64 DUP3 ADD MSTORE PUSH1 0x84 ADD PUSH2 0x4B3 JUMP JUMPDEST PUSH1 0x0 PUSH2 0x109E DUP4 DUP4 PUSH2 0x16A8 JUMP JUMPDEST PUSH1 0x0 DUP4 DUP2 MSTORE PUSH1 0x0 DUP1 MLOAD PUSH1 0x20 PUSH2 0x1AA3 DUP4 CODECOPY DUP2 MLOAD SWAP2 MSTORE PUSH1 0x20 SWAP1 DUP2 MSTORE PUSH1 0x40 DUP1 DUP4 KECCAK256 DUP6 DUP5 MSTORE SWAP1 SWAP2 MSTORE DUP1 DUP3 KECCAK256 SLOAD DUP2 MLOAD PUSH4 0x3FABE5A3 PUSH1 0xE2 SHL DUP2 MSTORE SWAP2 MLOAD PUSH1 0x1 PUSH1 0x1 PUSH1 0xA0 SHL SUB SWAP1 SWAP2 AND SWAP3 SWAP2 DUP4 SWAP2 PUSH4 0xFEAF968C SWAP2 PUSH1 0x4 DUP1 DUP3 ADD SWAP3 PUSH1 0xA0 SWAP3 SWAP1 SWAP2 SWAP1 DUP3 SWAP1 SUB ADD DUP2 DUP7 DUP1 EXTCODESIZE ISZERO DUP1 ISZERO PUSH2 0x1109 JUMPI PUSH1 0x0 DUP1 REVERT JUMPDEST POP GAS STATICCALL ISZERO DUP1 ISZERO PUSH2 0x111D JUMPI RETURNDATASIZE PUSH1 0x0 DUP1 RETURNDATACOPY RETURNDATASIZE PUSH1 0x0 REVERT JUMPDEST POP POP POP POP PUSH1 0x40 MLOAD RETURNDATASIZE PUSH1 0x1F NOT PUSH1 0x1F DUP3 ADD AND DUP3 ADD DUP1 PUSH1 0x40 MSTORE POP DUP2 ADD SWAP1 PUSH2 0x1141 SWAP2 SWAP1 PUSH2 0x18C3 JUMP JUMPDEST POP POP POP SWAP2 POP POP PUSH1 0x0 DUP3 PUSH1 0x1 PUSH1 0x1 PUSH1 0xA0 SHL SUB AND PUSH4 0x313CE567 PUSH1 0x40 MLOAD DUP2 PUSH4 0xFFFFFFFF AND PUSH1 0xE0 SHL DUP2 MSTORE PUSH1 0x4 ADD PUSH1 0x20 PUSH1 0x40 MLOAD DUP1 DUP4 SUB DUP2 DUP7 DUP1 EXTCODESIZE ISZERO DUP1 ISZERO PUSH2 0x1182 JUMPI PUSH1 0x0 DUP1 REVERT JUMPDEST POP GAS STATICCALL ISZERO DUP1 ISZERO PUSH2 0x1196 JUMPI RETURNDATASIZE PUSH1 0x0 DUP1 RETURNDATACOPY RETURNDATASIZE PUSH1 0x0 REVERT JUMPDEST POP POP POP POP PUSH1 0x40 MLOAD RETURNDATASIZE PUSH1 0x1F NOT PUSH1 0x1F DUP3 ADD AND DUP3 ADD DUP1 PUSH1 0x40 MSTORE POP DUP2 ADD SWAP1 PUSH2 0x11BA SWAP2 SWAP1 PUSH2 0x1912 JUMP JUMPDEST PUSH1 0xFF AND SWAP1 POP PUSH2 0x11CA DUP2 PUSH1 0x12 PUSH2 0x1A75 JUMP JUMPDEST PUSH2 0x11D5 SWAP1 PUSH1 0xA PUSH2 0x19AE JUMP JUMPDEST PUSH2 0x11DF SWAP1 DUP4 PUSH2 0x1A56 JUMP JUMPDEST SWAP7 SWAP6 POP POP POP POP POP POP JUMP JUMPDEST PUSH1 0x0 PUSH2 0x11F5 DUP4 DUP4 PUSH2 0x1735 JUMP JUMPDEST PUSH1 0x0 DUP4 DUP2 MSTORE PUSH32 0x53E81B6394F0808163BE38C3D2FC2C762DD7686D10FE6296ED6CBF8C0F3E8B15 PUSH1 0x20 SWAP1 DUP2 MSTORE PUSH1 0x40 DUP1 DUP4 KECCAK256 DUP6 DUP5 MSTORE SWAP1 SWAP2 MSTORE DUP1 DUP3 KECCAK256 PUSH1 0x1 ADD SLOAD DUP2 MLOAD PUSH4 0x3FABE5A3 PUSH1 0xE2 SHL DUP2 MSTORE SWAP2 MLOAD PUSH1 0x0 DUP1 MLOAD PUSH1 0x20 PUSH2 0x1AA3 DUP4 CODECOPY DUP2 MLOAD SWAP2 MSTORE SWAP4 PUSH1 0x1 PUSH1 0x1 PUSH1 0xA0 SHL SUB SWAP1 SWAP3 AND SWAP3 DUP4 SWAP2 PUSH4 0xFEAF968C SWAP2 PUSH1 0x4 DUP1 DUP3 ADD SWAP3 PUSH1 0xA0 SWAP3 SWAP1 SWAP2 SWAP1 DUP3 SWAP1 SUB ADD DUP2 DUP7 DUP1 EXTCODESIZE ISZERO DUP1 ISZERO PUSH2 0x1284 JUMPI PUSH1 0x0 DUP1 REVERT JUMPDEST POP GAS STATICCALL ISZERO DUP1 ISZERO PUSH2 0x1298 JUMPI RETURNDATASIZE PUSH1 0x0 DUP1 RETURNDATACOPY RETURNDATASIZE PUSH1 0x0 REVERT JUMPDEST POP POP POP POP PUSH1 0x40 MLOAD RETURNDATASIZE PUSH1 0x1F NOT PUSH1 0x1F DUP3 ADD AND DUP3 ADD DUP1 PUSH1 0x40 MSTORE POP DUP2 ADD SWAP1 PUSH2 0x12BC SWAP2 SWAP1 PUSH2 0x18C3 JUMP JUMPDEST POP POP POP SWAP2 POP POP PUSH1 0x0 DUP3 PUSH1 0x1 PUSH1 0x1 PUSH1 0xA0 SHL SUB AND PUSH4 0x313CE567 PUSH1 0x40 MLOAD DUP2 PUSH4 0xFFFFFFFF AND PUSH1 0xE0 SHL DUP2 MSTORE PUSH1 0x4 ADD PUSH1 0x20 PUSH1 0x40 MLOAD DUP1 DUP4 SUB DUP2 DUP7 DUP1 EXTCODESIZE ISZERO DUP1 ISZERO PUSH2 0x12FD JUMPI PUSH1 0x0 DUP1 REVERT JUMPDEST POP GAS STATICCALL ISZERO DUP1 ISZERO PUSH2 0x1311 JUMPI RETURNDATASIZE PUSH1 0x0 DUP1 RETURNDATACOPY RETURNDATASIZE PUSH1 0x0 REVERT JUMPDEST POP POP POP POP PUSH1 0x40 MLOAD RETURNDATASIZE PUSH1 0x1F NOT PUSH1 0x1F DUP3 ADD AND DUP3 ADD DUP1 PUSH1 0x40 MSTORE POP DUP2 ADD SWAP1 PUSH2 0x1335 SWAP2 SWAP1 PUSH2 0x1912 JUMP JUMPDEST PUSH1 0xFF AND SWAP1 POP PUSH1 0x0 PUSH2 0x1347 DUP3 PUSH1 0x12 PUSH2 0x1A75 JUMP JUMPDEST PUSH2 0x1352 SWAP1 PUSH1 0xA PUSH2 0x19AE JUMP JUMPDEST PUSH2 0x135C SWAP1 DUP5 PUSH2 0x1A56 JUMP JUMPDEST PUSH1 0x0 DUP10 DUP2 MSTORE PUSH1 0x2 DUP8 DUP2 ADD PUSH1 0x20 SWAP1 DUP2 MSTORE PUSH1 0x40 DUP1 DUP5 KECCAK256 DUP13 DUP6 MSTORE SWAP1 SWAP2 MSTORE DUP1 DUP4 KECCAK256 SWAP1 SWAP2 ADD SLOAD DUP2 MLOAD PUSH4 0x3FABE5A3 PUSH1 0xE2 SHL DUP2 MSTORE SWAP2 MLOAD SWAP4 SWAP5 POP PUSH1 0x1 PUSH1 0xA0 SHL DUP2 DIV PUSH1 0xFF AND SWAP4 PUSH1 0x1 PUSH1 0x1 PUSH1 0xA0 SHL SUB SWAP1 SWAP2 AND SWAP3 SWAP2 DUP4 SWAP2 PUSH4 0xFEAF968C SWAP2 PUSH1 0x4 DUP1 DUP3 ADD SWAP3 PUSH1 0xA0 SWAP3 SWAP1 SWAP2 SWAP1 DUP3 SWAP1 SUB ADD DUP2 DUP7 DUP1 EXTCODESIZE ISZERO DUP1 ISZERO PUSH2 0x13CE JUMPI PUSH1 0x0 DUP1 REVERT JUMPDEST POP GAS STATICCALL ISZERO DUP1 ISZERO PUSH2 0x13E2 JUMPI RETURNDATASIZE PUSH1 0x0 DUP1 RETURNDATACOPY RETURNDATASIZE PUSH1 0x0 REVERT JUMPDEST POP POP POP POP PUSH1 0x40 MLOAD RETURNDATASIZE PUSH1 0x1F NOT PUSH1 0x1F DUP3 ADD AND DUP3 ADD DUP1 PUSH1 0x40 MSTORE POP DUP2 ADD SWAP1 PUSH2 0x1406 SWAP2 SWAP1 PUSH2 0x18C3 JUMP JUMPDEST POP POP POP SWAP2 POP POP PUSH1 0x0 DUP3 PUSH1 0x1 PUSH1 0x1 PUSH1 0xA0 SHL SUB AND PUSH4 0x313CE567 PUSH1 0x40 MLOAD DUP2 PUSH4 0xFFFFFFFF AND PUSH1 0xE0 SHL DUP2 MSTORE PUSH1 0x4 ADD PUSH1 0x20 PUSH1 0x40 MLOAD DUP1 DUP4 SUB DUP2 DUP7 DUP1 EXTCODESIZE ISZERO DUP1 ISZERO PUSH2 0x1447 JUMPI PUSH1 0x0 DUP1 REVERT JUMPDEST POP GAS STATICCALL ISZERO DUP1 ISZERO PUSH2 0x145B JUMPI RETURNDATASIZE PUSH1 0x0 DUP1 RETURNDATACOPY RETURNDATASIZE PUSH1 0x0 REVERT JUMPDEST POP POP POP POP PUSH1 0x40 MLOAD RETURNDATASIZE PUSH1 0x1F NOT PUSH1 0x1F DUP3 ADD AND DUP3 ADD DUP1 PUSH1 0x40 MSTORE POP DUP2 ADD SWAP1 PUSH2 0x147F SWAP2 SWAP1 PUSH2 0x1912 JUMP JUMPDEST PUSH1 0xFF AND SWAP1 POP PUSH1 0x0 PUSH2 0x1491 DUP3 PUSH1 0x12 PUSH2 0x1A75 JUMP JUMPDEST PUSH2 0x149C SWAP1 PUSH1 0xA PUSH2 0x19AE JUMP JUMPDEST PUSH2 0x14A6 SWAP1 DUP5 PUSH2 0x1A56 JUMP JUMPDEST SWAP1 POP PUSH1 0x0 DUP11 PUSH1 0x2 ADD PUSH1 0x0 DUP16 DUP2 MSTORE PUSH1 0x20 ADD SWAP1 DUP2 MSTORE PUSH1 0x20 ADD PUSH1 0x0 KECCAK256 PUSH1 0x0 DUP15 DUP2 MSTORE PUSH1 0x20 ADD SWAP1 DUP2 MSTORE PUSH1 0x20 ADD PUSH1 0x0 KECCAK256 PUSH1 0x2 ADD PUSH1 0x15 SWAP1 SLOAD SWAP1 PUSH2 0x100 EXP SWAP1 DIV PUSH1 0xFF AND SWAP1 POP PUSH1 0x0 DUP7 ISZERO DUP1 ISZERO PUSH2 0x14F1 JUMPI POP DUP2 ISZERO JUMPDEST ISZERO PUSH2 0x151A JUMPI DUP3 PUSH2 0x1509 DUP10 PUSH8 0xDE0B6B3A7640000 PUSH2 0x1A56 JUMP JUMPDEST PUSH2 0x1513 SWAP2 SWAP1 PUSH2 0x194B JUMP JUMPDEST SWAP1 POP PUSH2 0x1662 JUMP JUMPDEST DUP7 ISZERO DUP1 ISZERO PUSH2 0x1525 JUMPI POP DUP2 JUMPDEST ISZERO PUSH2 0x1555 JUMPI PUSH2 0x1543 DUP4 PUSH15 0xC097CE7BC90715B34B9F1000000000 PUSH2 0x194B JUMP JUMPDEST PUSH2 0x1509 DUP10 PUSH8 0xDE0B6B3A7640000 PUSH2 0x1A56 JUMP JUMPDEST DUP7 DUP1 ISZERO PUSH2 0x1560 JUMPI POP DUP2 ISZERO JUMPDEST ISZERO PUSH2 0x1591 JUMPI DUP3 PUSH2 0x157F DUP10 PUSH15 0xC097CE7BC90715B34B9F1000000000 PUSH2 0x194B JUMP JUMPDEST PUSH2 0x1509 SWAP1 PUSH8 0xDE0B6B3A7640000 PUSH2 0x1A56 JUMP JUMPDEST DUP7 DUP1 ISZERO PUSH2 0x159B JUMPI POP DUP2 JUMPDEST ISZERO PUSH2 0x15D6 JUMPI DUP3 PUSH2 0x15B3 DUP10 PUSH8 0xDE0B6B3A7640000 PUSH2 0x1A56 JUMP JUMPDEST PUSH2 0x15BD SWAP2 SWAP1 PUSH2 0x194B JUMP JUMPDEST PUSH2 0x1513 SWAP1 PUSH15 0xC097CE7BC90715B34B9F1000000000 PUSH2 0x194B JUMP JUMPDEST PUSH1 0x40 MLOAD PUSH3 0x461BCD PUSH1 0xE5 SHL DUP2 MSTORE PUSH1 0x20 PUSH1 0x4 DUP3 ADD MSTORE PUSH1 0x55 PUSH1 0x24 DUP3 ADD MSTORE PUSH32 0x4C696245786368616E67653A2054686973207265766572742073686F756C6420 PUSH1 0x44 DUP3 ADD MSTORE PUSH32 0x6E6F7420657665722062652072756E202D20736F6D657468696E672073657269 PUSH1 0x64 DUP3 ADD MSTORE PUSH21 0x6F75736C792077726F6E67207769746820636F6465 PUSH1 0x58 SHL PUSH1 0x84 DUP3 ADD MSTORE PUSH1 0xA4 ADD PUSH2 0x4B3 JUMP JUMPDEST SWAP15 SWAP14 POP POP POP POP POP POP POP POP POP POP POP POP POP POP JUMP JUMPDEST PUSH1 0x0 PUSH8 0xDE0B6B3A7640000 PUSH2 0x1689 DUP5 DUP5 PUSH2 0x1A56 JUMP JUMPDEST PUSH2 0xC37 SWAP2 SWAP1 PUSH2 0x194B JUMP JUMPDEST PUSH1 0x0 DUP3 PUSH2 0x1689 DUP4 PUSH8 0xDE0B6B3A7640000 PUSH2 0x1A56 JUMP JUMPDEST PUSH1 0x0 PUSH1 0x0 DUP1 MLOAD PUSH1 0x20 PUSH2 0x1AA3 DUP4 CODECOPY DUP2 MLOAD SWAP2 MSTORE PUSH1 0x0 DUP5 DUP2 MSTORE PUSH1 0x20 SWAP2 DUP3 MSTORE PUSH1 0x40 DUP1 DUP3 KECCAK256 DUP6 DUP4 MSTORE SWAP1 SWAP3 MSTORE KECCAK256 SLOAD PUSH1 0x1 PUSH1 0x1 PUSH1 0xA0 SHL SUB AND EQ ISZERO PUSH2 0xCC6 JUMPI PUSH1 0x40 MLOAD PUSH3 0x461BCD PUSH1 0xE5 SHL DUP2 MSTORE PUSH1 0x20 PUSH1 0x4 DUP3 ADD MSTORE PUSH1 0x25 PUSH1 0x24 DUP3 ADD MSTORE PUSH32 0x4C696245786368616E67653A2050726963652066656564206E6F742073757070 PUSH1 0x44 DUP3 ADD MSTORE PUSH5 0x1BDC9D1959 PUSH1 0xDA SHL PUSH1 0x64 DUP3 ADD MSTORE PUSH1 0x84 ADD PUSH2 0x4B3 JUMP JUMPDEST PUSH1 0x0 DUP3 DUP2 MSTORE PUSH32 0x53E81B6394F0808163BE38C3D2FC2C762DD7686D10FE6296ED6CBF8C0F3E8B15 PUSH1 0x20 SWAP1 DUP2 MSTORE PUSH1 0x40 DUP1 DUP4 KECCAK256 DUP5 DUP5 MSTORE SWAP1 SWAP2 MSTORE SWAP1 KECCAK256 PUSH1 0x1 ADD SLOAD PUSH1 0x1 PUSH1 0x1 PUSH1 0xA0 SHL SUB AND PUSH2 0xCC6 JUMPI PUSH1 0x40 MLOAD PUSH3 0x461BCD PUSH1 0xE5 SHL DUP2 MSTORE PUSH1 0x20 PUSH1 0x4 DUP3 ADD MSTORE PUSH1 0x2D PUSH1 0x24 DUP3 ADD MSTORE PUSH32 0x4C696245786368616E67653A2044657269766564207072696365206665656420 PUSH1 0x44 DUP3 ADD MSTORE PUSH13 0x1B9BDD081CDD5C1C1BDC9D1959 PUSH1 0x9A SHL PUSH1 0x64 DUP3 ADD MSTORE PUSH1 0x84 ADD PUSH2 0x4B3 JUMP JUMPDEST DUP1 CALLDATALOAD PUSH1 0x1 PUSH1 0x1 PUSH1 0xA0 SHL SUB DUP2 AND DUP2 EQ PUSH2 0x17F3 JUMPI PUSH1 0x0 DUP1 REVERT JUMPDEST SWAP2 SWAP1 POP JUMP JUMPDEST DUP1 MLOAD PUSH10 0xFFFFFFFFFFFFFFFFFFFF DUP2 AND DUP2 EQ PUSH2 0x17F3 JUMPI PUSH1 0x0 DUP1 REVERT JUMPDEST PUSH1 0x0 DUP1 PUSH1 0x0 DUP1 PUSH1 0x0 DUP1 PUSH1 0x0 DUP1 PUSH2 0x100 DUP10 DUP12 SUB SLT ISZERO PUSH2 0x182E JUMPI DUP4 DUP5 REVERT JUMPDEST PUSH2 0x1837 DUP10 PUSH2 0x17DC JUMP JUMPDEST SWAP8 POP PUSH2 0x1845 PUSH1 0x20 DUP11 ADD PUSH2 0x17DC JUMP JUMPDEST SWAP8 SWAP11 SWAP8 SWAP10 POP POP POP POP PUSH1 0x40 DUP7 ADD CALLDATALOAD SWAP6 PUSH1 0x60 DUP2 ADD CALLDATALOAD SWAP6 PUSH1 0x80 DUP3 ADD CALLDATALOAD SWAP6 POP PUSH1 0xA0 DUP3 ADD CALLDATALOAD SWAP5 POP PUSH1 0xC0 DUP3 ADD CALLDATALOAD SWAP4 POP PUSH1 0xE0 SWAP1 SWAP2 ADD CALLDATALOAD SWAP2 POP JUMP JUMPDEST PUSH1 0x0 PUSH1 0x20 DUP3 DUP5 SUB SLT ISZERO PUSH2 0x1889 JUMPI DUP1 DUP2 REVERT JUMPDEST POP CALLDATALOAD SWAP2 SWAP1 POP JUMP JUMPDEST PUSH1 0x0 DUP1 PUSH1 0x40 DUP4 DUP6 SUB SLT ISZERO PUSH2 0x18A2 JUMPI DUP2 DUP3 REVERT JUMPDEST DUP3 CALLDATALOAD SWAP2 POP PUSH1 0x20 DUP4 ADD CALLDATALOAD DUP1 ISZERO ISZERO DUP2 EQ PUSH2 0x18B8 JUMPI DUP2 DUP3 REVERT JUMPDEST DUP1 SWAP2 POP POP SWAP3 POP SWAP3 SWAP1 POP JUMP JUMPDEST PUSH1 0x0 DUP1 PUSH1 0x0 DUP1 PUSH1 0x0 PUSH1 0xA0 DUP7 DUP9 SUB SLT ISZERO PUSH2 0x18DA JUMPI DUP1 DUP2 REVERT JUMPDEST PUSH2 0x18E3 DUP7 PUSH2 0x17F8 JUMP JUMPDEST SWAP5 POP PUSH1 0x20 DUP7 ADD MLOAD SWAP4 POP PUSH1 0x40 DUP7 ADD MLOAD SWAP3 POP PUSH1 0x60 DUP7 ADD MLOAD SWAP2 POP PUSH2 0x1906 PUSH1 0x80 DUP8 ADD PUSH2 0x17F8 JUMP JUMPDEST SWAP1 POP SWAP3 SWAP6 POP SWAP3 SWAP6 SWAP1 SWAP4 POP JUMP JUMPDEST PUSH1 0x0 PUSH1 0x20 DUP3 DUP5 SUB SLT ISZERO PUSH2 0x1923 JUMPI DUP1 DUP2 REVERT JUMPDEST DUP2 MLOAD PUSH1 0xFF DUP2 AND DUP2 EQ PUSH2 0xC37 JUMPI DUP2 DUP3 REVERT JUMPDEST PUSH1 0x0 DUP3 NOT DUP3 GT ISZERO PUSH2 0x1946 JUMPI PUSH2 0x1946 PUSH2 0x1A8C JUMP JUMPDEST POP ADD SWAP1 JUMP JUMPDEST PUSH1 0x0 DUP3 PUSH2 0x1966 JUMPI PUSH4 0x4E487B71 PUSH1 0xE0 SHL DUP2 MSTORE PUSH1 0x12 PUSH1 0x4 MSTORE PUSH1 0x24 DUP2 REVERT JUMPDEST POP DIV SWAP1 JUMP JUMPDEST PUSH1 0x1 DUP2 DUP2 JUMPDEST DUP1 DUP6 GT ISZERO PUSH2 0x19A6 JUMPI DUP2 PUSH1 0x0 NOT DIV DUP3 GT ISZERO PUSH2 0x198C JUMPI PUSH2 0x198C PUSH2 0x1A8C JUMP JUMPDEST DUP1 DUP6 AND ISZERO PUSH2 0x1999 JUMPI SWAP2 DUP2 MUL SWAP2 JUMPDEST SWAP4 DUP5 SHR SWAP4 SWAP1 DUP1 MUL SWAP1 PUSH2 0x1970 JUMP JUMPDEST POP SWAP3 POP SWAP3 SWAP1 POP JUMP JUMPDEST PUSH1 0x0 PUSH2 0xC37 DUP4 DUP4 PUSH1 0x0 DUP3 PUSH2 0x19C4 JUMPI POP PUSH1 0x1 PUSH2 0xA6A JUMP JUMPDEST DUP2 PUSH2 0x19D1 JUMPI POP PUSH1 0x0 PUSH2 0xA6A JUMP JUMPDEST DUP2 PUSH1 0x1 DUP2 EQ PUSH2 0x19E7 JUMPI PUSH1 0x2 DUP2 EQ PUSH2 0x19F1 JUMPI PUSH2 0x1A0D JUMP JUMPDEST PUSH1 0x1 SWAP2 POP POP PUSH2 0xA6A JUMP JUMPDEST PUSH1 0xFF DUP5 GT ISZERO PUSH2 0x1A02 JUMPI PUSH2 0x1A02 PUSH2 0x1A8C JUMP JUMPDEST POP POP PUSH1 0x1 DUP3 SHL PUSH2 0xA6A JUMP JUMPDEST POP PUSH1 0x20 DUP4 LT PUSH2 0x133 DUP4 LT AND PUSH1 0x4E DUP5 LT PUSH1 0xB DUP5 LT AND OR ISZERO PUSH2 0x1A30 JUMPI POP DUP2 DUP2 EXP PUSH2 0xA6A JUMP JUMPDEST PUSH2 0x1A3A DUP4 DUP4 PUSH2 0x196B JUMP JUMPDEST DUP1 PUSH1 0x0 NOT DIV DUP3 GT ISZERO PUSH2 0x1A4E JUMPI PUSH2 0x1A4E PUSH2 0x1A8C JUMP JUMPDEST MUL SWAP4 SWAP3 POP POP POP JUMP JUMPDEST PUSH1 0x0 DUP2 PUSH1 0x0 NOT DIV DUP4 GT DUP3 ISZERO ISZERO AND ISZERO PUSH2 0x1A70 JUMPI PUSH2 0x1A70 PUSH2 0x1A8C JUMP JUMPDEST POP MUL SWAP1 JUMP JUMPDEST PUSH1 0x0 DUP3 DUP3 LT ISZERO PUSH2 0x1A87 JUMPI PUSH2 0x1A87 PUSH2 0x1A8C JUMP JUMPDEST POP SUB SWAP1 JUMP JUMPDEST PUSH4 0x4E487B71 PUSH1 0xE0 SHL PUSH1 0x0 MSTORE PUSH1 0x11 PUSH1 0x4 MSTORE PUSH1 0x24 PUSH1 0x0 REVERT INVALID MSTORE8 0xE8 SHL PUSH4 0x94F08081 PUSH4 0xBE38C3D2 0xFC 0x2C PUSH23 0x2DD7686D10FE6296ED6CBF8C0F3E8B13E79924097CCC2E 0x2B SELFBALANCE 0xE3 ORIGIN 0xDE 0x4C ADDRESS 0xD7 0x2A 0xBC GAS DUP2 MSTORE8 0xCC LOG3 0xB6 PUSH29 0xC7A0F5258CD81DE8A2646970667358221220DF3CC54769BDB44BA36270 SWAP7 0xE3 PUSH32 0x4CEDF67703B12D794B55FE7C2327470A4D1364736F6C63430008040033000000 ","sha1":"02306b485a2c214d9c6049dcce7133b6cc7b8a06","source":"//SPDX-License-Identifier: BUSL-1.1\npragma solidity ^0.8.2;\n\nimport \"../../libraries/core/LibJobBoard.sol\";\nimport \"../../libraries/core/LibHolding.sol\";\nimport \"../../libraries/core/LibRequester.sol\";\nimport \"../../libraries/core/LibRunnerRegistry.sol\";\nimport \"../../libraries/core/LibExchange.sol\";\nimport \"../../libraries/core/LibFee.sol\";\nimport \"../../libraries/core/LibPenalty.sol\";\n\nimport \"../../interfaces/IHubLibraryEvents.sol\";\n\ncontract Requester is IHubLibraryEvents {\n    event RequestRunner(address indexed sender, bytes32 indexed jobId);\n\n    function requestRunner(\n        address _hive,\n        address _package,\n        bytes32 _locationPackage,\n        bytes32 _locationDestination,\n        bytes32 _keyLocal,\n        bytes32 _keyTransact,\n        uint256 _minutes,\n        uint256 _metres\n    ) external {\n        LibRunnerRegistry._requireNotRunner();\n        LibPenalty._requireNotBanned(_hive);\n        // LibExchange._requireXPerYPriceFeedSupported(_keyLocal, _keyTransact); // note: double check on currency supported (check is already done indirectly by _getCancellationFee & _getFare, directly by currency conversion)\n        // /**\n        //  * Note: if frontend implement correctly, removing this line\n        //  *       LibExchange._requireXPerYPriceFeedSupported(_keyLocal, _keyPay);\n        //  *       would NOT be a problem\n        //  */\n\n        // get value / cancellation fee\n        uint256 cancellationFeeLocal = LibFee._getCancellationFee(\n            _hive,\n            _keyLocal\n        );\n        uint256 valueLocal = LibFee._getValue(\n            _hive,\n            _keyLocal,\n            _minutes,\n            _metres\n        );\n\n        // convert currency\n        uint256 cancellationFeeTransact;\n        uint256 valueTransact;\n        if (_keyLocal == _keyTransact) {\n            // when local is in crypto token\n            cancellationFeeTransact = cancellationFeeLocal;\n            valueTransact = valueLocal;\n        } else {\n            cancellationFeeTransact = LibExchange._convertCurrency(\n                _keyLocal,\n                _keyTransact,\n                cancellationFeeLocal\n            );\n            valueTransact = LibExchange._convertCurrency(\n                _keyLocal,\n                _keyTransact,\n                valueLocal\n            );\n        }\n\n        LibHolding._requireSufficientHolding(\n            _keyTransact,\n            valueTransact + cancellationFeeTransact\n        );\n        LibHolding._lockFunds(\n            _keyTransact,\n            valueTransact + cancellationFeeTransact\n        );\n\n        bytes32 jobId = keccak256(abi.encode(msg.sender, block.timestamp)); // TODO: make more unique? // encode gas seems less? but diff very small\n        // bytes32 jobId = 0x3c8a75d718cbd81494ea3e6b521a7260af9987ad25d04b35d0c81830bfad210e; // TODO: REMOVE, THIS FOR TESTING PURPOSES\n\n        LibJobBoard.StorageJobBoard storage s1 = LibJobBoard._storageJobBoard();\n\n        s1.jobIdToJobDetail[jobId].requester = msg.sender;\n        s1.jobIdToJobDetail[jobId].package = _package;\n        s1.jobIdToJobDetail[jobId].locationPackage = _locationPackage;\n        s1.jobIdToJobDetail[jobId].locationDestination = _locationDestination;\n        s1.jobIdToJobDetail[jobId].keyLocal = _keyLocal;\n        s1.jobIdToJobDetail[jobId].keyTransact = _keyTransact;\n        s1.jobIdToJobDetail[jobId].metres = _metres;\n        s1.jobIdToJobDetail[jobId].value = valueTransact;\n        s1.jobIdToJobDetail[jobId].cancellationFee = cancellationFeeTransact;\n        s1.jobIdToJobDetail[jobId].state = LibJobBoard.JobState.Pending;\n\n        s1.userToJobIdCount[msg.sender] += 1;\n\n        emit RequestRunner(msg.sender, jobId);\n    }\n\n    event RequesterCancelled(address indexed sender, bytes32 indexed jobId);\n\n    function cancelFromRequester(bytes32 _jobId) external {\n        LibRequester._requireMatchJobIdRequester(msg.sender, _jobId);\n\n        LibJobBoard.StorageJobBoard storage s1 = LibJobBoard._storageJobBoard();\n\n        require(\n            s1.jobIdToJobDetail[_jobId].state == LibJobBoard.JobState.Pending ||\n                s1.jobIdToJobDetail[_jobId].state ==\n                LibJobBoard.JobState.Accepted ||\n                s1.jobIdToJobDetail[_jobId].state ==\n                LibJobBoard.JobState.Collected ||\n                s1.jobIdToJobDetail[_jobId].state ==\n                LibJobBoard.JobState.Delivered,\n            \"Runner: job state not pending or accepted or collected or delivered\"\n        );\n\n        if (s1.jobIdToJobDetail[_jobId].state == LibJobBoard.JobState.Pending) {\n            (\n                ,\n                ,\n                bytes32 keyTransact,\n                uint256 value,\n                uint256 cancellationFee\n            ) = LibHolding._getFundsLockingDetail(_jobId);\n\n            LibHolding._unlockFunds(\n                keyTransact,\n                value + cancellationFee,\n                msg.sender,\n                msg.sender\n            );\n        } else if (\n            s1.jobIdToJobDetail[_jobId].state == LibJobBoard.JobState.Accepted\n        ) {\n            LibHolding._sortFundsUnlocking(_jobId, false, true);\n        } else if (\n            s1.jobIdToJobDetail[_jobId].state == LibJobBoard.JobState.Collected\n        ) {\n            if (s1.jobIdToJobDetail[_jobId].packageVerified) {\n                LibHolding._sortFundsUnlocking(_jobId, true, true);\n            } else {\n                LibHolding._sortFundsUnlocking(_jobId, false, true);\n            }\n        } else if (\n            s1.jobIdToJobDetail[_jobId].state == LibJobBoard.JobState.Delivered\n        ) {\n            // note: this case is needed in case where runner does NOT completeJob\n            /** TODO:\n             * need have verifiedPackage condition here?\n             * not really for now as verified is whether package collected or not\n             * not if reach destination or not\n             */\n\n            if (s1.jobIdToJobDetail[_jobId].dispute) {\n                LibHolding._sortFundsUnlocking(_jobId, false, true);\n            } else {\n                LibHolding._sortFundsUnlocking(_jobId, true, true);\n            }\n        }\n\n        s1.userToJobIdCount[msg.sender] -= 1;\n\n        s1.jobIdToJobDetail[_jobId].state = LibJobBoard.JobState.Cancelled; // note: not used as job cleared before this point\n\n        emit RequesterCancelled(msg.sender, _jobId);\n    }\n\n    event Dispute(address indexed sender, bytes32 indexed jobId);\n\n    function dispute(bytes32 _jobId, bool _dispute) external {\n        LibRequester._requireMatchJobIdRequester(msg.sender, _jobId);\n\n        LibJobBoard.StorageJobBoard storage s1 = LibJobBoard._storageJobBoard();\n\n        if (\n            s1.jobIdToJobDetail[_jobId].state == LibJobBoard.JobState.Collected\n        ) {\n            // only allow set dispute=true if not verified\n            if (!s1.jobIdToJobDetail[_jobId].packageVerified) {\n                s1.jobIdToJobDetail[_jobId].dispute = _dispute;\n            } else if (\n                s1.jobIdToJobDetail[_jobId].packageVerified &&\n                s1.jobIdToJobDetail[_jobId].dispute\n            ) {\n                s1.jobIdToJobDetail[_jobId].dispute = _dispute; // opportunity to set dispute=false\n            } else {\n                revert(\"Requester: already verified\");\n            }\n        } else if (\n            s1.jobIdToJobDetail[_jobId].state == LibJobBoard.JobState.Delivered\n        ) {\n            if (_dispute) {\n                require(\n                    block.timestamp <\n                        s1.jobIdToJobDetail[_jobId].disputeExpiryTimestamp,\n                    \"Requester: dispute period expired\"\n                );\n            } // note: to allow set false\n\n            s1.jobIdToJobDetail[_jobId].dispute = _dispute;\n        }\n\n        emit Dispute(msg.sender, _jobId);\n    }\n}\n","sourcePath":"contracts/hub/facets/core/Requester.sol","type":"contract","deployment":{"address":"0xf21FbFfA1865E1566696B4ff280130F4B2D3EEaA","chainid":"80001","blockHeight":26007199}}